:020000040800F2
:10000000F0FF00104D85040831D30208C51B02081B
:1000100015860408158604081586040800000000EB
:100020000000000000000000000000003DD30208B6
:1000300039D302080000000035D302083DEA010868
:100040001586040815860408158604081586040814
:100050001586040815860408D92102081923020808
:10006000D92202089922020859220208257303089E
:100070001573030805730308F5720308E17203089A
:10008000CD720308B97203081586040815860408A2
:100090001586040815860408158604081922020826
:1000A0001586040825E2010815860408E5E2010822
:1000B000158604081586040865E10108D17803084F
:1000C000D9780308C5780308CD7803081586040895
:1000D00015860408E1EC010845EC0108A9EB0108CC
:1000E0009921020815860408B521030819DF0108C3
:1000F000E5DF010815860408A5E00108A5720308DC
:100100001586040815860408158604081586040853
:100110000DEB010871EA0108D9EE0008C5EE0008F0
:10012000917203087D720308ED6A0308697203087F
:1001300055720308158604081586040815860408F8
:1001400015860408158604081586040879EB02084C
:10015000417203082D7203081972030815860408FA
:10016000B9780308C17803081586040815860408C1
:1001700015860408158604081586040815860408E3
:100180001586040815860408F480040001000000A8
:1001900007020200302B0020742B0020000000001A
:1001A000E006000802000C00042B0020782B002041
:1001B000000000000000000006020C00F82A0020E9
:1001C000842B002000000000D52D03080812090030
:1001D0007C2A0020902B0020000000006D260308E0
:1001E000F7010600762A00209C2B0020000000006A
:1001F000E20600080A020A00E4290020A42B0020DD
:1002000000000000E806000827000400A0290020E4
:10021000B02B002000000000F206000803000100DF
:10022000C0290020B42B00200000000000000000C6
:1002300003123300EF380020BC380020000000001B
:10024000F8060008250096007037002006380020C8
:100250000000000000000000F6210C0050350020D6
:1002600000370020000000002C0700081500700077
:100270002036002090360020000000000000000022
:100280002A00600060350020C0350020000000001A
:10029000D11604082C0010009C380020AC38002037
:1002A00000000000094D01082B0024004639002001
:1002B0002239002000000000D94C010829106400F8
:1002C000703400200C370020000000000000000007
:1002D00014000300FC3300205C3500200000000007
:1002E000380700081010020098320020B0390020B2
:1002F000000000003C0700082810100050300020CB
:10030000B439002000000000FD2E0108F82106008D
:10031000CA300020C4390020000000003E07000859
:100320001A023C00743A0020303E00200000000019
:10033000A92C03080A403000B2510020BC5800200C
:1003400000000000440700080E40200192500020E9
:10035000EC58002000000000F91604081300040007
:10036000245500200C5A00200000000074070008EB
:100370000101040012500020105A0020000000006B
:1003800000000000000104000A500020145A002060
:10039000000000007807000802010300055000205B
:1003A000185A002000000000998700080902010087
:1003B000F05700201C5A0020000000007C070008B5
:1003C0000C106C001C520020205A0020000000007D
:1003D00071870008010205001A5000208C5A002085
:1003E000000000008542020800020500445500207C
:1003F000945A0020000000000000000019000500D1
:10040000545700209C5A0020000000007E0700087E
:1004100037001E002C570020A45A002000000000C6
:10042000840700081E00050004530020C45A002061
:1004300000000000A20700081B00F400783E002026
:10044000CC5A002000000000795302080E0202007E
:1004500050560020C05B002000000000A8070008E4
:100460002F0011009D580020C45B002000000000F8
:10047000AA07000805100600CC710020787500203E
:1004800000000000BC070008F53170002C7100204E
:100490008075002000000000514D020826000E006B
:1004A00000760020F0750020000000007DC60208E4
:1004B0000B2010004C6E002034760020000000005D
:1004C000C20700081F201C009C6500204476002005
:1004D00000000000D207000805020400F4700020AC
:1004E0006076002000000000EE07000803010A000B
:1004F000046E00206476002000000000F20700086F
:100500001302030004640020707600200000000045
:10051000FC070008100201005890002054900020B1
:1005200000000000000800081600080050AF00207E
:1005300058AF0020000000000208000804008000FE
:1005400054D600200CD7002000000000000000005E
:100550002300100014D600208CD7002000000000DB
:10056000152F01080D00340074D500209CD7002001
:10057000000000001D7A0308FD011E00B0CC002021
:10058000D0D700200000000055C3010818202C001F
:1005900080CC0020F0D7002000000000712D03085F
:1005A00006101800DCBF00201CD80020000000004E
:1005B00055170408FB010100D8BF002034D80020E3
:1005C00000000000452D0308FC010900A4BE002026
:1005D00038D8002000000000552D0308340010001A
:1005E000CCBD002044D800200000000029170408DA
:1005F00011020800A4BD002054D800200000000013
:100600000A080008121204009CBD00205CD80020DB
:10061000000000001208000812200D008CBD002010
:1006200060D800200000000016080008F90104004E
:1006300034B8002070D8002000000000CDC30108AD
:100640001802020038B2002074D800200000000018
:100650000000000017020B002CB2002078D8002008
:100660000000000029260308FA01020008B2002059
:1006700084D8002000000000912703080202030034
:10068000BCAF002088D8002000000000000000005F
:100690000C02030078AF00208CD80020000000007E
:1006A00019260308FE010900DCB1002090D80020C3
:1006B00000000000A52603080120080014DB00202C
:1006C0009CDB002000000000240800081A000E0037
:1006D00004DB0020A4DB0020000000002C08000840
:1006E000023C3F010000000000004A01B400D601B6
:1006F00026002003000000000000000000000000B1
:1007000000000000000000000000000000000000E9
:1007100000000000000000000000000000000000D9
:1007200000000000000000000000010000000000C8
:1007300001000000020200000300000000050201A9
:10074000F401190000300100000001000000000069
:1007500000000000000000000000020000019E07F1
:100760007D0020000100B80BB80BB80B200078000A
:100770007800780008044430FA000000000000000F
:100780002801000020003200C800D00796001400A5
:1007900032002800B00440060005500014000F008D
:1007A0000800000001000000000000000000000040
:1007B0000000000000000000000000002000010117
:1007C00000002B21231E64010100000001000A012A
:1007D00029000000000000010000000500000102E7
:1007E0000300000000000000000000000000000006
:1007F0000000040101006C16000000000000000071
:100800000000C409000019012828000000000101AF
:100810000101FFFFFFFF00000001000005484553F4
:1008200050000000E8036400040A00017E05EA05A8
:10083000B4053200E803D007000001000000018089
:10084000000800000000000000000000803F0000E1
:1008500000000000000000000000FF000000000099
:100860000000642B00200800000000000000542B52
:1008700000200800000028A5040805080400000066
:10088000000068CE040848CF040854CE04080000D5
:1008900000000000000054A5040805080A0000003C
:1008A000000068CE040848CF040848CD04080000C2
:1008B000000000000000D6010000013F0108000018
:1008C0000000000000000100000000010101000024
:1008D0006B000101FFFFFFFFFFFF010102FFFF00AF
:1008E000000000000100E001010101000000594684
:1008F00002080000000028020020B43905080000AA
:100900000000000000000000000000000000342F84
:1009100005080000000000000000BE0200200400E6
:100920000000603905080D00000045710208AC1C8C
:10093000002000000000E03205080D0000006D718D
:100940000208A01C00200000000040340508080038
:10095000000000000000941C0020040000004C3344
:1009600005080D0000000D470208881C002000004B
:100970000000F433050803000000397302087C1CF2
:10098000002000000000C43905080300000039738E
:100990000208701C0020000000007C2F05080100E8
:1009A0000000000000000000000000000000000047
:1009B00000000E0000000000000000000000000029
:1009C0000000B4390508000000000000000000002D
:1009D000000000000000342F0508000000000000A7
:1009E0000000BE020020040000000C3905080300CE
:1009F00000005D4E0208641C0020080000004C331B
:100A000005080D0000000D470208881C00200000AA
:100A10000000F433050803000000397302087C1C51
:100A2000002000000000C4390508030000003973ED
:100A30000208701C0020000000007C2F0508010047
:100A400000000000000000000000000000000000A6
:100A500000000E0000000000000000000000000088
:100A60000000CC3905080000000000000000000074
:100A7000000000000000342F050800000000000006
:100A80000000BE0200200400000014390508030025
:100A9000000039730208B81C0020000000007C2F01
:100AA0000508010000000000000000000000000038
:100AB0000000000000000E00000000000000000028
:100AC00000000000000020700020702D7200FFFF69
:100AD000FFFF010000000000803F08000000000050
:100AE00000000000000020180020FA0000000100B3
:100AF000000001000000FFFF2D202D2D202D2D2DA9
:100B00002D202D2D2D000000000000000000000011
:100B100000000000000000000000FFFFFFFF502F5A
:100B20000508582F0508742F050800000000000074
:100B3000000000000000000000005D2D050804001A
:100B400000000D6F020800000000000000007C2F74
:100B50000508010000000000000000000000000087
:100B60000000000000000E00000000000000000077
:100B7000000000000000F4D600200100C4090000BD
:100B80000000F2D600200100C40900000000F0D6E9
:100B900000200100C40900000000EED60020010082
:100BA000C40900000000EAD600200100C4090000CA
:100BB0000000ECD600200100C40900000000E8D6C7
:100BC00000200100C40900000000E6D6002001005A
:100BD000C409000000002C5000200100C8000100E2
:100BE00000002A50002032003075320000002850EA
:100BF0000020055A05002550002000FF0100275065
:100C0000002001000000E402002023500020020028
:100C1000000074CF04082450002000FF010026507B
:100C2000002001000000E402002022500020020009
:100C3000000074CF04081850002080C1803E0500D9
:100C400000001650002080C1803E050000001050BA
:100C5000002080C1803E050000000E50002080C1B1
:100C6000803E050000000850002000FF01000450F5
:100C700000200A320100035000200400000028CDAB
:100C8000040802500020020000003CCD04080000CF
:100C9000000000000000EC020020A47000209CFF77
:100CA0002C0100000000AE0000200A00000048CD2A
:100CB0000408F84F0020E0150C1700000000B000F9
:100CC00000200800000048CF0408AF000020050005
:100CD000000068CE0408FA4F00200200000060CD3A
:100CE00004089C5200200100FF7F010000009B527D
:100CF0000020020000006CCD0408EE51002000002E
:100D0000C20101000000EA5100200000C201010000
:100D10000000EC5100200000C20101000000E6517B
:100D200000200000803E32000000E451002000005E
:100D3000803E32000000E25100200000803E320080
:100D40000000E851002000002C0101000000FA51D1
:100D500000200000F40101000000F8510020000014
:100D6000F40101000000F65100200000F401010030
:100D70000000F45100200000F40101000000F251D5
:100D800000200000803E01000000F0510020000023
:100D9000803E0100000018520020E803D0070A003E
:100DA000000016520020006401000A0000000B52EF
:100DB0000020006401000A52002000640100125269
:100DC0000020006401000A000000115200200064AD
:100DD00001000A00000010520020006401000A0017
:100DE000000015520020006401000A0000001452A7
:100DF0000020006401000A0000001352002000647B
:100E000001000A0000000F52002000FF01000A004C
:100E100000000E52002000FF01000A0000000D52E9
:100E2000002000FF01000A0000008E50002000009A
:100E3000F401010000008C5000200000F4010100CA
:100E400000008A5000200000F401010000008850DA
:100E500000200000F40101000000065200201400F0
:100E6000E8030100000004520020E80330750A0086
:100E700000000352002000C801000252002000C8F8
:100E800001000152002000C801000052002000644F
:100E900001000A000000FE5100200000D007010000
:100EA00000009152002000C801009052002000C8AC
:100EB00001008F52002000C801008E52002000C89F
:100EC00001008D52002000C801008C52002000C893
:100ED00001008B52002000C801008A52002000C887
:100EE00001008952002000C80100A42F050800005D
:100EF0000000000000000000000000000000E00111
:100F00000508090000000000000090030020040014
:100F10000000E8010508090000000000000084034B
:100F2000002004000000F836050809000000000059
:100F300000007803002004000000352E0508090099
:100F40000000000000006C03002004000000B42F2B
:100F500005080900000000000000600300200400F4
:100F60000000BC2F05080900000000000000540329
:100F7000002004000000C42F050809000000000044
:100F800000004803002004000000CC2F05080900E1
:100F90000000000000003C030020040000007C2F43
:100FA0000508010000000000000000000000000033
:100FB0000000000000000E00000000000000000023
:100FC000000000000000CC31050800000000000017
:100FD00000000000000000000000441F050807009A
:100FE000000000000000B403002000000000DC311D
:100FF00005080800000000000000A8030020000011
:101000000000E831050808000000000000009C0313
:101010000020000000007C2F0508010000000000F7
:1010200000000000000000000000000000000E00B2
:101030000000000000000000000000000000F0318F
:101040000508000000000000000000000000000093
:101050000000003205080D00000000000000F00351
:10106000002000000000083205080D00000000000C
:101070000000E40300200000000010320508070013
:10108000000000000000DC03002000000000183217
:1010900005080D00000000000000D0030020000043
:1010A0000000203205080D00000000000000C4030D
:1010B00000200000000028320508070000000000A2
:1010C0000000BC030020000000007C2F0508010088
:1010D0000000000000000000000000000000000010
:1010E00000000E00000000000000000000000000F2
:1010F0000000303205080000000000000000000081
:10110000000000000000441F05080C000000000063
:1011100000002E50002000000000443205080C00A2
:101120000000000000003050002000000000543299
:1011300005080C00000000000000665000200000C0
:101140000000643205080C000000000000005A5046
:10115000002000000000783205080C0000000000AC
:1011600000003250002000000000843205080C000E
:1011700000000000000034500020000000008C320D
:1011800005080C00000000000000365000200000A0
:101190000000A03205080C000000000000003850DC
:1011A000002000000000A83205080C00000000002C
:1011B00000003A50002000000000B03205080C008A
:1011C0000000000000007850002000000000C8323D
:1011D00005080C000000000000003C50002000004A
:1011E0000000D43205080C000000000000003E5052
:1011F000002000000000F00105080C0000000000C5
:1012000000004050002000000000DC3205080C0007
:101210000000000000004250002000000000E83202
:1012200005080C00000000000000445000200000F1
:101230000000F43205080C000000000000004650D9
:10124000002000000000003305080C000000000032
:10125000000048500020000000000C3305080C007E
:101260000000000000004A50002000000000183379
:1012700005080C000000000000005E500020000087
:101280000000203305080C000000000000005C5046
:10129000002000000000283305080C0000000000BA
:1012A00000006A50002000000000343305080C00E4
:1012B0000000000000006C500020000000004033DF
:1012C00005080C0000000000000072500020000023
:1012D0000000703005080C000000000000004C50B9
:1012E0000020000000004C3305080C000000000046
:1012F00000005450002000000000543305080C008A
:101300000000000000004E5000200000000060338C
:1013100005080C00000000000000505000200000F4
:1013200000006C3305080C00000000000000525063
:10133000002000000000743305080C0000000000CD
:1013400000005650002000000000641F05080C003B
:10135000000000000000605000200000000080330A
:1013600005080C000000000000005850002000009C
:101370000000BF2E05080C000000000000006850AF
:101380000020000000008C3305080C000000000065
:1013900000006250002000000000943305080C009B
:1013A00000000000000064500020000000009C339A
:1013B00005080C000000000000006E500020000036
:1013C0000000A43305080C0000000000000070506D
:1013D0000020000000007C2F050801000000000034
:1013E00000000000000000000000000000000E00EF
:1013F0000000000000000000000000000000AC330E
:1014000005080000000000000000000000000000CF
:101410000000B83305080D0000000000000048047B
:10142000002000000000C03305080D00000000008F
:1014300000003C04002000000000C833050807003D
:101440000000000000003404002000000000D4333D
:10145000050807000000000000002C040020000028
:101460000000E0330508090000000000000020042F
:10147000002000000000EC33050809000000000017
:1014800000001404002000000000F83305080900E3
:1014900000000000000008040020000000000834E4
:1014A00005080900000000000000FC030020000007
:1014B00000007C2F05080100000000000000000073
:1014C000000000000000000000000E00000000000E
:1014D000000000000000000000001C3405080000AF
:1014E00000000000000000000000000000002C349C
:1014F00005080500000000000000875000200000E3
:1015000000007C2F05080100000000000000000022
:10151000000000000000000000000E0000000000BD
:101520000000000000000000000034340508000046
:101530000000000000000000000000000000342F48
:1015400005080000000000000000541E00200400F8
:101550000000312E05080D000000716F02089C0488
:10156000002000000000603905080D000000114651
:1015700002089004002000000000E03205080D0081
:101580000000F545020884040020000000004034FB
:101590000508080000000000000078040020040096
:1015A00000004C3305080D0000003D4502086C04A6
:1015B0000020000000004834050809000000000079
:1015C00000006004002004000000F433050803005C
:1015D00000003973020854040020000000007C2F32
:1015E00005080100000000000000000000000000ED
:1015F0000000000000000E000000000000000000DD
:101600000000000000005034050800000000000049
:1016100000000000000000000000603405080D001C
:10162000000000000000B404002000000000683446
:1016300005080A0000000000000018560020000005
:101640000000743405080A00000000000000205665
:101650000020000000007C3405080A0000000000A3
:10166000000028560020000000008434050808000F
:10167000000000000000A8040020000000008C34DE
:101680000508040000006D7402080000000000005E
:1016900000007C2F05080100000000000000000091
:1016A000000000000000000000000E00000000002C
:1016B0000000000000000000000098340508000051
:1016C0000000000000000000000000000000AC343A
:1016D00005080000000000000000000000000000FD
:1016E0000000CC34050808000000000000000805D8
:1016F000002000000000D4340508080000000000AD
:101700000000FC04002000000000DC340508080094
:10171000000000000000F004002000000000E4349D
:1017200005080800000000000000E404002000009C
:101730000000EC3405080800000000000000D80498
:10174000002000000000F834050808000000000038
:101750000000CC040020000000000435050808004B
:10176000000000000000C0040020000000007C2FEA
:10177000050801000000000000000000000000005B
:1017800000000C35050802000000B97402080200D0
:10179000000000000000000000000E00000000003B
:1017A00000000000000000000000183505080000DF
:1017B00000000000000000000000000000002C35C8
:1017C000050808000000000000005005002000008F
:1017D000000038350508080000000000000044053E
:1017E000002000000000443505080800000000004B
:1017F00000003805002000000000503505080800F2
:101800000000000000002C050020000000005C35F6
:10181000050808000000000000002005002000006E
:1018200000006835050808000000000000001405ED
:101830000020000000007C2F0508010000000000CF
:1018400000000000000000000000000000000E008A
:1018500000000000000000000000000000007435DF
:10186000050800000000000000008F0200200000BA
:101870000000803505080B00000000000000E405B2
:101880000020000000008C3505080B00000000005F
:101890000000D805002000000000983505080B0066
:1018A000000000000000CC05002000000000A4356E
:1018B00005080B00000000000000C005002000002B
:1018C0000000B03505080B00000000000000B40562
:1018D000002000000000BC3505080B0000000000DF
:1018E0000000A805002000000000C83505080B0016
:1018F0000000000000009C05002000000000D4351E
:1019000005080B000000000000009005002000000A
:101910000000E03505080B00000000000000840511
:10192000002000000000EC35050807000000000062
:1019300000007C05002000000000F43505080700C9
:1019400000000000000074050020000000000036C8
:1019500005080B00000000000000680500200000E2
:1019600000000C36050808000000000000005C05BF
:101970000020000000007C2F05080100000000008E
:1019800000000000000000000000000000000E0049
:1019900000000000000000000000000000001836F9
:1019A000050800000000000000000000000000002A
:1019B00000002C3605080800000000000000140696
:1019C0000020000000003836050808000000000074
:1019D000000008060020000000004436050808004A
:1019E000000000000000FC0500200000000004359D
:1019F00005080800000000000000F00500200000BD
:101A000000007C2F0508010000000000000000001D
:101A1000000000000000000000000E0000000000B8
:101A20000000000000000000000050360508000023
:101A30000000000000008C02002000000000603662
:101A4000050808000000000000005C0600200000FF
:101A500000006C3605080B00000000000000500676
:101A60000020000000007836050807000000000094
:101A7000000048060020000000008436050807002A
:101A8000000000000000400600200000000090362A
:101A900005080700000000000000380600200000D4
:101AA00000009C36050808000000000000002C061D
:101AB000002000000000A436050808000000000017
:101AC000000020060020000000007C2F0508010017
:101AD0000000000000000000000000000000000006
:101AE00000000E00000000000000000000000000E8
:101AF0000000AC36050800000000000000008C0269
:101B0000002000000000B8360508070000000000B3
:101B10000000A806002000000000C03605080700ED
:101B2000000000000000A006002000000000C836F1
:101B300005080700000000000000980600200000D3
:101B40000000D4EE0408070000000000000090062A
:101B5000002000000000DCEE040807000000000088
:101B600000008806002000000000E4EE04080700E2
:101B70000000000000008006002000000000D036B9
:101B800005080700000000000000780600200000A3
:101B90000000D836050807000000000000007006AD
:101BA000002000000000E0360508070000000000EB
:101BB000000068060020000000007C2F05080100DE
:101BC0000000000000000000000000000000000015
:101BD00000000E00000000000000000000000000F7
:101BE00000000000000081490208B0060020855076
:101BF00000202A0000007CCD04088450002000C88A
:101C0000010082500020E803D00701000000484591
:101C10004C494F535052494E470021500020000379
:101C200001002050002000030100C9480208A1481B
:101C300002088C0700205D480208114802080408C9
:101C4000002009490208F1480208B80800207D4731
:101C5000020831470208C40B0020974902081D5DA5
:101C60000208A00C00207D45020800000000F00CD6
:101C70000020497402089D4C0208CC0D0020614AE6
:101C800002081D4A0208800E0020E14A0208A54A07
:101C90000208700F0020794B0208C54B020824107F
:101CA00000200852002001060100E9490208BD4950
:101CB0000208641100201D4B020895710208F01102
:101CC0000020F54B0208F1710208B8120020FC5107
:101CD000002001030100E8360508000000000000B4
:101CE00000000000000000000000F43605080800B5
:101CF000000000000000C813002000000000FC36B7
:101D000005080700000000000000C01300200000CC
:101D100000000C3705080D00000000000000B4139F
:101D20000020000000001837050803000000397388
:101D30000208A8130020000000007C2F0508010005
:101D40000000000000000000000000000000000093
:101D500000000E0000000000000000000000000075
:101D6000000020370508000000000000000000000F
:101D7000000000000000303705080A0000000000E5
:101D800000003837050800000000403705080A0049
:101D9000000000000000D4EC0408000000004837F8
:101DA00005080A0000000000000092520020000018
:101DB0000000503705080A00000000000000D4139E
:101DC0000020000000007C2F05080100000000003A
:101DD00000000000000000000000000000000E00F5
:101DE0000000000000000000000000000000583764
:101DF00005080000000000000000000000000000D6
:101E00000000643705080300000039730208081455
:101E1000002000000000703705080300000039733F
:101E20000208FC13002000000000783705080300BA
:101E3000000039730208F013002000000000803712
:101E4000050805000000000000001F5000200000F1
:101E50000000883705080700000000000000E813B4
:101E60000020000000009437050807000000000073
:101E70000000E0130020000000007C2F0508010096
:101E80000000000000000000000000000000000052
:101E900000000E0000000000000000000000000034
:101EA0000000A0370508000000000000000000004E
:101EB000000000000000B43705080300000039737B
:101EC00002083814002000000000C0370508030095
:101ED000000039730208B400002000000000C83779
:101EE000050803000000397302082C1400200000CC
:101EF0000000D037050803000000397302082014E1
:101F00000020000000004C33050803000000397376
:101F1000020814140020000000007C2F05080100B6
:101F200000000000000000000000000000000000B1
:101F300000000E0000000000000000000000000093
:101F40000000DC3705080000000000000000000071
:101F5000000000000000E83705080700000041729B
:101F600002089414002000000000703305080300EC
:101F70000000397302088814002000000000F437C4
:101F8000050803000000397302087C1400200000DB
:101F90000000FC37050803000000397302087014C4
:101FA000002000000000043805080700000025722A
:101FB0000208681400200000000068EE0408030016
:101FC0000000397302085C14002000000000103883
:101FD00005080300000039730208501400200000B7
:101FE00000001C380508030000003973020844147F
:101FF0000020000000007C2F050801000000000008
:1020000000000000000000000000000000000E00C2
:102010000000000000000000000000000000514926
:102020000208214902089C140020694C02080000A3
:10203000000028150020ED470208C9470208B41522
:102040000020000000000000000068160020414C45
:1020500002085D72020808170020243805080000F5
:102060000000000000000000000000000000303808
:10207000050803000000397302081418002000004E
:1020800000003838050803000000397302080818FA
:102090000020000000005C200508030000003973E8
:1020A0000208FC1700200000000044380508030067
:1020B000000039730208F0170020000000005038BB
:1020C00005080300000039730208E417002000002F
:1020D00000005838050802000000B974020800002A
:1020E0000000000000006038050802000000B9741C
:1020F000020801000000000000000C350508020085
:102100000000B97402080200000000000000000096
:1021100000000E00000000000000000000000000B1
:102120000000FE4F002088136F17010000000050D0
:10213000002088136F17000000006C3805080000AD
:1021400000000000000000000000000000007C38DB
:1021500005080800000000000000F418002004003A
:102160000000883805080800000000000000E8189A
:10217000002000000000F433050804000000996FFF
:10218000020800000000000000007C2F050801008C
:10219000000000000000000000000000000000003F
:1021A00000000E0000000000000000000000000021
:1021B0000000FC4F002088136F1701000000E07042
:1021C000002088136F1700000000C14602080000BD
:1021D000000000190020BD5500200100000028CE9D
:1021E0000408E27000200100000034CE0408D8701A
:1021F0000020020000003CCE0408EE650020000034
:10220000000000000000EC6500200000000000005D
:102210000000EA6500200000000000000000E86502
:1022200000200000000000000000E6650020000023
:10223000000000000000E465002000000000000035
:1022400000008C1E00200000000000000000FB4F7A
:1022500000200200000048CE0408C4380508000031
:1022600000000000000000000000000000007C38BA
:102270000508080000000000000084190020040088
:1022800000008838050808000000000000007819E8
:10229000002000000000F43305080400000091460F
:1022A000020800000000000000007C2F050801006B
:1022B000000000000000000000000000000000001E
:1022C00000000E0000000000000000000000000000
:1022D0000000D438050800000000000000000000E5
:1022E000000000000000E43805080D000000E9705F
:1022F0000208B419002004000000F03805080D00A1
:102300000000E9460208A819002004000000FC387B
:1023100005080D000000AD7002089C1900200000A7
:10232000000008390508030000007D4E02089019DE
:10233000002008000000143905080300000039736C
:102340000208B81C0020000000007C2F05080100D6
:10235000000000000000000000000000000000007D
:1023600000000E000000000000000000000000005F
:102370000000742F050800000000000000000000AD
:102380000000000000005D2D050804000000B16F92
:10239000020800000000000000007C2F050801007A
:1023A000000000000000000000000000000000002D
:1023B00000000E000000000000000000000000000F
:1023C000000068390508000000000000000000005F
:1023D000000000000000F00505080D0000000000EE
:1023E0000000141A002004000000783905080800D5
:1023F000000000000000081A0020040000008439DA
:1024000005080800000000000000FC19002004007E
:1024100000008C3905080800000000000000F019D9
:1024200000200400000094390508080000000000A6
:102430000000E4190020040000009C390508080091
:10244000000000000000D819002004000000A4399A
:1024500005080800000000000000CC19002004005E
:102460000000AC3905080800000000000000C01999
:102470000020040000007C2F05080100000000007F
:1024800000000000000000000000000000000E003E
:102490000000000000000000000000000000A9464D
:1024A000020800000000201A0020000000000000C8
:1024B0000000981A00200000000000000000381BF7
:1024C0000020DE7000200400000054CE0408DC7000
:1024D0000020E0150C1700000000DB700020080051
:1024E000000048CF0408DA7000200500000068CE24
:1024F00004080000000000000000881B0020040306
:10250000090412010002EF02014083045632000266
:1025100001020301000012010002020200408304D4
:1025200040570002010203010000090220000101DE
:1025300004C03209040000020806500507058102A4
:102540004000000705010240000009026400030189
:1025500000C032090400000103000000092111013C
:1025600000012226000705830308000A080B010268
:102570000202010009040100010202010005240019
:1025800010010524010002042402020524060102B0
:10259000070582030800FF09040200020A00000088
:1025A0000705010240000007058102400000090202
:1025B0004300020100C032090400000102020100D0
:1025C0000524001001052401000104240202052451
:1025D000060001070582030800FF09040100020A42
:1025E00000000007050102400000070581024000CD
:1025F0000000FF00000000FFFF0000000000AA55DF
:1026000005010000010005010905A101A100050166
:1026100009300931093209330935093409400938CB
:102620001581257F750895088102C0C00000090248
:102630002200010100E03209040000010301020050
:102640000921110100012226000705830308000A61
:102650000000000000000102030401020304060759
:1026600008093DDD020805E4020881DF020801BB1C
:10267000020825BD020811BB02082DBB0208D9BA09
:102680000208C9BA020800000000000000002D2066
:102690002D2D202D2D2D2D202D2D2D2D0000000038
:1026A00000000000000000000000000000AA550B20
:1026B000010000AA5507010000AA55090200000008
:1026C000000001000000C012AA5503009F00FF1F78
:1026D000FF1F010000001076002000000000F4231E
:1026E000002004000000901F0508543B050800006E
:1026F0000000AD870008A086010004000000000073
:1027000000000000000000000000000000000000C9
:1027100000000000000000000000901F0508803C41
:10272000050800000000F5C10108E80300000400EE
:102730000000000000000000000000000000000099
:1027400000000000000000000000000000007033E6
:102750000508FC01050800000000118D00087D003F
:102760000000060000000000000000000000000063
:102770000000000000000000000000000000000059
:102780000000E81E05080000000000000000A92D60
:102790000208E80300000300000000000000000041
:1027A0000000000000000000000000000000000029
:1027B000000000000000883C050800000000000048
:1027C0000000A51A04081027000003000000000004
:1027D00000000000000000000000000000000000F9
:1027E00000000000000000000000E03905080000C3
:1027F0000000D54901084DC60108204E0000050023
:1028000000000000000000000000000000000000C8
:102810000000000000000000000000000000502147
:102820000508000000000000000095330208102792
:102830000000010000000000000000000000000097
:102840000000000000000000000000000000000088
:102850000000943C05080000000000000000F9C1E1
:102860000108E8030000050000000000000000006F
:102870000000000000000000000000000000000058
:10288000000000000000A03C05080000000000005F
:102890000000F91B0108204E0000030000000000AA
:1028A0000000000000000000000000000000000028
:1028B00000000000000000000000B03C050800001F
:1028C000000000000000E5190108204E0000030090
:1028D00000000000000000000000000000000000F8
:1028E0000000000000000000000000000000C03CEC
:1028F00005080000000000000000DDC30108400DD5
:1029000003000300000000000000000000000000C1
:1029100000000000000000000000000000000000B7
:1029200000005420050800000000000000000181A4
:102930000308102700000100000000000000000054
:102940000000000000000000000000000000000087
:10295000000000000000001F05080000000000004B
:1029600000000D8A0208102700000300000000008C
:102970000000000000000000000000000000000057
:1029800000000000000000000000D03C050800002E
:1029900000000000000049590108A0860100010064
:1029A0000000000000000000000000000000000027
:1029B0000000000000000000000000000000703077
:1029C00005080000000000000000FDC00108A8612B
:1029D00000000100000000000000000000000000F6
:1029E00000000000000000000000000000000000E7
:1029F0000000D83C0508000000000000000081A590
:102A00000208A08601000100000000000000000094
:102A100000000000000000000000000000000000B6
:102A20000000000000005821050800000000000020
:102A3000000005EE0108A00F0000010000000000EA
:102A40000000000000000000000000000000000086
:102A500000000000000000000000E43C0508000049
:102A6000000000000000614F020810270000010074
:102A70000000000000000000000000000000000056
:102A800000000000000000000000000000005C20CA
:102A9000050800000000000000006D0103081A4155
:102AA0000000010000000000000000000000000025
:102AB0000000000000000000000000000000000016
:102AC0000000B8210508000000000000000031C32C
:102AD00002081027000001000000000000000000B4
:102AE00000000000000000000000000000000000E6
:102AF000000000000000683B050800000000000026
:102B00000000397602081A410000010000000000B0
:102B100000000000000000000000000000000000B5
:102B200000000000000000000000F03C050800006C
:102B3000000000000000E5FC0208400D030000005A
:102B40000000000000000000000000000000000085
:102B50000000000000000000000000000000F83C41
:102B600005080000000000000000DB790308400DAC
:102B70000300000000000000000000000000000052
:102B80000000000000000000000000000000000045
:102B90000000003D0508000000000000000005974F
:102BA000020850C300000300000000000000000005
:102BB0000000000000000000000000000000000015
:102BC0000000000000000C3D0508000000000000AF
:102BD00000005919010840420F00000000000000E9
:102BE00000000000000000000000000000000000E5
:102BF00000000000000000000000183D0508000073
:102C0000000000000000FD7A030850C3000000002F
:102C100000000000000000000000000000000000B4
:102C200000000000000000000000000000000002A2
:102C300000051002700B1A030000000000000000E5
:102C40000000000000000000000000000000000084
:102C50000000040309041201000200000040830484
:102C60002057000201020301000099500308ED26DD
:102C70000308E9260308E526030875300308E12662
:102C80000308DD260308E0D10408B1E6020815BCFC
:102C9000020899E502080000000000000000CDDBFA
:102CA0000208E9DA0208000000000000000000004D
:102CB000000075BA02088527030879270308C5357F
:102CC0000308E135030831270308A93503088D35CA
:102CD000030801000000500100000700000002008E
:102CE00000000000000000000000010203040607CD
:102CF00008098DC0020859BC02085DDF0208000007
:102D00000000C5BA020811E7020841C0020895DCBC
:102D10000208000000000000000081BA020815BA95
:102D2000020809BA0208E1D30208FDD30208C5D39C
:102D30000208A9D302088DD3020845C0020835BC99
:102D400002089DDE02080000000099BA020899DC22
:102D5000020815C00208F5DB0208000000000000B0
:102D600000008DBA02080800000005BA020801BA86
:102D70000208FDB90208F1B90208EDB90208F9B973
:102D80000208F5B90208010000000060024010606E
:102D900002400000000000000000000B00000000E6
:102DA00000000000000000000000006002402860F9
:102DB00002400100000000000000060C00000000BE
:102DC00000000000000000000000006002404060C1
:102DD00002400200000000000000100D0000000092
:102DE0000000000000000000000000600240586089
:102DF00002400300000000000000160E000000006A
:102E00000000000000000000000000600240706050
:102E100002400400000000000000200F000000003D
:102E20000000000000000000000000600240886018
:102E30000240050000000000000026100000000015
:102E40000000000000000000000000600240A060E0
:102E500002400600000000000000301100000000E9
:102E60000000000000000000000000600240B860A8
:102E700002400700000000000000362F00000000A4
:102E80000000000000000000000000640240106428
:102E900002400000000000000000003800000000B8
:102EA00000000000000000000000006402402864F0
:102EB0000240010000000000000006390000000090
:102EC00000000000000000000000006402404064B8
:102ED00002400200000000000000103A0000000064
:102EE0000000000000000000000000640240586480
:102EF00002400300000000000000163B000000003C
:102F00000000000000000000000000640240706447
:102F100002400400000000000000203C000000000F
:102F2000000000000000000000000064024088640F
:102F300002400500000000000000264400000000E0
:102F40000000000000000000000000640240A064D7
:102F500002400600000000000000304500000000B4
:102F60000000000000000000000000640240B8649F
:102F7000024007000000000000003646000000008C
:102F8000000000000000000000000000803F000082
:102F9000000000000000000000000000803F000072
:102FA0000000000000000000000000000000000021
:102FB0000000000000000000000000000000000011
:102FC0000000010000000000803F00000000000041
:102FD0000000000000000000803FA4270020000047
:102FE00000000000000000000000000000000000E1
:102FF00000000000000000000000000000000000D1
:1030000000000000000000000000000000000000C0
:1030100000000000000000000000000000000000B0
:1030200000000000000000000000000000000000A0
:10303000000000000000000000000000000001008F
:103040000000000000000000000000000000000080
:103050000000000000000000000000000000000070
:103060000000000000000000000000000000000060
:103070000000000000000000000000000000000050
:10800000014B01221A7070470828002010F8113C1B
:108010000133DBB20A2B00F8113C07D9044A10F8EF
:10802000131C002322F8113000F8113C704700BFE8
:10803000602E0020F0B45D4E5D4872785D4B5E4D61
:10804000DC6B2D780132A0FB0270000900EB800090
:10805000A2EB80001A687070914201EB04005C682A
:1080600011D293F84520002A4ED000F58030B0FBA5
:10807000F5F084420BD2041B4FF4803292FBF5F2F0
:10808000A21A9A600AE0B0FBF5F0844244D34FF4A0
:10809000803292FBF5F2121B02449A6040F68C2467
:1080A0000025A242C3E9001083F8455017D993F880
:1080B000402093F942108A4256B241D0002093F9F1
:1080C000411083F843008A4247D00121002283F8FF
:1080D000426083F8441083F84020F0BC704793F866
:1080E00044100029F9D0A2F2EF2040F2DA51884280
:1080F0001AD893F840100B2916D803EB81000131F0
:10810000C26083F84010E8E7B0FBF5F08442BED2CD
:10811000041BA21A9A60C1E793F84520002AAAD14D
:10812000041BA21A9A60B9E7244A002102F1300028
:1081300083F8441042F8041F8242FBD1F0BC704720
:10814000111F0829BAD893F84310182926D80131ED
:1081500083F8431093F94110B5E793F844100029D0
:10816000B3D0FAB11649154C0FFA82FC084601EB60
:108170004C0754F8045F20F8025BB842F9D10B2A8F
:1081800007DC104801EB4C02002122F8021B904250
:10819000FBD10D490A7801320A7096E783F84160F5
:1081A000314690E794460649EBE700BF08280020D7
:1081B000CDCCCCCC90BF00204C25002098BF002017
:1081C000602E0020782E0020542E002030B40E4D5A
:1081D0000E4B6A780E4C0132A3FB02031B09E06BC5
:1081E00003EB8303A2EB83034FF6FF72914200F18E
:1081F00001006B70084408BF0123E06308BF84F8E6
:10820000453030BC704700BF08280020CDCCCCCC16
:1082100090BF0020002800F01781B04B1A7CF0B40A
:10822000002A40F095801968002201280A6043D096
:1082300093F82810002941D19969002202280A6088
:108240003AD093F8401000295DD1196B0022032821
:108250000A6031D093F85810002940F09E80996C44
:10826000002204280A6027D093F87010002940F0FB
:10827000EC80196E002205280A601DD093F8881042
:10828000002940F00781996F002206280A6013D068
:1082900093F8A010002940F02B81D3F89010002211
:1082A00007280A6008D093F8B810002940F0A08091
:1082B000D3F8A83000221A60F0BC7047DC69884D02
:1082C000A10AA94200F04C8140F23581854DA942B6
:1082D00004D0854A914240F04C810222EFF3118193
:1082E000502585F31288814E676AA58A02EB8202C7
:1082F00006EBC202013745F001059762C9B2A582BB
:1083000081F3118898E75C6B754DA10AA94200F0D2
:10831000298140F21581734DA94204D0724A9142DD
:1083200040F029810222EFF31181502585F3128854
:108330006E4E676AA58A02EB820206EBC202013723
:1083400045F001059762C9B2A58281F311887CE7E7
:108350005968634C8A0AA24200F0F7806ED9614CDA
:10836000A24200F0F6800134A24240F0F0800224E4
:10837000EFF31182502585F312885C4E4F6A8D8A87
:1083800004EB840406EBC404013745F00105A76241
:10839000D2B28D8282F3118845E7DC6C504DA10A80
:1083A000A94200F0F68040F2D6804E4DA94204D09A
:1083B0004D4A914240F0E1800222EFF311815025B5
:1083C00085F31288494E676AA58A02EB820206EBA2
:1083D000C202013745F001059762C9B2A58281F357
:1083E0001188996C002204280A607FF43DAF63E78E
:1083F000D3F8AC003A4C810AA14200F0DF8040F291
:10840000B380384CA14204D0374A914240F0D48026
:108410000222EFF31181502484F31288334D466A0F
:10842000848A02EB820205EBC205013644F00104A6
:10843000AE62CAB2848282F3118839E7043CA24258
:1084400040F08580012493E770475C6E244DA10ABB
:10845000A94200F0A58040F29280224DA94204D0AA
:10846000214A914240F09E800222EFF31181502573
:1084700085F312881D4E676AA58A02EB820206EB1D
:10848000C202013745F001059762C9B2A58281F3A6
:108490001188EEE6DC6F124DA10AA94200F084803B
:1084A00072D9104DA94203D00F4A91427ED10222C7
:1084B000EFF31181502585F312880C4E676AA58A67
:1084C00002EB820206EBC202013745F0010597621A
:1084D000C9B2A58281F31188D5E600BF041200104D
:1084E0000600100040001000410010000828002085
:1084F000D3F89440324DA10AA94259D04BD9314DFD
:10850000A94203D0304A914254D10222EFF31181A3
:10851000502585F312882D4E676AA58A02EB8202E8
:1085200006EBC202013745F001059762C9B2A58288
:1085300081F31188B1E6264A91421AD10122CDE693
:10854000234A914217D10122EDE6032410E7FE24CD
:108550000EE700240CE71E4A91420ED101222CE7BF
:108560000322BBE60322DEE6194A914224D101220E
:108570004FE7FE22B2E6FE22D5E6FE221DE7144AB0
:1085800091420FD1012270E7114A91420ED101228E
:108590008EE7032211E70E4A91420BD10122B5E783
:1085A000032262E7FE2260E7032281E7FE227FE7E3
:1085B0000322ABE7FE22A9E7FE222AE7032228E7EF
:1085C00006001000400010004100100008280020A4
:1085D00002001000704700BF70B4150BC2F30324F3
:1085E000064605EB450504EB44044800C2F30313BB
:1085F0001835183402F00F02356003EB430346F8D8
:10860000214002EB420201441833183246F8203070
:10861000062046F8212070BC704700BF2DE9F04FBE
:1086200012F4004F14BF4FF00E0B4FF0070B12F473
:10863000804F14BF4FF00E0A4FF0070A12F4005F8C
:1086400014BF4FF00E094FF0070912F4805F14BFFA
:108650004FF00E084FF007084FEA410C12F4006F7C
:1086600083B001EB0C0714BF4FF00E0E4FF0070E56
:1086700012F4806F01EB070614BF0E2307238D1938
:108680000193034612F4007F01EB0504C3F800B028
:1086900018BF0E2043F821A008BF072043F82C90F4
:1086A00012F4807F01EB040C43F8278043F826E0A6
:1086B00001EB0C0714BF4FF00E084FF00708019EA6
:1086C00043F8256012F0800F01EB070614BF4FF04E
:1086D0000E0E4FF0070E12F0400F43F8240001EB8E
:1086E000060514BF0E20072012F0200F43F82C803F
:1086F00001EB050414BF4FF00E0C4FF0070C12F005
:10870000100F43F827E043F8260018BF0E2701EBAF
:10871000040008BF072712F0080F43F825C018BF50
:108720000E2643F8247008BF07260C1812F0040F19
:1087300043F8206018BF0E2501EB040008BF072591
:1087400012F0020F43F82450014414BF0E240724F2
:1087500012F0010F43F8204014BF0E22072212200E
:1087600043F8212003B0BDE8F08F00BF704700BF81
:1087700070B4044600F16C06064D0FCD2D8825829D
:1087800020606160A260E3601234B442F4D170BC36
:10879000704700BF689F0408034B33F8142F028012
:1087A0009B788370704700BF689F0408084B196866
:1087B00069B130B45D68074C0020642202FB05F209
:1087C0001860B2FBF1F25860228030BC70477047ED
:1087D000040000108C0E001007280AD800EB40009F
:1087E000044B10B553F8304014B140F0D7F8206076
:1087F00010BD7047DCBD002070B505466C0040F030
:10880000CDF82A49631901EB43131E7B06B970BDED
:10881000274AD2F8A46080B22EB192F8AC6016B9A3
:1088200092F8AD6066BB2C4401EB4414214B227DD1
:10883000208142EA400290B2021282EA10124240C3
:1088400002F00F0242EA00121B781B480026267530
:1088500092B20668E3B9602000FB051018300121D0
:10886000B04721696368B1F82C216489DB68224331
:10887000A1F82C2158601A6842F001021A6070BDFC
:108880002A4492F8AE000028CDD001221A75CAE71A
:10889000636820695B7903F0FC030C3318440421FE
:1088A000B04723698000188170BD00BFF8BF002069
:1088B00008280020D0120010C812001038B500EBB4
:1088C0004000084DC4002B1993ED027AD3ED037AD2
:1088D000E7EE007AB0EE670A40F060F82B591860B6
:1088E00038BD00BF0412001010B5174A0321002341
:1088F00001E012F8241C11F0040F03F1010302F14E
:10890000240201D1072BF4D1104A03EBC30302EB7D
:108910008303187915F0D8FA044618B11122002300
:108920008271C3712021204619F058F80A2015F0F1
:10893000B9FF204619F026FC054B00280CBF012288
:1089400002221A7010BD00BF12E30408C4E204083A
:108950009CD80020044B93F8CC20D3F8BC000AB973
:1089600019F0D8B819F0DCB808280020044B93F8A7
:10897000CC20D3F8BC000AB919F0D2B819F0CAB8A3
:108980000828002070B52D4D2D4C2E496A792E4EA9
:108990002E4804230B7084F8D03000216423012A70
:1089A00084F8D930A4F8D210A4F8D41084F8D810E0
:1089B000C4F8DC103170016021D0022A11D0A979ED
:1089C000234A00230129136084F83031C2E90133BE
:1089D00023D0022904D11F4AC4F86831C2E9013307
:1089E00070BD282204F1E0003FF0C4FE4CF250318B
:1089F0009FED190A04F1E4002BF060FEDFE7282266
:108A000004F584703FF0B6FE4CF250319FED120A2F
:108A100004F586702BF052FED1E7104AC4F83431C9
:108A2000C2E90133D3609FED0E0A02F110004CF24F
:108A30005031BDE870402BF041BE00BF4C6E0020AD
:108A400008280020E07100203A6E0020346E0020DB
:108A50005C6E002070290020CDCCCC3D3C2900204C
:108A6000CDCCCC3EF8B5914A1378DD0700D4F8BDE3
:108A700023F001038E4913704B68C3F30803B3B9A5
:108A8000EFF311839BB98B4C8B482368816800BF3F
:108A900022689342F9D1894A15684FF47A7000FB35
:108AA00005F2511AB1FBF5F100FB031320E0EFF3DF
:108AB0001181102383F312887F48814A85680368F7
:108AC000DC0348BF01237B4C44BF136085682668E4
:108AD0001368C9B281F31188784A10684FF47A712B
:108AE000334401FB00F2521BB2FBF0F201FB032303
:108AF000744A754D9178C5F8743100292CD1734BA7
:108B00001B88002B4ED1724A724B1178186881F085
:108B1000010119F00BF8704E704C33782BB12378AB
:108B20001BB16F4B1B68D9045CD56E4B1B680022D0
:108B300022709A069BD46C4B1B689B0300F1AC809F
:108B40006A4900220B461878042803F10C0332D03E
:108B50000132172AF7D18AE71379022BCFD0644E5E
:108B600033780B2B18D801229A4040F6030112EA01
:108B70000107C4D112F4C06F0ED0093B012B0BD8F2
:108B8000452021F0AFFFFF2021F0ACFF594821F034
:108B90001BFF384621F0A6FF574B22685A600B2373
:108BA0003370ACE7554B5A69002AB4D019680022DB
:108BB0000A605A74AFE7D5F8784153003CB1981871
:108BC00001EB800064784078A042BFF450AF1A44B3
:108BD00001EB82010023C5F87811A5F87C31C5F8B6
:108BE0008031F8BD464B1F7815F010FE3378002B0E
:108BF0009BD0D5F8A420002A97D100F51C50103046
:108C00000A214FF47A72C5F8A40085F8AD10C5F8B2
:108C1000A820002F3BD03A4614213A483FF0AAFD45
:108C2000394A1389012FB3FA83F34FEA53132ED035
:108C3000B2F86810002918BF0023022F27D0B2F81D
:108C4000C810002918BF0023032F20D0B2F8281124
:108C5000002918BF0023042F19D0B2F88811002969
:108C600018BF0023052F12D0B2F8E811002918BF51
:108C70000023062F0BD0B2F84812002918BF00239A
:108C8000072F04D0B2F8A822002A18BF002383F0CF
:108C9000010385F8AC3048E71C4B1B78032B7FF4AD
:108CA0004FAFBDE8F8402FF0CDB900BF48D6002047
:108CB00000ED00E04CB1002010E000E0E4BA00203C
:108CC000E0BA0020CC71002008280020BCBA0020A7
:108CD000BEBA0020C0BA0020F4BF0020B658002061
:108CE000D0CC00209C710020503500202CAC040812
:108CF0009A52002004ED04088C320020C4BA0020EF
:108D0000B80E0010B6280020F8BF0020E071002047
:108D10002DE9F04F544D5549D5F88830544C0A6828
:108D2000DFF86C812DED068BC31A94F80090514C3E
:108D3000C5F888001A4408EE103A95B00A60B9F1F7
:108D4000060F4FF000020490BAEEEF8A88F88421F3
:108D500084F8642094F8EC3200F0EF81002B00F0EE
:108D60009F8004F1300696E80700434B83E8070034
:108D7000D4F8B430DFF81CA1404F002B40F0CD8078
:108D80003F4B1B689B0000F197819AF8162094F8DE
:108D9000EC3222B13B4A1278002A00F073849AF830
:108DA0001920002A40F06983374A1278002A40F0DF
:108DB0000C83002B40F0BB81344BD4ED0C7AD5ED05
:108DC000233A94ED0D4AD4ED0E4A95ED245AD5ED93
:108DD000255A93ED006A93ED027AC5ED237A96E861
:108DE000070077EEA37AD3ED016ADFF8ACC085ED1A
:108DF000244A34EE055A74EEA55AA8EE276A8CE888
:108E00000700F0EE477AE8EE056AE8EE257A83ED92
:108E1000006AC3ED016AC3ED027AC5ED254AE36B32
:108E2000226C7B60B9F1050F636CBA60FB6000F0E7
:108E30006583DFF86890D8F8943199F80010B3FB97
:108E4000F1F201FB12320133C8F89431002A00F02C
:108E5000D381074B1B78012B00F0438315B0BDEC89
:108E6000068BBDE8F08F00BF04000010B81500109D
:108E7000ADAF0020FC0E0010F8110010F41100102E
:108E8000D0CC0020980000207C0B0010BC150010F6
:108E900008280020B2510020380F0010CA300020EE
:108EA000DFF848A3D4ED0C7AD5ED233A94ED0D4AC2
:108EB00095ED245AD4ED0E4AD5ED255A9AED006A67
:108EC0009AED027AC5ED237A04F1300677EEA37AA3
:108ED000DAED016ABE4B85ED244A34EE055A74EE94
:108EE000A55A96E80700A8EE276A83E80700F0EE87
:108EF000477AE8EE056AD4F8B430B64F8AED006AD6
:108F0000E8EE257ACAED016ACAED027AC5ED254A76
:108F1000DFF8DCA2002B3FF433AFBAF81CC0DFF857
:108F2000D4B238689AF80110D4ED0C7A9FEDAA7A81
:108F300042F2107202FB0CF2B2FBF0F29342BBF968
:108F400006C000F0A98767EE877AD4ED1B6AD4F8D3
:108F500088E0BDEEE77A0EF10100B8EEC77A01288D
:108F600037EE267AC4F8880084ED1B7A00F0A187DA
:108F7000D4ED1E5AD4ED206A07EE100A37EEE56AEA
:108F8000B8EEC75A012B86EE057A37EE257A77EED2
:108F9000C77A84ED1F7AE7EE866A84ED1E7AF0EEDA
:108FA000667AC4ED216AC4ED206A02F07F819342A3
:108FB000D4ED0D7A9FED887A00F0B48767EE877A5A
:108FC000D4ED1C6AD4F89CE0BDEEE77A0EF1010006
:108FD000B8EEC77A012837EE267AC4F89C0084EDF3
:108FE0001C7A00F0AC87D4ED235AD4ED256A07EE45
:108FF000100A37EEE56AB8EEC75A012B86EE057AFD
:1090000037EE257A77EEC77A84ED247AE7EE866A22
:1090100084ED237AF0EE667AC4ED266AC4ED256A03
:1090200002F062819FED6C7AD4ED0E7AD4ED1D6A68
:10903000D4F8B00067EE877A421CBDEEE77A012AC9
:10904000B8EEC77AC4F8B02037EE267A84ED1D7AE0
:1090500000F09387D4ED285AD4ED2A6A07EE102A3F
:1090600037EEE56AB8EEC75A012B86EE057A37EE81
:10907000257A77EEC77A84ED297AE6EE276A84EDC1
:10908000287AF0EE667AC4ED2B6AC4ED2A6A02F003
:109090005581ABF806C0D4F8B430013BC4F8B43005
:1090A00000237B60BB60FB604C4B4D4A1B6892F811
:1090B00000909B007FF569AE4A4AD5ED265A95EDA2
:1090C000276AD5ED287AD5F8A43094ED0C7AD4ED42
:1090D0000D8AD4ED0E6A1288013337EE257A78EEC8
:1090E000868A77EEA67A934285ED267AC5ED278AA1
:1090F000C5ED287AC5F8A43000F0BA84D5F8AC30B4
:10910000002B3FF442AEB9F1100F03F0C2810022F0
:10911000D8F88C310592062B00F29684DFE813F024
:10912000A3158E152515DC12A313BC036D1696E846
:1091300007002D4B83E8070071E604F1300696E83E
:109140000700002B40F01E82214BD4ED0C8ADFF883
:109150009CA0DFF8A0B0B0EE680A83E807003FF0FB
:109160001DFC95ED237ADAED007AC5ED238A78EEC1
:10917000878A94ED0D9AABF80000E8EE287AB0EEFD
:10918000490ACAED007A3FF009FC95ED247ADAED40
:10919000017AD4ED0E8AABF8020039EE077AB0EE10
:1091A000680AE7EE087A85ED249ACAED017A3FF065
:1091B000F5FB95ED257ADAED027AABF8040038EE8E
:1091C000877AC5ED258AE8EE077ACAED027ACFE5FF
:1091D000F8110010F411001033338341D0CC00207B
:1091E000ADAF0020800B0010380F0010BC15001030
:1091F000B2510020B0AF0020C44B1B78BBB1C44AB1
:10920000C44BB2F906209B8A9A4210DCC24B1B78F1
:10921000012B02F03882192B02F035820E2B06D07A
:10922000082B04D0BD49BE4A00238B60936098F898
:109230009A61BC4B0593B6B11B88980713D0BA4B03
:109240009FEDBA7AD3ED087AF4EEC77AF1EE10FA10
:1092500002F2BA819FEDB67AB04BD3ED037A77EE86
:10926000877AC3ED037A3DF087F9059B1B881905C2
:1092700011D5B04AB04B1288B3F9003007EE102A6E
:1092800007EE903AB8EE477AA44BF8EEE77A83ED12
:10929000037AC3ED027AA94B1B78052B01F04582B6
:1092A0000026A74B0499186837F002F9A34B1B78E6
:1092B000052B01F03382A34B1E7816F0010640F017
:1092C0007A81DFF8B8929D4B1B780022202BC8F8DA
:1092D000A42100F0AC82012B00F03882052B01F0B4
:1092E0006E83984B1E780023069306F0010699F8CA
:1092F0000030002B40F05482934A914B874812680B
:109300001B6890ED037A93F84610D00440F18086F4
:10931000002E02F043808D4A95F93801178807EE38
:10932000907AF8EEE77AF4EEC77AF1EE10FA83F26B
:109330006C80874A128807EE902AF8EEE77AF4EEFE
:10934000C77AF1EE10FA42F24780B8F8AC21BA427F
:1093500004D8804A127B002A03F06D8298F8B42169
:10936000002A43F068827C4F7C4AD7ED007A92ED68
:10937000007AC5ED4F7A77EE676A0128C5ED4D7A20
:10938000C5ED4C6A85ED507A04F04F800023744A95
:10939000C5F84431049892ED006AC8F8B001012381
:1093A00085F838316F4A7048664ED5ED517A367877
:1093B0000023536053615362036043608360604BDA
:1093C00006F001061B6800F042BEB9F1130F00F071
:1093D0001B85B9F1030FD4ED0C8A40F04281B0EE49
:1093E000680A05933FF0DAFADFF880B1059BC4ED17
:1093F0000F8AABF80000002B00F0BB8194ED0D9AB2
:109400000593B0EE490A3FF0C9FA059BABF802009C
:1094100084ED109A002B40F02B81DFF864A195EDCC
:10942000247ADAED017A85ED249A39EE079AB9F1BA
:10943000030FE8EE097AD4ED0E8ACAED017A44F002
:10944000A482B0EE680A05933FF0A8FA474A059B4C
:10945000C4ED118A9080002B7FF4E1ACDFF820A1ED
:1094600095ED257ADAED027AC5ED258A78EE878AC0
:10947000E8EE287ACAED027AD1E4002B40F0588158
:10948000D7ED037AFDEEE77A17EE903A002BB8BFDE
:109490005B4294F8F412BAF91A20002900F09A8578
:1094A00007EE902ADFED326AB8EEE77A07EE903ADF
:1094B00037EE667AF8EEE77AB4EEE77AF1EE10FA74
:1094C00041F37B87D4F8F032049944F62062CB1A3A
:1094D000934240F38785002384F8F43294F8EC3209
:1094E00062E4244B244A19681288204BC969198008
:1094F0005A8015B0BDEC068BBDE8F08F15F086F9EB
:10950000049A1A4B801A188093E400BF00000020D0
:10951000E6D6002080CC0020FC3300203C6E0020EA
:10952000E0D50020DCD50020FC5600208FC2753C21
:1095300000000000FA5600205A570020ADAF00206E
:10954000C473002048D60020D0CC0020E0150010C5
:10955000E415001004DB0020D4150010940E001058
:10956000EC150010B8140010AC140010B0AF0020BF
:109570000000C842F80E00108C0E0010B6580020F3
:10958000BC150010AC4B94ED0C0ADFF8C8B283E8B0
:1095900007003FF003FA94ED0D0AABF800003FF02E
:1095A000FDF994ED0E0AABF802003FF0F7F9ABF8C5
:1095B0000400FFF7DDBBA14B1B78DA063FF581AE57
:1095C00099F80130002B3FF47CAE98F8A031DFF819
:1095D000C092002B7FF477AE99F80030002B7FF417
:1095E00072AE98F8A131002B7FF46DAE944B1B68DE
:1095F000DB0604F11980934ADFED937A92ED077A46
:10960000B0EEC77AB4EEE77AF1EE10FA83F2B187E2
:1096100092ED037AB0EEC77AB4EEE77AF1EE10FA83
:1096200083F2A78792ED0B7AB0EEC77AB4EEE77AB1
:10963000F1EE10FA83F29D870023C8F8A431834B22
:109640001B78202B7FF447AED8F8A4318049814A9B
:109650000E78003318BF01235380012313801E406E
:10966000E7E0C4ED0F8A002B00F08380626B226478
:10967000D4ED0E8AB9F1030F18BFC4ED118A7FF43F
:10968000CEABDEE6D7ED017AD4ED086AFDEEE77ADF
:1096900017EE901A0029B8BF494207EE901AF8EE6B
:1096A000E77A002B41F0AC809FED6B6A97ED027A70
:1096B0006A4966EE866ABDEEC77AF4EEE76A17EE8F
:1096C000103AF1EE10FA4CBF01220022002BB8BF75
:1096D0005B4207EE903AF8EEE77A0978F4EEE76A33
:1096E000D7ED037AFDEEE77AF1EE10FA17EE903A35
:1096F00048BF42F00202002BB8BF5B4207EE903A2F
:10970000F8EEE77AF4EEE76AF1EE10FA48BF42F0BD
:1097100004020A4201F0AF80012200230499C4F838
:10972000E81284F8EC2284F8F4329AF8193013B174
:10973000002384F8F4324A4B1B78002B3FF4F7AC3B
:10974000B9F1130F02F04186012342E615F05EF8ED
:10975000444BD8F8A8213E4E1B683E493678069007
:10976000821AD31AC8F8A801CB808A8006F00106B5
:10977000BDE5DFF820A195ED237ADAED007AC5ED9D
:10978000238A78EE878AB9F1030FE8EE287A94ED00
:109790000D9ACAED007A7FF43BAEDFF8B8B02FE641
:1097A000314F3A78002E41F0318222B192002F4998
:1097B0002F483EF079FF2F4B1B68002B40F055825D
:1097C0002D4B1B7883B1387858B1294D2B4E00248E
:1097D000E0B23368B5EC010A984738780134844226
:1097E000F6DB274B1B689847184B1B78052B00F0BE
:1097F00082870024234B1B68180700F1E781224B66
:109800001B7833B9214D95F802A0BAF1000F41F051
:1098100087800E4B1B78052B7FF41DAB14F0F6FFF1
:109820000C4A0A4B001B1B78D080FFF714BB094B76
:109830001A60002306935AE5F8110010BC7100204D
:10984000D0CC0020B814001000001644ADAF0020AA
:1098500048D60020B0AF002000D8F946780B0010A1
:109860007C0B0010D4120010B80E0010E430002061
:10987000980E001078DA00207CCC0020C412001072
:10988000CC12001038D60020E8700020CC710020E7
:10989000B6580020BC150010D8F89021BF4BC04826
:1098A00039684FEAC20B5B4493449A88A2F164037F
:1098B000C82BA8BFC823782BB8BF782307EE903AEF
:1098C00007EE102AF8EEE77AB8EE470A67EEE70AE5
:1098D00067EE807AE0EE000A00EB8B0B58469BEDBA
:1098E00005AADBED069A9BED079ADBED088AC7EE29
:1098F000A00A33F017FDAB4B93F80090B9F1100FAD
:109900008BED05AACBED069A8BED079ACBED088A75
:1099100003F01486D8F89021A349D8F88C3101328D
:1099200081FB0201A1EBE27101EB4101521A01330B
:109930000992C8F89021C8F88C31B5F8A8000790B2
:10994000C0F12002844609989849D2B208920CEBE3
:10995000401B920801EB8B0B03F04785120102F1CB
:10996000100EDFF85CC292480692DE440BF1100242
:1099700012ED024A12ED035A12ED016A12ED047A59
:109980005CED024A5CED035A5CED016A5CED047A21
:1099900064EE244A65EE255A66EE266A67EE277A5B
:1099A0001032964540ED024A40ED035A40ED016AFF
:1099B00040ED047A0CF1100C00F11000D8D1069A99
:1099C000DFF800E27B480B900EEB02000A9079482A
:1099D000934482180692089810F0030C20D00A983D
:1099E0009BED007AD0ED007A069A67EE877ABCF19B
:1099F000010FC2ED007A13D0D0ED017A9BED017A10
:109A0000069A67EE877ABCF1020FC2ED017A07D0A1
:109A1000D0ED027A9BED027A67EE877AC2ED027A88
:109A2000079A002A43F0CA80B9F1100F0CD114F044
:109A3000EDFE059B5B4ADFF890B192F80090C01AEA
:109A4000D8F88C31ABF802005B49D5F8AC20013373
:109A500081FB0301C818D917C1EBA001C1EBC101FB
:109A60005B1A013AC8F88C31C5F8AC20FFF78DB904
:109A700007EE903AF8EEE77AF7EE006A86EEA79ADC
:109A80004E4BB5F8A8204949DFF83CB1002001EB66
:109A9000820CB9F10F0FC5F8A400BBF90400D3ED97
:109AA000057A93ED004A93ED066AD3ED014AD3EDB2
:109AB000046A93ED035AD3ED025A94ED080A29EE95
:109AC000077AE4EE077AA4EE876A66EEE76AA5EE07
:109AD000676AE5EE876A83ED056ACCED007AC3ED2F
:109AE000066A03F02A8695ED285AD3ED0E4AD3ED87
:109AF000176AD3ED091A93ED122AD3ED0A3AD3ED82
:109B00000F5A93ED134A93ED187A93ED0D6AD3ED46
:109B1000167AD3ED0C2A93ED0B3AABF8040069EEFC
:109B2000288A29EE055AE1EEA84A01EB820C501C66
:109B3000E5EE026A0C2200F01F00E3EEA85AC5F819
:109B4000AC20184AD3ED153AA5F8A800A5EE047A82
:109B5000002092F8009093ED144ACCED204A26EEB6
:109B6000646A67EEE67AE2EEE45AC5F89800C5F852
:109B70009C00A3EE286AC5F8A000A6EEE37AE5EE05
:109B8000047AC3ED0E5A83ED0F6ACCED406A83ED83
:109B9000177AC3ED187AFFF7B6BA00BF740E00103B
:109BA00078110010ADAF0020565555559C0B001094
:109BB0001C0000100C00001093244992080E0010A5
:109BC0002C0D00101C0D0010B0AF0020C04AC14B7E
:109BD000D2ED027AB3F90430BF49F0EEE76AB2EE93
:109BE0000E7A81FB0301F4EEC76ADB17C3EBA10316
:109BF000F1EE10FA1BB235D505990988490731D520
:109C0000B8F8BA115B1A9BB219B211F1B30FBCBF0D
:109C100003F5B47319B2B3298BB203DDA3F5B473A2
:109C20009BB219B2AD48007908B95B4219B2AC4B8E
:109C30001B781B077FF5E3ADAA4BAB481B6893F875
:109C4000203013FB01F380FB03011944DB17C3EB46
:109C5000211307EE103AB8EEC77A77EEC77AC2ED55
:109C6000027ACCE5A8F8BA31C9E5A04E3378192BB1
:109C70000AD801229E4902FA03F3194011B99D4AFC
:109C8000134201D03CF06CF89B4B9C4D1B689B062B
:109C900000F1F8859A4CB4F90030B5F90410B5F923
:109CA00006208B4203DB9A42A8BF1A461146B4F93C
:109CB0000230B5F9102021809342B5F9121003DB70
:109CC00099420A46A8BF1A46B4F90430B5F91C10E7
:109CD00062809942B5F91E2003DC9A42A8BF1A4659
:109CE0001146B4F90630B5F92820A1809A42B5F999
:109CF0002A1003DC99420A46A8BF1A46B4F9083074
:109D0000B5F93410E2809942B5F9362003DC9A4265
:109D1000A8BF1A461146B4F90A30B5F9402021818E
:109D20009A42B5F9421003DC99420A46A8BF1A4686
:109D3000B4F90C30B5F94C1062819942B5F94E2056
:109D400003DC9A42A8BF1A461146B4F90E20B5F9B1
:109D50005830A1819A42B5F95A1003DB91420B4663
:109D6000A8BF1346E381674B9B8923B3DFF8A0911B
:109D7000DFF8A0B1DFF884A109F1100539F9023F3D
:109D800000EE103A5846B8EEC00A28F0E9FB3EF063
:109D900005FEBAF90430BAF9062000B298422ADB6F
:109DA0009042A8BF1046A945A9F800000BF1240B6A
:109DB0000AF10C0AE2D13378013B182B02F2A3819D
:109DC000DFE813F04111A111A1114C0BA111A11158
:109DD000A1111E11A111A111A111A111A111901187
:109DE0007411A111A111A111A1114C0B3011A111DC
:109DF000A11190114111A945A9F800300BF1240BD4
:109E00000AF10C0ABAD1D6E7DFF80CC1DFF80CE191
:109E1000DCF80000CEF8000096E80700BCF804600B
:109E2000AEF80460ACF1180686E80700D4ED0C7AB1
:109E300053BB354BD5ED233A94ED0D4A95ED245A9D
:109E4000D4ED0E4AD5ED255A93ED006A93ED027AD2
:109E5000C5ED237A77EEA37AD3ED016A85ED244A26
:109E600034EE055A74EEA55AA8EE276AF0EE477A4A
:109E7000E8EE056AE5EE887A83ED006AC3ED016AD3
:109E8000C3ED027AC5ED254AE36B226C7B60636CFF
:109E9000BA60FB60FEF7CDBF67EE877A0020BDEEAB
:109EA000E77A6062B8EEC77A0120C4F8880084EDD2
:109EB0001B7A0020012BC4ED1F7AC4ED1E7AC4F872
:109EC00080007FF474A8DFED118A01F0FAB900BFB9
:109ED0003C6E00200CD60020676666665457002052
:109EE000BC710020C4730020898888883CD600207B
:109EF00030C1300102000002D0CC002060350020CB
:109F000010340020CCBD0020BC1500100000000063
:109F10000E340020E4D80020500F0010B0AF002015
:109F20003333834167EE877A0020BDEEE77AA06283
:109F3000B8EEC77A0120C4F89C0084ED1C7A00209A
:109F4000012BC4ED247AC4ED237AC4F8940000F008
:109F5000F18393427FF466A81FED0F7AD4ED0E7A59
:109F600067EE877A0022BDEEE77AE262B8EEC77A42
:109F70000122C4F8B02084ED1D7A0022012BC4ED2B
:109F8000297AC4ED287AC4F8A8207FF482A81B4B54
:109F90001B4A19781268ABF806C00023E3626367B6
:109FA00000239362C2E90B33002941F00D82154B67
:109FB0001B689A0302F17184134900220B4618783A
:109FC000012803F10C0302F0CB810132172AF6D1EC
:109FD000FFF761B89A4205DA0123049AC4F8F02227
:109FE00084F8F432094B1B78002B3EF4E5AEB9F14E
:109FF000130F02F03C820023FFF7EBB9F42F00208F
:10A00000F80E0010503500202CAC04087C0B00101A
:10A01000EA48EB4A808AD2ED006AEA4AC5ED4F6A07
:10A0200007EE900AD2ED005AE74AC5ED4D6AF8EE08
:10A03000E77A75EEE66A92ED006AE44AC5ED4C6A8D
:10A04000012077EE677AC5ED505A85F8380187EE22
:10A05000867A188D4742F7EE007AB4EEE77AF1EE91
:10A0600010FA06EE907A88BFB0EE677AB5EEC07A45
:10A07000DFEDD77AD2ED034AF8EEE66AF1EE10FA98
:10A08000B8BFB0EE677AF4EEE64A07EE900AF1EE5A
:10A0900010FA85ED517AF8EE677A00F12483F4EE38
:10A0A000E74AF1EE10FA88BFF0EE674A92ED076AD0
:10A0B000DFEDC85AF4EEC66AF1EE10FA64EEA54A76
:10A0C00008DCF4EEC67AF1EE10FA8CBFF0EE466AC8
:10A0D000F0EE676ADFEDBF7A94F8F4025B8D66EE0E
:10A0E000A76A002840F002835C4206EE104A07EEA1
:10A0F000903AB8EEC66AF8EE677AD2ED0B5AF4EEF3
:10A10000C65AF1EE10FA08D4F4EEE75AF1EE10FA5E
:10A110008CBFB0EE676AB0EE656AAF4BDFEDAD7A2B
:10A120005B7826EE276A0BB9B1EE466A002940F04B
:10A130000883B7EE004AA94B1B681A7C2AB15B7CE6
:10A14000632B41F2148185ED517AA54B196801F01A
:10A150000051002840F02583A24F3A78002A02F0EF
:10A160005081A148DFED9A5AD0ED027AD0ED013A44
:10A1700090ED035A66EEA77AE4EEA37AE6EE057A4E
:10A1800064EE277AF4EEE57AF1EE10FA8CBFB0EEC9
:10A19000655AB0EE675ACDED0C7AD8BFF0EE657A0D
:10A1A000012A00F0D480D0ED065A90ED053AD0EDAA
:10A1B000073A66EEA55AE4EE835AE6EE235A64EEB9
:10A1C000255AF4EEE75AF1EE10FA00F3A482B4EE49
:10A1D000E55AF1EE10FA88BFB0EE655A022ACDEDCD
:10A1E0000D5A00F0B480D0ED0A5A90ED093AD0ED46
:10A1F0000B3A66EEA55AE4EE835AE6EE235A64EE75
:10A20000255AF4EEE75AF1EE10FA00F39782B4EE15
:10A21000E55AF1EE10FA88BFB0EE655A032ACDED8B
:10A220000E5A00F09480D0ED0E5A90ED0D3AD0ED1C
:10A230000F3A66EEA55AE4EE835AE6EE235A64EE30
:10A24000255AF4EEE75AF1EE10FA00F3C183B4EEAA
:10A25000E55AF1EE10FA88BFB0EE655A042ACDED4A
:10A260000F5A74D0D0ED125A90ED113AD0ED133A46
:10A2700066EEA55AE4EE835AE6EE235A64EE255ABA
:10A28000F4EEE75AF1EE10FA41F38E80F0EE657AC3
:10A29000052ACDED105A5AD0D0ED165A90ED153A48
:10A2A000D0ED173A66EEA55AE4EE835AE6EE235A4D
:10A2B00064EE255AF4EEE75AF1EE10FA02F39580B7
:10A2C000B4EEE55AF1EE10FA88BFB0EE655A062AF0
:10A2D000CDED115A3BD0D0ED1A5A90ED193AD0ED90
:10A2E0001B3A66EEA55AE4EE835AE6EE235A64EE74
:10A2F000255AF4EEE75AF1EE10FA02F37E80B4EE3E
:10A30000E55AF1EE10FA88BFB0EE655A072ACDED96
:10A31000125A1CD0D0ED1E5A90ED1D3AD0ED1F3AC6
:10A3200066EEA56AE4EE836AE6EE236A24EE264A28
:10A33000F4EEC47AF1EE10FA02F19580B4EEC45A4C
:10A34000F1EE10FA88BFB0EE445A8DED134A77EE65
:10A35000C57A264BDFED1E5A93ED006AB4EEE56A2E
:10A36000F1EE10FA20DD224BD3ED006A93ED014AA5
:10A3700077EE664AB7EE005AE4EE246A77EE664A54
:10A38000C3ED006AA6EE247AB4EEC57AF1EE10FAB7
:10A3900088BFB0EE457AB4EEE57AF1EE10FAB8BFB8
:10A3A000B0EE657A85ED517AB7EE006A114BF4EEA6
:10A3B000C67AF1EE10FAC3ED007A1DE080CC0020E1
:10A3C000900E0010940E0010DC150010B814001050
:10A3D000000000006F12833AFC330020C873002095
:10A3E00064320020B80E001084DA0020CC15001072
:10A3F0007CDA0020EC13001041F3CD87FAB3C6EEEF
:10A40000276A012ADDED0C7A67EEA67ACDED0C7A8B
:10A4100035D0DDED0D7A67EEA67A022ACDED0D7A04
:10A420002DD0DDED0E7A67EEA67A032ACDED0E7AF9
:10A4300025D0DDED0F7A67EEA67A042ACDED0F7AEE
:10A440001DD0DDED107A67EEA67A052ACDED107AE3
:10A4500015D0DDED117A67EEA67A062ACDED117AD8
:10A460000DD0DDED127A67EEA67A072ACDED127ACD
:10A4700005D0DDED137A67EEA66ACDED136A0029EB
:10A4800000F0A982B6EE007A85ED517A002A3FF4F9
:10A4900092A9CA4BCA4893F803A095F9383190EDB8
:10A4A000006AD5ED4F6AD5ED505AC64CDFF848C367
:10A4B000B4F90640079407EE903AC34BD5ED4C4AE9
:10A4C0001868C24B95ED4D5AB3F814B09CF800C013
:10A4D000BDEEC64AFDEEE55A14EE10EABDEEE64AC0
:10A4E00000F0100400F4805500F48000F8EEE77AE4
:10A4F00014EE103A15EE909A0890BAF1000F40F061
:10A50000D485B348002C40F06C82D0ED006A9DEDFC
:10A510000C6A67EE266AE7EE866AB0EE456AA4EE3C
:10A52000A66AFDEEC66A16EE901A8B4240F3D887F3
:10A53000F0EE446AF8EEE66AA649012AC1ED006A27
:10A5400000F04283D0ED046A9DED0D6A67EE266A45
:10A55000E7EE866AB0EE456AA4EEA66AFDEEC66A2C
:10A5600016EE904AA34201F3A7874C45A8BF4C467C
:10A5700006EE904AF8EEE66A022AC1ED016A00F0A2
:10A580002383D0ED086A9DED0E6A67EE266AE7EE3A
:10A59000866AB0EE456AA4EEA66AFDEEC66A16EEBD
:10A5A000904AA34202F36D814C45A8BF4C4606EE8B
:10A5B000904AF8EEE66A032AC1ED026A00F00483CD
:10A5C000D0ED0C6A9DED0F6A67EE266AE7EE866AAB
:10A5D000B0EE456AA4EEA66AFDEEC66A16EE904A93
:10A5E000A34202F363814C45A8BF4C4606EE904A55
:10A5F000F8EEE66A042AC1ED036A00F0E582D0EDC8
:10A60000106A9DED106A67EE266AE7EE866AB0EE84
:10A61000456AA4EEA66AFDEEC66A16EE904AA3420B
:10A6200002F375814C45A8BF4C4606EE904AF8EE01
:10A63000E66A052AC1ED046A00F0C682D0ED146A0C
:10A640009DED116A67EE266AE7EE866AB0EE456A0E
:10A65000A4EEA66AFDEEC66A16EE904AA34202F385
:10A6600075824C45A8BF4C4606EE904AF8EEE66A65
:10A67000062AC1ED056A00F0A782D0ED186A9DEDAB
:10A68000126A67EE266AE7EE866AB0EE456AA4EEC5
:10A69000A66AFDEEC66A16EE904AA34202F3048350
:10A6A0004C45A8BF4C4606EE904AF8EEE66A072AEB
:10A6B000C1ED066A00F08882D0ED1C6A9DED136A38
:10A6C00027EE267AA6EE277AA7EE245AFDEEC57A63
:10A6D00017EE900A9842C0F27182484517EE903A00
:10A6E000A8BF4B466AE2F0EE664ADFE4DFED3A7A55
:10A6F0009FED3A6A01E514F089F8394B06991B7809
:10A70000384A401A052B90807FF473A814F07EF825
:10A710000446FFF76FB8F0EE657A5FE514F076F85F
:10A72000304B801B5880FEF7C6BD14F06FF806460C
:10A73000FEF7B7BD0020A06220670AE4F0EE657A5C
:10A740006CE5294B5A79002A3FF4F3AC274A12787A
:10A75000002A3FF4EEAC1B78DFED253A07EE903A85
:10A76000244BF8EE675A1B8807EE902A05EE103A44
:10A77000F8EEE77AB8EE455A65EEA77AF7EE005A9A
:10A7800087EE854AB4EEE34AF1EE10FA88BFB0EEE8
:10A79000634AB4EEE54AF1EE10FAB8BFB0EE654A8E
:10A7A000C9E400297FF4D8AC074B1B685F023FF572
:10A7B000D3ACB6EE007A85ED517ACDE4106E002070
:10A7C000D0150010E6D60020D0CC002080CC002090
:10A7D00084DA0020980E001000007A4400007AC449
:10A7E000ADAF0020B0AF00204C6E00203A6E0020CC
:10A7F000713DAA3F346E0020F4BF00200008ED46F2
:10A800001FED027A66EE876AF4EEE76AF1EE10FA5F
:10A8100041F3A185D7ED027AFDEEE77A17EE903A83
:10A82000002BB8BF5B4207EE903AF8EEE77AF4EE01
:10A83000E76AF1EE10FA41F38E85D7ED037AFDEE6B
:10A84000E77A17EE903A002BB8BF5B4207EE903ADA
:10A85000F8EEE77AF4EEE76AF1EE10FA41F37B8561
:10A86000D4F8E81204984CF2503C411A61457EF746
:10A870005CAF84F8EC229AF81920002A3FF4B2ABBE
:10A88000FEF707BEEB7AFF2B00F00487D14A12785F
:10A890009A4240F2FF86D04A32F91390EB7DCF4CBA
:10A8A000FF2BA4F8009001F0A485CA4A12789A42BE
:10A8B00041F29F85C84A32F913A0A4F802A00E20E5
:10A8C0003BF048FA00283FF4E6A9C54A95F916C0BE
:10A8D0001388C44898F8B8E1B2F9022095F90A1033
:10A8E0001CFB03F380FB03BC4FEA2C1CDB17BEF1FF
:10A8F000010F1FFA8AFB1FFA89F9ACEB030A02F079
:10A90000248211FB02F280FB0230D217C2EB20122C
:10A9100091440BEB0A03A4F800906380FFF7BBB9E6
:10A92000B14E3378013B0D2B31D8DFE813F04D0CDD
:10A93000080D5C0CCF0CB50C990C820CF20C100CB1
:10A94000F80B0E00740C6A0CEE0BA84BA84A5B685F
:10A950001268C833934204D320F022F895F802A07D
:10A96000A8B1BAF1010F02F04B87BAF1030F0AD177
:10A97000A04F38682DF053F99F4B1B780022022B13
:10A980003A6002F0A587012395F802A03370BAF16E
:10A99000010F00F060862B79012B02F09781022BCA
:10A9A0007EF437AF3378012B7EF433AF934B1B78B3
:10A9B000002B7EF42EAF0EF0D7FAFEF72ABF13F06D
:10A9C00025FF8F4B06901E7806F00106FEF78FBC20
:10A9D000F0EE657A42E48B4B1B685C023FF552ADAA
:10A9E00054E5002D01F01C82D0ED006A9DED0C6A4B
:10A9F00067EE266AE7EE866AB0EE456AA4EEA66ABE
:10AA0000FDEEC66A16EE901A8B4201F34287494565
:10AA1000A8BF494606EE901AF8EEE66A7A49012A7E
:10AA2000C1ED006A00F0D080D0ED046A9DED0D6AA2
:10AA300067EE266AE7EE866AB0EE456AA4EEA66A7D
:10AA4000FDEEC66A16EE904AA34201F340874C45DC
:10AA5000A8BF4C4606EE904AF8EEE66A022AC1ED1F
