:020000040800F2
:10000000F0FF001001040408E9EF0308D58500089B
:10001000050504080505040805050408000000009E
:1000200000000000000000000000000075F603085A
:1000300071F60308000000006DF6030825CD0008E6
:100040000505040805050408050504080505040858
:1000500005050408050504085561020881620208C7
:100060004562020809620208CD61020861A1020826
:1000700051A1020841A1020831A102081DA10208F4
:1000800009A10208F5A002080505040805050408F1
:100090000505040805050408050504089161020822
:1000A000050504087597000805050408359800083B
:1000B0000505040805050408B5960008FDA6020814
:1000C00005A70208F1A60208F9A60208050504081A
:1000D000050504081DD0000881CF0008E5CE000802
:1000E000196102080505040879F6030869940008F7
:1000F0003595000805050408F5950008E1A00208FB
:100100000505040805050408050504080505040897
:1001100049CE0008ADCD0008BDA20108A1A201088A
:10012000CDA00208B9A002085D960208A5A00208A9
:1001300091A0020805050408050504080505040842
:10014000050504080505040805050408EDEF030886
:100150007DA0020869A0020855A002080505040850
:10016000E5A60208EDA60208050504080505040831
:100170000505040805050408050504080505040827
:0801800005050408050504084B
:08018800A8FF030001000000C4
:1001900007020200383900207C39002000000000EE
:1001A0004006000802000C000C39002080390020B5
:1001B000000000000000000006020C0000390020D2
:1001C0008C39002000000000F11A03080802090021
:1001D0008A38002098390020000000005D1A0308CA
:1001E000F701060084380020A43900200000000038
:1001F000420600080A020A00C8370020AC39002075
:1002000000000000480600082700040028370020EE
:10021000B839002000000000520600080120080044
:100220006C360020BC390020000000005606000893
:100230001A000A002C2E0020C43900200000000003
:100240005E060008031233008C870020128C002009
:10025000000000006806000825005A00BF87002043
:10026000A88B00200000000000000000F6110C0028
:10027000188B0020388B0020000000009C0600082E
:100280002C001000248B0020028C002000000000B5
:10029000A5D701082B002400698C0020458C002084
:1002A0000000000075D7010829006400388A00208A
:1002B000448B002000000000000000001400020039
:1002C000E4890020348B002000000000A80600080C
:1002D00010100300D4890020D48C002000000000FE
:1002E000AA06000828001000C8840020D88C00202E
:1002F00000000000C9B7010823001000EC830020B3
:10030000E88C002000000000E1B70108190005009A
:10031000CC890020F88C002000000000AE06000808
:10032000F821060036850020008D00200000000026
:10033000B406000822000C00F0A70020C4A800208A
:1003400000000000BA0600081B00F40044930020DF
:10035000D0A800200000000091B802080E020200A0
:100360008C9A0020C4A9002000000000C6060008E6
:100370002F0011008CA80020C8A900200000000058
:10038000C806000805100600B8A80020DCA9002057
:1003900000000000DA060008F5216E00BC92002083
:1003A000E4A900200000000065B0020826000E004D
:1003B00064AA002054AA0020000000003DB00208FA
:1003C0000B2010002C93002074AA002000000000D5
:1003D000E00600081F101C009C92002084AA002048
:1003E00000000000F006000805020100E49600206D
:1003F000A0AA0020000000000C07000803010A006A
:1004000028950020A4AA0020000000000E07000884
:100410001600080010AB002034AB002000000000E4
:10042000180700080E20F000EAAD0020C0B400203C
:1004300000000000C50401081300040058B00020AB
:10044000B0B50020000000002007000801010400F2
:100450006AAD0020B4B500200000000000000000DC
:100460000001040062AD0020B8B5002000000000CB
:1004700024070008020103005DAD0020BCB5002088
:10048000000000007511010809020100F8B3002006
:10049000C0B5002000000000280700080C1008016B
:1004A0002AAF0020C4B5002000000000F7100108AA
:1004B0000102050072AD0020CCB600200000000053
:1004C000455D03080002050040AB0020D4B60020C3
:1004D00000000000000000001E000400CCB100205D
:1004E000DCB60020000000002A070008130201000B
:1004F000FCBF002098F50020000000000000000074
:100500000400800094F400209CF50020000000000E
:1005100000000000F901040078E900201CF600202A
:1005200000000000CD810008FD011E0054E90020FC
:1005300020F60020000000005D8100080610160073
:100540006CDC002040F6002000000000ED070108F0
:10055000FB010100A8DB002058F60020000000008D
:10056000E1190308FC01090074DA00205CF60020A0
:1005700000000000211A03081102080048DA0020D8
:1005800068F60020000000002E0700081212040088
:1005900040DA002070F60020000000003607000856
:1005A00012200D002CDA002074F60020000000005C
:1005B0003A07000818202C0088D9002084F6002073
:1005C0000000000001E501080D003400B4D900204E
:1005D000B0F6002000000000051B0308FA0102002D
:1005E0005CD30020E4F6002000000000A1500208C7
:1005F000020203002CC80020E8F6002000000000E2
:10060000000000000C0201001CC80020ECF60020D5
:100610000000000048070008FE0109002CD300205C
:10062000F0F6002000000000891A03080A102E00CE
:10063000D8D20020FCF60020000000004A07000885
:10064000023C3F010000000000004A01B400D60156
:10065000260020030000E8036400040A00017E0570
:10066000EA05B405320000000000000000000000B0
:10067000000000000000000000000000000000007A
:10068000000000000000000000000000000000006A
:100690000000000000000000000001000000000059
:1006A0000000000000000000030000050000000042
:1006B000280100000200F4011900C800141E010006
:1006C00064002C0128000000000000000000000071
:1006D00000000000000000000000200001010000F8
:1006E0002B21231E64010100000001000A012900E2
:1006F00000000000000001000000050000000000F4
:1007000000000000000000000000000000000401E4
:1007100001006C1600000000651B0D00190128285F
:1007200008044400FA00000000000000010000007E
:10073000000001010101FFFFFFFF000000010000B8
:100740000548455350000000010000300107015AE0
:100750000001000000000000000000000000010097
:10076000000030000100B80BB80BB80B200050009F
:080770005000500000000000E1
:10077800FF010102FFFF00000000803F00000000B1
:100788000000000000000000000000000000000061
:100798000000000000000000000000000000000051
:1007A8000000803F00000000000000000000000082
:1007B8000000803F00000000000000000000000072
:1007C8000000803F00000000000000000000000062
:1007D8000000803F0000803F000000006C390020CE
:1007E80008000000000000005C390020080000003C
:1007F800842704080508040000000000C05104080C
:1008080048440408AC51040800000000000000003F
:10081800B027040805080A0000000000C0510408B9
:1008280048440408BC500408000000000000000010
:10083800D6010000D1C70108000000000000000038
:1008480001006A0001000000FFFFFFFF0100000037
:100858005001000007000000020000000000000036
:1008680000000000010203040607080909026400E9
:10087800030100C03209040000010300000009213F
:10088800110100012226000705830308000A080B4E
:10089800010202020100090401000102020100052F
:1008A8002400100105240100020424020205240684
:1008B8000102070582030800FF09040200020A007A
:1008C8000000070501024000000705810240000002
:1008D80000FFFF0000000000AA550501000001000C
:1008E800000001FFFF01000005010905A101A100A9
:1008F800050109300931093209330935093409403C
:1009080009381581257F750895088102C0C0000047
:1009180009022200010100E032090400000103017C
:10092800020009211101000122260007058303089E
:10093800000A000000000000010203040102030491
:10094800060708092D202D2D202D2D2D2D202D2D8C
:100958002D2D000000000000000000000000000035
:10096800000000AA550B010000AA5507010000AAC3
:10097800550902000000000001000000C012AA553D
:1009880003009F00FF1FFF1F988604080000000057
:1009980000000000AD190308A08601000400000053
:1009A800000000000000000000000000000000003F
:1009B800000000000000000000000000C49B0408C4
:1009C8000494040839520208814B01087D00000094
:1009D8000700000000000000000000000000000008
:1009E80000000000000000000000000000000000FF
:1009F8000C9404080000000000000000998A000818
:100A0800E8030000030000000000000000000000F0
:100A180000000000000000000000000000000000CE
:100A2800000000001094040800000000000000000E
:100A380049130108E8030000050000000000000059
:100A4800000000000000000000000000000000009E
:100A580000000000000000001C94040800000000D2
:100A6800EDD40108C19F00086A18000005000000C5
:100A7800000000000000000000000000000000006E
:100A88000000000000000000000000004488040886
:100A980000000000000000006DFB000810270000A7
:100AA800010000000000000000000000000000003D
:100AB800000000000000000000000000000000002E
:100AC80020940408000000000000000001800008D5
:100AD800E80300000500000000000000000000001E
:100AE80000000000000000000000000000000000FE
:100AF800000000002C940408000000000000000022
:100B080085A70108204E0000030000000000000037
:100B180000000000000000000000000000000000CD
:100B280000000000000000003C94040800000000E1
:100B38000000000071A50108204E0000030000001D
:100B4800000000000000000000000000000000009D
:100B58000000000000000000000000004C940408A1
:100B68000000000000000000DD810008400D0300C7
:100B7800030000000000000000000000000000006A
:100B8800000000000000000000000000000000005D
:100B98005C8704080000000000000000C526030868
:100BA8001027000001000000000000000000000005
:100BB800000000000000000000000000000000002D
:100BC800000000004C88040800000000000000003D
:100BD8007D900308102700000300000000000000BB
:100BE80000000000000000000000000000000000FD
:100BF80000000000000000005C94040800000000F1
:100C08000000000075E00108A08601000100000056
:100C180000000000000000000000000000000000CC
:100C280000000000000000000000000064940408B8
:100C380000000000000000003DA40308A086010099
:100C4800010000000000000000000000000000009B
:100C5800000000000000000000000000000000008C
:100C680050880408000000000000000075D100084A
:100C7800A00F0000010000000000000000000000BC
:100C8800000000000000000000000000000000005C
:100C9800000000007094040800000000000000003C
:100CA8001DC6020810270000010000000000000017
:100CB800000000000000000000000000000000002C
:100CC8000000000000000000648704080000000025
:100CD80000000000791203081A410000010000001A
:100CE80000000000000000000000000000000000FC
:100CF800000000000000000000000000B0880408A8
:100D0800000000000000000015AD020810270000D8
:100D180001000000000000000000000000000000CA
:100D280000000000000000000000000000000000BB
:100D3800C89304080000000000000000F57F0308C5
:100D48001A4100000100000000000000000000003F
:100D5800000000000000000000000000000000008B
:100D6800000000007C94040800000000000000005F
:100D780055E30208400D03000000000000000000D9
:100D8800000000000000000000000000000000005B
:100D98000000000000000000849404080000000027
:100DA80000000000AD1A0308400D03000000000019
:100DB800000000000000000000000000000000002B
:100DC8000000000000000000000000008C940408EF
:100DD800000000000000000029960308A08601001A
:100DE80003000000000000000000000000000000F8
:100DF80000000000000000000000000000000000EB
:100E08009894040800000000000000003DA50108B7
:100E180040420F0000000000000000000000000039
:100E280000000000000000000000000000000000BA
:100E380000000000A4940408000000000000000066
:100E48001D1C030850C30000000000000000000043
:100E5800000000000000000000000000000000008A
:100E6800000000000000000001000000FFFFFFFF7D
:100E78004DD30208D1D20208C1CB020800000000FD
:100E8800A9B7020841D40208B1B70208ADB70208F1
:100E9800000000000000000005A802085DB103087A
:100EA8001DB1030809EF0308000000009DAD030809
:100EB80071B00308F1B00308D9AF030800000000BF
:100EC8000000000091AD0308E001010101000000ED
:100ED800355F030800000000D408002058A2040869
:100EE80000000000000000000000000000000000FA
:100EF8009CA3040800000000000000006009002016
:100F08000400000004A204080D0000005D7A030834
:100F18001C24002000000000349B04080D00000081
:100F2800357A03081024002000000000A49C04085F
:100F38000800000000000000042400200400000055
:100F4800A09B04080D000000E95F0308F8230020B7
:100F580000000000549C040803000000797C03088A
:100F6800EC2300200000000068A204080300000031
:100F7800797C0308E0230020000000009098040812
:100F88000100000000000000000000000000000058
:100F9800000000000E00000000000000000000003B
:100FA8000000000058A20408000000000000000033
:100FB80000000000000000009CA3040800000000DE
:100FC800000000006009002004000000B0A104082F
:100FD80003000000316B0308D42300200800000040
:100FE800A09B04080D000000E95F0308F823002017
:100FF80000000000549C040803000000797C0308EA
:10100800EC2300200000000068A204080300000090
:10101800797C0308E0230020000000009098040871
:1010280001000000000000000000000000000000B7
:10103800000000000E00000000000000000000009A
:101048000000000070A2040800000000000000007A
:1010580000000000000000009CA30408000000003D
:10106800000000006009002004000000B8A1040886
:1010780003000000797C03082824002000000000F9
:101088009098040801000000000000000000000023
:1010980000000000000000000E000000000000003A
:1010A800000000000000000020700020702D720079
:1010B800080000000000000000000000901F002051
:1010C800FFFFFFFFFA000000010000000100000020
:1010D8002D202D2D202D2D2D2D202D2D2D000000E6
:1010E80000000000000000000000000000000000F8
:1010F800649804086C9804088898040800000000A4
:10110800000000000000000000000000FA9704083A
:1011180004000000FD770308000000000000000044
:101128009098040801000000000000000000000082
:1011380000000000000000000E0000000000000099
:10114800000000000000000046F500200100C4096E
:101158000000000044F500200100C4090000000060
:1011680042F500200100C4090000000040F50020FD
:101178000100C409000000003CF500200100C4097A
:10118800000000003EF500200100C4090000000036
:101198003AF500200100C4090000000038F50020DD
:1011A8000100C4090000000084AD00200100C8004F
:1011B8000100000082AD00203200307532000000CE
:1011C80080AD0020055A05007DAD002000FF01001C
:1011D8007FAD002001000000800900207BAD0020C9
:1011E80002000000444504087CAD002000FF010017
:1011F8007EAD002001000000800900207AAD0020AB
:10120800020000004445040870AD002080C1803E03
:10121800050000006EAD002080C1803E0500000082
:1012280068AD002080C1803E0500000066AD00204A
:1012380080C1803E0500000060AD002000FF010075
:101248005CAD00200A3201005BAD00200400000004
:101258009C5004085AAD002002000000B050040859
:101268000000000000000000880900209C96002073
:101278009CFF2C01000000005A0700200A00000013
:10128800BC50040850AD0020E0150C170000000009
:101298005C07002008000000484404085B070020A1
:1012A80005000000C051040852AD002002000000F3
:1012B800D450040848B000200100FF7F010000005E
:1012C80046B0002002000000E0500408DFAD002016
:1012D80003000000F0500408DEAD00200300000009
:1012E800F0500408E6AE00200000C2010100000032
:1012F800E2AE00200000C20101000000E4AE0020C0
:101308000000C20101000000DEAE00200000803EA7
:1013180032000000DCAE00200000803E32000000F9
:10132800DAAE00200000803E32000000E0AE00206F
:1013380000002C0101000000F0AE00200000F401C4
:1013480001000000EEAE00200000F40101000000E2
:10135800ECAE00200000F40101000000EAAE00201D
:101368000000F40101000000E8AE002000FF0100C9
:101378000CAF0020E803D0070A0000000AAF0020E5
:10138800006401000A000000FFAE002000640100B4
:10139800FEAE00200064010006AF002000640100DA
:1013A8000A00000005AF0020006401000A000000E8
:1013B80004AF0020006401000A00000009AF00200B
:1013C800006401000A00000008AF0020006401006A
:1013D8000A00000007AF0020006401000A000000B6
:1013E80003AF002000FF01000A00000002AF002048
:1013F80000FF01000A00000001AF002000FF01000B
:101408000A000000E6AD00200000F4010100000021
:10141800E4AD00200000F40101000000E2AD00206E
:101428000000F40101000000E0AD00200000F4011C
:1014380001000000FAAE00201400E80301000000DB
:10144800F8AE0020E803307501000000F7AE002078
:1014580000C80100F6AE002000C80100F5AE00206B
:1014680000C80100F4AE0020016401000A00000079
:10147800F3AE002000FF01000A0000003CB000208D
:1014880000C801003BB0002000C801003AB00020AD
:1014980000C8010039B0002000C8010038B00020A1
:1014A80000C8010037B0002000C8010036B0002095
:1014B80000C8010035B0002000C8010034B0002089
:1014C80000C8010033B000200100000000510408EA
:1014D800B8980408000000000000000000000000A8
:1014E80000000000C898040809000000000000007F
:1014F8002C0A002004000000D0980408090000000D
:1015080000000000200A002004000000B09F04082A
:101518000900000000000000140A00200400000078
:10152800885B04080900000000000000080A002089
:1015380004000000D898040809000000000000001A
:10154800FC09002004000000E098040809000000DD
:1015580000000000F009002004000000E8980408DA
:101568000900000000000000E40900200400000059
:10157800F09804080900000000000000D8090020C5
:10158800040000009098040801000000000000001A
:101598000000000000000000000000000E00000035
:1015A800000000000000000000000000289A040865
:1015B8000000000000000000000000000000000023
:1015C8004C8604080700000000000000500A0020B4
:1015D80000000000389A040808000000000000001D
:1015E800440A002000000000449A04080800000093
:1015F80000000000380A002000000000909804084D
:1016080001000000000000000000000000000000D1
:10161800000000000E0000000000000000000000B4
:10162800000000004C9A04080000000000000000C0
:1016380000000000000000005C9A04080D00000093
:10164800000000008C0A002000000000649A0408D2
:101658000D00000000000000800A002000000000CB
:101668006C9A04080700000000000000780A0020B7
:1016780000000000749A04080D000000000000003B
:101688006C0A0020000000007C9A04080D0000008D
:1016980000000000600A002000000000849A04088E
:1016A8000700000000000000580A002000000000A9
:1016B80090980408010000000000000000000000ED
:1016C80000000000000000000E0000000000000004
:1016D80000000000000000008C9A040800000000D0
:1016E8000000000000000000000000004C86040814
:1016F8000C0000000000000086AD00200000000083
:10170800A09A04080C0000000000000088AD00202A
:1017180000000000B09A04080C000000000000005F
:10172800BEAD002000000000C09A04080C000000B4
:1017380000000000B2AD002000000000D49A0408A8
:101748000C000000000000008AAD0020000000002E
:10175800E89404080C000000000000008CAD002094
:1017680000000000E09A04080C00000000000000DF
:101778008EAD002000000000F49A04080C00000060
:101788000000000090AD002000000000FC9A040852
:101798000C0000000000000092AD002000000000D6
:1017A800049B04080C00000000000000D0AD0020DD
:1017B800000000001C9B04080C0000000000000052
:1017C80094AD002000000000289B04080C000000D5
:1017D8000000000096AD0020000000008893040877
:1017E8000C0000000000000098AD00200000000080
:1017F800309B04080C000000000000009AAD002097
:10180800000000003C9B04080C00000000000000E1
:101818009CAD002000000000489B04080C0000005C
:10182800000000009EAD002000000000549B04084A
:101838000C00000000000000A0AD00200000000027
:10184800609B04080C00000000000000A2AD00200E
:10185800000000006C9B04080C0000000000000061
:10186800B6AD002000000000749B04080C000000C6
:1018780000000000B4AD0020000000007C9B0408BC
:101888000C00000000000000C2AD002000000000B5
:10189800889B04080C00000000000000C4AD002074
:1018A80000000000949B04080C00000000000000E9
:1018B800CAAD002000000000809904080C00000058
:1018C80000000000A4AD002000000000A09B040858
:1018D8000C00000000000000ACAD0020000000007B
:1018E800A89B04080C00000000000000A6AD002022
:1018F80000000000B49B04080C0000000000000079
:10190800A8AD002000000000C09B04080C000000E7
:1019180000000000AAAD002000000000C89B0408D9
:101928000C00000000000000AEAD00200000000028
:101938006C8604080C00000000000000B8AD002010
:1019480000000000D49B04080C0000000000000008
:10195800B0AD002000000000E09B04080C0000006F
:1019680000000000C0AD002000000000EC9B04084F
:101978000C00000000000000BAAD002000000000CC
:10198800F49B04080C00000000000000BCAD00201F
:1019980000000000FC9B04080C0000000000000090
:1019A800C6AD002000000000049C04080C000000E4
:1019B80000000000C8AD0020000000009098040856
:1019C800010000000000000000000000000000000E
:1019D800000000000E0000000000000000000000F1
:1019E800000000000C9C040800000000000000003B
:1019F8000000000000000000189C04080D00000012
:101A080000000000E40A002000000000209C0408F8
:101A18000D00000000000000D80A002000000000AF
:101A2800289C04080700000000000000D00A0020DD
:101A380000000000349C04080700000000000000BB
:101A4800C80A002000000000409C040809000000AB
:101A580000000000BC0A0020000000004C9C0408A4
:101A68000900000000000000B00A0020000000008B
:101A7800589C04080900000000000000A40A002087
:101A880000000000689C0408090000000000000035
:101A9800980A002000000000909804080100000047
:101AA800000000000000000000000000000000002E
:101AB8000E00000000000000000000000000000010
:101AC8007C9C0408000000000000000000000000EA
:101AD800000000008C9C04080500000000000000C5
:101AE800DDAD00200000000090980408010000000F
:101AF80000000000000000000000000000000000DE
:101B08000E000000000000000000000000000000BF
:101B1800949C040800000000000000000000000081
:101B2800000000009CA30408000000000000000062
:101B3800D401002004000000A09C04080D0000004F
:101B480061780308380B00200000000004A2040894
:101B58000D000000ED5E03082C0B002000000000C3
:101B6800349B04080D000000D15E0308200B002000
:101B780000000000A49C0408080000000000000009
:101B8800140B002004000000A09B04080D000000B6
:101B9800195E0308080B002000000000AC9C040834
:101BA8000900000000000000FC0A002004000000FA
:101BB800549C040803000000797C0308F00A002004
:101BC80000000000909804080100000000000000D8
:101BD8000000000000000000000000000E000000EF
:101BE800000000000000000000000000B49C040891
:101BF80000000000000000000000000000000000DD
:101C0800C49C04080D00000000000000500B0020D8
:101C180000000000CC9C04080A000000000000003E
:101C28007DB1002000000000D89C04080A000000D4
:101C38000000000085B1002000000000E09C0408BE
:101C48000A000000000000008DB100200000000024
:101C5800E89C04080800000000000000440B002075
:101C680000000000F09C040804000000117E030836
:101C78000000000000000000909804080100000027
:101C8800000000000000000000000000000000004C
:101C98000E0000000000000000000000000000002E
:101CA800FC9C040800000000000000000000000088
:101CB80000000000109D04080D0000000000000056
:101CC800680B002000000000209D040804000000AC
:101CD800A97A03080000000000000000289D0408FD
:101CE8000D000000000000005C0B00200000000058
:101CF8003C9D040804000000857A030800000000E9
:101D08000000000090980408010000000000000096
:101D18000000000000000000000000000E000000AD
:101D2800000000000000000000000000449D0408BE
:101D3800000000000000000000000000000000009B
:101D4800589D04080000000000000000000000008A
:101D580000000000789D0408080000000000000052
:101D6800BC0B002000000000809D04080800000053
:101D780000000000B00B002000000000889D04084F
:101D88000800000000000000A40B00200000000074
:101D9800909D04080800000000000000980B002037
:101DA80000000000989D04080800000000000000E2
:101DB8008C0B002000000000A49D0408080000000F
:101DC80000000000800B002000000000B09D040807
:101DD8000800000000000000740B00200000000054
:101DE80090980408010000000000000000000000B6
:101DF80000000000B89D0408020000005D7E030892
:101E08000200000000000000000000000E000000BA
:101E1800000000000000000000000000C49D04084D
:101E280000000000000000000000000000000000AA
:101E3800D89D04080700000000000000F80B0020EF
:101E480000000000E49D04080800000000000000F5
:101E5800EC0B002000000000F09D040808000000C2
:101E680000000000E00B002000000000FC9D0408BA
:101E78000800000000000000D40B00200000000053
:101E8800089E04080800000000000000C80B00209D
:101E98000000000090980408010000000000000005
:101EA8000000000000000000000000000E0000001C
:101EB800000000000000000000000000149E04085C
:101EC80000000000000000003B09002000000000A6
:101ED800209E04080B00000000000000880C002071
:101EE800000000002C9E04080B0000000000000009
:101EF8007C0C002000000000389E04080B00000045
:101F080000000000700C002000000000449E04083F
:101F18000B00000000000000640C0020000000001E
:101F2800509E04080B00000000000000580C002020
:101F3800000000005C9E04080B0000000000000088
:101F48004C0C002000000000689E04080B000000F4
:101F580000000000400C002000000000749E0408EF
:101F68000B00000000000000340C002000000000FE
:101F7800809E04080B00000000000000280C0020D0
:101F8800000000008C9E040807000000000000000C
:101F9800200C002000000000949E040807000000A8
:101FA80000000000180C002000000000A09E04089B
:101FB8000B000000000000000C0C002000000000D6
:101FC800AC9E04080800000000000000000C00207F
:101FD80000000000909804080100000000000000C4
:101FE8000000000000000000000000000E000000DB
:101FF800000000000000000000000000B89E040877
:1020080000000000000000000000000000000000C8
:10201800CC9E04080800000000000000B80C002056
:1020280000000000D89E040808000000000000001E
:10203800AC0C002000000000E49E0408080000002A
:1020480000000000A00C002000000000B09D040863
:102058000800000000000000940C002000000000B0
:102068009098040801000000000000000000000033
:1020780000000000000000000E000000000000004A
:102088000000000000000000F09E040800000000AE
:10209800000000003809002000000000009F04082C
:1020A8000B00000000000000000D002000000000F0
:1020B8000C9F04080B00000000000000F40C002036
:1020C80000000000189F040807000000000000003E
:1020D800EC0C002000000000249F0408070000000A
:1020E80000000000E40C002000000000309F0408FD
:1020F8000700000000000000DC0C002000000000C9
:102108003C9F04080800000000000000D00C0020DC
:1021180000000000449F04080800000000000000C0
:10212800C40C002000000000909804080100000082
:102138000000000000000000000000000000000097
:102148000E00000000000000000000000000000079
:102158004C9F04080000000000000000380900201F
:1021680000000000589F04080D0000000000000057
:10217800540D002000000000649F040807000000C0
:10218800000000004C0D0020000000006C9F0408B7
:102198000700000000000000440D002000000000BF
:1021A800749F040807000000000000003C0D002098
:1021B80000000000505B0408070000000000000059
:1021C800340D002000000000585B040807000000E0
:1021D800000000002C0D002000000000605B0408D7
:1021E8000700000000000000240D0020000000008F
:1021F8007C9F040807000000000000001C0D002060
:1022080000000000849F0408070000000000000090
:10221800140D0020000000008C9F04080700000037
:10222800000000000C0D0020000000009098040839
:102238000100000000000000000000000000000095
:10224800949F0408020000005D7E0308010000005E
:1022580000000000000000000E0000000000000068
:102268000000000000000000000000005D6203089C
:10227800600D0020DBAD00201D000000085104089F
:10228800DAAD002000C80100D8AD0020E803D0076F
:102298000100000048454C494F535052494E4700F1
:1022A80079AD00200003010078AD00200003010093
:1022B800A56103087D6103083C0E0020396103080D
:1022C800ED600308B40E0020E5610308CD61030842
:1022D800680F0020596003080D600308741200207D
:1022E80073620308ED65030850130020595E030864
:1022F80000000000A0130020ED7D030869650308B5
:102308007C140020996203080000000030150020AA
:10231800496303080D630308BC150020B56303086F
:1023280085630308AC160020416403088964030828
:102338004C170020FCAE002001060100D9620308FA
:10234800AD6203088C180020E5630308CD7A030802
:1023580018190020B5640308297B0308E019002038
:10236800F2AE002001030100A09F04080000000055
:10237800000000000000000000000000AC9F0408FE
:102388000800000000000000181B002000000000EA
:10239800B49F04080700000000000000101B002084
:1023A80000000000C49F04080D00000000000000A9
:1023B800041B002000000000D09F04080300000058
:1023C800797C0308F81A002000000000909804089F
:1023D80001000000000000000000000000000000F4
:1023E800000000000E0000000000000000000000D7
:1023F80000000000D89F0408000000000000000052
:102408000000000000000000E89F04080A00000027
:1024180000000000BC94040800000000F09F0408BD
:102428000A00000000000000B45D0408000000007D
:10243800F89F04080A000000000000003DB00020DA
:102448000000000000A004080A00000000000000CE
:10245800241B0020000000009098040801000000E0
:102468000000000000000000000000000000000064
:102478000E00000000000000000000000000000046
:1024880008A0040800000000000000000000000090
:102498000000000014A0040803000000797C030871
:1024A800581B00200000000020A0040803000000C2
:1024B800797C03084C1B00200000000028A00408B9
:1024C80003000000797C0308401B00200000000086
:1024D80030A00408050000000000000077AD0020CF
:1024E8000000000038A004080700000000000000F9
:1024F800381B00200000000044A00408070000006A
:1025080000000000301B0020000000009098040824
:1025180001000000000000000000000000000000B2
:10252800000000000E000000000000000000000095
:102538000000000050A00408000000000000000097
:102548000000000000000000A89504080300000037
:10255800797C0308881B00200000000064A00408A0
:1025680003000000797C03086007002000000000D9
:102578006CA0040803000000797C03087C1B002081
:102588000000000074A0040803000000797C030820
:10259800701B002000000000A09B0408030000003E
:1025A800797C0308641B0020000000009098040850
:1025B8000100000000000000000000000000000012
:1025C800000000000E0000000000000000000000F5
:1025D8000000000080A004080000000000000000C7
:1025E80000000000000000008CA0040807000000A4
:1025F800817B0308F01B002000000000C49B040836
:1026080003000000797C0308E41B002000000000A0
:1026180098A0040803000000797C0308D81B002058
:1026280000000000A0A0040803000000797C030853
:10263800CC1B002000000000A8A004080700000030
:10264800657B0308C41B002000000000E45A04084E
:1026580003000000797C0308B81B0020000000007C
:10266800B4A0040803000000797C0308AC1B002018
:1026780000000000C0A0040803000000797C0308E3
:10268800A01B002000000000C8A0040803000000F0
:10269800797C0308941B002000000000909804082F
:1026A8000100000000000000000000000000000021
:1026B800000000000E000000000000000000000004
:1026C800000000002D620308FD610308F81B0020CC
:1026D8003565030800000000841C0020C960030859
:1026E800A5600308101D0020000000000000000085
:1026F800C41D00200D6503089D7B0308641E00208F
:10270800D4A0040800000000000000000000000041
:1027180000000000E0A0040803000000797C030822
:10272800841F002000000000E8A004080300000047
:10273800797C0308781F00200000000064870408E3
:1027480003000000797C03086C1F002000000000D3
:10275800F4A0040803000000797C0308601F00202F
:102768000000000000A1040803000000797C0308B1
:10277800541F00200000000008A104080200000007
:102788005D7E03080000000000000000949F04081C
:10279800020000005D7E0308010000000000000048
:1027A800B89D0408020000005D7E030802000000D6
:1027B80000000000000000000E0000000000000003
:1027C800000000000000000056AD002088136F17BD
:1027D8000100000058AD002088136F1700000000AA
:1027E80010A1040800000000000000000000000024
:1027F8000000000020A104080800000000000000FC
:1028080064200020040000002CA104080800000037
:10281800000000005820002000000000549C04081C
:102828000400000089780308000000000000000090
:10283800909804080100000000000000000000005B
:1028480000000000000000000E0000000000000072
:10285800000000000000000054AD002088136F172E
:1028680001000000D896002088136F1700000000B0
:102878009D5F0308000000007020002021B10020A7
:102888000100000080510408DA96002001000000D1
:102898008C510408D09600200200000094510408CE
:1028A8008EF5002000000000000000008CF50020DC
:1028B80000000000000000008AF500200000000071
:1028C8000000000088F50020000000000000000063
:1028D80086F50020000000000000000084F50020BC
:1028E80000000000000000000C02002000000000B2
:1028F8000000000053AD002002000000A0510408B1
:1029080068A10408000000000000000000000000AA
:102918000000000020A104080800000000000000DA
:10292800F4200020040000002CA104080800000086
:1029380000000000E820002000000000549C04086B
:10294800040000006D5F03080000000000000000A4
:10295800909804080100000000000000000000003A
:1029680000000000000000000E0000000000000051
:10297800000000000000000078A10408000000002A
:1029880000000000000000000000000088A104080A
:102998000D000000D979030824210020040000005C
:1029A80094A104080D000000C55F03081821002049
:1029B80004000000A0A104080D0000009D79030890
:1029C8000C21002000000000ACA104080300000056
:1029D800516B03080021002008000000B8A104087A
:1029E80003000000797C0308282400200000000070
:1029F800909804080100000000000000000000009A
:102A080000000000000000000E00000000000000B0
:102A18000000000000000000889804080000000082
:102A2800000000000000000000000000FA97040801
:102A380004000000A1780308000000000000000066
:102A48009098040801000000000000000000000049
:102A580000000000000000000E0000000000000060
:102A680000000000000000000CA2040800000000A4
:102A78000000000000000000000000005889040861
:102A88000D00000000000000842100200400000068
:102A98001CA20408080000000000000078210020A3
:102AA8000400000028A2040808000000000000003C
:102AB8006C2100200400000030A204080800000077
:102AC80000000000602100200400000038A2040873
:102AD800080000000000000054210020040000004D
:102AE80040A204080800000000000000482100205F
:102AF8000400000048A204080800000000000000CC
:102B08003C2100200400000050A204080800000036
:102B18000000000030210020040000009098040804
:102B2800010000000000000000000000000000009C
:102B3800000000000E00000000000000000000007F
:102B480000000000855F03080000000090210020BD
:102B58000000000000000000082200200000000023
:102B680000000000A8220020D696002004000000E3
:102B7800AC510408D4960020E0150C1700000000A2
:102B8800D39600200800000048440408D29600208C
:102B980005000000C051040800000000000000000B
:102BA800F82200200403090412010002EF02014088
:102BB80083045632000201020301000012010002E0
:102BC8000202004083044057000201020301000092
:102BD80009024300020100C0320904000001020298
:102BE800010005240010010524010001042402024B
:102BF8000524060001070582030800FF09040100F7
:102C0800020A0000000705010240000007058102D2
:102C180040000000FF000000080000000000000164
:102C2800000000000000000000000000F5AC0308F0
:102C3800F1AC0308EDAC0308E1AC0308DDAC030814
:102C4800E9AC0308E5AC030869AD03085DAD03080A
:102C580035AD030849AD030821AD03080DAD0308E0
:102C6800F9AC030801010000006002401060024056
:102C78000000000000000000000B00000000000041
:102C880000000000000000000060024028600240D0
:102C98000100000000000000060C00000000000019
:102CA8000000000000000000006002404060024098
:102CB8000200000000000000100D000000000000ED
:102CC8000000000000000000006002405860024060
:102CD8000300000000000000160E000000000000C5
:102CE8000000000000000000006002407060024028
:102CF8000400000000000000200F00000000000099
:102D080000000000000000000060024088600240EF
:102D18000500000000000000261000000000000070
:102D2800000000000000000000600240A0600240B7
:102D38000600000000000000301100000000000044
:102D4800000000000000000000600240B86002407F
:102D58000700000000000000362F000000000000FF
:102D680000000000000000000064024010640240FF
:102D78000000000000000000003800000000000013
:102D880000000000000000000064024028640240C7
:102D980001000000000000000639000000000000EB
:102DA800000000000000000000640240406402408F
:102DB8000200000000000000103A000000000000BF
:102DC8000000000000000000006402405864024057
:102DD8000300000000000000163B00000000000097
:102DE800000000000000000000640240706402401F
:102DF8000400000000000000203C0000000000006B
:102E080000000000000000000064024088640240E6
:102E1800050000000000000026440000000000003B
:102E2800000000000000000000640240A0640240AE
:102E3800060000000000000030450000000000000F
:102E4800000000000000000000640240B864024076
:102E580007000000000000003646000000000000E7
:102E680000000000000000000000803FB9CC02080C
:102E7800B9D1020835CD020849A8020881D3020851
:102E880059A8020875A8020821A8020811A8020872
:102E980000000000000000002C27002000000000B7
:102EA800000000000000000000000000000000001A
:102EB800000000000000000000000000000000000A
:102EC80000000000000000000000000000000000FA
:102ED80000000000000000000000000000000000EA
:102EE80000000000000000000000000000000000DA
:102EF8000000000000000000000000004300000087
:102F080000000000000000000000000000000000B9
:102F18000000000000000000000000004300000066
:102F28000000000000000000000000000000000099
:102F38000000000000000000000000004300000046
:102F48000000000000000000000000000000000079
:102F58000000000000000000000000004300000026
:102F68000000000000000000000000000000000059
:102F78000000000000000000000000004300000006
:102F88000000000000000000000000000000000039
:102F980000000000000000000000000043000000E6
:102FA8000000000000000000000000000000000019
:102FB80000000000000000000000000043000000C6
:102FC80000000000000000000000000000000000F9
:102FD800000000000000000000000000110A0408C2
:102FE8001909040800000000EAA30408F697040879
:102FF800AC640408AC640408AC640408AC64040859
:10300800AC640408AC640408AC640408AC64040848
:10301800AC640408FFFFFFFFFFFFFFFFFFFFFFFF98
:10302800FFFF000001004153434949000000000030
:103038000000000000000000000000000000000088
:10304800000000000000415343494900000000000F
:103058000000000000000000000000000000000068
:08306800000000000000000060
:1080000038B50B4C23688BB15A68821A002A054692
:1080100004DA0BE05A68AA1A002A07DB9A68226081
:1080200018461A6890472368002BF3D138BD00BF6B
:10803000B4810020436A8269D154436A0169826B2A
:1080400001338B4228BF00234362DAB1EFF311837F
:10805000502282F31288826B1168C9070ED470B463
:108060005468FCB9D0E909518D4211D1012280F840
:108070005C20DBB283F3118870BC7047DBB283F302
:1080800011887047826DD36843F08003D3607047D6
:1080900086690E44D6600ED9691A51608562002146
:1080A00080F85C10116841F00101DBB2116083F3CC
:1080B000118870BC70470569691A51608462EEE7E7
:1080C000034610B4446BD968406954B1DA6C8C1A19
:1080D000013A005D5DF8044B08BF0A46C0B2DA649D
:1080E00070471A6A805C01328A4228BF2246C0B2B9
:1080F0001A625DF8044B7047836B13B190F85C0013
:108100007047D0E90903181AB0FA80F040097047A7
:10811000D0E909120369914238BFC9188A1A816BE4
:10812000013B19B149680A449A4201D2981A704732
:1081300000207047436B43B1C26C5B689A4291BFA9
:10814000981AC0689B1AC0187047D0E907239A4252
:108150002FBFD01AC0688018C01A70470A4B30B5BC
:1081600003F1140493F900205D78072AC8BF143A7C
:10817000811804338D7213F8025C855413F8012CB6
:108180000A759C42EED130BD6820040803682DE9D1
:10819000F041DD691DB12B46BDE8F0411847002ACA
:1081A000174611DD04460E460F4400E023689B6825
:1081B000204698470028F9D0236816F8011B1B6851
:1081C00020469847BE42F1D1BDE8F0810023272226
:1081D000027043708370C370704700BF2DE9F04791
:1081E0008C4A8D4B12781C78D207064648D58B4DA9
:1081F000012C00F091801ED3022C40F09B80884916
:10820000884A09881288884F914201D901241C703C
:10821000EB7AFBB12B89EBB1844B1B78D3B112F015
:10822000A3F8002800F0E2802B7B83422CBF0123BF
:1082300000233B700FE0DFF8E8C17B4F7C4CBCF8BB
:1082400000002288697B521A8242DFDAEB7A00242E
:10825000002BDFD13B782A79632A07D87549022C95
:10826000087800F0B880002840F0A0807249AA7A0F
:108270009C4238BF1C460C70002A44D1BDE8F087F0
:10828000DFF89CC1654DBCF80000BCF8021095F801
:1082900003E06A4F411A0029A4F10302B8BF494222
:1082A000704597F80080D2B211D32F7887420ED351
:1082B000012A45D9B8F1020F9AD15C48604A00788A
:1082C00090800229CCBF00210121D18090E7B0EB42
:1082D0004E0FEDDC012A40F28C800229EADC0324F7
:1082E000514F524852494F4A1C70B8F1020F4FF09B
:1082F00000033C7003700B80138089D1504A012128
:108300009380D18084E7012C6BD0022CB6D107205A
:10831000BDE8F0472AF096B9424A41491288687B85
:108320000988121A914207DD414A12888A423CBFED
:1083300000241C703C4F6BE702241C703A4F67E727
:108340000229B7DC95F800E090FBFEFE0EF1010E6D
:10835000BEF1080FDFF8D4A0AA786978DFF8C490DE
:10836000334C314FA8BF4FF0080E8AF800E01FFAD7
:108370008EFA11FB0AF112FB0AF2DFF8B8A0A9F895
:10838000001092B200214FF06409B8F1020F228070
:1083900039701970CAF804108AF801907FF452AF4E
:1083A000274A0121A2F804E0D18048E74868301A42
:1083B000244EB042C8BF4A703FF758AFC2F16402C2
:1083C000214E00FB02F086FB0062C017A0EBA2501A
:1083D000643048704AE70028E8D101274E600F70EA
:1083E000ECE70820BDE8F0472AF02CB902233B70E7
:1083F00031E7032C7FF471AFB8F1020F9AD10B4A29
:108400000F4B12789A800229CCBF00210121D9801C
:10841000054FFDE6C0940020FC2E00202C93002088
:1084200038950020002F00205C2F00203E95002072
:10843000FE2E0020042F00202A9300201DC80020BB
:1084400020C800207F9698006BCA5F6B30B5044649
:10845000806D61718389A26823F400531B041B0C97
:10846000838185B0A379009213F0040F4FEA0332A1
:108470004FEA03230CBF00254FF4805503F48063BB
:1084800002F40052ADF80450ADF80830002511F0A8
:108490000103ADF80620ADF80C501CD1ADF80A3040
:1084A00008238A07694648BFADF80A3025F0DEF890
:1084B000A37913F0080FA36D9A8A05BF22F0080272
:1084C000120442F00802120C9A829A8942F4005275
:1084D0009A8105B030BD0423ADF80A300C23E0E7E3
:1084E00030B50446806DA160838923F400531B04DA
:1084F0001B0C8381A37985B013F0040F009108BF92
:108500000025617918BF4FF48055ADF804501A0367
:1085100000251B0203F48063ADF80A50ADF80C503F
:10852000CD07ADF8083002F4005244BF0423ADF883
:108530000A30ADF806204CBF0C2308238A07694691
:1085400048BFADF80A3025F091F8A37913F0080F71
:10855000A36D9A8A05BF22F00802120442F00802B5
:10856000120C9A829A8942F400529A8105B030BD69
:1085700010B40B4B0B4A1C7801238340234052F864
:10858000200031B9B3FA83F149095DF8044B1DF0BD
:10859000B1BD191C18BF01215DF8044B1DF0AABD27
:1085A000E8D90020ECD9002002280749074B084AE7
:1085B00028BF0220087000EB8001013003EB01139B
:1085C000C0B213602AF05AB92CDA0020EAAD0020BC
:1085D000D498002008B501210220FFF7C9FF094BFC
:1085E0001B7803F00503052B08D000210120FFF7BD
:1085F000BFFF00210846FFF7BBFFFEE70BF0DAF9EB
:10860000F3E700BF6838002008B519F039FF21F002
:1086100087F9BDE8084019F0D9BE00BF10B5484B36
:108620009A78013A1F2A55D846490A44127D5A833E
:10863000002A14BF302220229989D8891A838842BF
:1086400024BF00229A81598A1A8A914224BF0022AB
:108650001A82D9783C4A92F8542071B107290CD07B
:108660003A4C012000210A2A20709870D9715ED0FE
:108670000C2A5FD1DFED367A0AE00A2AD9792DD0AB
:10868000DFED347A9FED347A0C2A18BFF0EE477A8A
:108690009FED327A002918BFF0EE477A304CA2786D
:1086A000062A97BF2749DFED2D6A01EB8201D1ED44
:1086B0000D6A2179A9B1013A032A0AD8B7EE000A56
:1086C00080EE260A38F014FC2388984228BF18460A
:1086D000208010BD01225A833022ADE7DFED217AE0
:1086E000D6E79B78194907EE103A0A78B8EEC77AB0
:1086F00067EE277A07EE102AB8EEC77A27EE277AB8
:10870000F4EEC76AF1EE10FAE3DD86EEA77AFDEE2D
:10871000C77A17EE903A102BA8BF1023012BB8BFD1
:108720000123DBB29A4238BF1A460A7010BDDFED52
:108730000E7AADE70A2A9DD1DFED0B7AAEE700BFD6
:10874000D8D2002068200408F0CA00203685002016
:108750006F12833A0AD7A3396F1203396F120338A5
:108760006CDC00205304E9380F506E3A2DE9F84FC5
:1087700019F086FEDFF8FC82A14B434525D2DFF8D5
:10878000F892A04F03F114069A464C4625886219C8
:1087900085B1BA420ED2052D0CD936F8143C618849
:1087A000C3F30B03994200F0D38014462588621965
:1087B000002DEED156F8101C50460AF1140A29F08B
:1087C00025FBC24506F11406DFD38F4A1378A3F1C7
:1087D0001701022909D98D4911F8330028B101EB9D
:1087E000C3035B680BB917231370894A5378052BB1
:1087F00000F2D58003EB8300864903EB400301EBD5
:108800008303117884480229036000F2D180834BEE
:1088100001EB810103EB0113998C5A8C804C91423E
:10882000236001D300225A847E4B9A78042A00F0F8
:10883000C38032B91A88B2F5F07F84BF4FF4F0726A
:108840001A80794DFFF7EAFE2B68784A1A40002A11
:1088500000F0D180D80700F1C980590400F1C1802F
:108860001A0700F1B9809B0400F1AF8033F0E2FBFE
:1088700010B96F4829F046F940201DF029FE4FF449
:1088800000701DF025FE6B486B4D1DF021FE4FF46E
:1088900000101DF01DFE4FF000701DF019FE4FF08E
:1088A00080601DF015FE0BF0F7FB302200212846FA
:1088B00038F0ECF820680AF0B9FC2068286331F041
:1088C000D3F95E4B5E4A1E7932F8060C5D4B5E4C66
:1088D0006A636421C82211FB062100222080C3E9BB
:1088E0000112C3E90322C3E90522DA6183F82020DB
:1088F00083F8212008B119F0FDFA544B9FED545A2A
:108900001B88544A9FED546A5079544906EE903AB8
:10891000F8EEE66A1388C5EE265A07EE103A538839
:108920001279C1ED005A07EE903AB8EEC77AF8EE28
:10893000E77A4B4B27EE067A67EE867A18725A7200
:1089400083ED017AC3ED007ABDE8F84F19F03EBD22
:1089500063799B077FF429AF56F8101C94F804B094
:10896000504629F053FA36F8143CBBEB133F07D0BE
:108970000AF1140AC24506F11406FFF406AF24E713
:1089800036F8123C56F8100CAA1FC3F30B039A4298
:1089900004F10601A8BF1A4637F0BEFEE8E71178D9
:1089A0001D480023537002291A4B03607FF62FAF36
:1089B00000231370194B2FE79A8AB2F57A7FBFF420
:1089C00040AF4FF47A729A823BE726481DF080FD53
:1089D00040201DF07DFD49E723481DF079FD2B68FF
:1089E00041E722481DF074FD2B6839E720481DF04F
:1089F0006FFD2B6831E743F008032B602AE700BFC7
:108A00009001000800800008E4890020EC5304086D
:108A10002CDA00202AAF0020D8980020EAAD0020F0
:108A2000D49800206CDC002058B0002009600002BF
:108A3000B4D9002020001000F82800206C36002057
:108A4000F2830020E8940020FC83002028370020D7
:108A5000C0C9FB4810AB002017B7D1382C37002015
:108A6000482E002009400002016000020920000297
:108A700008600002400600080240000808B519F02E
:108A8000FFFC20F04DFF19F0A1FCFFF76FFE012065
:108A9000BDE8084029F0F2BE2DE9F047D84C2DED95
:108AA000028B636820469847002800F03B81D54B35
:108AB0001B78042B00F07481B4F91A3006EE903A5A
:108AC000B4F91C3007EE103AB4F91E3007EE903AB4
:108AD000F8EEE66AB8EEC77AF8EEE77AC4ED0A6A0D
:108AE00084ED0B7AC4ED0C7AC74B1B88002B60D049
:108AF000C64B94ED0A2AD4ED0B2A94ED0C3A93ED73
:108B0000008AD3ED053A93ED090A93ED0E5AD3EDA1
:108B1000120AD3ED177A93ED011A93ED064AD3EDBD
:108B20000A1AD3ED0F5A93ED137AD3ED186AD3EDE9
:108B3000044A93ED0D6AE8EE023AA0EE225AE3EE03
:108B4000207AA1EE024AE1EEA25AE3EE076A93ED23
:108B5000038A93ED167A93ED020AD3ED0C0A93ED96
:108B60000B1AD3ED151AC4ED0A3A64EEE34AA8EEE7
:108B7000634A26EE456AD3ED143A83ED054A27EEA3
:108B8000677AE0EE024AE0EEC55AA2EE816AE7EEAD
:108B9000E16AA3EE237AC3ED064A84ED0B5AC3EDD6
:108BA0000E5A83ED0F6AC3ED176A83ED187AC4ED90
:108BB0000C7A974F974D3A886B6B002A00F0B6807D
:108BC000B2F5C87F18BFD5ED0E7A94ED0A7A0CBFC6
:108BD000DFED917AF8EEE77A4FF0000C002077EEA7
:108BE000877AC4F828C01880B7F80080FDEEE77ACD
:108BF000B8F5C87F17EE902AC5ED0E7A00F0ED802B
:108C0000D5ED0F7A94ED0B6A95ED107AD4ED0C6AE0
:108C1000C4F82CC0F8EEE77AB8EEC77A77EE867A19
:108C200037EE267AFDEEE77AB8F1010F17EE901ACB
:108C3000FDEEC77A588017EE906AC4F830C0E96339
:108C4000C5ED107A98802BD1DFF8DCC1B4F818E0BC
:108C50008CFB06A9F617C6EBE9168CFB02A98CFB68
:108C600001ACC917C1EBEC11D217DFF8C0C15980B4
:108C7000A6EB0E06C2EBE9129E801A80ACF80C003F
:108C8000ACF80E0019F0FCFB20F04AFE19F09EFB38
:108C9000FFF76CFD404629F0F1FD6B6BB7F80080E3
:108CA00008F1FF38A7F80080B3F9002094ED0B6AB3
:108CB00094ED0C7A94ED0A5A584905EE902AB3F9CE
:108CC0000220B3F9043006EE902A07EE903AF8EE4F
:108CD000E55A534B0A68D3ED003A93ED014AD3EDC0
:108CE000024AF8EEE66AF8EEE77A75EE655A76EE35
:108CF000666A77EE677AC4ED0A5A34EE266A73EE36
:108D0000A55A34EEA77A01320120C3ED005AC4ED12
:108D10000B6A83ED016AC4ED0C7A83ED027A0A6076
:108D200084F83400BDEC028BBDE8F0873D4909684A
:108D30004907B9D5B5F84410322900F0AC800029B4
:108D400078D195F86220002AAED005F1540007C80A
:108D5000354E278B86FB02ECD217C2EB2C12D21BAE
:108D600086FB00C786FB01C6C017C917C1EB2611D9
:108D7000C0EB27102D4E9A80188059800023B381B4
:108D8000F38185F8623019F07BFB20F0C9FD19F002
:108D90001DFBFFF7EBFC012029F070FD6B6B83E7F7
:108DA000B4F91A00B4F91C10B4F91E20204B07EED8
:108DB000900AF8EEE76A07EE901AB8EEE77A07EE47
:108DC000902AF8EEE77AC4ED0A6A188059809A80F2
:108DD00084ED0B7AC4ED0C7A86E694ED0B7AD4ED33
:108DE0000C7AC4F82CC0BDEEC77AFDEEE77A588045
:108DF00085ED0F7AC4F830C0C5ED107A98804FE742
:108E0000B8CA00201DC80020FC8300200084002078
:108E100092360020F828002000000000B42F002027
:108E2000B82F002074E900201F85EB51EC8300204F
:108E300020C80020D5ED157A94ED0A5AD4ED0B5ACE
:108E400094ED0C6AF8EEE76AD5ED167AB8EEE77A9B
:108E5000D5ED177AF8EEE77A76EE856A37EE257A61
:108E600077EE867AFDEEE66ABDEEC77AFDEEE77A2A
:108E700000200129C5ED156AA0621A8085ED167AD9
:108E8000E0625A802063C5ED177A9A8025D00139B7
:108E9000A5F8441055E7D4ED0A6A94ED0B7AD4EDA9
:108EA0000C7A18682E4EA864FDEEE66A9888F6687B
:108EB000A5F84C00BDEEC77AFDEEE77A0020C5EDBF
:108EC000156AA0622E651A80E06285ED167A5A80D6
:108ED0002063C5ED177A9A80D9E7224885F860208B
:108EE000026885F86110520330D41F4E00203246CC
:108EF00017780B2F02F10C020BD001301828F7D194
:108F0000A86C174A1860B5F84C60286D9E80D06038
:108F1000BDE7164FD7F800E04200BEF1000F09D0C0
:108F200002EB000C06EB8C0C9EF801E09CF801C0F3
:108F3000F445E5D20244DFF840C00D4806EB820656
:108F400000223E60ACF800200260D9E7094A12789E
:108F5000032ACAD129F05AFB6B6BB5F84410CFE74E
:108F6000EC830020188B0020643C04089C36002011
:108F7000A43600202A930020A036002038B50D4CDE
:108F80000D4DAC4206D261682046143428F03EFFF5
:108F9000AC42F8D31EF0B4FA084A094B094C1460ED
:108FA000002209491A705A7008480860BDE8384024
:108FB00026F0AABE9001000840060008D4980020C0
:108FC0002CDA0020EAAD0020D89800202AAF00203B
:108FD00008B5FFF7D3FF19F053FA20F0A1FCBDE864
:108FE000084019F0F3B900BFF0B50C2934D8DFE818
:108FF00001F08A3333335F33333334333333070091
:10900000048C9689B2F802C01788744D24F48054F9
:109010002404240C0484038C8488818B23F400535F
:1090200021F4E6411B0409041B0C46EA0C06090C5A
:1090300043EA063341EA0721A8429BB2A4B289B2AF
:1090400000F09E8005F58065A84200F09980926846
:109050008480818302640384F0BD048C9589B2F816
:1090600002E017885D4E24F480742404240C0484E8
:10907000038CB0F804C0818B23F400731B0421F02F
:10908000730145EA0E041B0C090443EA0423090C8E
:10909000B0429BB21FFA8CF541EA07015BD0504CFD
:1090A000A04258D0926885808183C2630384F0BD5A
:1090B000048C9589B2F802E0B2F800C0474E24F063
:1090C00010042404240C0484038C8788018B23F06F
:1090D000200321F4E6411B0409041B0C45EA0E049D
:1090E000090C43EA041341EA0C21B0429BB2BFB21F
:1090F00089B25BD03A4CA04258D0926887800183F5
:1091000082630384F0BD048C9589B2F802C017888D
:10911000324E24F001042404240C0484018C84883D
:10912000038B21F0020123F0730309041B04090CD3
:1091300045EA0C051B0CB04241EA0501A4B243EA22
:10914000070324D0264DA84221D09268848003834F
:1091500042630184F0BDD489168A578A23F40063E0
:1091600043EA04234FF6FF341C40938825F440550E
:109170003E4344EA032345EA06149BB2A5B291E7B5
:10918000158A24F4804444EA8514A4B25FE7D689A2
:10919000158A578A21F008013143968824F44074D7
:1091A00021F004013D4331432C43CEE7D489168A94
:1091B000B2F812C023F0800343EA04134FF6BF74E1
:1091C0001C40938827F4406546EA0C0644EA0313E2
:1091D00045EA86049BB2A7B28FE700BF00000140BA
:1091E000000401402DE9F84FA022904C9048914D89
:1091F000DFF860A2904FDFF86082DFF86092002114
:1092000037F044FC8D48DFF858C2DFF858E204F12B
:10921000FC06A346DBF80030AB4200F0E280B3F17D
:10922000804F00F0E080BB4200F0DF80634500F03B
:10923000EA80734500F0E980434500F0E8804B4543
:1092400000F0E7807E4A934200F0E58002F570521C
:10925000934200F0E28002F58062934200F0DF80EA
:1092600002F58062934200F0DC80A2F598329342CE
:1092700000F0D98002F58062934200F0958002F5FB
:109280008062934208BF0D2300F08F800BF1240B06
:109290005E45BFD16B4E6C4D4FF003094FF0020895
:1092A000A379002B7AD023791F09013F032F03F004
:1092B0000F0373D836F8170040FA03F2D2076DD5C2
:1092C0004FF0010A0AFA03F3013B184036F01CFF85
:1092D0005E4BDB5D184415EBC0075FD055F83030AE
:1092E0005B48217A03F13F4202F57E02920A825CDA
:1092F00002F01F005209032A0AFA00FA7DD0042A5C
:1093000075D0022A04D14D48426C4AEA02024264F6
:10931000B7F804C0BCFA8CF2C2F11F0292B2D008B6
:1093200003EB800002F00702076A92004FF00F0E75
:109330000EFA02FE27EA0E070762076A01FA02F236
:109340003A4302624FF0010E00220EFA02F737EAAA
:109350000C0120D15000D3F800A009FA00F1C94354
:109360000AEA010AC3F800A0D3F800A008FA00F046
:1093700040EA0A0018609868084098609868986009
:10938000586820EA07075F6058685860D86801404D
:10939000D960D968D9600132102AD6D12434A345C6
:1093A0007FF47EAFBDE8F88F0C230AEBC3030121E5
:1093B0001B7903F01F025B09032B01FA02F208D0AC
:1093C000042B0AD0022B7FF461AF416C0A43426444
:1093D0005CE7016C0A43026458E7016B0A430263CD
:1093E00054E70023E1E70123DFE70223DDE7134829
:1093F000026B4AEA020202638AE71048026C4AEAF8
:109400000202026484E70323CFE70423CDE70523A8
:10941000CBE70623C9E70723C7E70823C5E70923E6
:10942000C3E70A23C1E70B23BFE700BF10520408BC
:109430005C2E002000000140000400400038024083
:1094400000040140445304087CC800204053040831
:10945000385304087C5304080010004000140040F6
:1094600000080040000C00402DE9F8432F4D2B8AE6
:10947000B5F80C8018EA030827D02D4E4FF00047AE
:10948000B8FA88F327FA03F2D24391B21B3B08EAF9
:1094900002082982042B15D8DFE803F0352B2219A6
:1094A0000300D6F89C30002B37D1EB6A1FFA83F902
:1094B000D6F8984034B123682046494698476468F6
:1094C000002CF8D1B8F1000FDAD1BDE8F883B06F05
:1094D000696B036889B29847B8F1000FD0D1F4E7FF
:1094E000F06FA96B036889B29847B8F1000FC7D134
:1094F000EBE7D6F88000E96B036889B29847B8F1CA
:10950000000FBDD1E1E7D6F88400296C036889B269
:109510009847B8F1000FB3D1D7E703F1FF39002323
:109520001FFA89F9C6F89C30C2E700BF0018004056
:109530005C2E00202DE9F8432C4D2B8AB5F80C80C9
:1095400018EA030825D02A4E4FF00047B8FA88F3EE
:1095500027FA03F2D24391B21B3B08EA02082982A0
:10956000042B13D8DFE803F0322920170300736FB0
:10957000002B34D1EB6A1FFA83F9346F34B12368BE
:109580002046494698476468002CF8D1B8F1000F8E
:10959000DCD1BDE8F883306D696B036889B2984708
:1095A000B8F1000FD2D1F4E7706DA96B036889B2EE
:1095B0009847B8F1000FC9D1EBE7B06DE96B0368CC
:1095C00089B29847B8F1000FC0D1E2E7F06D296C7D
:1095D000036889B29847B8F1000FB7D1D9E703F112
:1095E000FF3900231FFA89F97367C6E700040140B9
:1095F0005C2E00202DE9F8432C4D2B8AB5F80C8009
:1096000018EA030825D02A4E4FF00047B8FA88F32D
:1096100027FA03F2D24391B21B3B08EA02082982DF
:10962000042B13D8DFE803F0322920170300736FEF
:10963000002B34D1EB6A1FFA83F9346F34B12368FD
:109640002046494698476468002CF8D1B8F1000FCD
:10965000DCD1BDE8F883306D696B036889B2984747
:10966000B8F1000FD2D1F4E7706DA96B036889B22D
:109670009847B8F1000FC9D1EBE7B06DE96B03680B
:1096800089B29847B8F1000FC0D1E2E7F06D296CBC
:10969000036889B29847B8F1000FB7D1D9E703F151
:1096A000FF3900231FFA89F97367C6E700040140F8
:1096B0005C2E00202DE9F8432C4D2B8AB5F80C8048
:1096C00018EA030825D02A4E4FF00047B8FA88F36D
:1096D00027FA03F2D24391B21B3B08EA020829821F
:1096E000042B13D8DFE803F0322920170300F36CB2
:1096F000002B34D1EB6A1FFA83F9B46C34B12368C0
:109700002046494698476468002CF8D1B8F1000F0C
:10971000DCD1BDE8F883B06A696B036889B2984709
:10972000B8F1000FD2D1F4E7F06AA96B036889B2EF
:109730009847B8F1000FC9D1EBE7306BE96B0368CC
:1097400089B29847B8F1000FC0D1E2E7706B296C7D
:10975000036889B29847B8F1000FB7D1D9E703F190
:10976000FF3900231FFA89F9F364C6E700080040B7
:109770005C2E00202DE9F8432C4D2B8AB5F80C8087
:1097800018EA030825D02A4E4FF00047B8FA88F3AC
:1097900027FA03F2D24391B21B3B08EA020829825E
:1097A000042B13D8DFE803F0322920170300736A73
:1097B000002B34D1EB6A1FFA83F9346A34B1236881
:1097C0002046494698476468002CF8D1B8F1000F4C
:1097D000DCD1BDE8F8833068696B036889B29847CB
:1097E000B8F1000FD2D1F4E77068A96B036889B2B1
:1097F0009847B8F1000FC9D1EBE7B068E96B03688F
:1098000089B29847B8F1000FC0D1E2E7F068296C3F
:10981000036889B29847B8F1000FB7D1D9E703F1CF
:10982000FF3900231FFA89F97362C6E7000001407F
:109830005C2E00202DE9F8432C4D2B8AB5F80C80C6
:1098400018EA030825D02A4E4FF00047B8FA88F3EB
:1098500027FA03F2D24391B21B3B08EA020829829D
:10986000042B13D8DFE803F0322920170300736AB2
:10987000002B34D1EB6A1FFA83F9346A34B12368C0
:109880002046494698476468002CF8D1B8F1000F8B
:10989000DCD1BDE8F8833068696B036889B298470A
:1098A000B8F1000FD2D1F4E77068A96B036889B2F0
:1098B0009847B8F1000FC9D1EBE7B068E96B0368CE
:1098C00089B29847B8F1000FC0D1E2E7F068296C7F
:1098D000036889B29847B8F1000FB7D1D9E703F10F
:1098E000FF3900231FFA89F97362C6E700000140BF
:1098F0005C2E0020F0B506683F4CB30AA3426CD042
:1099000065D93E4CA3425AD00134A34256D17027A8
:1099100002254379B6F80CE0022023FA00F4A040B7
:109920001FFA80FCA8002346441903EB4403344C7F
:10993000002955D04CEA0E0C03F1040E44F8231014
:1099400044F82E20A6F80CC0E319EFF31181502241
:1099500082F31288421904EBC202D2F810C0BCF1A3
:10996000000F03D044F807C013690433421904EB15
:10997000C202576917B11F6053690433421904EBDF
:10998000C202976917B11F6093690433421904EB4F
:10999000C202D76917B11F60D36904330027CAB266
:1099A0001F6082F31188284404EBC004236A4BB97A
:1099B000B38923F001031B041B0CB381F0BD2027E6
:1099C0000025A6E7B38943F00103B381F0BD043C51
:1099D000A342F3D1482701259BE79827032598E761
:1099E0002EEA0C0C03F1040EA6F80CC044F8231068
:1099F00044F82E20A8E700BF060010004000100029
:109A00005C2E002010B503687C487D4C01398342F0
:109A100082B0246889B200F0AF80A0F580608342F4
:109A200000F0AA8000F58040834200F0818000F5BC
:109A3000806083427CD000F58060834278D01888B3
:109A40006408B4FBF2F4013CA4B282B2B3F1804FDB
:109A50000AD06C48834207D000F58060834203D06F
:109A600000F58060834202D122F0700292B2664813
:109A7000834200F08F8000F58060834200F0938085
:109A800022F4407200F56C4092B283421A80D9628F
:109A90001C8540F09180012100221A869982198844
:109AA0005A4841F001018342198049D0B3F1804FF7
:109AB00000F08D80534A934200F08B8002F5806263
:109AC000934200F0888002F58062934200F0858026
:109AD00002F58062934200F0828002F58062934238
:109AE0007FD002F5704293427DD002F570529342CE
:109AF0007BD002F58062934279D002F58062934276
:109B000077D0A2F59832934275D002F580629342E5
:109B100015D002F58062934208BF0D2210D002A832
:109B20004FF0012340F8043D23F02CFF02B010BD9C
:109B30001888B4FBF2F4013CA4B282B286E70C228E
:109B4000334B03EBC20201A854798DF80440012382
:109B500000228DF805308DF807308DF8062023F0AF
:109B600011FF1B2C0FD02E2CE0D12A4B019301A802
:109B700023F008FF02B010BD1888B4FBF2F4013CDA
:109B8000A4B282B270E7244B019301A823F0FAFE3D
:109B900002B010BD01201A80D9621C8598821A88F3
:109BA00002431A8086E701201A80D9621C859882B8
:109BB0001A8802431A8079E7104A93423FF46BAF48
:109BC00001229A821A8842F001021A806EE701226D
:109BD000B6E70222B4E70322B2E70422B0E7052287
:109BE000AEE70622ACE70722AAE70822A8E7092287
:109BF000A6E70A22A4E70B22A2E700BF0004014067
:109C000014E9002000040040001000400000014062
:109C10007C5304082C010001190100012B4B9842D0
:109C20003CD0B0F1804F3BD0A3F57C43984239D073
:109C300003F58063984237D003F58063984235D0AE
:109C400003F58063984233D003F58063984233D0A4
:109C500003F57043984231D003F57053984229D0F0
:109C600003F5806398422BD003F58063984229D096
:109C7000A3F59833984227D003F58063984207D024
:109C800003F58063984208BF0D2202D00020704780
:109C90000C220F4B03EBC203187970470022F8E740
:109CA0000122F6E70222F4E70322F2E70422F0E7BA
:109CB0000522EEE70822ECE70622EAE70722E8E7BA
:109CC0000922E6E70A22E4E70B22E2E7000001406E
:109CD0007C5304082DE9F04F83B08E4DDFF84082AD
:109CE00001908B460BF1FF339B46013300F00E8150
:109CF00032F0A4FE884C894FDFF828C24FF4FA7A7C
:109D00004FF0100E4FF47A76DCF80430C3F30803FA
:109D1000002B40F0DF80EFF31183002B40F0DA805E
:109D20002168AA6800BF23689942F9D1386806FB08
:109D300000F39A1AB2FBF0F206FB0121DCF80430C2
:109D4000C3F30803002B40F0A680EFF31183002B30
:109D500040F0A1802368A86800BF22689342F9D12F
:109D6000D7F8009006FB09F2101AB0FBF9F006FBD9
:109D700003035B1AB3F57A7FE0D3BAF1010AC3D1CA
:109D8000019B581CC0B232F0BBFCDFF898C1DCF874
:109D900004304FF47A7AC3F3080356464FF0100E9E
:109DA000002B38D1EFF31183002B34D12168AA683E
:109DB00000BF23689942F9D1386806FB00F39A1A6C
:109DC000B2FBF0F206FB0121DCF80430C3F3080318
:109DD000002B41D1EFF31183002B3DD12368A868FC
:109DE00000BF22689342F9D1D7F8009006FB09F230
:109DF000101AB0FBF9F006FB03035B1AB3F57A7F88
:109E0000E2D3BAF1010A3FF46DAFDCF80430C3F3DA
:109E10000803002BC6D0EFF311828EF31288A868D6
:109E20002B68D90303D50123C8F80030A86823683C
:109E3000D8F80010D2B282F311883A68194406FBB0
:109E400002F31B1AB3FBF2F306FB0131DCF804301A
:109E5000C3F30803002BBDD0EFF311808EF31288FB
:109E6000D5F808902B68DB0304D50123C8F800302F
:109E7000D5F808902368D8F80020C0B280F3118884
:109E80003868134406FB00F2A2EB0902B2FBF0F2C1
:109E900006FB0323B1E7EFF311808EF31288D5F8A8
:109EA00008902B68DB0304D50123C8F80030D5F8EF
:109EB00008902368D8F80020C0B280F31188386871
:109EC000134406FB00F2A2EB0902B2FBF0F206FB20
:109ED00003234EE7EFF311828EF31288A8682B68F4
:109EE000D90303D50123C8F80030A8682368D8F83F
:109EF0000010D2B282F311883A68194406FB02F3CB
:109F00001B1AB3FBF2F306FB013117E703B0BDE800
:109F1000F08F00BF10E000E010C8002008CA002049
:109F200004CA002000ED00E0204B5B68C3F3080387
:109F300030B4BBB9EFF31183A3B91D4A1D481368B0
:109F4000846800BF11688B42F9D11B4A11684FF435
:109F50007A7202FB01F0001B30BCB0FBF1F002FB97
:109F600003007047EFF31182102383F31288114925
:109F7000124D8C680B68DB0344BF01232B600C4B34
:109F800048BF8C681B682868D2B282F311880A4ADD
:109F900011684FF47A72184402FB01F31B1B30BCAA
:109FA000B3FBF1F302FB0030704700BF00ED00E0AF
:109FB00010C8002010E000E008CA002004CA0020F9
:109FC0002DE9F04F2DED028B4A4C9DB02378069081
:109FD00043B1DFF860A1DAF80C305046984780F0C2
:109FE00001002070444B1A780592002A00F0E182AB
:109FF000069A424942480C7802F59C4620360022D7
:10A0000006601A70002C00F0EA823E4B069A1B682C
:10A01000DFF824B19A423C4B3C4A089207931A68F5
:10A0200040F2CC82013C3A4B0C7002F480520A930D
:10A03000002A40F0CA82374B1B78022B01F0D283F2
:10A04000042B01F09183012B01F0EF83324B069931
:10A050000A9A9942927801F24381002A41F04481A0
:10A060002E4B0993079BBBF906401D68EB0401F1D9
:10A07000F481089B5A8B6423A242A4EB0204CCBF58
:10A0800000260126C2F5FA6203FB04F393FBF2F308
:10A09000642BA8BF642323EAE373DBB2099A117827
:10A0A0001F4A126812F0805201F0010100F0F8829C
:10A0B000002900F0F882089890F82200984241F2B6
:10A0C000F784002E40F0F682164C94F8F000002839
:10A0D00040F0F082144C1548246894F82D40002775
:10A0E000076047608760002C40F0E48210480470ED
:10A0F000E3E200BF9C8200207E820020EC890020E9
:10A10000A0820020E889002074E9002088D900207E
:10A11000E89400203E800020404B4C00C09400207A
:10A1200034880020F8280020D4980020B483002030
:10A13000FC360020DCB3002038F500209DF86100DB
:10A140009DF869109DF860509DF868309DF86A2070
:10A150000C9F41409DF862008DF861106B404240B9
:10A160008DF860309DF86B009DF863308DF86220AB
:10A1700043408DF86330664B664A1B7899E80300CC
:10A1800082E80300002B40F05A84634B1E78002EB7
:10A1900001F0E781614B0C935E4801211DF0A2F9AB
:10A1A000069B1D88002840F063840A9BDB78002B07
:10A1B00040F05E845A4C069E25F001039BB2AB42F0
:10A1C000338009D0574B41F20241FF2219800E2003
:10A1D0009A7028F037FA35884E4802211DF082F92E
:10A1E0002BB2002800F04D8423F001039BB2069EA1
:10A1F000AB42338009D04B4B41F20241FF22198020
:10A200000E209A7028F01EFA3588AE0742F11980A8
:10A21000DFF824A1444B9AF800105868AD0701F00C
:10A22000020100F0EB85003118BF01211BF062FF35
:10A23000242138481DF056F930B9099A1378590786
:10A2400044BF23F0040313702368069A13F00A0F27
:10A2500015881DD003212F481DF044F9002801F076
:10A260003D836A0741F1AF832A4807211DF03AF97F
:10A27000002801F020836B0641F19D830C212548C5
:10A280001DF030F9002841F03D83069A23681588B7
:10A290009E0601F13581254C1E4808211DF022F94A
:10A2A000002800F0B28545F48073069AAB42138013
:10A2B00008D01C4B41F20241FF2219800E209A70F7
:10A2C00028F0C0F91A4B1B78082B00F0DF850E2B05
:10A2D00000F0DC85079B1B68580561D5154B1B7981
:10A2E000002B00F0B08316210A481DF0FBF800286F
:10A2F00040F0AE8325F0ACF9012028F0A7F8002843
:10A300004ED0DFF83880059400254FF0D0091AE0D0
:10A3100082DC002034880020E0960020D8980020BD
:10A32000DC940020908C0020ECD90020C494002004
:10A33000E48900209C920020E8D9002024F200202B
:10A34000DDB2032D2BD009FB05F76B1C58F8076015
:10A35000002EF5D1032290F9023002960192C278C4
:10A36000BF4951F822200092184632463346012157
:10A3700027F0F0FE044605EB450005EB800008EBF6
:10A38000001044B131460430CC2236F07FFB013559
:10A3900048F80740EDB232F02FFE0028D1D1059CDD
:10A3A000099B1D7815F0010500F0D683AD4B012205
:10A3B0001A700C9BAC481B68BBF9061093F82B2055
:10A3C00001260670002A40F09483DA898A4240F31D
:10A3D0006E87A64B4FF07E521A600B9F089B97F931
:10A3E00004201E8BBBF90030387897F801C0002A92
:10A3F000A3EB060714BF01224FF0FF32002FB8BFB6
:10A400007F42B7F5FA7FA8BF4FF4FA778742C6BFFD
:10A410003F1A07EE907ADFED967ABBF90270C8BF5B
:10A42000F8EEE77A9E42C4ED007AA7EB0603C4BFBC
:10A43000F1EE677AC4ED007A002BB8BF5B42B3F54A
:10A44000FA7FA8BF4FF4FA739842BABF1B1A07EEFF
:10A45000903ADFED877ABBF90400B8BFF8EEE77AEF
:10A46000BE42A0EB0603C4ED017AC4BFF1EE677AE9
:10A47000C4ED017A002BB8BF5B42B3F5FA7FA8BFE9
:10A480004FF4FA739C4580F23183A3EB0C0302FB7B
:10A4900003F307EE903AF8EEE77A079BC4ED027AF1
:10A4A00086421A687348C4BFF1EE677AC4ED027A37
:10A4B00012F48052077800F0F882B1F5FA6FA8BF65
:10A4C0004FF4FA61B1F57A7FB8BF4FF47A71A1F514
:10A4D0007A71002F41F03682674F684887FB013C54
:10A4E000CB17C3EB6C1303F1010C6FF0630E30F963
:10A4F0001CC030F913000EFB0313ACEB000103FB8F
:10A5000001F387FB0317DB17C3EB671303441BB28D
:10A5100007EE903AB8EEE78A84ED038A002A40F00D
:10A520008484069B1B885A063ED59B073CD0544B1F
:10A5300094ED004A93ED022A93ED037AD3ED012ABC
:10A54000D4ED017A93ED005AB1EE473AF1EE423A7A
:10A5500023EEC46A64EE034AF1EE621AA7EEA16A22
:10A56000E7EE854A63EE675A67EEA37AE4EE055A92
:10A5700062EE866A27EE247AE4EE217AE5EE246A1A
:10A58000A5EE257AF1EE677AE2EE276AA2EEA77AC7
:10A59000F0EE477AB0EE667AA3EE257AE3EE867A9D
:10A5A00084ED017AC4ED007A002D40F0B1820AF00A
:10A5B000BDF81DB0BDEC028BBDE8F08F314B0A93A6
:10A5C00002F48052002A3FF436AD00212E481CF0E0
:10A5D00089FF00287FF42FAD0AF032FA2BE52B4BD0
:10A5E0001D78002D01F01D86DFF8A8A0284DDFF8AA
:10A5F000A8B00895DFF8A490D04627E0295D9847D9
:10A60000032C03462ADCC8B109EB840339F8241073
:10A610005A88401A4FF47A7303FB00F0521A40F63E
:10A62000CA0390FBF2F000F57A709842A8BF184672
:10A6300040F2EE239842B8BF184600B2134B2BF8F5
:10A64000020B1B7801349C4280F25C84072C40464C
:10A65000DAF80430D2DDE1B29847034618B2EDE7EC
:10A660009C44040860960020313700208C2D002087
:10A6700000000000042F00201F85EB5174360020DD
:10A6800050000020E894002034880020108B002027
:10A6900088D90020DCB300205C290020248B002016
:10A6A0006F023FF505ADA04C002084F8F000002EAD
:10A6B0003FF410AD9D48012404709D4800780029A6
:10A6C00000F0AD839B4F7C78002C71D0DFF898C2EE
:10A6D0009CF80040002C6BD1974C2478002C67D15B
:10A6E000964C2478002C63D1954C2478E4065FD4F2
:10A6F000DFF87892D9F800100C91E90601F13D8756
:10A700003A790D929A4242F22B808E4A0B920D9A20
:10A7100052004B2AA8BF4B22D2B29A4201F238878C
:10A72000894ADFED8A7A92ED017AB0EEC77AB4EE0B
:10A73000E77AF1EE10FA41F12B8792ED007AB0EE54
:10A74000C77AB4EEE77AF1EE10FA41F1218792ED83
:10A75000027AB0EEC77AB4EEE77AF1EE10FA41F180
:10A7600017870C9A12B9069AC9F800204A2B784B21
:10A770007988D9F800401B68069D88BF49081B1BD3
:10A780004FF47A722B4402FB01F2934202D9012268
:10A790008CF80020002C01F006871C2811D16D4A8E
:10A7A0004FF47A71B3FBF1F30121D380918008E07B
:10A7B0001C2841F02581634A664B0B9200225A60A7
:10A7C00041B1079B1D68EA0604D55D4B1B78DB068B
:10A7D00041F12F82604B1B78002B40F0A681089B33
:10A7E000BBF90000598B9B8B4F4C8142B4BF802238
:10A7F00000228342BBF90200C8BF42F04002920827
:10A800008142BCBF62F07F02D2B28342BBF9040036
:10A81000C8BF42F0400292088142BCBF62F07F0292
:10A82000D2B28342BBF90600C8BF42F04002920890
:10A830008142BCBF62F07F02D2B294F8F210834230
:10A84000C8BF42F04002914201F06184434B84F85A
:10A85000F22099780023A4F8F43084F8F630002927
:10A8600000F086805F2A00F060816F2A00F05D8131
:10A87000099B079A1B781268DD0740F18980384BE5
:10A880000693560700F14087364F0C970DF160098B
:10A890000023C9F80430CDE91A33189307F164088E
:10A8A0003C460BE029461AA81CF01CFE074670B96E
:10A8B000564511D3053444453FF440AC25782A2D44
:10A8C000F8D82379A67894F803A0012BEAD156454D
:10A8D000059F80F0A38001206178043140F6330C9D
:10A8E0003BF911106145A8BF6146B1F5617F4FF09A
:10A8F000190E40F2833CB8BF4FF461711EFB06C6CF
:10A90000B14240F391801EFB0AC29142CCBF0026A7
:10A910000126002840F08380B742CBD02946484624
:10A920001CF0D0FDC6E700BFF8280020FC36002050
:10A930001DC80020368500209DA80020FE3600207E
:10A94000E0940020CC890020902D00200000C84217
:10A95000B037002020C8002095B10020D489002005
:10A960004C950020388A0020FD360020AC370020AE
:10A9700000216F481CF0B6FD002841F03A81099B88
:10A980006C4A1B781060D90701F1AC84079B1A68E8
:10A9900094F8F630002B7FF472AFB4F9F430322B18
:10A9A0007FF76DAF644B196811F020017FF467AF3A
:10A9B00094F8F2300120572B84F8F60001F07986E4
:10A9C000520702D55A2B01F0A4875D2B01F08A872C
:10A9D0005E2B01F080875B2B01F06E87562B01F018
:10A9E000AB8794F8F220972A02F09980A72A02F008
:10A9F0008D80524B06931B889F0742F06E80A2F118
:10AA0000B703072B01F2F087DFE813F0E70FEE0F33
:10AA1000EE0FEE0FE00FEE0FD90FD20F00262946F2
:10AA20001AA81CF04FFD77E7002672E7BA78FB788A
:10AA30009A42C1F0B1800537A7423FF4A6AB3978FE
:10AA40002329F8D1F2E7099B1B78D9077FF552AC8F
:10AA50004FF40F7033F04CFF00283FF4A1AC27F007
