:020000040800F2
:10000000F0FF001019CD030801B903088DA70208FD
:1000100049CE030849CE030849CE0308000000007A
:100020000000000000000000000000008DBF030879
:1000300089BF03080000000085BF030871A0020803
:1000400049CE030849CE030849CE030849CE030828
:1000500049CE030849CE030865A8020891A9020801
:1000600055A9020819A90208DDA8020831210308D0
:10007000212103081121030801210308ED200308B1
:10008000D9200308C520030849CE030849CE030838
:1000900049CE030849CE030849CE0308A1A80208A7
:1000A00049CE0308AD96020849CE03086D970208B1
:1000B00049CE030849CE0308ED950208CD26030872
:1000C000D5260308C1260308C926030849CE03081C
:1000D00049CE030815A3020879A20208DDA102088F
:1000E00029A8020849CE030891BF0308A19302087A
:1000F0006D94020849CE03082D950208B12003082B
:1001000049CE030849CE030849CE030849CE030867
:1001100041A10208A5A002081DBD000801BD0008FC
:100120009D2003088920030875190308752003081A
:100130006120030849CE030849CE030849CE0308CD
:1001400049CE030849CE030849CE030805B9030880
:100150004D200308392003082520030849CE030851
:10016000B5260308BD26030849CE030849CE030877
:1001700049CE030849CE030849CE030849CE0308F7
:1001800049CE030849CE0308C0C80300010000009F
:100190000702020000330020483300200000000066
:1001A0004006000802000C00AC3200204C33002056
:1001B000000000000000000006020C00A032002039
:1001C0005833002000000000018D000808020900DB
:1001D0002A32002064330020000000001D8B00083C
:1001E000F7010600243200207033002000000000D8
:1001F000420600080A020A0000300020783300207E
:10020000000000004806000819000500F431002035
:10021000843300200000000052060008270004007C
:10022000883100208C3300200000000058060008B0
:1002300010100300943000209033002000000000D4
:100240005C06000801200800B82F0020943300202D
:1002500000000000600600081A000A001C290020A7
:100260009C330020000000006806000822000C00FB
:10027000D05F0020A060002000000000720600088F
:100280001B00F400244B0020AC60002000000000A4
:10029000DD3401080E0202006C520020A061002033
:1002A000000000007E0600082F001100686000209A
:1002B000A461002000000000800600080510060070
:1002C00094600020B8610020000000009206000841
:1002D000F5216E009C4A0020C06100200000000053
:1002E000B12C010826000E00406200203062002080
:1002F00000000000892C01080B2010000C4B00208E
:100300005062002000000000980600081F101C002A
:100310007C4A00206062002000000000A80600085F
:1003200005020100C44E00207C6200200000000095
:10033000C406000803010A00084D00208062002066
:1003400000000000C6060008F821060046680020EC
:10035000186E002000000000D006000803123300D1
:100360007C690020BE6D002000000000D606000859
:1003700025005A00AF690020546D002000000000E5
:1003800000000000F6110C00C86C0020E46C002096
:10039000000000000C0700082C001000D46C0020A6
:1003A000AE6D002000000000CDB501082B00240038
:1003B0006D6A0020F16D0020000000009DB501086D
:1003C00029006400096A0020F06C00200000000091
:1003D000000000002300100094660020646E0020DE
:1003E000000000000996010828001000846E00201B
:1003F000746E002000000000F19501081400020056
:10040000F86B0020946E0020000000001807000820
:100410001600080070710020947100200000000098
:100420001A07000804004000D077002090770020D1
:1004300000000000000000000E20F000BA7A00204A
:10044000A080002000000000458000081300040088
:10045000687C002090810020000000002407000834
:10046000010104003A7A002094810020000000007D
:100470000000000000010400327A00209881002072
:100480000000000028070008020103002D7A002068
:100490009C81002000000000598A00080902010028
:1004A000D87F0020A0810020000000002C07000859
:1004B0000C106000E47B0020A481002000000000FC
:1004C0002D8A000801020500427A002004820020E3
:1004D00000000000B9280308000205001078002081
:1004E0000C82002000000000000000001E0004003C
:1004F000AC7D002014820020000000002E070008C0
:1005000013020100348B00205CBE002000000000BC
:1005100000000000F9010400BCB2002060BE002011
:1005200000000000E17D0208FD011E0098B20020DD
:1005300064BE002000000000717D02080610120059
:1005400034A7002084BE00200000000011820008B3
:10055000FB010100D0A6002098BE00200000000092
:10056000A18A0008FC0109009CA500209CBE002077
:1005700000000000E18A00081102080070A50020B8
:10058000A8BE00200000000032070008121204007C
:1005900068A50020B0BE0020000000003A07000857
:1005A00012200D0054A50020B4BE00200000000061
:1005B0003E07000818202C00B0A40020C4BE002074
:1005C00000000000D1C101080D003400DCA40020AF
:1005D000F0BE002000000000158D0008FA010200A6
:1005E000849E002024BF0020000000009D8102089E
:1005F000020203005C8B002028BF002000000000E6
:10060000000000000C0201004C8B00202CBF0020D9
:10061000000000004C070008FE010900589E002061
:1006200030BF002000000000478B00080A10300097
:10063000B89500203CBF0020000000004E070008D5
:10064000023C3F010000000000004A01B400D60156
:100650002600000028010000200300000005000023
:10066000E8036400040A00017E05EA05B4053200CF
:100670000000C800141E010064002C0128000000C6
:10068000000000000000000000000000000000006A
:1006900000002000010100002B21231E6401010045
:1006A000000001000A012900000000000000010014
:1006B0000000050000000000000000000000000035
:1006C000000000000000040101006C1600000000A2
:1006D0000200000000000000000000000000000018
:1006E000000000000000000000000000000000000A
:1006F00000000000000000000000000000000000FA
:1007000000000000000000000100000000000000E8
:1007100000000000000000000300C40900001901EF
:100720002828000008044500900100002700000070
:1007300001000000000001010101FFFFFFFF0000B8
:100740000001000005484553500000000100003042
:10075000010701000001000000000000000000008F
:1007600000000100000020000000DC050A00DC059C
:100770000A00DC050A0096009600960000000000C2
:10078000803F0000000000000000000000000000AA
:10079000803F00000000000000000000000000009A
:1007A0000000000000000000000000000000000049
:1007B0000000000000000000803F0000000000007A
:1007C0000000000000000000000038330020080096
:1007D0000000000000002833002008000000000096
:1007E000803F000000000000000000000000994F62
:1007F00001081D4F01080D48010800000000F533F5
:1008000001088D500108FD330108F933010800008B
:1008100000000000000051240108717C0308317CB5
:10082000030821B8030800000000A9780308857BAD
:100830000308057C0308ED7A0308000000000000AF
:1008400000009D7803080000803F0000803F78E0B2
:10085000030805080400000000004C0C04080CE22A
:100860000308380C04080000000000000000A4E0A9
:10087000030805080A00000000004C0C04080CE204
:100880000308540B040800000000000000000902E7
:100890006400030100C032090400000103000000ED
:1008A0000921110100012226000705830308000A1F
:1008B000080B010202020100090401000102020109
:1008C0000005240010010524010002042402020591
:1008D00024060102070582030800FF090402000242
:1008E0000A000000070501024000000705810240E0
:1008F000000000FFFF0000000000AA5505010000F5
:100900000100000001FFFF01000005010905A10130
:10091000A1000501093009310932093309350934CB
:10092000094009381581257F750895088102C0C0E6
:10093000000009022200010100E032090400000168
:10094000030102000921110100012226000705838D
:100950000308000A00000000000001020304010275
:100960000304060708092D202D2D202D2D2D2D20C7
:100970002D2D2D2D000000000000000000000000C3
:100980000000000000AA550B010000AA5507010055
:1009900000AA550902000000000001000000C0127A
:1009A000AA5503009F00FF1FFF1F4C1804080000FA
:1009B0000000000000006D8A0008A086010004000D
:1009C0000000000000000000000000000000000027
:1009D0000000000000000000000000000000984D32
:1009E0000408541804080000000015D900087D0010
:1009F00000000600000000000000000000000000F1
:100A000000000000000000000000000000000000E6
:100A100000005C1804080000000000000000F5B0B1
:100A20000208E803000003000000000000000000CE
:100A300000000000000000000000000000000000B6
:100A40000000000000006018040800000000000022
:100A50000000B98D0008102700000300000000000E
:100A60000000000000000000000000000000000086
:100A7000000000000000000000006C1804080000E6
:100A8000000015B30108F5C30208204E0000050060
:100A90000000000000000000000000000000000056
:100AA0000000000000000000000000000000C83C42
:100AB00004080000000000000000B1B70208102781
:100AC0000000010000000000000000000000000025
:100AD0000000000000000000000000000000000016
:100AE0000000701804080000000000000000157CE1
:100AF0000208E803000005000000000000000000FC
:100B000000000000000000000000000000000000E5
:100B10000000000000007C18040800000000000035
:100B20000000F5C10008204E000003000000000096
:100B300000000000000000000000000000000000B5
:100B4000000000000000000000008C1804080000F5
:100B5000000000000000E1BF0008204E000003007C
:100B60000000000000000000000000000000000085
:100B700000000000000000000000000000009C18C1
:100B800004080000000000000000A9810208400DD8
:100B9000030003000000000000000000000000004F
:100BA0000000000000000000000000000000000045
:100BB0000000AC18040800000000000000006D46B2
:100BC00002081027000001000000000000000000E3
:100BD0000000000000000000000000000000000015
:100BE000000000000000B41804080000000000002D
:100BF0000000895B030810270000030000000000CC
:100C000000000000000000000000000000000000E4
:100C100000000000000000000000B81804080000F8
:100C2000000000000000496F0308A08601000100D9
:100C300000000000000000000000000000000000B4
:100C40000000000000000000000000000000C418C8
:100C500004080000000000000000A51C0208A00F0E
:100C60000000010000000000000000000000000083
:100C70000000000000000000000000000000000074
:100C80000000D018040800000000000000006942C5
:100C90000108102700000100000000000000000013
:100CA0000000000000000000000000000000000044
:100CB0000000000000001018040800000000000000
:100CC0000000BD8E01081A41000001000000000074
:100CD0000000000000000000000000000000000014
:100CE00000000000000000000000DC180408000004
:100CF0000000000000006129010810270000010029
:100D000000000000000000000000000000000000E3
:100D100000000000000000000000000000000C18AF
:100D200004080000000000000000014B03081A4105
:100D300000000100000000000000000000000000B2
:100D400000000000000000000000000000000000A3
:100D50000000E81804080000000000000000A15F87
:100D60000108400D0300000000000000000000002A
:100D70000000000000000000000000000000000073
:100D8000000000000000F01804080000000000004F
:100D90000000A91B0208400D030000000000000035
:100DA0000000000000000000000000000000000043
:100DB00000000000000000000000F8180408000017
:100DC00000000000000035610308A0860100030058
:100DD0000000000000000000000000000000000013
:100DE00000000000000000000000000000000419E6
:100DF00004080000000000000000ADBF00084042F1
:100E00000F000000000000000000000000000000D3
:100E100000000000000000000000000000000000D2
:100E200000001019040800000000000000001D98D8
:100E3000000850C300000000000000000000000097
:100E400000000000000000000000000000000000A2
:100E500000000000000001000000FFFFFFFFD601BE
:100E60000000F9A5010800000000000000000100DA
:100E700000000001010100000000FFFFFFFF010171
:100E800002FFFFFF0000010000005001000007000A
:100E9000000002000000000000000000000001024D
:100EA000030406070809E001010101000000A92A66
:100EB000030800000000A4080020105404080000EB
:100EC0000000000000000000000000000000545579
:100ED00004080000000000000000300900200400A9
:100EE0000000BC5304080D0000004D450308F0232A
:100EF000002000000000084D04080D0000007545AA
:100F00000308E423002000000000784E04080800D5
:100F1000000000000000D823002004000000744DF1
:100F200004080D0000005D2B0308CC230020000006
:100F30000000284E04080300000085470308C02372
:100F40000020000000002054040803000000854732
:100F50000308B423002000000000684A04080100D0
:100F60000000000000000000000000000000000081
:100F700000000E0000000000000000000000000063
:100F800000001054040800000000000000000000F1
:100F9000000000000000545504080000000000009C
:100FA000000030090020040000006853040803001A
:100FB0000000B1360308A823002008000000744D8B
:100FC00004080D0000005D2B0308CC230020000066
:100FD0000000284E04080300000085470308C023D2
:100FE0000020000000002054040803000000854792
:100FF0000308B423002000000000684A0408010030
:1010000000000000000000000000000000000000E0
:1010100000000E00000000000000000000000000C2
:101020000000285404080000000000000000000038
:1010300000000000000054550408000000000000FB
:101040000000300900200400000070530408030071
:10105000000085470308FC23002000000000684AC8
:101060000408010000000000000000000000000073
:101070000000000000000E00000000000000000062
:1010800000000000000020700020702D7200080099
:1010900000000000000000000000641F0020FFFFAF
:1010A000FFFFFA00000001000000010000002D20F9
:1010B0002D2D202D2D2D2D202D2D2D00000000005B
:1010C00000000000000000000000000000003C4A9A
:1010D0000408444A0408604A0408000000000000B4
:1010E00000000000000000000000D54904080400D2
:1010F0000000154303080000000000000000684ADB
:1011000004080100000000000000000000000000D2
:101110000000000000000E000000000000000000C1
:101120000000000000000ABE00200100C409000009
:10113000000008BE00200100C4090000000006BE37
:1011400000200100C4090000000004BE00200100CE
:10115000C4090000000000BE00200100C409000016
:10116000000002BE00200100C40900000000FEBD16
:1011700000200100C40900000000FCBD00200100A7
:10118000C40900000000547A00200100C8000100DA
:101190000000527A00203200307532000000507A90
:1011A0000020055A05004D7A002000FF01004F7A0B
:1011B000002001000000500900204B7A00200200AE
:1011C000000008E303084C7A002000FF01004E7A7B
:1011D000002001000000500900204A7A002002008F
:1011E000000008E30308407A002080C1803E05002B
:1011F00000003E7A002080C1803E05000000387A61
:10120000002080C1803E05000000367A002080C1A9
:10121000803E05000000307A002000FF01002C7A9B
:1012200000200A3201002B7A002004000000340B59
:1012300004082A7A002002000000480B040800007D
:10124000000000000000580900207C4E00209CFF98
:101250002C01000000002A0700200A000000540BA7
:101260000408207A0020E0150C17000000002C076D
:101270000020080000000CE203082B0700200500F6
:1012800000004C0C0408227A0020020000006C0BC5
:101290000408587C00200100FF7F01000000577CFB
:1012A000002002000000780B0408AF7A0020030041
:1012B0000000880B0408AE7A002003000000880BB1
:1012C0000408BC7B00200000FF0001000000BA7B86
:1012D00000200000FF0001000000B87B002000009B
:1012E000FF0001000000B67B00200000803E0100EE
:1012F0000000B47B00200000803E32000000B27B82
:1013000000200000803E01000000B07B00200000B3
:10131000803E32000000AE7B00200000803E0100D5
:101320000000AC7B00200000803E32000000AA7B61
:1013300000200000FF0001000000C67B002000002C
:10134000F40101000000C47B00200000F401010052
:101350000000C27B00200000F40101000000C07BFF
:1013600000200000F40101000000BE7B002000FF0F
:101370000100E27B0020E803D0070A000000E07BC8
:101380000020006401000A000000D57B00200064FA
:101390000100D47B002000640100DC7B002000649D
:1013A00001000A000000DB7B0020006401000A004D
:1013B0000000DA7B0020006401000A000000DF7BEF
:1013C0000020006401000A000000DE7B00200064B1
:1013D00001000A000000DD7B0020006401000A001B
:1013E0000000D97B002000FF01000A000000D87B2C
:1013F000002000FF01000A000000D77B002000FF52
:1014000001000A000000B67A00200000F40101008B
:101410000000B47A00200000F40101000000B27A5C
:1014200000200000F40101000000B07A002000005C
:10143000F40101000000D07B00201400E80301004B
:101440000000CE7B0020E803307501000000CD7B5A
:10145000002000C80100CC7B002000C80100CB7B2D
:10146000002000C80100CA7B0020016401000A00BE
:101470000000C97B002000FF01000A0000004D7C35
:10148000002000C801004C7C002000C801004B7CFB
:10149000002000C801004A7C002000C80100497CEF
:1014A000002000C80100487C002000C80100477CE3
:1014B000002000C80100467C002000C80100457CD7
:1014C000002000C80100904A04080000000000004D
:1014D00000000000000000000000A04A040809000D
:1014E000000000000000FC09002004000000A84AE1
:1014F00004080900000000000000F00900200400BA
:101500000000505104080900000000000000E40938
:101510000020040000004848040809000000000002
:101520000000D809002004000000B04A04080900A7
:10153000000000000000CC09002004000000B84AB0
:1015400004080900000000000000C0090020040099
:101550000000C04A04080900000000000000B409AF
:10156000002004000000C84A040809000000000030
:101570000000A809002004000000684A04080100D7
:10158000000000000000000000000000000000005B
:1015900000000E000000000000000000000000003D
:1015A0000000FC4B040800000000000000000000E8
:1015B000000000000000F03A0408070000000000EE
:1015C0000000200A0020000000000C4C0408080065
:1015D000000000000000140A002000000000184C69
:1015E00004080800000000000000080A00200000B5
:1015F0000000684A0408010000000000000000002C
:10160000000000000000000000000E0000000000CC
:1016100000000000000000000000204C0408000052
:101620000000000000000000000000000000304C3E
:1016300004080D000000000000005C0A002000000B
:101640000000384C04080D00000000000000500AA3
:10165000002000000000404C0408070000000000CB
:101660000000480A002000000000484C04080D005B
:101670000000000000003C0A002000000000504C68
:1016800004080D00000000000000300A00200000E7
:101690000000584C04080700000000000000280A61
:1016A000002000000000684A04080100000000005B
:1016B00000000000000000000000000000000E001C
:1016C0000000000000000000000000000000604C6E
:1016D00004080000000000000000000000000000FE
:1016E0000000F03A04080C00000000000000567AE8
:1016F000002000000000744C04080C0000000000F2
:101700000000587A002000000000844C04080C00FF
:101710000000000000008E7A002000000000944CC1
:1017200004080C00000000000000827A0020000085
:101730000000A84C04080C000000000000005A7AC9
:10174000002000000000D84404080C000000000045
:1017500000005C7A002000000000B44C04080C007B
:101760000000000000005E7A002000000000C84C6D
:1017700004080C00000000000000607A0020000057
:101780000000D04C04080C00000000000000627A49
:10179000002000000000D84C04080C0000000000ED
:1017A0000000A07A002000000000F04C04080C00AB
:1017B000000000000000647A002000000000FC4CE3
:1017C00004080C00000000000000667A0020000001
:1017D0000000CC1704080C00000000000000687A2C
:1017E000002000000000044D04080C000000000070
:1017F00000006A7A002000000000104D04080C0070
:101800000000000000006C7A0020000000001C4D69
:1018100004080C000000000000006E7A00200000A8
:101820000000284D04080C00000000000000707A41
:10183000002000000000344D04080C0000000000EF
:101840000000727A002000000000404D04080C00E7
:10185000000000000000867A002000000000484DD3
:1018600004080C00000000000000847A0020000042
:101870000000504D04080C00000000000000927AA7
:101880000020000000005C4D04080C000000000077
:101890000000947A002000000000684D04080C004D
:1018A0000000000000009A7A002000000000584B61
:1018B00004080C00000000000000747A0020000002
:1018C0000000744D04080C000000000000007C7A49
:1018D0000020000000007C4D04080C000000000007
:1018E0000000767A002000000000884D04080C00FB
:1018F000000000000000787A002000000000944DF5
:1019000004080C000000000000007A7A00200000AB
:1019100000009C4D04080C000000000000007E7ACE
:10192000002000000000103B04080C000000000034
:101930000000887A002000000000A84D04080C0078
:10194000000000000000807A002000000000B44D7C
:1019500004080C00000000000000907A0020000045
:101960000000C04D04080C000000000000008A7A4E
:10197000002000000000C84D04080C00000000001A
:1019800000008C7A002000000000D04D04080C00FC
:10199000000000000000967A002000000000D84DF2
:1019A00004080C00000000000000987A00200000ED
:1019B0000000684A04080100000000000000000068
:1019C000000000000000000000000E000000000009
:1019D00000000000000000000000E04D04080000CE
:1019E0000000000000000000000000000000EC4DBE
:1019F00004080D00000000000000B40A00200000F0
:101A00000000F44D04080D00000000000000A80ACA
:101A1000002000000000FC4D04080700000000004A
:101A20000000A00A002000000000084E0408070083
:101A3000000000000000980A002000000000144E82
:101A4000040809000000000000008C0A00200000CB
:101A50000000204E04080900000000000000800A79
:101A60000020000000002C4E0408090000000000C7
:101A70000000740A0020000000003C4E0408090029
:101A8000000000000000680A002000000000684A12
:101A90000408010000000000000000000000000039
:101AA0000000000000000E00000000000000000028
:101AB000000000000000504E04080000000000007C
:101AC00000000000000000000000604E0408050057
:101AD000000000000000AD7A002000000000684A0D
:101AE00004080100000000000000000000000000E9
:101AF0000000000000000E000000000000000000D8
:101B0000000000000000684E040800000000000013
:101B10000000000000000000000054550408000010
:101B2000000000000000E801002004000000744EE6
:101B300004080D00000079430308080B0020000092
:101B40000000BC5304080D000000612A0308FC0AD1
:101B5000002000000000084D04080D000000452A88
:101B60000308F00A002000000000784E0408080076
:101B7000000000000000E40A002004000000744D92
:101B800004080D0000008D290308D80A0020000079
:101B90000000804E04080900000000000000CC0A8C
:101BA000002004000000284E0408030000008547C0
:101BB0000308C00A002000000000684A0408010071
:101BC0000000000000000000000000000000000015
:101BD00000000E00000000000000000000000000F7
:101BE0000000884E04080000000000000000000013
:101BF000000000000000984E04080D0000000000E6
:101C00000000200B002000000000A04E04080A0085
:101C10000000000000005D7D002000000000AC4ED0
:101C200004080A00000000000000657D002000009C
:101C30000000B44E04080A000000000000006D7DA2
:101C4000002000000000BC4E040808000000000056
:101C50000000140B002000000000C44E0408040023
:101C600000001D4903080000000000000000684A51
:101C70000408010000000000000000000000000057
:101C80000000000000000E00000000000000000046
:101C9000000000000000D04E04080000000000001A
:101CA00000000000000000000000E44E04080D00E9
:101CB000000000000000380B002000000000F44E7F
:101CC000040804000000C1450308000000000000F3
:101CD0000000FC4E04080D000000000000002C0B6A
:101CE000002000000000104F0408040000009D4583
:101CF00003080000000000000000684A040801001A
:101D000000000000000000000000000000000000D3
:101D100000000E00000000000000000000000000B5
:101D20000000184F04080000000000000000000040
:101D30000000000000009C450408080000000000AE
:101D40000000B00B0020000000002C4F0408080029
:101D5000000000000000A40B002000000000344F31
:101D600004080800000000000000980B002000009C
:101D700000003C4F040808000000000000008C0B2D
:101D8000002000000000444F04080800000000008C
:101D90000000800B0020000000004C4F04080800E9
:101DA000000000000000740B002000000000544FF1
:101DB00004080800000000000000680B002000007C
:101DC00000005C4F040808000000000000005C0BED
:101DD000002000000000684F040808000000000018
:101DE0000000500B002000000000744F04080800A1
:101DF000000000000000440B002000000000684AC2
:101E000004080100000000000000000000000000C5
:101E10000000000000000E000000000000000000B4
:101E20000000000000007C4F0408000000000000DB
:101E300000000000000000000000904F04080700B0
:101E4000000000000000EC0B0020000000009C4F90
:101E500004080800000000000000E00B0020000063
:101E60000000A84F04080800000000000000D40B88
:101E7000002000000000B44F04080800000000002B
:101E80000000C80B002000000000C04F040808003C
:101E9000000000000000BC0B002000000000684AA9
:101EA0000408010000000000000000000000000025
:101EB0000000000000000E00000000000000000014
:101EC000000000000000CC4F0408000000000000EB
:101ED00000000B09002000000000D84F04080B0090
:101EE0000000000000007C0C002000000000E44F17
:101EF00004080B00000000000000700C002000002F
:101F00000000F04F04080B00000000000000640C0B
:101F1000002000000000FC4F04080B00000000003F
:101F20000000580C002000000000085004080B00BE
:101F30000000000000004C0C0020000000001450C5
:101F400004080B00000000000000400C002000000E
:101F50000000205004080B00000000000000340CBA
:101F60000020000000002C5004080B0000000000BE
:101F70000000280C002000000000385004080B006E
:101F80000000000000001C0C002000000000445075
:101F900004080700000000000000140C00200000EE
:101FA00000004C50040807000000000000000C0C6A
:101FB000002000000000585004080B000000000042
:101FC0000000000C0020000000006450040808001D
:101FD000000000000000F40B002000000000684A30
:101FE00004080100000000000000000000000000E4
:101FF0000000000000000E000000000000000000D3
:102000000000000000007050040800000000000004
:1020100000000000000000000000845004080800D8
:10202000000000000000AC0C0020000000009050F8
:1020300004080800000000000000A00C00200000C0
:1020400000009C5004080800000000000000940CF0
:10205000002000000000744F040808000000000089
:102060000000880C002000000000684A04080100FD
:102070000000000000000000000000000000000060
:1020800000000E0000000000000000000000000042
:102090000000A8500408000000000000000008092B
:1020A000002000000000B85004080B0000000000F1
:1020B0000000F40C002000000000C45004080B00D5
:1020C000000000000000E80C002000000000D050DC
:1020D00004080700000000000000E00C00200000E1
:1020E0000000DC5004080700000000000000D80CCD
:1020F000002000000000E850040807000000000075
:102100000000D00C002000000000F450040808007B
:10211000000000000000C40C002000000000FC5083
:1021200004080800000000000000B80C00200000B7
:102130000000684A040801000000000000000000E0
:10214000000000000000000000000E000000000081
:10215000000000000000000000000451040800001E
:1021600000000000000008090020000000001051DD
:1021700004080700000000000000400D00200000DF
:102180000000185104080700000000000000380D8E
:10219000002000000000205104080700000000009B
:1021A0000000300D00200000000010480408070067
:1021B000000000000000280D00200000000018486A
:1021C00004080700000000000000200D00200000AF
:1021D0000000204804080700000000000000180D5F
:1021E0000020000000002851040807000000000043
:1021F0000000100D0020000000003051040807000E
:10220000000000000000080D002000000000385110
:1022100004080700000000000000000D002000007E
:102220000000684A040801000000000000000000EF
:10223000000000000000000000000E000000000090
:102240000000000000000000000000000000D12D90
:102250000308480D0020AB7A00201C000000980BFA
:102260000408AA7A002000C80100A87A0020E80328
:10227000D0070100000048454C494F535052494E89
:102280004700497A002000030100487A002000033B
:102290000100192D0308F12C0308240E0020AD2C99
:1022A0000308612C03089C0E0020592D0308412DC2
:1022B0000308500F0020CD2B0308812B03085C126C
:1022C0000020E72D03086D31030838130020CD29C5
:1022D00003080000000088130020F9480308E930D3
:1022E0000308641400200D2E0308000000001815D8
:1022F0000020CD2E0308812E0308A4150020492FAD
:102300000308192F0308A8160020D52F0308193039
:10231000030848170020D27B0020010601004D2E43
:102320000308212E030888180020792F0308E545AB
:102330000308141900204530030841460308DC193E
:102340000020C87B00200103010040510408000068
:1023500000000000000000000000000000004C51E0
:1023600004080800000000000000EC1A0020000033
:102370000000545104080700000000000000E41AA7
:10238000002000000000645104080D00000000005F
:102390000000D81A0020000000007051040803005B
:1023A000000085470308CC1A002000000000684A9E
:1023B0000408010000000000000000000000000010
:1023C0000000000000000E000000000000000000FF
:1023D0000000000000007851040800000000000028
:1023E00000000000000000000000885104080A00FE
:1023F0000000000000005C44040800000000905150
:1024000004080A00000000000000291A0408000067
:102410000000985104080A000000000000004E7CF3
:10242000002000000000A05104080A000000000085
:102430000000F81A002000000000684A04080100AB
:10244000000000000000000000000000000000008C
:1024500000000E000000000000000000000000006E
:102460000000A85104080000000000000000000067
:10247000000000000000B45104080300000085477C
:1024800003082C1B002000000000C05104080300BA
:10249000000085470308201B002000000000C851F1
:1024A00004080300000085470308141B00200000F7
:1024B0000000D05104080500000000000000477A29
:1024C000002000000000D8510408070000000000B0
:1024D00000000C1B002000000000E451040807006D
:1024E000000000000000041B002000000000684AFB
:1024F00004080100000000000000000000000000CF
:102500000000000000000E000000000000000000BD
:10251000000000000000F05104080000000000006E
:10252000000000000000000000008C4504080300CB
:102530000000854703085C1B0020000000000452D7
:10254000040803000000854703083007002000004E
:1025500000000C5204080300000085470308501BCC
:10256000002000000000145204080300000085470A
:102570000308441B002000000000744D0408030001
:10258000000085470308381B002000000000684A4F
:10259000040801000000000000000000000000002E
:1025A0000000000000000E0000000000000000001D
:1025B000000000000000205204080000000000009D
:1025C000000000000000000000002C52040807007A
:1025D00000008D460308C41B002000000000984D39
:1025E00004080300000085470308B81B0020000012
:1025F0000000385204080300000085470308AC1BA4
:10260000002000000000405204080300000085473D
:102610000308A01B00200000000048520408070027
:10262000000071460308981B002000000000A4472A
:10263000040803000000854703088C1B00200000ED
:102640000000545204080300000085470308801B63
:1026500000200000000060520408030000008547CD
:102660000308741B002000000000685204080300E7
:10267000000085470308681B002000000000684A2E
:10268000040801000000000000000000000000003D
:102690000000000000000E0000000000000000002C
:1026A000000000000000A12D0308712D0308CC1BC1
:1026B0000020B530030800000000581C00203D2C0D
:1026C0000308192C0308E41C00200000000000008F
:1026D0000000981D00208D300308A9460308381E0D
:1026E00000207452040800000000000000000000F8
:1026F000000000000000805204080300000085472D
:102700000308581F0020000000008852040803003E
:102710000000854703084C1F00200000000010182F
:1027200004080300000085470308401F0020000044
:102730000000945204080300000085470308341F7A
:10274000002000000000A05204080300000085479C
:102750000308281F002000000000A85204080200FF
:102760000000694903080000000000000000B052AA
:10277000040802000000694903080100000000008D
:102780000000BC520408020000006949030802006E
:10279000000000000000000000000E00000000002B
:1027A00000000000000000000000267A00208813CE
:1027B0006F1701000000287A002088136F170000AF
:1027C0000000C852040800000000000000000000E3
:1027D000000000000000D8520408080000000000BB
:1027E00000003820002004000000E4520408080023
:1027F0000000000000002C20002000000000284EF7
:10280000040804000000A1430308000000000000C9
:102810000000684A040801000000000000000000F9
:10282000000000000000000000000E00000000009A
:1028300000000000000000000000247A002088133F
:102840006F1701000000B84E002088136F170000BA
:102850000000112B03080000000044200020017D2F
:102860000020010000000C0C0408BA4E00200100FA
:102870000000180C0408B04E002002000000200CDC
:10288000040852BE0020000000000000000050BEFE
:10289000002000000000000000004EBE00200000EC
:1028A0000000000000004CBE0020000000000000FE
:1028B00000004ABE0020000000000000000048BEEA
:1028C00000200000000000000000200200200000A6
:1028D000000000000000237A0020020000002C0C01
:1028E000040820530408000000000000000000005D
:1028F000000000000000D85204080800000000009A
:102900000000C820002004000000E4520408080071
:10291000000000000000BC20002000000000284E45
:10292000040804000000E12A030800000000000081
:102930000000684A040801000000000000000000D8
:10294000000000000000000000000E000000000079
:1029500000000000000000000000305304080000E8
:1029600000000000000000000000000000004053D4
:1029700004080D000000F1440308F82000200400C2
:1029800000004C5304080D000000392B0308EC2014
:10299000002004000000585304080D000000B54456
:1029A0000308E02000200000000064530408030036
:1029B0000000D1360308D420002008000000705326
:1029C00004080300000085470308FC2300200000E2
:1029D0000000684A04080100000000000000000038
:1029E000000000000000000000000E0000000000D9
:1029F00000000000000000000000604A0408000021
:102A00000000000000000000000000000000D549A8
:102A1000040804000000B94303080000000000009F
:102A20000000684A040801000000000000000000E7
:102A3000000000000000000000000E000000000088
:102A400000000000000000000000C4530408000063
:102A50000000000000000000000000000000C03D79
:102A600004080D00000000000000582100200400B0
:102A70000000D453040808000000000000004C21AE
:102A8000002004000000E0530408080000000000DB
:102A900000004021002004000000E8530408080062
:102AA0000000000000003421002004000000F0536A
:102AB0000408080000000000000028210020040095
:102AC0000000F853040808000000000000001C216A
:102AD000002004000000005404080800000000006A
:102AE0000000102100200400000008540408080021
:102AF0000000000000000421002004000000684ADB
:102B000004080100000000000000000000000000B8
:102B10000000000000000E000000000000000000A7
:102B2000000000000000F92A0308000000006421F2
:102B300000200000000000000000DC210020000058
:102B40000000000000007C220020B64E002004009F
:102B50000000380C0408B44E0020E0150C170000EB
:102B60000000B34E0020080000000CE20308B24E43
:102B70000020050000004C0C0408000000000000CC
:102B80000000CC2200200403090412010002EF021D
:102B900001408304563200020102030100001201C9
:102BA00000020202004083044057000201020301B8
:102BB000000009024300020100C0320904000001C4
:102BC0000202010005240010010524010001042473
:102BD00002020524060001070582030800FF09041C
:102BE0000100020A0000000705010240000007057D
:102BF000810240000000FF0000000800000000000B
:102C0000000100000000000000000000000001784A
:102C10000308FD770308F9770308ED770308E977E0
:102C20000308F5770308F1770308757803086978D6
:102C3000030841780308557803082D7803081978AC
:102C400003080578030801010000006002401060DD
:102C500002400000000000000000000B0000000027
:102C6000000000000000000000000060024028603A
:102C700002400100000000000000060C00000000FF
:102C80000000000000000000000000600240406002
:102C900002400200000000000000100D00000000D3
:102CA00000000000000000000000006002405860CA
:102CB00002400300000000000000160E00000000AB
:102CC0000000000000000000000000600240706092
:102CD00002400400000000000000200F000000007F
:102CE000000000000000000000000060024088605A
:102CF0000240050000000000000026100000000057
:102D00000000000000000000000000600240A06021
:102D1000024006000000000000003011000000002A
:102D20000000000000000000000000600240B860E9
:102D300002400700000000000000362F00000000E5
:102D40000000000000000000000000640240106469
:102D500002400000000000000000003800000000F9
:102D60000000000000000000000000640240286431
:102D700002400100000000000000063900000000D1
:102D800000000000000000000000006402404064F9
:102D900002400200000000000000103A00000000A5
:102DA00000000000000000000000006402405864C1
:102DB00002400300000000000000163B000000007D
:102DC0000000000000000000000000640240706489
:102DD00002400400000000000000203C0000000051
:102DE0000000000000000000000000640240886451
:102DF0000240050000000000000026440000000022
:102E00000000000000000000000000640240A06418
:102E100002400600000000000000304500000000F5
:102E20000000000000000000000000640240B864E0
:102E300002400700000000000000364600000000CD
:102E4000000000000000000000000000803F054975
:102E50000108054E01088149010895240108CD4F5C
:102E60000108A5240108C12401086D2401085D247E
:102E70000108000000000000000000270020000002
:102E80000000000000000000000000000000000042
:102E90000000000000000000000000000000000032
:102EA0000000000000000000000000000000000022
:102EB0000000000000000000000000000000000012
:102EC0000000000000000000000000000000000002
:102ED00000000000000000000000000000004300AF
:102EE00000000000000000000000000000000000E2
:102EF000000000000000000000000000000043008F
:102F000000000000000000000000000000000000C1
:102F1000000000000000000000000000000043006E
:102F200000000000000000000000000000000000A1
:102F3000000000000000000000000000000043004E
:102F40000000000000000000000000000000000081
:102F5000000000000000000000000000000043002E
:102F60000000000000000000000000000000000061
:102F7000000000000000000000000000000043000E
:102F80000000000000000000000000000000000041
:102F900000000000000000000000000000004300EE
:102FA0000000000000000000000000000000000021
:102FB00000000000000000000000000000001BD224
:102FC0000308F7D103080000000096550408D14912
:102FD0000408B11E0408B11E0408B11E0408B11E85
:102FE0000408B11E0408B11E0408B11E0408B11E75
:102FF0000408B11E0408FFFFFFFFFFFFFFFFFFFFF4
:10300000FFFFFFFF0000010041534349490000005A
:1030100000000000000000000000000000000000B0
:103020000000000000000000415343494900000037
:103030000000000000000000000000000000000090
:103040000000000000000000000000000000000080
:103050000000000000000000000000000000000070
:103060000000000000000000000000000000000060
:10800000037903F00C03042B05D0082B0DD0A3B982
:10801000B0F80B0070470A4BB0F80B001B7803EB6D
:10802000830300EB031080B27047054BB0F80B00E0
:108030005B7800EB031080B270470020704700BFF0
:1080400054A5002070B50A4C5025064621462A4604
:1080500035F004F82A462146701934F0FFFF2A460D
:10806000214606F1A000BDE8704034F0F7BF00BF24
:108070002CDB0308F0B40C4D0C4C0D4F0D4E0FCD06
:108080000FC40FCD0FC40FCD0FC495E80F0004250A
:108090003D70094D84E80F0033682B606B60AB6066
:1080A000EB60F0BC704700BF7CDB0308D0280020E9
:1080B000154A0020786900206068002010B4474904
:1080C000474B8A781B68053A042A03F4805324D866
:1080D0004A89DFED447A07EE102A434AB8EEC77AA0
:1080E0000021116067EE277A002B72D19FED3F6A65
:1080F000DFED3F6AE7EE066AB0EE667ADFED3D6AD5
:108100003D4B3E4A3E483F49186477EEA67A996453
:10811000C3ED117A82ED007A29E0002B4FD10B8A52
:1081200007EE903A8B8905EE903AF8EE677A324B7B
:10813000F8EE655ACA89314906EE102AB3F84E2086
:10814000C1ED005A06EE902AB3F84C2007EE102A33
:10815000B8EE466A244A83ED106AF8EE666AB8EE15
:10816000477AC3ED116A83ED127AC2ED007A26498F
:10817000B3F852400A8B498B101B80B2224492B252
:10818000A0F57A7406EE904AC1F5FA61C2F5FA6478
:1081900007EE104A07EE901AF8EEE66AB8EEC77AD4
:1081A000F8EEE77AA3F85C00A3F85E20C3ED186A46
:1081B00083ED197AC3ED167A5DF8044B70470E4BC8
:1081C000DFED125AB3F8502007EE902AF8EE677AE6
:1081D000B0E79FED077A37EE877A8FE734A7002064
:1081E000B8B200205E98CC3D7869002095B24C3E34
:1081F0000000404200008344D0280020D46A0020C0
:1082000000E0FF4400E08244B0A4002000007A4473
:1082100030B44FF4F0710A4A0A4B018036253724F6
:108220003821C0F80A20C0F80E30392201238571A8
:10823000C471017242728370437130BC704700BFD9
:10824000C2012E04D007E8033D4B3E4AD3ED015A4C
:1082500093ED036AD3ED027AD3ED006A2DED048B22
:1082600025EEA59A26EE060A39EE097A30EE005A76
:1082700027EEA78A26EE861A65EEA71A66EEA72ACB
:1082800026EEA52A67EE867A65EE865AB1EE477A23
:10829000F0EE004AF0EE470AF0EE458AE8EE640A96
:1082A000E8EE248A37EE457A71EEC13A31EE214A82
:1082B00072EEA54A35EEE25A37EEC26A66EEA66A5B
:1082C00033EEA33A74EE043A34EEA44A75EE054A4E
:1082D00036EE065A32EE276AC3ED046AF7EE006AFC
:1082E00037EE267A70EEA60A36EE066A76EEE86A71
:1082F00083ED089A83ED0B8A83ED0D0A82ED1E7AD9
:10830000C2ED220AC2ED1A6A83ED071AC3ED091AFB
:1083100082ED1B3AC2ED1D3A83ED052AC3ED062A14
:10832000C3ED0A5AC3ED0C7A82ED1C4AC2ED204A15
:1083300082ED1F5A82ED216ABDEC048B704700BFAD
:1083400000000020D028002010B5094CDFED097A8C
:1083500094F8953000EE103AB8EEC00A20EE270AE5
:1083600020F038FA84ED260ABDE810406CE700BF23
:10837000D028002035FA8E3C2C4B1B68184483799A
:108380009BB107EE903ADFED2A6AF8EEE77A20EE2D
:10839000A07A67EEA67A27EE207AF7EE006AD7EE8B
:1083A000877A77EEA67A20EE270AC378DFED206A77
:1083B00007EE903AF8EEE77AB0EE007A67EEA67A2A
:1083C000F4EEC77AF1EE10FA05DD37EEC77ADFED8D
:1083D000196AE7EE267A437A9FED177A20EE070AAC
:1083E00020EE270A03B3DFED127A9FED147A06EE32
:1083F000903A60EEA77AF8EEE60A60EEA70AF4EE8D
:10840000C70AF1EE10FA04DDDFED0D7A20EE270A3F
:108410007047F5EEC00AF1EE10FA05D4F7EE007AD7
:1084200077EEE00A80EE200A704700BFB8500020C7
:108430000AD7233CD7A3684100004843A4707D3F7E
:108440000000C842174B9FED185A1B681844BFEE36
:10845000007A437A06EE103AC378A0EE007A07EE6F
:10846000903A8379B8EE466A05EE903A60EE850A56
:10847000F7EE006AF2EE044AB0EE664A20EE240AF5
:10848000A6EE204A27EE057AF8EEE55AF8EEE77AEE
:10849000E5EE876A67EE807A24EE270A20EE260A48
:1084A000704700BFB85000200AD7233C704710F82F
:1084B000113C0133DBB20A2B00F8113C07D9044A06
:1084C00010F8131C002322F8113000F8113C7047FB
:1084D0003C650020F0B45E4E5E4896F89C205E4BF2
:1084E0005E4DDC6B2D780132A0FB0270000900EBC1
:1084F0008000A2EB80001A6886F89C00914201EB94
:1085000004005C6811D293F84520002A4ED000F593
:108510008030B0FBF5F084420BD2041B4FF4803264
:1085200092FBF5F2A21A9A600AE0B0FBF5F08442E1
:1085300044D34FF4803292FBF5F2121B02449A604E
:1085400040F68C240025A242C3E9001083F8455070
:1085500017D993F8402093F942108A4256B241D07D
:10856000002093F9411083F843008A4247D001214B
:10857000002283F8426083F8441083F84020F0BC66
:10858000704793F844100029F9D0A2F2EF2040F28E
:10859000DA5188421AD893F840100B2916D803EB09
:1085A00081000131C26083F84010E8E7B0FBF5F0CC
:1085B0008442BED2041BA21A9A60C1E793F84520F8
:1085C000002AAAD1041BA21A9A60B9E7244A002102
:1085D00002F1300083F8441042F8041F8242FBD1BC
:1085E000F0BC7047111F0829BAD893F84310182916
:1085F00026D8013183F8431093F94110B5E793F879
:1086000044100029B3D0FAB11649154C0FFA82FC78
:10861000084601EB4C0754F8045F20F8025BB842AF
:10862000F9D10B2A07DC104801EB4C02002122F89B
:10863000021B9042FBD10D490A7801320A7096E77D
:1086400083F84160314690E794460649EBE700BF66
:10865000D0280020CDCCCCCC88A60020C824002077
:1086600090A600203C650020546500203465002061
:1086700030B40F4D0F4B95F89C200F4C0132A3FBEB
:1086800002031B09E06B03EB8303A2EB83034FF6AA
:10869000FF72914200F1010085F89C30084408BF48
:1086A0000123E06308BF84F8453030BC704700BF49
:1086B000D0280020CDCCCCCC88A6002000286CD0BF
:1086C0006F4B1A7CF0B4002A44D1196800220128AB
:1086D0000A6017D093F82810B1B9996900220228CE
:1086E0000A600FD093F84010002957D1196B00226F
:1086F00003280A6006D093F8581000297BD19B6CA0
:1087000000221A60F0BC7047DC695E4DA10AA942E4
:1087100000F0A48040F292805B4DA94204D05B4AF5
:10872000914240F09D800222EFF31181502585F3A4
:108730001288574E676AA58A02EB820206EBC202D4
:10874000013745F00105C2F8C470C9B2A58281F3B2
:108750001188C2E759684B4C8A0AA24273D045D9A6
:10876000494CA24273D00134A2426ED10224EFF3ED
:108770001182502585F31288454E4F6A8D8A04EB8D
:10878000840406EBC404013745F00105C4F8C47045
:10879000D2B28D8282F3118897E770475C6B394DB6
:1087A000A10AA94265D054D9374DA94203D0374A0E
:1087B000914257D10222EFF31181502585F312889F
:1087C000334E676AA58A02EB820206EBC2020137CA
:1087D00045F00105C2F8C470C9B2A58281F31188C1
:1087E000196B002203280A6085D18BE7043CA24262
:1087F0002BD10124BBE7D86C224C810AA1423AD08C
:1088000032D9214CA14203D0204A914235D10222D3
:10881000EFF31181502484F312881D4D466A848A37
:1088200002EB820205EBC202013644F00104C2F8F9
:10883000C460C9B2848281F3118860E7154A91420D
:108840000ED1012270E7032491E7FE248FE7002474
:108850008DE7104A914205D10122ACE7032263E77C
:10886000FE2261E7FE22A6E70A4A914205D10122D3
:10887000CEE703229FE70322CAE7FE22C8E700BF34
:10888000D4A6002006001000400010004100100097
:10889000D0280020020010007047704770B4150BFC
:1088A000C2F30324064605EB450504EB44044800E7
:1088B000C2F303131835183402F00F02356003EBCE
:1088C000430346F8214002EB4202014418331832B8
:1088D00046F82030062046F8212070BC70472DE96C
:1088E000F04F12F4004F14BF4FF00E0B4FF0070B78
:1088F00012F4804F14BF4FF00E0A4FF0070A12F423
:10890000005F14BF4FF00E094FF0070912F4805FAB
:1089100014BF4FF00E084FF007084FEA410C12F455
:10892000006F83B001EB0C0714BF4FF00E0E4FF039
:10893000070E12F4806F01EB070614BF0E23072306
:108940008D190193034612F4007F01EB0504C3F86F
:1089500000B018BF0E2043F821A008BF072043F83D
:108960002C9012F4807F01EB040C43F8278043F82D
:1089700026E001EB0C0714BF4FF00E084FF007087C
:10898000019E43F8256012F0800F01EB070614BF2B
:108990004FF00E0E4FF0070E12F0400F43F8240078
:1089A00001EB060514BF0E20072012F0200F43F83C
:1089B0002C8001EB050414BF4FF00E0C4FF0070C98
:1089C00012F0100F43F827E043F8260018BF0E27D7
:1089D00001EB040008BF072712F0080F43F825C079
:1089E00018BF0E2643F8247008BF07260C1812F093
:1089F000040F43F8206018BF0E2501EB040008BFE8
:108A0000072512F0020F43F82450014414BF0E242E
:108A1000072412F0010F43F8204014BF0E22072252
:108A2000122043F8212003B0BDE8F08F70B4044653
:108A300000F16006074D0FCD103444F8100C44F8D7
:108A40000C1C44F8082C44F8043CB442F2D170BC2D
:108A5000704700BFBCDB0308034B33F8A02F028034
:108A60009B788370704700BF2CDB03080A4BD3F858
:108A7000401181B130B4D3F84451084C0020642235
:108A800002FB05F2C3F84001B2FBF1F2C3F8440166
:108A9000228030BC70477047D02800205C680020DE
:108AA00000230D491A4613F0010301F1240109D1F5
:108AB0000132072A0ED011F8243C13F0010301F112
:108AC0002401F5D0054B02EBC20203EB82021379BD
:108AD0000370704703707047C60C04089C0C0408B0
:108AE00000220D4B02721146920710B403F1D80414
:108AF00002D51A79425401319C4203F1240308D073
:108B0000082906D09A799207F3D49C4203F12403F2
:108B1000F6D15DF8044B70479C0C040830B4162164
:108B2000232417222D2332250470C17033243A21C7
:108B300082714370242225230571C47181704271B2
:108B4000037230BC70470123102111224170427121
:108B5000037203700371704721F0CEBFF8B506466B
:108B600034F072FD1F4906EB460401EB4414257BEB
:108B700005B9F8BD1C4A237D1C4F1D4D3F782D685B
:108B800002EA40021A4393B21A1282EA13125A40BE
:108B900002F00F0242EA0312002392B22375A7B932
:108BA000602000FB061018300121A8472169636886
:108BB000B1F82C216489DB682243A1F82C2158608C
:108BC0001A6842F001021A60F8BD636820695B7997
:108BD00003F0FC030C3318440421A84723698000E8
:108BE0001881F8BD54A70020FEFF0100C924002011
:108BF0004CA7002038B500EB4000084DC4002B19ED
:108C000093ED027AD3ED037AE7EE007AB0EE670ACD
:108C100034F01AFD2B59186038BD00BFD4A60020CF
:108C200070B52D4D2D4C2E496A792E4E2E480423B9
:108C30000B7084F8483100216423012A84F85131F3
:108C4000A4F84A11A4F84C1184F85011C4F8541136
:108C50003170016021D0022A11D0A979234A002362
:108C60000129136084F8A831C2E9013323D0022915
:108C700004D11F4AC4F8E031C2E9013370BD282293
:108C800004F5AC7034F004FB4CF250319FED190A3E
:108C900004F5AE7023F056FADFE7282204F5C07021
:108CA00034F0F6FA4CF250319FED120A04F5C2701E
:108CB00023F048FAD1E7104AC4F8AC31C2E90133D5
:108CC000D3609FED0E0A02F110004CF25031BDE866
:108CD000704023F037BA00BF0C4B0020D028002092
:108CE0000A4B00201E4D0020184D0020204D002072
:108CF000B02A0020CDCCCC3D7C2A0020CDCCCC3E6F
:108D00000023012243600360836043700371837218
:108D1000C2717047F8B5322204460021023034F0A7
:108D2000B7FA1423224AA37092F90270214BC4F8B7
:108D300003300120002102250326C4F80B30C4F8BB
:108D40001330C4F81B30C4F82330C4F82B308742EA
:108D50004FF00403A172A0742080A57684F82260ED
:108D600084F82A301AD092F90A10814216D092F96A
:108D70001210814216D092F91A10814214D092F941
:108D80002210814212D092F92A30834205D0522219
:108D9000642384F832202386F8BD0521402322F87D
:108DA0003130F4E72946F9E73146F7E71946F5E7A8
:108DB000DCA4002005040500844B1A68844B91074D
:108DC00002D593F8381021B90022DA621A635A6387
:108DD0007047D3ED0C7A93ED0B7AD3ED0D6A1B8BB4
:108DE000DFED7C5A9FED7C6A67EEA77A03FB03F305
:108DF000E7EE077A70B5E6EEA67A784C07EE103A01
:108E000067EEA57AB8EEC77AD4F8EC51C4F8EC0155
:108E1000C7EE876A401B2DED088BF4EEC66AF1EEB3
:108E200010FA07DDDFED6E7AF4EEE76AF1EE10FA84
:108E300000F12C836B4D2B7813F0100640F09084DA
:108E400000219FED693A694E0A46D4F8F031002BB3
:108E500000F0FD8207EE903AF8EE677AB7EE007AFE
:108E600087EE275A0023C4F8F03100239FED607A83
:108E7000D4ED7E5AD4ED7D4AD4ED7F7AC4F8F43136
:108E800065EE875A64EE874A65EE255A65EE244AF8
:108E900025EEA52A67EE877AA4EEA42AC4F8F83155
:108EA000C4F8FC3125EE275AA5EE052AD4F8003285
:108EB000002B40F3D58207EE903AF8EEE77AB7EE52
:108EC000007A87EE274A0023C4F8003294ED821A14
:108ED000D4ED817AD4ED831A9FED437A9FED456AF4
:108EE00084ED817A24EE011A64EE272A61EE013ABC
:108EF00007EE900AE2EEA23A64EE211AF8EEE76A73
:108F0000E1EEA13A84ED827A84ED837A66EE866A98
:108F1000002A00F0B882DFED3D7AB4EEE73AF1EED8
:108F200010FA40F356849FED346A9FED347A01E0E5
:108F3000B0EE673AB4EEC73AF1EE10FA73EE467A45
:108F4000F6DC9FED2F7AF4EEC77AF1EE10FA40F1DD
:108F50003C849FED294A9FED2B6A01E0F0EE477AB1
:108F6000F4EEC67AF1EE10FA37EE847AF6D4F6EE25
:108F7000007A27EE277AFDEEC77A17EE903A203373
:108F8000402B00F28982DFED217AB4EEE77AF1EE30
:108F900010FA40F325849FED184A9FED186A01E00E
:108FA000B0EE677AB4EEC67AF1EE10FA77EE447A54
:108FB000F6DC9FED137AF4EEC77AF1EE10FA40F189
:108FC0000C849FED0D4A9FED0F6A2DE0BC4C0020F4
:108FD0001C9600200000C8420000A242D0280020B9
:108FE0000000F242C04C002000000000304D002084
:108FF00035FA8E3CBD378635DB0FC940E4CB1641D0
:10900000DB0F49C0E4CB16C1DB0FC93FDB0F494082
:1090100092E741B99730083C15A82ABE0AD7233CED
:10902000E68AF93DF0EE477AF4EEC67AF1EE10FAF0
:1090300037EE847AF6D45FED0C7AB4EEE77AF1EE8F
:1090400010FA40F3B6835FED0F7A37EEC77A27EE5A
:10905000074A1FED113A1FED116A5FED117AA4EE78
:10906000036A27EE043AE4EE067AA3EE277AB0EE1E
:10907000476A002900F01A825FED187AF4EEE73AA9
:10908000F1EE10FA40F31282F1EEE37AB7EE007AD5
:1090900087EE273AD4ED213A94ED220AD4ED200A46
:1090A00063EE227AB0EE467AA7EEA37A23EE214A47
:1090B00023EE011A63EEC43A60EE677AA1EE607A9D
:1090C000E1EE003AE4EE207AB0EE476A94ED237ABE
:1090D000B5EEC07AF1EE10FA4FF0000340F30C83C6
:1090E0005FED311AD4ED842A94ED853A94ED864AE9
:1090F000B4EEE12AF1EE10FA00F1118335EE045AD4
:1091000075EE835A74EEA24AEB4B94ED244A1B7819
:10911000DA0740F1F882E3EE844AE849B6EE007AD5
:1091200066EE876AE7EE845AA6EE045AD1ED033A5A
:10913000D1ED007A91ED023A91ED014A64EEA64A32
:1091400065EEA65A25EE265A64EEA36A25EE036A5A
:10915000E5EEA76AA4EEA76A25EE847A76EE836A26
:10916000F1EE452AE2EE846AA5EE277A36EE046A2D
:1091700026EEA65AA5EEE36A37EE237AA6EE065A45
:10918000A4EEC37A65EE835AE2EEA37AE4EE845A43
:10919000A7EE075A77EEE57AF0EE455AE7EEA75AC2
:1091A000B7EE00BAB1EEE55ACBEE055A67EEA57AF6
:1091B00026EE256A66EEA56A27EE257AC1ED007ACD
:1091C00081ED016AC1ED026A81ED037AFFF73CF897
:1091D000BB4B1B885B0640F19B8191ED107AD1ED72
:1091E0000F5A91ED116A91ED0E9A67EE079A27EEEC
:1091F000065AF0EE694AE5EEA54AA9EE255A74EE44
:10920000A44A35EE055A7BEE646AB0EEC54AF0EE2C
:10921000E66AF4EEC46AF1EE10FAB4BFF0EE447AF6
:10922000F0EE667AF5EE407AF1EE10FA29EE078A52
:1092300025EE87AA29EE069A65EE868A66EE06AACC
:1092400000F08B82F4EEC46AF1EE10FA8CBFB0EE3F
:10925000446AB0EE666A86EE277ADFEDA43ADFED67
:10926000A27A9FEDA76ADFEDA55A9FEDA33AE7EE3C
:10927000673ADFEDA07AA7EE236AE7EE037AE7EE1E
:10928000065A9FED9B6AA7EE27BAA7EE256AF0EE75
:109290004B7A86EE0B7AF4EEC46AF1EE10FA48BF10
:1092A000DFED987A9FED8F0A48BF37EEC77AF7EE69
:1092B000007AF4EEE74AF1EE10FAC8BFDFED937AD8
:1092C000B5EEC05AC8BF37EEC77AF1EE10FA48BF04
:1092D000B1EE477A27EE000A34F0B6F978EE687AF4
:1092E000B7EE005A77EEA77ADFED7A4ADFED7A5AC9
:1092F0009FED7B6A9FED797A3080F0EEE76A35EE7C
:10930000665AE6EEA45AB1EEC50AA6EEA56AF5EED7
:10931000C07AA6EE867AF1EE10FA48BFDFED7B7ACE
:1093200027EE007A9FED6F0A48BF37EEC77ADFED70
:10933000757A37EEC77A27EE000A34F085F979EEB0
:10934000AA7A39EE0A7A77EEA77AF7EE005A37EE64
:10935000077A75EEE76AB0EEC76AF0EEE66AF4EEF9
:10936000C66AF1EE10FAB4BFB0EE465AB0EE665AD5
:10937000B5EE405AF1EE10FA708000F0EB81F4EE99
:10938000C66AF1EE10FA8CBFB0EE464AB0EE664AFD
:10939000C4EE054A9FED582A9FED565ADFED521A4A
:1093A000DFED522A9FED563ADFED543A9FED504AD9
:1093B000A4EE825AE4EEE12AE4EE855AA4EEA23A43
:1093C000B0EE655AF0EE635AE4EE835AA4EEA54A75
:1093D000C4EE055AF4EEC66AF1EE10FA48BFDFEDAE
:1093E000496A9FED490A48BF76EEE55AF7EE006AF2
:1093F000F4EEE67AF1EE10FAC8BFDFED447AB5EE8E
:10940000C07AC8BF77EEE55AF1EE10FA48BFF1EE28
:10941000655A25EE800A34F017F994ED228A00B2DD
:10942000B080D4ED267A2B780028B8BF00F56160B3
:10943000F4EEC87AB8BFB080F1EE10FA4CBF43F03A
:10944000080303F0F7032B70BDEC088B70BD9FED94
:109450001D2AB0EE425AF0EE425AF0EE424A25E59D
:1094600007EE900ADFED186AF8EEE77A67EEA66A73
:10947000AAB1DFED143A0021F0EE632AB0EE631AD0
:10948000F0EE631A47E5B0EE476AF2E500229FED81
:109490000D3A0E4E0E4DD8E49FED0A6AE9E59FEDB8
:1094A000096AF0EE467AF0EE463A0FE6DFED057A0D
:1094B000F0EE673A0AE600BFA04C00200000002052
:1094C0002C4D002000000000BD378635304D0020B7
:1094D000C04C0020306E99BC2716983DA40DC93FA2
:1094E000843459BE4C3D0F4439094E3DE3B59E3E90
:1094F000A7DFA83469A2163E99FB243F45FE7F3FB3
:1095000088FA163EDB0FC93F4C3D0FC4DB0F4940C4
:10951000D4ED215A94ED228AB0EEE57AF0EEC86AD5
:10952000F4EEC76AF1EE10FAB4BFF0EE477AF0EE4F
:10953000667AF5EE407AF1EE10FA00F00881F4EE6A
:10954000C76AF1EE10FA8CBFB0EE475AB0EE665A19
:1095500085EE276A5FED1C2A5FED1C3A1FED184A65
:109560005FED1A4A1FED1C3A5FED1E7A1FED205A7F
:10957000E6EE623AE6EE037AA6EE234AA6EE27BAB4
:10958000E6EE044AF0EE4B7AA6EE245A85EE0B6A1C
:10959000F4EEC76AF1EE10FA48BF5FED267A1FEDD0
:1095A0002F0AB5EEC08A48BF37EEC66AF1EE10FA50
:1095B00048BF5FED2A7AF5EEC05A48BF37EEC66A5B
:1095C000F1EE10FA48BFB1EE466A26EE000A34F01A
:1095D0003BF894ED205A5FED414A1FED416A5FED83
:1095E000406A5FED427A3080B0EEC57AF7EE005AFD
:1095F00075EEC75AA7EE246AB1EEE50AE7EE066AF1
:10960000B5EEC05AE7EE267AF1EE10FAC8BF1FEDAC
:10961000417A67EE807A1FED4D0AC8BF77EE677A10
:109620001FED487A77EE677A27EE800A34F00CF85F
:1096300094ED1D6AD4ED1A5A7080F0EEC67AB0EE41
:10964000E57AB4EEE77AF1EE10FAB4BFB0EE675AFD
:10965000B0EE475AB5EE405AF1EE10FA74D0B4EEBF
:10966000E77AF1EE10FA8CBFF0EE674AF0EE474A67
:10967000C4EE856A1FED642A1FED645A1FED603A3F
:109680001FED624A5FED642A5FED663A5FED684A5E
:10969000A6EEC25AE6EEA23AA6EE853AB7EE005A18
:1096A000A6EE834AA6EEA35AE6EE844AC4EE856A85
:1096B000B4EEE77AF1EE10FA48BF5FED6E7A1FED77
:1096C0006E0AF5EEC05A48BF77EEE66AF1EE10FA80
:1096D00048BF5FED727AB5EEC06A48BF77EEE66AC2
:1096E000F1EE10FA48BFF1EE666A26EE800A33F01A
:1096F000ABFF00B2B08094E6C4F81032C4F8143264
:10970000C4F8183200E53C4B1A6844F61F639A42CD
:109710003FF601ADB2EE047A24EE074AFBE427EEF1
:10972000267AE3EE872AA7EE873AA6EE074AC4ED2B
:10973000842A74EEA24A84ED853A75EE835A84ED4C
:10974000864A35EE045ADFE4DFED2C6AB0E79FED80
:109750002B6A1DE7DFED295A3CE69FED287A9AE552
:1097600012F020023FF46CAB13F002033FF468AB3D
:10977000234B1A7D042A7FF663ABDA89B2F5967F14
:1097800032D31B8A1F4EDFED206A9FED207A07EE51
:10979000903AB6F9043003EE103AF8EEE77AB8EEF4
:1097A000C33A0A46A7EEE63A002123EE073AFFF74E
:1097B0004CBBDFED177AB4EEE77AF1EE10FA44BF56
:1097C000DFED147A37EEC77A41E4B0EE677AFFF73F
:1097D000CEBBF0EE437AFFF7B4BBB0EE677A2AE473
:1097E000F0EE477AFFF7E5BB00219FED0B3A054EFF
:1097F0000A46FFF72ABB00BF64930020A7DFA83406
:10980000C0B20020304D0020CDCCCC3D35FA8E3C8E
:10981000DB0FC9BFDB0F49C000000000F8B50D4CDD
:109820000D4E04F1200716F8013BFF2B18460CD013
:109830001BF010F8257963794540EDB2AB4204D0B6
:109840002946206820F080FF65710834BC42EAD1C7
:10985000F8BD00BF78A500206CA5002020B10078DD
:10986000B0FA80F0400970470120704708B5202108
:1098700033F025FD0346184623B10278202A03F170
:109880000103F8D008BD70B50D461446FFF7EEFF92
:109890000646A0B133F0DEFB40F634039842A8BF81
:1098A0001846B0F5617FB8BF4FF461701923A0F579
:1098B000617090FBF3F028702378013323703046F9
:1098C000FFF7D4FF0646A0B133F0C4FB40F63403E3
:1098D0009842A8BF1846B0F5617FB8BF4FF46170D9
:1098E0001923A0F5617090FBF3F0687023780133C1
:1098F0002370304670BD0FB413B5084C084920687A
:1099000004AB53F8042B019322F070FA206821F085
:10991000E5F802B0BDE8104004B070474068002090
:10992000598B0008024B0146186821F0E5B800BFCA
:109930004068002038B5064D441E14F8011F286801
:1099400019B9BDE8384021F0C9B821F0D5F8F4E7DD
:10995000406800202DE9F0410379054603F030000E
:1099600020280E4614462BD10024284FDFF8A8806B
:1099700015E02B7903F00303022B15D0032B19D02C
:10998000012B14BF315D31573846FFF7B4FF6B79B7
:10999000013BA34202DD4046FFF7CCFF01346B7967
:1099A000A342E6DCBDE8F08136F814103846FFF734
:1099B000A2FFECE736F914103846FFF79CFFE6E704
:1099C00003F00303012B0DD00FD2097880B11028CA
:1099D000E8D16A790E4B53F83230BDE8F04153F8C4
:1099E0002100A7E791F90010F0E7B1F90010EDE7C9
:1099F0000648FFF780FF002CD4D0B5F90720B5F951
:109A000005100448BDE8F04175E700BFE80E040802
:109A1000DCF90308B40E0408B20E0408004889E714
:109A2000AF1E040810B5064C0B46024605492068D7
:109A300022F0DCF9206821F051F8BDE81040EDE794
:109A400040680020598B00080FB407B504A951F8ED
:109A5000040B0191FFF7E6FF03B05DF804EB04B0DF
:109A6000704713460A4601460048EDE7BB0E04085E
:109A7000F8B5037903F03003102B0AD0202B23D044
:109A80003BBBB0F90720B0F905101248BDE8F8401B
:109A9000DAE74579104E1148FFF74CFF06EBC50396
:109AA00000241F79BC4202D3BDE8F840B6E714B1E8
:109AB0000B48FFF73FFF56F835300A4853F824109B
:109AC000FFF719FF0134EDE741790748BDE8F84099
:109AD000BAE7F8BDD40E0408DCF90308EB0E04085D
:109AE000B20E0408A7210408FB0E04080CB407B545
:109AF00010F0200009D069B92320FFF713FF05A952
:109B000004980191FFF78EFF012003B05DF804EB8C
:109B100002B070470020F8E70CB4C30607B500D5C3
:109B200051B905A904980191FFF77CFF012003B00A
:109B30005DF804EB02B070470020F8E708B5FFF7C6
:109B4000F9FEBDE8084069E70048F7E70C0F040894
:109B500010B504460348FFF7EDFE2046BDE810406F
:109B6000ECE700BF180F04082DE9F041D94F438CF2
:109B70002DED068BD7ED878AB6EE007AC7EE287AF0
:109B80000546FCEEE77A17EE904A9C421AD2828C88
:109B9000944200F23B81D04BC7F820322E8C16B194
:109BA000B44280F0E280CC4BC7F87432EB8B13B137
:109BB0009C4280F03081BDEC068BC74BC7F86C36F9
:109BC000BDE8F081002BE6D0828C002AE3D007EEBE
:109BD000903AB8EE678A07EE902AB8EE670ABF4B54
:109BE000C7F8203288EE000A33F090FC30EE00AA6D
:109BF000B0EE000AF0EE4A0A33F072FDF6EE009A7B
:109C0000B0EE409A6AEE290AB0EE000A33F068FD21
:109C1000B34A9FEDB47AD2ED007ADFEDB35AB34B7D
:109C20009FEDB33ADFEDB33ADFEDB31A9FEDB32A00
:109C3000DFEDB32A9FEDBA1ADFEDB86ADFEDB14A66
:109C400089EE800A03F14806002246F82230F8EE39
:109C5000677A67EE877AB7EE007A27EE888A39EE60
:109C6000479AFDEEC87A78EE250A17EE901AFDEEB7
:109C7000E07A203117EE900A402929EE000A00F11F
:109C800020006BD8B4EEC38AF1EE10FA40F385825F
:109C9000B0EE487A9FEDA46A01E0B0EE677AB4EEC8
:109CA000C67AF1EE10FA77EE667AF6DCF4EEE37A35
:109CB000F1EE10FA40F174829FED9C6A01E0F0EE43
:109CC000477AF4EEC67AF1EE10FA37EEA67AF6D4B9
:109CD000B4EEE57AF1EE10FA40F3B88133EE477A4C
:109CE00067EE077AB0EE426AA7EEA16AB0EE625A5A
:109CF000A7EE865A67EE277AB7EE004AA7EE857A76
:109D0000B0EE446AF0EE447AA7EE006AE7EE407ADD
:109D100084EE065A87EE864A402840F25281B0EE21
:109D2000647AC7EE067A243303ED095A43ED087AC4
:109D300043ED067A03ED075A03ED054A43ED034A66
:109D400043ED044A43ED014A43ED024A002A7FF401
:109D500025AF0122402946F8223093D9B7EE004AB8
:109D6000B0EE445AB0EE446AD6E795F82630012B9F
:109D70006AD0C0F07381022B7FF415AF584BDFF827
:109D800098811B88C7F8788200EE103A4FF4F87279
:109D90005D4BC7F8743200214046B8EE408A33F07C
:109DA00077FAF3B200EE103AB8EEC00A9FED579A78
:109DB00020EE080A89EE000A33F046FC7828A8BF96
:109DC00078200128B8BF012008F5F87384462E8C4E
:109DD000C7F884C218464FF4F8720021C7F87C32E5
:109DE00033F056FAF3B200EE103AB8EEC00A20EEA5
:109DF000080A89EE000A33F027FC7828A8BF7820EB
:109E00000128B8BF0120C7F87404CFE6A3B2002A26
:109E10003FF4C1AEDBE6DBB207EE903ADFED446A19
:109E20003B4A3C4BC7F86026F8EEE77AC7F86C3639
:109E300086EEA77A77EE287A88EEA77ABDEC068BB5
:109E400082ED017ABDE8F081254B9FED267AD3EDB6
:109E5000006A9FED254A304B204A9FED252ADFED11
:109E6000252ADFED250A9FED251ADFED251ADFED06
:109E7000255AC7F8742207EE906AF8EE666AF8EE83
:109E8000677A66EE876AB0EE443A66EEA76AA3F197
:109E90000806FDEEE67A36EE844A17EE900AFDEEED
:109EA000C47A203017EE901A00222031F7EE004AD3
:109EB000402846F8223000F2EC80F4EEC26AF1EE5F
:109EC00010FA40F37981B0EE667A9FED145A9FED57
:109ED000166A31E0D028002065810208CD7B020897
:109EE000F06B002027D4D236DB0FC93FF42A0020C4
:109EF000DB0F4940DB0F49C092E741B99730083C7E
:109F000015A82ABE00000000E5800208002474495C
:109F1000342F002049810208502B0020DB0FC9405C
:109F2000DB0FC9BFF304353FE4CB1641E4CB16C1C8
:109F300083F9223EB0EE677AB4EEC67AF1EE10FAFB
:109F400077EE457AF6DCF4EEE27AF1EE10FA40F1C3
:109F500030811FED0E5A1FED0B6A01E0F0EE477ADB
:109F6000F4EEC67AF1EE10FA37EE857AF6D4B4EE56
:109F7000C37AF1EE10FA00F3BB805FED177AB4EE0E
:109F8000E77AF1EE10FA48BF32EEC77A67EE077A49
:109F9000F0EE413AE7EEA03AB0EE610AA7EEA30A6E
:109FA00027EE275A1FED216AA5EE007AF0EE643AFB
:109FB000F0EE647AE7EE063AE7EE467A87EEA30A19
:109FC0006BE0B4EEE58AF1EE10FA40F3EF80B0EE0C
:109FD000607A1FED2B9A01E0B0EE677AB4EEC97A91
:109FE000F1EE10FA77EE667AF6DCF4EEE37AF1EE53
:109FF00010FA40F1D8801FED339A01E0F0EE477A75
:10A00000F4EEC97AF1EE10FA37EEA67AF6D4B4EE91
:10A01000E57AF1EE10FA68DCB4EEC17AF1EE10FAEE
:10A0200048BF33EEC77A67EE077AF0EE429AE7EE62
:10A03000A19AB0EE62AAA7EEA9AA67EE277AB8EEB7
:10A04000009AA7EE8A7A27EE097A6AE6B4EEC17A18
:10A05000F1EE10FA48BF33EEC77A41E6F6B207EEEA
:10A06000906A5FED4D6A594B594AC7F87832B8EE9D
:10A07000E77A0833C6EE877AC7F87C32C7F87422CD
:10A0800077EEA87A88EEA77A87EDA17A87EDA37A92
:10A090008CE5B7EE000AF0EE403A40292BD9B0EE3D
:10A0A000657AB6EE006AB7EE005AC4EEA37A24339E
:10A0B00003ED050A27EE866A27EE855A27EE877A92
:10A0C00003ED096A03ED076A03ED085A03ED067A0A
:10A0D00043ED035A43ED045A43ED015A43ED025A4E
:10A0E000002A7FF463AD0122E2E633EE477A9AE775
:10A0F00032EE477A4AE7F4EEC36AF1EE10FA61DD18
:10A10000B0EE447A9FED335A9FED336A01E0B0EE32
:10A11000677AB4EEC67AF1EE10FA77EE457AF6DC9D
:10A12000F4EEE27AF1EE10FA49D59FED2A5A9FED4E
:10A130002B6A01E0F0EE477AF4EEC67AF1EE10FAFF
:10A1400037EE857AF6D4B4EEC37AF1EE10FA1ADD62
:10A1500032EE477A67EE077AB0EE416AA7EEA06A60
:10A16000B0EE615AA7EE865A67EE277AB8EE008AFB
:10A17000A7EE857AB6EE006A34EEC75A27EE087A63
:10A1800025EE066A91E7DFED167AB4EEE77AF1EE96
:10A1900010FA48BF32EEC77ADCE7F0EE487A85E580
:10A1A000B0EE677A94E5B0EE677A30E7F0EE607A69
:10A1B0001BE7B0EE677ADAE6F0EE667AC3E6B0EE59
:10A1C000677AC0E7F0EE447AAAE700BF502B002080
:10A1D00049810208DB0FC940E4CB1641E4CB16C12C
:10A1E000DB0FC9BF012800D970470129FCD888427C
:10A1F000FAD0064B00EB800001EB810103EB01116B
:10A2000003EB0010502232F029BF00BFBA7A0020C1
:10A2100038B52DED068BA04AA04B11781B68DFEDF9
:10A22000A07AA04AA04D03FB01F307EE103AB8EE66
:10A23000478A136028EE278A044685ED878A002B1B
:10A2400040F02681994BC5F82032C5F87432C5F824
:10A250006C3694F83830E179DFED955A9FED95AA88
:10A260002279DFED951A9FED950A9FED959ADFED26
:10A27000958ADFED959A9FED953A07EE903A6378CF
:10A2800007EE103AF8EEE77A01EE101AB8EEC77A48
:10A2900021788F4BC5EEA76A184627EE0A7A02EEA0
:10A2A000101AE178C3ED0A6A02EE901A17EE101A3E
:10A2B00040F80C1FA17903EE901A94F8391004EEBF
:10A2C000101A617D04EE901AA17D06EE102A05EEAB
:10A2D000101AA278617900EE902A06EE901A94F88E
:10A2E0003120217A07EE901AC2F1AF0105EE901AE3
:10A2F000F8EEE00AB8EEC66AC2F16402E17D26EE2D
:10A300000A6A07EE102AF8EEE55A60EEA10A1A462C
:10A3100080ED016AB8EEC11A25EE806AB8EEC22A55
:10A3200005EE901AF8EEE22A10EE901AF8EEE33AF3
:10A33000B8EEC44AF8EEE44AB8EEC55AF8EEE66A5A
:10A34000F8EEE77AB8EEC77A42F8181F63EE893A5A
:10A3500024EE294A64EEA84A25EE285A21EE0A1A6C
:10A3600022EE092A62EE892AF8EE655A66EEA16AA3
:10A3700067EEA17A27EE037A94F83210C2ED016AF3
:10A38000C2ED027A80ED021AC3ED023A83ED094A6A
:10A39000C3ED0B4A83ED0C5AC3ED0D5A83ED0F6AE2
:10A3A00085F8A81683ED002AC3ED012A83ED107A03
:10A3B00094F82820A08F618F07EE902AF7EE006AAC
:10A3C000F8EE677AB0EE666AA7EEC36A94F84920A1
:10A3D00004EE102A642202FB01F1C6EE863A02FB6B
:10A3E00000F2B4F8440007EE902AB4F84020C3ED20
:10A3F000143A04EE902AE28F05EE102AB4F84220B7
:10A4000007EE101A05EE902AB4F84C20B8EEC77A81
:10A41000F8EEE77A06EE102AB4F84E2067EE887A56
:10A4200027EE087ABDEC068B06EE902A94F84820B9
:10A43000B4F8464083ED137A4FF47A71B8EE444A8B
:10A44000F8EE644AB8EE455AF8EE655AB8EE466A38
:10A45000F8EE666A02EB820201FB00F0520001FB9B
:10A4600004F183ED184AC3ED194A83ED1A5AC3ED7E
:10A470001B5A83ED1C6AC3ED1D6AC3ED127AC3ED4E
:10A48000117AC5F8CC26C5F8C406C5F8C81638BD7B
:10A49000FFF76AFBDDE600BF46680020BC7C0020B9
:10A4A000BD378635F06B0020D0280020658102087A
:10A4B0000000C842033F7A3E97AC0A3A6666E63F20
:10A4C000D730033DCDCCCC3D0402013C0AD7233C20
:10A4D000402F002070B42DED068B90F831200178CC
:10A4E00090F838309FED9E7A9FED9EAADFED9E8A10
:10A4F000DFED9E5ADFED9E9A9FED9E9ADFED9E0A5C
:10A50000DFED9EAA01EE101AC2F1AF01C2F16402A2
:10A5100006EE102A027907EE903A03EE102AC2796D
:10A52000974BF8EEE77A03EE902A827887EE278A37
:10A5300003F5CE6403F5D36503F2946604EE102AA6
:10A54000427985ED008A04EE902A027A00EE101A14
:10A5500006EE902AC17890F8392001EE901A05EEA7
:10A56000102A8179427D02EE101A07EE102A4178F6
:10A57000827D02EE901A07EE902AB8EEC00AC27DE4
:10A58000B8EEC11AF8EEE11AB8EEC22AB8EEC44A23
:10A59000F8EEE44AF8EEE66AB8EEC66AF8EEE22AA9
:10A5A000B8EEC33AF8EEE33AB8EEC55AB8EEC77A59
:10A5B000F8EEE77A24EE284A64EEA84A66EEA86A26
:10A5C00020EE250A21EE0A1A05EE902A61EE8A1A7B
:10A5D00090F8322083F8A82622EE0A2A03F5D162E9
:10A5E00025EE2A5A27EE097A67EE897A03F2AC61E2
:10A5F00026EE206A62EEA92A23EE293A63EEA93AF2
:10A6000081ED000A03F29C6503F27C6182ED004A51
:10A61000C2ED014AC2ED026A84ED001A03F5D6626A
:10A62000C4ED011A84ED022A03F5D46486ED005AC4
:10A6300085ED007AC1ED002A81ED013AC1ED023AC3
:10A64000C4ED007A82ED006A90F82820468FD3EDA1
:10A65000876A90F8484007EE902AB7EE007AF8EE45
:10A66000677AB0EE476AA7EEE06A03F2A4614FF49E
:10A670007A75F8EE655AF0EE467AC1ED005A87EE2B
:10A68000276AB0F84410828F05FB01F1C3F8C416A5
:10A6900090F84910BDEC068B04EB840404EE101A0C
:10A6A000642101FB02F207EE902A01FB06F2B0F8EA
:10A6B000401004EE901AC18F05EE101AB0F8421047
:10A6C00007EE102A05EE901AB0F84C1003F5D86288
:10A6D00082ED006AF8EEE77A06EE101AB8EEC77A55
:10A6E000B0F84E10B0F8462067EEA67A27EE267A2C
:10A6F00006EE901A05FB02F26400B8EE444AF8EE4A
:10A70000644AB8EE455AF8EE655AB8EE466AF8EE75
:10A71000666AC3F8CC4603F2B461C3F8C82603F5F1
:10A72000DA6603F2D46503F5DB6403F2DC6003F55B
:10A73000DC6203F2E46381ED027AC1ED017AC1EDDE
:10A74000007A86ED004AC5ED004A84ED005AC0ED5E
:10A75000005A82ED006AC3ED006A70BC704700BF0A
:10A760000000C842D730033D97AC0A3A6666E63F20
:10A77000033F7A3ECDCCCC3D0AD7233C0402013CBA
:10A78000D0280020334B1B78012B2BD1324B1B6878
:10A79000B0F57A7F03F4805308DADFED307A9FED6D
:10A7A000300A002B08BFB0EE670A7047B0F5FA6FA9
:10A7B0001DDCFBB9B0F57A7F20D06FF47A7340F2DC
:10A7C000CF721844274B02FB00F0A3FB0023C01AF2
:10A7D00003EB50035B0A30339BB200EE103AB8EE45
:10A7E000400A704707EE900AB8EE670A70479FED7F
:10A7F0001E0A704740F2DC53984202D19FED170ABF
:10A80000704740F2DB53984211D9A0F2DD5040F27C
:10A81000E73303FB00F340F2F31293FBF2F303F58B
:10A8200083639BB200EE103AB8EE400A7047A0F581
:10A830007A70A3F6C21303FB00F340F2F31293FB0A
:10A84000F2F303F217439BB200EE103AB8EE400A5F
:10A85000704700BF46A70020B8B2002000000000EB
:10A8600000E08244410A680600E0FF442DE9F84F09
:10A87000334B1B78B3B1334A116809B1002008602B
:10A88000012B0FD0916909B100200860022B09D07B
:10A89000116B09B100200860032B03D0936C0BB13E
:10A8A00000221A601FF0DCFA274F284A284E294957
:10A8B000DFF8A4C04FF0100E4FF47A744FF0010887
:10A8C00040F2DB557368C3F30803CBB9EFF3118390
:10A8D000B3B91368D1F808A000BFD2F800904B4577
:10A8E000F7D1D7F8009004FB09FBABEB0A0ABAFBDF
:10A8F000F9FA04FB03A31B1AAB42E3D9BDE8F88FB6
:10A90000EFF3118A8EF31288D1F808B00B68DB03DD
:10A9100044BFCCF80080D1F808B01368DCF8009090
:10A920005FFA8AFA8AF31188D7F800A04B4404FB37
:10A930000AF9A9EB0B09B9FBFAF904FB0393DAE76F
:10A94000154A0020D4A600203C95002064930020E6
:10A9500000ED00E010E000E0389500202DE9F84F10
:10A96000424B434DD3ED007A2878424B1A780028A9
:10A9700078D0FDEEE77A012817EE903A1BB207EE89
:10A98000903A3D4BF8EEE77AC3ED007A09D0022801
:10A99000C3ED017A05D00328C3ED027A01D0C3EDDF
:10A9A000037A002A4ED1354C354F364E364DDFF8FE
:10A9B000E4804FF0320A4FF010091FF051FA4FF4C3
:10A9C0007A727368C3F30803E3B9EFF31183CBB969
:10A9D0002368A96800BFD4F800C06345F8D1D7F850
:10A9E00000C002FB0CFBABEB010EBEFBFCFE02FB4E
:10A9F00003E31B1AB3F57A7FE3D3BAF1010ADCD182
:10AA0000BDE8F88FEFF3118E89F31288D5F808B0FE
:10AA10002B68DB0304D50123C8F80030D5F808B053
:10AA20002368D8F800C05FFA8EFE8EF3118839686B
:10AA3000634402FB01FCACEB0B0CBCFBF1FC02FB26
:10AA400003C3D6E70C4E114F0024E0B23B68B6ECCE
:10AA5000010A9847287801348442F6DB0C4B1B68C6
:10AA60009847A0E7002A9ED0F8E700BF7869002049
