:020000040800F2
:10000000F0FF001001E20308E9CD0308DD58020803
:1000100031E3030831E3030831E303080000000083
:1000200000000000000000000000000075D403087C
:1000300071D40308000000006DD40308C151020808
:1000400031E3030831E3030831E3030831E3030834
:1000500031E3030831E30308B5590208E15A020805
:10006000A55A0208695A02082D5A020835350308B4
:10007000253503081535030805350308F134030851
:10008000DD340308C934030831E3030831E303080E
:1000900031E3030831E3030831E30308F1590208AF
:1000A00031E30308FD47020831E30308BD480208B5
:1000B00031E3030831E303083D470208D13A03085E
:1000C000D93A0308C53A0308CD3A030831E30308D7
:1000D00031E3030865540208C95302082D5302088E
:1000E0007959020831E3030879D40308F14402087E
:1000F000BD45020831E303087D460208B534030814
:1001000031E3030831E3030831E3030831E3030873
:1001100091520208F5510208BDBF0008A1BF0008B6
:10012000A13403088D340308792D030879340308BA
:100130006534030831E3030831E3030831E30308BE
:1001400031E3030831E3030831E30308EDCD03088D
:10015000513403083D3403082934030831E303080C
:10016000B93A0308C13A030831E3030831E303084D
:1001700031E3030831E3030831E3030831E3030803
:1001800031E3030831E30308A8DD030001000000A8
:1001900007020200F0340020343500200000000087
:1001A0004006000802000C009C3400203835002076
:1001B000000000000000000006020C009034002047
:1001C00044350020000000001190000808020900DA
:1001D0001A34002050350020000000002D8E000849
:1001E000F7010600143400205C35002000000000F8
:1001F000420600080A020A00D031002064350020BF
:10020000000000004806000827000400944B00206E
:100210007035002000000000520600080120080090
:1002200094310020743500200000000056060008BC
:100230001A000A00302900207C3500200000000050
:100240005E06000803123300B05100205E56002005
:10025000000000006806000825005A00E351002055
:10026000F45500200000000000000000F6110C0012
:100270006455002084550020000000009C06000802
:100280002C001000705500204E5600200000000089
:10029000F54E01082B002400A152002091560020A9
:1002A00000000000C54E0108290064003D520020F6
:1002B0009055002000000000000000001400020023
:1002C000945400208055002000000000A80600087B
:1002D0001010030084540020FC5600200000000091
:1002E000AA060008280010007454002000570020BF
:1002F00000000000192F0108190005006C540020AF
:100300001057002000000000AE060008F82106008B
:100310006E5000201857002000000000B4060008AE
:1003200022000C00686D0020386E002000000000E4
:10033000BA0600081B00F400BC580020446E0020E0
:1003400000000000E9CF01080E0202000460002056
:10035000386F002000000000C60600082F001100C2
:10036000006E00203C6F002000000000C80600085E
:10037000051006002C6E0020506F002000000000C9
:10038000DA060008F5216E0034580020586F00206E
:1003900000000000BDC7010826000E00D86F002035
:1003A000C86F00200000000095C701080B20100056
:1003B000A4580020E86F002000000000E0060008BC
:1003C0001F101C0014580020F86F002000000000CF
:1003D000F0060008050201005C5C0020147000209B
:1003E000000000000C07000803010A00A05A0020CA
:1003F00018700020000000000E070008160008001A
:10040000A8740020CC740020000000001807000829
:100410000E20EA00CE7B0020CC81002000000000EE
:100420004980000813000400747D0020B882002079
:100430000000000020070008010104004E7B00209E
:10044000BC82002000000000000000000001040049
:10045000467B0020C0820020000000002407000826
:1004600002010300417B0020C48200200000000044
:10047000698D00080902010004810020C882002063
:1004800000000000280700080C106000F27C00202B
:10049000CC820020000000003D8D00080102050014
:1004A000567B00202C83002000000000BD3C030888
:1004B00000020500247900203483002000000000A1
:1004C000000000001E000400D87E00203C830020B5
:1004D000000000002A070008130201005C8C0020C5
:1004E0001CC200200000000000000000040080008A
:1004F00018C1002020C20020000000000000000001
:10050000F9010400FCB50020A0C20020000000009A
:10051000FD320208FD011E00D8B50020A4C2002053
:10052000000000008D32020806101600F0A800201E
:10053000C4C200200000000031840008FB0101005B
:100540002CA80020DCC2002000000000B18D0008B3
:10055000FC010900F8A60020E0C200200000000015
:10056000F18D000811020800CCA60020ECC200208A
:10057000000000002E07000812120400C4A600208C
:10058000F4C20020000000003607000812200D0011
:10059000B0A60020F8C20020000000003A070008C2
:1005A0002300100080A6002008C3002000000000E7
:1005B000312F010818202C00ECA5002018C30020C2
:1005C00000000000B15701080D00340018A60020FB
:1005D00044C300200000000025900008FA0102003A
:1005E000C09F002078C3002000000000B936020838
:1005F00002020300848C00207CC300200000000065
:10060000000000000C020100748C002080C3002058
:100610000000000048070008FE010900949F002028
:1006200084C3002000000000578E00080A1030002C
:10063000E096002090C30020000000004A07000858
:10064000023C3F010000000000004A01B400D60156
:10065000260020030000E8036400040A00017E0570
:10066000EA05B405320000000000000000000000B0
:10067000000000000000000000000000000000007A
:10068000000000000000000000000000000000006A
:100690000000000000000000000001000000000059
:1006A0000000000000000000030000050000000042
:1006B000280100000200F4011900C800141E010006
:1006C00064002C0128000000000000000000000071
:1006D00000000000000000000000200001010000F8
:1006E0002B21231E64010100000001000A012900E2
:1006F00000000000000001000000050000000000F4
:1007000000000000000000000000000000000401E4
:1007100001006C1600000000651B0D00190128285F
:1007200008044510900100000000000001000000D6
:10073000000001010101FFFFFFFF000000010000B8
:100740000548455350000000010000300107015AE0
:100750000001000000000000000000000000010097
:10076000000030000100AC0D0600AC0D0600C4090D
:10077000060096009600960000000000803F0000F2
:10078000000000000000000000000000803F0000AA
:10079000000000000000000000000000803F00009A
:1007A00000000000000000000000000000002435F0
:1007B00000200800000000000000143500200800A0
:1007C0000000A5EA010829EA010819E30108000070
:1007D000000001CF010899EB010809CF010805CFFE
:1007E000010800000000000000005DBF01087590D6
:1007F00003083590030809CD030800000000AD8C04
:100800000308898F030809900308F18E030800008C
:10081000000000000000A18C03080000803F0000E1
:10082000803F24F703080508040000000000C01FF3
:10083000040804120408AC1F0408000000000000B3
:10084000000050F7030805080A0000000000C01F60
:10085000040804120408C41E04080000000000007C
:100860000000D6010000213F010800000000000048
:10087000000001006A00FFFFFFFF0902640003019E
:1008800000C0320904000001030000000921110129
:1008900000012226000705830308000A080B010255
:1008A0000202010009040100010202010005240006
:1008B000100105240100020424020205240601029D
:1008C000070582030800FF09040200020A00000075
:1008D000070501024000000705810240000000FFFB
:1008E000FF0000000000AA55050100000100000003
:1008F00001FFFF01000005010905A101A10005019B
:1009000009300931093209330935093409400938F8
:100910001581257F750895088102C0C00000090275
:100920002200010100E0320904000001030102007D
:100930000921110100012226000705830308000A8E
:100940000000000000000102030401020304060786
:1009500008092D202D2D202D2D2D2D202D2D2D2D37
:100960000000000000000000000000000000000087
:1009700000AA550B010000AA5507010000AA55095D
:1009800002000000000001000000C012AA55030090
:100990009F00FF1FFF1F34530408000000000000E9
:1009A00000007D8D0008A08601000400000000000A
:1009B0000000000000000000000000000000000037
:1009C0000000000000000000000094680408E85FD8
:1009D0000408000000006DD900087D00000006003A
:1009E0000000000000000000000000000000000007
:1009F0000000000000000000000000000000F05FA8
:100A00000408000000000000000069620208E8031A
:100A100000000300000000000000000000000000D3
:100A200000000000000000000000000000000000C6
:100A30000000F45F040800000000000000003D9288
:100A400000088813000005000000000000000000FE
:100A50000000000000000000000000000000000096
:100A600000000000000000600408000000003D4C91
:100A700001083D7C0208204E000005000000000037
:100A80000000000000000000000000000000000066
:100A900000000000000000000000CC54040800002A
:100AA000000000000000616C020810270000010037
:100AB0000000000000000000000000000000000036
:100AC00000000000000000000000000000000460C2
:100AD0000408000000000000000031310208E803B3
:100AE0000000050000000000000000000000000001
:100AF00000000000000000000000000000000000F6
:100B0000000010600408000000000000000095C410
:100B10000008204E0000030000000000000000005C
:100B200000000000000000000000000000000000C5
:100B30000000000000002060040800000000000029
:100B4000000081C20008204E0000030000000000E9
:100B50000000000000000000000000000000000095
:100B600000000000000000000000306004080000E9
:100B7000000000000000C5360208400D030003001D
:100B80000000000000000000000000000000000065
:100B90000000000000000000000000000000282904
:100BA0000408000000000000000071200108102768
:100BB0000000010000000000000000000000000034
:100BC0000000000000000000000000000000000025
:100BD0000000D454040800000000000000008D6FE5
:100BE00003081027000003000000000000000000C0
:100BF00000000000000000000000000000000000F5
:100C00000000000000004060040800000000000038
:100C100000004D830308A0860100010000000000D1
:100C200000000000000000000000000000000000C4
:100C3000000000000000000000006C290408000013
:100C4000000000000000D1AC0208A00F000001006D
:100C50000000000000000000000000000000000094
:100C600000000000000000000000000000004C60D8
:100C70000408000000000000000075DD01081027D6
:100C80000000010000000000000000000000000063
:100C90000000000000000000000000000000000054
:100CA0000000F85304080000000000000000B5290F
:100CB00002081A41000001000000000000000000CE
:100CC0000000000000000000000000000000000024
:100CD0000000000000002C55040800000000000087
:100CE00000006DC401081027000001000000000092
:100CF00000000000000000000000000000000000F4
:100D000000000000000000000000AC5F04080000CC
:100D1000000000000000055F03081A410000010008
:100D200000000000000000000000000000000000C3
:100D300000000000000000000000000000005860FB
:100D400004080000000000000000ADFA0108400D9A
:100D50000300000000000000000000000000000090
:100D60000000000000000000000000000000000083
:100D70000000606004080000000000000000D5AB27
:100D80000208400D03000000000000000000000009
:100D90000000000000000000000000000000000053
:100DA000000000000000686004080000000000006F
:100DB000000039750308A086010003000000000050
:100DC0000000000000000000000000000000000023
:100DD0000000000000000000000074600408000033
:100DE0000000000000004DC2000840420F0000005B
:100DF00000000000000000000000000000000000F3
:100E00000000000000000000000000000000806002
:100E1000040800000000000000009522010850C3F3
:100E200000000000000000000000000000000000C2
:100E300000000000000000000000000000000000B2
:100E4000000001000000FFFFFFFFFF010102FFFFA4
:100E50000000010000005001000007000000020037
:100E6000000000000000000000000102030406076B
:100E70000809E001010101000000AD3E0308000087
:100E80000000740800200C6F04080000000000003F
:100E90000000000000000000000050700408000086
:100EA0000000000000000009002004000000B86EEF
:100EB00004080D00000051590308C0230020000061
:100EC0000000046804080D00000079590308B423E9
:100ED0000020000000007469040808000000000001
:100EE0000000A823002004000000706804080D0022
:100EF0000000613F03089C230020000000002469DB
:100F0000040803000000895B030890230020000010
:100F100000001C6F040803000000895B03088423A1
:100F200000200000000060650408010000000000CF
:100F300000000000000000000000000000000E00A3
:100F400000000000000000000000000000000C6F26
:100F50000408000000000000000000000000000085
:100F600000005070040800000000000000000009AC
:100F7000002004000000646E040803000000B54A6D
:100F800003087823002008000000706804080D00A2
:100F90000000613F03089C2300200000000024693A
:100FA000040803000000895B030890230020000070
:100FB00000001C6F040803000000895B0308842301
:100FC000002000000000606504080100000000002F
:100FD00000000000000000000000000000000E0003
:100FE0000000000000000000000000000000246F6E
:100FF00004080000000000000000000000000000E5
:10100000000050700408000000000000000000090B
:101010000020040000006C6E040803000000895BDF
:101020000308CC23002000000000606504080100D4
:1010300000000000000000000000000000000000B0
:1010400000000E0000000000000000000000000092
:10105000000020700020702D7200080000000000C9
:10106000000000000000341F0020FFFFFFFFFA0017
:10107000000001000000010000002D202D2D202D7A
:101080002D2D2D202D2D2D00000000000000000032
:1010900000000000000000000000346504083C650A
:1010A000040858650408000000000000000000006B
:1010B000000000000000CC64040804000000195780
:1010C0000308000000000000000060650408010043
:1010D0000000000000000000000000000000000010
:1010E00000000E00000000000000000000000000F2
:1010F0000000CAC100200100C40900000000C8C1EE
:1011000000200100C40900000000C6C10020010049
:10111000C40900000000C4C100200100C40900008F
:101120000000C0C100200100C40900000000C2C1CD
:1011300000200100C40900000000BEC10020010021
:10114000C40900000000BCC100200100C409000067
:101150000000687B00200100C80001000000667BE1
:1011600000203200307532000000647B0020055AF8
:101170000500617B002000FF0100637B002001006F
:101180000000200900205F7B002002000000001307
:101190000408607B002000FF0100627B002001004A
:1011A0000000200900205E7B0020020000000013E8
:1011B0000408547B002080C1803E05000000527B63
:1011C000002080C1803E050000004C7B002080C1D3
:1011D000803E050000004A7B002080C1803E050063
:1011E0000000447B002000FF0100407B00200A3209
:1011F00001003F7B002004000000A41E04083E7B89
:10120000002002000000B81E0408000000000000DA
:10121000000028090020145C00209CFF2C01000025
:101220000000FA0600200A000000C41E0408347BF7
:101230000020E0150C1700000000FC06002008004C
:10124000000004120408FB06002005000000C01F77
:101250000408367B002002000000DC1E0408667DC6
:1012600000200100FF7F01000000657D00200200DA
:101270000000E81E0408C37B002003000000F81EE5
:101280000408C27B002003000000F81E0408CA7C8A
:1012900000200000FF0001000000C87C00200000CA
:1012A000FF0001000000C67C00200000FF000100DC
:1012B0000000C47C00200000803E01000000C27CD1
:1012C00000200000803E32000000C07C00200000B2
:1012D000803E01000000BE7C00200000803E320005
:1012E0000000BC7C00200000803E01000000BA7CB1
:1012F00000200000803E32000000B87C002000008A
:10130000FF0001000000D47C00200000F401010077
:101310000000D27C00200000F40101000000D07C1D
:1013200000200000F40101000000CE7C002000003D
:10133000F40101000000CC7C002000FF0100F07CE3
:101340000020E803D0070A000000EE7C00200064C3
:1013500001000A000000E37C002000640100E27C40
:10136000002000640100EA7C0020006401000A0003
:101370000000E97C0020006401000A000000E87C15
:101380000020006401000A000000ED7C00200064E1
:1013900001000A000000EC7C0020006401000A004B
:1013A0000000EB7C0020006401000A000000E77CE4
:1013B000002000FF01000A000000E67C002000FF82
:1013C00001000A000000E57C002000FF01000A0087
:1013D0000000CA7B00200000F40101000000C87B6F
:1013E00000200000F40101000000C67B0020000086
:1013F000F40101000000C47B00200000F4010100A2
:101400000000DE7C00201400E80301000000DC7C0A
:101410000020E803307501000000DB7C002000C8DC
:101420000100DA7C002000C80100D97C002000C83F
:101430000100D87C0020016401000A000000D77C74
:10144000002000FF01000A0000005B7D002000C8B2
:1014500001005A7D002000C80100597D002000C80D
:101460000100587D002000C80100577D002000C801
:101470000100567D002000C80100557D002000C8F5
:101480000100547D002000C80100537D002000C8E9
:101490000100886504080000000000000000000052
:1014A000000000000000986504080900000000002A
:1014B0000000CC09002004000000A0650408090019
:1014C000000000000000C0090020040000004C6C77
:1014D00004080900000000000000B4090020040016
:1014E00000005C6204080900000000000000A80978
:1014F000002004000000A8650408090000000000A6
:1015000000009C09002004000000B06504080900E8
:101510000000000000009009002004000000B865F1
:1015200004080900000000000000840900200400F5
:101530000000C065040809000000000000007809F0
:1015400000200400000060650408010000000000A5
:1015500000000000000000000000000000000E007D
:101560000000000000000000000000000000F8661D
:10157000040800000000000000000000000000005F
:101580000000E85204080700000000000000F00915
:1015900000200000000008670408080000000000A8
:1015A0000000E4090020000000001467040808009F
:1015B000000000000000D809002000000000606565
:1015C000040801000000000000000000000000000E
:1015D0000000000000000E000000000000000000FD
:1015E0000000000000001C6704080000000000006C
:1015F000000000000000000000002C6704080D003F
:101600000000000000002C0A0020000000003467E9
:1016100004080D00000000000000200A0020000067
:1016200000003C6704080700000000000000180AE2
:10163000002000000000446704080D0000000000C6
:1016400000000C0A0020000000004C6704080D0098
:10165000000000000000000A0020000000005467A5
:1016600004080700000000000000F8090020000046
:101670000000606504080100000000000000000098
:10168000000000000000000000000E00000000004C
:10169000000000000000000000005C67040800007B
:1016A0000000000000000000000000000000E85200
:1016B00004080C000000000000006A7B002000000D
:1016C0000000706704080C000000000000006C7B44
:1016D000002000000000806704080C0000000000EB
:1016E0000000A27B002000000000906704080C00AE
:1016F000000000000000967B002000000000A467AE
:1017000004080C000000000000006E7B00200000B8
:101710000000BC2804080C00000000000000707BE2
:10172000002000000000B06704080C00000000006A
:101730000000727B002000000000C46704080C0059
:10174000000000000000747B002000000000CC6757
:1017500004080C00000000000000767B0020000060
:101760000000D46704080C00000000000000B47BF7
:10177000002000000000EC6704080C0000000000DE
:101780000000787B002000000000F86704080C00CF
:101790000000000000007A7B0020000000007C5F59
:1017A00004080C000000000000007C7B002000000A
:1017B0000000006804080C000000000000007E7BB0
:1017C0000020000000000C6804080C00000000006D
:1017D0000000807B002000000000186804080C0056
:1017E000000000000000827B002000000000246850
:1017F00004080C00000000000000847B00200000B2
:101800000000306804080C00000000000000867B27
:101810000020000000003C6804080C0000000000EC
:1018200000009A7B002000000000446804080C00BF
:10183000000000000000987B0020000000004C68C1
:1018400004080C00000000000000A67B002000003F
:101850000000586804080C00000000000000A87B8D
:10186000002000000000646804080C000000000074
:101870000000AE7B002000000000506604080C0051
:10188000000000000000887B00200000000070685D
:1018900004080C00000000000000907B0020000005
:1018A0000000786804080C000000000000008A7B3B
:1018B000002000000000846804080C000000000004
:1018C00000008C7B002000000000906804080C00E1
:1018D0000000000000008E7B0020000000009868DF
:1018E00004080C00000000000000927B00200000B3
:1018F0000000085304080C000000000000009C7B5E
:10190000002000000000A46804080C000000000093
:101910000000947B002000000000B06804080C0068
:10192000000000000000A47B002000000000BC6854
:1019300004080C000000000000009E7B0020000056
:101940000000C46804080C00000000000000A07B38
:10195000002000000000CC6804080C00000000001B
:101960000000AA7B002000000000D46804080C00DE
:10197000000000000000AC7B00200000000060655B
:10198000040801000000000000000000000000004A
:101990000000000000000E00000000000000000039
:1019A000000000000000DC680408000000000000E7
:1019B00000000000000000000000E86804080D00BE
:1019C000000000000000840A002000000000F06811
:1019D00004080D00000000000000780A002000004C
:1019E0000000F86804080700000000000000700A0A
:1019F0000020000000000469040807000000000047
:101A00000000680A002000000000106904080900B6
:101A10000000000000005C0A0020000000001C69BB
:101A200004080900000000000000500A0020000027
:101A30000000286904080900000000000000440AB2
:101A400000200000000038690408090000000000C0
:101A50000000380A00200000000060650408010052
:101A60000000000000000000000000000000000076
:101A700000000E0000000000000000000000000058
:101A800000004C6904080000000000000000000095
:101A90000000000000005C69040805000000000070
:101AA0000000C17B00200000000060650408010008
:101AB0000000000000000000000000000000000026
:101AC00000000E0000000000000000000000000008
:101AD000000064690408000000000000000000002D
:101AE000000000000000507004080000000000002A
:101AF0000000D801002004000000706904080D00F7
:101B000000007D570308D80A002000000000B86ECE
:101B100004080D000000653E0308CC0A0020000008
:101B20000000046804080D000000493E0308C00AD4
:101B30000020000000007469040808000000000094
:101B40000000B40A002004000000706804080D00C2
:101B50000000913D0308A80A0020000000007C69F5
:101B6000040809000000000000009C0A0020040096
:101B700000002469040803000000895B0308900A40
:101B80000020000000006065040801000000000063
:101B900000000000000000000000000000000E0037
:101BA0000000000000000000000000000000846948
:101BB0000408000000000000000000000000000019
:101BC0000000946904080D00000000000000F00A05
:101BD0000020000000009C6904080A0000000000CA
:101BE0000000897E002000000000A86904080A00A7
:101BF000000000000000917E002000000000B0699D
:101C000004080A00000000000000997E0020000087
:101C10000000B86904080800000000000000E40AA1
:101C2000002000000000C069040804000000215DDD
:101C300003080000000000000000606504080100C7
:101C40000000000000000000000000000000000094
:101C500000000E0000000000000000000000000076
:101C60000000CC6904080000000000000000000033
:101C7000000000000000E06904080D000000000002
:101C80000000080B002000000000F06904080400B8
:101C90000000C55903080000000000000000F869BA
:101CA00004080D00000000000000FC0A00200000F5
:101CB00000000C6A040804000000A1590308000099
:101CC0000000000000006065040801000000000042
:101CD00000000000000000000000000000000E00F6
:101CE0000000000000000000000000000000146A76
:101CF00004080000000000000000000000000000D8
:101D00000000C02904080800000000000000800B4B
:101D1000002000000000286A0408080000000000FD
:101D20000000740B002000000000306A0408080066
:101D3000000000000000680B002000000000386A6E
:101D4000040808000000000000005C0B00200000F8
:101D50000000406A04080800000000000000500B6A
:101D6000002000000000486A04080800000000008D
:101D70000000440B002000000000506A0408080026
:101D8000000000000000380B002000000000586A2E
:101D9000040808000000000000002C0B00200000D8
:101DA0000000646A04080800000000000000200B26
:101DB000002000000000706A040808000000000015
:101DC0000000140B00200000000060650408010002
:101DD0000000000000000000000000000000000003
:101DE00000000E00000000000000000000000000E5
:101DF0000000786A040800000000000000000000F5
:101E00000000000000008C6A0408070000000000C9
:101E10000000BC0B002000000000986A04080800C5
:101E2000000000000000B00B002000000000A46AC9
:101E300004080800000000000000A40B00200000BF
:101E40000000B06A04080800000000000000980BC1
:101E5000002000000000BC6A040808000000000028
:101E600000008C0B002000000000606504080100E9
:101E70000000000000000000000000000000000062
:101E800000000E0000000000000000000000000044
:101E90000000C86A04080000000000000000DB0821
:101EA000002000000000D46A04080B0000000000BD
:101EB00000004C0C002000000000E06A04080B0049
:101EC000000000000000400C002000000000EC6A50
:101ED00004080B00000000000000340C002000008B
:101EE0000000F86A04080B00000000000000280C45
:101EF000002000000000046B04080B00000000003C
:101F000000001C0C002000000000106B04080B00F7
:101F1000000000000000100C0020000000001C6BFE
:101F200004080B00000000000000040C002000006A
:101F30000000286B04080B00000000000000F80BF4
:101F4000002000000000346B04080B0000000000BB
:101F50000000EC0B002000000000406B04080700AC
:101F6000000000000000E40B002000000000486BAF
:101F700004080700000000000000DC0B0020000047
:101F80000000546B04080B00000000000000D00BA0
:101F9000002000000000606B040808000000000042
:101FA0000000C40B00200000000060650408010070
:101FB0000000000000000000000000000000000021
:101FC00000000E0000000000000000000000000003
:101FD00000006C6B0408000000000000000000001E
:101FE000000000000000806B0408080000000000F2
:101FF00000007C0C0020000000008C6B040808002E
:10200000000000000000700C002000000000986B31
:1020100004080800000000000000640C002000001C
:102020000000706A04080800000000000000580C5E
:1020300000200000000060650408010000000000AE
:1020400000000000000000000000000000000E0082
:102050000000000000000000000000000000A46B71
:1020600004080000000000000000D8080020000064
:102070000000B46B04080B00000000000000C40C5A
:10208000002000000000C06B04080B0000000000EE
:102090000000B80C002000000000CC6B0408070012
:1020A000000000000000B00C002000000000D86B11
:1020B00004080700000000000000A80C0020000039
:1020C0000000E46B04080700000000000000A00C02
:1020D000002000000000F06B040808000000000071
:1020E0000000940C002000000000F86B04080800B9
:1020F000000000000000880C002000000000606567
:1021000004080100000000000000000000000000C2
:102110000000000000000E000000000000000000B1
:10212000000000000000006C040800000000000037
:102130000000D8080020000000000C6C0408070014
:10214000000000000000100D002000000000146CD2
:1021500004080700000000000000080D0020000037
:1021600000001C6C04080700000000000000000DC7
:1021700000200000000024620408070000000000A6
:102180000000F80C0020000000002C62040807008A
:10219000000000000000F00C00200000000034628D
:1021A00004080700000000000000E80C0020000008
:1021B0000000246C04080700000000000000E00C90
:1021C0000020000000002C6C040807000000000044
:1021D0000000D80C002000000000346C0408070048
:1021E000000000000000D00C00200000000060652E
:1021F00004080100000000000000000000000000D2
:102200000000000000000E000000000000000000C0
:1022100000000000000000000000D5410308180D78
:102220000020BF7B00201D000000081F0408BE7BAB
:10223000002000C80100BC7B0020E803D00701009B
:10224000000048454C494F535052494E47005D7B72
:102250000020000301005C7B0020000301001D4101
:102260000308F5400308F40D0020B1400308654061
:1022700003086C0E00205D41030845410308200F50
:102280000020D13F0308853F03082C120020EB41BA
:1022900003087145030808130020D13D030800001E
:1022A000000058130020FD5C0308ED4403083414BB
:1022B00000201142030800000000E8140020D14271
:1022C000030885420308741500204D4303081D438D
:1022D000030878160020D94303081D440308181783
:1022E0000020E07C00200106010051420308254245
:1022F0000308581800207D430308E9590308E4182F
:10230000002049440308455A0308AC190020D67C34
:102310000020010301003C6C0408000000000000E4
:1023200000000000000000000000486C04080800E5
:10233000000000000000BC1A002000000000506CEB
:1023400004080700000000000000B41A002000008C
:102350000000606C04080D00000000000000A81AD6
:102360000020000000006C6C040803000000895B82
:1023700003089C1A002000000000606504080100AA
:10238000000000000000000000000000000000004D
:1023900000000E000000000000000000000000002F
:1023A0000000746C04080000000000000000000041
:1023B000000000000000846C04080A000000000017
:1023C0000000D8620408000000008C6C04080A00B9
:1023D0000000000000007928040800000000946C50
:1023E00004080A000000000000005C7D00200000DE
:1023F00000009C6C04080A00000000000000C81ADD
:1024000000200000000060650408010000000000DA
:1024100000000000000000000000000000000E00AE
:102420000000000000000000000000000000A46C9C
:102430000408000000000000000000000000000090
:102440000000B06C040803000000895B0308FC1A5C
:10245000002000000000BC6C040803000000895B41
:102460000308F01A002000000000C46C04080300F8
:102470000000895B0308E41A002000000000CC6C17
:10248000040805000000000000005B7B0020000045
:102490000000D46C04080700000000000000DC1AF3
:1024A000002000000000E06C0408070000000000AD
:1024B0000000D41A0020000000006065040801003C
:1024C000000000000000000000000000000000000C
:1024D00000000E00000000000000000000000000EE
:1024E0000000EC6C04080000000000000000000088
:1024F000000000000000A429040803000000895B1C
:1025000003082C1B002000000000006D04080300DD
:102510000000895B03080007002000000000086D30
:10252000040803000000895B0308201B0020000052
:102530000000106D040803000000895B0308141BF1
:102540000020000000007068040803000000895BA0
:102550000308081B0020000000006065040801005B
:10256000000000000000000000000000000000006B
:1025700000000E000000000000000000000000004D
:1025800000001C6D040800000000000000000000B6
:10259000000000000000286D040807000000915AA8
:1025A0000308941B00200000000094680408030046
:1025B0000000895B0308881B002000000000346DC8
:1025C000040803000000895B03087C1B0020000056
:1025D00000003C6D040803000000895B0308701BC9
:1025E000002000000000446D040807000000755A38
:1025F0000308681B002000000000B8610408030005
:102600000000895B03085C1B002000000000506D87
:10261000040803000000895B0308501B0020000031
:1026200000005C6D040803000000895B0308441B84
:10263000002000000000646D040803000000895BB6
:102640000308381B0020000000006065040801003A
:10265000000000000000000000000000000000007A
:1026600000000E000000000000000000000000005C
:102670000000A5410308754103089C1B0020B944D4
:10268000030800000000281C0020414003081D40F2
:102690000308B41C00200000000000000000681DBA
:1026A000002091440308AD5A0308081E0020706DF5
:1026B000040800000000000000000000000000000E
:1026C00000007C6D040803000000895B0308281FDC
:1026D000002000000000846D040803000000895BF6
:1026E00003081C1F002000000000F853040803002A
:1026F0000000895B0308101F002000000000906D9F
:10270000040803000000895B0308041F0020000088
:1027100000009C6D040803000000895B0308F81E9C
:10272000002000000000A46D0408020000006D5DA0
:1027300003080000000000000000AC6D0408020067
:1027400000006D5D03080100000000000000B86D8E
:102750000408020000006D5D030802000000000094
:102760000000000000000E0000000000000000005B
:102770000000000000003A7B002088136F17010062
:1027800000003C7B002088136F1700000000C46D20
:10279000040800000000000000000000000000002D
:1027A0000000D46D040808000000000000000820AC
:1027B000002004000000E06D040808000000000094
:1027C0000000FC1F00200000000024690408040031
:1027D0000000A5570308000000000000000060652D
:1027E00004080100000000000000000000000000DC
:1027F0000000000000000E000000000000000000CB
:10280000000000000000387B002088136F170100D3
:102810000000505C002088136F1700000000153F77
:10282000030800000000142000202D7E002001007D
:102830000000801F0408525C0020010000008C1F73
:102840000408485C002002000000941F040812C223
:102850000020000000000000000010C20020000066
:102860000000000000000EC2002000000000000078
:1028700000000CC2002000000000000000000AC29E
:102880000020000000000000000008C2002000003E
:102890000000000000001002002000000000000006
:1028A0000000377B002002000000A01F04081C6EFF
:1028B000040800000000000000000000000000000C
:1028C0000000D46D040808000000000000009820FB
:1028D000002004000000E06D040808000000000073
:1028E00000008C200020000000002469040804007F
:1028F0000000E53E030800000000000000006065E5
:1029000004080100000000000000000000000000BA
:102910000000000000000E000000000000000000A9
:102920000000000000002C6E040800000000000001
:10293000000000000000000000003C6E04080D00D4
:102940000000F5580308C820002004000000486E6D
:1029500004080D0000003D3F0308BC2000200400D7
:102960000000546E04080D000000B9580308B020A0
:10297000002000000000606E040803000000D54A3B
:102980000308A4200020080000006C6E0408030067
:102990000000895B0308CC23002000000000606574
:1029A000040801000000000000000000000000001A
:1029B0000000000000000E00000000000000000009
:1029C000000000000000586504080000000000003E
:1029D00000000000000000000000CC6404080400B7
:1029E0000000BD5703080000000000000000606503
:1029F00004080100000000000000000000000000CA
:102A00000000000000000E000000000000000000B8
:102A1000000000000000C06E04080000000000007C
:102A200000000000000000000000D45504080D0064
:102A30000000000000002821002004000000D06EEB
:102A4000040808000000000000001C210020040011
:102A50000000DC6E040808000000000000001021E7
:102A6000002004000000E46E0408080000000000DC
:102A700000000421002004000000EC6E040808009F
:102A8000000000000000F820002004000000F46EA8
:102A900004080800000000000000EC2000200400F2
:102AA0000000FC6E04080800000000000000E020A8
:102AB000002004000000046F04080800000000006B
:102AC0000000D4200020040000006065040801001C
:102AD00000000000000000000000000000000000F6
:102AE00000000E00000000000000000000000000D8
:102AF0000000FD3E0308000000003421002000001B
:102B0000000000000000AC210020000000000000D8
:102B100000004C2200204E5C002004000000AC1F8E
:102B200004084C5C0020E0150C17000000004B5C12
:102B3000002008000000041204084A5C0020050080
:102B40000000C01F040800000000000000009C22DC
:102B500000200403090412010002EF020140830473
:102B600056320002010203010000120100020202BB
:102B700000408304405700020102030100000902E3
:102B80004300020100C032090400000102020100FA
:102B9000052400100105240100010424020205247B
:102BA000060001070582030800FF09040100020A6C
:102BB00000000007050102400000070581024000F7
:102BC0000000FF00000008000000000000010000FD
:102BD00000000000000000000000058C0308018CCC
:102BE0000308FD8B0308F18B0308ED8B0308F98BB9
:102BF0000308F58B0308798C03086D8C0308458C5A
:102C00000308598C0308318C03081D8C0308098CB8
:102C10000308010100000060024010600240000053
:102C2000000000000000000B000000000000000099
:102C30000000000000000060024028600240010027
:102C4000000000000000060C000000000000000072
:102C500000000000000000600240406002400200EE
:102C6000000000000000100D000000000000000047
:102C700000000000000000600240586002400300B5
:102C8000000000000000160E000000000000000020
:102C9000000000000000006002407060024004007C
:102CA000000000000000200F0000000000000000F5
:102CB0000000000000000060024088600240050043
:102CC00000000000000026100000000000000000CE
:102CD00000000000000000600240A060024006000A
:102CE00000000000000030110000000000000000A3
:102CF00000000000000000600240B86002400700D1
:102D0000000000000000362F00000000000000005E
:102D10000000000000000064024010640240000057
:102D2000000000000000003800000000000000006B
:102D3000000000000000006402402864024001001E
:102D40000000000000000639000000000000000044
:102D500000000000000000640240406402400200E5
:102D6000000000000000103A000000000000000019
:102D700000000000000000640240586402400300AC
:102D8000000000000000163B0000000000000000F2
:102D90000000000000000064024070640240040073
:102DA000000000000000203C0000000000000000C7
:102DB000000000000000006402408864024005003A
:102DC0000000000000002644000000000000000099
:102DD00000000000000000640240A0640240060001
:102DE000000000000000304500000000000000006E
:102DF00000000000000000640240B86402400700C8
:102E00000000000000003646000000000000000046
:102E10000000000000000000803F11E4010811E9FB
:102E200001088DE40108A1BF0108D9EA0108B1BF7A
:102E30000108CDBF010879BF010869BF0108000082
:102E4000000000000000D02600200000000000006C
:102E50000000000000000000000000000000000072
:102E60000000000000000000000000000000000062
:102E70000000000000000000000000000000000052
:102E80000000000000000000000000000000000042
:102E90000000000000000000000000000000000032
:102EA00000000000000000000000430000000000DF
:102EB0000000000000000000000000000000000012
:102EC00000000000000000000000430000000000BF
:102ED00000000000000000000000000000000000F2
:102EE000000000000000000000004300000000009F
:102EF00000000000000000000000000000000000D2
:102F0000000000000000000000004300000000007E
:102F100000000000000000000000000000000000B1
:102F2000000000000000000000004300000000005E
:102F30000000000000000000000000000000000091
:102F4000000000000000000000004300000000003E
:102F50000000000000000000000000000000000071
:102F6000000000000000000000004300000000001E
:102F70000000000000000000000000000000000051
:102F80000000000000000000000003E70308DFE687
:102F90000308000000009E700408C864040864313F
:102FA000040864310408643104086431040864319D
:102FB000040864310408643104086431040864318D
:102FC0000408FFFFFFFFFFFFFFFFFFFFFFFFFFFF03
:102FD0000000010041534349490000000000000087
:102FE00000000000000000000000000000000000E1
:102FF0000000000041534349490000000000000068
:1030000000000000000000000000000000000000C0
:1030100000000000000000000000000000000000B0
:1030200000000000000000000000000000000000A0
:103030000000000000000000000000000000000090
:10800000037903F00C03042B05D0082B0FD0B3B970
:10801000B0F80B0070470B4BB0F80B001B7803EB6C
:108020008302C3EBC20300EB430080B27047054BF1
:10803000B0F80B005B7800EB031080B270470020B3
:10804000704700BFB0A6002070B50A4C4E2506460A
:1080500021462A4636F076FA2A462146701936F02D
:1080600071FA2A46214606F19C00BDE8704036F0C0
:1080700069BA00BF14F00308F8B5604D604E2B7864
:10808000A3F117020021022A317020D95D4911F8AD
:108090003320327001EBC303082A596840F2A680EE
:1080A0000822327039B1002A57484FEA0212D8BF6D
:1080B000102236F047FA554BD5F884201A605A60E2
:1080C0009A60DA601A615A619A61DA61F8BD504CBF
:1080D000D4ED007AF5EE407AF1EE10FAEBD094E8A8
:1080E0000F00D4ED047AF5EE407A2F1D4FF0010C0D
:1080F000F1EE10FA87E80F0086F800C0DBD004F13B
:1081000010030FCBD4ED087AF5EE407A05F1140791
:108110004FF0020CF1EE10FA87E80F0086F800C06D
:10812000C9D004F120030FCBD4ED0C7AF5EE407AE0
:1081300005F124074FF0030CF1EE10FA87E80F0069
:1081400086F800C0B7D004F130030FCBD4ED107A1D
:10815000F5EE407A05F134074FF0040CF1EE10FA19
:1081600087E80F0086F800C0A5D004F140030FCBCC
:10817000D4ED147AF5EE407A05F144074FF0050C82
:10818000F1EE10FA87E80F0086F800C093D004F1F2
:1081900050030FCBD4ED187AF5EE407A05F1540771
:1081A0004FF0060CF1EE10FA87E80F0086F800C0D9
:1081B00081D004F160030FCBD4ED1C7AF5EE407A48
:1081C00005F164074FF0070CF1EE10FA87E80F0095
:1081D00086F800C03FF46FAF703494E80F000827B2
:1081E00005F1740484E80F00377064E700293FF458
:1081F00062AF002A7FF457AF5DE700BFA0280020E0
:1082000085570020EC210408A42800208850002075
:1082100018C1002010B44849484A8B781268053BC1
:10822000042B02F4805226D8CB89DFED457A07EE85
:10823000103A444BB8EEC77A0021C3F8841067EEB9
:10824000277A002A73D19FED406ADFED406AE7EE9E
:10825000066AB0EE667ADFED3E6A3E4C3E493F4824
:108260003F4A84ED007A77EEA67A0860C3ED227A61
:10827000C3F88C2029E0002A4FD18B8A06EE103AF1
:108280000B8A05EE903AB8EE466A2E4BF8EE655A28
:108290004A8A314983ED216A06EE902AB3F892208A
:1082A00007EE102AB3F8902007EE902AF8EE666ADF
:1082B000284AC1ED006AB8EE477AF8EE677A83ED96
:1082C000227AC3ED237AC2ED005A2649B3F89640CC
:1082D0000A8B498B101B80B2224492B2A0F57A74AB
:1082E00006EE904AC1F5FA61C2F5FA6407EE104A4B
:1082F00007EE901AF8EEE66AB8EEC77AF8EEE77A7B
:10830000A3F8A000A3F8A220C3ED296A83ED2A7A7E
:10831000C3ED277A5DF8044B70470A4BDFED125A24
:10832000B3F8942006EE102AB8EE466AB0E79FED47
:10833000077A37EE877A8EE7F0A80020F8B500209C
:108340005E98CC3DA028002095B24C3E00004042F3
:1083500000008344085300206054002000E0FF44E4
:1083600000E08244ECA5002000007A442C4B1878F1
:1083700010F0010050D12B4B1B78002B4ED02A4A15
:108380002A49D2ED007A91ED217AF4EE477AF1EEA6
:1083900010FA41D1012B42D092ED017AB4EE677A06
:1083A000F1EE10FA38D1022B39D092ED027AF4EEC8
:1083B000477AF1EE10FA2FD1032B30D092ED037AE9
:1083C000F4EE477AF1EE10FA26D1042B26D092ED86
:1083D000047AF4EE477AF1EE10FA1DD1052B1DD088
:1083E00092ED057AF4EE477AF1EE10FA14D1062BED
:1083F00014D092ED067AF4EE477AF1EE10FA0BD132
:10840000072B0BD092ED077AF4EE477AF1EE10FAD3
:1084100014BF0120002070470120704700207047E2
:10842000385A00208557002088500020A0280020BE
:1084300030B44FF4F0710A4A0A4B018036253724D4
:108440003821C0F80E20C0F812303922012385717E
:10845000C471017242728370437130BC704700BFB7
:10846000C2012E04D007E80310B5084CDFED087AEE
:1084700094F8B53000EE103AB8EEC00A20EE270AA4
:108480001FF092F984ED2E0A10BD00BFA028002035
:1084900035FA8E3C2C4B1B68184483799BB107EE50
:1084A000903ADFED2A6AF8EEE77A20EEA07A67EEDE
:1084B000A67A27EE207AF7EE006AD7EE877A77EE73
:1084C000A67A20EE270AC378DFED206A07EE903AFD
:1084D000F8EEE77AB0EE007A67EEA67AF4EEC77AA5
:1084E000F1EE10FA05DD37EEC77ADFED196AE7EE37
:1084F000267A437A9FED177A20EE070A20EE270AA4
:1085000003B3DFED127A9FED147A06EE903A60EE37
:10851000A77AF8EEE60A60EEA70AF4EEC70AF1EED3
:1085200010FA04DDDFED0D7A20EE270A7047F5EE34
:10853000C00AF1EE10FA05D4F7EE007A77EEE00A01
:1085400080EE200A704700BF505E00200AD7233C0F
:10855000D7A3684100004843A4707D3F0000C84293
:10856000174B9FED185A1B681844BFEE007A437AE8
:1085700006EE103AC378A0EE007A07EE903A8379BF
:10858000B8EE466A05EE903A60EE850AF7EE006AAC
:10859000F2EE044AB0EE664A20EE240AA6EE204A25
:1085A00027EE057AF8EEE55AF8EEE77AE5EE876A07
:1085B00067EE807A24EE270A20EE260A704700BF75
:1085C000505E00200AD7233C704710F8113C01335D
:1085D000DBB20A2B00F8113C07D9044A10F8131C2F
:1085E000002322F8113000F8113C7047444E00205F
:1085F000F0B45E4E5E4896F8BC205E4B5E4DDC6B80
:108600002D780132A0FB0270000900EB8000A2EB84
:1086100080001A6886F8BC00914201EB04005C6897
:1086200011D293F84520002A4ED000F58030B0FBDF
:10863000F5F084420BD2041B4FF4803292FBF5F22A
:10864000A21A9A600AE0B0FBF5F0844244D34FF4DA
:10865000803292FBF5F2121B02449A6040F68C24A1
:108660000025A242C3E9001083F8455017D993F8BA
:10867000402093F942108A4256B241D0002093F92B
:10868000411083F843008A4247D00121002283F839
:10869000426083F8441083F84020F0BC704793F8A0
:1086A00044100029F9D0A2F2EF2040F2DA518842BA
:1086B0001AD893F840100B2916D803EB810001312A
:1086C000C26083F84010E8E7B0FBF5F08442BED208
:1086D000041BA21A9A60C1E793F84520002AAAD188
:1086E000041BA21A9A60B9E7244A002102F1300063
:1086F00083F8441042F8041F8242FBD1F0BC70475B
:10870000111F0829BAD893F84310182926D8013127
:1087100083F8431093F94110B5E793F8441000290A
:10872000B3D0FAB11649154C0FFA82FC084601EB9A
:108730004C0754F8045F20F8025BB842F9D10B2AC9
:1087400007DC104801EB4C02002122F8021B90428A
:10875000FBD10D490A7801320A7096E783F841602F
:10876000314690E794460649EBE700BFA028002079
:10877000CDCCCCCCE4A7002098240020ECA700208E
:10878000444E00205C4E00203C4E002030B40F4D83
:108790000F4B95F8BC200F4C0132A3FB02031B09C1
:1087A000E06B03EB8303A2EB83034FF6FF7291426E
:1087B00000F1010085F8BC30084408BF0123E063E4
:1087C00008BF84F8453030BC704700BFA0280020A7
:1087D000CDCCCCCCE4A70020002800F01C81B34B0A
:1087E0001A7CF0B4002A40F0978019680022012812
:1087F0000A6043D093F82810002941D199690022DA
:1088000002280A603AD093F8401000295ED1196B13
:10881000002203280A6031D093F85810002940F054
:10882000A180996C002204280A6027D093F8701068
:10883000002940F0F180196E002205280A601DD041
:1088400093F88810002940F00D81996F00220628C6
:108850000A6013D093F8A010002940F03181D3F8BA
:108860009010002207280A6008D093F8B810002959
:1088700040F0A480D3F8A83000221A60F0BC704702
:10888000DC698B4DA10AA94200F0538140F23C8182
:10889000884DA94204D0884A914240F05381022277
:1088A000EFF31181502585F31288844E676AA58AFB
:1088B00002EB820206EBC202013745F00105C2F865
:1088C000E470C9B2A58281F3118897E75C6B784D9B
:1088D000A10AA94200F02F8140F21B81754DA942E7
:1088E00004D0754A914240F02F810222EFF31181AA
:1088F000502585F31288714E676AA58A02EB8202C1
:1089000006EBC202013745F00105C2F8E470C9B2B6
:10891000A58281F311887AE75968654C8A0AA242D8
:1089200000F0FC8071D9634CA24200F0FB8001345E
:10893000A24240F0F5800224EFF31182502585F326
:1089400012885E4E4F6A8D8A04EB840406EBC404E1
:10895000013745F00105C4F8E470D2B28D8282F38C
:10896000118842E7DC6C524DA10AA94200F0FA805E
:1089700040F2DA804F4DA94204D04F4A914240F074
:10898000E5800222EFF31181502585F312884B4ECA
:10899000676AA58A02EB820206EBC202013745F044
:1089A0000105C2F8E470C9B2A58281F31188996CFF
:1089B000002204280A607FF439AF5FE7D3F8AC00E7
:1089C0003B4C810AA14200F0E28040F2B680394C73
:1089D000A14204D0384A914240F0D7800222EFF3FE
:1089E0001181502484F31288344D466A848A02EB44
:1089F000820205EBC205013644F00104C5F8E460CB
:108A0000CAB2848282F3118834E7043CA24240F067
:108A10008780012490E770475C6E254DA10AA9422A
:108A200000F0A78040F29480224DA94204D0224A4F
:108A3000914240F0A0800222EFF31181502585F38E
:108A400012881E4E676AA58A02EB820206EBC202FA
:108A5000013745F00105C2F8E470C9B2A58281F37F
:108A60001188E8E6DC6F124DA10AA94200F085806A
:108A700073D9104DA94203D00F4A91427FD10222EF
:108A8000EFF31181502585F312880C4E676AA58A91
:108A900002EB820206EBC202013745F00105C2F883
:108AA000E470C9B2A58281F31188CEE630A8002017
:108AB000060010004000100041001000A028002017
:108AC000D3F89440334DA10AA9425AD04CD9324D23
:108AD000A94203D0314A914255D10222EFF31181CC
:108AE000502585F312882E4E676AA58A02EB820212
:108AF00006EBC202013745F00105C2F8E470C9B2C5
:108B0000A58281F31188AAE6264A91421AD1012250
:108B1000C6E6244A914217D10122E7E603240BE777
:108B2000FE2409E7002407E71E4A91420ED10122E4
:108B300028E70322B4E60322D8E61A4A914224D158
:108B400001224CE7FE22ABE6FE22CFE6FE2219E729
:108B5000144A91420FD101226EE7124A91420ED17E
:108B600001228DE703220DE70E4A91420BD101222B
:108B7000B4E7032260E7FE225EE7032280E7FE22DD
:108B80007EE70322AAE7FE22A8E7FE2227E70322C8
:108B900025E700BF06001000400010004100100053
:108BA000A0280020020010007047704770B4150B19
:108BB000C2F30324064605EB450504EB44044800D4
:108BC000C2F303131835183402F00F02356003EBBB
:108BD000430346F8214002EB4202014418331832A5
:108BE00046F82030062046F8212070BC70472DE959
:108BF000F04F12F4004F14BF4FF00E0B4FF0070B65
:108C000012F4804F14BF4FF00E0A4FF0070A12F40F
:108C1000005F14BF4FF00E094FF0070912F4805F98
:108C200014BF4FF00E084FF007084FEA410C12F442
:108C3000006F83B001EB0C0714BF4FF00E0E4FF026
:108C4000070E12F4806F01EB070614BF0E230723F3
:108C50008D190193034612F4007F01EB0504C3F85C
:108C600000B018BF0E2043F821A008BF072043F82A
:108C70002C9012F4807F01EB040C43F8278043F81A
:108C800026E001EB0C0714BF4FF00E084FF0070869
:108C9000019E43F8256012F0800F01EB070614BF18
:108CA0004FF00E0E4FF0070E12F0400F43F8240065
:108CB00001EB060514BF0E20072012F0200F43F829
:108CC0002C8001EB050414BF4FF00E0C4FF0070C85
:108CD00012F0100F43F827E043F8260018BF0E27C4
:108CE00001EB040008BF072712F0080F43F825C066
:108CF00018BF0E2643F8247008BF07260C1812F080
:108D0000040F43F8206018BF0E2501EB040008BFD4
:108D1000072512F0020F43F82450014414BF0E241B
:108D2000072412F0010F43F8204014BF0E2207223F
:108D3000122043F8212003B0BDE8F08F70B4044640
:108D400000F16006074D0FCD103444F8100C44F8C4
:108D50000C1C44F8082C44F8043CB442F2D170BC1A
:108D6000704700BF64F00308034B33F8602F0280A4
:108D70009B788370704700BF14F003080A4BD3F848
:108D8000601181B130B4D3F86451084C00206422E2
:108D900002FB05F2C3F86001B2FBF1F2C3F8640113
:108DA000228030BC70477047A028002084500020EB
:108DB00000230D491A4613F0010301F1240109D1E2
:108DC0000132072A0ED011F8243C13F0010301F1FF
:108DD0002401F5D0054B02EBC20203EB82021379AA
:108DE00003707047037070473A200408102004088D
:108DF00000220D4B02721146920710B403F1D80401
:108E000002D51A79425401319C4203F1240308D05F
:108E1000082906D09A799207F3D49C4203F12403DF
:108E2000F6D15DF8044B70471020040830B41621C9
:108E3000232417222D2332250470C17033243A21B4
:108E400082714370242225230571C471817042719F
:108E5000037230BC7047012310211122417042710E
:108E600003720370037170471CF0EEBEF8B506463E
:108E700035F05EFE1F4906EB460401EB4414257BEA
:108E800005B9F8BD1C4A237D1C4F1D4D3F782D6848
:108E900002EA40021A4393B21A1282EA13125A40AB
:108EA00002F00F0242EA0312002392B22375A7B91F
:108EB000602000FB061018300121A8472169636873
:108EC000B1F82C216489DB682243A1F82C21586079
:108ED0001A6842F001021A60F8BD636820695B7984
:108EE00003F0FC030C3318440421A84723698000D5
:108EF0001881F8BD14A90020FEFF0100992400206C
:108F00000CA9002038B500EB4000084DC4002B1917
:108F100093ED027AD3ED037AE7EE007AB0EE670ABA
:108F200035F006FE2B59186038BD00BF30A8002070
:108F300070B52D4D2D4C2E496A792E4E2E480423A6
:108F40000B7084F8683100216423012A84F87131A0
:108F5000A4F86A11A4F86C1184F87011C4F87411A3
:108F60003170016021D0022A11D0A979234A00234F
:108F70000129136084F8C831C2E9013323D00229E2
:108F800004D11F4AC4F80032C2E9013370BD28225F
:108F900004F5BC7035F0F0FB4CF250319FED190A2E
:108FA00004F5BE701EF0F2FCDFE7282204F5D07055
:108FB00035F0E2FB4CF250319FED120A04F5D2700D
:108FC0001EF0E4FCD1E7104AC4F8CC31C2E9013309
:108FD000D3609FED0E0A02F110004CF25031BDE853
:108FE00070401EF0D3BC00BFA4580020A028002071
:108FF000A2580020B65A0020B05A0020B85A0020CB
:10900000A02A0020CDCCCC3D6C2A0020CDCCCC3E7B
:109010000023012243600360836043700371837205
:10902000C2717047F8B5322204460021023035F093
:10903000A3FB1423224AA37092F90270214BC4F8B7
:1090400003300120002102250326C4F80B30C4F8A8
:109050001330C4F81B30C4F82330C4F82B308742D7
:109060004FF00403A172A0742080A57684F82260DA
:1090700084F82A301AD092F90A10814216D092F957
:109080001210814216D092F91A10814214D092F92E
:109090002210814212D092F92A30834205D0522206
:1090A000642384F832202386F8BD0521402322F86A
:1090B0003130F4E72946F9E73146F7E71946F5E795
:1090C00018A6002005040500534B54491B68096885
:1090D000F0B501225C0258BF02F18052D80050481E
:1090E00058BF42F40062890748BF42F484520078B6
:1090F00048BF42F006021F0648BF42F0600283B03C
:1091000000F0EF044CBF3021102142F48065082CA0
:10911000009574D00E2872D04248009A0078DE0381
:1091200054BF42F4004242F42032DD0454BF42F006
:10913000484242F0684208B141F008019C0648BF2D
:1091400042F40052580748BF42F4002242F4001093
:109150005B05009003D5344B1B79002B57D1334C62
:10916000334F41F047010191251D6E4614F8010B64
:10917000FF2815D000212F4A0B4603E001332B2B8B
:109180000ED0117A884202F10C02F7D103EB4303AF
:1091900007EB830393F86410A1F12703032B32D963
:1091A000AC42E3D10024012702E001342B2C1FD074
:1091B00021463046E5B21AF009FD0028F5D01D4BD6
:1091C000002203F5FC7101E013F80C2F9542ECD05E
:1091D0009942F9D1620905F01F0556F8223007FAC5
:1091E00005F5013423EA05052B2C46F82250DFD182
:1091F00096E80300104B83E8030003B0F0BD42F48F
:10920000A062009288E730461EF008FDC8E742F4ED
:10921000C0020092A3E700BFF8B50020545A002016
:109220009454002006A9002014580020C4A6002051
:1092300014F0030878F00308AC2A0020F8B56A4B54
:109240001A686A4B96072DED068B02D593F83810F5
:1092500031B9BDEC068B0022DA621A635A63F8BD9D
:109260006349644B0868644E08EE900A4868347895
:1092700003EE100A8868C968D960950607EE900A5F
:1092800005EE901AC3ED008A83ED013A986040F133
:10929000CF80A00740F1CC80584A117D042940F2CC
:1092A000C780D189B1F5167FC0F0C280128A9FEDC8
:1092B000547A544D06EE902AF8EEE66AE10666EE20
:1092C000876A40F19782504F9FED507AF4EEC76A5B
:1092D000F1EE10FA40F31C839FED4D5A9FED4D6A5D
:1092E00001E0F0EE476AF4EEC66AF1EE10FA36EEEF
:1092F000C57AF6DCDFED486AB4EEE67AF1EE10FAF4
:1093000040F103839FED425A9FED446A01E0B0EEC5
:10931000667AB4EEC67AF1EE10FA77EE056AF6D404
:10932000BDEEE67A17EE102A2032402A4DD89FED86
:10933000377AF4EEC76AF1EE10FA40F3EF82B0EE3E
:10934000666ADFED334A9FED335A01E0B0EE476ABB
:10935000B4EEC56AF1EE10FA36EE647AF6DC9FEDF3
:109360002E6AB4EEC67AF1EE10FA40F1D482DFED47
:10937000284A9FED2A5A01E0B0EE467AB4EEC57A4B
:10938000F1EE10FA37EE246AF6D49FED257AB4EEAA
:10939000C76AF1EE10FA40F3A9829FED1C7A37EE0E
:1093A000466A26EE065A9FED1F7A9FED1F4ADFEDB3
:1093B0001F4AA5EE074A35EEC68AE5EE044A25EEB9
:1093C000466AF0EE485AE6EE245A9FED157A36EEDC
:1093D000876ABDEEC65A15EE102A2032402A40F2A6
:1093E000B181C3ED035A25E0545A00204497002070
:1093F000689F002000000020585A002000B600207E
:1094000088C3E43AC85A0020A0280020DB0F494056
:10941000DB0FC940E4CB1641DB0F49C0E4CB16C1DA
:10942000DB0FC93F92E741B99730083C15A82ABE27
:10943000DA4DDB4FDB4A1288520640F16A81D3EDE8
:10944000054A93ED064AD3ED073A93ED045A68EEC8
:10945000846A24EEC36A28EEA49A28EEA37AA8EEC2
:10946000856AE7EE856AA7EEA47AA3EE059AF0EE88
:10947000468AB1EE676AF0EE667AE6EE048AA6EEF8
:10948000239AE3EE237AA3EE447AA4EE259AE4EE3F
:10949000E57AA5EE257AE3EEE58A29EE27AA68EEBD
:1094A000896A68EEA79AC3ED088A83ED099AC3ED2D
:1094B0000A7A29EE096A67EEA7AA68EE878A29EE7A
:1094C000079A67EE877A27EE078A83ED0B7A3AEEE2
:1094D000867A76EEA77A37EE077AF7EE005A77EEBD
:1094E000A77A75EEC76AB0EEE76AF0EEE66AF4EEC8
:1094F000C66AF1EE10FAB4BFB0EE465AB0EE665A44
:10950000B5EE405AF1EE10FA00F01981F4EEC66A99
:10951000F1EE10FA8CBFB0EE464AB0EE664AC4EEE9
:10952000054A9FEDAE3A9FEDAC5A9FEDB14ADFED93
:10953000AE2ADFEDAE3AA4EEC53A9FEDAA5AA4EEEC
:10954000834AA4EEA25AE4EE843A9FEDA54AE4EEE3
:10955000855AA4EEA34AB0EE655AC4EE055AF4EE5D
:10956000C66AF1EE10FA48BFDFED8F6A9FED8F0AF1
:1095700048BF76EEE55AF7EE006AB4EEE67AF1EE11
:1095800010FAC8BF9FED8A7AF5EEC07AC8BF77EEB1
:10959000655AF1EE10FA48BFF1EE655A25EE800AE1
:1095A00035F0C6FA79EEC97AB7EE005A77EEA77AA7
:1095B000DFED804ADFED805A9FED806A9FED807A73
:1095C0002880F0EEE76A35EE665AE6EEA45AB1EE70
:1095D000C50AA6EEA56AF5EEC07AA6EE867AF1EE89
:1095E00010FA48BFDFED727A27EE007A9FED6F0A1E
:1095F00048BF37EEC77ADFED6C7A37EEC77A27EED1
:10960000000A35F095FA38EE2A7A78EE8A7A37EE43
:10961000077AF7EE005A77EEA77A75EEC76AB0EED2
:10962000E76AF0EEE66AF4EEC66AF1EE10FAB4BF4D
:10963000B0EE465AB0EE665AB5EE405AF1EE10FA68
:10964000688079D0F4EEC66AF1EE10FA8CBFB0EE05
:10965000464AB0EE664AC4EE054A9FED632A9FED86
:10966000615ADFED5D1ADFED5D2A9FED613ADFEDB6
:109670005F3A9FED5B4AA4EE825AE4EEE12AE4EE03
:10968000855AA4EEA23AB0EE655AF0EE635AE4EEC3
:10969000835AA4EEA54AC4EE055AF4EEC66AF1EE6A
:1096A00010FA48BFDFED406A9FED460A48BF76EEEC
:1096B000E55AF7EE006AB4EEE67AF1EE10FAC8BFAA
:1096C0009FED3B7AF5EEC07AC8BF77EE655AF1EEB2
:1096D00010FA48BFF1EE655A25EE800A35F028FAF7
:1096E00097ED2E7A03B2BDEC068B002BF7EE007AD5
:1096F000B8BF00F56160B4EEE77AACBFAB80A8807C
:10970000F1EE10FA4CBF44F0080404F0F704347092
:10971000F8BD68EEA79A68EE836A23EE27AA67EE83
:10972000A7AA68EEA58A23EE036A23EE259A67EEC0
:10973000A57A25EEA58ACAE6DFED295AADE7DFED69
:10974000285A0CE7F4EEC76AF1EE10FA40F3E9800C
:109750009FED1D5ADFED1D6A01E0B0EE476AB4EEE1
:10976000E66AF1EE10FA36EE457AF6DCDFED186ABD
:10977000B4EEE67AF1EE10FA7FF533AE9FED125AB1
:109780009FED146A01E0B0EE667AB4EEC67AF1EEAF
:1097900010FA77EE056AF6D423E600BFC85A002017
:1097A000A0280020C45A0020DB0FC93F4C3D0F44C5
:1097B000DB0F4940306E99BC2716983D843459BE62
:1097C000A40DC93F4C3D0FC4DB0FC940E4CB16418B
:1097D000DB0F49C0E4CB16C139094E3DE3B59E3ECF
:1097E000A7DFA83469A2163E99FB243F45FE7F3FC0
:1097F00088FA163EB5F9002007EE102AB5F90220C6
:1098000006EE102AB8EEC77AB8EEC66AB0EEC75AAE
:10981000F0EEC64AF4EEC54AF1EE10FAB4BFF0EE2F
:10982000453AF0EE643AF5EE403AF1EE10FA69D0BE
:10983000F4EEC54AF1EE10FA8CBFF0EE452AF0EED8
:10984000642A82EEA34A1FED1C0A5FED1C3A1FED4D
:10985000181A1FED1A2A5FED1C0A5FED1E1A5FED44
:10986000202AE4EE403AE4EE201AA4EE231AF7EEA2
:10987000003AA4EE012AE4EE213AE4EE022A82EE56
:10988000A34A294F97F81422F4EEC54AF1EE10FAD4
:1098900048BF9FED265AB5EEC06A48BF35EE444A30
:1098A000F1EE10FA48BF9FED226AB5EEC07A48BFCC
:1098B00036EE444AF1EE10FA48BFB1EE444A76EE75
:1098C000846A002A7FF400AD1A4A1288322A7FF691
:1098D000FBAC9FED197A26EE877A0122BDEEC77A9E
:1098E00087F8142217EE102AAA80EDE49FED137A70
:1098F000B4EEC76AF1EE10FA44BF9FED117A37EE6D
:10990000466A4EE59FED0F4ABBE7F0EE476A07E572
:10991000B0EE667AEEE4B0EE476A36E5B0EE667A0F
:109920001DE5B0EE467A21E7A0280020DB0FC93FF5
:10993000DB0F4940545E00204D3D0F44DB0FC9BF93
:10994000DB0F49C0A7DFA83410B50E4C94F81512F0
:10995000012913D00DD3022902D100201BF044FEAF
:109960001BF026FB00F5F42000F59070C4F81802F7
:1099700010BD002108461BF097FFF1E700201BF007
:1099800093FFEDE7A028002020B10078B0FA80F026
:10999000400970470120704708B5202134F003FFCB
:1099A0000346184623B10278202A03F10103F8D0B8
:1099B00008BD70B50D461446FFF7EEFF0646A0B190
:1099C00034F0BCFD40F634039842A8BF1846B0F509
:1099D000617FB8BF4FF461701923A0F5617090FBEF
:1099E000F3F028702378013323703046FFF7D4FF5B
:1099F0000646A0B134F0A2FD40F634039842A8BF59
:109A00001846B0F5617FB8BF4FF461701923A0F517
:109A1000617090FBF3F06870237801332370304657
:109A200070BD0FB413B5084C0849206804AB53F857
:109A3000042B01931DF032FC20681CF0F7F802B0F3
:109A4000BDE8104004B0704768500020698E0008DF
:109A5000024B014618681CF0F7B800BF68500020A0
:109A600038B5064D441E14F8011F286819B9BDE821
:109A700038401CF0DBB81CF0E7F8F4E76850002031
:109A80002DE9F0410379054603F0300020280E4609
:109A900014462BD10024284FDFF8A88015E02B793D
:109AA00003F00303022B15D0032B19D0012B14BF95
:109AB000315D31573846FFF7B4FF6B79013BA34264
:109AC00002DD4046FFF7CCFF01346B79A342E6DCB0
:109AD000BDE8F08136F814103846FFF7A2FFECE736
:109AE00036F914103846FFF79CFFE6E703F003034E
:109AF000012B0DD00FD2097880B11028E8D16A79F6
:109B00000E4B53F83230BDE8F04153F82100A7E77F
:109B100091F90010F0E7B1F90010EDE70648FFF702
:109B200080FF002CD4D0B5F90720B5F90510044802
:109B3000BDE8F04175E700BF34280408880D04082B
:109B400000280408FE270408004889E76231040859
:109B500010B5064C0B460246054920681DF09EFBD9
:109B600020681CF063F8BDE81040EDE76850002065
:109B7000698E00080FB407B504A951F8040B0191D0
:109B8000FFF7E6FF03B05DF804EB04B0704713463F
:109B90000A4601460048EDE707280408F8B50379AE
:109BA00003F03003102B0AD0202B23D03BBBB0F99D
:109BB0000720B0F905101248BDE8F840DAE745790A
:109BC000104E1148FFF74CFF06EBC50300241F7928
:109BD000BC4202D3BDE8F840B6E714B10B48FFF72A
:109BE0003FFF56F835300A4853F82410FFF719FFA5
:109BF0000134EDE741790748BDE8F840BAE7F8BD20
:109C000020280408880D040837280408FE270408C3
:109C100083340408472804080CB407B510F020006A
:109C200009D069B92320FFF713FF05A90498019112
:109C3000FFF78EFF012003B05DF804EB02B0704720
:109C40000020F8E70CB4C30607B500D551B905A943
:109C500004980191FFF77CFF012003B05DF804EB4D
:109C600002B070470020F8E708B5FFF7F9FEBDE83D
:109C7000084069E70048F7E75828040810B504468B
:109C80000348FFF7EDFE2046BDE81040ECE700BFBB
:109C900064280408F8B5D54E438C2DED068BD6ED1F
:109CA000878AB6EE007AC7EE287A0746FCEEE77A96
:109CB00017EE904A9C4261D2828C944200F230812D
:109CC000CB4BC6F820323D8C002D51D0AC424FD347
:109CD00097F82630012B00F0B581C0F02681022BC9
:109CE00046D1C44BC44C1B88C6F8A04200EE103AC3
:109CF0004FF4F872C14BC6F89C3200212046B8EEF2
:109D0000408A34F039FDEBB200EE103AB8EEC00AEA
:109D1000DFEDBB8A20EE080A88EE800A34F008FFE7
:109D20007828A8BF7820012804F5F873B8BF01206F
:109D30003C8CC6F8A43205464FF4F8721846002150
:109D4000C6F8B05234F018FDE3B200EE103AB8EEA7
:109D5000C00A20EE080A88EE800A34F0E9FE78286E
:109D6000A8BF78200128B8BF0120C6F8A00402E0EF
:109D70009F4BC6F89C32BDEC068BF8BD002B9FD0E4
:109D8000828C002A9CD007EE903AB8EE678A07EEE4
:109D9000902AB8EE670A9B4BC6F8203288EE000A7C
:109DA00034F028FE30EE00AAB0EE000AF0EE4A0AC7
:109DB00034F00AFFF6EE009AB0EE409A6AEE290AF5
:109DC000B0EE000A34F000FF8A4A9FED8F7AD2EDA0
:109DD000007ADFED8E5A8E4B9FED8E3ADFED8E3A94
:109DE000DFED8E1A9FED8E2ADFED8E2A9FED8E1A03
:109DF000DFED8E6ADFED8E4A89EE800A03F16C0595
:109E0000002245F82230F8EE677A67EE877AB7EEDF
:109E1000007A27EE888A39EE479AFDEEC87A78EE06
:109E2000250A17EE901AFDEEE07A203117EE900A1F
:109E3000402929EE000A00F120006AD8B4EEC38A56
:109E4000F1EE10FA40F31982B0EE487A9FED796A8C
:109E500001E0B0EE677AB4EEC67AF1EE10FA77EE72
:109E6000667AF6DCF4EEE37AF1EE10FA40F108825D
:109E70009FED716A01E0F0EE477AF4EEC67AF1EEFA
:109E800010FA37EEA67AF6D4B4EEE57AF1EE10FACF
:109E900040F3908133EE477A67EE077AB0EE426A7C
:109EA000A7EEA16AB0EE625AA7EE865A67EE277A4D
:109EB000B7EE004AA7EE857AB0EE446AF0EE447A37
:109EC000A7EE006AE7EE407A84EE065A87EE864AED
:109ED000402845D9B0EE647AC7EE067A243303ED04
:109EE000095A43ED087A43ED067A03ED075A03ED6C
:109EF000054A43ED034A43ED044A43ED014A43ED6D
:109F0000024A002A7FF4DFAE0122402945F82230C0
:109F100094D9B7EE004AB0EE445AB0EE446AD7E79F
:109F2000A3B2002A3FF4CCAE2DE7EDB207EE905A73
:109F3000DFED426A304B424AC6F8A032B8EEE77A0B
:109F40000833C6EE877AC6F8A432C6F89C2277EEAC
:109F5000A87A88EEA77A86EDAC7A86EDAE7A0AE723
:109F6000B4EEE58AF1EE10FA40F38D81B0EE607A3E
:109F70009FED309A01E0B0EE677AB4EEC97AF1EE67
:109F800010FA77EE667AF6DCF4EEE37AF1EE10FA88
:109F900040F17C819FED289A01E0F0EE477AF4EEE3
:109FA000C97AF1EE10FA37EEA67AF6D4B4EEE57A75
:109FB000F1EE10FA00F34E81B4EEC17AF1EE10FA30
:109FC00048BF33EEC77A67EE077AF0EE429AE7EEC3
:109FD000A19AB0EE62AAA7EEA9AA67EE277AB8EE18
:109FE000009AA7EE8A7A27EE097A75E7A028002062
:109FF000813602088C5400204C2B002001360208C8
:10A0000000247449E930020827D4D236DB0FC93F57
:10A01000C42A0020DB0F4940DB0F49C092E741B959
:10A020009730083C15A82ABEDB0FC9BFDB0FC9401B
:10A0300000000000E4CB1641E4CB16C183F9223EB8
:10A0400065360208974B9FED987AD3ED006A9FED35
:10A05000974A974B974ADFED981A9FED982A9FED04
:10A06000980ADFED980A9FED981ADFED985AC6F826
:10A070009C22F8EE666A07EE905A66EE876AF8EE62
:10A08000677AF0EE442A66EEA76AA3F10C04FDEEAF
:10A09000E67A36EE844A17EE900AFDEEC47A203056
:10A0A00017EE901A00222031F7EE004A402844F8BB
:10A0B000223053D8F4EEE16AF1EE10FA40F3E98071
:10A0C000B0EE667A9FED825A9FED826A01E0B0EEB3
:10A0D000677AB4EEC67AF1EE10FA77EE457AF6DCDE
:10A0E000F4EEC27AF1EE10FA40F1D6809FED785A84
:10A0F0009FED796A01E0F0EE477AF4EEC67AF1EE70
:10A1000010FA37EE857AF6D4B4EEE27AF1EE10FA70
:10A1100000F3A380DFED717AB4EEE77AF1EE10FA86
:10A1200048BF32EE477A67EE077AF0EE603AE7EE24
:10A13000803AB0EE413AA7EEA33A27EE275A9FEDB8
:10A14000686AA5EE037AF0EE643AF0EE647AE7EE20
:10A15000063AE7EE467A87EEA33A03E0B7EE003A16
:10A16000F0EE433A40292DD9B0EE657AB6EE006A9A
:10A17000B7EE005AC4EEA37A243303ED053A27EE76
:10A18000866A27EE855A27EE877A03ED096A03ED82
:10A19000076A03ED085A03ED067A43ED035A43EDCF
:10A1A000045A43ED015A43ED025A002A7FF4E3AD0D
:10A1B00001227BE7B4EEC17AF1EE10FA48BF33EE2C
:10A1C000C77A69E6F4EEE26AF1EE10FA48DDB0EE25
:10A1D000447A9FED3F5A9FED3F6A01E0B0EE677A07
:10A1E000B4EEC67AF1EE10FA77EE457AF6DCF4EECC
:10A1F000C27AF1EE10FA52D59FED355A9FED366ACC
:10A2000001E0F0EE477AF4EEC67AF1EE10FA37EE9E
:10A21000857AF6D4B4EEE27AF1EE10FA23DD31EE6F
:10A22000C77A67EE077AB0EE606AA7EE806AF0EE52
:10A23000418AE7EE868A27EE275AB8EE008AA5EE15
:10A24000287AB6EE006A34EEC75A27EE087A25EE71
:10A25000066A8FE733EE477AB5E631EEC77A62E7F2
:10A26000F0EE447AC3E7DFED1D7AB4EEE77AF1EE63
:10A2700010FA48BF32EE477AD3E7F0EE487AF1E5BC
:10A28000B0EE677A00E6F0EE607A7DE6B0EE677ACF
:10A290008CE6F0EE667A23E7B0EE677A34E7B0EE4C
:10A2A000677AB7E78C54002027D4D236DB0FC93F3A
:10A2B0004C2B0020E9300208DB0F4940DB0F49C07E
:10A2C00092E741B99730083C15A82ABE000000006B
:10A2D000DB0FC940E4CB1641E4CB16C1DB0FC9BF8D
:10A2E000F304353F012800D970470129FCD8884282
:10A2F000FAD010B4084B00EB800401EB8102C0EBF4
:10A30000C400C1EBC20103EB400003EB41014E224C
:10A310005DF8044B34F016B9CE7B002038B52DED36
:10A32000068B9E4A9E4B11781B68DFED9E7A9E4AF3
:10A330009E4D03FB01F307EE103AB8EE478A136017
:10A3400028EE278A044685ED878A002B40F023817A
:10A35000974BC5F82032C5F89C3294F83630E17935
:10A36000DFED945A9FED94AA2279DFED941A9FEDC8
:10A37000940A9FED949ADFED948ADFED949A9FED15
:10A38000943A07EE903A637807EE103AF8EEE77ADF
:10A3900001EE101AB8EEC77A21788E4BC5EEA76A87
:10A3A000184627EE0A7A02EE101AE178C3ED0A6A1F
:10A3B00002EE901A17EE101A40F80C1FA17903EE66
:10A3C000901A94F8371004EE101A617D04EE901A7A
:10A3D000A17D06EE102A05EE101AA278617900EE32
:10A3E000902A06EE901A94F82F20217A07EE901A00
:10A3F000C2F1AF0105EE901AF8EEE00AB8EEC66AB7
:10A40000C2F16402E17D26EE0A6A07EE102AF8EE38
:10A41000E55A60EEA10A1A4680ED016AB8EEC11A4B
:10A4200025EE806AB8EEC22A05EE901AF8EEE22A0E
:10A4300010EE901AF8EEE33AB8EEC44AF8EEE44AA9
:10A44000B8EEC55AF8EEE66AF8EEE77AB8EEC77AE3
:10A4500042F8181F63EE893A24EE294A64EEA84AAE
:10A4600025EE285A21EE0A1A22EE092A62EE892ADE
:10A47000F8EE655A66EEA16A67EEA17A27EE037AD6
:10A4800094F83010C2ED016AC2ED027A80ED021A32
:10A49000C3ED023A83ED094AC3ED0B4A83ED0C5A32
:10A4A000C3ED0D5A83ED0F6A85F8B41883ED002AC9
:10A4B000C3ED012A83ED107A94F82820608F218F54
:10A4C00007EE902AF7EE006AF8EE677AB0EE666A59
:10A4D000A7EEC36A94F8472004EE102A642202FB18
:10A4E00001F1C6EE863A02FB00F2B4F8420007EE34
:10A4F000902AE28FC3ED143A04EE902AA28F05EE63
:10A50000102AB4F8402007EE101A05EE902AB4F88D
:10A510004A20B8EEC77AF8EEE77A06EE102AB4F8C9
:10A520004C2067EE887A27EE087ABDEC068B06EEA3
:10A53000902A94F84620B4F8444083ED137A4FF4FF
:10A540007A71B8EE444AF8EE644AB8EE455AF8EE2D
:10A55000655AB8EE466AF8EE666A02EB820201FBC3
:10A5600000F0520001FB04F183ED184AC3ED194AD3
:10A5700083ED1A5AC3ED1B5A83ED1C6AC3ED1D6AA5
:10A58000C3ED127AC3ED117AC5F8D828C5F8D00802
:10A59000C5F8D41838BDFFF77DFBDEE66E5000200D
:10A5A000E87D0020BD3786358C540020A02800208F
:10A5B000813602080000C842033F7A3E97AC0A3A4F
:10A5C0006666E63FD730033DCDCCCC3D0402013C6E
:10A5D0000AD7233C1C31002070B42DED068B90F877
:10A5E0002F20017890F836309FED9D7A9FED9DAA3F
:10A5F000DFED9D8ADFED9D5ADFED9D9A9FED9D9ADF
:10A60000DFED9D0ADFED9DAA01EE101AC2F1AF0148
:10A61000C2F1640206EE102A027907EE903A03EEC8
:10A62000102AC279964BF8EEE77A03EE902A8278E8
:10A6300087EE278A03F67C0403F6A40503F50A6671
:10A6400004EE102A427985ED008A04EE902A027AFF
:10A6500000EE101A06EE902AC17890F8372001EE2D
:10A66000901A05EE102A8179427D02EE101A07EE4B
:10A67000102A4178827D02EE901A07EE902AB8EEF9
:10A68000C00AC27DB8EEC11AF8EEE11AB8EEC22ACD
:10A69000B8EEC44AF8EEE44AF8EEE66AB8EEC66AE6
:10A6A000F8EEE22AB8EEC33AF8EEE33AB8EEC55A4D
:10A6B000B8EEC77AF8EEE77A24EE284A64EEA84AA4
:10A6C00066EEA86A20EE250A21EE0A1A05EE902A07
:10A6D00061EE8A1A90F8302083F8B42822EE0A2A14
:10A6E00003F6940225EE2A5A27EE097A67EE897A54
:10A6F00003F6B80126EE206A62EEA92A23EE293A73
:10A7000063EEA93A81ED000A03F6A80503F6880175
:10A7100082ED004AC2ED014AC2ED026A84ED001AE0
:10A7200003F6BC02C4ED011A84ED022A03F6AC0460
:10A7300086ED005A85ED007AC1ED002A81ED013ADF
:10A74000C1ED023AC4ED007A82ED006A90F828204B
:10A75000068FD3ED876A90F8464007EE902AB7EE51
:10A76000007AF8EE677AB0EE476AA7EEE06A03F582
:10A770000B614FF47A75F8EE655AF0EE467AC1ED4A
:10A78000005A87EE276AB0F84210428F05FB01F1AC
:10A79000C3F8D01890F84710BDEC068B04EB840486
:10A7A00004EE101A642101FB02F207EE902A01FB6D
:10A7B00006F2C18F04EE901A818F05EE101AB0F8E0
:10A7C000401007EE102A05EE901AB0F84A1003F672
:10A7D000CC0282ED006AF8EEE77A06EE101AB8EEC7
:10A7E000C77AB0F84C10B0F8442067EEA67A27EE8E
:10A7F000267A06EE901A05FB02F26400B8EE444A8F
:10A80000F8EE644AB8EE455AF8EE655AB8EE466A74
:10A81000F8EE666AC3F8D84803F50C61C3F8D4288B
:10A8200003F6DC0603F50E6503F6E40403F6E80020
:10A8300003F6EC0203F50F6381ED027AC1ED017AB4
:10A84000C1ED007A86ED004AC5ED004A84ED005A5C
:10A85000C0ED005A82ED006AC3ED006A70BC70471B
:10A860000000C842D730033D97AC0A3A6666E63F1F
:10A87000033F7A3ECDCCCC3D0AD7233C0402013CB9
:10A88000A0280020334B1B78012B2BD1324B1B68A7
:10A89000B0F57A7F03F4805308DADFED307A9FED6C
:10A8A000300A002B08BFB0EE670A7047B0F5FA6FA8
:10A8B0001DDCFBB9B0F57A7F20D06FF47A7340F2DB
:10A8C000CF721844274B02FB00F0A3FB0023C01AF1
:10A8D00003EB50035B0A30339BB200EE103AB8EE44
:10A8E000400A704707EE900AB8EE670A70479FED7E
:10A8F0001E0A704740F2DC53984202D19FED170ABE
:10A90000704740F2DB53984211D9A0F2DD5040F27B
:10A91000E73303FB00F340F2F31293FBF2F303F58A
:10A9200083639BB200EE103AB8EE400A7047A0F580
:10A930007A70A3F6C21303FB00F340F2F31293FB09
:10A94000F2F303F217439BB200EE103AB8EE400A5E
:10A95000704700BF06A90020F8B5002000000000E5
:10A9600000E08244410A680600E0FF442DE9F84F08
:10A97000404B1B7883B3404A116809B1002008603E
:10A98000012B29D0916909B100200860022B23D046
:10A99000116B09B100200860032B1DD0916C09B127
:10A9A00000200860042B17D0116E09B10020086048
:10A9B000052B11D0916F09B100200860062B0BD038
:10A9C000D2F8901009B100200860072B04D0D2F80B
:10A9D000A8300BB100221A601AF0EAFA274F284A71
:10A9E000284E2949DFF8A4C04FF0100E4FF47A74B6
:10A9F0004FF0010840F2DB557368C3F30803CBB98D
:10AA0000EFF31183B3B91368D1F808A000BFD2F8EF
:10AA100000904B45F7D1D7F8009004FB09FBABEB56
:10AA20000A0ABAFBF9FA04FB03A31B1AAB42E3D9E7
:10AA3000BDE8F88FEFF3118A8EF31288D1F808B0D1
:10AA40000B68DB0344BFCCF80080D1F808B0136872
:10AA5000DCF800905FFA8AFA8AF31188D7F800A030
:10AA60004B4404FB0AF9A9EB0B09B9FBFAF904FB07
:10AA70000393DAE78557002030A800206496002071
:10AA80008C94002000ED00E010E000E060960020D3
:10AA90002DE9F84F4A4B4B4ED3ED217A30784A4B93
