:020000040800F2
:10000000F0FF0010F9EF0308E1DB0308ADC20208BE
:1000100029F1030829F1030829F103080000000071
:100020000000000000000000000000006DE2030876
:1000300069E203080000000065E2030891BB0208C2
:1000400029F1030829F1030829F1030829F103081C
:1000500029F1030829F1030885C30208B1C4020885
:1000600075C4020839C40208FDC30208D942030856
:10007000C9420308B9420308A9420308954203088C
:10008000814203086D42030829F1030829F103089E
:1000900029F1030829F1030829F10308C1C3020863
:1000A00029F10308CDB1020829F103088DB2020835
:1000B00029F1030829F103080DB102087548030866
:1000C0007D480308694803087148030829F10308BB
:1000D00029F1030835BE020899BD0208FDBC0208DB
:1000E00049C3020829F1030871E20308C1AE0208FE
:1000F0008DAF020829F103084DB0020859420308E8
:1001000029F1030829F1030829F1030829F103085B
:1001100061BC0208C5BB0208A15901088559010844
:1001200045420308314203081D3B03081D420308F2
:100130000942030829F1030829F1030829F10308FA
:1001400029F1030829F1030829F10308E5DB030875
:10015000F5410308E1410308CD41030829F10308F3
:100160005D4803086548030829F1030829F10308DD
:1001700029F1030829F1030829F1030829F10308EB
:1001800029F1030829F10308A0EB03000100000096
:10019000031233007C2F00200234002000000000F6
:1001A0004006000825005A00AF2F00209833002099
:1001B0000000000000000000F6110C0008330020D1
:1001C0002833002000000000740600082C001000F6
:1001D00014330020F233002000000000DD9F0008EF
:1001E0002B0024005934002035340020000000008A
:1001F000AD9F00082900640028320020343300201D
:10020000000000000000000014000200D4310020B3
:1002100024330020000000008006000810100300B6
:10022000C4310020C4340020000000008206000811
:1002300028001000D02D0020C8340020000000004D
:100240000180000823001000F42C0020D834002086
:10025000000000001980000819000500BC310020D2
:10026000E83400200000000086060008F82106009F
:100270003A2E0020F0340020000000008C06000818
:1002800007020200344100207841002000000000F5
:100290009206000802000C00044100207C4100206E
:1002A000000000000000000006020C00F8400020E2
:1002B0008841002000000000812301080802090095
:1002C0008240002094410020000000004D220108DF
:1002D000F70106007C400020A04100200000000043
:1002E000940600080A020A00283E0020A8410020C7
:1002F000000000009A06000827000400E83F0020E4
:10030000B441002000000000A406000801200800FD
:10031000E03D0020B841002000000000A8060008D1
:100320001A000A0088350020C041002000000000AB
:10033000B006000822000C001C6E0020F06E0020A9
:1003400000000000BA0600081B00F40070590020ED
:10035000FC6E00200000000041D801080E020200DF
:10036000B8600020F06F002000000000C606000802
:100370002F001100B86E0020F46F00200000000074
:10038000C806000805100600E46E00200870002072
:1003900000000000DA060008F5216E00E858002091
:1003A000107000200000000015D0010826000E008B
:1003B000907000208070002000000000EDCF010848
:1003C0000B20100058590020A070002000000000F1
:1003D000E00600081F101C00C8580020B070002064
:1003E00000000000F006000805020100105D00207A
:1003F000CC700020000000000C07000803010A0078
:10040000545B0020D0700020000000000E070008A0
:1004100016000800B8730020DC7300200000000004
:10042000180700080E20EA00767C00208482002055
:10043000000000002D150108130004001C7E0020A0
:100440007083002000000000200700080101040064
:10045000F67B0020748300200000000000000000F4
:1004600000010400EE7B00207883002000000000E3
:100470002407000802010300E97B00207C830020A0
:10048000000000008921010809020100BC81002050
:100490008083002000000000280700080C10600086
:1004A000987D002084830020000000005D21010869
:1004B00001020500FE7B0020E48300200000000014
:1004C000614A030800020500CC790020EC8300207B
:1004D00000000000000000001E000400907F0020CB
:1004E000F4830020000000002A0700081302010026
:1004F000148D0020B0C200200000000000000000A9
:1005000004008000ACC10020B4C200200000000044
:1005100000000000F901040090B6002034C3002060
:1005200000000000CD9C0208FD011E006CB60020FA
:1005300038C30020000000005D9C02080610160071
:1005400084A9002058C300200000000051180108B1
:10055000FB010100C0A8002070C3002000000000C3
:10056000D1210108FC0109008CA7002074C30020E0
:1005700000000000112201081102080060A70020FD
:1005800080C30020000000002E07000812120400A3
:1005900058A7002088C3002000000000360700088C
:1005A00012200D0044A700208CC300200000000092
:1005B0003A07000818202C00A0A600209CC30020A9
:1005C0000000000079AD00080D003400CCA600202A
:1005D000C8C300200000000095230108FA010200B2
:1005E00074A00020FCC300200000000089A00208C5
:1005F000020203003C8D002000C400200000000027
:10060000000000000C0201002C8D002004C400201A
:100610000000000048070008FE01090048A0002073
:1006200008C4002000000000772201080A103000F2
:100630009897002014C40020000000004A0700081A
:1006400000000000000000000000000000000000AA
:10065000000000000000000000000000000000009A
:10066000000000000000000000000000000000008A
:100670000000010000000000000000000000000079
:100680000300000500000000280100000200F40142
:100690001900023C3F010000000000004A01B400C4
:1006A000D601260020030000E8036400040A0001CC
:1006B0007E05EA05B40532000000C800141E0100E2
:1006C00064002C0128000000000000000000000071
:1006D00000000000000000000000200001010000F8
:1006E0002B21231E64010100000001000A012900E2
:1006F00000000000000001000000050000000000F4
:1007000000000000000000000000000000000401E4
:1007100001006C1600000000651B0D00190128285F
:1007200008044400900100000000000001000000E7
:10073000000001010101FFFFFFFF000000010000B8
:100740000548455350000000010000300107015AE0
:100750000001000000000000000000000000010097
:10076000000030000100AC0D0600AC0D0600C4090D
:1007700006009600960096000000D6010000099041
:100780000008000000000000000001006A000100F5
:100790000000FFFFFFFF0000803F0000000000009E
:1007A0000000000000000000803F0000000000008A
:1007B0000000000000000000000000000000000039
:1007C0000000000000000000000000000000000029
:1007D000803F00000000000000000000000000005A
:1007E000803F00000000000000000000000000004A
:1007F000000068410020080000000000000058418F
:10080000002008000000FDF2010881F2010871EBF0
:1008100001080000000059D70108F1F3010861D771
:1008200001085DD701080000000000000000B5C706
:100830000108759E0308359E030801DB03080000CC
:100840000000AD9A0308899D0308099E0308F19CE6
:1008500003080000000000000000A19A0308000047
:10086000803F0000803F341D04080508040000009C
:100870000000942E0408CC1E0408802E04080000FA
:10088000000000000000601D040805080A000000C8
:100890000000942E0408CC1E0408982D04080000C3
:1008A00000000000000009026400030100C03209DA
:1008B00004000001030000000921110100012226AB
:1008C000000705830308000A080B01020202010069
:1008D00009040100010202010005240010010524A1
:1008E0000100020424020205240601020705820316
:1008F0000800FF09040200020A00000007050102C7
:100900004000000705810240000000FFFF000000DA
:100910000000AA55050100000100000001FFFF01D1
:10092000000005010905A101A100050109300931F7
:100930000932093309350934094009381581257F01
:10094000750895088102C0C000000902220001015B
:1009500000E0320904000001030102000921110135
:1009600000012226000705830308000A000000009A
:1009700000000102030401020304060708092D20F8
:100980002D2D202D2D2D2D202D2D2D2D0000000065
:1009900000000000000000000000000000AA550B4D
:1009A000010000AA5507010000AA55090200000035
:1009B000000001000000C012AA5503009F00FF1FA5
:1009C000FF1FF45E040800000000000000009D21ED
:1009D0000108A086010004000000000000000000E3
:1009E0000000000000000000000000000000000007
:1009F00000000000000048780408DC6D04080000D6
:100A00000000057301087D000000060000000000E2
:100A100000000000000000000000000000000000D6
:100A200000000000000000000000E46D0408000069
:100A300000000000000049CC0208E80300000300A9
:100A400000000000000000000000000000000000A6
:100A50000000000000000000000000000000E86D41
:100A60000408000000000000000001250108E80360
:100A70000000050000000000000000000000000071
:100A80000000000000000000000000000000000066
:100A90000000F46D040800000000259D0008DDE55D
:100AA0000208204E000005000000000000000000C9
:100AB0000000000000000000000000000000000036
:100AC000000000000000A06004080000000000001A
:100AD000000005D6020810270000010000000000F9
:100AE0000000000000000000000000000000000006
:100AF00000000000000000000000F86D0408000085
:100B0000000000000000019B0208E803000005004F
:100B100000000000000000000000000000000000D5
:100B20000000000000000000000000000000046E53
:100B300004080000000000000000795E0108204E5B
:100B400000000300000000000000000000000000A2
:100B50000000000000000000000000000000000095
:100B60000000146E04080000000000000000655C36
:100B70000108204E000003000000000000000000FB
:100B80000000000000000000000000000000000065
:100B9000000000000000246E0408000000000000B7
:100BA000000095A00208400D0300030000000000B3
:100BB0000000000000000000000000000000000035
:100BC00000000000000000000000B85F0408000002
:100BD00000000000000091640208102700000100DE
:100BE0000000000000000000000000000000000005
:100BF0000000000000000000000000000000A860ED
:100C0000040800000000000000008D7D030810278C
:100C100000000300000000000000000000000000D1
:100C200000000000000000000000000000000000C4
:100C30000000346E04080000000000000000EDA871
:100C40000008A08601000100000000000000000074
:100C50000000000000000000000000000000000094
:100C60000000000000003C6E0408000000000000CE
:100C700000004D910308A086010001000000000063
:100C80000000000000000000000000000000000064
:100C900000000000000000000000AC60040800003C
:100CA000000000000000653A0208A00F00000100EB
:100CB0000000000000000000000000000000000034
:100CC0000000000000000000000000000000486E6E
:100CD00004080000000000000000CDE50108102716
:100CE0000000010000000000000000000000000003
:100CF00000000000000000000000000000000000F4
:100D00000000C05F0408000000000000000029325D
:100D100002081A410000010000000000000000006D
:100D200000000000000000000000000000000000C3
:100D30000000000000000C6104080000000000003A
:100D40000000C5CC010810270000010000000000D1
:100D50000000000000000000000000000000000093
:100D600000000000000000000000A06D040800006A
:100D7000000000000000056D03081A41000001009A
:100D80000000000000000000000000000000000063
:100D90000000000000000000000000000000546E91
:100DA0000408000000000000000005030208400DD8
:100DB0000300000000000000000000000000000030
:100DC0000000000000000000000000000000000023
:100DD00000005C6E0408000000000000000069399B
:100DE0000208400D030000000000000000000000A9
:100DF00000000000000000000000000000000000F3
:100E0000000000000000646E040800000000000004
:100E1000000039830308A0860100030000000000E1
:100E200000000000000000000000000000000000C2
:100E300000000000000000000000706E04080000C8
:100E4000000000000000315C010840420F0000007B
:100E50000000000000000000000000000000000092
:100E600000000000000000000000000000007C6E98
:100E700004080000000000000000612E010850C3BB
:100E80000000000000000000000000000000000062
:100E90000000000000000000000000000000000052
:100EA000000001000000FFFFFFFF010102FFFFFF44
:100EB00000000100000050010000070000000200D7
:100EC000000000000000000000000102030406070B
:100ED0000809E001010101000000514C0308000075
:100EE0000000D4080020C07E0408000000000000BC
:100EF0000000000000000000000004800408000062
:100F000000000000000060090020040000006C7E6A
:100F100004080D00000051670308002400200000B1
:100F20000000B87704080D00000079670308F42377
:100F300000200000000028790408080000000000DC
:100F40000000E823002004000000247804080D00BD
:100F50000000054D0308DC23002000000000D878C5
:100F600004080300000089690308D0230020000062
:100F70000000D07E04080300000089690308C42330
:100F800000200000000014750408010000000000AB
:100F900000000000000000000000000000000E0043
:100FA0000000000000000000000000000000C07E03
:100FB0000408000000000000000000000000000025
:100FC0000000048004080000000000000000600928
:100FD000002004000000187E04080300000051589F
:100FE0000308B823002008000000247804080D003E
:100FF0000000054D0308DC23002000000000D87825
:1010000004080300000089690308D02300200000C1
:101010000000D07E04080300000089690308C4238F
:10102000002000000000147504080100000000000A
:1010300000000000000000000000000000000E00A2
:101040000000000000000000000000000000D87E4A
:101050000408000000000000000000000000000084
:101060000000048004080000000000000000600987
:10107000002004000000207E0408030000008969AD
:1010800003080C240020000000001475040801006F
:101090000000000000000000000000000000000050
:1010A00000000E0000000000000000000000000032
:1010B000000020700020702D720008000000000069
:1010C000000000000000741F0020FFFFFFFFFA0077
:1010D000000001000000010000002D202D2D202D1A
:1010E0002D2D2D202D2D2D000000000000000000D2
:1010F00000000000000000000000E8740408F07424
:1011000004080C7504080000000000000000000046
:10111000000000000000817404080400000019654C
:10112000030800000000000000001475040801001E
:1011300000000000000000000000000000000000AF
:1011400000000E0000000000000000000000000091
:1011500000005EC200200100C409000000005CC263
:1011600000200100C409000000005AC20020010054
:10117000C4090000000058C200200100C40900009A
:10118000000054C200200100C4090000000056C243
:1011900000200100C4090000000052C2002001002C
:1011A000C4090000000050C200200100C409000072
:1011B0000000107C00200100C800010000000E7C2F
:1011C000002032003075320000000C7C0020055AEF
:1011D0000500097C002000FF01000B7C00200100BD
:1011E000000080090020077C002002000000C81FCA
:1011F0000408087C002000FF01000A7C0020010098
:10120000000080090020067C002002000000C81FAA
:101210000408FC7B002080C1803E05000000FA7BB2
:10122000002080C1803E05000000F47B002080C1CA
:10123000803E05000000F27B002080C1803E05005A
:101240000000EC7B002000FF0100E87B00200A3258
:101250000100E77B002004000000782D0408E67BF5
:101260000020020000008C2D040800000000000097
:10127000000088090020C85C00209CFF2C010000B1
:1012800000005A0700200A000000982D0408DC7BAB
:101290000020E0150C17000000005C07002008008B
:1012A0000000CC1E04085B07002005000000942EFF
:1012B0000408DE7B002002000000B02D04080C7E34
:1012C00000200100FF7F010000000B7E00200200D3
:1012D0000000BC2D04086B7C002003000000CC2D16
:1012E00004086A7C002003000000CC2D0408707DF7
:1012F00000200000C201010000006E7D00200000FF
:10130000C201010000006C7D00200000C20101004C
:1013100000006A7D00200000803E01000000687D22
:1013200000200000803E32000000667D00200000AA
:10133000803E01000000647D00200000803E3200FD
:101340000000627D00200000803E01000000607D02
:1013500000200000803E320000007A7D0020000066
:10136000F40101000000787D00200000F40101007C
:101370000000767D00200000F40101000000747D73
:1013800000200000F40101000000727D002000FF39
:101390000100967D0020E803D0070A000000947D3C
:1013A0000020006401000A000000897D0020006424
:1013B0000100887D002000640100907D0020006411
:1013C00001000A0000008F7D0020006401000A0077
:1013D00000008E7D0020006401000A000000937D63
:1013E0000020006401000A000000927D00200064DB
:1013F00001000A000000917D0020006401000A0045
:1014000000008D7D002000FF01000A0000008C7D9F
:10141000002000FF01000A0000008B7D002000FF7B
:1014200001000A000000727C00200000F4010100AD
:101430000000707C00200000F401010000006E7CC0
:1014400000200000F401010000006C7C002000007E
:10145000F40101000000847D00201400E803010075
:101460000000827D0020E803307501000000817DCE
:10147000002000C80100807D002000C801007F7DA1
:10148000002000C801007E7D0020016401000A00E8
:1014900000007D7D002000FF01000A000000017EA9
:1014A000002000C80100007E002000C80100FF7D70
:1014B000002000C80100FE7D002000C80100FD7D65
:1014C000002000C80100FC7D002000C80100FB7D59
:1014D000002000C80100FA7D002000C80100F97D4D
:1014E000002000C801003C75040800000000000056
:1014F000000000000000000000004C750408090016
:101500000000000000002C0A0020040000005475B8
:1015100004080900000000000000200A0020040068
:101520000000007C04080900000000000000140A0C
:10153000002004000000F072040809000000000010
:101540000000080A0020040000005C75040809007F
:10155000000000000000FC09002004000000647589
:1015600004080900000000000000F0090020040049
:1015700000006C7504080900000000000000E40988
:101580000020040000007475040809000000000039
:101590000000D809002004000000147504080100B0
:1015A000000000000000000000000000000000003B
:1015B00000000E000000000000000000000000001D
:1015C0000000AC76040800000000000000000000ED
:1015D000000000000000A85E0408070000000000F2
:1015E0000000500A002000000000BC76040808003B
:1015F000000000000000440A002000000000C8763F
:1016000004080800000000000000380A0020000064
:101610000000147504080100000000000000000034
:10162000000000000000000000000E0000000000AC
:1016300000000000000000000000D0760408000058
:101640000000000000000000000000000000E07644
:1016500004080D000000000000008C0A00200000BB
:101660000000E87604080D00000000000000800A79
:10167000002000000000F0760408070000000000D1
:101680000000780A002000000000F87604080D0031
:101690000000000000006C0A00200000000000773D
:1016A00004080D00000000000000600A0020000097
:1016B0000000087704080700000000000000580A36
:1016C0000020000000001475040801000000000064
:1016D00000000000000000000000000000000E00FC
:1016E0000000000000000000000000000000107773
:1016F00004080000000000000000000000000000DE
:101700000000A85E04080C00000000000000127C2D
:10171000002000000000247704080C0000000000F6
:101720000000147C002000000000347704080C0046
:101730000000000000004A7C002000000000447708
:1017400004080C000000000000003E7C00200000A7
:101750000000587704080C00000000000000167C10
:10176000002000000000746F04080C00000000005E
:101770000000187C002000000000647704080C00C2
:101780000000000000001A7C0020000000007877B4
:1017900004080C000000000000001C7C0020000079
:1017A0000000807704080C000000000000001E7C90
:1017B000002000000000887704080C0000000000F2
:1017C00000005C7C002000000000A07704080C00F2
:1017D000000000000000207C002000000000AC772A
:1017E00004080C00000000000000227C0020000023
:1017F0000000606D04080C00000000000000247C64
:10180000002000000000B47704080C000000000075
:101810000000267C002000000000C07704080C00B7
:10182000000000000000287C002000000000CC77B1
:1018300004080C000000000000002A7C00200000CA
:101840000000D87704080C000000000000002C7C89
:10185000002000000000E47704080C0000000000F5
:1018600000002E7C002000000000F07704080C002F
:10187000000000000000427C002000000000F8771B
:1018800004080C00000000000000407C0020000064
:101890000000007804080C000000000000004E7CEE
:1018A0000020000000000C7804080C00000000007C
:1018B0000000507C002000000000187804080C0094
:1018C000000000000000567C0020000000000476AC
:1018D00004080C00000000000000307C0020000024
:1018E0000000247804080C00000000000000387C90
:1018F0000020000000002C7804080C00000000000C
:101900000000327C002000000000387804080C0041
:10191000000000000000347C00200000000044783B
:1019200004080C00000000000000367C00200000CD
:1019300000004C7804080C000000000000003A7C15
:10194000002000000000C85E04080C000000000039
:101950000000447C002000000000587804080C00BF
:101960000000000000003C7C0020000000006478C3
:1019700004080C000000000000004C7C0020000067
:101980000000707804080C00000000000000467C95
:10199000002000000000787804080C00000000001F
:1019A0000000487C002000000000807804080C0043
:1019B000000000000000527C002000000000887839
:1019C00004080C00000000000000547C002000000F
:1019D0000000147504080100000000000000000071
:1019E000000000000000000000000E0000000000E9
:1019F00000000000000000000000907804080000D3
:101A000000000000000000000000000000009C78C2
:101A100004080D00000000000000E40A002000009F
:101A20000000A47804080D00000000000000D80A9F
:101A3000002000000000AC7804080700000000004F
:101A40000000D00A002000000000B8780408070059
:101A5000000000000000C80A002000000000C47858
:101A600004080900000000000000BC0A002000007B
:101A70000000D07804080900000000000000B00A4F
:101A8000002000000000DC780408090000000000CD
:101A90000000A40A002000000000EC7804080900FF
:101AA000000000000000980A0020000000001475EB
:101AB0000408010000000000000000000000000019
:101AC0000000000000000E00000000000000000008
:101AD0000000000000000079040800000000000081
:101AE000000000000000000000001079040805005C
:101AF000000000000000697C002000000000147558
:101B000004080100000000000000000000000000C8
:101B10000000000000000E000000000000000000B7
:101B20000000000000001879040800000000000018
:101B30000000000000000000000004800408000015
:101B400000000000000004020020040000002479CE
:101B500004080D0000007D650308380B002000001C
:101B600000006C7E04080D000000094C03082C0BDB
:101B7000002000000000B87704080D000000ED4BC5
:101B80000308200B0020000000002879040808004A
:101B9000000000000000140B002004000000247866
:101BA00004080D000000354B0308080B002000005E
:101BB0000000307904080900000000000000FC0A61
:101BC000002004000000D8780408030000008969A0
:101BD0000308F00A0020000000001475040801004A
:101BE00000000000000000000000000000000000F5
:101BF00000000E00000000000000000000000000D7
:101C00000000387904080000000000000000000017
:101C1000000000000000487904080D0000000000EA
:101C20000000500B002000000000507904080A005A
:101C3000000000000000417F0020000000005C79EF
:101C400004080A00000000000000497F0020000096
:101C50000000647904080A00000000000000517FC1
:101C60000020000000006C7904080800000000005B
:101C70000000440B002000000000747904080400F8
:101C80000000216B03080000000000000000147534
:101C90000408010000000000000000000000000037
:101CA0000000000000000E00000000000000000026
:101CB000000000000000807904080000000000001F
:101CC00000000000000000000000947904080D00EE
:101CD000000000000000680B002000000000A47954
:101CE000040804000000C5670308000000000000AD
:101CF0000000AC7904080D000000000000005C0B3F
:101D0000002000000000C079040804000000A16762
:101D10000308000000000000000014750408010022
:101D200000000000000000000000000000000000B3
:101D300000000E0000000000000000000000000095
:101D40000000C87904080000000000000000000046
:101D5000000000000000DC7904080800000000001A
:101D60000000D40B002000000000E4790408080003
:101D7000000000000000C80B002000000000EC790B
:101D800004080800000000000000BC0B0020000058
:101D90000000F47904080800000000000000B00B07
:101DA000002000000000FC7904080800000000008A
:101DB0000000A40B002000000000047A04080800C2
:101DC000000000000000980B0020000000000C7ACA
:101DD000040808000000000000008C0B0020000038
:101DE0000000187A04080800000000000000800BC2
:101DF000002000000000247A040808000000000011
:101E00000000740B0020000000001475040801009D
:101E100000000000000000000000000000000000C2
:101E200000000E00000000000000000000000000A4
:101E300000002C7A040800000000000000000000F0
:101E4000000000000000407A0408070000000000C5
:101E50000000100C0020000000004C7A040808006C
:101E6000000000000000040C002000000000587A70
:101E700004080800000000000000F80B002000002B
:101E80000000647A04080800000000000000EC0B69
:101E9000002000000000707A040808000000000024
:101EA0000000E00B00200000000014750408010091
:101EB0000000000000000000000000000000000022
:101EC00000000E0000000000000000000000000004
:101ED00000007C7A040800000000000000003B09BC
:101EE000002000000000887A04080B0000000000B9
:101EF0000000A00C002000000000947A04080B00F1
:101F0000000000000000940C002000000000A07AF7
:101F100004080B00000000000000880C00200000F6
:101F20000000AC7A04080B000000000000007C0CEC
:101F3000002000000000B87A04080B000000000038
:101F40000000700C002000000000C47A04080B00A0
:101F5000000000000000640C002000000000D07AA7
:101F600004080B00000000000000580C00200000D6
:101F70000000DC7A04080B000000000000004C0C9C
:101F8000002000000000E87A04080B0000000000B8
:101F90000000400C002000000000F47A0408070054
:101FA000000000000000380C002000000000FC7A57
:101FB00004080700000000000000300C00200000B2
:101FC0000000087B04080B00000000000000240C47
:101FD000002000000000147B04080800000000003E
:101FE0000000180C00200000000014750408010017
:101FF00000000000000000000000000000000000E1
:1020000000000E00000000000000000000000000C2
:102010000000207B04080000000000000000000019
:10202000000000000000347B0408080000000000ED
:102030000000D00C002000000000407B04080800D5
:10204000000000000000C40C0020000000004C7BD9
:1020500004080800000000000000B80C0020000088
:102060000000247A04080800000000000000AC0C06
:1020700000200000000014750408010000000000AA
:1020800000000000000000000000000000000E0042
:102090000000000000000000000000000000587B6D
:1020A00004080000000000000000380900200000C3
:1020B0000000687B04080B00000000000000180D01
:1020C000002000000000747B04080B0000000000EA
:1020D00000000C0D002000000000807B04080700B9
:1020E000000000000000040D0020000000008C7BB8
:1020F00004080700000000000000FC0C00200000A5
:102100000000987B04080700000000000000F40CA9
:10211000002000000000A47B04080800000000006C
:102120000000E80C002000000000AC7B0408080060
:10213000000000000000DC0C00200000000014750E
:102140000408010000000000000000000000000082
:102150000000000000000E00000000000000000071
:10216000000000000000B47B040800000000000034
:1021700000003809002000000000C07B04080700B0
:10218000000000000000640D002000000000C87B7B
:10219000040807000000000000005C0D00200000A3
:1021A0000000D07B04080700000000000000540D70
:1021B000002000000000B8720408070000000000C2
:1021C00000004C0D002000000000C0720408070051
:1021D000000000000000440D002000000000C87254
:1021E000040807000000000000003C0D0020000073
:1021F0000000D87B04080700000000000000340D38
:10220000002000000000E07B040807000000000040
:1022100000002C0D002000000000E87B04080700EF
:10222000000000000000240D0020000000001475D4
:102230000408010000000000000000000000000091
:102240000000000000000E00000000000000000080
:1022500000000000000000000000794F03086C0D32
:102260000020677C00201D000000DC2D0408667C37
:10227000002000C80100647C0020E803D0070100B2
:10228000000048454C494F535052494E4700057C89
:10229000002000030100047C002000030100C14E67
:1022A0000308994E0308480E0020554E0308094EB6
:1022B0000308C00E0020014F0308E94E0308740F05
:1022C0000020754D0308294D0308801200208F4F10
:1022D00003080D5303085C130020754B030800002E
:1022E0000000AC130020FD6A03088952030888141B
:1022F0000020B54F0308000000003C15002071507D
:10230000030829500308C8150020E9500308B950F4
:102310000308B816002075510308B951030858176F
:102320000020867D002001060100F54F0308C94FFB
:1023300003089818002019510308E96703082419B5
:102340000020E551030845680308EC1900207C7D56
:10235000002001030100F07B0408000000000000E1
:1023600000000000000000000000FC7B04080800E2
:10237000000000000000FC1A002000000000047CA7
:1023800004080700000000000000F41A002000000C
:102390000000147C04080D00000000000000E81A92
:1023A000002000000000207C040803000000896970
:1023B0000308DC1A00200000000014750408010066
:1023C000000000000000000000000000000000000D
:1023D00000000E00000000000000000000000000EF
:1023E0000000287C0408000000000000000000003D
:1023F000000000000000387C04080A000000000013
:102400000000D46E040800000000407C04080A00AC
:10241000000000000000D137040800000000487CE4
:1024200004080A00000000000000027E00200000F6
:102430000000507C04080A00000000000000081B97
:1024400000200000000014750408010000000000D6
:1024500000000000000000000000000000000E006E
:102460000000000000000000000000000000587C98
:102470000408000000000000000000000000000050
:102480000000647C040803000000896903083C1B09
:10249000002000000000707C04080300000089692F
:1024A0000308301B002000000000787C04080300B3
:1024B000000089690308241B002000000000807CC4
:1024C00004080500000000000000037C002000005C
:1024D0000000887C040807000000000000001C1BAE
:1024E000002000000000947C0408070000000000A9
:1024F0000000141B002000000000147504080100F7
:1025000000000000000000000000000000000000CB
:1025100000000E00000000000000000000000000AD
:102520000000A07C04080000000000000000000083
:1025300000000000000034700408030000008969F6
:1025400003086C1B002000000000B47C040803009A
:102550000000896903086007002000000000BC7CBF
:1025600004080300000089690308601B00200000C4
:102570000000C47C04080300000089690308541BA0
:10258000002000000000247804080300000089698E
:102590000308481B00200000000014750408010017
:1025A000000000000000000000000000000000002B
:1025B00000000E000000000000000000000000000D
:1025C0000000D07C040800000000000000000000B3
:1025D000000000000000DC7C040807000000916897
:1025E0000308D41B00200000000048780408030002
:1025F000000089690308C81B002000000000E87C77
:1026000004080300000089690308BC1B00200000C7
:102610000000F07C04080300000089690308B01B77
:10262000002000000000F87C040807000000756826
:102630000308A81B0020000000004C7204080300DF
:102640000000896903089C1B002000000000047D35
:1026500004080300000089690308901B00200000A3
:102660000000107D04080300000089690308841B32
:10267000002000000000187D0408030000008969A4
:102680000308781B002000000000147504080100F6
:10269000000000000000000000000000000000003A
:1026A00000000E000000000000000000000000001C
:1026B0000000494F0308194F0308DC1B0020555246
:1026C000030800000000681C0020E54D0308C14D10
:1026D0000308F41C00200000000000000000A81DFA
:1026E00000202D520308AD680308481E0020247DF9
:1026F00004080000000000000000000000000000CE
:102700000000307D04080300000089690308681F89
:10271000002000000000387D0408030000008969E3
:1027200003085C1F002000000000C05F04080300D5
:10273000000089690308501F002000000000447D4C
:1027400004080300000089690308441F00200000FA
:102750000000507D04080300000089690308381F49
:10276000002000000000587D0408020000006D6B8E
:1027700003080000000000000000607D0408020063
:1027800000006D6B030801000000000000006C7D7C
:102790000408020000006D6B030802000000000046
:1027A0000000000000000E0000000000000000001B
:1027B000000000000000E27B002088136F1701007A
:1027C0000000E47B002088136F1700000000787D74
:1027D00004080000000000000000000000000000ED
:1027E0000000887D04080800000000000000482068
:1027F000002004000000947D040808000000000090
:1028000000003C20002000000000D87804080400EC
:102810000000A5650308000000000000000014751A
:10282000040801000000000000000000000000009B
:102830000000000000000E0000000000000000008A
:10284000000000000000E07B002088136F170100EB
:102850000000045D002088136F1700000000B94CD1
:1028600003080000000054200020E57E0020010045
:102870000000542E0408065D002001000000602EB8
:102880000408FC5C002002000000682E0408A6C2B8
:1028900000200000000000000000A4C20020000092
:1028A000000000000000A2C20020000000000000A4
:1028B0000000A0C2002000000000000000009EC236
:1028C000002000000000000000009CC2002000006A
:1028D0000000000000003C0200200000000000009A
:1028E0000000DF7B002002000000742E0408D07D71
:1028F00004080000000000000000000000000000CC
:102900000000887D04080800000000000000D820B6
:10291000002004000000947D04080800000000006E
:102920000000CC20002000000000D878040804003B
:102930000000894C0308000000000000000014752E
:10294000040801000000000000000000000000007A
:102950000000000000000E00000000000000000069
:10296000000000000000E07D0408000000000000FE
:1029700000000000000000000000F07D04080D00D1
:102980000000F56603080821002004000000FC7D1B
:1029900004080D000000E14C0308FC2000200400A6
:1029A0000000087E04080D000000B9660308F0204E
:1029B000002000000000147E04080300000071588D
:1029C0000308E420002008000000207E0408030023
:1029D0000000896903080C24002000000000147521
:1029E00004080100000000000000000000000000DA
:1029F0000000000000000E000000000000000000C9
:102A00000000000000000C75040800000000000039
:102A100000000000000000000000817404080400B1
:102A20000000BD65030800000000000000001475F0
:102A30000408010000000000000000000000000089
:102A40000000000000000E00000000000000000078
:102A5000000000000000747E040800000000000078
:102A600000000000000000000000B46104080D0038
:102A70000000000000006821002004000000847EA7
:102A8000040808000000000000005C210020040091
:102A90000000907E040808000000000000005021A3
:102AA000002004000000987E0408080000000000D8
:102AB00000004421002004000000A07E040808005B
:102AC0000000000000003821002004000000A87E63
:102AD000040808000000000000002C210020040071
:102AE0000000B07E04080800000000000000202163
:102AF000002004000000B87E040808000000000068
:102B000000001421002004000000147504080100D6
:102B100000000000000000000000000000000000B5
:102B200000000E0000000000000000000000000097
:102B30000000A14C030800000000742100200000E8
:102B4000000000000000EC21002000000000000058
:102B500000008C220020025D002004000000802E76
:102B60000408005D0020E0150C1700000000FF5C69
:102B7000002008000000CC1E0408FE5C00200500B8
:102B80000000942E04080000000000000000DC2279
:102B900000200403090412010002EF020140830433
:102BA000563200020102030100001201000202027B
:102BB00000408304405700020102030100000902A3
:102BC0004300020100C032090400000102020100BA
:102BD000052400100105240100010424020205243B
:102BE000060001070582030800FF09040100020A2C
:102BF00000000007050102400000070581024000B7
:102C00000000FF00000008000000000000010000BC
:102C100000000000000000000000059A0308019A6F
:102C20000308FD990308F1990308ED990308F99940
:102C30000308F5990308799A03086D9A0308459AE1
:102C40000308599A0308319A03081D9A0308099A40
:102C50000308010100000060024010600240000013
:102C6000000000000000000B000000000000000059
:102C700000000000000000600240286002400100E7
:102C8000000000000000060C000000000000000032
:102C900000000000000000600240406002400200AE
:102CA000000000000000100D000000000000000007
:102CB0000000000000000060024058600240030075
:102CC000000000000000160E0000000000000000E0
:102CD000000000000000006002407060024004003C
:102CE000000000000000200F0000000000000000B5
:102CF0000000000000000060024088600240050003
:102D0000000000000000261000000000000000008D
:102D100000000000000000600240A06002400600C9
:102D20000000000000003011000000000000000062
:102D300000000000000000600240B8600240070090
:102D4000000000000000362F00000000000000001E
:102D50000000000000000064024010640240000017
:102D6000000000000000003800000000000000002B
:102D700000000000000000640240286402400100DE
:102D80000000000000000639000000000000000004
:102D900000000000000000640240406402400200A5
:102DA000000000000000103A0000000000000000D9
:102DB000000000000000006402405864024003006C
:102DC000000000000000163B0000000000000000B2
:102DD0000000000000000064024070640240040033
:102DE000000000000000203C000000000000000087
:102DF00000000000000000640240886402400500FA
:102E00000000000000002644000000000000000058
:102E100000000000000000640240A06402400600C0
:102E2000000000000000304500000000000000002D
:102E300000000000000000640240B8640240070087
:102E40000000000000003646000000000000000006
:102E50000000000000000000803F69EC010869F1FB
:102E60000108E5EC0108F9C7010831F3010809C8B8
:102E7000010825C80108D1C70108C1C70108000021
:102E800000000000000010270020000000000000EB
:102E90000000000000000000000000000000000032
:102EA0000000000000000000000000000000000022
:102EB0000000000000000000000000000000000012
:102EC0000000000000000000000000000000000002
:102ED00000000000000000000000000000000000F2
:102EE000000000000000000000004300000000009F
:102EF00000000000000000000000000000000000D2
:102F0000000000000000000000004300000000007E
:102F100000000000000000000000000000000000B1
:102F2000000000000000000000004300000000005E
:102F30000000000000000000000000000000000091
:102F4000000000000000000000004300000000003E
:102F50000000000000000000000000000000000071
:102F6000000000000000000000004300000000001E
:102F70000000000000000000000000000000000051
:102F800000000000000000000000430000000000FE
:102F90000000000000000000000000000000000031
:102FA00000000000000000000000430000000000DE
:102FB0000000000000000000000000000000000011
:102FC00000000000000000000000FBF40308D7F43C
:102FD000030800000000528004087D7404086A3C65
:102FE00004086A3C04086A3C04086A3C04086A3C19
:102FF00004086A3C04086A3C04086A3C04086A3C09
:103000000408FFFFFFFFFFFFFFFFFFFFFFFFFFFFC2
:103010000000010041534349490000000000000046
:1030200000000000000000000000000000000000A0
:103030000000000041534349490000000000000027
:103040000000000000000000000000000000000080
:103050000000000000000000000000000000000070
:103060000000000000000000000000000000000060
:103070000000000000000000000000000000000050
:1080000000230122C2708370038003714371837166
:10801000C37103724372704700230A2203604360F6
:10802000C381C0F80630C0F80A300280704700BF34
:108030002DE9F043924BD9791A7A914200F0B4803D
:10804000D979DA79C1EBC10103EB8101C2EBC2023C
:1080500003EB820291F82B40167CA21E964241D07F
:10806000884ADC681278172A00F0A1800020DA79AB
:1080700085490132A1FB0251490801EB4101521A25
:10808000D2B2DA71002C75D0804A5268C2F308026D
:10809000002A4DD1EFF31182002A49D17C497D4E4F
:1080A0000A68B56800BF0C68A242F9D17A490E6827
:1080B0004FF47A7404FB06F14D1BB5FBF6F504FB97
:1080C0000252D3F89410521AB2F5FA7F04DB002260
:1080D00040F0040083F89120D3F88C20002A51D17D
:1080E000BDE8F083DA7903F11007C2EBC20207EBB7
:1080F000820264B11444002112F8015B29449442C5
:1081000089B2F9D1CAB202EB1121FF295BD05D4AD5
:10811000DC681278172AA9D1B3F864205F490132CC
:1081200092B204208880A3F864204A8000209EE751
:10813000EFF31184102282F31288564D5849AE682D
:108140002A68D20344BF01220A60514A48BFAE6880
:1081500017680A68E4B284F311884F490D684FF438
:108160007A743A4404FB05F1891BB1FBF5F104FB79
:108170000212A6E793F89120002A85D1D3F88C202B
:10818000002AADD0424909688A1AB2F5FA7FA7D908
:1081900093F86620032A02D1424A0021118000226E
:1081A000C3F88C20BDE8F083DC6800206AE7B3F8F0
:1081B00064203A49013292B203208880A3F86420F7
:1081C0004A80002053E7DA7901211C2404FB0212C3
:1081D000B918BA5CE2B1012A13D1082E39D0294A64
:1081E000DC681278172A7FF441AFB3F864202B497A
:1081F000013292B206208880A3F864204A800020D1
:1082000035E7204A1278172A16D0DC6800202EE7BE
:10821000192EDC6848D01B49097817297FF426AF4E
:10822000B3F864101D4D013189B206261046A3F83B
:1082300064106980AE801AE7B3F864201749DC68DF
:10824000013292B205208880A3F864204A80002081
:108250000DE793F89020002AD7D04A78102A00F032
:10826000018140F2FC80303A012ACED851F8010F4A
:1082700018608A798888DB6098809A71004CF5E6EE
:10828000E02800202D8D0020ABAAAAAA00ED00E076
:108290004495002010E000E01C970020308D002065
:1082A000189700200E5B002091F802C04D780269FB
:1082B00091F8038091F804908E79CF7991F808E0D5
:1082C0000CF0070C45EA0C2508F03F0891F80AC0AD
:1082D00015808D784FEA481848EAD5088D7BA2F8BA
:1082E000028091F803804FEA890040EA981091F8E3
:1082F000058008F0010840EA8820908006F00F060B
:10830000487991F80780F60146EA50004E7AD0800D
:108310004FEA4E0E4EEAD81E06F0030691F806808C
:10832000C87A07F07F074EEA462E3F014E7BA2F83F
:108330000AE047EA1817178106F007078E7A91F8C6
:1083400009E0C00040EA56100E7B0CF01F0C46EA14
:10835000072605F03F054F7BD0816D014FEA8C1C4D
:1083600045EAD7004CEA9E0CA2F80CC01682508257
:10837000C87B91F80EE0CF7C91F8128091F811C083
:108380008E7C4D7D800040EA9E1091F810E07F00C9
:108390000EF0010E47EAD8170CF00F0C91F8108080
:1083A00040EA8E204FEACC1C91F814E090824CEA0F
:1083B000580C887DA2F816C006F07F0691F811C00F
:1083C0000EF0030E47EA4E27360146EA1C16578385
:1083D00091F814C04F7D168305F01F05AD01C00054
:1083E00040EA571045EA9C05D0839583CD7D93F8EC
:1083F000666040F2147015F0010F14BF0746AD27F8
:1084000015F0020F08BFAD2015F0080F50840CBF07
:1084100001200320032E17841CD10A7E93F8675095
:10842000124F996E642A03EB4506A8BF642292029C
:10843000A7FB0272B6F86C700135520905F00F0502
:10844000C91B114483F86750094DA6F86C200A092E
:1084500099662A8007490A68C3F88C2007E6002A33
:108460007FF4D3AE012283F89120CEE61F85EB5135
:108470000E5B0020449500206F4B5B68C3F308033C
:1084800070B4B3B9EFF311839BB96C4A6C4D1368A8
:10849000AC6800BF11688B42F9D16A4A15684FF485
:1084A0007A7101FB05F2121BB2FBF5F201FB03220C
:1084B00020E0EFF31184102383F3128803F1E0230B
:1084C00061499D681A68D20342BF01220A609D6813
:1084D0005A4BE4B21E680B6884F31188594A146839
:1084E0004FF47A7202FB04F13344491BB1FBF4F1FF
:1084F00002FB0312554B002183F8981093F8991052
:10850000012917D9D3F89C1040F6AC54511AA14256
:1085100010DD4F490978172909D1B3F864104D4C83
:10852000013189B20125A3F864106180A580002182
:1085300083F89910C0B27E2828D093F899201AB3F6
:1085400093F899201B2A58D893F8A820002A6CD0B9
:10855000002280F0200083F8A82093F89920022AB6
:1085600003D1012808BF83F8A0001A7A93F8994034
:1085700093F89910C2EBC20203EB8202224401314C
:10858000C9B2D07383F8991070BC704793F89910F2
:1085900001292BD9197A3048DC790131A0FB01502F
:1085A000400800EB4000091AC9B28C420AD093F887
:1085B0009940187A1972C0EBC00003EB8000611E6D
:1085C00080F82B1093F8A01039B10120002183F816
:1085D000980083F8A010C3F894201D490978172942
:1085E0001DD00021C3F8A42083F8A810012183F82E
:1085F0009910C3F89C2070BC7047154A127800216E
:10860000172A83F89910BFD1B3F8642011490132B9
:1086100092B20220A3F864204A808880B4E7D3F89D
:10862000A4100C48511A0180DBE77D2895D1012266
:1086300083F8A820A8E700BF00ED00E044950020E3
:1086400010E000E01C97002018970020E028002090
:108650002D8D0020308D0020ABAAAAAA03788B4272
:1086600083BF034B03EB4101B1F8AC00002070471E
:10867000E0280020044B93F8C40018B1002283F8CE
:10868000C4200120704700BFE0280020F0B4C24D94
:1086900095F8EB6005F1C8020244B41E1444A242EE
:1086A00000F07881013A013C002341F2210112F8E7
:1086B000017F83EA07231FB2BBB2002FACBF5B0070
:1086C00081EA43039BB21F0454BF5B0081EA43036A
:1086D0009BB21F0454BF5B0081EA43039BB21F049B
:1086E00054BF5B0081EA43039BB21F0454BF5B008D
:1086F00081EA43039BB21F0454BF5B0081EA43033A
:108700009BB21F0454BF5B0081EA43039BB21F046A
:1087100054BF5B0081EA4303A2429BB2C7D1064427
:10872000B21E013E2A442E4492F8C81096F8C82082
:1087300002EB012292B29A4201D0F0BC704795F848
:10874000EC20002A00F02181431CDBB25C1C2C448D
:108750002B444FF4AF6193F8C86094F8C83003EB32
:1087600006239BB201FB03F31B1303F54873012A95
:10877000A5F8AC3000F00981C31CDBB25C1C2C44B2
:108780002B44022A93F8C86094F8C83003EB062300
:108790009BB201FB03F34FEA233303F54873A5F8BB
:1087A000AE3000F0F280431DDBB25C1C2C442B4445
:1087B000032A93F8C86094F8C83003EB06239BB2F1
:1087C00001FB03F34FEA233303F54873A5F8B030F8
:1087D00000F0DB80C31DDBB25C1C2C442B44042A5C
:1087E00093F8C86094F8C83003EB06239BB201FBF2
:1087F00003F34FEA233303F54873A5F8B23000F0D2
:10880000C48000F10903DBB25C1C2C442B44052A14
:1088100093F8C86094F8C83003EB06239BB201FBC1
:1088200003F34FEA233303F54873A5F8B43000F09F
:10883000AC8000F10B03DBB25C1C2C442B44062AF9
:1088400093F8C86094F8C83003EB06239BB201FB91
:1088500003F34FEA233303F54873A5F8B63000F06D
:10886000948000F10D03DBB25C1C2C442B44072ADE
:1088700093F8C86094F8C83003EB06239BB201FB61
:1088800003F34FEA233303F54873A5F8B8307CD0DF
:1088900000F10F03DBB25C1C2C442B44082A93F834
:1088A000C86094F8C83003EB06239BB201FB03F3C6
:1088B0004FEA233303F54873A5F8BA3065D000F1C9
:1088C0001103DBB25C1C2C442B44092A93F8C860CA
:1088D00094F8C83003EB06239BB201FB03F34FEA85
:1088E000233303F54873A5F8BC304ED000F11303D1
:1088F000DBB25C1C2C442B440A2A93F8C86094F821
:10890000C83003EB06239BB201FB03F34FEA23338A
:1089100003F54873A5F8BE3037D000F11503DBB27C
:108920005C1C2C442B440B2A93F8C86094F8C83084
:1089300003EB06239BB201FB03F34FEA233303F55A
:108940004873A5F8C03020D000F11703DBB25C1CDF
:108950002C442B440C2A93F8C86094F8C83003EBDD
:1089600006239BB201FB03F34FEA233303F548735D
:10897000A5F8C23009D000F11903DBB25A1C2A4411
:108980002B4493F8C83092F8C830012385F8C430DE
:10899000F0BC70470023C2E6E0280020794B5B68FA
:1089A000C3F3080370B5B3B9EFF311839BB9764AEB
:1089B000764D1368AC6800BF11688B42F9D1744AD8
:1089C00015684FF47A7101FB05F2141BB4FBF5F442
:1089D00001FB034320E0EFF31181102383F312889E
:1089E0006A4C6C4AA5682368DE0344BF0123136008
:1089F000654B48BFA5681E681368C9B281F311882A
:108A0000634A14684FF47A71334401FB04F2521B39
:108A1000B2FBF4F201FB03235F4CD4F8F020C4F85E
:108A2000F0309B1AB3F5FA5F1AD9002384F8F430BA
:108A300084F8F530A1282FD0A22800F09C8094F86B
:108A4000F52094F8EB300025A2B16A1C6119D5B26B
:108A5000C0B29D4281F8C80084F8F4500CD070BDBB
:108A600094F8F450002DE5D094F8F52094F8EB300C
:108A7000002AEAD19D42F2D194F8F630052B72D04B
:108A8000062B03D194F8C9301E2B0DD0002384F897
:108A9000F43084F8F53070BD01221B2384F8F520F2
:108AA00084F8EB300025D0E76A1E002A4FF0000161
:108AB00050DD08460B462344013093F8C830DBB242
:108AC00083EA0105ED074FEA530348BF83F08C03A7
:108AD00083EA5105EE074FEA530348BF83F08C0346
:108AE00083EA9105ED074FEA530344BF83F08C03FB
:108AF000DBB283EAD105EE074FEA530344BF83F0AC
:108B00008C03DBB283EA1115ED074FEA530344BF30
:108B100083F08C03DBB283EA5115EE074FEA53036F
:108B200044BF83F08C03DBB283EA9115ED074FEA73
:108B3000530344BF83F08C03DBB283EAD115590899
:108B4000EB0748BF81F08C01C0B248BFC9B2904268
:108B50000346B0DB224492F8C8308B4296D1032002
:108B6000FFF794FD92E70020FFF790FD94F8C930DD
:108B70001E2B8BD198E70122232384F8F52084F85B
:108B8000EB308FE700ED00E04495002010E000E0BE
:108B90001C97002018970020E028002007299DBF7F
:108BA000034B03EB8101B1F8F8000020704700BFD0
:108BB000E02800201A4B93F8182132B193F81C21B9
:108BC0000021A82A83F8181101D00020704793F8DB
:108BD0002F21002AF9D110B4DFED126A03F58E714E
:108BE00003F1F40003F59672B4EE047ACC780B79B5
:108BF00003EB042307EE903AF8EEE77AB0EE666AEC
:108C0000A7EE876A02318A42FCEEC67A17EE903AE6
:108C100040F8043FEAD101205DF8044B704700BFE3
:108C2000E02800200080BBC310B5044622F0A8FE57
:108C30000F4BD3F83421C3F83401801A41F2883243
:108C40009042E4B205D983F81C41012283F838210F
:108C500010BD93F838219918142A81F81C4103D1CA
:108C6000012283F8182110BD0132D2B2EEE700BF15
:108C7000E0280020034B03EB4101B1F83C01C008A0
:108C8000704700BFE0280020724B93F85C21002A57
:108C900000F0C28070B493F85D41B3F85E5103EB0D
:108CA0004401002091F8636191F8642183F85C012C
:108CB00042EA0622954202D0002070BC704793F829
:108CC0006121012A00F0AA80812AF6D10320102C0C
:108CD00040F2A68093F8654193F8635193F86411CC
:108CE00093F8662141EA052142EA04221024A3F800
:108CF0003C11A3F83E2183F85D4193F8671193F886
:108D00006821032C42EA0122A3F84021D5D093F830
:108D1000691193F86A21042C42EA0122A3F8422146
:108D2000CBD093F86B1193F86C21052C42EA012209
:108D3000A3F84421C1D093F86D1193F86E21062C4D
:108D400042EA0122A3F84621B7D093F86F1193F8B5
:108D50007021072C42EA0122A3F84821ADD093F8F4
:108D6000711193F87221082C42EA0122A3F84A21DA
:108D7000A3D093F8731193F87421092C42EA0122CD
:108D8000A3F84C2199D093F8751193F876210A2C09
:108D900042EA0122A3F84E218FD093F8771193F87D
:108DA00078210B2C42EA0122A3F8502185D093F8B8
:108DB000791193F87A210C2C42EA0122A3F852216E
:108DC0003FF47BAF93F87B1193F87C210D2C42EAA2
:108DD0000122A3F854213FF470AF93F87D1193F86A
:108DE0007E210E2C42EA0122A3F856213FF465AF02
:108DF00093F87F1193F88021102C42EA0122A3F806
:108E000058217FF45AAF93F8811193F8822142EAF6
:108E10000122A3F85A2150E700207047104656E778
:108E2000002C3FF44AAF93F8631193F86421012CAE
:108E300042EA0122A3F83C213FF43FAF93F86511C9
:108E400093F86621022C42EA0122A3F83E217FF426
:108E500054AF32E7E0280020654B5B68C3F308039A
:108E600070B4B3B9EFF311839BB9624A624D1368D2
:108E7000AC6800BF11688B42F9D1604A15684FF4A5
:108E80007A7101FB05F2141BB4FBF5F401FB0343FB
:108E900020E0EFF31181102383F31288564C584AD7
:108EA000A5682368DE0344BF01231360514B48BF0C
:108EB000A5681E681368C9B281F311884F4A146807
:108EC0004FF47A71334401FB04F2521BB2FBF4F20B
:108ED00001FB03234B49D1F888219A1AB2F57A6F26
:108EE00017D891F88C21C1F88831BAB1022A20D064
:108EF000242A91F85D3178D901320233D2B25B0075
:108F00009A4281F88C211CDB01339A4265D070BCF7
:108F100070470022C1F8883181F88C21A828F6D149
:108F2000002281F85C21A1F85E2191F85D310446B0
:108F300003E0C4B281F85D4123468D1885F8604195
:108F4000DAE7B1F85E31C0B283EA002000B200284F
:108F5000B8BF41F2210283B2B4BF82EA43035B008F
:108F60009BB2180446BF41F2210282EA43035B0030
:108F70009BB21A0446BF41F2210282EA43035B001E
:108F80009BB21E0446BF41F2210282EA43035B000A
:108F90009BB21D0446BF41F2210282EA43035B00FB
:108FA0009BB21C0446BF41F2210282EA43035B00EC
:108FB0009BB2180446BF41F2210282EA43035B00E0
:108FC0009BB21A0446BF41F2210282EA43035B00CE
:108FD0009BB2A1F85E3170BC70470022012381F87A
:108FE0008C2181F85C3170BC7047C4B2A5E700BF2A
:108FF00000ED00E04495002010E000E01C97002008
:1090000018970020E0280020F8B5124D95F8A5210A
:1090100002B9F8BD104B1C682368DE693EB12046DA
:1090200005F5C871B047002385F8A531F8BD05F5F1
:10903000C877BE1800E023689B6820469847002840
:10904000F9D0236817F8011B1B6820469847B742E0
:10905000F1D1E8E7E02800205060002003788B423F
:1090600010D9094B03EB810193F8D831D1F8A8014D
:109070001BB900F5777080B27047400800F5777033
:1090800080B2704700207047E02800202DE9F041B1
:10909000C54C94F8E00108B9BDE8F08194F8E111FD
:1090A000002384F8E031002900F03B8194F8E4319A
:1090B000BE4D94F8F4215BB213F1630FB8BF95F97C
:1090C0000030002A40D013F1310F80F2AD8113F14E
:1090D000380F80F2CC8113F13D0F80F2CC8113F177
:1090E000420F80F2CC8113F1450F80F2CC8113F155
:1090F000470F80F2CC8113F1490F80F2CC8113F13C
:109100004A0F00F0CC8113F14B0F00F0CB8113F12B
:109110004C0F00F0CB8113F14D0F00F0CA8113F119
:109120005C0FB8BF642680F2C781D4F8F801A04F65
:1091300000FB06F087FB0076C017C0EB661004EB5F
:10914000820680B2C6F8A8012B7094F8F07194F8EA
:10915000F13194F8F20194F8F3611B0443EA0763D8
:10916000334343EA002303F0F020B0F1E02F00F096
:10917000CF80102794F8020294F8E631D4F8046204
:1091800094F808C23678034103F00F039E4210D9C9
:109190000B2B0ED8002A40F0FF8094F8E68194F85B
:1091A000E7E104EB83030CEA08080EEB082EC3F892
:1091B000A8E194F8E831034103F00F039E4210D96F
:1091C0000B2B0ED8002A40F0EB8094F8E88194F83D
:1091D000E9E104EB83030CEA08080EEB082EC3F860
:1091E000A8E194F8EA31034103F00F039E4210D93D
:1091F0000B2B0ED8002A40F0F68094F8EA8194F800
:10920000EBE104EB830308EA0C080EEB082EC3F82D
:10921000A8E194F8EC31034103F00F039E4210D90A
:109220000B2B0ED8002A40F0E28094F8EC8194F8E1
:10923000EDE104EB83030CEA08080EEB082EC3F8FB
:10924000A8E194F8EE31034103F00F039E4240D8A9
:109250000D2F24DD94F8F031034103F00F039E42FB
:1092600010D90B2B0ED80AB19A420BD094F8F0818A
:1092700094F8F1E104EB83030CEA08080EEB082EE6
:10928000C3F8A8E1102F0AD194F8F23143FA00F0A4
:1092900000F00F00B04202D20B2840F29380A1B33D
:1092A00094F8A5318BB394F8E6311B062DD422F047
:1092B00067FBD4F8DC3100F57A70A8601BB15A68FE
:1092C000121A002A1BDB3B493B4AEB6001200A6073
:1092D000E2E60B2BBCD80AB19A42B9D094F8EE81E1
:1092E00094F8EFE104EB83030CEA08080EEB082E78
:1092F000C3F8A8E1ACE75A68121A002AE4DA03F1CD
:1093000008019B68002BF6D1DEE70120BDE8F08163
:1093100094F8E60100063FF52CAF28480C270360BF
:1093200028E722F02DFB214D254B6A78A3FB001383
:109330005B0C12B394F8E40194F8E521D2B2122A3E
:1093400018BF012A08D002F0EF02A2F1A202B2FA7D
:1093500082F2520902B96A70D4F8FC1194F8F4212F
:1093600099B18B4247D0591A012947D094F8E1119D
:10937000A4F80002C4F8FC31E7E694F8E42194F87C
:10938000E50100EB022080B2E6E7A4F80002C4F891
:10939000FC3194F8E111D8E693427FF4FEAE08E781
:1093A00093427FF412AF1CE7E02800200000002069
:1093B0001F85EB51BC2A002004000020440200203D
:1093C00083DE1B4312B190423FF469AF94F8F2215F
:1093D00094F8F33104EB800002EA0C0C03EB0C234D
:1093E000C0F8A8315BE793427FF407AF11E79A42D8
:1093F0007FF41BAF25E794F8E111A6E6002AB5D06B
:10940000B4F80062D4F8F8112D4F861B143E01FB0E
:1094100006F187FB0176C917A1EBE60104EB820692
:1094200089B2C6F8A811A1E76FF0300C01262548D3
:1094300006F1FF3800EB480E00EB46069EF801E00F
:10944000777810F91860A7EB0E07981B00FB07F060
:10945000ACEB060690FBF6F0704440B2002801DA4F
:10946000002662E66428A8BF642006465DE66FF029
:10947000370C0226DBE76FF03C0C0326D7E76FF0D2
:10948000410C0426D3E76FF0440C0526CFE76FF0BC
:10949000460C0626CBE76FF0480C0726C7E79C462C
:1094A0000826C4E76FF04A0C0926C0E79C460A2646
:1094B000BDE79C460B26BAE76FF05B0C0C26B6E7BF
:1094C000676666660CFE0308324B5B68C3F30803ED
:1094D00070B4B3B9EFF311839BB92F4A2F4D1368C2
:1094E000AC6800BF11688B42F9D12D4A15684FF462
:1094F0007A7101FB05F2141BB4FBF5F401FB034385
:1095000020E0EFF31181102383F31288234C254AC6
:10951000A5682368DB0344BF012313601E4B48BFCB
:10952000A5681E681368C9B281F311881C4A1468C3
:109530004FF47A71334401FB04F2521BB2FBF4F294
:1095400001FB0323184AD2F80C12C2F80C325B1A42
:1095500041F288318B420AD9C0B2012382F8E4017A
:1095600082F81032002382F8E03170BC704792F824
:1095700010320F2BF9D8D1180133DBB2C0B2102B47
:1095800081F8E40182F81032ECD1012382F8E03155
:1095900070BC704700ED00E04495002010E000E052
:1095A0001C97002018970020E0280020036933F85A
:1095B000110000EB8000C01000F55C7080B27047B5
:1095C000436993F82320002A00F0C3802DE9F0437B
:1095D000714ADC7D12780021162A04F0040604F09A
:1095E000080583F8231000F0B680002E40F0BE80FE
:1095F0001DB11A8C42F001021A8493F802909979F5
:1096000093F801C00269DE7893F80480DF7909F0ED
:10961000070001F00F014FEAC11E4CEA002106F0DD
:109620003F06187A1180997893F80AC0760146EAC5
:10963000D106D97856804FEA880848EA911193F804
:1096400005809E7B08F0010841EA882191805979C4
:109650004EEA5101D18007F07F07997993F807E02E
:109660003F0147EA1117597A1781400040EADE109E
:1096700001F0030140EA41205F7BD97A50810CF070
:109680001F0C587A4FEA8C1C4CEA90009081187B92
:1096900093F80AC007F0070740EA072006F03F06E4
:1096A0005F7B1082C90041EA5C117601D18146EAF4
:1096B000D7015182D97B93F80E8093F810E093F88C
:1096C00011C0DE7C9F7C587D890041EA98110EF024
:1096D000010E41EA8E21918293F812E0197C0CF080
:1096E0000F0C76004FEACC1C46EADE1E4CEA510114
:1096F0001E7D93F811C0D18207F07F073F01997D4D
:1097000047EA1C1706F0030693F814C017834EEAC5
:1097100046265F7D568314F0010F40F2147300F06B
:109720001F0014BF1E46AD26800114F0020F4FEA41
:10973000C10140EA9C0008BFAD2341EA5711002D4A
:109740009083D183168453840CBF01200320BDE88D
:10975000F0831046704711491F8C0C8066B147F0AA
:1097600002021A8412B29DB94A8046E71A8C4DB99A
:1097700042F002021A8440E745B147F001021A8420
:1097800012B2F1E742F003021A8436E73AB2EBE78D
:1097900047F003021A84F3E72D8D0020308D00205E
:1097A000394B5B68C3F30803F0B413BBEFF31183C9
:1097B000FBB9364A364E1368B56800BF1468A34239
:1097C000F9D1344A16684FF47A7404FB06F2551B3B
:1097D000CA69B5FBF6F504FB03539A1A40F6AC547C
:1097E000A2422DDC91F822406CB3182C37D9F0BC82
:1097F0007047EFF31184102383F31288244D264A17
:10980000AE682B68DB0344BF012313601F4B48BFC6
:10981000AE681F681368E4B284F311881D4A1568A6
:109820004FF47A7404FB05F23B44921BB2FBF5F251
:1098300004FB0323CA6940F6AC549A1AA242D1DD54
:10984000002281F822200F28D1D10122CB6108709B
:1098500081F82220002381F82330F0BC7047631C7C
:10986000DBB2192B81F822300855F3D10B4B1B7852
:10987000162B08BF0A4B4FF0010081F8230008BFE8
:109880009A80F0BC704700BF00ED00E044950020D6
:1098900010E000E01C970020189700202D8D00207C
:1098A000308D0020094BDFED0A6ADFED0A7A03EB09
:1098B000810191ED857AB8EE477AE7EE267AFCEEE3
:1098C000E77A17EE903A98B2704700BFE028002080
:1098D00001F11F3F00405C44714A92F8543233B1A9
:1098E00092F85A320021162B82F8541201D000202F
:1098F000704792F85932022BF0B440F2CE8002F554
:109900001670184402F25A21D32311F8014F634014
:1099100013F0800F4FEA430318BF83F0D503DBB287
:1099200013F0800F4FEA430318BF83F0D503DBB277
:1099300013F0800F4FEA430318BF83F0D503DBB267
:1099400013F0800F4FEA430318BF83F0D503DBB257
:1099500013F0800F4FEA430318BF83F0D503DBB247
:1099600013F0800F4FEA430318BF83F0D503DBB237
:1099700013F0800F4FEA430318BF83F0D503DBB227
:1099800013F0800F4FEA430318BF83F0D5038842DA
:10999000DBB2BAD192F87112994202D00020F0BC29
:1099A000704792F8600292F85F6292F8641292F83F
:1099B000683292F86C4292F85C52B2F85CC2D2F80B
:1099C0005C7200F00F00C00140EA560001F01F0178
:1099D00092F86362C2F82002890141EA960103F01D
:1099E0003F0392F8676292F86B02C2F82C125B0197
:1099F00043EAD60392F85B12C2F8383204F07F04CF
:109A0000B2F86032D2F86062240105F0070544EA3A
:109A1000101041EA0521C3F30A13C2F84402B2F858
:109A20006452C2F81412B2F86642D2F86802B2F870
:109A30006A12C2F82432D2F86C32C0F38A10C1F331
:109A40004A01C3F3CA13CCF3CA0CC7F38A37C6F36F
:109A5000CA366D09C4F30A04C2F83C02C2F84012C7
:109A6000C2F818C2C2F81C72C2F82862C2F830529A
:109A7000C2F83442C2F8483292F8703292F86F025B
:109A8000B2F86E12DB0043EA5013C1F38A01C2F848
:109A90005032C2F84C12012081E7D3237AE700BF8D
:109AA000E0280020944B5B68C3F3080370B443BB09
:109AB000EFF311832BBB914A914D1368AC6800BF43
:109AC00011688B42F9D18F4A15684FF47A7101FB06
:109AD00005F2141B8C4AB4FBF5F401FB0343D2F8E6
:109AE000981201F24C41994233D201240021C2F86C
:109AF000983282F8580282F89C4282F8541270BC64
:109B00007047EFF31181102383F312887C4C7F4A56
:109B1000A5682368DE0344BF01231360774B48BF69
:109B2000A5681E681368C9B281F31188754A146864
:109B30004FF47A7101FB04F23344521BB2FBF4F28E
:109B400001FB0323704AD2F8981201F24C4199426A
:109B5000CBD392F89C120029C7D002298ABF92F871
:109B60005942052402348C42C9DD4B1CDBB29C42B5
:109B70001144D4BF0125002582F89C3281F8580297
:109B800082F85452BBDC92F85A520023162D82F808
:109B90009C32B4D06B00290648BF83F0D503DBB2FA
:109BA00013F0800F4FEA430318BF83F0D503DBB2F5
:109BB00013F0800F4FEA430318BF83F0D503DBB2E5
:109BC00013F0800F4FEA430318BF83F0D503DBB2D5
:109BD00013F0800F4FEA430318BF83F0D503DBB2C5
:109BE00013F0800F4FEA430318BF83F0D503DBB2B5
:109BF00013F0800F4FEA430318BF83F0D503DBB2A5
:109C000092F8590213F0800F4FEA430318BF83F014
:109C1000D5030228DBB247D93D490844023111F887
:109C2000016F734013F0800F4FEA430318BF83F0B6
:109C3000D503DBB213F0800F4FEA430318BF83F064
:109C4000D503DBB213F0800F4FEA430318BF83F054
:109C5000D503DBB213F0800F4FEA430318BF83F044
:109C6000D503DBB213F0800F4FEA430318BF83F034
:109C7000D503DBB213F0800F4FEA430318BF83F024
:109C8000D503DBB213F0800F4FEA430318BF83F014
:109C9000D503DBB213F0800F4FEA430318BF83F004
:109CA000D5038142DBB2BAD1224492F857229A42BC
:109CB0007FF425AF7A2D08D07C2D06D0282D7FF497
:109CC0001EAF144B01221A7019E7134A136E572B5B
:109CD0003FF715AF114912480D684C680821995497
:109CE00013440121C3F80150C3F80540136E0170FD
:109CF0000933136603E700BF00ED00E04495002040
:109D000010E000E01C970020E028002018970020B9
:109D1000382B002044600020546000203D2B0020A0
:109D20004560002070B5484E484C337805462BB14D
:109D3000D4F8A03283429CBF00233370444B1B688D
:109D4000D8070ED594F8A43294F8A5229A4233D1BC
:109D5000D4F8C832ED1A002D28DD012084F8A602BF
:109D600070BD99043DD43B4883689847C20713D51A
:109D700000F00202002A3849D4F8A83214BF0122A8
:109D800000220A742B440CBF0121002101223170F2
:109D9000C4F8A03284F8A622430744BF012384F804
:109DA000C432D4F8C832ED1A002DD6DC94F8A632AD
:109DB000ABB994F8C40270BDD4F8A822264984F83F
:109DC000A5322A4401230020C4F8A022087484F894
:109DD000A6323370D4F8C832ED1A002DBDDC012054
:109DE00070BDB4F8AC320BBBB4F8AE32F3B9B4F812
:109DF000B032DBB9B4F8B232C3B9B4F8B432ABB9EB
:109E0000B4F8B63293B9B4F8B8327BB9B4F8BA3210
:109E100063B9B4F8BC324BB9B4F8BE3233B9B4F854
:109E2000C0321BB9B4F8C232002B91D0D4F8A8329A
:109E3000094A2B440021C4F8A0320123117484F88C
:109E4000A6323370C6E700BFEE5A0020E02800209B
:109E50008CB60020A0810020000000200020704768
:109E60000020704701207047024B03EB4101B1F81D
:109E7000CC027047E0280020044B93F8F00218B1A0
:109E8000002283F8F0220120704700BFE028002064
:109E9000024B03EB8101B1F8F4027047E028002087
:109EA00003788B4283BF034B03EB4101B1F82C03D2
:109EB00000207047E028002038B5394C054621F0D5
:109EC0005FFDD4F88033C4F88003C01AB0F57A7F00
:109ED0001CDD0023282284F8843384F8863384F838
:109EE000873384F885233D2D42D03E2D0DD12D4A58
:109EF000C4F88823012384F886330123157084F87D
:109F0000843394F885239A4220D038BD94F8842372
:109F1000002AE8D0531CDBB2D4F8881384F88433C9
:109F2000062B8D54EDD194F88633012B27D094F86D
:109F30008733012B27D00023282284F8843384F828
:109F4000863384F8873384F8852338BD94F88633C4
:109F5000012B04BF022384F8863394F88733012B46
:109F600015D00022282384F8842384F8853338BD53
:109F70000D4AC4F88823012384F88733BDE78B7822
:109F8000282BD4D8F1E78B78092BD4D8EDE702231E
:109F900084F8873321F0F4FCC4F88C03E1E700BFB8
:109FA000E0280020382C00202C2C002030B4024661
:109FB000002305251E2400E00232032BD4BF00211C
:109FC000012100F813100133042B04D0122B54701C
:109FD000F2D130BC70475570EEE700BF024B036012
:109FE00043608360C3607047E803D007024B03EB14
:109FF0004101B1F8AC027047E0280020024B03EBAE
:10A000004101B1F8AC027047E028002030B4264C82
:10A0100094F88633022B02D0002030BC704794F8AD
:10A020005A53EDB1013D04F2593353FA85F504F565
:10A030005670002210F8013B534083EA0313DBB251
:10A04000120AD90042EA0322854281EA131382EA06
:10A050000302EFD122B1002084F8860330BC7047A0
:10A06000B4F858335BBA9BB243F60162934209D00D
:10A0700043F60362934205D0002384F8863301201F
:10A0800030BC7047094AA2F12E0102F12005D079B7
:10A090009379023203EB0023C3F3CC03AA4221F8E5
:10A0A000023FF4D1E8E700BFE0280020382C002070
:10A0B0004E4B5B68C3F3080370B4B3B9EFF311837D
:10A0C0009BB94B4A4B4D1368AC6800BF11688B427B
:10A0D000F9D1494A15684FF47A7101FB05F2141B56
:10A0E000B4FBF5F401FB034320E0EFF311811023EF
:10A0F00083F312883F4C414AA5682368DB0344BFC1
:10A10000012313603A4B48BFA5681E681368C9B2A3
:10A1100081F31188384A14684FF47A71334401FB93
:10A1200004F2521BB2FBF4F201FB0323344AD2F8CF
:10A130009013591AB1F5FA7F14D90021C2F890335F
:10A1400082F8941382F89513C3B2042B26D0202BE7
:10A1500024D092F8981309B9552838D0814216D1E5
:10A16000002109E092F8951399B992F89413C2F876
:10A170009033C3B20029E8D092F8960354180138FE
:10A18000814284F8A0331DD0013182F8941370BC51
:10A190007047013982F8951370BC70470021022482
:10A1A0004FF6FF7082F89C43A2F89A035418581E89
:10A1B000814282F8983382F8963382F8971384F8B4
:10A1C000A033E1D1012382F8C03370BC7047012471
:10A1D0001F2582F89803A2F89A1382F8A03382F818
:10A1E000974382F89C4382F89653CDE700ED00E058
:10A1F0004495002010E000E01C97002018970020F4
:10A20000E02800200D49B1F8C13330B508224AF2E8
:10A21000010580EA030414F0010F4FEA530318BF4D
:10A220006B4002F1FF3218BF9BB212F0FF024FEAFF
:10A230005000EED1A1F8C13330BD00BFE0280020AE
:10A2400008462FF013BA00BF0FB400B583B004ABBB
:10A25000054953F8042B0193002023F0F1FC03B0CF
:10A260005DF804EB04B0704741A200080EB470B56D
:10A2700083B007AC0646482054F8045B2FF0F6F98B
:10A2800020202FF0F3F930462FF062F93A202FF01A
:10A29000EDF92A46234609490194002023F0D0FC19
:10A2A00004460A202FF0E2F9054A136803341B1B09
:10A2B000136003B0BDE8704003B0704741A20008CE
:10A2C000F4810020F8B50F4BD3F8C453D3F8C8433A
:10A2D000D3F8CC63A9B1831E00EB410727441E4489
:10A2E00004441D4434F9022B36F9023F35F9020FBC
:10A2F000134403EBD373A0EB63002FF09FFAA74244
:10A30000F0D1F8BDE02800202DE9F04F3B4E3C494C
:10A31000D6F8C473DFF80CA1DFF80C913C4607F1C6
:10A32000300B44F8040B06F5777306F5747885B0A6
:10A330005D4606F57A76F8EC016AB3EC017AF6EC44
:10A34000017AB1EC010A0293FDEEE66ABDEEC77A2E
:10A35000FDEEE77AE4EC016A84ED027AC4ED057A59
:10A360000191039135F0E0FABAEC010A25F8020BED
:10A3700035F0DAFAB9EC010AA88035F0D5FA214BAC
:10A38000E8869845DDE90113D5D11F4907F1280377
:10A39000F1EC017AFDEEE77A17EE902A23F8022B12
:10A3A0005B45F5D1194A1A4B11781C8858889A8850
:10A3B000DB88BC87F887A7F84020A7F8423071B146
:10A3C00007F14403134A03EB4101F2EC017AFDEE7D
:10A3D000E77A17EE900A23F8020B9942F5D10E495D
:10A3E0000E4A0F4B498852681B88A7F86410A7F8DB
:10A3F0006620A7F86E3005B0BDE8F08FE028002099
:10A40000947E0020BC2C0020F05A002039580020F7
:10A41000308D0020D42C0020645B00206C5B002079
:10A420000E5B002024980020A07E0020F8B5A14CEF
:10A43000A14F382200212DED048B204635F098F8ED
:10A440009E4B97F81764B3F85420228410330FCB37
:10A4500097F8185484F82450102E04F1080585E864
:10A460000F000AD801239648B340184028B90EB906
:10A470003046B6E0012E00F0B480924A924913684B
:10A48000216043F002034FF48071904D89481360BE
:10A490006560218327F06CF8B7F82434002B00F0B6
:10A4A0009F8007EE903AF8EE674ADFED897ADFED9C
:10A4B000892A894B9FED896A9FED891ADFED891AF8
:10A4C0009FED898A9FED890ADFED890ADFED898A90
:10A4D0009FED893A64EEA74AB0EE622AFDEEE47A77
:10A4E00074EEA22A17EE901AFDEEE27A203117EEF2
:10A4F000902A03F16C002032402975D8F4EEC14A4D
:10A50000F1EE10FA40F3CF80B0EE647ADFED7B5AC3
:10A51000DFED7B6A01E0B0EE677AB4EEE67AF1EE49
:10A5200010FA77EE657AF6DCF4EEE17AF1EE10FAE5
:10A530000FD5B0EE677ADFED715ADFED726A01E098
:10A54000B0EE677AB4EEE67AF1EE10FA77EEA57A1D
:10A55000F6D4F4EEC27AF1EE10FA40F3998071EE7F
:10A56000677A27EEA77AF0EE405AE7EE085AB0EE87
:10A57000605AA7EE255A67EE876AE6EE857A402A8A
:10A5800035D9B0EE467AF6EE006AF7EE005AF7EEED
:10A59000003AB0EE639AA7EE839A2433B0EE634A92
:10A5A00083EE895AA7EEC34A65EE255A65EE267AF0
:10A5B00025EE077A24EE055A03ED036A03ED046ADB
:10A5C00003ED016A03ED026A43ED097A43ED077A70
:10A5D00043ED085A03ED067A03ED055A98428BD1F4
:10A5E0000120BDEC048BF8BDF0EE467AC7E7F4EE2F
:10A5F000C24AF1EE10FA59DDF0EE626A9FED3F5A61
:10A60000DFED3F5A01E0F0EE476AF4EEE56AF1EE65
:10A6100010FA36EEC57AF6DCB4EEE17AF1EE10FA15
:10A620000FD5F0EE476A9FED355ADFED365A01E05F
:10A63000F0EE476AF4EEE56AF1EE10FA37EE057ACD
:10A64000F6D4B4EEC27AF1EE10FA29DCB4EEE87A70
:10A65000F1EE10FA48BF31EEC77A67EE076AB0EE46
:10A66000405AA6EE885AF0EE603AE6EE853A27EEBA
:10A67000264AF7EE005AA4EE237AB8EE005A75EE99
:10A68000C75AF6EE006A27EE057A65EEA66A7EE7FF
:10A69000F4EEE87AF1EE10FA48BF71EEE77A60E77F
:10A6A00031EE477AD9E7F0EE647A3DE7B0EE627AB0
:10A6B000B2E700BFFC970020E0280020349800207B
:10A6C000011D0100085B0020711503086D150308CA
:10A6D0002EE3CD3BDB0FC93F082D0020000000001A
:10A6E000DB0F4940DB0F49C092E741B99730083C86
:10A6F00015A82ABEDB0FC9BFF304353FDB0FC940E5
:10A70000E4CB1641E4CB16C12DE9F04F674C684D00
:10A71000684E0023202223208FB086F89434C5E9A8
:10A720000033C5E90233A36184F85F2021F0CEF93C
:10A73000614BA069636102232374002800F0B1809B
:10A74000A0612FF0E3FB96F89584E0610746B8F12D
:10A75000000F45D0594B94F85420997984F85C1037
:10A760000020216DC6F898140D2A84F856002ED1C9
:10A77000534ED9783268534F276042F0010232605D
:10A78000514E524A66604FF07E5626622265DE794F
:10A7900001B307291ED04E4A84F85E00012306B19A
:10A7A0004C4AC4F85720D4F85720404884F85D102C
:10A7B00007EE103A07EE902AB8EEC77A67EE277ACE
:10A7C000FCEEE77AC5ED007A28F092FF01200FB089
:10A7D000BDE8F08F9B78404A581E84F85E00DEE7A3
:10A7E0002FF098FB18B1202380F807808371402157
:10A7F00021F092FC642021F00FF9A06918B11C220D
:10A8000000238271C371092121F086FCA06921F027
:10A8100025FD1FB11C220023BA71FB7109213846A6
:10A8200021F07AFC384621F019FDDFF88080DFF84E
:10A83000B490DFF8B4B0012386F895344FF0000AE5
:10A840000A27002301AA7921404628F0A3FE98B1E7
:10A85000BDF80C30A9F81230B9F81230692B1CD8A9
:10A86000DBF80030013307D01C4B1D4A1A600A2068
:10A8700021F02CF929F0C0F9013FE2D10AF1010AD7
:10A88000BAF10A0F3FF466AF27F0E8FA4FF496707A
:10A8900000FB0AF021F01AF9D2E70D2384F85430B6
:10A8A00058E7212020F0E4FA4AE700BF349800205E
:10A8B000907E0020E0280020003001409897002082
:10A8C000085B0020F1360308AD1C03085D1E030879
:10A8D00000007A440000FA410000FA42ECFF012037
:10A8E00077FA31F40000002000000F082DE9F8434A
:10A8F0009F4C0546D4F8A83404F29C4104F2A440CD
:10A900009847B4F99C3494F8C02407EE903AB4F90F
:10A910009E3407EE103AB4F9A03406EE903AF8EE01
:10A92000E77A944BB8EEC77AF8EEE66A023AC3EDDE
:10A93000007A83ED017AC3ED026A062A14D8DFE8B3
:10A9400012F0E400EB00F400FB0004010D0107002D
:10A95000B1EE477AF1EE677AF1EE666A83ED007A3E
:10A96000C3ED017AC3ED026A834A127D82BB834A3A
:10A97000D3ED017AD2ED036A92ED047A92ED052AC5
:10A98000D3ED005AD2ED002A92ED013AD2ED023A0F
:10A9900093ED026A92ED064AD2ED074A92ED085A0B
:10A9A00067EEA66A27EE877A67EE827AE5EEA26AFC
:10A9B000A5EE837AE5EEA37AE6EE046AA6EE247AA3
:10A9C000E6EE057AC3ED006A83ED017AC3ED027A03
:10A9D000DFF8BCE19EF80060720775D4D4F8EC246F
:10A9E00094F80E1519B3B4F9FA1493ED005A93EDD7
:10A9F000016A93ED027A05EE901AB4F9FC1406EEA2
:10AA0000901AB4F9FE1407EE901AF8EEE55AF8EE33
:10AA1000E66AF8EEE77A75EE655A76EE666A77EEE4
:10AA2000677AC3ED005AC3ED016AC3ED027A002ACA
:10AA300048D0534BAD1A9D4217D9524A002302F118
:10AA40000800911F951DC4F8EC3432F9023B30F92F
:10AA5000024B234403EBD3735B10AA4221F8023B61
