:020000040800F2
:10000000F0FF0010ADD2030895BE0308ADAA0008AA
:10001000DDD30308DDD30308DDD3030800000000AF
:1000200000000000000000000000000021C50308DF
:100030001DC503080000000019C5030891A30008AE
:10004000DDD30308DDD30308DDD30308DDD30308C4
:10005000DDD30308DDD3030885AB0008B1AC00088D
:1000600075AC000839AC0008FDAB0008C5260308D4
:10007000B5260308A526030895260308812603084C
:100080006D26030859260308DDD30308DDD30308D2
:10009000DDD30308DDD30308DDD30308C1AB0008BB
:1000A000DDD30308CD990008DDD303088D9A00083D
:1000B000DDD30308DDD303080D990008612C030884
:1000C000692C0308552C03085D2C0308DDD30308B5
:1000D000DDD3030835A6000899A50008FDA4000893
:1000E00049AB0008DDD3030825C50308C196000805
:1000F0008D970008DDD303084D98000845260308B6
:10010000DDD30308DDD30308DDD30308DDD3030803
:1001100061A40008C5A3000861860108458601089E
:10012000312603081D260308091F030809260308B2
:10013000F5250308DDD30308DDD30308DDD3030869
:10014000DDD30308DDD30308DDD3030899BE03081C
:10015000E1250308CD250308B9250308DDD30308ED
:10016000492C0308512C0308DDD30308DDD3030811
:10017000DDD30308DDD30308DDD30308DDD3030893
:10018000DDD30308DDD3030854CE030001000000D3
:100190000A020A00A83400201835002000000000E0
:1001A00040060008270004000C34002024350020FD
:1001B000000000004A0600081900050078340020FD
:1001C00028350020000000004E0600081010030033
:1001D0005433002030350020000000005406000891
:1001E00001200800142D00203435002000000000FC
:1001F000580600081A000A00183300203C35002079
:10020000000000006006000822000C00684B00207F
:10021000384C0020000000006A0600081B00F400B3
:10022000BC360020444C00200000000035BB010813
:100230000E020200043E0020384D002000000000A5
:10024000760600082F001100004C00203C4D0020D5
:100250000000000078060008051006002C4C002065
:10026000504D0020000000008A060008F5216E00B5
:1002700034360020584D00200000000009B301086A
:1002800026000E00D84D0020C84D002000000000C0
:10029000E1B201080B201000A4360020E84D002038
:1002A00000000000900600081F101C0014360020FB
:1002B000F84D002000000000A00600080502010023
:1002C0005C3A0020144E002000000000BC0600082C
:1002D00003010A00A0380020184E00200000000092
:1002E000BE060008F8210600DE530020B0590020A9
:1002F00000000000C8060008031233001455002057
:100300005659002000000000CE06000825005A00C3
:1003100047550020EC5800200000000000000000BD
:10032000F6110C00605800207C58002000000000EE
:10033000040700082C0010006C58002046590020CB
:1003400000000000253C02082B0024000556002078
:100350008959002000000000F53B020829006400D4
:10036000A155002088580020000000000000000077
:10037000230010002C520020FC5900200000000037
:10038000611C0208280010001C5A00200C5A002092
:1003900000000000491C02081400020090570020D1
:1003A0002C5A00200000000010070008160008006A
:1003B000BC5B0020E85C0020000000001207000881
:1003C00007020200C45C0020105D00200000000055
:1003D0001A07000802000C00B05B0020145D00202A
:1003E000000000000000000006020C00705C00200D
:1003F000205D00200000000025A30208080209007B
:10040000FA5B00202C5D002000000000D5A202084D
:10041000F7010600F45B0020385D002000000000BA
:100420001C07000804004000E0770020A0770020AF
:1004300000000000000000000E20F000CA7A00203A
:10044000B0800020000000008501010813000400B6
:10045000787C0020A0810020000000002407000814
:10046000010104004A7A0020A4810020000000005D
:100470000000000000010400427A0020A881002052
:100480000000000028070008020103003D7A002058
:10049000AC8100200000000019A20208090201003E
:1004A000E87F0020B0810020000000002C07000839
:1004B0000C106000F47B0020B481002000000000DC
:1004C000EDA1020801020500527A002014820020EA
:1004D000000000004D2E03080002050020780020D7
:1004E0001C82002000000000000000001E0004002C
:1004F000BC7D002024820020000000002E070008A0
:1005000013020100448B00206CBE0020000000009C
:1005100000000000F9010400CCB2002070BE0020F1
:100520000000000059820008FD011E00A8B2002052
:1005300074BE002000000000E981000806101200CF
:1005400044A7002094BE002000000000B50101086F
:10055000FB010100E0A60020A8BE00200000000072
:1005600059A20208FC010900ACA50020ACBE002085
:100570000000000099A202081102080080A50020D6
:10058000B8BE00200000000032070008121204006C
:1005900078A50020C0BE0020000000003A07000837
:1005A00012200D0064A50020C4BE00200000000041
:1005B0003E07000818202C00C0A40020D4BE002054
:1005C00000000000194802080D003400ECA40020CF
:1005D00000BF00200000000039A30208FA01020059
:1005E000949E002034BF00200000000045860008D3
:1005F000020203006C8B002038BF002000000000C6
:10060000000000000C0201005C8B00203CBF0020B9
:10061000000000004C070008FE010900689E002051
:1006200040BF00200000000001A302080A103000B3
:10063000C89500204CBF0020000000004E070008B5
:1006400000004A01B400D60126002003000000008B
:100650002801000000050000E8036400040A00010E
:100660007E05EA05B40532000000C800141E010032
:1006700064002C01280000000000000000000000C1
:100680000000000000000000000020000101000048
:100690002B21231E64010100000001000A01290032
:1006A0000000000000000100000005000000000044
:1006B0000000000000000000000000000000040135
:1006C00001006C16000000000200F4011900000097
:1006D000000000000000000000000000000000001A
:1006E000000000000000000000000000000000000A
:1006F00000000000000000000000000000000000FA
:1007000001000000000000000000000000000000E8
:100710000300C409000019012828023C3F01000021
:1007200000000000080445109001000027000000B0
:1007300001000000000001010101FFFFFFFF0000B8
:100740000001000005484553500000000100003042
:100750000107015A00010000000000000000000035
:1007600000000100000020000000AC0D0A00AC0DEC
:100770000A00C4090A0096009600960000000101D4
:1007800002FFFF0000000000803F000000000000AA
:100790000000000000000000803F0000000000009A
:1007A0000000000000000000000000000000000049
:1007B0000000000000000000000000000000000039
:1007C000803F00000000000000000000000000006A
:1007D000803F0000803F0000803F000000000000DC
:1007E000000000000000FF00000009026400030197
:1007F00000C03209040000010300000009211101BA
:1008000000012226000705830308000A080B0102E5
:100810000202010009040100010202010005240096
:10082000100105240100020424020205240601022D
:10083000070582030800FF09040200020A00000005
:10084000070501024000000705810240000000FF8B
:10085000FF0000000000AA55050100000100000093
:1008600001FFFF01000005010905A101A10005012B
:100870000930093109320933093509340940093889
:100880001581257F750895088102C0C00000090206
:100890002200010100E0320904000001030102000E
:1008A0000921110100012226000705830308000A1F
:1008B0000000000000000102030401020304060717
:1008C00008092D202D2D202D2D2D2D202D2D2D2DC8
:1008D0000000000000000000000000000000000018
:1008E00000AA550B010000AA5507010000AA5509EE
:1008F00002000000000001000000C012AA55030021
:100900009F00FF1FFF1F7020040800000000000070
:1009100000002DA20208A0860100040000000000D3
:1009200000000000000000000000000000000000C7
:1009300000000000000000000000C0530408782000
:10094000040800000000413401087D00000006009A
:100950000000000000000000000000000000000097
:1009600000000000000000000000000000008020E7
:10097000040800000000000000001DB40008E803A7
:100980000000030000000000000000000000000064
:100990000000000000000000000000000000000057
:1009A0000000842004080000000000000000F10A9C
:1009B00001081027000003000000000000000000F4
:1009C0000000000000000000000000000000000027
:1009D00000000000000090200408000000006D39B5
:1009E000020809F40008204E000005000000000085
:1009F00000000000000000000000000000000000F7
:100A0000000000000000000000005845040800003D
:100A1000000000000000D9BA000810270000010003
:100A200000000000000000000000000000000000C6
:100A30000000000000000000000000000000942002
:100A4000040800000000000000008D800008E8039A
:100A50000000050000000000000000000000000091
:100A60000000000000000000000000000000000086
:100A70000000A02004080000000000000000D9AB26
:100A80000208204E000003000000000000000000EB
:100A90000000000000000000000000000000000056
:100AA000000000000000B02004080000000000006A
:100AB0000000CDA90208204E000003000000000045
:100AC0000000000000000000000000000000000026
:100AD00000000000000000000000C020040800002A
:100AE00000000000000051860008400D03000300D4
:100AF00000000000000000000000000000000000F6
:100B00000000000000000000000000000000D020F5
:100B10000408000000000000000049B90208102786
:100B200000000100000000000000000000000000C4
:100B300000000000000000000000000000000000B5
:100B40000000D820040800000000000000001D6123
:100B50000308102700000300000000000000000050
:100B60000000000000000000000000000000000085
:100B7000000000000000DC2004080000000000006D
:100B80000000DD740308A0860100010000000000E1
:100B90000000000000000000000000000000000055
:100BA00000000000000000000000E8200408000031
:100BB000000000000000A1CA0008A00F0000010012
:100BC0000000000000000000000000000000000025
:100BD0000000000000000000000000000000F42001
:100BE00004080000000000000000C1C80108102730
:100BF00000000100000000000000000000000000F4
:100C000000000000000000000000000000000000E4
:100C1000000034200408000000000000000015154A
:100C200002081A410000010000000000000000005E
:100C300000000000000000000000000000000000B4
:100C40000000000000000021040800000000000077
:100C50000000B9AF010810270000010000000000EB
:100C60000000000000000000000000000000000084
:100C70000000000000000000000030200408000018
:100C8000000000000000955003081A410000010018
:100C90000000000000000000000000000000000054
:100CA00000000000000000000000000000000C2117
:100CB00004080000000000000000F9E50108400DF4
:100CC0000300000000000000000000000000000021
:100CD0000000000000000000000000000000000014
:100CE0000000142104080000000000000000018042
:100CF0000008400D0300000000000000000000009C
:100D000000000000000000000000000000000000E3
:100D10000000000000001C2104080000000000008A
:100D20000000C9660308A08601000300000000005F
:100D300000000000000000000000000000000000B3
:100D4000000000000000000000002821040800004E
:100D500000000000000099A9020840420F000000B6
:100D60000000000000000000000000000000000083
:100D7000000000000000000000000000000034211E
:100D80000408000000000000000021A5020850C374
:100D90000000000000000000000000000000000053
:100DA0000000000000000000000000000000000043
:100DB000000001000000FFFFFFFFD6010000512CE2
:100DC0000208000000000000000001000000000117
:100DD000010100000000FFFFFFFF00000000005DB8
:100DE00000200800000000000000F05C0020080067
:100DF0000000F1D5010875D5010865CE0108000095
:100E000000004DBA0108E5D6010855BA010851BAEB
:100E100001080000000000000000A9AA01080582E6
:100E20000308C5810308B5BD0308000000003D7E2E
:100E300003081981030899810308818003080000D1
:100E4000000000000000317E03088C0B0408050838
:100E5000040000000000041204086CE70308F0110D
:100E600004080000000000000000B80B040805089A
:100E70000A0000000000041204086CE703080C11CB
:100E80000408000000000000000001000000500104
:100E90000000070000000200000000000000000049
:100EA00000000102030406070809E0010101010036
:100EB00000003D30030800000000A8080020385A58
:100EC0000408000000000000000000000000000016
:100ED00000007C5B040800000000000000003409F2
:100EE000002004000000E45904080D000000E14A5D
:100EF0000308F423002000000000305304080D0014
:100F00000000094B0308E823002000000000A05463
:100F100004080800000000000000DC23002004009A
:100F200000009C5304080D000000F1300308D0239A
:100F30000020000000005054040803000000194D78
:100F40000308C423002000000000485A04080300DE
:100F50000000194D0308B823002000000000905045
:100F60000408010000000000000000000000000074
:100F70000000000000000E00000000000000000063
:100F8000000000000000385A0408000000000000C3
:100F9000000000000000000000007C5B040800006E
:100FA00000000000000034090020040000009059F7
:100FB000040803000000453C0308AC23002008009F
:100FC00000009C5304080D000000F1300308D023FA
:100FD0000020000000005054040803000000194DD8
:100FE0000308C423002000000000485A040803003E
:100FF0000000194D0308B8230020000000009050A5
:1010000004080100000000000000000000000000D3
:101010000000000000000E000000000000000000C2
:10102000000000000000505A04080000000000000A
:10103000000000000000000000007C5B04080000CD
:10104000000000000000340900200400000098594E
:10105000040803000000194D0308002400200000CC
:101060000000905004080100000000000000000093
:10107000000000000000000000000E000000000062
:101080000000000000000000000020700020702D13
:101090007200080000000000000000000000681F4F
:1010A0000020FFFFFFFFFA00000001000000010028
:1010B00000002D202D2D202D2D2D2D202D2D2D000E
:1010C0000000000000000000000000000000000020
:1010D0000000645004086C500408885004080000A4
:1010E0000000000000000000000000000000FA4FB7
:1010F000040804000000A9480308000000000000E4
:1011000000009050040801000000000000000000F2
:10111000000000000000000000000E0000000000C1
:10112000000000000000000000001ABE00200100C6
:10113000C4090000000018BE00200100C40900001E
:10114000000016BE00200100C4090000000014BE0B
:1011500000200100C4090000000010BE00200100B2
:10116000C4090000000012BE00200100C4090000F4
:1011700000000EBE00200100C409000000000CBEEB
:1011800000200100C40900000000647A0020010072
:10119000C80001000000627A002032003075320081
:1011A0000000607A0020055A05005D7A002000FFEB
:1011B00001005F7A002001000000540900205B7AE2
:1011C00000200200000068E803085C7A002000FFAD
:1011D00001005E7A002001000000540900205A7AC4
:1011E00000200200000068E80308507A002080C157
:1011F000803E050000004E7A002080C1803E050040
:101200000000487A002080C1803E05000000467A38
:10121000002080C1803E05000000407A002000FFD1
:1012200001003C7A00200A3201003B7A00200400D1
:101230000000EC1004083A7A0020020000000011BF
:10124000040800000000000000005C090020143ABF
:1012500000209CFF2C01000000002E0700200A0047
:1012600000000C110408307A0020E0150C17000073
:10127000000030070020080000006CE703082F077B
:1012800000200500000004120408327A0020020049
:10129000000024110408687C00200100FF7F010089
:1012A0000000677C00200200000030110408BF7AB3
:1012B00000200300000040110408BE7A0020030053
:1012C000000040110408CC7B00200000FF0001005A
:1012D0000000CA7B00200000FF0001000000C87B66
:1012E00000200000FF0001000000C67B002000007D
:1012F000803E01000000C47B00200000803E3200E0
:101300000000C27B00200000803E01000000C07B86
:1013100000200000803E32000000BE7B0020000064
:10132000803E01000000BC7B00200000803E3200B7
:101330000000BA7B00200000FF0001000000D67B07
:1013400000200000F40101000000D47B0020000018
:10135000F40101000000D27B00200000F401010034
:101360000000D07B00200000F40101000000CE7BD3
:10137000002000FF0100F27B0020E803D0070A00F4
:101380000000F07B0020006401000A000000E57B03
:10139000002000640100E47B002000640100EC7B7D
:1013A0000020006401000A000000EB7B00200064C4
:1013B00001000A000000EA7B0020006401000A002E
:1013C0000000EF7B0020006401000A000000EE7BBB
:1013D0000020006401000A000000ED7B0020006492
:1013E00001000A000000E97B002000FF01000A0064
:1013F0000000E87B002000FF01000A000000E77BFE
:10140000002000FF01000A000000C67A0020000052
:10141000F40101000000C47A00200000F401010082
:101420000000C27A00200000F40101000000C07A30
:1014300000200000F40101000000E07B0020140007
:10144000E80301000000DE7B0020E80330750100A6
:101450000000DD7B002000C80100DC7B002000C80C
:101460000100DB7B002000C80100DA7B0020016462
:1014700001000A000000D97B002000FF01000A00E3
:1014800000005D7C002000C801005C7C002000C8DA
:1014900001005B7C002000C801005A7C002000C8CD
:1014A0000100597C002000C80100587C002000C8C1
:1014B0000100577C002000C80100567C002000C8B5
:1014C0000100557C002000C80100B850040800004D
:1014D0000000000000000000000000000000C850F4
:1014E00004080900000000000000000A00200400B9
:1014F0000000D05004080900000000000000F409BA
:1015000000200400000078570408090000000000D3
:101510000000E8090020040000008C1D04080900F8
:10152000000000000000DC09002004000000D8508A
:1015300004080900000000000000D0090020040099
:101540000000E05004080900000000000000C40989
:10155000002004000000E85004080900000000001A
:101560000000B809002004000000F0500408090041
:10157000000000000000AC090020040000009050B2
:10158000040801000000000000000000000000004E
:101590000000000000000E0000000000000000003D
:1015A00000000000000024520408000000000000B9
:1015B0000000000000000000000080430408070055
:1015C000000000000000240A002000000000345247
:1015D00004080800000000000000180A00200000B5
:1015E00000004052040808000000000000000C0A3F
:1015F00000200000000090500408010000000000DE
:1016000000000000000000000000000000000E00CC
:101610000000000000000000000000000000485230
:1016200004080000000000000000000000000000AE
:101630000000585204080D00000000000000600A7D
:10164000002000000000605204080D0000000000AF
:101650000000540A0020000000006852040807003F
:101660000000000000004C0A002000000000705242
:1016700004080D00000000000000400A00200000E7
:101680000000785204080D00000000000000340A39
:101690000020000000008052040807000000000045
:1016A00000002C0A002000000000905004080100F7
:1016B000000000000000000000000000000000002A
:1016C00000000E000000000000000000000000000C
:1016D0000000885204080000000000000000000024
:1016E000000000000000804304080C00000000001F
:1016F0000000667A0020000000009C5204080C00E4
:10170000000000000000687A002000000000AC52D9
:1017100004080C000000000000009E7A0020000079
:101720000000BC5204080C00000000000000927A87
:10173000002000000000D05204080C00000000004F
:1017400000006A7A002000000000F84C04080C0039
:101750000000000000006C7A002000000000DC5255
:1017600004080C000000000000006E7A0020000059
:101770000000F05204080C00000000000000707A25
:10178000002000000000F85204080C0000000000D7
:101790000000727A002000000000005304080C00D2
:1017A000000000000000B07A002000000000185384
:1017B00004080C00000000000000747A0020000003
:1017C0000000245304080C00000000000000767A9A
:1017D000002000000000F01F04080C0000000000C2
:1017E0000000787A0020000000002C5304080C0050
:1017F0000000000000007A7A00200000000038534A
:1018000004080C000000000000007C7A00200000AA
:101810000000445304080C000000000000007E7A21
:10182000002000000000505304080C0000000000DD
:101830000000807A0020000000005C5304080C00C7
:10184000000000000000827A0020000000006853C1
:1018500004080C00000000000000967A0020000040
:101860000000705304080C00000000000000947A8F
:10187000002000000000785304080C000000000065
:101880000000A27A002000000000845304080C002D
:10189000000000000000A47A002000000000905327
:1018A00004080C00000000000000AA7A00200000DC
:1018B0000000805104080C00000000000000847A41
:1018C0000020000000009C5304080C0000000000F1
:1018D00000008C7A002000000000A45304080C00D3
:1018E000000000000000867A002000000000B053D5
:1018F00004080C00000000000000887A00200000AE
:101900000000BC5304080C000000000000008A7AAC
:10191000002000000000C45304080C000000000078
:1019200000008E7A002000000000A04304080C0094
:10193000000000000000987A002000000000D05352
:1019400004080C00000000000000907A0020000055
:101950000000DC5304080C00000000000000A07A26
:10196000002000000000E85304080C000000000004
:1019700000009A7A002000000000F05304080C00D8
:101980000000000000009C7A002000000000F853D6
:1019900004080C00000000000000A67A00200000EF
:1019A0000000005404080C00000000000000A87AA9
:1019B000002000000000905004080100000000001A
:1019C00000000000000000000000000000000E0009
:1019D00000000000000000000000000000000854AB
:1019E00004080000000000000000000000000000EB
:1019F0000000145404080D00000000000000B80AA4
:101A00000020000000001C5404080D00000000002D
:101A10000000AC0A00200000000024540408070065
:101A2000000000000000A40A002000000000305464
:101A3000040807000000000000009C0A00200000CD
:101A400000003C5404080900000000000000900A57
:101A500000200000000048540408090000000000B5
:101A60000000840A0020000000005454040809000B
:101A7000000000000000780A00200000000064540C
:101A8000040809000000000000006C0A00200000AB
:101A90000000905004080100000000000000000059
:101AA000000000000000000000000E000000000028
:101AB000000000000000000000007854040800004E
:101AC000000000000000000000000000000088543A
:101AD00004080500000000000000BD7A002000009E
:101AE0000000905004080100000000000000000009
:101AF000000000000000000000000E0000000000D8
:101B000000000000000000000000905404080000E5
:101B100000000000000000000000000000007C5BEE
:101B20000408000000000000000044010020040040
:101B300000009C5404080D0000000D4903080C0B24
:101B4000002000000000E45904080D000000F52FFB
:101B50000308000B002000000000305304080D00B3
:101B60000000D92F0308F40A002000000000A05450
:101B700004080800000000000000E80A002004003B
:101B800000009C5304080D000000212F0308DC0A0C
:101B9000002000000000A854040809000000000014
:101BA0000000D00A00200400000050540408030084
:101BB0000000194D0308C40A0020000000009050E6
:101BC0000408010000000000000000000000000008
:101BD0000000000000000E000000000000000000F7
:101BE000000000000000B0540408000000000000E5
:101BF00000000000000000000000C05404080D00B8
:101C0000000000000000240B002000000000C85469
:101C100004080A000000000000006D7D00200000A4
:101C20000000D45404080A00000000000000757D84
:101C3000002000000000DC5404080A00000000003E
:101C400000007D7D002000000000E454040808002E
:101C5000000000000000180B002000000000EC5401
:101C6000040804000000B14E03080000000000005A
:101C70000000905004080100000000000000000077
:101C8000000000000000000000000E000000000046
:101C900000000000000000000000F85404080000EC
:101CA00000000000000000000000000000000C55D3
:101CB00004080D000000000000003C0B00200000A4
:101CC00000001C55040804000000554B03080000E8
:101CD000000000000000245504080D000000000072
:101CE0000000300B002000000000385504080400FC
:101CF0000000314B0308000000000000000090507D
:101D000004080100000000000000000000000000C6
:101D10000000000000000E000000000000000000B5
:101D20000000000000004055040800000000000012
:101D300000000000000000000000BC4D0408080086
:101D4000000000000000B40B00200000000054550B
:101D500004080800000000000000A80B002000009C
:101D600000005C55040808000000000000009C0B07
:101D70000020000000006455040808000000000076
:101D80000000900B0020000000006C5504080800C3
:101D9000000000000000840B0020000000007455CB
:101DA00004080800000000000000780B002000007C
:101DB00000007C55040808000000000000006C0BC7
:101DC0000020000000008455040808000000000006
:101DD0000000600B0020000000009055040808007F
:101DE000000000000000540B0020000000009C5583
:101DF00004080800000000000000480B002000005C
:101E000000009050040801000000000000000000E5
:101E1000000000000000000000000E0000000000B4
:101E200000000000000000000000A45504080000AD
:101E30000000000000000000000000000000B85595
:101E400004080700000000000000F00B0020000064
:101E50000000C45504080800000000000000E40B66
:101E6000002000000000D055040808000000000019
:101E70000000D80B002000000000DC55040808001A
:101E8000000000000000CC0B002000000000E8551E
:101E900004080800000000000000C00B0020000043
:101EA0000000905004080100000000000000000045
:101EB000000000000000000000000E000000000014
:101EC00000000000000000000000F45504080000BD
:101ED0000000000000000F09002000000000005674
:101EE00004080B00000000000000800C002000002F
:101EF00000000C5604080B00000000000000740CE9
:101F0000002000000000185604080B00000000002C
:101F10000000680C002000000000245604080B009C
:101F20000000000000005C0C0020000000003056A3
:101F300004080B00000000000000500C002000000E
:101F400000003C5604080B00000000000000440C98
:101F5000002000000000485604080B0000000000AC
:101F60000000380C002000000000545604080B004C
:101F70000000000000002C0C002000000000605653
:101F800004080B00000000000000200C00200000EE
:101F900000006C5604080700000000000000180C48
:101FA0000020000000007456040807000000000034
:101FB0000000100C002000000000805604080B00F8
:101FC000000000000000040C0020000000008C56FF
:101FD00004080800000000000000F80B00200000CA
:101FE0000000905004080100000000000000000004
:101FF000000000000000000000000E0000000000D3
:1020000000000000000000000000985604080000D6
:102010000000000000000000000000000000AC56BE
:1020200004080800000000000000B00C00200000C0
:102030000000B85604080800000000000000A40CCE
:10204000002000000000C456040808000000000042
:102050000000980C0020000000009C5504080800B7
:102060000000000000008C0C0020000000009050D8
:102070000408010000000000000000000000000053
:102080000000000000000E00000000000000000042
:10209000000000000000D05604080000000000000E
:1020A00000000C09002000000000E05604080B00AE
:1020B000000000000000F80C002000000000EC56BA
:1020C00004080B00000000000000EC0C00200000E1
:1020D0000000F85604080700000000000000E40CAF
:1020E0000020000000000457040807000000000062
:1020F0000000DC0C0020000000001057040807005E
:10210000000000000000D40C0020000000001C575C
:1021100004080800000000000000C80C00200000B7
:102120000000245704080800000000000000BC0C58
:102130000020000000009050040801000000000092
:1021400000000000000000000000000000000E0081
:1021500000000000000000000000000000002C57FC
:10216000040800000000000000000C09002000002E
:102170000000385704080700000000000000440D6C
:102180000020000000004057040807000000000085
:1021900000003C0D00200000000048570408070024
:1021A000000000000000340D002000000000541D5D
:1021B000040807000000000000002C0D00200000B3
:1021C00000005C1D04080700000000000000240D52
:1021D000002000000000641D04080700000000004B
:1021E00000001C0D002000000000505704080700EC
:1021F000000000000000140D0020000000005857EF
:10220000040807000000000000000C0D0020000082
:102210000000605704080700000000000000040DE3
:1022200000200000000090500408010000000000A1
:1022300000000000000000000000000000000E0090
:10224000000000000000000000000000000000008E
:102250000000653303084C0D0020BB7A00201C00F1
:10226000000050110408BA7A002000C80100B87AB2
:102270000020E803D0070100000048454C494F53B7
:102280005052494E4700597A002000030100587A05
:10229000002000030100AD32030885320308280E38
:1022A000002041320308F5310308A00E0020ED3272
:1022B0000308D5320308540F00206131030815319B
:1022C0000308601200207B330308013703083C1326
:1022D0000020612F0308000000008C1300208D4EA9
:1022E00003087D36030868140020A13303080000AA
:1022F00000001C1500206134030815340308A815DC
:102300000020DD340308AD340308AC160020693525
:102310000308AD3503084C170020E27B00200106BE
:102320000100E1330308B53303088C1800200D3594
:102330000308794B030818190020D9350308D54B39
:102340000308E0190020D87B002001030100685732
:102350000408000000000000000000000000000071
:102360000000745704080800000000000000F01A84
:102370000020000000007C57040807000000000057
:102380000000E81A0020000000008C5704080D002F
:10239000000000000000DC1A002000000000985738
:1023A000040803000000194D0308D01A00200000A3
:1023B0000000905004080100000000000000000030
:1023C000000000000000000000000E0000000000FF
:1023D00000000000000000000000A05704080000FA
:1023E0000000000000000000000000000000B057E6
:1023F00004080A00000000000000F04C040800007F
:102400000000B85704080A000000000000004D2238
:10241000040800000000C05704080A000000000083
:1024200000005E7C002000000000C85704080A007D
:10243000000000000000FC1A002000000000905086
:10244000040801000000000000000000000000007F
:102450000000000000000E0000000000000000006E
:10246000000000000000D057040800000000000039
:1024700000000000000000000000DC57040803001A
:102480000000194D0308301B002000000000E85731
:10249000040803000000194D0308241B002000005D
:1024A0000000F057040803000000194D0308181B32
:1024B000002000000000F85704080500000000009C
:1024C0000000577A002000000000005804080700B0
:1024D000000000000000101B0020000000000C584D
:1024E00004080700000000000000081B0020000096
:1024F00000009050040801000000000000000000EF
:10250000000000000000000000000E0000000000BD
:10251000000000000000000000001858040800003F
:102520000000000000000000000000000000AC4DB2
:10253000040803000000194D0308601B0020000080
:1025400000002C58040803000000194D030834074C
:102550000020000000003458040803000000194D5A
:102560000308541B0020000000003C58040803002E
:102570000000194D0308481B0020000000009C5378
:10258000040803000000194D03083C1B0020000054
:10259000000090500408010000000000000000004E
:1025A000000000000000000000000E00000000001D
:1025B000000000000000000000004858040800006F
:1025C000000000000000000000000000000054585F
:1025D000040807000000214C0308C81B002000006D
:1025E0000000C053040803000000194D0308BC1B81
:1025F0000020000000006058040803000000194D8E
:102600000308B01B00200000000068580408030005
:102610000000194D0308A41B0020000000007058A2
:10262000040807000000054C03089C1B0020000064
:102630000000E81C040803000000194D0308901B6B
:102640000020000000007C58040803000000194D21
:102650000308841B002000000000885804080300C1
:102660000000194D0308781B00200000000090585E
:10267000040803000000194D03086C1B0020000033
:10268000000090500408010000000000000000005D
:10269000000000000000000000000E00000000002C
:1026A000000000000000000000003533030805337F
:1026B0000308D01B002049360308000000005C1C02
:1026C0000020D1310308AD310308E81C00200000D0
:1026D0000000000000009C1D0020213603083D4C36
:1026E00003083C1E00209C58040800000000000065
:1026F00000000000000000000000A85804080300CB
:102700000000194D03085C1F002000000000B058B5
:10271000040803000000194D0308501F00200000AA
:1027200000003420040803000000194D0308441F72
:10273000002000000000BC58040803000000194DF0
:102740000308381F002000000000C85804080300D8
:102750000000194D03082C1F002000000000D05875
:10276000040802000000FD4E030800000000000005
:102770000000D858040802000000FD4E03080100C4
:10278000000000000000E458040802000000FD4EB4
:1027900003080200000000000000000000000E001E
:1027A0000000000000000000000000000000367A79
:1027B000002088136F1701000000387A002088136A
:1027C0006F1700000000F05804080000000000002F
:1027D000000000000000000000000059040808008C
:1027E0000000000000003C200020040000000C5904
:1027F0000408080000000000000030200020000055
:10280000000050540408040000003549030800008B
:1028100000000000000090500408010000000000CB
:1028200000000000000000000000000000000E009A
:102830000000000000000000000000000000347AEA
:10284000002088136F1701000000503A0020881301
:102850006F1700000000A5300308000000004820AA
:102860000020117D002001000000C4110408523A2C
:10287000002001000000D0110408483A00200200A6
:102880000000D811040862BE002000000000000013
:10289000000060BE002000000000000000005EBEDE
:1028A000002000000000000000005CBE00200000CE
:1028B0000000000000005ABE0020000000000000E0
:1028C000000058BE002000000000000000007C0155
:1028D00000200000000000000000337A0020020009
:1028E0000000E4110408485904080000000000003A
:1028F000000000000000000000000059040808006B
:10290000000000000000CC200020040000000C5952
:1029100004080800000000000000C02000200000A3
:102920000000505404080400000075300308000043
:1029300000000000000090500408010000000000AA
:1029400000000000000000000000000000000E0079
:1029500000000000000000000000000000005859C6
:10296000040800000000000000000000000000005B
:102970000000685904080D000000854A0308FC2087
:10298000002004000000745904080D000000CD3040
:102990000308F020002004000000805904080D0006
:1029A0000000494A0308E4200020000000008C5980
:1029B000040803000000653C0308D820002008003C
:1029C00000009859040803000000194D0308002472
:1029D00000200000000090500408010000000000EA
:1029E00000000000000000000000000000000E00D9
:1029F00000000000000000000000000000008850FF
:102A000004080000000000000000000000000000BA
:102A10000000FA4F0408040000004D4903080000BC
:102A200000000000000090500408010000000000B9
:102A300000000000000000000000000000000E0088
:102A40000000000000000000000000000000EC5941
:102A5000040800000000000000000000000000006A
:102A60000000504604080D000000000000005C213A
:102A7000002004000000FC590408080000000000C9
:102A800000005021002004000000085A040808003B
:102A90000000000000004421002004000000105A43
:102AA0000408080000000000000038210020040095
:102AB0000000185A040808000000000000002C2143
:102AC000002004000000205A040808000000000054
:102AD00000002021002004000000285A04080800FB
:102AE0000000000000001421002004000000305A03
:102AF0000408080000000000000008210020040075
:102B000000009050040801000000000000000000D8
:102B1000000000000000000000000E0000000000A7
:102B2000000000000000000000008D3003080000DD
:102B30000000682100200000000000000000E021EB
:102B400000200000000000000000802200204E3A1B
:102B5000002004000000F01104084C3A0020E015A9
:102B60000C17000000004B3A0020080000006CE742
:102B700003084A3A0020050000000412040800007F
:102B8000000000000000D02200200403090412010C
:102B90000002EF02014083045632000201020301E9
:102BA00000001201000202020040830440570002AC
:102BB00001020301000009024300020100C03209C2
:102BC0000400000102020100052400100105240197
:102BD00000010424020205240600010705820308FF
:102BE00000FF09040100020A00000007050102407D
:102BF00000000705810240000000FF0000000800FF
:102C000000000000000100000000000000000000C3
:102C10000000957D0308917D03088D7D0308817D6B
:102C200003087D7D0308897D0308857D0308097EEF
:102C30000308FD7D0308D57D0308E97D0308C17DF8
:102C40000308AD7D0308997D0308010100000060C1
:102C50000240106002400000000000000000000B75
:102C60000000000000000000000000000000006004
:102C70000240286002400100000000000000060C35
:102C800000000000000000000000000000000060E4
:102C90000240406002400200000000000000100DF1
:102CA00000000000000000000000000000000060C4
:102CB0000240586002400300000000000000160EB1
:102CC00000000000000000000000000000000060A4
:102CD0000240706002400400000000000000200F6D
:102CE0000000000000000000000000000000006084
:102CF000024088600240050000000000000026102D
:102D00000000000000000000000000000000006063
:102D10000240A060024006000000000000003011E8
:102D20000000000000000000000000000000006043
:102D30000240B86002400700000000000000362F8B
:102D4000000000000000000000000000000000641F
:102D50000240106402400000000000000000003843
:102D600000000000000000000000000000000064FF
:102D70000240286402400100000000000000063903
:102D800000000000000000000000000000000064DF
:102D90000240406402400200000000000000103ABF
:102DA00000000000000000000000000000000064BF
:102DB0000240586402400300000000000000163B7F
:102DC000000000000000000000000000000000649F
:102DD0000240706402400400000000000000203C3B
:102DE000000000000000000000000000000000647F
:102DF00002408864024005000000000000002644F4
:102E0000000000000000000000000000000000645E
:102E10000240A064024006000000000000003045AF
:102E2000000000000000000000000000000000643E
:102E30000240B8640240070000000000000036466F
:102E40000000000000000000000000000000000082
:102E5000803F5DCF01085DD40108D9CF0108EDAAFC
:102E6000010825D60108FDAA010819AB0108C5AA69
:102E70000108B5AA010800000000000000000427B6
:102E80000020000000000000000000000000000022
:102E90000000000000000000000000000000000032
:102EA0000000000000000000000000000000000022
:102EB0000000000000000000000000000000000012
:102EC0000000000000000000000000000000000002
:102ED00000000000000000000000000000000000F2
:102EE000000043000000000000000000000000009F
:102EF00000000000000000000000000000000000D2
:102F0000000043000000000000000000000000007E
:102F100000000000000000000000000000000000B1
:102F2000000043000000000000000000000000005E
:102F30000000000000000000000000000000000091
:102F4000000043000000000000000000000000003E
:102F50000000000000000000000000000000000071
:102F6000000043000000000000000000000000001E
:102F70000000000000000000000000000000000051
:102F800000004300000000000000000000000000FE
:102F90000000000000000000000000000000000031
:102FA00000004300000000000000000000000000DE
:102FB0000000000000000000000000000000000011
:102FC0000000AFD703088BD7030800000000BE5BEA
:102FD0000408F64F0408D5260408D5260408D5268B
:102FE0000408D5260408D5260408D5260408D526C5
:102FF0000408D5260408D5260408FFFFFFFFFFFFBD
:10300000FFFFFFFFFFFFFFFF0000010041534349A7
:103010004900000000000000000000000000000067
:103020000000000000000000000000004153434980
:103030004900000000000000000000000000000047
:103040000000000000000000000000000000000080
:103050000000000000000000000000000000000070
:103060000000000000000000000000000000000060
:103070000000000000000000000000000000000050
:108000000C4B1B78DB0700D570470B4A1368002B1D
:10801000FAD04FF47A7101FB03F39842F4D3074B83
:108020001B781BB9064B99681B690B600023136012
:10803000704700BF38380020B4340020A834002036
:108040009434002090ED057A90ED004AD0ED066A58
:10805000D0ED014AD0ED047A90ED035AD0ED025AEA
:10806000A4EE007AB0EE406AB0EE470AB0EE667A4F
:10807000A4EE867A67EEC07AA5EE407AE5EE867ABF
:1080800080ED057AC0ED067A704700BF38B50B4C1D
:1080900023688BB15A68821A002A054604DA0BE07D
:1080A0005A68AA1A002A07DB9A68226018461A68DA
:1080B00090472368002BF3D138BD00BF0450002047
:1080C000436A8269D154436A0169826B01338B42EE
:1080D00028BF00234362DAB1EFF31183502282F309
:1080E0001288826B1168C9070ED470B45468FCB949
:1080F000D0E909518D4211D1012280F85C20DBB218
:1081000083F3118870BC7047DBB283F3118870472A
:10811000826DD36843F08003D360704786690E4454
:10812000D6600ED9691A51608562002180F85C1012
:10813000116841F00101DBB2116083F3118870BC5A
:1081400070470569691A51608462EEE7034610B40E
:10815000446BD968406954B1DA6C8C1A013A005DFD
:108160005DF8044B08BF0A46C0B2DA6470471A6A69
:10817000805C01328A4228BF2246C0B21A625DF892
:10818000044B7047836B13B190F85C007047D0E9E3
:108190000903181AB0FA80F040097047D0E90912B3
:1081A0000369914238BFC9188A1A816B013B19B122
:1081B00049680A449A4201D2981A704700207047D1
:1081C000436B43B1C26C5B689A4291BF981AC06816
:1081D0009B1AC0187047D0E907239A422FBFD01AC4
:1081E000C0688018C01A70470A4B30B503F11404F8
:1081F00093F900205D78072AC8BF143A8118043328
:108200008D7213F8025C855413F8012C0A759C4298
:10821000EED130BDBCE0030803682DE9F041DD6913
:108220001DB12B46BDE8F0411847002A174611DD65
:1082300004460E460F4400E023689B68204698479A
:108240000028F9D0236816F8011B1B6820469847C0
:10825000BE42F1D1BDE8F0810023182202704370C4
:108260008370C370704700BF0028F0B403DA2D2379
:108270000B7040420131092804464FF0010307DD2D
:1082800003EB83035B00B0FBF3F2092AF8D883B158
:108290000F48A0FB0326B4FBF3F2092A02F1570CA6
:1082A00002F1300709DD03FB1244F30801F801CBAA
:1082B000EFD100230B70F0BC704703FB1244F308AE
:1082C00001F8017BE5D100230B70F0BC704700BFC3
:1082D000CDCCCCCC884270B44FF0010442D301FB2A
:1082E00004F4B0FBF4F58D42F9D2ECB142BB092D98
:1082F00004FB150005F1570605F130020EDDB4FB55
:10830000F1F403F8016B7CB1B0FBF4F5092D04FB2B
:10831000150005F1570605F13002F0DCB4FBF1F46D
:1083200003F8012B002CEFD100221A7070BC7047AB
:1083300003F8016BB4FBF1F4002CF5D0B0FBF4F5BD
:10834000092D04FB150005F1370605F13002EFDCBD
:10835000B4FBF1F403F8012B002CEFD100221A70CA
:1083600070BC70470546002AEAD1C0E72DE9F04706
:1083700014461D46064600234FF47A7220462946CD
:1083800034F0C8FDDFF848814B4A4C4F88FB003180
:108390000144C31782FB002CC3EB611188FB012849
:1083A00087FB00278444464AC3EBEC2CC1EB011E3B
:1083B00082FB0C29A0EB8E0E0744424A86F806E0A9
:1083C000C3EB27474FEAEC7E08EB010ACEEBA90E80
:1083D00082FB07824FEAE1780EEB4E0EC8EB6A187B
:1083E000ACEBCE0CC8EB0818DFF8E8E086F804C068
:1083F000A1EB880171718EFB0010F917C1EBE2123D
:1084000040F2B55101FB1272C3EBE050B2F5896F37
:108410004FEA80073FDA40F2DA239A4243DCB2F5B2
:10842000B77FB4BF4FF0000E4FF0010E4FEA4E0879
:10843000254B08EB0E0103EBC1031FFA8EFC588D90
:10844000224908EB0E0301EBC30116310B2301E0B7
:1084500031F8020D90421BDD013BF9D11A4BC644A5
:1084600003EBCE0E0123BEF81400B37007F2B2770F
:108470000132121ABC44F270A6F800C02046294608
:108480004FF47A72002334F045FD3281BDE8F08765
:108490000133DBB2E9E74FF0030CE64640F29650B9
:1084A0004FF00608CCE74FF0020CE64640F22940B8
:1084B0004FF00408C4E700BFC5B3A29107452EC220
:1084C000ABAAAA2A73B06D16BCE00308D0E003087B
:1084D00089888888792D0311036810B40A0E5C1C02
:1084E00004601A7003680A0C5C1C04601A7003684C
:1084F0000A0A5C1C04601A7003685A1C0260197036
:108500005DF8044B704700BF03685A1C0260197085
:10851000704700BF2DE9F047089C2578002B804666
:1085200089460CBF4FF0200A4FF0300A661C25B375
:10853000002A26DD334601E0024698B113F8011BFC
:10854000501E0029F8D1971E60B13D46013D5146AD
:108550004046C8476B1C002BF8DC257827EAE770FB
:10856000013045B1041B29464046C847301916F86A
:10857000015B002DF7D1BDE8F087002A03DC284617
:10858000F9E70020EEE7571EDFE700BFD0E901233F
:1085900000EB830101339342D0ED037A81ED040AAD
:1085A000836004BF0023836000EB830393ED047AB0
:1085B000036870EE277A9A42C0ED037A77EEC77AA5
:1085C000C0ED037A0CDA013307EE103AF8EEC76A11
:1085D000B7EE007A87EEA60A036030EE070A70470E
:1085E00007EE102AB8EEC77A87EE870A704700BFF9
:1085F000D0ED007A90ED017A30EE670AE7EE007A6E
:10860000B0EE670AC0ED007A704700BF704700BF48
:108610000A44914215D030B40139551E41F221026D
:1086200011F8014F082380EA042004044CBF82EAB9
:1086300040004000013B80B2F7D18D42F0D130BC08
:10864000704770473E22032302704370704700BF9B
:108650002DE9F0478C4A8D4B12781C78D2070646DC
:1086600048D58B4D012C00F091801ED3022C40F098
:108670009B808849884A09881288884F914201D98D
:1086800001241C70EB7AFBB12B89EBB1844B1B7876
:10869000D3B122F09DF8002800F0E2802B7B8342CA
:1086A0002CBF012300233B700FE0DFF8E8C17B4FB4
:1086B0007C4CBCF800002288697B521A8242DFDAC7
:1086C000EB7A0024002BDFD13B782A79632A07D884
:1086D0007549022C087800F0B880002840F0A0808E
:1086E0007249AA7A9C4238BF1C460C70002A44D1B9
:1086F000BDE8F087DFF89CC1654DBCF80000BCF810
:10870000021095F803E06A4F411A0029A4F1030210
:10871000B8BF4942704597F80080D2B211D32F7884
:1087200087420ED3012A45D9B8F1020F9AD15C488D
:10873000604A007890800229CCBF00210121D180BD
:1087400090E7B0EB4E0FEDDC012A40F28C8002295D
:10875000EADC0324514F524852494F4A1C70B8F189
:10876000020F4FF000033C7003700B80138089D11F
:10877000504A01219380D18084E7012C6BD0022CD8
:10878000B6D10720BDE8F04723F09EB8424A4149E0
:108790001288687B0988121A914207DD414A1288C3
:1087A0008A423CBF00241C703C4F6BE702241C70C3
:1087B0003A4F67E70229B7DC95F800E090FBFEFE30
:1087C0000EF1010EBEF1080FDFF8D4A0AA78697887
:1087D000DFF8C490334C314FA8BF4FF0080E8AF831
:1087E00000E01FFA8EFA11FB0AF112FB0AF2DFF821
:1087F000B8A0A9F8001092B200214FF06409B8F1B6
:10880000020F228039701970CAF804108AF801909A
:108810007FF452AF274A0121A2F804E0D18048E753
:108820004868301A244EB042C8BF4A703FF758AF6C
:10883000C2F16402214E00FB02F086FB0062C01709
:10884000A0EBA250643048704AE70028E8D1012725
:108850004E600F70ECE70820BDE8F04723F034B815
:1088600002233B7031E7032C7FF471AFB8F1020FA4
:108870009AD10B4A0F4B12789A800229CCBF002163
:108880000121D980054FFDE638380020385A0020F4
:10889000A4360020B03800203C5A0020985A00200E
:1088A000B63800203A5A0020405A0020A236002054
:1088B0005D8B0020608B00207F9698006BCA5F6BF9
:1088C00030B50446806D61718389A26823F400533A
:1088D0001B041B0C838185B0A379009213F0040F55
:1088E0004FEA03324FEA03230CBF00254FF48055B3
:1088F00003F4806302F40052ADF80450ADF8083080
:10890000002511F00103ADF80620ADF80C501CD184
:10891000ADF80A3008238A07694648BFADF80A3027
:1089200014F0F6FFA37913F0080FA36D9A8A05BF20
:1089300022F00802120442F00802120C9A829A896C
:1089400042F400529A8105B030BD0423ADF80A30DC
:108950000C23E0E730B50446806DA160838923F4E1
:1089600000531B041B0C8381A37985B013F0040F03
:10897000009108BF0025617918BF4FF48055ADF80C
:1089800004501A0300251B0203F48063ADF80A505B
:10899000ADF80C50CD07ADF8083002F4005244BFDA
:1089A0000423ADF80A30ADF806204CBF0C23082391
:1089B0008A07694648BFADF80A3014F0A9FFA379C9
:1089C00013F0080FA36D9A8A05BF22F00802120463
:1089D00042F00802120C9A829A8942F400529A815B
:1089E00005B030BDF8B50468C4F30D0405460E4665
:1089F00004B32F6815F032F8092840F08980464CFE
:108A0000236923F440732361236943F400732361D2
:108A1000236943F0010323613E6015F01FF82369C9
:108A2000092823F00103236172D12B6804332B60E2
:108A3000002036E0394B3A4A93422CD902F5804265
:108A4000934227D902F5804293422BD902F5804206
:108A5000934229D902F58032934227D902F5003298
:108A6000934225D902F50032934223D902F5003210
:108A7000934221D902F5003293421FD902F5802298
:108A800093421DD9B3F1016F1CD3052031F00EF9CB
:108A900029F096FA082414F0E1FF092814D04FF0C9
:108AA000FF30F8BD1024F6E71824F4E72024F2E79D
:108AB0002824F0E73024EEE73824ECE74024EAE706
:108AC0004824E8E75824E6E7134F3B6923F4407352
:108AD0003B613B6943F400733B613B6923F0F8035E
:108AE0003B613B6943F002031C433C613B6943F437
:108AF00080333B6114F0B2FF3B6923F002033B611A
:108B00003B69092823F0F8033B613FF472AFC6E7E5
:108B10006FF00100C5E700BF003C024000400008C4
:108B2000FF3F0008F8B504460D468E180027B542F1
:108B3000206900D1F8BDE368591CE160234415F8B1
:108B4000012B1A720429F2D118B9A1682046FFF747
:108B500049FFC4E90370EAE710B5094C238823EA0A
:108B600000009842208009D0064B41F20241FF22CA
:108B700019809A700E2022F0A7FE2388184610BD97
:108B8000C4380020B859002010B5094C2388184378
:108B90009842208009D0074B41F20241FF22198000
:108BA0009A700E2022F090FE2388184610BD00BF58
:108BB000C4380020B8590020024A136818431060D6
:108BC000704700BF84380020F8B5604B604D6148A5
:108BD000614C0126602200211E7034F023FE5F4AA2
:108BE0005F49002328460B60136022F0CFF931461D
:108BF000052022F019FA66795A4A5B4B128E93FBD4
:108C0000F2F3311C18BF01210720C5F8143122F0FE
:108C10000BFAA779391C4FF0080018BF012122F088
:108C200003FAA37A002B69D0504C002E70D1391C66
:108C300018BF01214E4E092022F0F6F93368D907FA
:108C400077D49A0766D40121042022F0EDF9494B2C
:108C50000620197822F0E8F901210A2022F0E4F92F
:108C600021680B20C1F3C01122F0DEF921680C202D
:108C7000C1F3404122F0D8F923685B050CD50121EE
:108C80000D2022F0D1F93C4B1B7A083B012B9CBFF5
:108C90004FF4FA63C5F8B43261880E2001F0010187
:108CA00022F0C2F921680F20C1F3804122F0BCF903
:108CB00021681020C1F3C06122F0B6F9012115200E
:108CC00022F0B2F90121162022F0AEF90121112083
:108CD00022F0AAF90121122022F0A6F90121132085
:108CE00022F0A2F94FF4804022F0F2FC011C18BFE0
:108CF00001211420BDE8F84022F096B9E37A1B4C1C
:108D0000002B92D1216811F4802193D0002E8ED0B7
:108D100001218FE70121022022F086F9174B9B6A7F
:108D20000A2BB8BF0A2301210320AB6722F07CF98C
:108D300089E7134B1B6801210A2BB8BF0A23084699
:108D40006B6422F071F933687BE700BF5C5B002045
:108D500088010020FC5A0020A4360020605B00201F
:108D6000F85A0020ECA4002040420F00C8B20020B6
:108D700054380020E4570020C0A400202C96002086
:108D8000CC7C002002280749074B084A28BF022054
:108D9000087000EB8001013003EB0113C0B21360D7
:108DA00022F0AEBE64A50020CA7A00204C3C002010
:108DB00070B54F4C4F4BA1789878CA1F012A55D9EE
:108DC000421E002800F08980052AA8BF052292B221
:108DD0009889DD895A83854224BF00229A81588A66
:108DE0001A8A904224BF00221A82D878424A92F806
:108DF000542080B107280ED0404E012500200A2AB9
:108E000035709D70D8716AD00C2A01D00A2A6CD0B6
:108E1000DFED3B7A0AE00A2AD87963D0DFED397AB0
:108E20009FED397A0C2A18BFF0EE477A9FED377A1A
:108E3000002818BFF0EE477A062997BF344ADFEDC5
:108E4000336A02EB8102D2ED1D6A2279FAB101394F
:108E500003290AD8B7EE000A80EE260A34F0BCFED9
:108E60002388984228BF1846208070BD234A127874
:108E7000012AA5D10128A3D1264A927F2AB1264AE8
:108E80005079022801D00220507100229CE79B7883
:108E90001A4907EE103A0A78B8EEC77A67EE277AD1
:108EA00007EE102AB8EEC77A27EE277AF4EEC76AE3
:108EB000F1EE10FAD9DD86EEA77AFDEEC77A17EE4D
:108EC000903A102BA8BF1023012BB8BF0123DBB2AF
:108ED0009A4238BF1A460A7070BD002278E7DFED6B
:108EE0000F7AA9E7DFED0E7AA0E7DFED0C7A9DE7B8
:108EF00044A70020C895002068960020DE5300207B
:108F00006F12833A0AD7A3396F1203396F120338ED
:108F1000BCE00308C0A4002064A500200F506E3AF6
:108F20005304E938F0B50C2934D8DFE801F08A336E
:108F300033335F333333343333330700048C968950
:108F4000B2F802C01788744D24F480542404240C11
:108F50000484038C8488818B23F4005321F4E6413C
:108F60001B0409041B0C46EA0C06090C43EA0633F1
:108F700041EA0721A8429BB2A4B289B200F09E80C8
:108F800005F58065A84200F099809268848081830D
:108F900002640384F0BD048C9589B2F802E017885E
:108FA0005D4E24F480742404240C0484038CB0F8F3
:108FB00004C0818B23F400731B0421F0730145EA84
:108FC0000E041B0C090443EA0423090CB0429BB2B3
:108FD0001FFA8CF541EA07015BD0504CA04258D0F3
:108FE000926885808183C2630384F0BD048C958977
:108FF000B2F802E0B2F800C0474E24F01004240496
:10900000240C0484038C8788018B23F0200321F433
:10901000E6411B0409041B0C45EA0E04090C43EA53
:10902000041341EA0C21B0429BB2BFB289B25BD0BB
:109030003A4CA04258D092688780018382630384AF
:10904000F0BD048C9589B2F802C01788324E24F026
:1090500001042404240C0484018C8488038B21F0F3
:10906000020123F0730309041B04090C45EA0C05F3
:109070001B0CB04241EA0501A4B243EA070324D025
:10908000264DA84221D092688480038342630184E4
:10909000F0BDD489168A578A23F4006343EA042377
:1090A0004FF6FF341C40938825F440553E4344EA74
:1090B000032345EA06149BB2A5B291E7158A24F46E
:1090C000804444EA8514A4B25FE7D689158A578A9A
:1090D00021F008013143968824F4407421F0040102
:1090E0003D4331432C43CEE7D489168AB2F812C0EF
:1090F00023F0800343EA04134FF6BF741C409388A7
:1091000027F4406546EA0C0644EA031345EA860460
:109110009BB2A7B28FE700BF0000014000040140EE
:109120002DE9F84FA022904C9048914DDFF860A2B5
:10913000904FDFF86082DFF86092002134F072FB1C
:109140008D48DFF858C2DFF858E204F1FC06A34668
:10915000DBF80030AB4200F0E280B3F1804F00F06A
:10916000E080BB4200F0DF80634500F0EA80734599
:1091700000F0E980434500F0E8804B4500F0E780CF
:109180007E4A934200F0E58002F57052934200F06F
:10919000E28002F58062934200F0DF8002F5806297
:1091A000934200F0DC80A2F59832934200F0D9801F
:1091B00002F58062934200F0958002F5806293424E
:1091C00008BF0D2300F08F800BF1240B5E45BFD14B
:1091D0006B4E6C4D4FF003094FF00208A379002B42
:1091E0007AD023791F09013F032F03F00F0373D8AF
:1091F00036F8170040FA03F2D2076DD54FF0010A96
:109200000AFA03F3013B184033F0D4FE5E4BDB5DFA
:10921000184415EBC0075FD055F830305B48217A11
:1092200003F13F4202F57E02920A825C02F01F00C7
:109230005209032A0AFA00FA7DD0042A75D0022ABC
:1092400004D14D48426C4AEA02024264B7F804C0B5
:10925000BCFA8CF2C2F11F0292B2D00803EB80007C
:1092600002F00702076A92004FF00F0E0EFA02FE9C
:1092700027EA0E070762076A01FA02F23A4302621E
:109280004FF0010E00220EFA02F737EA0C0120D14E
:109290005000D3F800A009FA00F1C9430AEA010A14
:1092A000C3F800A0D3F800A008FA00F040EA0A00D2
:1092B000186098680840986098689860586820EA34
:1092C00007075F6058685860D8680140D960D9685E
:1092D000D9600132102AD6D12434A3457FF47EAF61
:1092E000BDE8F88F0C230AEBC30301211B7903F0BF
:1092F0001F025B09032B01FA02F208D0042B0AD0EB
:10930000022B7FF461AF416C0A4342645CE7016C5D
:109310000A43026458E7016B0A43026354E70023DF
:10932000E1E70123DFE70223DDE71348026B4AEAA6
:10933000020202638AE71048026C4AEA02020264EF
:1093400084E70323CFE70423CDE70523CBE70623F8
:10935000C9E70723C7E70823C5E70923C3E70A23AB
:10936000C1E70B23BFE700BF54120408202D0020E3
:1093700000000140000400400038024000040140A9
:1093800084130408C09300208C1304087C13040881
:10939000C013040800100040001400400008004002
:1093A000000C004000B9704703682DE9F04F03F14D
:1093B0003F4404F57E04534EA40A0125345D04F0B5
:1093C0001F066409032C05FA06F500F09580042CAD
:1093D00000F08D80022C45D08588B5FA85F0C0F16B
:1093E0001F0080B2C40803EB840400F00700266A63
:1093F00080000F27874026EA07062662276A01F0C9
:1094000003068240701E3A4301282262C1F3810E96
:10941000C1F300184FF000024FEA51114FF0010C58
:1094200025D94FF0030E0CFA02F0A84315D15000D5
:109430001F680EFA00F4E44327401F60D3F8008051
:1094400006FA00F747EA08071F60DF683C40DC6067
:10945000DC6801FA00F02043D8600132102AE2D122
:10946000BDE8F08F284C666C35436564B4E74FF077
:1094700003090CFA02F737EA050033D15000D3F89C
:1094800000A009FA00F4E4430AEA040AC3F800A0C1
:10949000D3F800B006FA00FA4AEA0B0AC3F800A0B3
:1094A000D3F808A004EA0A0AC3F808A0D3F808B061
:1094B0000EFA00FA4AEA0B0AC3F808A0D3F804A08F
:1094C0002AEA07075F60D3F804A008FA02F747EA20
:1094D0000A075F60DF683C40DC60DC6801FA00F08E
:1094E0002043D8600132102AC3D1BDE8F08F064C6A
:1094F000266B354325636FE7034C266C35432564A3
:109500006AE700BF7C1304080038024003682DE9B5
:10951000F04F03F13F4404F57E04534EA40A0125A5
:10952000345D04F01F066409032C05FA06F500F00B
:109530009580042C00F08D80022C46D08588B5FAE9
:1095400085F0C0F11F0080B2C40803EB840400F072
:109550000700266A80000F27874026EA0706266252
:10956000276A01F0030602FA00F0721E3843012A4E
:10957000C1F3810EC1F3001820624FEA51114FF080
:1095800000024FF0010C25D94FF0030E0CFA02F047
:10959000A84315D150001F680EFA00F4E443274099
:1095A0001F60D3F8008006FA00F747EA08071F603B
:1095B000DF683C40DC60DC6801FA00F02043D860E2
:1095C0000132102AE2D1BDE8F08F284C666C354399
:1095D0006564B3E74FF003090CFA02F737EA0500B8
:1095E00033D15000D3F800A009FA00F4E4430AEAAA
:1095F000040AC3F800A0D3F800B006FA00FA4AEA59
:109600000B0AC3F800A0D3F808A004EA0A0AC3F8BA
:1096100008A0D3F808B00EFA00FA4AEA0B0AC3F819
:1096200008A0D3F804A02AEA07075F60D3F804A0D3
:1096300008FA02F747EA0A075F60DF683C40DC602F
:10964000DC6801FA00F02043D8600132102AC3D14F
:10965000B9E7064C266B354325636FE7034C266C50
:10966000354325646AE700BF7C13040800380240D4
:1096700010B50409013C032C17D80E4B33F8142005
:1096800000F00F0042FA00F313F001030FD00123A2
:1096900003FA00F00138104033F08CFC064A074B07
:1096A000125D104403EBC00010BD002010BD184631
:1096B00010BD00BF841304088C130408C09300205D
:1096C0002DE9F8432F4D2B8AB5F80C8018EA0308D2
:1096D00027D02D4E4FF00047B8FA88F327FA03F24F
:1096E000D24391B21B3B08EA02082982042B15D809
:1096F000DFE803F0352B22190300D6F89C30002B4D
:1097000037D1EB6A1FFA83F9D6F8984034B1236851
:109710002046494698476468002CF8D1B8F1000FFC
:10972000DAD1BDE8F883B06F696B036889B29847F6
:10973000B8F1000FD0D1F4E7F06FA96B036889B2DC
:109740009847B8F1000FC7D1EBE7D6F88000E96B76
:10975000036889B29847B8F1000FBDD1E1E7D6F8A8
:109760008400296C036889B29847B8F1000FB3D11F
:10977000D7E703F1FF3900231FFA89F9C6F89C30B7
:10978000C2E700BF00180040202D00202DE9F8435B
:109790002C4D2B8AB5F80C8018EA030825D02A4EE8
:1097A0004FF00047B8FA88F327FA03F2D24391B298
:1097B0001B3B08EA02082982042B13D8DFE803F0D8
:1097C000322920170300736F002B34D1EB6A1FFA84
:1097D00083F9346F34B1236820464946984764685A
:1097E000002CF8D1B8F1000FDCD1BDE8F883306D62
:1097F000696B036889B29847B8F1000FD2D1F4E7DA
:10980000706DA96B036889B29847B8F1000FC9D190
:10981000EBE7B06DE96B036889B29847B8F1000FC8
:10982000C0D1E2E7F06D296C036889B29847B8F1BE
:10983000000FB7D1D9E703F1FF3900231FFA89F9E7
:109840007367C6E700040140202D00202DE9F8438E
:109850002C4D2B8AB5F80C8018EA030825D02A4E27
:109860004FF00047B8FA88F327FA03F2D24391B2D7
:109870001B3B08EA02082982042B13D8DFE803F017
:10988000322920170300736F002B34D1EB6A1FFAC3
:1098900083F9346F34B12368204649469847646899
:1098A000002CF8D1B8F1000FDCD1BDE8F883306DA1
:1098B000696B036889B29847B8F1000FD2D1F4E719
:1098C000706DA96B036889B29847B8F1000FC9D1D0
:1098D000EBE7B06DE96B036889B29847B8F1000F08
:1098E000C0D1E2E7F06D296C036889B29847B8F1FE
:1098F000000FB7D1D9E703F1FF3900231FFA89F927
:109900007367C6E700040140202D00202DE9F843CD
:109910002C4D2B8AB5F80C8018EA030825D02A4E66
:109920004FF00047B8FA88F327FA03F2D24391B216
:109930001B3B08EA02082982042B13D8DFE803F056
:10994000322920170300F36C002B34D1EB6A1FFA85
:1099500083F9B46C34B1236820464946984764685B
:10996000002CF8D1B8F1000FDCD1BDE8F883B06A63
:10997000696B036889B29847B8F1000FD2D1F4E758
:10998000F06AA96B036889B29847B8F1000FC9D192
:10999000EBE7306BE96B036889B29847B8F1000FC9
:1099A000C0D1E2E7706B296C036889B29847B8F1BF
:1099B000000FB7D1D9E703F1FF3900231FFA89F966
:1099C000F364C6E700080040202D00202DE9F8438D
:1099D0002C4D2B8AB5F80C8018EA030825D02A4EA6
:1099E0004FF00047B8FA88F327FA03F2D24391B256
:1099F0001B3B08EA02082982042B13D8DFE803F096
:109A0000322920170300736A002B34D1EB6A1FFA46
:109A100083F9346A34B1236820464946984764681C
:109A2000002CF8D1B8F1000FDCD1BDE8F883306824
:109A3000696B036889B29847B8F1000FD2D1F4E797
:109A40007068A96B036889B29847B8F1000FC9D153
:109A5000EBE7B068E96B036889B29847B8F1000F8B
:109A6000C0D1E2E7F068296C036889B29847B8F181
:109A7000000FB7D1D9E703F1FF3900231FFA89F9A5
:109A80007362C6E700000140202D00202DE9F84355
:109A90002C4D2B8AB5F80C8018EA030825D02A4EE5
:109AA0004FF00047B8FA88F327FA03F2D24391B295
:109AB0001B3B08EA02082982042B13D8DFE803F0D5
:109AC000322920170300736A002B34D1EB6A1FFA86
:109AD00083F9346A34B1236820464946984764685C
:109AE000002CF8D1B8F1000FDCD1BDE8F883306864
:109AF000696B036889B29847B8F1000FD2D1F4E7D7
:109B00007068A96B036889B29847B8F1000FC9D192
:109B1000EBE7B068E96B036889B29847B8F1000FCA
:109B2000C0D1E2E7F068296C036889B29847B8F1C0
:109B3000000FB7D1D9E703F1FF3900231FFA89F9E4
:109B40007362C6E700000140202D0020F0B50668D2
:109B50003F4CB30AA3426CD065D93E4CA3425AD0C5
:109B60000134A34256D1702702254379B6F80CE0A0
:109B7000022023FA00F4A0401FFA80FCA80023462C
:109B8000441903EB4403344C002955D04CEA0E0C25
:109B900003F1040E44F8231044F82E20A6F80CC05C
:109BA000E319EFF31181502282F31288421904EB7A
:109BB000C202D2F810C0BCF1000F03D044F807C0B5
:109BC00013690433421904EBC202576917B11F60CD
:109BD00053690433421904EBC202976917B11F603D
:109BE00093690433421904EBC202D76917B11F60AD
:109BF000D36904330027CAB21F6082F31188284456
:109C000004EBC004236A4BB9B38923F001031B049E
:109C10001B0CB381F0BD20270025A6E7B38943F0D4
:109C20000103B381F0BD043CA342F3D148270125D1
:109C30009BE79827032598E72EEA0C0C03F1040E06
:109C4000A6F80CC044F8231044F82E20A8E700BF63
:109C50000600100040001000202D002010B5036801
:109C60007C487D4C0139834282B0246889B200F07F
:109C7000AF80A0F58060834200F0AA8000F58040AC
:109C8000834200F0818000F5806083427CD000F543
:109C90008060834278D018886408B4FBF2F4013CF9
:109CA000A4B282B2B3F1804F0AD06C48834207D08D
:109CB00000F58060834203D000F58060834202D1CA
:109CC00022F0700292B26648834200F08F8000F565
:109CD0008060834200F0938022F4407200F56C4073
:109CE00092B283421A80D9621C8540F09180012192
:109CF00000221A86998219885A4841F0010183424C
:109D0000198049D0B3F1804F00F08D80534A9342BF
:109D100000F08B8002F58062934200F0888002F5AB
:109D20008062934200F0858002F58062934200F0E9
:109D3000828002F5806293427FD002F570429342A6
:109D40007DD002F5705293427BD002F5806293423F
:109D500079D002F58062934277D0A2F5983293428F
:109D600075D002F58062934215D002F5806293426D
:109D700008BF0D2210D002A84FF0012340F8043D87
:109D800013F052FF02B010BD1888B4FBF2F4013C8E
:109D9000A4B282B286E70C22334B03EBC20201A8C5
:109DA00054798DF80440012300228DF805308DF898
:109DB00007308DF8062013F037FF1B2C0FD02E2C08
:109DC000E0D12A4B019301A813F02EFF02B010BD81
:109DD0001888B4FBF2F4013CA4B282B270E7244BC1
:109DE000019301A813F020FF02B010BD01201A80DA
:109DF000D9621C8598821A8802431A8086E701205E
:109E00001A80D9621C8598821A8802431A8079E7E1
:109E1000104A93423FF46BAF01229A821A8842F0B3
:109E200001021A806EE70122B6E70222B4E703229C
:109E3000B2E70422B0E70522AEE70622ACE707222C
:109E4000AAE70822A8E70922A6E70A22A4E70B222C
:109E5000A2E700BF0004014068B2002000040040F7
:109E60000010004000000140C01304082C01000154
:109E7000190100012B4B98423CD0B0F1804F3BD0F0
:109E8000A3F57C43984239D003F58063984237D0DC
:109E900003F58063984235D003F58063984233D050
:109EA00003F58063984233D003F57043984231D074
:109EB00003F57053984229D003F5806398422BD064
:109EC00003F58063984229D0A3F59833984227D0B0
:109ED00003F58063984207D003F58063984208BF7A
:109EE0000D2202D0002070470C220F4B03EBC2035F
:109EF000187970470022F8E70122F6E70222F4E71A
:109F00000322F2E70422F0E70522EEE70822ECE75D
:109F10000622EAE70722E8E70922E6E70A22E4E761
:109F20000B22E2E700000140C01304082DE9F04FC6
:109F300083B08E4DDFF8408201908B460BF1FF33EA
:109F40009B46013300F00E812FF02CFD884C894F89
:109F5000DFF828C24FF4FA7A4FF0100E4FF47A76F9
:109F6000DCF80430C3F30803002B40F0DF80EFF38C
:109F70001183002B40F0DA802168AA6800BF2368B3
:109F80009942F9D1386806FB00F39A1AB2FBF0F255
:109F900006FB0121DCF80430C3F30803002B40F07A
:109FA000A680EFF31183002B40F0A1802368A868FE
:109FB00000BF22689342F9D1D7F8009006FB09F25E
:109FC000101AB0FBF9F006FB03035B1AB3F57A7FB6
:109FD000E0D3BAF1010AC3D1019B581CC0B22FF0E3
:109FE00043FBDFF898C1DCF804304FF47A7AC3F30E
:109FF000080356464FF0100E002B38D1EFF31183B3
:10A00000002B34D12168AA6800BF23689942F9D196
:10A01000386806FB00F39A1AB2FBF0F206FB012146
:10A02000DCF80430C3F30803002B41D1EFF31183B4
:10A03000002B3DD12368A86800BF22689342F9D164
:10A04000D7F8009006FB09F2101AB0FBF9F006FBF6
:10A0500003035B1AB3F57A7FE2D3BAF1010A3FF446
:10A060006DAFDCF80430C3F30803002BC6D0EFF368
:10A0700011828EF31288A8682B68D90303D50123B7
:10A08000C8F80030A8682368D8F80010D2B282F36C
:10A0900011883A68194406FB02F31B1AB3FBF2F36A
:10A0A00006FB0131DCF80430C3F30803002BBDD0FC
:10A0B000EFF311808EF31288D5F808902B68DB033C
:10A0C00004D50123C8F80030D5F808902368D8F8E3
:10A0D0000020C0B280F311883868134406FB00F2F8
:10A0E000A2EB0902B2FBF0F206FB0323B1E7EFF3A8
:10A0F00011808EF31288D5F808902B68DB0304D505
:10A100000123C8F80030D5F808902368D8F800205B
:10A11000C0B280F311883868134406FB00F2A2EB4A
:10A120000902B2FBF0F206FB03234EE7EFF31182C4
:10A130008EF31288A8682B68D90303D50123C8F8C9
:10A140000030A8682368D8F80010D2B282F31188D2
:10A150003A68194406FB02F31B1AB3FBF2F306FB41
:10A16000013117E703B0BDE8F08F00BF10E000E059
:10A17000749300204C9500204895002000ED00E0ED
:10A18000204B5B68C3F3080330B4BBB9EFF3118312
:10A19000A3B91D4A1D481368846800BF11688B422B
:10A1A000F9D11B4A11684FF47A7202FB01F0001BCF
:10A1B00030BCB0FBF1F002FB03007047EFF31182FB
:10A1C000102383F312881149124D8C680B68DB034E
:10A1D00044BF01232B600C4B48BF8C681B68286868
:10A1E000D2B282F311880A4A11684FF47A72184485
:10A1F00002FB01F31B1B30BCB3FBF1F302FB00308D
:10A20000704700BF00ED00E07493002010E000E014
:10A210004C950020489500202DE9F84F0746264E22
:10A22000264DFFF7ADFF264A2649DFF89CC04FF0C8
:10A23000100E4FF47A744FF001086B68C3F30803F3
:10A24000CBB9EFF31183B3B91368D1F808A000BFFD
:10A25000D2F800904B45F7D1D6F8009004FB09FBEB
:10A26000ABEB0A0ABAFBF9FA04FB03A31B1ABB42C5
:10A27000E3D3BDE8F88FEFF3118A8EF31288D1F89B
:10A2800008B00B68DB0344BFCCF80080D1F808B0FD
:10A290001368DCF800905FFA8AFA8AF31188D6F81E
:10A2A00000A04B4404FB0AF9A9EB0B09B9FBFAF92E
:10A2B00004FB0393DAE700BF4C95002000ED00E0BB
:10A2C0007493002010E000E0489500202DE9F84F3D
:10A2D0002A4C2B4E2B4D2C4F804618F1FF384AD379
:10A2E000FFF74EFF29494B68C3F308034FF0100CEA
:10A2F0004FF47A724FF0010EEBB9EFF31183D3B93B
:10A300002368D5F808A000BFD4F800904B45F7D1DA
:10A31000D6F8009002FB09FBABEB0A0ABAFBF9FA8C
:10A3200002FB03A31B1AB3F57A7FD6D24B68C3F3A3
:10A330000803002BE1D0EFF3118A8CF31288D5F8D3
:10A3400008B02B68DB0344BFC7F800E0D5F808B0BD
:10A350002368D7F800905FFA8AFA8AF31188D6F852
:10A3600000A04B4402FB0AF9A9EB0B09B9FBFAF96F
:10A3700002FB0393D6E7BDE8F88F00BF749300207B
:10A380004C95002010E000E04895002000ED00E032
:10A3900030B4EFF31183102282F312880649074C80
:10A3A0000A680748013200250A602560DBB20268AE
:10A3B00083F3118830BC70477493002048950020C7
:10A3C00010E000E038B5254B1C69626BA36D62B1EB
:10A3D000A26BC2B1998A1A88C90592B204D5D20774
:10A3E00044BF4FF6F7721A8038BD99891A888906DA
:10A3F00092B2EDD59206EBD5E26AFAB19888216B5C
:10A400009047A36DE4E799891A880D0692B2E1D5C9
:10A410001006DFD5D4E909128A420AD0A16925695C
:10A42000885C98800132B2FBF5F105FB1122A26233
:10A43000D0E7DA6822F08002DA60CBE79B88E26935
:10A440006169DBB28B54E269E068A36D0132B2FB53
:10A45000F0F100FB1122E261BAE700BFDC5B0020F3
:10A4600038B5254BDC68626BA36D62B1A26BC2B1DB
:10A47000998A1A88C90592B204D5D20744BF4FF60B
:10A48000F7721A8038BD99891A88890692B2EDD57B
:10A490009206EBD5E26AFAB19888216B9047A36DDA
:10A4A000E4E799891A880D0692B2E1D51006DFD546
:10A4B000D4E909128A420AD0A1692569885C98808A
:10A4C0000132B2FBF5F105FB1122A262D0E7DA6896
:10A4D00022F08002DA60CBE79B88E2696169DBB237
:10A4E0008B54E269E068A36D0132B2FBF0F100FB2E
:10A4F0001122E261BAE700BFDC5B002038B5254BD2
:10A500009C68626BA36D62B1A26BC2B1998A1A8812
:10A51000C90592B204D5D20744BF4FF6F7721A802C
:10A5200038BD99891A88890692B2EDD59206EBD585
:10A53000E26AFAB19888216B9047A36DE4E79989A4
:10A540001A880D0692B2E1D51006DFD5D4E90912BA
:10A550008A420AD0A1692569885C98800132B2FBE1
:10A56000F5F105FB1122A262D0E7DA6822F0800241
:10A57000DA60CBE79B88E2696169DBB28B54E26900
:10A58000E068A36D0132B2FBF0F100FB1122E26141
:10A59000BAE700BFDC5B002038B5254B5C68626B16
:10A5A000A36D62B1A26BC2B1998A1A88C90592B231
:10A5B00004D5D20744BF4FF6F7721A8038BD998987
:10A5C0001A88890692B2EDD59206EBD5E26AFAB105
:10A5D0009888216B9047A36DE4E799891A880D0646
:10A5E00092B2E1D51006DFD5D4E909128A420AD029
:10A5F000A1692569885C98800132B2FBF5F105FB01
:10A600001122A262D0E7DA6822F08002DA60CBE79A
:10A610009B88E2696169DBB28B54E269E068A36DF3
:10A620000132B2FBF0F100FB1122E261BAE700BF98
:10A63000DC5B002038B5254B1C68626BA36D62B1F2
:10A64000A26BC2B1998A1A88C90592B204D5D20701
:10A6500044BF4FF6F7721A8038BD99891A88890667
:10A6600092B2EDD59206EBD5E26AFAB19888216BE9
:10A670009047A36DE4E799891A880D0692B2E1D557
:10A680001006DFD5D4E909128A420AD0A1692569EA
:10A69000885C98800132B2FBF5F105FB1122A262C1
:10A6A000D0E7DA6822F08002DA60CBE79B88E269C3
:10A6B0006169DBB28B54E269E068A36D0132B2FBE1
:10A6C000F0F100FB1122E261BAE700BFDC5B002081
:10A6D000002A12DD70B504460D468E182368204608
:10A6E0009B6898470028F9D0236815F8011B1B6860
:10A6F00020469847B542F1D170BD704703685B6A48
:10A7000003B11847704700BF03681B6A03B11847BD
:10A71000704700BF03682DE9F041DD691DB12B468C
:10A72000BDE8F0411847002A174611DD04460E46E1
:10A730000F4400E023689B68204698470028F9D022
:10A74000236816F8011B1B6820469847BE42F1D1CA
:10A75000BDE8F08103689B69184700BF03685B6927
:10A76000184700BF03681B69184700BF0368DB6810
:10A77000184700BF03689B68184700BF03685B6801
:10A78000184700BF03681B68184700BF014B1868D3
:10A79000F8E700BFD028002038B50C46097849B149
:10A7A000054601342B6828461B68984714F8011B9E
:10A7B0000029F7D138BD00BF064B53F820302BB12C
:10A7C0001A689B8851690B4201D1138370475383E8
:10A7D000704700BF24A500202DE9F04F4A484B499F
:10A7E0004B4B4C4C4FF0010A4FF002094FF004085C
:10A7F0004FF0080E4FF0100C20274026802530F82F
:10A80000022B12F0010F03D01960A3F804A0083343
:10A8100012F0020F03D01960A3F80490083312F06D
:10A82000040F03D01960A3F80480083312F0080F56
:10A8300003D01960A3F804E0083312F0100F03D01E
:10A840001960A3F804C0083312F0200F02D0196079
:10A850009F80083312F0400F02D019609E800833A9
:10A8600012F0800F02D019609D80083312F4807FAF
:10A8700005D04FF4807B1960A3F804B0083312F4BC
:10A88000007F05D04FF4007B1960A3F804B00833B3
:10A8900012F4806F05D04FF4806B1960A3F804B0F8
:10A8A000083312F4006F05D04FF4006B1960A3F861
:10A8B00004B0083312F4805F05D04FF4805B196058
:10A8C000A3F804B0083312F4005F05D04FF4005B26
:10A8D0001960A3F804B0083312F4804F05D04FF488
:10A8E000804B1960A3F804B00833D20B04D04FF4A6
:10A8F000004219609A80083301F58061A1427FF41B
:10A900007EAFBDE8F08F00BF841304080000024052
:10A91000C09300200010024000B97047036803F1A3
:10A920003F4202F57E022DE9F04F920A464DAA5CA5
:10A9300002F01F0552090124032A04FA05F47ED00F
:10A94000042A77D0022A30D001F00306721E012AB1
:10A95000C1F3810EC1F300188588C1F341114FF096
:10A9600000024FF0010C25D94FF0030E0CFA02F053
:10A97000A84315D150001F680EFA00F4E4432740A5
:10A980001F60D3F8008006FA00F747EA08071F6047
:10A99000DF683C40DC60DC6801FA00F02043D860EE
:10A9A0000132102AE2D1BDE8F08F284A556C2C43C1
:10A9B0005464C9E74FF003090CFA02F737EA0500BF
:10A9C00033D15000D3F800A009FA00F4E4430AEAB6
:10A9D000040AC3F800A0D3F800B006FA00FA4AEA65
:10A9E0000B0AC3F800A0D3F808A004EA0A0AC3F8C7
:10A9F00008A0D3F808B00EFA00FA4AEA0B0AC3F826
:10AA000008A0D3F804A02AEA07075F60D3F804A0DF
:10AA100008FA02F747EA0A075F60DF683C40DC603B
:10AA2000DC6801FA00F02043D8600132102AC3D15B
:10AA3000BDE8F08F054A156B2C43146384E7034A85
:10AA4000156C2C4314647FE77C1304080038024023
:10AA500010B1036882885A83704700BF10B1036841
