:020000040800F2
:10000000F0FF0010BDCF0308A5BB030839A7020805
:10001000EDD00308EDD00308EDD003080000000088
:1000200000000000000000000000000031C20308D2
:100030002DC203080000000029C203081DA0020809
:10004000EDD00308EDD00308EDD00308EDD0030890
:10005000EDD00308EDD0030811A802083DA902085D
:1000600001A90208C5A8020889A80208B923030843
:10007000A923030899230308892303087523030888
:10008000612303084D230308EDD00308EDD00308D6
:10009000EDD00308EDD00308EDD003084DA8020809
:1000A000EDD0030859960208EDD00308199702080D
:1000B000EDD00308EDD003089995020855290308EF
:1000C0005D2903084929030851290308EDD00308D5
:1000D000EDD00308C1A2020825A2020889A10208E6
:1000E000D5A70208EDD0030835C203084D930208D6
:1000F00019940208EDD00308D994020839230308A3
:10010000EDD00308EDD00308EDD00308EDD00308CF
:10011000EDA0020851A00208812601086526010809
:100120002523030811230308FD1B0308FD220308F0
:10013000E9220308EDD00308EDD00308EDD0030851
:10014000EDD00308EDD00308EDD00308A9BB0308E8
:10015000D5220308C1220308AD220308EDD003080D
:100160003D29030845290308EDD00308EDD0030815
:10017000EDD00308EDD00308EDD00308EDD003085F
:10018000EDD00308EDD0030864CB030001000000AC
:1001900016000800FC2B00201C2C00200000000092
:1001A0004006000807020200243800206C380020B6
:1001B000000000004806000802000C00D0370020B4
:1001C00070380020000000000000000006020C0053
:1001D000C43700207C38002000000000B9F100087E
:1001E000080209004E370020883800200000000077
:1001F000D5EF0008F70106004837002094380020AA
:10020000000000004A0600080A020A004C350020DF
:100210009C3800200000000050060008190005006E
:1002200018370020A8380020000000005A060008F7
:1002300027000400AC360020B03800200000000089
:100240006006000810100300E0350020B4380020DC
:1002500000000000640600080120080004350020AA
:10026000B838002000000000680600081A000A00E4
:10027000742C0020C0380020000000007006000828
:1002800022000C00F4640020C4650020000000007F
:100290007A0600081B00F40048500020D0650020BA
:1002A00000000000699801080E020200905700202B
:1002B000C466002000000000860600082F00110020
:1002C0008C650020C8660020000000008806000839
:1002D00005100600B8650020DC6600200000000064
:1002E0009A060008F5216E00C04F0020E466002049
:1002F000000000003D90010826000E006467002009
:100300005467002000000000159001080B20100029
:10031000305000207467002000000000A006000894
:100320001F101C00A04F0020846700200000000068
:10033000B006000805020100E8530020A067002075
:1003400000000000CC06000803010A002C52002027
:10035000A467002000000000CE060008F821060077
:100360006A6D00203C73002000000000D8060008E1
:1003700003123300A06E0020E27200200000000093
:10038000DE06000825005A00D36E00207872002097
:100390000000000000000000F6110C00EC710020CD
:1003A0000872002000000000140700082C00100054
:1003B000F8710020D27200200000000059190208D4
:1003C0002B002400916F0020157300200000000016
:1003D00029190208290064002D6F002014720020E2
:1003E000000000000000000023001000B86B002097
:1003F000887300200000000095F901082800100013
:10040000A873002098730020000000007DF9010807
:10041000140002001C710020B873002000000000CE
:100420002007000804004000F0790020B079002087
:1004300000000000000000000E20EA00DA7C00202E
:10044000B882002000000000EDE500081300040061
:10045000807E0020A4830020000000002407000804
:10046000010104005A7C0020A88300200000000045
:100470000000000000010400527C0020AC8300203A
:100480000000000028070008020103004D7C002046
:10049000B08300200000000011EF000809020100F5
:1004A000F0810020B4830020000000002C07000829
:1004B0000C106000FE7D0020B883002000000000CA
:1004C000E5EE000801020500627C0020188400208F
:1004D00000000000412B030800020500307A0020D4
:1004E0002084002000000000000000001E00040026
:1004F000C47F002028840020000000002E07000890
:1005000013020100488D002084C00020000000007C
:1005100000000000F9010400E4B4002088C00020BD
:100520000000000019810208FD011E00C0B4002077
:100530008CC0002000000000A980020806101200F4
:100540005CA90020ACC0002000000000B9E7000852
:10055000FB010100F8A80020C0C00020000000003E
:1005600059EF0008FC010900C4A70020C4C0002006
:100570000000000099EF00081102080098A7002071
:10058000D0C0002000000000320700081212040052
:1005900090A70020D8C00020000000003A07000803
:1005A00012200D007CA70020DCC00020000000000D
:1005B0003E07000818202C00D8A60020ECC0002020
:1005C00000000000392502080D00340004A70020B7
:1005D00018C100200000000051800008FA0102004C
:1005E000ACA000204CC1002000000000D58402080F
:1005F00002020300708D002050C1002000000000A6
:10060000000000000C020100608D002054C1002099
:10061000000000004C070008FE01090080A0002037
:1006200058C1002000000000FFEF00080A10300051
:10063000CC97002064C10020000000004E07000895
:10064000651B0D0019012828023C3F010000000035
:1006500000004A01B400D601260000002801000075
:100660002003000000050000E8036400040A000104
:100670007E05EA05B40532000000C800141E010022
:1006800064002C01280000000000000000000000B1
:100690000000000000000000000020000101000038
:1006A0002B21231E64010100000001000A01290022
:1006B0000000000000000100000005000000000034
:1006C0000000000000000000000000000000040125
:1006D00001006C16000000000200F4011900000087
:1006E000000000000000000000000000000000000A
:1006F00000000000000000000000000000000000FA
:1007000000000000000000000000000000000000E9
:1007100001000000000000000000000000000000D8
:1007200003000000080445109001000027000000AD
:1007300001000000000001010101FFFFFFFF0000B8
:100740000001000005484553500000000100003042
:100750000107015A00010000000000000000000035
:1007600000000100000030000100AC0D0A00AC0DDB
:100770000A00C4090A0096009600960000000101D4
:1007800002FFFF00000025B30108A9B2010899ABE0
:100790000108000000008197010819B40108899739
:1007A0000108859701080000000000000000DD87B7
:1007B0000108F97E0308B97E0308C5BA03080000E2
:1007C0000000317B03080D7E03088D7E0308757DD4
:1007D00003080000000000000000257B0308010062
:1007E00000000000803F000000000000000000004A
:1007F00000000000803F000000000000000000003A
:1008000000000000803F0000000000000000000029
:1008100000000000803F0000000000000000000019
:1008200000000000000000000000000000000000C8
:1008300000000000000000000000000000005C3824
:10084000002008000000000000004C3800200800D4
:1008500000000000803F0000803F44F703080508C7
:100860000400000000003C1C0408D8F80308281C01
:100870000408000000000000000070F703080508ED
:100880000A00000000003C1C0408D8F80308401BC4
:1008900004080000000000000000090264000301D9
:1008A00000C0320904000001030000000921110109
:1008B00000012226000705830308000A080B010235
:1008C00002020100090401000102020100052400E6
:1008D000100105240100020424020205240601027D
:1008E000070582030800FF09040200020A00000055
:1008F000070501024000000705810240000000FFDB
:10090000FF0000000000AA550501000001000000E2
:1009100001FFFF01000005010905A101A10005017A
:1009200009300931093209330935093409400938D8
:100930001581257F750895088102C0C00000090255
:100940002200010100E0320904000001030102005D
:100950000921110100012226000705830308000A6E
:100960000000000000000102030401020304060766
:1009700008092D202D2D202D2D2D2D202D2D2D2D17
:100980000000000000000000000000000000000067
:1009900000AA550B010000AA5507010000AA55093D
:1009A00002000000000001000000C012AA55030070
:1009B0009F00FF1FFF1FA42A040800000000000082
:1009C000000025EF0008A0860100040000000000E0
:1009D0000000000000000000000000000000000017
:1009E00000000000000000000000F05D0408AC2AD8
:1009F000040800000000D53B01087D00000006004F
:100A000000000000000000000000000000000000E6
:100A10000000000000000000000000000000B42AF8
:100A200004080000000000000000A5B00208E80370
:100A300000000300000000000000000000000000B3
:100A400000000000000000000000000000000000A6
:100A50000000B82A0408000000000000000061F552
:100A600000088813000005000000000000000000DE
:100A70000000000000000000000000000000000076
:100A8000000000000000C42A040800000000A116B5
:100A9000020821C70208204E0000050000000000E7
:100AA0000000000000000000000000000000000046
:100AB00000000000000000000000704F040800006B
:100AC00000000000000045B70208102700000100E8
:100AD0000000000000000000000000000000000016
:100AE0000000000000000000000000000000C82A14
:100AF000040800000000000000004D7F0208E80329
:100B000000000500000000000000000000000000E0
:100B100000000000000000000000000000000000D5
:100B20000000D42A04080000000000000000592B37
:100B30000108204E0000030000000000000000003B
:100B400000000000000000000000000000000000A5
:100B5000000000000000E42A04080000000000007B
:100B6000000045290108204E00000300000000009D
:100B70000000000000000000000000000000000075
:100B800000000000000000000000F42A040800003B
:100B9000000000000000E1840208400D0300030093
:100BA0000000000000000000000000000000000045
:100BB0000000000000000000000000000000002015
:100BC000040800000000000000006DB000081027BD
:100BD0000000010000000000000000000000000014
:100BE0000000000000000000000000000000000005
:100BF0000000042B04080000000000000000115E4B
:100C0000030810270000030000000000000000009F
:100C100000000000000000000000000000000000D4
:100C2000000000000000082B040800000000000085
:100C30000000D1710308A08601000100000000003F
:100C400000000000000000000000000000000000A4
:100C50000000000000000000000044200408000024
:100C600000000000000061820008A00F00000100E9
:100C70000000000000000000000000000000000074
:100C80000000000000000000000000000000142B25
:100C900004080000000000000000F5A5010810276E
:100CA0000000010000000000000000000000000043
:100CB0000000000000000000000000000000000034
:100CC0000000682A0408000000000000000049F24B
:100CD00001081A41000001000000000000000000AF
:100CE0000000000000000000000000000000000004
:100CF000000000000000202B04080000000000009D
:100D00000000ED8C01081027000001000000000029
:100D100000000000000000000000000000000000D3
:100D200000000000000000000000642A0408000029
:100D3000000000000000894D03081A410000010076
:100D400000000000000000000000000000000000A3
:100D500000000000000000000000000000002C2B3C
:100D6000040800000000000000002DC30108400D31
:100D70000300000000000000000000000000000070
:100D80000000000000000000000000000000000063
:100D90000000342B040800000000000000000D805B
:100DA0000008400D030000000000000000000000EB
:100DB0000000000000000000000000000000000033
:100DC0000000000000003C2B0408000000000000B0
:100DD0000000BD630308A0860100030000000000BE
:100DE0000000000000000000000000000000000003
:100DF00000000000000000000000482B0408000074
:100E00000000000000001129010840420F0000000E
:100E100000000000000000000000000000000000D2
:100E20000000000000000000000000000000542B43
:100E3000040800000000000000006981000850C3A1
:100E400000000000000000000000000000000000A2
:100E50000000000000000000000000000000000092
:100E6000000001000000FFFFFFFFD6010000850920
:100E70000208000000000000000001000000000166
:100E8000010100000000FFFFFFFFFF000000010064
:100E900000005001000007000000020000000000F8
:100EA0000000000000000102030406070809E00139
:100EB000010101000000312D030800000000AC0812
:100EC000002068640408000000000000000000002A
:100ED000000000000000AC650408000000000000F5
:100EE00000003809002004000000146404080D000C
:100EF0000000D5470308F823002000000000605DD3
:100F000004080D000000FD470308EC23002000004A
:100F10000000D05E04080800000000000000E0238C
:100F2000002004000000CC5D04080D000000E52D49
:100F30000308D423002000000000805E04080300A2
:100F400000000D4A0308C823002000000000786458
:100F50000408030000000D4A0308BC230020000021
:100F60000000BC5A0408010000000000000000005E
:100F7000000000000000000000000E000000000063
:100F80000000000000000000000068640408000089
:100F90000000000000000000000000000000AC6540
:100FA00004080000000000000000380900200400D0
:100FB0000000C06304080300000039390308B023AF
:100FC000002008000000CC5D04080D000000E52DA5
:100FD0000308D423002000000000805E0408030002
:100FE00000000D4A0308C8230020000000007864B8
:100FF0000408030000000D4A0308BC230020000081
:101000000000BC5A040801000000000000000000BD
:10101000000000000000000000000E0000000000C2
:1010200000000000000000000000806404080000D0
:101030000000000000000000000000000000AC659F
:10104000040800000000000000003809002004002F
:101050000000C8630408030000000D4A03080424CC
:10106000002000000000BC5A04080100000000003D
:1010700000000000000000000000000000000E0062
:1010800000000000000000000000000000002070D0
:101090000020702D72000800000000000000000019
:1010A00000006C1F0020FFFFFFFFFA00000001009E
:1010B0000000010000002D202D2D202D2D2D2D2094
:1010C0002D2D2D0000000000000000000000000099
:1010D000000000000000905A0408985A0408B45A0E
:1010E00004080000000000000000000000000000F4
:1010F0000000295A0408040000009D450308000070
:10110000000000000000BC5A0408010000000000BC
:1011100000000000000000000000000000000E00C1
:10112000000000000000000000000000000032C0CD
:1011300000200100C4090000000030C000200100B0
:10114000C409000000002EC000200100C4090000F6
:1011500000002CC000200100C4090000000028C0CD
:1011600000200100C409000000002AC00020010086
:10117000C4090000000026C000200100C4090000CE
:10118000000024C000200100C40900000000747C9D
:1011900000200100C80001000000727C0020320025
:1011A000307532000000707C0020055A05006D7C0F
:1011B000002000FF01006F7C0020010000005809A2
:1011C00000206B7C002002000000D4F903086C7C36
:1011D000002000FF01006E7C002001000000580983
:1011E00000206A7C002002000000D4F90308607C23
:1011F000002080C1803E050000005E7C002080C190
:10120000803E05000000587C002080C1803E050023
:101210000000567C002080C1803E05000000507C0C
:10122000002000FF01004C7C00200A3201004B7CB2
:10123000002004000000201B04084A7C002002005B
:101240000000341B040800000000000000006009DA
:101250000020A05300209CFF2C010000000032075A
:1012600000200A000000401B0408407C0020E0151C
:101270000C17000000003407002008000000D8F818
:10128000030833070020050000003C1C0408427CD2
:10129000002002000000581B0408727E002001009C
:1012A000FF7F01000000717E002002000000641B2F
:1012B0000408CF7C002003000000741B0408CE7CCF
:1012C000002003000000741B0408D67D00200000ED
:1012D000FF0001000000D47D00200000FF0001009D
:1012E0000000D27D00200000FF0001000000D07D42
:1012F00000200000803E01000000CE7D00200000A4
:10130000803E32000000CC7D00200000803E0100C5
:101310000000CA7D00200000803E32000000C87D31
:1013200000200000803E01000000C67D002000007B
:10133000803E32000000C47D00200000FF0001005C
:101340000000E07D00200000F40101000000DE7DCF
:1013500000200000F40101000000DC7D00200000FE
:10136000F40101000000DA7D00200000F40101001A
:101370000000D87D002000FF0100FC7D0020E80374
:10138000D0070A000000FA7D0020006401000A0076
:101390000000EF7D002000640100EE7D002000646D
:1013A0000100F67D0020006401000A000000F57DC8
:1013B0000020006401000A000000F47D00200064A9
:1013C00001000A000000F97D0020006401000A000D
:1013D0000000F87D0020006401000A000000F77D95
:1013E0000020006401000A000000F37D002000FFDF
:1013F00001000A000000F27D002000FF01000A0049
:101400000000F17D002000FF01000A000000D67CF2
:1014100000200000F40101000000D47C0020000046
:10142000F40101000000D27C00200000F401010062
:101430000000D07C00200000F40101000000EA7DE3
:1014400000201400E80301000000E87D0020E8030C
:10145000307501000000E77D002000C80100E67D36
:10146000002000C80100E57D002000C80100E47DE7
:101470000020016401000A000000E37D002000FF5D
:1014800001000A000000677E002000C80100667E9F
:10149000002000C80100657E002000C80100647EB5
:1014A000002000C80100637E002000C80100627EA9
:1014B000002000C80100617E002000C80100607E9D
:1014C000002000C801005F7E002000C80100E45A2F
:1014D0000408000000000000000000000000000000
:1014E0000000F45A04080900000000000000040A8B
:1014F000002004000000FC5A04080900000000005D
:101500000000F809002004000000A8610408090098
:10151000000000000000EC090020040000009C58BE
:1015200004080900000000000000E0090020040099
:101530000000045B04080900000000000000D4095A
:101540000020040000000C5B0408090000000000FB
:101550000000C809002004000000145B0408090012
:10156000000000000000BC090020040000001C5B1B
:1015700004080900000000000000B0090020040079
:101580000000BC5A04080100000000000000000038
:10159000000000000000000000000E00000000003D
:1015A00000000000000000000000545C040800007F
:1015B0000000000000000000000000000000984D46
:1015C00004080700000000000000280A00200000B6
:1015D0000000645C040808000000000000001C0A11
:1015E000002000000000705C0408080000000000FB
:1015F0000000100A002000000000BC5A040801008E
:1016000000000000000000000000000000000000DA
:1016100000000E00000000000000000000000000BC
:101620000000785C040800000000000000000000DA
:10163000000000000000885C04080D0000000000AD
:101640000000640A002000000000905C04080D0007
:10165000000000000000580A002000000000985C14
:1016600004080700000000000000500A00200000ED
:101670000000A05C04080D00000000000000440A07
:10168000002000000000A85C04080D00000000001D
:101690000000380A002000000000B05C04080700C9
:1016A000000000000000300A002000000000BC5ACA
:1016B000040801000000000000000000000000001D
:1016C0000000000000000E0000000000000000000C
:1016D000000000000000B85C0408000000000000EA
:1016E00000000000000000000000984D04080C00FD
:1016F000000000000000767C002000000000CC5CB0
:1017000004080C00000000000000787C00200000AD
:101710000000DC5C04080C00000000000000AE7C4F
:10172000002000000000EC5C04080C000000000039
:101730000000A27C002000000000005D04080C00F6
:101740000000000000007A7C002000000000981FCC
:1017500004080C000000000000007C7C0020000059
:1017600000000C5D04080C000000000000007E7CFE
:10177000002000000000205D04080C0000000000B4
:101780000000807C002000000000285D04080C00A0
:10179000000000000000827C002000000000305D9E
:1017A00004080C00000000000000C07C00200000C5
:1017B0000000485D04080C00000000000000847C6C
:1017C000002000000000545D04080C000000000030
:1017D0000000867C002000000000342A04080C0071
:1017E000000000000000887C0020000000005C5D1C
:1017F00004080C000000000000008A7C00200000AB
:101800000000685D04080C000000000000008C7CF3
:10181000002000000000745D04080C0000000000BF
:1018200000008E7C002000000000805D04080C0099
:10183000000000000000907C0020000000008C5D93
:1018400004080C00000000000000927C0020000052
:101850000000985D04080C00000000000000A67C59
:10186000002000000000A05D04080C000000000043
:101870000000A47C002000000000A85D04080C000B
:10188000000000000000B27C002000000000B45DF9
:1018900004080C00000000000000B47C00200000E0
:1018A0000000C05D04080C00000000000000BA7CCD
:1018B000002000000000AC5B04080C0000000000E9
:1018C0000000947C002000000000CC5D04080C00A7
:1018D0000000000000009C7C002000000000D45D9F
:1018E00004080C00000000000000967C00200000AE
:1018F0000000E05D04080C00000000000000987C7F
:10190000002000000000EC5D04080C000000000056
:1019100000009A7C002000000000F45D04080C0028
:101920000000000000009E7C002000000000B84D78
:1019300004080C00000000000000A87C002000004B
:101940000000005E04080C00000000000000A07C05
:101950000020000000000C5E04080C0000000000E5
:101960000000B07C002000000000185E04080C009D
:10197000000000000000AA7C002000000000205EA3
:1019800004080C00000000000000AC7C00200000F7
:101990000000285E04080C00000000000000B67C77
:1019A000002000000000305E04080C000000000071
:1019B0000000B87C002000000000BC5A04080100B0
:1019C0000000000000000000000000000000000017
:1019D00000000E00000000000000000000000000F9
:1019E0000000385E04080000000000000000000055
:1019F000000000000000445E04080D00000000002C
:101A00000000BC0A0020000000004C5E04080D002D
:101A1000000000000000B00A002000000000545E3A
:101A200004080700000000000000A80A00200000D1
:101A30000000605E04080700000000000000A00A2B
:101A40000020000000006C5E040809000000000097
:101A50000000940A002000000000785E04080900DD
:101A6000000000000000880A002000000000845EE2
:101A7000040809000000000000007C0A00200000AB
:101A80000000945E04080900000000000000700AD5
:101A9000002000000000BC5A040801000000000003
:101AA00000000000000000000000000000000E0028
:101AB0000000000000000000000000000000A85E20
:101AC000040800000000000000000000000000000A
:101AD0000000B85E04080500000000000000CD7C96
:101AE000002000000000BC5A0408010000000000B3
:101AF00000000000000000000000000000000E00D8
:101B00000000000000000000000000000000C05EB7
:101B100004080000000000000000000000000000B9
:101B20000000AC6504080000000000000000F401A3
:101B3000002004000000CC5E04080D0000000146F7
:101B40000308100B002000000000146404080D00BE
:101B50000000E92C0308040B002000000000605D79
:101B600004080D000000CD2C0308F80A0020000036
:101B70000000D05E04080800000000000000EC0A2D
:101B8000002004000000CC5D04080D000000152CAE
:101B90000308E00A002000000000D85E04080900E5
:101BA000000000000000D40A002004000000805E55
:101BB0000408030000000D4A0308C80A00200000C2
:101BC0000000BC5A040801000000000000000000F2
:101BD000000000000000000000000E0000000000F7
:101BE00000000000000000000000E05E04080000AB
:101BF0000000000000000000000000000000F05E97
:101C000004080D00000000000000280B0020000068
:101C10000000F85E04080A00000000000000757F64
:101C2000002000000000045F04080A00000000001B
:101C300000007D7F0020000000000C5F04080A0007
:101C4000000000000000857F002000000000145FFD
:101C5000040808000000000000001C0B0020000029
:101C600000001C5F040804000000A54B03080000EE
:101C7000000000000000BC5A040801000000000041
:101C800000000000000000000000000000000E0046
:101C90000000000000000000000000000000285FBD
:101CA0000408000000000000000000000000000028
:101CB00000003C5F04080D00000000000000400B25
:101CC0000020000000004C5F0408040000004948A8
:101CD00003080000000000000000545F04080D002D
:101CE000000000000000340B002000000000685FCE
:101CF000040804000000254803080000000000005C
:101D00000000BC5A040801000000000000000000B0
:101D1000000000000000000000000E0000000000B5
:101D200000000000000000000000705F04080000D8
:101D300000000000000000000000000000009820EB
:101D400004080800000000000000B80B002000009C
:101D50000000845F04080800000000000000AC0BD5
:101D60000020000000008C5F040808000000000054
:101D70000000A00B002000000000945F0408080091
:101D8000000000000000940B0020000000009C5F99
:101D900004080800000000000000880B002000007C
:101DA0000000A45F040808000000000000007C0B95
:101DB000002000000000AC5F0408080000000000E4
:101DC0000000700B002000000000B45F0408080051
:101DD000000000000000640B002000000000C05F55
:101DE00004080800000000000000580B002000005C
:101DF0000000CC5F040808000000000000004C0B4D
:101E0000002000000000BC5A04080100000000008F
:101E100000000000000000000000000000000E00B4
:101E20000000000000000000000000000000D45F7F
:101E30000408000000000000000000000000000096
:101E40000000E85F04080700000000000000F40B39
:101E5000002000000000F45F0408080000000000FB
:101E60000000E80B002000000000006004080800EB
:101E7000000000000000DC0B0020000000000C60EF
:101E800004080800000000000000D00B0020000043
:101E90000000186004080800000000000000C40BE7
:101EA000002000000000BC5A0408010000000000EF
:101EB00000000000000000000000000000000E0014
:101EC000000000000000000000000000000024608E
:101ED00004080000000000000000130900200000BA
:101EE0000000306004080B00000000000000840CBB
:101EF0000020000000003C6004080B00000000000F
:101F00000000780C002000000000486004080B006E
:101F10000000000000006C0C002000000000546075
:101F200004080B00000000000000600C002000000E
:101F30000000606004080B00000000000000540C6A
:101F40000020000000006C6004080B00000000008E
:101F50000000480C002000000000786004080B001E
:101F60000000000000003C0C002000000000846025
:101F700004080B00000000000000300C00200000EE
:101F80000000906004080B00000000000000240C1A
:101F90000020000000009C60040807000000000012
:101FA00000001C0C002000000000A46004080700D2
:101FB000000000000000140C002000000000B060D1
:101FC00004080B00000000000000080C00200000C6
:101FD0000000BC6004080800000000000000FC0BCA
:101FE000002000000000BC5A0408010000000000AE
:101FF00000000000000000000000000000000E00D3
:102000000000000000000000000000000000C860A8
:1020100004080000000000000000000000000000B4
:102020000000DC6004080800000000000000B40CA0
:10203000002000000000E860040808000000000024
:102040000000A80C002000000000F4600408080054
:102050000000000000009C0C002000000000CC5F8D
:1020600004080800000000000000900C00200000A0
:102070000000BC5A0408010000000000000000003D
:10208000000000000000000000000E000000000042
:1020900000000000000000000000006104080000D3
:1020A0000000000000001009002000000000106186
:1020B00004080B00000000000000FC0C00200000E1
:1020C00000001C6104080B00000000000000F00C80
:1020D0000020000000002861040807000000000044
:1020E0000000E80C00200000000034610408070034
:1020F000000000000000E00C002000000000406133
:1021000004080700000000000000D80C00200000B8
:1021100000004C6104080800000000000000CC0C26
:1021200000200000000054610408080000000000C6
:102130000000C00C002000000000BC5A0408010090
:10214000000000000000000000000000000000008F
:1021500000000E0000000000000000000000000071
:1021600000005C610408000000000000000010098D
:102170000020000000006861040807000000000063
:102180000000480D002000000000706104080700F6
:10219000000000000000400D0020000000007861F9
:1021A00004080700000000000000380D00200000B7
:1021B0000000645804080700000000000000300D13
:1021C0000020000000006C58040807000000000018
:1021D0000000280D002000000000745804080700CB
:1021E000000000000000200D0020000000008061C1
:1021F00004080700000000000000180D0020000087
:102200000000886104080700000000000000100DB5
:10221000002000000000906104080700000000009A
:102220000000080D002000000000BC5A0408010056
:10223000000000000000000000000000000000009E
:1022400000000E0000000000000000000000000080
:1022500000000000000059300308500D0020CB7C26
:1022600000201D000000841B0408CA7C002000C858
:102270000100C87C0020E803D007010000004845A9
:102280004C494F535052494E4700697C002000038F
:102290000100687C002000030100A12F0308792FB2
:1022A00003082C0E0020352F0308E92E0308A40E86
:1022B0000020E12F0308C92F0308580F0020552ED6
:1022C0000308092E0308641200206F300308F53359
:1022D000030840130020552C030800000000901351
:1022E0000020814B0308713303086C1400209530E3
:1022F00003080000000020150020553103080931B3
:102300000308AC150020D1310308A1310308B01631
:1023100000205D320308A132030850170020EC7D35
:10232000002001060100D5300308A93003089018E9
:102330000020013203086D4803081C190020CD322B
:102340000308C9480308E4190020E27D00200103C6
:102350000100986104080000000000000000000077
:10236000000000000000A461040808000000000054
:102370000000F41A002000000000AC61040807000F
:10238000000000000000EC1A002000000000BC610A
:1023900004080D00000000000000E01A002000000A
:1023A0000000C8610408030000000D4A0308D41AA5
:1023B000002000000000BC5A0408010000000000DA
:1023C00000000000000000000000000000000E00FF
:1023D0000000000000000000000000000000D061CC
:1023E00004080000000000000000000000000000E1
:1023F0000000E06104080A00000000000000F01E78
:10240000040800000000E86104080A000000000061
:102410000000692C040800000000F06104080A00B4
:10242000000000000000687E002000000000F8614D
:1024300004080A00000000000000001B002000004B
:102440000000BC5A04080100000000000000000069
:10245000000000000000000000000E00000000006E
:1024600000000000000000000000006204080000FE
:1024700000000000000000000000000000000C62EE
:102480000408030000000D4A0308341B002000006C
:10249000000018620408030000000D4A0308281B0E
:1024A00000200000000020620408030000000D4A24
:1024B00003081C1B0020000000002862040805001F
:1024C000000000000000677C002000000000306277
:1024D00004080700000000000000141B002000009A
:1024E00000003C62040807000000000000000C1B14
:1024F000002000000000BC5A040801000000000099
:1025000000000000000000000000000000000E00BD
:102510000000000000000000000000000000486211
:10252000040800000000000000000000000000009F
:1025300000007C200408030000000D4A0308641B0F
:102540000020000000005C620408030000000D4A47
:10255000030838070020000000006462040803003C
:1025600000000D4A0308581B0020000000006C62A8
:102570000408030000000D4A03084C1B0020000063
:102580000000CC5D0408030000000D4A0308401B56
:10259000002000000000BC5A0408010000000000F8
:1025A00000000000000000000000000000000E001D
:1025B0000000000000000000000000000000786241
:1025C00004080000000000000000000000000000FF
:1025D0000000846204080700000015490308CC1BB2
:1025E000002000000000F05D0408030000000D4A18
:1025F0000308C01B002000000000906204080300D4
:1026000000000D4A0308B41B00200000000098627F
:102610000408030000000D4A0308A81B0020000066
:102620000000A062040807000000F9480308A01B8E
:10263000002000000000F8570408030000000D4AC5
:102640000308941B002000000000AC620408030093
:1026500000000D4A0308881B002000000000B8623B
:102660000408030000000D4A03087C1B0020000042
:102670000000C0620408030000000D4A0308701B3C
:10268000002000000000BC5A040801000000000007
:1026900000000000000000000000000000000E002C
:1026A00000000000000000000000000000002930D1
:1026B0000308F92F0308D41B00203D330308000052
:1026C0000000601C0020C52E0308A12E0308EC1C8E
:1026D00000200000000000000000A01D00201533B5
:1026E000030831490308401E0020CC6204080000A2
:1026F0000000000000000000000000000000D862A0
:102700000408030000000D4A0308601F00200000B9
:102710000000E0620408030000000D4A0308541F93
:10272000002000000000682A0408030000000D4A91
:102730000308481F002000000000EC6204080300AA
:1027400000000D4A03083C1F002000000000F86252
:102750000408030000000D4A0308301F0020000099
:1027600000000063040802000000F14B03080000B1
:102770000000000000000863040802000000F14BA4
:1027800003080100000000000000146304080200B8
:102790000000F14B030802000000000000000000F0
:1027A00000000E000000000000000000000000001B
:1027B0000000467C002088136F1701000000487C51
:1027C000002088136F170000000020630408000039
:1027D0000000000000000000000000000000306366
:1027E0000408080000000000000040200020040051
:1027F00000003C63040808000000000000003420D2
:10280000002000000000805E04080400000029464B
:1028100003080000000000000000BC5A040801008A
:1028200000000000000000000000000000000000A8
:1028300000000E000000000000000000000000008A
:102840000000447C002088136F1701000000DC5357
:10285000002088136F1700000000992D0308000066
:1028600000004C200020197F002001000000FC1B0C
:102870000408DE53002001000000081C0408D453A3
:10288000002002000000101C04087AC00020000094
:1028900000000000000078C00020000000000000E0
:1028A000000076C00020000000000000000074C09E
:1028B0000020000000000000000072C000200000A6
:1028C00000000000000070C00020000000000000B8
:1028D00000002C0200200000000000000000437CEB
:1028E0000020020000001C1C04087863040800009B
:1028F0000000000000000000000000000000306345
:1029000004080800000000000000D020002004009F
:1029100000003C6304080800000000000000C42020
:10292000002000000000805E040804000000692D03
:1029300003080000000000000000BC5A0408010069
:102940000000000000000000000000000000000087
:1029500000000E0000000000000000000000000069
:102960000000886304080000000000000000000070
:10297000000000000000986304080D000000794783
:1029800003080021002004000000A46304080D00D7
:102990000000C12D0308F420002004000000B063F3
:1029A00004080D0000003D470308E8200020000057
:1029B0000000BC6304080300000059390308DC2050
:1029C000002008000000C8630408030000000D4A4E
:1029D00003080424002000000000BC5A0408010081
:1029E00000000000000000000000000000000000E7
:1029F00000000E00000000000000000000000000C9
:102A00000000B45A040800000000000000000000AC
:102A1000000000000000295A04080400000041469C
:102A200003080000000000000000BC5A0408010078
:102A30000000000000000000000000000000000096
:102A400000000E0000000000000000000000000078
:102A500000001C64040800000000000000000000EA
:102A6000000000000000685004080D000000000095
:102A7000000060210020040000002C64040808000D
:102A80000000000000005421002004000000386411
:102A90000408080000000000000048210020040095
:102AA00000004064040808000000000000003C2111
:102AB0000020040000004864040808000000000032
:102AC00000003021002004000000506404080800C9
:102AD00000000000000024210020040000005864D1
:102AE0000408080000000000000018210020040075
:102AF00000006064040808000000000000000C21D1
:102B0000002004000000BC5A04080100000000007E
:102B100000000000000000000000000000000E00A7
:102B20000000000000000000000000000000812DF7
:102B30000308000000006C210020000000000000DD
:102B40000000E421002000000000000000008422BA
:102B50000020DA53002004000000281C0408D85389
:102B60000020E0150C1700000000D75300200800DB
:102B70000000D8F80308D6530020050000003C1CD4
:102B800004080000000000000000D422002004031C
:102B9000090412010002EF020140830456320002D0
:102BA000010203010000120100020202004083043E
:102BB0004057000201020301000009024300020124
:102BC00000C03209040000010202010005240010C7
:102BD0000105240100010424020205240600010766
:102BE0000582030800FF09040100020A0000000733
:102BF0000501024000000705810240000000FF00BF
:102C000000000800000000000001000000000000BB
:102C1000000000000000897A0308857A0308817AA1
:102C20000308757A0308717A03087D7A0308797AB4
:102C30000308FD7A0308F17A0308C97A0308DD7AEC
:102C40000308B57A0308A17A03088D7A0308010105
:102C50000000006002401060024000000000000020
:102C60000000000B00000000000000000000000059
:102C700000000060024028600240010000000000E7
:102C80000000060C00000000000000000000000032
:102C900000000060024040600240020000000000AE
:102CA0000000100D00000000000000000000000007
:102CB0000000006002405860024003000000000075
:102CC0000000160E000000000000000000000000E0
:102CD000000000600240706002400400000000003C
:102CE0000000200F000000000000000000000000B5
:102CF0000000006002408860024005000000000003
:102D0000000026100000000000000000000000008D
:102D1000000000600240A0600240060000000000C9
:102D20000000301100000000000000000000000062
:102D3000000000600240B860024007000000000090
:102D40000000362F0000000000000000000000001E
:102D50000000006402401064024000000000000017
:102D6000000000380000000000000000000000002B
:102D700000000064024028640240010000000000DE
:102D80000000063900000000000000000000000004
:102D900000000064024040640240020000000000A5
:102DA0000000103A000000000000000000000000D9
:102DB000000000640240586402400300000000006C
:102DC0000000163B000000000000000000000000B2
:102DD0000000006402407064024004000000000033
:102DE0000000203C00000000000000000000000087
:102DF00000000064024088640240050000000000FA
:102E00000000264400000000000000000000000058
:102E1000000000640240A0640240060000000000C0
:102E2000000030450000000000000000000000002D
:102E3000000000640240B864024007000000000087
:102E40000000364600000000000000000000000006
:102E500000000000803F91AC010891B101080DAD68
:102E600001082188010859B30108318801084D88FB
:102E70000108F9870108E987010800000000000047
:102E800000000827002000000000000000000000F3
:102E90000000000000000000000000000000000032
:102EA0000000000000000000000000000000000022
:102EB0000000000000000000000000000000000012
:102EC0000000000000000000000000000000000002
:102ED00000000000000000000000000000000000F2
:102EE000000000000000430000000000000000009F
:102EF00000000000000000000000000000000000D2
:102F0000000000000000430000000000000000007E
:102F100000000000000000000000000000000000B1
:102F2000000000000000430000000000000000005E
:102F30000000000000000000000000000000000091
:102F4000000000000000430000000000000000003E
:102F50000000000000000000000000000000000071
:102F6000000000000000430000000000000000001E
:102F70000000000000000000000000000000000051
:102F800000000000000043000000000000000000FE
:102F90000000000000000000000000000000000031
:102FA00000000000000043000000000000000000DE
:102FB0000000000000000000000000000000000011
:102FC000000000000000BFD403089BD403080000E9
:102FD0000000EE650408255A0408F1300408F130B9
:102FE0000408F1300408F1300408F1300408F1302D
:102FF0000408F1300408F1300408F1300408FFFF40
:10300000FFFFFFFFFFFFFFFFFFFFFFFF00000100CB
:103010004153434949000000000000000000000047
:1030200000000000000000000000000000000000A0
:103030004153434949000000000000000000000027
:103040000000000000000000000000000000000080
:103050000000000000000000000000000000000070
:103060000000000000000000000000000000000060
:103070000000000000000000000000000000000050
:1080000003680A7A591C01601A7070470C4B1B7880
:10801000DB0700D570470B4A1368002BFAD04FF4EA
:108020007A7101FB03F39842F4D3074B1B781BB919
:10803000064B99681B690B6000231360704700BFF3
:10804000C4510020583500204C3500203835002020
:10805000F8B5322204460021023035F06BFA1423C1
:10806000224AA37092F90270214BC4F80330012018
:10807000002102250326C4F80B30C4F81330C4F8DD
:108080001B30C4F82330C4F82B3087424FF0040370
:10809000A172A0742080A57684F8226084F82A302A
:1080A0001AD092F90A10814216D092F91210814228
:1080B00016D092F91A10814214D092F922108142FE
:1080C00012D092F92A30834205D05222642384F8D8
:1080D00032202386F8BD0521402322F83130F4E711
:1080E0002946F9E73146F7E71946F5E704A70020E6
:1080F0000504050030B484B0002340F2012540F2AD
:10810000034440F2056140F60812ADF804300A233A
:10811000ADF80650ADF80840ADF80A10ADF80C20E7
:108120008DF80E3088B10A28034615D804AA1344E6
:108130000B4A13F80C1C128801238B40134214BF06
:108140000120002004B030BC7047064B187800F0C6
:10815000010004B030BC704704B030BC09F006BA6E
:1081600050520020C4510020F8B50D4C0D4E04F1C2
:10817000200716F8013BFF2B18460CD0FFF7BAFF7B
:10818000257963794540EDB2AB4204D02946206899
:1081900022F0B0FA65710834BC42EAD1F8BD00BFE4
:1081A000A0A7002094A700202DE9F84F4F014FF021
:1081B000000B184E8246914607F120085D4605E007
:1081C00001350BF1010BBBF12B0F1ED05946304688
:1081D0005FFA8BF420F008FC0028F2D0AF42EFD811
:1081E000A845EDD900220C48114604E001312B29A5
:1081F0000DD010F80C2FA242F8D1074B01EB410132
:1082000003EB81015046C847DAE7BDE8F88F00214B
:10821000F8E700BFD8280020F0EA030870B54E68E0
:108220000546304634F030F83146044602462868A8
:1082300035F066F82A68131901333B212B6011557C
:1082400070BD00BF024B1A7A597A2EF051BC00BFA4
:10825000D828002008B508F039FE29F03DFD00BF00
:108260002DE9F04F2DED028B99B0054615F0E6F99A
:10827000034B1B7833B119B0BDEC028BBDE8F08F16
:10828000E4530020BF4B1B685F05F4D5BE4B1B7841
:10829000012B00F04482BD4B0293BD4B1B78002B99
:1082A00039D0BC4CBC4AD4F82831EB1A934200F2C6
:1082B000C782DFF8389399F80060002E00F0B2838F
:1082C000B64E37683FB3D4F8383140F6B732EB1AC0
:1082D000934220D994F83431002B00F07F8594F834
:1082E0003D21AF4994F83CC10868013BDBB2013243
:1082F00084F83431D2B2002B00F0658517F8011BE9
:1083000084F83D2101EB0C03376084F83C3122F006
:108310007FF8C4F83851A34A029B12781B68012ADF
:1083200003F10103109300F0AD819F4B1B78002BEC
:1083300000F0C1809D4F3B68002B00F0BC80029B89
:10834000944CD3F80080D4F85831A8EB0303632B86
:1083500040F2B180DFF898A2954EDFF89892412064
:1083600014F096FCBAF9023086FB0320DB17C3EB4E
:10837000A00080B214F070FCBAF9003086FB032034
:10838000DB17C3EBA00080B214F066FCBAF904302E
:1083900086FB0320DB17C3EBA00080B214F05CFC6B
:1083A00099F80010386822F033F894F85C6116F000
:1083B000010A00F017857F4B1B6898066DD57E4B30
:1083C0007E4E1B78990742F15880337D042B8CBF79
:1083D0004FF0030A4FF0020A472014F059FC3068AE
:1083E00014F006FC706814F003FCB6F80EB0744B81
:1083F0003868A3FB0B3BCBF3471B594622F008F828
:1084000099F80020338964208BEA020B00FB03F00B
:1084100089F800B014F0ECFB367D38684AEA86062D
:10842000F6B2314621F0F4FF99F8003038685E402A
:10843000314689F8006021F0EBFF94F85C6166BB7F
:10844000DFF8B4A14F2014F023FCDAF8000014F098
:10845000CFFBDAF8040014F0CBFB304614F0C8FB75
:108460000121386821F0D4FF534A99F8003016787A
:10847000386806F00106314683F0010389F80030C0
:1084800021F0C6FF99F8003038685E40314689F81F
:10849000006021F0BDFF94F85C614A4AC4F858813D
:1084A000731CDBB2A2FB0312D20802EB8202A3EB25
:1084B000420384F85C31444E3778022F00F0478342
:1084C000424CA378032B00F09183414B1B78002B87
:1084D0003CD0404F3B68CBB32E4C21F097FCD4F8F6
:1084E0006431039044F61F62C31A93422ED994F864
:1084F0006A31002B01F0F482013B84F86A3194F870
:108500006B21002A01F0D081013A84F86B2194F8A4
:108510006E31002B00F0C686013B84F86E3194F872
:1085200072C1BCF1000F00F0D1850CF1FF3C84F862
:1085300072C194F87391B9F1000F01F0CF8309F182
:10854000FF3984F87391039BC4F86431224B1B7884
:10855000002B40F0D282214B1B7843B10D4CD4F854
:10856000B43203F50043E8339D4280F000811C4B98
:108570001B78002B3FF47FAE064F1A4C1A4D07F5BF
:1085800035763BE0E0B4002081560020789500204D
:108590008E560020D82800203F0D0300F8550020FB
:1085A000F05500208F5600209C560020CC5500200E
:1085B00067666666E0510020E4510020E8B40020C0
:1085C0001F85EB51CDCCCCCC3B6B002000000020B4
:1085D000A4560020A856002014570020255700203C
:1085E000AE560020B4560020B8560020FC5500209E
:1085F00054520020D05500203C640020206821F017
:1086000003FF00283FF437AE206821F0F5FE2B78F9
:10861000804673B1013B20682B7021F0F5FE0028E5
:108620003FF429AE206821F0E7FE2B788046002B2E
:10863000F0D172490322304634F063FF97F8D41228
:1086400087F8D782023911F0FF0100F078823144B7
:1086500032464FF6FF7312F8010B1B1A91429BB280
:10866000F9D11A0A1FFA88F89045C7D197F8D6228F
:10867000DBB29A42C2D1624814F07AF82B781844DF
:108680002870BBE75F4E306800283FF44EAE5E4C6A
:108690005E4F04F5A67AA9464FF00108002521F0A7
:1086A000B3FE40B3D4F844B1BBF1000F23D130681E
:1086B00021F0A2FE83B27E2B00F01C837A78002A80
:1086C00040F0418294F84011002900F0E4811B2B16
:1086D00084F84021306840F02A8221F095FE00287D
:1086E00000F02583306887F80180C4F8445121F0F8
:1086F0008BFE0028D6D121F089FBD4F85431C01A62
:10870000B0F5FA7F4D46FFF610AE10AA4049D4F8F6
:10871000440114F0D7FA0023C4F8443105E63D4B78
:108720001B68002B3FF4B7AD374C3B4AD4F81C31E3
:10873000EB1A93427FF7AFAD384F94F820313A6887
:10874000C4F81C510133DBB2960784F8203101F1E3
:108750003E8513F0070601F01585282B304B01F0FC
:10876000198602932F4B5E201B68984795E594F875
:10877000B832C4F8B452012B40F2E18294F8B91235
:1087800029482A4A4E1C194400EB8101A2FB0672BB
:108790002748D1F8A0920178520802EB4202B21A9F
:1087A00084F8B92229B12349234A0968914200F08B
:1087B0006F81B9F1000F16D0204E11960DF16008AF
:1087C000A6F1120748F8207D48F2A5021523294694
:1087D0004046A4F8BC2284F8BE32C847002840F0C6
:1087E0000E8494F8B832114A0133A2FB03125208E6
:1087F00002EB42029B1A84F8B832B8E6AD2B002097
:10880000AC2B0020E4550020D828002000000020D8
:10881000162A00203852002047E80100E0510020CD
:1088200078950020BC4F0020F0EA0308ABAAAAAA62
:108830008D7F0020947F002038380020A92B002055
:10884000CD4ACE4B92F80AC0029AD4F82C61106837
:108850001B88CB4A4FF47A71801B01FB0CF1DFB20D
:1088600000261B0A88429777D37717755375967041
:10887000167180F09982C349C3488F680B68C34959
:10888000C34E91F800C096F814B080FB03E1DB17EB
:10889000C3EBA10180FB070E1177F8170912C0EB9B
:1088A000AE00BC4B51774FF4FA71071282F82000EA
:1088B000518347F2305078211CF0020F82F821706A
:1088C00083F81AB0508482F8241000F02D82D6F874
:1088D0000080B149D6F804E0B04ADFF8F0C281FB6D
:1088E00008704FEAE87781FB0E91C7EBA0574FEA7B
:1088F000EE70C0EBA15002FB078102FB00E201EB2E
:10890000410102EB4202490052008CFB01A98CFBA1
:1089100002ACB6F80EA0368900EB80000AEBCA0A5A
:1089200000EB8000049006F5FA764FEA8A004FEAE1
:10893000A9490590B6B2C8174FEAD878039683F8CC
:108940000980974EA9EB00084FEAE27A4FEAAC4C57
:10895000404606FB1010ACEB0A018C4607EB87077C
:1089600006FB1121049E8F4ADFF864A2BBF1050FBC
:108970004FFA88F8DFF85CB207EB87074FFA8CFCF8
:1089800008EB87070CEB860CDFF84C82059EBBF8E2
:108990000090DDF80CB083F815B04FEADE7EA2FB44
:1089A0000662BFB21FFA8CFC83F80EE088FB006EF3
:1089B00088FB01684FEAE0704FEAE171C0EB6E108E
:1089C000C1EB68114FEA92124FEA1728BAF800E09B
:1089D00018734FEA1C2A5E464FEA16269F7283F8E8
:1089E0000B804FEA20274FEA212883F80FC083F835
:1089F00010A04FEA122C4FEA192A34BF322033203C
:108A00005F73597483F812809E75DA7183F808C019
:108A100083F8139083F814A0D87683F81CE0C4F888
:108A2000285146E4DFF8B481D8F8000021F0ECFCCE
:108A3000C0B201280ED9022840F03E825A4B1A7863
:108A4000002A41F0EC83D4F83021AA1AB2F57A6FEB
:108A500081F0D285554E3768002F3FF45CAC99F811
:108A60000030002B7FF42FAC514BD8F800001B686E
:108A70009B781E3B012B41F2CD830430022114F080
:108A8000CFFC0122002389F8002084F83C3140E427
:108A9000DFF84C9190E67D2B00F0078294F84A2194
:108AA00022B180F02003DBB284F84A11B4F84821E7
:108AB00094F83F111A44062992B20BD8601801317C
:108AC00080F84C31A4F84821C4F8445184F83F118F
:108AD0003068E4E5130A53FA82F2FF2A87F801802E
:108AE000A4F8482140F01C81C4F844A121F08EF97B
:108AF0000346C4F854313068CEE52E4C227832B1AA
:108B00002D4B2E49186821F04BFC002323702C4F6D
:108B10003C78002C7AD0DFF8CCA0DAF86060002E28
:108B200040F01381274B3E70C3F8AC5213E50D2B78
:108B30007FF4D8ADA4F84821C4F84421AFE5FF2262
:108B40004FF6FF738EE5C4F844B13068A7E521F015
:108B50005DF91D4B1B68C01A40F6B833984200F20D
:108B6000D580DFF8849099F804303A2B01F05C83CB
:108B700000233370A9E400BFA04F00203C52002026
:108B8000BC5600204452002067666666E45100200F
:108B9000E8B40020E85600206BCA5F6B806967FF6D
:108BA00040420F00D34D621000000020F855002015
:108BB000F455002080560020185700204056002011
:108BC0001D570020D8280020406B002083DE1B4367
:108BD000A8640020E05500201F85EB51F0550020CF
:108BE000A5A101082C570020006B0020B54F386864
:108BF00021F0FAFB00283FF468AC3868012121F02D
:108C0000EFFB02220023A27033705EE4AE4E337895
:108C1000002B40F07F81AD4CAD4FD4F8AC223978B9
:108C2000AC4B93FBF1F313449D42FFF494ACAA4A7E
:108C300094F8B032C4F8AC5212F8038018F0010F67
:108C400041F08F8418F0020F41F04C8418F0040FAB
:108C500041F0D78318F0080F41D0A04BA04E1193DC
:108C60000DF16008A3F13D0248F8202D4FF4885122
:108C7000022223F8401C03F83E2C4046316823F0C2
:108C800037F84046716823F033F8F389954A03EBCF
:108C9000C30399000531A2FB0131C1F3CF01404666
:108CA00023F03EF8338A03EB8303590089B2404630
:108CB00023F036F88C4B1B78980743BF318901F5B8
:108CC0007A7189B24FF47A71404623F029F8109BEB
:108CD000327D591C109140461A7014F057FC94F8DC
:108CE000B0323978013393FBF1F201FB123384F88F
:108CF000B03230E484F83EB184F83FB184F840816A
:108D000087F801B0C4F844B13068C8E46F4AB2F8DB
:108D10005E3100210133A2F85E313170FFF7D5BB1F
:108D2000C4F844513068BAE42D22DA7677E6C4F804
:108D3000440184F83E8187F801803068AFE46B4AD3
:108D400002EB8302D2F8A09233E50024DFF8C09151
:108D500026464FF050080BE01C44EFF3118388F3D4
:108D60001288DAF86020944217DADBB283F31188B4
:108D70001AF804B0601C5946504413F03FFE0BF142
:108D800001030028E8D049463A2013F099FD0BF181
:108D9000010B0643F6B25C44DFE70022DBB2CAF8FF
:108DA000602083F31188BDE6514B02991B78096856
:108DB000C4F82C11013B012B3FF65DAD10210223BD
:108DC0009170137157E50CF10103614684F83D2160
:108DD00084F83C3121F01CFBFFF79BBA14F056FBE2
:108DE000FFF797BA434B1B88DA0515D4DE0601F16D
:108DF000FF83980601F10B85590601F176851A0764
:108E000001F1AB85DE0701F1AC8513F0020F0CBF59
:108E10004FF0040A4FF00C0A374A384B1678DB78CB
:108E200006F001060BB146F00206532013F030FFA6
:108E3000334B1B8803EB830303EB8303980080B25F
:108E400013F00AFF002013F007FF2E4B2E4A1B8859
:108E50003868C3EBC3135B0082FB03121A44DB17B1
:108E6000C3EB62235FFA83FB594621F0D1FA99F8EC
:108E7000003038688BEA03034AEA0606002189F8C5
:108E8000003021F0C5FA3146386821F0C1FA99F86E
:108E9000003038687340DBB2194689F8003021F0A1
:108EA000B7FA94F85C61FFF7CABA84F84A81C4F84B
:108EB00044113068FFF7F3BB14F0D8FA134B0122CA
:108EC0001A70C7E5BC7100201C570020D82800206C
:108ED00024570020A0860100205700204056002083
:108EE000E8B40020CDCCCCCCE4510020F0EA03085B
:108EF0002E50002050520020C4510020EC51002080
:108F00003C520020E6510020030820800000002091
:108F1000C1D501086449654B0093A1F13F07644B3B
:108F2000644A0F9101F8404C10A863490E9722F053
:108F3000EFFF0E9F7B1C0E933C700E9B2922591C49
:108F40000E911A700E9BEA22591C0E911A700E9BFC
:108F5000C822591C0E9110A81A7033F095F900F12F
:108F6000010810A942460E9834F0CAF90E9A02EB95
:108F7000080301330E9302F808400E9B5A1C0E9210
:108F80001C700E9B5A1C0E921C700E9B5A1C0E924B
:108F90001C700E9B5A1C0E921C700E9B5A1C0E923B
:108FA0001C700E9B5A1C0E921C700E9B5A1C0E922B
:108FB0001C700E9B5A1C0E921C700E9B5A1C0E921B
:108FC0001C700E9B5A1C0E921C700E9B5A1C0E920B
:108FD0001C700E9B5A1C0E921C700E9B012299183D
:108FE00018A80E911A7050F8283DDB1B3B7014F046
:108FF000CDFA324B3470C3F8AC52FFF7ACBA109DC7
:10900000BD4241F20A84A6F11302013D002141F262
:10901000210012F8013F81EA03231BB299B2002B11
:10902000ACBF4B0080EA41039BB2190454BF5B0004
:1090300080EA43039BB21F0454BF5B0080EA4303F2
:109040009BB21E0454BF5B0080EA43039BB2190429
:1090500054BF5B0080EA43039BB21F0454BF5B0014
:1090600080EA43039BB21E0454BF5B0080EA4303C3
:109070009BB2190454BF5B0080EA4303954299B246
:10908000C7D1404622F072FE0D49109D0D486D1A61
:10909000152DA8BF15252A4634F032F90A4A94F84E
:1090A000B8321570FFF79FBB4056002083A7002001
:1090B000C01E0408D41E0408E41E0408D82800209A
:1090C000942B00204469002059690020704B94F8CB
:1090D0007AE1B3F90220B3F90010B3F904309FED3F
:1090E0006D6A84F811C007EE103A029B84F810E014
:1090F0001B6810938EF06A0383EA031306EE901A3E
:10910000D9B20B0983F0D50343EA012383EAC103F3
:109110001BB283EA031AC3F3072653425FFA8AFAA3
:1091200007EE903A86EA1A1646EA0A26F8EEE77A39
:10913000F8EEE66AB8EEC77A86EACA060FFA86FA49
:1091400067EE867A66EE866A27EE067A00208AF057
:10915000C806CDED127ACDED116A8DED137A14901B
:109160001590169086EA06180DF14009B9E80F002F
:109170005FFA88F8CAF3072686EA181646EA082630
:1091800086EAC806DFF8148136B2A8E80F0086F038
:109190001E0C99E807008CEA0C1A5FFA8AFAC6F3EB
:1091A000072C8CEA1A1C4CEA0A2C88E807000EF1FE
:1091B0000103C8228CEACA0CA8F110064FF0050979
:1091C0004FF01E0E41F6FE4184F8729184F813E0D0
:1091D000E181A27406F11C0284F87A31A4F80CC073
:1091E00016F8013B83EA0C0383EA0313DBB2190987
:1091F00081EA1C2141EA032181EAC3031BB21FFA61
:1092000083FC9642A4F80CC0EAD183F0270383EADA
:109210000313DBB24FEA1C2282EA131282EA032212
:1092200082EAC3031BB29AB24FEA122EDEB2DFF813
:109230006890A28184F831E084F8306004F10E0A6D
:1092400004F12E08DAF80000DAF80410DAF8082041
:10925000DAF80C30CC46ACE80F000AF1100AC2452F
:10926000E146EFD1DFF83880BAF80030ACF80030D2
:1092700008F1240984F8C66184F8C7E118F8011FD1
:10928000386821F0C5F8C145F8D1FFF752B900BFE1
:109290005452002088C3E43A7C2A0020EC280020A5
:1092A0007B2A0020DC4B1B681922990684F86E216A
:1092B0007FF535A9D94BDA4E1B789A0741F1988290
:1092C000337D042B8CBF4FF003084FF0020820F0D1
:1092D0009DFD338A3289109003EB83035B00ADF868
:1092E0005A304FF47A7033688DF85C801293B6F878
:1092F0000EE0317D7368ADF858E000FB02F24FF0EC
:10930000000C4FF0FF300DF14008CDF844C014922E
:1093100013938DF85D101590C146B9E80F00DFF882
:109320000CE3AEE80F0099E80F00AEE807007146C5
:10933000182221F81C39049194F87A11E27481F012
:10934000780383EA0313DAB2130983F0F60343EADE
:10935000022383EAC2031BB283EA0312D2B2C3F32D
:10936000072383EA121343EA022383EAC2031BB2F0
:1093700083F0C80282EA0212D2B2C3F3072383EA5F
:10938000121343EA022383EAC2031BB284F811C01A
:1093900083F0180C8CEA0C1C5FFA8CFCC3F30722D8
:1093A000481C82EA1C1242EA0C2284F87A010498D2
:1093B000217482EACC0CC82341F6FE620146A4F86F
:1093C0000CC01E30E281A37411F8013B83EA0C0348
:1093D00083EA0313DBB21A0982EA1C2242EA03225F
:1093E00082EAC3031BB21FFA83FC8142A4F80CC0BB
:1093F000EAD183F0180383EA0313DBB24FEA1C2B94
:109400008BEA131B8BEA032B8BEAC30B0FFA8BFB44
:109410001FFA8BF3834AA3815FFA8BFB1B0A059229
:10942000069384F8333084F832B0914604F10E0C80
:1094300004F12E0ADCF80000DCF80410DCF8082047
:10944000DCF80C30CE46AEE80F000CF1100CD44521
:10945000F146EFD1DCF80000CEF80000DFF8D4A12F
:109460009DF8183084F8C8B10AF1260984F8C9318A
:10947000D3461BF8011F386820F0CAFFD945F8D140
:1094800020F0C4FC94F87AB110908BF06A0181EA64
:109490000111C8B2010981F0D50141EA002181EA38
:1094A000C00109B281EA01105F4BDFF88CC1B3F94A
:1094B0000430328984F810B0C0B2C1F3072181EAC8
:1094C000101141EA002181EAC0018CFB030CDB177B
:1094D0004FF47A70C3EBAC0C00FB02F0D6E900232A
:1094E00009B281F0C806CDE9112386EA0613DBB282
:1094F000CDE91300C1F307264FF0000986EA1316E1
:10950000ADF85AC0CDF85490ADF8589046EA03260D
:10951000C64686EAC306BEE80F00DDF810C084F830
:10952000119036B2ACE80F0086F0210383EA0313F2
:10953000DBB29EE80700C6F3072686EA131646EA62
:10954000032686EAC306394B04938CE80700C82338
:10955000212141F6FE42E174E281A374334BA681DE
:109560000BF1010B194684F87AB103F11C0211F8D2
:10957000013B734083EA0313DBB2180980EA16202B
:1095800040EA032080EAC3031BB29EB29142A68147
:10959000EDD183F0680282EA0212D2B2360A86EA7C
:1095A000121B8BEA022B8BEAC20B0FFA8BFB1FFA02
:1095B0008BF34FEA13295FFA8BFBA381DFF864E09A
:1095C00084F8319004F12E0384F830B004F10E06D3
:1095D0000693F36830687168B268F446ACE80F002F
:1095E000069B10369E42E646F3D13388ACF8003035
:1095F000059B84F8C79103F1230684F8C6B1D146D0
:1096000019F8011F386820F003FF4E45F8D1084AC9
:1096100094F87AE112E000BFE0510020E45100200C
:10962000E8B400207C2A002054520020EC280020BE
:109630003C6400207B2A002067666666DFF890C4E1
:1096400084F810E0D2E9002311938EF0EB0383EA53
:109650000313D9B20B0983F0C50343EA012383EA5C
:10966000C1031BB283EA0311C9B2C3F3072383EA20
:10967000111343EA012383EAC1031BB283F0C80636
:1096800086EA0616F6B24FF00009C3F30723CDF8B9
:10969000489083EA1613109298E8070043EA0623DD
:1096A00083EAC6030FFA83F8049B84F8119088F0CC
:1096B000310683E8070086EA0616F6B2C8F30723E8
:1096C00083EA161343EA062383EAC603267D607DF8
:1096D000A17DE27D1BB25E4086EA0616F6B2C3F3B8
:1096E000072383EA161343EA062383EAC6031BB261
:1096F000584080EA0010C0B2C3F3072383EA101376
:1097000043EA002383EAC00318B2414081EA01130F
:10971000DBB2C0F3072181EA131141EA032181EA98
:10972000C30109B24A4082EA0212D2B2C1F307234E
:1097300083EA121343EA022383EAC203267E607E91
:10974000A17EE27E1BB25E4086EA0616F6B2C3F345
:10975000072383EA161343EA062383EAC6031EB2ED
:10976000704080EA0010C0B2C6F3072383EA1013EA
:1097700043EA002383EAC0031BB2594081EA011186
:10978000C9B2C3F3072383EA111343EA012383EA2F
:10979000C1031BB25A4082EA0212D2B2C3F30723BA
:1097A00083EA121343EA022383EAC203267F607F1F
:1097B000A17FE27F1BB25E4086EA0616F6B2C3F3D3
:1097C000072383EA161343EA062383EAC6031EB27D
:1097D00080EA060383EA0310C0B2C6F3072383EAD4
:1097E000101343EA002383EAC0031BB2594081EA05
:1097F0000111C9B2C3F3072383EA111343EA01231A
:1098000083EAC1031BB25A4082EA0212D2B2C3F306
:10981000072383EA121343EA022383EAC2031BB23B
:1098200083F0270686EA0612D2B2C3F3072686EA39
:10983000121646EA022686EAC20636B2B2B20EF125
:109840000103F6B24FEA122E4FF0310840F6FE4007
:10985000C82184F87A31A28184F81380E08184F8E9
:109860002060A17484F821E0DCF80000DCF80C3002
:10987000DCF80410DCF80820BCF810900CF5CB7C68
:10988000ACE80F00059BACF8009003F1130884F8D6
:10989000B66184F8B7E11AF8011F386820F0B8FD06
:1098A000D045F8D1FEF73BBE8649029B08781B687D
:1098B0000A2184F86B11002800F09485DFF814C2A7
:1098C0000128BCF80010069141F20B81BCF802108F
:1098D0000491022800F0A487BCF804100591032825
:1098E00001F00B810428BCF806B001F020810528A6
:1098F000BCF8081001F016810628BCF80A9001F0A7
:109900000D810728BCF80C6001F00581BCF80E80C1
:1099100094F87AA110938AF0300383EA0313DBB240
:109920001809694A84F810A080F07A00128840EA89
:10993000032080EAC3036548C2EB022280FB02C019
:109940001044D217C2EB602206988DF855204FF0D4
:10995000000E60F30F0E05984FF0000C60F30F0C33
:1099600000201BB261F30F00002166F30F0183EAB0
:109970000316C3F307230593049B69F31F4063F3A6
:109980001F4E68F31F416BF31F4C059BCDE911EC93
:10999000F6B2CDE9130183EA16134FF000098DF8F2
:1099A000549043EA062C0DF14008B8E80F008CEA09
:1099B000C60636B286F0C80EDFF81CC184F81190D6
:1099C0008EEA0E1E5FFA8EFEC6F30726ACE80F0085
:1099D00086EA1E1646EA0E2398E8030083EACE0EB6
:1099E0000FFA8EF383F023024CF8040B82EA021084
:1099F000C0B2C3F3072282EA101242EA00222CF816
:109A0000141982EAC0000AF1010A232641F2FE621B
:109A1000C82384F87AA1A081E674E2810CF11601D2
:109A2000A3741CF8013B434083EA0313DBB21A0919
:109A300082EA102242EA032282EAC3031BB298B2EE
:109A40008C45A081EDD183F0F40383EA0313DBB2EC
:109A5000060A86EA131686EA032686EAC306A046A5
:109A600036B21FFA86F958F80E0FDFF870C0A4F866
:109A70000C904FEA192EF6B284F82A6084F82BE095
:109A8000D8F80410D8F80820D8F80C30ACE80F004B
:109A9000D8F81000D8F81410D8F8182004F2C1191A
:109AA000ACE8070004F2A31884F8C1E184F8C061AF
:109AB00018F8011F386820F0ABFCC145F8D1FEF75B
:109AC00026BD00BFD4810020E6510020030820807D
:109AD000E628002024C00020EC2800207C2A00205A
:109AE000794B1B6803F00802002A4AF60B4048F63F
:109AF000034149F607484BF60F4204BF8846024629
:109B000013F0040F18BF90469806704B1B7848BF9F
:109B100048F480484FF0190148BF48F02008022B54
:109B200084F86A1140F28A8564204FF0FF3B4FF0C1
:109B3000000A94F87AC1CDF840808CF0F10383EAF2
:109B40000313DBB21E0986F0E706C8F3090246EAF2
:109B50000326CDE9118286EAC3064FF0000936B22A
:109B6000ADF84EA0ADF850B08DF85E00ADF84C9059
:109B7000CDF85290CDF85690CDF85A9086EA061E50
:109B80000DF14008B8E80F005FFA8EFEC6F3072615
:109B900086EA1E1646EA0E2686EACE06DFF834E18D
:109BA00084F81190AEE80F0098E80F0036B286F006
:109BB000C80888EA08185FFA88F8C6F30726AEE8EE
:109BC000070086EA181646EA082181EAC80109B2A8
:109BD0002EF8023B81F0010686EA0616F6B2C1F3C2
:109BE0000722714682EA16121B0C01F81E3942EA5E
:109BF00006224FF0010E82EAC60641F6FE70C82228
:109C00000CEB0E03E08184F813E0A27401F11F0055
:109C100084F810C0A68184F87A3111F8013B7340B2
:109C200083EA0313DBB21A0982EA162242EA03220C
:109C300082EAC3031BB29EB28142A681EDD183F0BA
:109C40007C0383EA0313DBB2360A86EA131686EA3C
:109C5000032686EAC30636B2B3B24FEA132AF6B237
:109C6000DFF86C90A38184F834A084F8336004F1A9
:109C70000E0C04F12E08DCF80000DCF80410DCF80F
:109C80000820DCF80C30CE46AEE80F000CF1100CCA
:109C9000C445F146EFD1DCF80000CEF80000DFF853
:109CA00038809CF804308EF8043008F1270984F8D5
:109CB000C96184F8CAA118F8011F386820F0A8FB10
:109CC000C145F8D1FEF71BBCE05100202E5000200A
:109CD0007C2A0020EC2800207B2A00208F4B1B6868
:109CE00005229B0684F8732140F186838C4BDFEDBF
:109CF0008D6ADA891B8907EE902A07EE103AF8EE92
:109D0000E77AB8EE477A67EEA67A94F87AA1864B9E
:109D1000864AB3F90410B2F90620854E8548CDED88
:109D2000117A8AF0220383EA03135FFA83FC4FEA75
:109D30001C13B2F5FA6F83F05903A8BF4FF4FA620F
:109D400043EA0C2383EACC03B2F57A7F1BB2B8BF97
:109D50004FF47A72A2F57A7E83EA031C64225FFADA
:109D60008CFCC3F3072302FB0EF283EA1C1EA6FB46
:109D7000023280FB0130CB174FF0000B4EEA0C266D
:109D8000C2F38F12C3EBA0030DF14008CDF840B031
:109D9000CDF84CB08DED127A86EACC06ADF85220A3
:109DA000ADF85030C346BBE80F0036B286F0C80CA1
:109DB0008CEA0C1C5FFA8CFCC6F30726DFF88CE1FA
:109DC000DBF800B084F810A086EA1C16AEE80F009D
:109DD00046EA0C2686EACC031BB283F04A0686EAE2
:109DE00006117046C9B2C3F3072282EA111242EA91
:109DF000012240F810B982EAC1060AF1010A4FF0C7
:109E00004A0E41F2FE4C0022C8230490014684F819
:109E10007AA1A681143084F813E0A4F80EC062740D
:109E2000A37411F8013B734083EA0313DBB21A09F0
:109E300082EA162242EA032282EAC3031BB29EB2DE
:109E40008142A681EDD183F0140383EA0313DBB2D0
:109E5000360A86EA131686EA032686EAC306A2466F
:109E600036B21FFA86FC5AF80E0F334B0593F6B242
:109E70004FEA1C2E84F8286084F829E0DAF80410F0
:109E8000DAF80820DAF80C30A4F80CC0DFF8A8C023
:109E9000BAF818B0ACE80F00DAF81000DAF81410CD
:109EA000ACE8030004F2A31AACF800B084F8BE6179
:109EB000D34684F8BFE104F2BF161BF8011F3868CF
:109EC00020F0A6FA5E45F8D11C4B1D4A1B7812788B
:109ED000013B12F00100DBB214BFC0224022172B5D
:109EE00003D818490B4493F88892174B19888E07AA
:109EF0001ABF002342F01002012311F4027F18BFA1
:109F0000022311F0100F18BF062311F0200F18BF05
:109F10001023002840F0A183032119E0E051002024
:109F2000E8B400200AD7233C5452002024C000206B
:109F3000D34D6210676666667C2A00201C71002083
:109F4000C4510020F0EA030850520020EC28002001
:109F500094F87A61109386F0460383EA0313D8B22B
:109F6000030983F0920343EA002383EAC0031BB290
:109F700083EA0310C0B2C3F3072E8EEA101E4EEA26
:109F8000002E8EEAC00E0FFA8EFE8EF0C80383EA12
:109F900003134FF0000CDBB20320CEF3072E8DF835
:109FA00044908DF845C08DF846208DF847108DF807
:109FB00048008EEA131E98E807004EEA032E8EEA48
:109FC000C3031BB2DDF810E084F813C083EA031862
:109FD000AEE803005FFA88F8C3F3072383EA181397
:109FE00043EA082383EAC80394F81480607DA17DC6
:109FF0008EF800201BB288EA030888EA08185FFA86
:10A0000088F8C3F3072383EA181343EA082383EA93
:10A01000C8031BB2584080EA0010C0B2C3F3072344
:10A0200083EA101343EA002383EAC0031BB25940BA
:10A0300081EA0111C9B2C3F3072383EA111343EA8A
:10A04000012383EAC10394F8178094F818E0607E36
:10A05000A17EE27E84F811C01BB288EA030888EA78
:10A0600008185FFA88F8C3F3072383EA181343EA52
:10A07000082383EAC8031BB28EEA030E8EEA0E1E83
:10A080005FFA8EFEC3F3072383EA1E1343EA0E230F
:10A0900083EACE031BB2584080EA0010C0B2C3F37B
:10A0A000072383EA101343EA002383EAC0031BB2A9
:10A0B000594081EA0111C9B2C3F3072383EA11139E
:10A0C00043EA012383EAC1031BB25A4082EA021227
:10A0D000D2B2C3F3072383EA121343EA022394F8AC
:10A0E0001C80DFF8F0E3267483EAC2031BB288EA1F
:10A0F000030282EA0212D2B2C3F3072383EA1213E5
:10A1000043EA022383EAC2031BB283F0320282EAEB
:10A110000212D2B2C3F3072383EA121343EA0223E3
:10A1200083EAC2031BB29AB240F6FE10C8214FEA7E
:10A13000122CA174DBB20136E081DEF8000084F855
:10A140007A6184F81EC06377A281DEF80410DEF81D
:10A150000820BEF80C90059E0EF5CB7EAEE80700F9
:10A1600010368EF80280AEF8009084F8B4C184F8FE
:10A17000B3311AF8011F386820F04AF9B245F8D116
:10A18000FEF7E1B9FF2012F07DFA0378FF2B14BF30
:10A1900090F901103146022013F094F9FF2012F0DB
:10A1A00071FA0378B74EFF2B14BFB0F908100021E5
:10A1B000032013F087F97379002B40F0BF823B68CE
:10A1C000980600F1518294F82031FEF7C6BADFF804
:10A1D00008839FEDAD8AA8F12C092426B9F8183020
:10A1E000F8EC016A07EE103AB8EEC77A3046C6EED0
:10A1F000877A0136F6B267EE887AFDEEE77A17EED7
:10A20000903A19B213F05EF9272EE7D194F8203175
:10A21000FEF79FBA022120F0E3F8FEF732BCC4F843
:10A2200030511E70FEF716BC99F8021048461CF01B
:10A230000BF900287EF49CAC944B186820F0E4F8ED
:10A2400000287EF43DA9914BDFF890821868904C6D
:10A25000394620F0C5F899F8033098F803200493A4
:10A2600094F8603103930423059288F80230002AA1
:10A2700000F07B8398F80470864BDFF864A2013706
:10A28000FFB207EB470903EB8909FBB2092B3946FB
:10A29000504688F8043007F1010700F21B841EF0D5
:10A2A000A3FB28B999F80830FF2B09F10C09ECD170
:10A2B00098F80420784B07924FF00C0909FB0239FB
:10A2C000764FD9F804120691084631F0DDFFD9F82F
:10A2D000083205935FFA80F9184631F0D5FF5FFA2E
:10A2E00080FA079A069909EB0A000830F87122F003
:10A2F0000F00B87202F00F020AEBC9007A73B8734C
:10A300004A4607F10F0032F0FBFF059B07F1060BF1
:10A3100009F1090052461946584432F0F1FFFA7922
:10A3200002F1010ABAB1013A07F107095C4B59FA87
:10A3300082F9DC4600221CF8011F51408A00C8083F
:10A3400082EA410200F018004A4043FA00F14A4014
:10A35000E145D2B2EFD104980AF80B2031F052F85F
:10A3600098F80330013BDBB288F8033013B94D4B4A
:10A370001B780393454BBA781868484920F010F8C9
:10A3800003239DF80C2084F8602188F80230337094
:10A39000FEF79BB81A4602931768434B434EA3FB44
:10A3A00007239B0BA6FB03214909C1EB0111A3EB7A
:10A3B0008103190209B20023172084F8203113F019
:10A3C00081F83B4BA3FB07239B09A6FB0312520911
:10A3D000C2EB0212A3EB820319B2182013F072F839
:10A3E000FEF7C0B90646814601468346CDE9040022
:10A3F00006908046FFF78CBADFED2E7AB0EE677AD2
:10A4000083E42D4B1193A3F1400900212122A3F1F4
:10A410003D0A23F8401C89F80220CDF840A007F03F
:10A4200097F8264B264E274A1B88002808BF164659
:10A43000590500F1F081DA0700F15582224A13F044
:10A44000020F18BF1646304631F01EFF31468346D4
:10A4500002461E4832F054FF0AEB0B0318A81C49B1
:10A46000013340F8203D00225B1A0AF80B2089F8DE
:10A47000013013F08BF8FEF7EDBB4FF0010AFDF74A
:10A48000ABBF00BF3050002000007A44BC710020F8
:10A49000D8280020F4EC0308F0EA030800B50020F7
:10A4A0000007090EEC55002073B2E74589888888BB
:10A4B000D34D621000000000405600205052002092
:10A4C000AC1E0408A41E0408BC1E04080356002089
:10A4D00001560020E62800205C98002000000020A3
:10A4E000E8550020D24BD34ADFF8809311881193AE
:10A4F00018AEA3F13D0246F8202D4FF4206C08223F
:10A5000023F840CC304603F83E2C21F009FCD9F862
:10A510000030C949DA1781FB0313C2EBA30399B2D8
:10A52000304621F0FDFB08F009F9D9F80890109B9E
:10A530004FEA1942591C10911A70109B4FEA1922C8
:10A54000591C10911A70109B5A1C109283F800909D
:10A55000109B5A1C10921870304613F017F8FEF733
:10A5600075BBDFF80C939FEDB58AB9F9023007EEA1
:10A57000903AF8EEE77AAE4B119367EE887A18AE10
:10A58000FDEEE77AA3F13D0246F8202D17EE902A62
:10A5900091B24FF4006223F8402C1E2203F83E2CA7
:10A5A000304621F0BDFBB9F9003007EE903AF8EEE5
:10A5B000E77A304667EE887AFDEEE77A17EE903A52
:10A5C00099B221F0ADFBB9F9043007EE903AF8EEFC
:10A5D000E77A304667EE887AFDEEE77A17EE903A32
:10A5E00099B221F09DFB304612F0D0FFFEF72ABB56
:10A5F0004FF0340AFEF710BC0122D8F800001A70A0
:10A600001FF0FAFE0646D8F800001FF0F5FE7706A8
:10A610007EF420AA8A2800F086818E287EF41AAA69
:10A6200099F80030002B7DF44BAE854E854B33609E
:10A630002D2384F834313768FEF711BA824A5379F2
:10A640009279002B40F01A81002A40F05D829246F8
:10A6500064204FF0FF3BFFF76CBA7C49C9780029B2
:10A660000CBF0421052173E4794F7A4E3B7899079A
:10A6700000F11981002109B2012012F023FF00210D
:10A68000092012F01FFF718A94F82021337DB1F563
:10A69000967F08D902F00F02072A04D842F20F73FE
:10A6A0008B4228BF0B46DFF8B88198F80820CAB162
:10A6B000203B07EE903A9FED687AF8EEE77AF6EEE7
:10A6C000006A67EE877ABEEE007AF5EEC07AF1EEA8
:10A6D00010FA58BFB0EE667A77EE877AFDEEE77A29
:10A6E00017EE903A19B2052012F0ECFE3A780023EA
:10A6F000CDE90E3393077FD494F82431012B7BD01E
:10A70000B8F90030DFED556A07EE103AB8F90230BB
:10A7100007EE903AB8EEC77AF8EEE77A27EE267A97
:10A7200067EEA67ABDEEC77AFDEEE77A10A88DED4A
:10A73000107ACDED117A12F0DDFE44E5DFF83491A8
:10A7400099F80030002B40F0D480DFF8E8801946FB
:10A750001A460620A4F8222112F0B4FE404AB4F8AA
:10A760002231507AB8F8001001330128A4F82231C0
:10A7700000F0EA80127B99F8003001EB81011FFAAA
:10A7800081F912B10BB199FBF3F9DFF8EC80A8FB6A
:10A7900009384FEA58180FFA88F13A2012F092FE61
:10A7A000642101FB189189B22E4B0531A3FB0131C5
:10A7B000C9083B2012F086FEB379002B3FF4FFACB2
:10A7C000DFF8A8800A22D8F8003093FBF2F32820A3
:10A7D00019B212F077FE3389002B40F0BA80D8F816
:10A7E000081081F3100109B2042012F06BFEE6E4B8
:10A7F0004FF00108FEF76BBDD6E9002301210EA83A
:10A8000084F82411CDE90E2312F074FEDBE44FF03E
:10A81000240AFEF701BB144E15E60021FEF731BCF9
:10A82000164691461146934605929046FFF770B83A
:10A83000405600203C5200206766666658A08B4157
:10A84000F8550020BC56002030500020EC5100206C
:10A85000E4510020E8B40020E4380E3F0050C34724
:10A86000A04F0020CDCCCCCCB01E04084452002018
:10A8700054520020425200201F85EB51AF4B1B88E1
:10A8800003EB830303EB83034FEA830A1FFA8AFA7D
:10A89000002A00F02F81AA4BB3F900B007F04EFF59
:10A8A00040B2FFF746B9F189A64B4FF4F368112087
:10A8B00008FB01F191FBF3F109B212F003FEF389F9
:10A8C000642108FB03F393FBF1F393FBF1F201FB2B
:10A8D000123109B2192012F0F5FD3B7831899A073F
:10A8E0003FF5C9AEC6E6984EADE54FF0100AFEF74B
:10A8F00093BADFF84882B4F82201B8F8001090FB50
:10A90000F3F24FF0640C03FB12020CFB013192B224
:10A910005B00B1FBF3F10B0243EA0213C1F3032125
:10A920000B4319B215E7894B1B689E067EF592A86A
:10A9300099F80030002B7DF4C3AC854E854B336015
:10A940002D2384F8343176E609B2392012F0BAFDAD
:10A9500032E707F0F3FE01B246E74FF0200AFEF7B8
:10A960005BBA4FF0080AFEF757BA744B744A59881D
:10A97000794B506892680A92B3F904200992B3F9AE
:10A980000220B3F900300793039B744F089203F041
:10A99000F00303F11002DDF80CA0DFF8C8B10B9151
:10A9A000D2B20D9007F10D0901FB00F0BB726421DA
:10A9B000069290FBF1F150460C91069B834246D9DA
:10A9C0000C2303FB00B2431E92F80C2242EA001152
:10A9D00089F8001009F10101082B78D8DFE803F0AD
:10A9E0007175736F6D6B69057300099B5A4492F81A
:10A9F0007C22012A0DD9023AD2B202F1020CE144C2
:10AA00008C460CF8013BCC454FEA1323F9D10132B7
:10AA100011444FF00C0A0AFB00B223F0600392F8D5
:10AA20000D2213430B7001F1010912F0DFFC4C4BB6
:10AA3000A9EB0302039B834209D20AFB00B393F8FC
:10AA40000C325B4493F87C321344122BB5DD444B3B
:10AA5000DFF814B1DFF814E1A9EB03010631C9B244
