:020000040800F2
:10000000F0FF001079EF030861DB0308C1C10208AB
:10001000A9F00308A9F00308A9F0030800000000F4
:10002000000000000000000000000000EDE10308F7
:10003000E9E1030800000000E5E10308A5BA0208B1
:10004000A9F00308A9F00308A9F00308A9F0030820
:10005000A9F00308A9F0030899C20208C5C3020861
:1000600089C302084DC3020811C3020851420308A4
:100070004142030831420308214203080D420308AC
:10008000F9410308E5410308A9F00308A9F00308B2
:10009000A9F00308A9F00308A9F00308D5C20208D3
:1000A000A9F00308E1B00208A9F00308A1B1020811
:1000B000A9F00308A9F0030821B00208ED470308DE
:1000C000F5470308E1470308E9470308A9F00308D7
:1000D000A9F0030849BD0208ADBC020811BC020822
:1000E0005DC20208A9F00308F1E10308D5AD0208DA
:1000F000A1AE0208A9F0030861AF0208D1410308CC
:10010000A9F00308A9F00308A9F00308A9F003085F
:1001100075BB0208D9BA0208B95901089D590108EE
:10012000BD410308A9410308953A03089541030816
:1001300081410308A9F00308A9F00308A9F0030806
:10014000A9F00308A9F00308A9F0030865DB030878
:100150006D4103085941030845410308A9F003080C
:10016000D5470308DD470308A9F00308A9F00308F1
:10017000A9F00308A9F00308A9F00308A9F00308EF
:10018000A9F00308A9F0030820EB03000100000018
:10019000031233009C2F00202234002000000000B6
:1001A0004006000825005A00CF2F0020B833002059
:1001B0000000000000000000F6110C0028330020B1
:1001C0004833002000000000740600082C001000D6
:1001D000343300201234002000000000DD9F0008AE
:1001E0002B0024007934002055340020000000004A
:1001F000AD9F0008290064004832002054330020DD
:10020000000000000000000014000200F431002093
:100210004433002000000000800600081010030096
:10022000E4310020E43400200000000082060008D1
:1002300028001000F02D0020E8340020000000000D
:100240000180000823001000142D0020F834002045
:10025000000000001980000819000500DC310020B2
:10026000083500200000000086060008F82106007E
:100270005A2E002010350020000000008C060008D7
:1002800007020200544100209841002000000000B5
:100290009206000802000C00244100209C4100202E
:1002A000000000000000000006020C0018410020C1
:1002B000A84100200000000079230108080209007D
:1002C000A2400020B44100200000000045220108A7
:1002D000F70106009C400020C04100200000000003
:1002E000940600080A020A00483E0020C841002087
:1002F000000000009A0600082700040008400020C3
:10030000D441002000000000A406000801200800DD
:10031000003E0020D841002000000000A806000890
:100320001A000A00A8350020E0410020000000006B
:10033000B006000822000C003C6E0020106F002068
:1003400000000000BA0600081B00F40090590020CD
:100350001C6F00200000000055D701080E020200AB
:10036000D86000201070002000000000C6060008C1
:100370002F001100D86E0020147000200000000033
:10038000C806000805100600046F00202870002031
:1003900000000000DA060008F5216E000859002070
:1003A000307000200000000029CF010826000E0058
:1003B000B0700020A07000200000000001CF0108F4
:1003C0000B20100078590020C070002000000000B1
:1003D000E00600081F101C00E8580020D070002024
:1003E00000000000F006000805020100305D00205A
:1003F000EC700020000000000C07000803010A0058
:10040000745B0020F0700020000000000E07000860
:1004100016000800D8730020FC73002000000000C4
:10042000180700080E20EA00A67C0020B4820020F5
:100430000000000025150108130004004C7E002078
:10044000A083002000000000200700080101040034
:10045000267C0020A4830020000000000000000093
:10046000000104001E7C0020A88300200000000082
:100470002407000802010300197C0020AC8300203F
:10048000000000008121010809020100EC81002028
:10049000B083002000000000280700080C10600056
:1004A000CA7D0020B483002000000000552101080F
:1004B000010205002E7C00201484002000000000B2
:1004C000D949030800020500FC7900201C840020A3
:1004D00000000000000000001E000400C07F00209B
:1004E00024840020000000002A07000813020100F5
:1004F000448D0020E0C20020000000000000000049
:1005000004008000DCC10020E4C2002000000000E4
:1005100000000000F9010400C0B6002064C3002000
:1005200000000000E19B0208FD011E009CB60020B7
:1005300068C3002000000000719B0208061016002E
:10054000B4A9002088C30020000000004918010859
:10055000FB010100F0A80020A0C300200000000063
:10056000C9210108FC010900BCA70020A4C3002088
:1005700000000000092201081102080090A70020D5
:10058000B0C30020000000002E0700081212040073
:1005900088A70020B8C3002000000000360700082C
:1005A00012200D0074A70020BCC300200000000032
:1005B0003A07000818202C00D0A60020CCC3002049
:1005C0000000000071AD00080D003400FCA6002002
:1005D000F8C30020000000008D230108FA0102008A
:1005E000A4A000202CC40020000000009D9F020851
:1005F000020203006C8D002030C4002000000000C7
:10060000000000000C0201005C8D002034C40020BA
:100610000000000048070008FE01090078A0002043
:1006200038C40020000000006F2201080A103000CA
:10063000C897002044C40020000000004A070008BA
:1006400000000000000000000000000000000000AA
:10065000000000000000000000000000000000009A
:10066000000000000000000000000000000000008A
:100670000000010000000000000000000000000079
:100680000300000500000000280100000200F40142
:100690001900023C3F010000000000004A01B400C4
:1006A000D601260020030000E8036400040A0001CC
:1006B0007E05EA05B40532000000C800141E0100E2
:1006C00064002C0128000000000000000000000071
:1006D00000000000000000000000200001010000F8
:1006E0002B21231E64010100000001000A012900E2
:1006F00000000000000001000000050000000000F4
:1007000000000000000000000000000000000401E4
:1007100001006C1600000000651B0D00190128285F
:1007200008044400900100000000000001000000E7
:10073000000001010101FFFFFFFF000000010000B8
:100740000548455350000000010000300107015AE0
:100750000001000000000000000000000000010097
:10076000000030000100AC0D0600AC0D0600C4090D
:1007700006009600960096000000D6010000099041
:100780000008000000000000000001006A000100F5
:100790000000FFFFFFFF0000803F0000000000009E
:1007A0000000000000000000803F0000000000008A
:1007B0000000000000000000000000000000000039
:1007C0000000000000000000000000000000000029
:1007D000803F00000000000000000000000000005A
:1007E000803F00000000000000000000000000004A
:1007F000000088410020080000000000000078414F
:1008000000200800000011F2010895F1010885EAB6
:100810000108000000006DD6010805F3010875D637
:10082000010871D601080000000000000000C9C6E0
:100830000108F59D0308B59D030881DA030800004F
:1008400000002D9A0308099D0308899D0308719CE7
:1008500003080000000000000000219A03080000C7
:10086000803F0000803FB41C04080508040000001D
:100870000000142E04084C1E0408002E040800007A
:10088000000000000000E01C040805080A00000049
:100890000000142E04084C1E0408182D0408000043
:1008A00000000000000009026400030100C03209DA
:1008B00004000001030000000921110100012226AB
:1008C000000705830308000A080B01020202010069
:1008D00009040100010202010005240010010524A1
:1008E0000100020424020205240601020705820316
:1008F0000800FF09040200020A00000007050102C7
:100900004000000705810240000000FFFF000000DA
:100910000000AA55050100000100000001FFFF01D1
:10092000000005010905A101A100050109300931F7
:100930000932093309350934094009381581257F01
:10094000750895088102C0C000000902220001015B
:1009500000E0320904000001030102000921110135
:1009600000012226000705830308000A000000009A
:1009700000000102030401020304060708092D20F8
:100980002D2D202D2D2D2D202D2D2D2D0000000065
:1009900000000000000000000000000000AA550B4D
:1009A000010000AA5507010000AA55090200000035
:1009B000000001000000C012AA5503009F00FF1FA5
:1009C000FF1F745E04080000000000000000952175
:1009D0000108A086010004000000000000000000E3
:1009E0000000000000000000000000000000000007
:1009F000000000000000C87704085C6D04080000D7
:100A000000001D7301087D000000060000000000CA
:100A100000000000000000000000000000000000D6
:100A200000000000000000000000646D04080000E9
:100A30000000000000005DCB0208E8030000030096
:100A400000000000000000000000000000000000A6
:100A50000000000000000000000000000000686DC1
:100A600004080000000000000000F9240108E80369
:100A70000000050000000000000000000000000071
:100A80000000000000000000000000000000000066
:100A90000000746D040800000000259D0008F1E4CA
:100AA0000208204E000005000000000000000000C9
:100AB0000000000000000000000000000000000036
:100AC000000000000000206004080000000000009A
:100AD000000019D5020810270000010000000000E6
:100AE0000000000000000000000000000000000006
:100AF00000000000000000000000786D0408000005
:100B0000000000000000159A0208E803000005003C
:100B100000000000000000000000000000000000D5
:100B20000000000000000000000000000000846DD4
:100B300004080000000000000000915E0108204E43
:100B400000000300000000000000000000000000A2
:100B50000000000000000000000000000000000095
:100B60000000946D040800000000000000007D5C9F
:100B70000108204E000003000000000000000000FB
:100B80000000000000000000000000000000000065
:100B9000000000000000A46D040800000000000038
:100BA0000000A99F0208400D0300030000000000A0
:100BB0000000000000000000000000000000000035
:100BC00000000000000000000000385F0408000082
:100BD000000000000000A5630208102700000100CB
:100BE0000000000000000000000000000000000005
:100BF000000000000000000000000000000028606D
:100C0000040800000000000000000D7D030810270C
:100C100000000300000000000000000000000000D1
:100C200000000000000000000000000000000000C4
:100C30000000B46D04080000000000000000EDA8F2
:100C40000008A08601000100000000000000000074
:100C50000000000000000000000000000000000094
:100C6000000000000000BC6D04080000000000004F
:100C70000000CD900308A0860100010000000000E4
:100C80000000000000000000000000000000000064
:100C9000000000000000000000002C6004080000BC
:100CA00000000000000079390208A00F00000100D8
:100CB0000000000000000000000000000000000034
:100CC0000000000000000000000000000000C86DEF
:100CD00004080000000000000000E1E40108102703
:100CE0000000010000000000000000000000000003
:100CF00000000000000000000000000000000000F4
:100D00000000405F040800000000000000003D31CA
:100D100002081A410000010000000000000000006D
:100D200000000000000000000000000000000000C3
:100D30000000000000008C600408000000000000BB
:100D40000000D9CB010810270000010000000000BE
:100D50000000000000000000000000000000000093
:100D600000000000000000000000206D04080000EA
:100D7000000000000000856C03081A41000001001B
:100D80000000000000000000000000000000000063
:100D90000000000000000000000000000000D46D12
:100DA0000408000000000000000019020208400DC5
:100DB0000300000000000000000000000000000030
:100DC0000000000000000000000000000000000023
:100DD0000000DC6D040800000000000000007D3809
:100DE0000208400D030000000000000000000000A9
:100DF00000000000000000000000000000000000F3
:100E0000000000000000E46D040800000000000085
:100E10000000B9820308A086010003000000000062
:100E200000000000000000000000000000000000C2
:100E300000000000000000000000F06D0408000049
:100E4000000000000000495C010840420F00000063
:100E50000000000000000000000000000000000092
:100E60000000000000000000000000000000FC6D19
:100E700004080000000000000000792E010850C3A3
:100E80000000000000000000000000000000000062
:100E90000000000000000000000000000000000052
:100EA000000001000000FFFFFFFF010102FFFFFF44
:100EB00000000100000050010000070000000200D7
:100EC000000000000000000000000102030406070B
:100ED0000809E001010101000000C94B03080000FE
:100EE0000000D4080020407E04080000000000003C
:100EF00000000000000000000000847F04080000E3
:100F00000000000000006009002004000000EC7DEB
:100F100004080D000000D166030820240020000012
:100F20000000387704080D000000F9660308142457
:100F3000002000000000A87804080800000000005D
:100F400000000824002004000000A47704080D001D
:100F500000007D4C0308FC230020000000005878AE
:100F600004080300000009690308F02300200000C2
:100F70000000507E04080300000009690308E42310
:100F8000002000000000947404080100000000002C
:100F900000000000000000000000000000000E0043
:100FA0000000000000000000000000000000407E83
:100FB0000408000000000000000000000000000025
:100FC0000000847F040800000000000000006009A9
:100FD000002004000000987D040803000000D157A1
:100FE0000308D823002008000000A47704080D009F
:100FF00000007D4C0308FC2300200000000058780E
:1010000004080300000009690308F0230020000021
:101010000000507E04080300000009690308E4236F
:10102000002000000000947404080100000000008B
:1010300000000000000000000000000000000E00A2
:101040000000000000000000000000000000587ECA
:101050000408000000000000000000000000000084
:101060000000847F04080000000000000000600908
:10107000002004000000A07D0408030000000969AE
:1010800003082C24002000000000947404080100D0
:101090000000000000000000000000000000000050
:1010A00000000E0000000000000000000000000032
:1010B000000020700020702D720008000000000069
:1010C000000000000000941F0020FFFFFFFFFA0057
:1010D000000001000000010000002D202D2D202D1A
:1010E0002D2D2D202D2D2D000000000000000000D2
:1010F0000000000000000000000068740408707424
:1011000004088C74040800000000000000000000C7
:10111000000000000000017404080400000099644D
:10112000030800000000000000009474040801009F
:1011300000000000000000000000000000000000AF
:1011400000000E0000000000000000000000000091
:1011500000008EC200200100C409000000008CC203
:1011600000200100C409000000008AC20020010024
:10117000C4090000000088C200200100C40900006A
:10118000000084C200200100C4090000000086C2E3
:1011900000200100C4090000000082C200200100FC
:1011A000C4090000000080C200200100C409000042
:1011B0000000407C00200100C800010000003E7CCF
:1011C000002032003075320000003C7C0020055ABF
:1011D0000500397C002000FF01003B7C002001005D
:1011E000000080090020377C002002000000481F1A
:1011F0000408387C002000FF01003A7C0020010038
:10120000000080090020367C002002000000481FFA
:1012100004082C7C002080C1803E050000002A7C50
:10122000002080C1803E05000000247C002080C199
:10123000803E05000000227C002080C1803E050029
:1012400000001C7C002000FF0100187C00200A32F6
:101250000100177C002004000000F82C0408167C14
:101260000020020000000C2D040800000000000017
:10127000000088090020E85C00209CFF2C01000091
:1012800000005A0700200A000000182D04080C7CFA
:101290000020E0150C17000000005C07002008008B
:1012A00000004C1E04085B07002005000000142EFF
:1012B00004080E7C002002000000302D04083E7E51
:1012C00000200100FF7F010000003D7E00200200A1
:1012D00000003C2D04089B7C0020030000004C2DE6
:1012E00004089A7C0020030000004C2D0408A27D15
:1012F00000200000FF0001000000A07D0020000091
:10130000FF00010000009E7D00200000FF000100A2
:1013100000009C7D00200000803E010000009A7DBE
:1013200000200000803E32000000987D0020000078
:10133000803E01000000967D00200000803E3200CB
:101340000000947D00200000803E01000000927D9E
:1013500000200000803E32000000907D0020000050
:10136000FF0001000000AC7D00200000F40101003E
:101370000000AA7D00200000F40101000000A87D0B
:1013800000200000F40101000000A67D0020000004
:10139000F40101000000A47D002000FF0100C87DD1
:1013A0000020E803D0070A000000C67D002000648A
:1013B00001000A000000BB7D002000640100BA7D2E
:1013C000002000640100C27D0020006401000A00CA
:1013D0000000C17D0020006401000A000000C07D03
:1013E0000020006401000A000000C57D00200064A8
:1013F00001000A000000C47D0020006401000A0012
:101400000000C37D0020006401000A000000BF7DD1
:10141000002000FF01000A000000BE7D002000FF48
:1014200001000A000000BD7D002000FF01000A004D
:101430000000A27C00200000F40101000000A07C5C
:1014400000200000F401010000009E7C002000004C
:10145000F401010000009C7C00200000F401010068
:101460000000B67D00201400E80301000000B47DF8
:101470000020E803307501000000B37D002000C8A3
:101480000100B27D002000C80100B17D002000C82D
:101490000100B07D0020016401000A000000AF7D62
:1014A000002000FF01000A000000337E002000C879
:1014B0000100327E002000C80100317E002000C8FB
:1014C0000100307E002000C801002F7E002000C8EF
:1014D00001002E7E002000C801002D7E002000C8E3
:1014E00001002C7E002000C801002B7E002000C8D7
:1014F0000100BC74040800000000000000000000AF
:10150000000000000000CC74040809000000000086
:1015100000002C0A002004000000D4740408090014
:10152000000000000000200A002004000000807B72
:1015300004080900000000000000140A0020040054
:101540000000707204080900000000000000080A92
:10155000002004000000DC74040809000000000002
:101560000000FC09002004000000E47404080900E5
:10157000000000000000F009002004000000EC74EE
:1015800004080900000000000000E4090020040035
:101590000000F47404080900000000000000D809ED
:1015A0000020040000009474040801000000000002
:1015B00000000000000000000000000000000E001D
:1015C00000000000000000000000000000002C7679
:1015D00004080000000000000000000000000000FF
:1015E0000000285E04080700000000000000500A08
:1015F0000020000000003C76040808000000000005
:101600000000440A0020000000004876040808009A
:10161000000000000000380A002000000000947460
:1016200004080100000000000000000000000000AD
:101630000000000000000E0000000000000000009C
:1016400000000000000050760408000000000000C8
:1016500000000000000000000000607604080D009B
:101660000000000000008C0A0020000000006876E6
:1016700004080D00000000000000800A00200000A7
:101680000000707604080700000000000000780ADF
:10169000002000000000787604080D000000000023
:1016A00000006C0A002000000000807604080D0095
:1016B000000000000000600A0020000000008876A2
:1016C00004080700000000000000580A0020000085
:1016D00000009474040801000000000000000000F5
:1016E000000000000000000000000E0000000000EC
:1016F00000000000000000000000907604080000D8
:101700000000000000000000000000000000285E53
:1017100004080C00000000000000427C00200000D3
:101720000000A47604080C00000000000000447CC7
:10173000002000000000B47604080C000000000047
:1017400000007A7C002000000000C47604080C0031
:101750000000000000006E7C002000000000D87631
:1017600004080C00000000000000467C002000007F
:101770000000F46E04080C00000000000000487C2B
:10178000002000000000E47604080C0000000000C7
:1017900000004A7C002000000000F87604080C00DD
:1017A0000000000000004C7C0020000000000077DA
:1017B00004080C000000000000004E7C0020000027
:1017C0000000087704080C000000000000008C7C7A
:1017D000002000000000207704080C00000000003A
:1017E0000000507C0020000000002C7704080C0052
:1017F000000000000000527C002000000000E06CAF
:1018000004080C00000000000000547C00200000D0
:101810000000347704080C00000000000000567C33
:10182000002000000000407704080C0000000000C9
:101830000000587C0020000000004C7704080C00D9
:101840000000000000005A7C0020000000005877D3
:1018500004080C000000000000005C7C0020000078
:101860000000647704080C000000000000005E7CAB
:10187000002000000000707704080C000000000049
:101880000000727C002000000000787704080C0043
:10189000000000000000707C002000000000807745
:1018A00004080C000000000000007E7C0020000006
:1018B00000008C7704080C00000000000000807C11
:1018C000002000000000987704080C0000000000D1
:1018D0000000867C002000000000847504080C00D5
:1018E000000000000000607C002000000000A477E1
:1018F00004080C00000000000000687C00200000CC
:101900000000AC7704080C00000000000000627CBE
:10191000002000000000B87704080C000000000060
:101920000000647C002000000000C47704080C0064
:10193000000000000000667C002000000000CC7762
:1019400004080C000000000000006A7C0020000079
:101950000000485E04080C00000000000000747CD9
:10196000002000000000D87704080C0000000000F0
:1019700000006C7C002000000000E47704080C00EC
:101980000000000000007C7C002000000000F077D8
:1019900004080C00000000000000767C002000001D
:1019A0000000F87704080C00000000000000787CBC
:1019B000002000000000007804080C000000000077
:1019C0000000827C002000000000087804080C0061
:1019D000000000000000847C0020000000009474DF
:1019E00004080100000000000000000000000000EA
:1019F0000000000000000E000000000000000000D9
:101A00000000000000001078040800000000000042
:101A1000000000000000000000001C7804080D0019
:101A2000000000000000E40A00200000000024780C
:101A300004080D00000000000000D80A002000008B
:101A400000002C7804080700000000000000D00A05
:101A500000200000000038780408070000000000A3
:101A60000000C80A002000000000447804080900B3
:101A7000000000000000BC0A0020000000005078B8
:101A800004080900000000000000B00A0020000067
:101A900000005C7804080900000000000000A40AAF
:101AA0000020000000006C7804080900000000001D
:101AB0000000980A0020000000009474040801004F
:101AC0000000000000000000000000000000000016
:101AD00000000E00000000000000000000000000F8
:101AE00000008078040800000000000000000000F2
:101AF00000000000000090780408050000000000CD
:101B00000000997C0020000000009474040801008B
:101B100000000000000000000000000000000000C5
:101B200000000E00000000000000000000000000A7
:101B30000000987804080000000000000000000089
:101B4000000000000000847F040800000000000086
:101B500000000402002004000000A47804080D0026
:101B60000000FD640308380B002000000000EC7D3D
:101B700004080D000000814B03082C0B002000001E
:101B80000000387704080D000000654B0308200BA7
:101B9000002000000000A8780408080000000000F1
:101BA0000000140B002004000000A47704080D00BE
:101BB0000000AD4A0308080B002000000000B078C8
:101BC00004080900000000000000FC0A00200400D6
:101BD0000000587804080300000009690308F00AAF
:101BE00000200000000094740408010000000000C0
:101BF00000000000000000000000000000000E00D7
:101C00000000000000000000000000000000B878A4
:101C100004080000000000000000000000000000B8
:101C20000000C87804080D00000000000000500B00
:101C3000002000000000D07804080A000000000026
:101C40000000717F002000000000DC7804080A001A
:101C5000000000000000797F002000000000E47810
:101C600004080A00000000000000817F002000003E
:101C70000000EC7804080800000000000000440B9D
:101C8000002000000000F478040804000000A16AAD
:101C90000308000000000000000094740408010024
:101CA0000000000000000000000000000000000034
:101CB00000000E0000000000000000000000000016
:101CC000000000790408000000000000000000008F
:101CD000000000000000147904080D00000000005E
:101CE0000000680B002000000000247904080400B4
:101CF00000004567030800000000000000002C7988
:101D000004080D000000000000005C0B0020000033
:101D10000000407904080400000021670308000067
:101D2000000000000000947404080100000000009E
:101D300000000000000000000000000000000E0095
:101D400000000000000000000000000000004879D2
:101D50000408000000000000000000000000000077
:101D60000000C46F04080800000000000000E00B41
:101D70000020000000005C7904080800000000005A
:101D80000000D40B00200000000064790408080063
:101D9000000000000000C80B0020000000006C796B
:101DA00004080800000000000000BC0B0020000038
:101DB0000000747904080800000000000000B00B67
:101DC0000020000000007C790408080000000000EA
:101DD0000000A40B00200000000084790408080023
:101DE000000000000000980B0020000000008C792B
:101DF000040808000000000000008C0B0020000018
:101E00000000987904080800000000000000800B22
:101E1000002000000000A479040808000000000071
:101E20000000740B002000000000947404080100FE
:101E300000000000000000000000000000000000A2
:101E400000000E0000000000000000000000000084
:101E50000000AC7904080000000000000000000051
:101E6000000000000000C079040807000000000026
:101E700000001C0C002000000000CC7904080800C1
:101E8000000000000000100C002000000000D879C5
:101E900004080800000000000000040C00200000FE
:101EA0000000E47904080800000000000000F80BBE
:101EB000002000000000F079040808000000000085
:101EC0000000EC0B002000000000947404080100E6
:101ED0000000000000000000000000000000000002
:101EE00000000E00000000000000000000000000E4
:101EF0000000FC79040800000000000000003B091D
:101F0000002000000000087A04080B000000000018
:101F10000000AC0C002000000000147A04080B0044
:101F2000000000000000A00C002000000000207A4B
:101F300004080B00000000000000940C00200000CA
:101F400000002C7A04080B00000000000000880C40
:101F5000002000000000387A04080B000000000098
:101F600000007C0C002000000000447A04080B00F4
:101F7000000000000000700C002000000000507AFB
:101F800004080B00000000000000640C00200000AA
:101F900000005C7A04080B00000000000000580CF0
:101FA000002000000000687A04080B000000000018
:101FB00000004C0C002000000000747A04080700A8
:101FC000000000000000440C0020000000007C7AAB
:101FD000040807000000000000003C0C0020000086
:101FE0000000887A04080B00000000000000300C9C
:101FF000002000000000947A04080800000000009F
:102000000000240C0020000000009474040801006B
:1020100000000000000000000000000000000000C0
:1020200000000E00000000000000000000000000A2
:102030000000A07A0408000000000000000000007A
:10204000000000000000B47A04080800000000004E
:102050000000DC0C002000000000C07A040808002A
:10206000000000000000D00C002000000000CC7A2E
:1020700004080800000000000000C40C002000005C
:102080000000A47904080800000000000000B80C5B
:10209000002000000000947404080100000000000B
:1020A00000000000000000000000000000000E0022
:1020B0000000000000000000000000000000D87ACE
:1020C00004080000000000000000380900200000A3
:1020D0000000E87A04080B00000000000000240D56
:1020E000002000000000F47A04080B00000000004B
:1020F0000000180D002000000000007B040807000D
:10210000000000000000100D0020000000000C7B0B
:1021100004080700000000000000080D0020000077
:102120000000187B04080700000000000000000DFC
:10213000002000000000247B0408080000000000CC
:102140000000F40C0020000000002C7B04080800B4
:10215000000000000000E80C002000000000947463
:102160000408010000000000000000000000000062
:102170000000000000000E00000000000000000051
:10218000000000000000347B040800000000000094
:1021900000003809002000000000407B0408070010
:1021A000000000000000700D002000000000487BCF
:1021B00004080700000000000000680D0020000077
:1021C0000000507B04080700000000000000600DC4
:1021D0000020000000003872040807000000000022
:1021E0000000580D002000000000407204080700A5
:1021F000000000000000500D0020000000004872A8
:1022000004080700000000000000480D0020000046
:102210000000587B04080700000000000000400D8B
:10222000002000000000607B0408070000000000A0
:102230000000380D002000000000687B0408070043
:10224000000000000000300D002000000000947429
:102250000408010000000000000000000000000071
:102260000000000000000E00000000000000000060
:1022700000000000000000000000F14E0308780D8F
:102280000020977C00201D0000005C2D0408967C37
:10229000002000C80100947C0020E803D007010062
:1022A000000048454C494F535052494E4700357C39
:1022B000002000030100347C002000030100394E9F
:1022C0000308114E0308540E0020CD4D0308814D24
:1022D0000308CC0E0020794E0308614E0308800FDE
:1022E0000020ED4C0308A14C03088C120020074F7E
:1022F00003088D52030868130020ED4A030800000C
:102300000000B81300207D6A0308095203089414E2
:1023100000202D4F03080000000048150020ED4F5D
:102320000308A14F0308D415002069500308395051
:102330000308D8160020F550030839510308781710
:102340000020B87D0020010601006D4F0308414FB9
:102350000308B81800209950030869670308441956
:10236000002065510308C56703080C1A0020AE7DE4
:10237000002001030100707B040800000000000041
:10238000000000000000000000007C7B0408080042
:102390000000000000001C1B002000000000847BE7
:1023A00004080700000000000000141B00200000CB
:1023B0000000947B04080D00000000000000081BD2
:1023C000002000000000A07B040803000000096951
:1023D0000308FC1A002000000000947404080100A7
:1023E00000000000000000000000000000000000ED
:1023F00000000E00000000000000000000000000CF
:102400000000A87B0408000000000000000000009D
:10241000000000000000B87B04080A000000000073
:102420000000546E040800000000C07B04080A008D
:102430000000000000005137040800000000C87BC5
:1024400004080A00000000000000347E00200000A4
:102450000000D07B04080A00000000000000281BD8
:102460000020000000009474040801000000000037
:1024700000000000000000000000000000000E004E
:102480000000000000000000000000000000D87BF9
:102490000408000000000000000000000000000030
:1024A0000000E47B040803000000096903085C1BCA
:1024B000002000000000F07B040803000000096910
:1024C0000308501B002000000000F87B04080300F4
:1024D000000009690308441B002000000000007C84
:1024E00004080500000000000000337C002000000C
:1024F0000000087C040807000000000000003C1BEE
:10250000002000000000147C040807000000000008
:102510000000341B00200000000094740408010037
:1025200000000000000000000000000000000000AB
:1025300000000E000000000000000000000000008D
:102540000000207C040800000000000000000000E3
:10255000000000000000B46F0408030000000969D7
:1025600003088C1B002000000000347C04080300DA
:1025700000000969030860070020000000003C7C9F
:1025800004080300000009690308801B0020000004
:102590000000447C04080300000009690308741B60
:1025A000002000000000A47704080300000009696F
:1025B0000308681B00200000000094740408010058
:1025C000000000000000000000000000000000000B
:1025D00000000E00000000000000000000000000ED
:1025E0000000507C04080000000000000000000013
:1025F0000000000000005C7C040807000000116877
:102600000308F41B002000000000C8770408030042
:10261000000009690308E81B002000000000687C36
:1026200004080300000009690308DC1B0020000007
:102630000000707C04080300000009690308D01B37
:10264000002000000000787C040807000000F56707
:102650000308C81B002000000000CC710408030020
:10266000000009690308BC1B002000000000847CF6
:1026700004080300000009690308B01B00200000E3
:102680000000907C04080300000009690308A41BF3
:10269000002000000000987C040803000000096985
:1026A0000308981B00200000000094740408010037
:1026B000000000000000000000000000000000001A
:1026C00000000E00000000000000000000000000FC
:1026D0000000C14E0308914E0308FC1B0020D55199
:1026E000030800000000881C00205D4D0308394DE0
:1026F0000308141D00200000000000000000C81D99
:102700000020AD5103082D680308681E0020A47C3A
:1027100004080000000000000000000000000000AD
:102720000000B07C04080300000009690308881F4A
:10273000002000000000B87C0408030000000969C4
:1027400003087C1F002000000000405F0408030015
:10275000000009690308701F002000000000C47C0D
:1027600004080300000009690308641F002000003A
:102770000000D07C04080300000009690308581F0A
:10278000002000000000D87C040802000000ED6A70
:1027900003080000000000000000E07C04080200C4
:1027A0000000ED6A03080100000000000000EC7C5E
:1027B000040802000000ED6A0308020000000000A7
:1027C0000000000000000E000000000000000000FB
:1027D000000000000000127C002088136F17010029
:1027E0000000147C002088136F1700000000F87CA4
:1027F00004080000000000000000000000000000CD
:102800000000087D040808000000000000006820A7
:10281000002004000000147D0408080000000000EF
:1028200000005C200020000000005878040804002C
:1028300000002565030800000000000000009474FB
:10284000040801000000000000000000000000007B
:102850000000000000000E0000000000000000006A
:10286000000000000000107C002088136F1701009A
:102870000000245D002088136F1700000000314C19
:1028800003080000000074200020157F00200100D4
:102890000000D42D0408265D002001000000E02D7A
:1028A00004081C5D002002000000E82D0408D6C2C8
:1028B00000200000000000000000D4C20020000042
:1028C000000000000000D2C2002000000000000054
:1028D0000000D0C200200000000000000000CEC2B6
:1028E00000200000000000000000CCC2002000001A
:1028F0000000000000003C0200200000000000007A
:1029000000000F7C002002000000F42D0408507D20
:1029100004080000000000000000000000000000AB
:102920000000087D04080800000000000000F820F6
:10293000002004000000147D0408080000000000CE
:102940000000EC200020000000005878040804007B
:102950000000014C03080000000000000000947417
:10296000040801000000000000000000000000005A
:102970000000000000000E00000000000000000049
:10298000000000000000607D04080000000000005E
:1029900000000000000000000000707D04080D0031
:1029A00000007566030828210020040000007C7DDB
:1029B00004080D000000594C03081C2100200400ED
:1029C0000000887D04080D0000003966030810210E
:1029D000002000000000947D040803000000F1576F
:1029E00003080421002008000000A07D0408030063
:1029F0000000096903082C240020000000009474E2
:102A000004080100000000000000000000000000B9
:102A10000000000000000E000000000000000000A8
:102A20000000000000008C7404080000000000009A
:102A30000000000000000000000001740408040011
:102A400000003D65030800000000000000009474D1
:102A50000408010000000000000000000000000069
:102A60000000000000000E00000000000000000058
:102A7000000000000000F47D0408000000000000D9
:102A800000000000000000000000346104080D0098
:102A90000000000000008821002004000000047EE7
:102AA000040808000000000000007C210020040051
:102AB0000000107E040808000000000000007021E3
:102AC000002004000000187E040808000000000038
:102AD00000006421002004000000207E040808009B
:102AE0000000000000005821002004000000287EA3
:102AF000040808000000000000004C210020040031
:102B00000000307E040808000000000000004021A2
:102B1000002004000000387E0408080000000000C7
:102B20000000342100200400000094740408010017
:102B30000000000000000000000000000000000095
:102B400000000E0000000000000000000000000077
:102B50000000194C03080000000094210020000030
:102B60000000000000000C22002000000000000017
:102B70000000AC220020225D002004000000002E96
:102B80000408205D0020E0150C17000000001F5D08
:102B90000020080000004C1E04081E5D00200500F7
:102BA0000000142E04080000000000000000FC22B9
:102BB00000200403090412010002EF020140830413
:102BC000563200020102030100001201000202025B
:102BD0000040830440570002010203010000090283
:102BE0004300020100C0320904000001020201009A
:102BF000052400100105240100010424020205241B
:102C0000060001070582030800FF09040100020A0B
:102C10000000000705010240000007058102400096
:102C20000000FF000000080000000000000100009C
:102C30000000000000000000000085990308819951
:102C400003087D990308719903086D990308799920
:102C5000030875990308F9990308ED990308C599C4
:102C60000308D9990308B19903089D990308899924
:102C700003080101000000600240106002400000F3
:102C8000000000000000000B000000000000000039
:102C900000000000000000600240286002400100C7
:102CA000000000000000060C000000000000000012
:102CB000000000000000006002404060024002008E
:102CC000000000000000100D0000000000000000E7
:102CD0000000000000000060024058600240030055
:102CE000000000000000160E0000000000000000C0
:102CF000000000000000006002407060024004001C
:102D0000000000000000200F000000000000000094
:102D100000000000000000600240886002400500E2
:102D2000000000000000261000000000000000006D
:102D300000000000000000600240A06002400600A9
:102D40000000000000003011000000000000000042
:102D500000000000000000600240B8600240070070
:102D6000000000000000362F0000000000000000FE
:102D700000000000000000640240106402400000F7
:102D8000000000000000003800000000000000000B
:102D900000000000000000640240286402400100BE
:102DA00000000000000006390000000000000000E4
:102DB0000000000000000064024040640240020085
:102DC000000000000000103A0000000000000000B9
:102DD000000000000000006402405864024003004C
:102DE000000000000000163B000000000000000092
:102DF0000000000000000064024070640240040013
:102E0000000000000000203C000000000000000066
:102E100000000000000000640240886402400500D9
:102E20000000000000002644000000000000000038
:102E300000000000000000640240A06402400600A0
:102E4000000000000000304500000000000000000D
:102E500000000000000000640240B8640240070067
:102E600000000000000036460000000000000000E6
:102E70000000000000000000803F7DEB01087DF0B5
:102E80000108F9EB01080DC7010845F201081DC74B
:102E9000010839C70108E5C60108D5C601080000C8
:102EA00000000000000030270020000000000000AB
:102EB0000000000000000000000000000000000012
:102EC0000000000000000000000000000000000002
:102ED00000000000000000000000000000000000F2
:102EE00000000000000000000000000000000000E2
:102EF00000000000000000000000000000000000D2
:102F0000000000000000000000004300000000007E
:102F100000000000000000000000000000000000B1
:102F2000000000000000000000004300000000005E
:102F30000000000000000000000000000000000091
:102F4000000000000000000000004300000000003E
:102F50000000000000000000000000000000000071
:102F6000000000000000000000004300000000001E
:102F70000000000000000000000000000000000051
:102F800000000000000000000000430000000000FE
:102F90000000000000000000000000000000000031
:102FA00000000000000000000000430000000000DE
:102FB0000000000000000000000000000000000011
:102FC00000000000000000000000430000000000BE
:102FD00000000000000000000000000000000000F1
:102FE000000000000000000000007BF4030857F41C
:102FF000030800000000D27F0408FD730408EA3BC8
:103000000408EA3B0408EA3B0408EA3B0408EA3BFC
:103010000408EA3B0408EA3B0408EA3B0408EA3BEC
:103020000408FFFFFFFFFFFFFFFFFFFFFFFFFFFFA2
:103030000000010041534349490000000000000026
:103040000000000000000000000000000000000080
:103050000000000041534349490000000000000007
:103060000000000000000000000000000000000060
:103070000000000000000000000000000000000050
:103080000000000000000000000000000000000040
:103090000000000000000000000000000000000030
:1080000000230122C2708370038003714371837166
:10801000C37103724372704700230A2203604360F6
:10802000C381C0F80630C0F80A300280704700BF34
:108030002DE9F043924BD9791A7A914200F0B4803D
:10804000D979DA79C1EBC10103EB8101C2EBC2023C
:1080500003EB820291F82B40167CA21E964241D07F
:10806000884ADC681278172A00F0A1800020DA79AB
:1080700085490132A1FB0251490801EB4101521A25
:10808000D2B2DA71002C75D0804A5268C2F308026D
:10809000002A4DD1EFF31182002A49D17C497D4E4F
:1080A0000A68B56800BF0C68A242F9D17A490E6827
:1080B0004FF47A7404FB06F14D1BB5FBF6F504FB97
:1080C0000252D3F89410521AB2F5FA7F04DB002260
:1080D00040F0040083F89120D3F88C20002A51D17D
:1080E000BDE8F083DA7903F11007C2EBC20207EBB7
:1080F000820264B11444002112F8015B29449442C5
:1081000089B2F9D1CAB202EB1121FF295BD05D4AD5
:10811000DC681278172AA9D1B3F864205F490132CC
:1081200092B204208880A3F864204A8000209EE751
:10813000EFF31184102282F31288564D5849AE682D
:108140002A68D20344BF01220A60514A48BFAE6880
:1081500017680A68E4B284F311884F490D684FF438
:108160007A743A4404FB05F1891BB1FBF5F104FB79
:108170000212A6E793F89120002A85D1D3F88C202B
:10818000002AADD0424909688A1AB2F5FA7FA7D908
:1081900093F86620032A02D1424A0021118000226E
:1081A000C3F88C20BDE8F083DC6800206AE7B3F8F0
:1081B00064203A49013292B203208880A3F86420F7
:1081C0004A80002053E7DA7901211C2404FB0212C3
:1081D000B918BA5CE2B1012A13D1082E39D0294A64
:1081E000DC681278172A7FF441AFB3F864202B497A
:1081F000013292B206208880A3F864204A800020D1
:1082000035E7204A1278172A16D0DC6800202EE7BE
:10821000192EDC6848D01B49097817297FF426AF4E
:10822000B3F864101D4D013189B206261046A3F83B
:1082300064106980AE801AE7B3F864201749DC68DF
:10824000013292B205208880A3F864204A80002081
:108250000DE793F89020002AD7D04A78102A00F032
:10826000018140F2FC80303A012ACED851F8010F4A
:1082700018608A798888DB6098809A71004CF5E6EE
:10828000002900205D8D0020ABAAAAAA00ED00E025
:108290007495002010E000E04C970020608D0020D5
:1082A000489700202E5B002091F802C04D780269AB
:1082B00091F8038091F804908E79CF7991F808E0D5
:1082C0000CF0070C45EA0C2508F03F0891F80AC0AD
:1082D00015808D784FEA481848EAD5088D7BA2F8BA
:1082E000028091F803804FEA890040EA981091F8E3
:1082F000058008F0010840EA8820908006F00F060B
:10830000487991F80780F60146EA50004E7AD0800D
:108310004FEA4E0E4EEAD81E06F0030691F806808C
:10832000C87A07F07F074EEA462E3F014E7BA2F83F
:108330000AE047EA1817178106F007078E7A91F8C6
:1083400009E0C00040EA56100E7B0CF01F0C46EA14
:10835000072605F03F054F7BD0816D014FEA8C1C4D
:1083600045EAD7004CEA9E0CA2F80CC01682508257
:10837000C87B91F80EE0CF7C91F8128091F811C083
:108380008E7C4D7D800040EA9E1091F810E07F00C9
:108390000EF0010E47EAD8170CF00F0C91F8108080
:1083A00040EA8E204FEACC1C91F814E090824CEA0F
:1083B000580C887DA2F816C006F07F0691F811C00F
:1083C0000EF0030E47EA4E27360146EA1C16578385
:1083D00091F814C04F7D168305F01F05AD01C00054
:1083E00040EA571045EA9C05D0839583CD7D93F8EC
:1083F000666040F2147015F0010F14BF0746AD27F8
:1084000015F0020F08BFAD2015F0080F50840CBF07
:1084100001200320032E17841CD10A7E93F8675095
:10842000124F996E642A03EB4506A8BF642292029C
:10843000A7FB0272B6F86C700135520905F00F0502
:10844000C91B114483F86750094DA6F86C200A092E
:1084500099662A8007490A68C3F88C2007E6002A33
:108460007FF4D3AE012283F89120CEE61F85EB5135
:108470002E5B0020749500206F4B5B68C3F30803EC
:1084800070B4B3B9EFF311839BB96C4A6C4D1368A8
:10849000AC6800BF11688B42F9D16A4A15684FF485
:1084A0007A7101FB05F2121BB2FBF5F201FB03220C
:1084B00020E0EFF31184102383F3128803F1E0230B
:1084C00061499D681A68D20342BF01220A609D6813
:1084D0005A4BE4B21E680B6884F31188594A146839
:1084E0004FF47A7202FB04F13344491BB1FBF4F1FF
:1084F00002FB0312554B002183F8981093F8991052
:10850000012917D9D3F89C1040F6AC54511AA14256
:1085100010DD4F490978172909D1B3F864104D4C83
:10852000013189B20125A3F864106180A580002182
:1085300083F89910C0B27E2828D093F899201AB3F6
:1085400093F899201B2A58D893F8A820002A6CD0B9
:10855000002280F0200083F8A82093F89920022AB6
:1085600003D1012808BF83F8A0001A7A93F8994034
:1085700093F89910C2EBC20203EB8202224401314C
:10858000C9B2D07383F8991070BC704793F89910F2
:1085900001292BD9197A3048DC790131A0FB01502F
:1085A000400800EB4000091AC9B28C420AD093F887
:1085B0009940187A1972C0EBC00003EB8000611E6D
:1085C00080F82B1093F8A01039B10120002183F816
:1085D000980083F8A010C3F894201D490978172942
:1085E0001DD00021C3F8A42083F8A810012183F82E
:1085F0009910C3F89C2070BC7047154A127800216E
:10860000172A83F89910BFD1B3F8642011490132B9
:1086100092B20220A3F864204A808880B4E7D3F89D
:10862000A4100C48511A0180DBE77D2895D1012266
:1086300083F8A820A8E700BF00ED00E074950020B3
:1086400010E000E04C97002048970020002900200F
:108650005D8D0020608D0020ABAAAAAA03788B4212
:1086600083BF034B03EB4101B1F8AC00002070471E
:1086700000290020044B93F8C40018B1002283F8AD
:10868000C4200120704700BF00290020F0B4C24D73
:1086900095F8EB6005F1C8020244B41E1444A242EE
:1086A00000F07881013A013C002341F2210112F8E7
:1086B000017F83EA07231FB2BBB2002FACBF5B0070
:1086C00081EA43039BB21F0454BF5B0081EA43036A
:1086D0009BB21F0454BF5B0081EA43039BB21F049B
:1086E00054BF5B0081EA43039BB21F0454BF5B008D
:1086F00081EA43039BB21F0454BF5B0081EA43033A
:108700009BB21F0454BF5B0081EA43039BB21F046A
:1087100054BF5B0081EA4303A2429BB2C7D1064427
:10872000B21E013E2A442E4492F8C81096F8C82082
:1087300002EB012292B29A4201D0F0BC704795F848
:10874000EC20002A00F02181431CDBB25C1C2C448D
:108750002B444FF4AF6193F8C86094F8C83003EB32
:1087600006239BB201FB03F31B1303F54873012A95
:10877000A5F8AC3000F00981C31CDBB25C1C2C44B2
:108780002B44022A93F8C86094F8C83003EB062300
:108790009BB201FB03F34FEA233303F54873A5F8BB
:1087A000AE3000F0F280431DDBB25C1C2C442B4445
:1087B000032A93F8C86094F8C83003EB06239BB2F1
:1087C00001FB03F34FEA233303F54873A5F8B030F8
:1087D00000F0DB80C31DDBB25C1C2C442B44042A5C
:1087E00093F8C86094F8C83003EB06239BB201FBF2
:1087F00003F34FEA233303F54873A5F8B23000F0D2
:10880000C48000F10903DBB25C1C2C442B44052A14
:1088100093F8C86094F8C83003EB06239BB201FBC1
:1088200003F34FEA233303F54873A5F8B43000F09F
:10883000AC8000F10B03DBB25C1C2C442B44062AF9
:1088400093F8C86094F8C83003EB06239BB201FB91
:1088500003F34FEA233303F54873A5F8B63000F06D
:10886000948000F10D03DBB25C1C2C442B44072ADE
:1088700093F8C86094F8C83003EB06239BB201FB61
:1088800003F34FEA233303F54873A5F8B8307CD0DF
:1088900000F10F03DBB25C1C2C442B44082A93F834
:1088A000C86094F8C83003EB06239BB201FB03F3C6
:1088B0004FEA233303F54873A5F8BA3065D000F1C9
:1088C0001103DBB25C1C2C442B44092A93F8C860CA
:1088D00094F8C83003EB06239BB201FB03F34FEA85
:1088E000233303F54873A5F8BC304ED000F11303D1
:1088F000DBB25C1C2C442B440A2A93F8C86094F821
:10890000C83003EB06239BB201FB03F34FEA23338A
:1089100003F54873A5F8BE3037D000F11503DBB27C
:108920005C1C2C442B440B2A93F8C86094F8C83084
:1089300003EB06239BB201FB03F34FEA233303F55A
:108940004873A5F8C03020D000F11703DBB25C1CDF
:108950002C442B440C2A93F8C86094F8C83003EBDD
:1089600006239BB201FB03F34FEA233303F548735D
:10897000A5F8C23009D000F11903DBB25A1C2A4411
:108980002B4493F8C83092F8C830012385F8C430DE
:10899000F0BC70470023C2E600290020794B5B68D9
:1089A000C3F3080370B5B3B9EFF311839BB9764AEB
:1089B000764D1368AC6800BF11688B42F9D1744AD8
:1089C00015684FF47A7101FB05F2141BB4FBF5F442
:1089D00001FB034320E0EFF31181102383F312889E
:1089E0006A4C6C4AA5682368DE0344BF0123136008
:1089F000654B48BFA5681E681368C9B281F311882A
:108A0000634A14684FF47A71334401FB04F2521B39
:108A1000B2FBF4F201FB03235F4CD4F8F020C4F85E
:108A2000F0309B1AB3F5FA5F1AD9002384F8F430BA
:108A300084F8F530A1282FD0A22800F09C8094F86B
:108A4000F52094F8EB300025A2B16A1C6119D5B26B
:108A5000C0B29D4281F8C80084F8F4500CD070BDBB
:108A600094F8F450002DE5D094F8F52094F8EB300C
:108A7000002AEAD19D42F2D194F8F630052B72D04B
:108A8000062B03D194F8C9301E2B0DD0002384F897
:108A9000F43084F8F53070BD01221B2384F8F520F2
:108AA00084F8EB300025D0E76A1E002A4FF0000161
:108AB00050DD08460B462344013093F8C830DBB242
:108AC00083EA0105ED074FEA530348BF83F08C03A7
:108AD00083EA5105EE074FEA530348BF83F08C0346
:108AE00083EA9105ED074FEA530344BF83F08C03FB
:108AF000DBB283EAD105EE074FEA530344BF83F0AC
:108B00008C03DBB283EA1115ED074FEA530344BF30
:108B100083F08C03DBB283EA5115EE074FEA53036F
:108B200044BF83F08C03DBB283EA9115ED074FEA73
:108B3000530344BF83F08C03DBB283EAD115590899
:108B4000EB0748BF81F08C01C0B248BFC9B2904268
:108B50000346B0DB224492F8C8308B4296D1032002
:108B6000FFF794FD92E70020FFF790FD94F8C930DD
:108B70001E2B8BD198E70122232384F8F52084F85B
:108B8000EB308FE700ED00E07495002010E000E08E
:108B90004C970020489700200029002007299DBFFE
:108BA000034B03EB8101B1F8F8000020704700BFD0
:108BB000002900201A4B93F8182132B193F81C2198
:108BC0000021A82A83F8181101D00020704793F8DB
:108BD0002F21002AF9D110B4DFED126A03F58E714E
:108BE00003F1F40003F59672B4EE047ACC780B79B5
:108BF00003EB042307EE903AF8EEE77AB0EE666AEC
:108C0000A7EE876A02318A42FCEEC67A17EE903AE6
:108C100040F8043FEAD101205DF8044B704700BFE3
:108C2000002900200080BBC310B5044622F032FEAC
:108C30000F4BD3F83421C3F83401801A41F2883243
:108C40009042E4B205D983F81C41012283F838210F
:108C500010BD93F838219918142A81F81C4103D1CA
:108C6000012283F8182110BD0132D2B2EEE700BF15
:108C700000290020034B03EB4101B1F83C01C0087F
:108C8000704700BF00290020724B93F85C21002A36
:108C900000F0C28070B493F85D41B3F85E5103EB0D
:108CA0004401002091F8636191F8642183F85C012C
:108CB00042EA0622954202D0002070BC704793F829
:108CC0006121012A00F0AA80812AF6D10320102C0C
:108CD00040F2A68093F8654193F8635193F86411CC
:108CE00093F8662141EA052142EA04221024A3F800
:108CF0003C11A3F83E2183F85D4193F8671193F886
:108D00006821032C42EA0122A3F84021D5D093F830
:108D1000691193F86A21042C42EA0122A3F8422146
:108D2000CBD093F86B1193F86C21052C42EA012209
:108D3000A3F84421C1D093F86D1193F86E21062C4D
:108D400042EA0122A3F84621B7D093F86F1193F8B5
:108D50007021072C42EA0122A3F84821ADD093F8F4
:108D6000711193F87221082C42EA0122A3F84A21DA
:108D7000A3D093F8731193F87421092C42EA0122CD
:108D8000A3F84C2199D093F8751193F876210A2C09
:108D900042EA0122A3F84E218FD093F8771193F87D
:108DA00078210B2C42EA0122A3F8502185D093F8B8
:108DB000791193F87A210C2C42EA0122A3F852216E
:108DC0003FF47BAF93F87B1193F87C210D2C42EAA2
:108DD0000122A3F854213FF470AF93F87D1193F86A
:108DE0007E210E2C42EA0122A3F856213FF465AF02
:108DF00093F87F1193F88021102C42EA0122A3F806
:108E000058217FF45AAF93F8811193F8822142EAF6
:108E10000122A3F85A2150E700207047104656E778
:108E2000002C3FF44AAF93F8631193F86421012CAE
:108E300042EA0122A3F83C213FF43FAF93F86511C9
:108E400093F86621022C42EA0122A3F83E217FF426
:108E500054AF32E700290020654B5B68C3F3080379
:108E600070B4B3B9EFF311839BB9624A624D1368D2
:108E7000AC6800BF11688B42F9D1604A15684FF4A5
:108E80007A7101FB05F2141BB4FBF5F401FB0343FB
:108E900020E0EFF31181102383F31288564C584AD7
:108EA000A5682368DE0344BF01231360514B48BF0C
:108EB000A5681E681368C9B281F311884F4A146807
:108EC0004FF47A71334401FB04F2521BB2FBF4F20B
:108ED00001FB03234B49D1F888219A1AB2F57A6F26
:108EE00017D891F88C21C1F88831BAB1022A20D064
:108EF000242A91F85D3178D901320233D2B25B0075
:108F00009A4281F88C211CDB01339A4265D070BCF7
:108F100070470022C1F8883181F88C21A828F6D149
:108F2000002281F85C21A1F85E2191F85D310446B0
:108F300003E0C4B281F85D4123468D1885F8604195
:108F4000DAE7B1F85E31C0B283EA002000B200284F
:108F5000B8BF41F2210283B2B4BF82EA43035B008F
:108F60009BB2180446BF41F2210282EA43035B0030
:108F70009BB21A0446BF41F2210282EA43035B001E
:108F80009BB21E0446BF41F2210282EA43035B000A
:108F90009BB21D0446BF41F2210282EA43035B00FB
:108FA0009BB21C0446BF41F2210282EA43035B00EC
:108FB0009BB2180446BF41F2210282EA43035B00E0
:108FC0009BB21A0446BF41F2210282EA43035B00CE
:108FD0009BB2A1F85E3170BC70470022012381F87A
:108FE0008C2181F85C3170BC7047C4B2A5E700BF2A
:108FF00000ED00E07495002010E000E04C970020A8
:109000004897002000290020F8B5124D95F8A521B9
:1090100002B9F8BD104B1C682368DE693EB12046DA
:1090200005F5C871B047002385F8A531F8BD05F5F1
:10903000C877BE1800E023689B6820469847002840
:10904000F9D0236817F8011B1B6820469847B742E0
:10905000F1D1E8E7002900207060002003788B42FE
:1090600010D9094B03EB810193F8D831D1F8A8014D
:109070001BB900F5777080B27047400800F5777033
:1090800080B2704700207047002900202DE9F04190
:10909000C54C94F8E00108B9BDE8F08194F8E111FD
:1090A000002384F8E031002900F03B8194F8E4319A
:1090B000BE4D94F8F4215BB213F1630FB8BF95F97C
:1090C0000030002A40D013F1310F80F2AD8113F14E
:1090D000380F80F2CC8113F13D0F80F2CC8113F177
:1090E000420F80F2CC8113F1450F80F2CC8113F155
:1090F000470F80F2CC8113F1490F80F2CC8113F13C
:109100004A0F00F0CC8113F14B0F00F0CB8113F12B
:109110004C0F00F0CB8113F14D0F00F0CA8113F119
:109120005C0FB8BF642680F2C781D4F8F801A04F65
:1091300000FB06F087FB0076C017C0EB661004EB5F
:10914000820680B2C6F8A8012B7094F8F07194F8EA
:10915000F13194F8F20194F8F3611B0443EA0763D8
:10916000334343EA002303F0F020B0F1E02F00F096
:10917000CF80102794F8020294F8E631D4F8046204
:1091800094F808C23678034103F00F039E4210D9C9
:109190000B2B0ED8002A40F0FF8094F8E68194F85B
:1091A000E7E104EB83030CEA08080EEB082EC3F892
:1091B000A8E194F8E831034103F00F039E4210D96F
:1091C0000B2B0ED8002A40F0EB8094F8E88194F83D
:1091D000E9E104EB83030CEA08080EEB082EC3F860
:1091E000A8E194F8EA31034103F00F039E4210D93D
:1091F0000B2B0ED8002A40F0F68094F8EA8194F800
:10920000EBE104EB830308EA0C080EEB082EC3F82D
:10921000A8E194F8EC31034103F00F039E4210D90A
:109220000B2B0ED8002A40F0E28094F8EC8194F8E1
:10923000EDE104EB83030CEA08080EEB082EC3F8FB
:10924000A8E194F8EE31034103F00F039E4240D8A9
:109250000D2F24DD94F8F031034103F00F039E42FB
:1092600010D90B2B0ED80AB19A420BD094F8F0818A
:1092700094F8F1E104EB83030CEA08080EEB082EE6
:10928000C3F8A8E1102F0AD194F8F23143FA00F0A4
:1092900000F00F00B04202D20B2840F29380A1B33D
:1092A00094F8A5318BB394F8E6311B062DD422F047
:1092B000F1FAD4F8DC3100F57A70A8601BB15A6875
:1092C000121A002A1BDB3B493B4AEB6001200A6073
:1092D000E2E60B2BBCD80AB19A42B9D094F8EE81E1
:1092E00094F8EFE104EB83030CEA08080EEB082E78
:1092F000C3F8A8E1ACE75A68121A002AE4DA03F1CD
:1093000008019B68002BF6D1DEE70120BDE8F08163
:1093100094F8E60100063FF52CAF28480C270360BF
:1093200028E722F0B7FA214D254B6A78A3FB0013FA
:109330005B0C12B394F8E40194F8E521D2B2122A3E
:1093400018BF012A08D002F0EF02A2F1A202B2FA7D
:1093500082F2520902B96A70D4F8FC1194F8F4212F
:1093600099B18B4247D0591A012947D094F8E1119D
:10937000A4F80002C4F8FC31E7E694F8E42194F87C
:10938000E50100EB022080B2E6E7A4F80002C4F891
:10939000FC3194F8E111D8E693427FF4FEAE08E781
:1093A00093427FF412AF1CE7002900200000002048
:1093B0001F85EB51DC2A002004000020440200201D
:1093C00083DE1B4312B190423FF469AF94F8F2215F
:1093D00094F8F33104EB800002EA0C0C03EB0C234D
:1093E000C0F8A8315BE793427FF407AF11E79A42D8
:1093F0007FF41BAF25E794F8E111A6E6002AB5D06B
:10940000B4F80062D4F8F8112D4F861B143E01FB0E
:1094100006F187FB0176C917A1EBE60104EB820692
:1094200089B2C6F8A811A1E76FF0300C01262548D3
:1094300006F1FF3800EB480E00EB46069EF801E00F
:10944000777810F91860A7EB0E07981B00FB07F060
:10945000ACEB060690FBF6F0704440B2002801DA4F
:10946000002662E66428A8BF642006465DE66FF029
:10947000370C0226DBE76FF03C0C0326D7E76FF0D2
:10948000410C0426D3E76FF0440C0526CFE76FF0BC
:10949000460C0626CBE76FF0480C0726C7E79C462C
:1094A0000826C4E76FF04A0C0926C0E79C460A2646
:1094B000BDE79C460B26BAE76FF05B0C0C26B6E7BF
:1094C000676666668CFD0308324B5B68C3F308036E
:1094D00070B4B3B9EFF311839BB92F4A2F4D1368C2
:1094E000AC6800BF11688B42F9D12D4A15684FF462
:1094F0007A7101FB05F2141BB4FBF5F401FB034385
:1095000020E0EFF31181102383F31288234C254AC6
:10951000A5682368DB0344BF012313601E4B48BFCB
:10952000A5681E681368C9B281F311881C4A1468C3
:109530004FF47A71334401FB04F2521BB2FBF4F294
:1095400001FB0323184AD2F80C12C2F80C325B1A42
:1095500041F288318B420AD9C0B2012382F8E4017A
:1095600082F81032002382F8E03170BC704792F824
:1095700010320F2BF9D8D1180133DBB2C0B2102B47
:1095800081F8E40182F81032ECD1012382F8E03155
:1095900070BC704700ED00E07495002010E000E022
:1095A0004C9700204897002000290020036933F8D9
:1095B000110000EB8000C01000F55C7080B27047B5
:1095C000436993F82320002A00F0C3802DE9F0437B
:1095D000714ADC7D12780021162A04F0040604F09A
:1095E000080583F8231000F0B680002E40F0BE80FE
:1095F0001DB11A8C42F001021A8493F802909979F5
:1096000093F801C00269DE7893F80480DF7909F0ED
:10961000070001F00F014FEAC11E4CEA002106F0DD
:109620003F06187A1180997893F80AC0760146EAC5
:10963000D106D97856804FEA880848EA911193F804
:1096400005809E7B08F0010841EA882191805979C4
:109650004EEA5101D18007F07F07997993F807E02E
:109660003F0147EA1117597A1781400040EADE109E
:1096700001F0030140EA41205F7BD97A50810CF070
:109680001F0C587A4FEA8C1C4CEA90009081187B92
:1096900093F80AC007F0070740EA072006F03F06E4
:1096A0005F7B1082C90041EA5C117601D18146EAF4
:1096B000D7015182D97B93F80E8093F810E093F88C
:1096C00011C0DE7C9F7C587D890041EA98110EF024
:1096D000010E41EA8E21918293F812E0197C0CF080
:1096E0000F0C76004FEACC1C46EADE1E4CEA510114
:1096F0001E7D93F811C0D18207F07F073F01997D4D
:1097000047EA1C1706F0030693F814C017834EEAC5
:1097100046265F7D568314F0010F40F2147300F06B
:109720001F0014BF1E46AD26800114F0020F4FEA41
:10973000C10140EA9C0008BFAD2341EA5711002D4A
:109740009083D183168453840CBF01200320BDE88D
:10975000F0831046704711491F8C0C8066B147F0AA
:1097600002021A8412B29DB94A8046E71A8C4DB99A
:1097700042F002021A8440E745B147F001021A8420
:1097800012B2F1E742F003021A8436E73AB2EBE78D
:1097900047F003021A84F3E75D8D0020608D0020FE
:1097A000394B5B68C3F30803F0B413BBEFF31183C9
:1097B000FBB9364A364E1368B56800BF1468A34239
:1097C000F9D1344A16684FF47A7404FB06F2551B3B
:1097D000CA69B5FBF6F504FB03539A1A40F6AC547C
:1097E000A2422DDC91F822406CB3182C37D9F0BC82
:1097F0007047EFF31184102383F31288244D264A17
:10980000AE682B68DB0344BF012313601F4B48BFC6
:10981000AE681F681368E4B284F311881D4A1568A6
:109820004FF47A7404FB05F23B44921BB2FBF5F251
:1098300004FB0323CA6940F6AC549A1AA242D1DD54
:10984000002281F822200F28D1D10122CB6108709B
:1098500081F82220002381F82330F0BC7047631C7C
:10986000DBB2192B81F822300855F3D10B4B1B7852
:10987000162B08BF0A4B4FF0010081F8230008BFE8
:109880009A80F0BC704700BF00ED00E074950020A6
:1098900010E000E04C970020489700205D8D0020EC
:1098A000608D0020094BDFED0A6ADFED0A7A03EBD9
:1098B000810191ED857AB8EE477AE7EE267AFCEEE3
:1098C000E77A17EE903A98B2704700BF002900205F
:1098D00001F11F3F00405C44714A92F8543233B1A9
:1098E00092F85A320021162B82F8541201D000202F
:1098F000704792F85932022BF0B440F2CE8002F554
:109900001670184402F25A21D32311F8014F634014
:1099100013F0800F4FEA430318BF83F0D503DBB287
:1099200013F0800F4FEA430318BF83F0D503DBB277
:1099300013F0800F4FEA430318BF83F0D503DBB267
:1099400013F0800F4FEA430318BF83F0D503DBB257
:1099500013F0800F4FEA430318BF83F0D503DBB247
:1099600013F0800F4FEA430318BF83F0D503DBB237
:1099700013F0800F4FEA430318BF83F0D503DBB227
:1099800013F0800F4FEA430318BF83F0D5038842DA
:10999000DBB2BAD192F87112994202D00020F0BC29
:1099A000704792F8600292F85F6292F8641292F83F
:1099B000683292F86C4292F85C52B2F85CC2D2F80B
:1099C0005C7200F00F00C00140EA560001F01F0178
:1099D00092F86362C2F82002890141EA960103F01D
:1099E0003F0392F8676292F86B02C2F82C125B0197
:1099F00043EAD60392F85B12C2F8383204F07F04CF
:109A0000B2F86032D2F86062240105F0070544EA3A
:109A1000101041EA0521C3F30A13C2F84402B2F858
:109A20006452C2F81412B2F86642D2F86802B2F870
:109A30006A12C2F82432D2F86C32C0F38A10C1F331
:109A40004A01C3F3CA13CCF3CA0CC7F38A37C6F36F
:109A5000CA366D09C4F30A04C2F83C02C2F84012C7
:109A6000C2F818C2C2F81C72C2F82862C2F830529A
:109A7000C2F83442C2F8483292F8703292F86F025B
:109A8000B2F86E12DB0043EA5013C1F38A01C2F848
:109A90005032C2F84C12012081E7D3237AE700BF8D
:109AA00000290020944B5B68C3F3080370B443BBE8
:109AB000EFF311832BBB914A914D1368AC6800BF43
:109AC00011688B42F9D18F4A15684FF47A7101FB06
:109AD00005F2141B8C4AB4FBF5F401FB0343D2F8E6
:109AE000981201F24C41994233D201240021C2F86C
:109AF000983282F8580282F89C4282F8541270BC64
:109B00007047EFF31181102383F312887C4C7F4A56
:109B1000A5682368DE0344BF01231360774B48BF69
:109B2000A5681E681368C9B281F31188754A146864
:109B30004FF47A7101FB04F23344521BB2FBF4F28E
:109B400001FB0323704AD2F8981201F24C4199426A
:109B5000CBD392F89C120029C7D002298ABF92F871
:109B60005942052402348C42C9DD4B1CDBB29C42B5
:109B70001144D4BF0125002582F89C3281F8580297
:109B800082F85452BBDC92F85A520023162D82F808
:109B90009C32B4D06B00290648BF83F0D503DBB2FA
:109BA00013F0800F4FEA430318BF83F0D503DBB2F5
:109BB00013F0800F4FEA430318BF83F0D503DBB2E5
:109BC00013F0800F4FEA430318BF83F0D503DBB2D5
:109BD00013F0800F4FEA430318BF83F0D503DBB2C5
:109BE00013F0800F4FEA430318BF83F0D503DBB2B5
:109BF00013F0800F4FEA430318BF83F0D503DBB2A5
:109C000092F8590213F0800F4FEA430318BF83F014
:109C1000D5030228DBB247D93D490844023111F887
:109C2000016F734013F0800F4FEA430318BF83F0B6
:109C3000D503DBB213F0800F4FEA430318BF83F064
:109C4000D503DBB213F0800F4FEA430318BF83F054
:109C5000D503DBB213F0800F4FEA430318BF83F044
:109C6000D503DBB213F0800F4FEA430318BF83F034
:109C7000D503DBB213F0800F4FEA430318BF83F024
:109C8000D503DBB213F0800F4FEA430318BF83F014
:109C9000D503DBB213F0800F4FEA430318BF83F004
:109CA000D5038142DBB2BAD1224492F857229A42BC
:109CB0007FF425AF7A2D08D07C2D06D0282D7FF497
:109CC0001EAF144B01221A7019E7134A136E572B5B
:109CD0003FF715AF114912480D684C680821995497
:109CE00013440121C3F80150C3F80540136E0170FD
:109CF0000933136603E700BF00ED00E07495002010
:109D000010E000E04C970020002900204897002038
:109D1000582B002064600020746000205D2B002020
:109D20006560002070B5484E484C337805462BB12D
:109D3000D4F8A03283429CBF00233370444B1B688D
:109D4000D8070ED594F8A43294F8A5229A4233D1BC
:109D5000D4F8C832ED1A002D28DD012084F8A602BF
:109D600070BD99043DD43B4883689847C20713D51A
:109D700000F00202002A3849D4F8A83214BF0122A8
:109D800000220A742B440CBF0121002101223170F2
:109D9000C4F8A03284F8A622430744BF012384F804
:109DA000C432D4F8C832ED1A002DD6DC94F8A632AD
:109DB000ABB994F8C40270BDD4F8A822264984F83F
:109DC000A5322A4401230020C4F8A022087484F894
:109DD000A6323370D4F8C832ED1A002DBDDC012054
:109DE00070BDB4F8AC320BBBB4F8AE32F3B9B4F812
:109DF000B032DBB9B4F8B232C3B9B4F8B432ABB9EB
:109E0000B4F8B63293B9B4F8B8327BB9B4F8BA3210
:109E100063B9B4F8BC324BB9B4F8BE3233B9B4F854
:109E2000C0321BB9B4F8C232002B91D0D4F8A8329A
:109E3000094A2B440021C4F8A0320123117484F88C
:109E4000A6323370C6E700BF0E5B00200029002059
:109E5000BCB60020D0810020000000200020704708
:109E60000020704701207047024B03EB4101B1F81D
:109E7000CC02704700290020044B93F8F00218B17F
:109E8000002283F8F0220120704700BF0029002043
:109E9000024B03EB8101B1F8F40270470029002066
:109EA00003788B4283BF034B03EB4101B1F82C03D2
:109EB000002070470029002038B5394C054621F0B4
:109EC000E9FCD4F88033C4F88003C01AB0F57A7F77
:109ED0001CDD0023282284F8843384F8863384F838
:109EE000873384F885233D2D42D03E2D0DD12D4A58
:109EF000C4F88823012384F886330123157084F87D
:109F0000843394F885239A4220D038BD94F8842372
:109F1000002AE8D0531CDBB2D4F8881384F88433C9
:109F2000062B8D54EDD194F88633012B27D094F86D
:109F30008733012B27D00023282284F8843384F828
:109F4000863384F8873384F8852338BD94F88633C4
:109F5000012B04BF022384F8863394F88733012B46
:109F600015D00022282384F8842384F8853338BD53
:109F70000D4AC4F88823012384F88733BDE78B7822
:109F8000282BD4D8F1E78B78092BD4D8EDE702231E
:109F900084F8873321F07EFCC4F88C03E1E700BF2E
:109FA00000290020582C00204C2C002030B4024600
:109FB000002305251E2400E00232032BD4BF00211C
:109FC000012100F813100133042B04D0122B54701C
:109FD000F2D130BC70475570EEE700BF024B036012
:109FE00043608360C3607047E803D007024B03EB14
:109FF0004101B1F8AC02704700290020024B03EB8D
:10A000004101B1F8AC0270470029002030B4264C61
:10A0100094F88633022B02D0002030BC704794F8AD
:10A020005A53EDB1013D04F2593353FA85F504F565
:10A030005670002210F8013B534083EA0313DBB251
:10A04000120AD90042EA0322854281EA131382EA06
:10A050000302EFD122B1002084F8860330BC7047A0
:10A06000B4F858335BBA9BB243F60162934209D00D
:10A0700043F60362934205D0002384F8863301201F
:10A0800030BC7047094AA2F12E0102F12005D079B7
:10A090009379023203EB0023C3F3CC03AA4221F8E5
:10A0A000023FF4D1E8E700BF00290020582C00202F
:10A0B0004E4B5B68C3F3080370B4B3B9EFF311837D
:10A0C0009BB94B4A4B4D1368AC6800BF11688B427B
:10A0D000F9D1494A15684FF47A7101FB05F2141B56
:10A0E000B4FBF5F401FB034320E0EFF311811023EF
:10A0F00083F312883F4C414AA5682368DB0344BFC1
:10A10000012313603A4B48BFA5681E681368C9B2A3
:10A1100081F31188384A14684FF47A71334401FB93
:10A1200004F2521BB2FBF4F201FB0323344AD2F8CF
:10A130009013591AB1F5FA7F14D90021C2F890335F
:10A1400082F8941382F89513C3B2042B26D0202BE7
:10A1500024D092F8981309B9552838D0814216D1E5
:10A16000002109E092F8951399B992F89413C2F876
:10A170009033C3B20029E8D092F8960354180138FE
:10A18000814284F8A0331DD0013182F8941370BC51
:10A190007047013982F8951370BC70470021022482
:10A1A0004FF6FF7082F89C43A2F89A035418581E89
:10A1B000814282F8983382F8963382F8971384F8B4
:10A1C000A033E1D1012382F8C03370BC7047012471
:10A1D0001F2582F89803A2F89A1382F8A03382F818
:10A1E000974382F89C4382F89653CDE700ED00E058
:10A1F0007495002010E000E04C9700204897002064
:10A20000002900200D49B1F8C13330B508224AF2C7
:10A21000010580EA030414F0010F4FEA530318BF4D
:10A220006B4002F1FF3218BF9BB212F0FF024FEAFF
:10A230005000EED1A1F8C13330BD00BF002900208D
:10A2400008462FF0D3B900BF0FB400B583B004ABFC
:10A25000054953F8042B0193002023F07BFC03B045
:10A260005DF804EB04B0704741A200080EB470B56D
:10A2700083B007AC0646482054F8045B2FF0B6F9CB
:10A2800020202FF0B3F930462FF022F93A202FF09A
:10A29000ADF92A46234609490194002023F05AFCCF
:10A2A00004460A202FF0A2F9054A136803341B1B49
:10A2B000136003B0BDE8704003B0704741A20008CE
:10A2C00024820020F8B50F4BD3F8C453D3F8C84309
:10A2D000D3F8CC63A9B1831E00EB410727441E4489
:10A2E00004441D4434F9022B36F9023F35F9020FBC
:10A2F000134403EBD373A0EB63002FF05FFAA74284
:10A30000F0D1F8BD002900202DE9F04F3B4E3C492B
:10A31000D6F8C473DFF80CA1DFF80C913C4607F1C6
:10A32000300B44F8040B06F5777306F5747885B0A6
:10A330005D4606F57A76F8EC016AB3EC017AF6EC44
:10A34000017AB1EC010A0293FDEEE66ABDEEC77A2E
:10A35000FDEEE77AE4EC016A84ED027AC4ED057A59
:10A360000191039135F0A0FABAEC010A25F8020B2D
:10A3700035F09AFAB9EC010AA88035F095FA214B2C
:10A38000E8869845DDE90113D5D11F4907F1280377
:10A39000F1EC017AFDEEE77A17EE902A23F8022B12
:10A3A0005B45F5D1194A1A4B11781C8858889A8850
:10A3B000DB88BC87F887A7F84020A7F8423071B146
:10A3C00007F14403134A03EB4101F2EC017AFDEE7D
:10A3D000E77A17EE900A23F8020B9942F5D10E495D
:10A3E0000E4A0F4B498852681B88A7F86410A7F8DB
:10A3F0006620A7F86E3005B0BDE8F08F0029002078
:10A40000C47E0020DC2C0020105B00205958002066
:10A41000608D0020F42C0020845B00208C5B0020E9
:10A420002E5B002054980020D07E0020F8B5A14C6F
:10A43000A14F382200212DED048B204635F058F82D
:10A440009E4B97F81764B3F85420228410330FCB37
:10A4500097F8185484F82450102E04F1080585E864
:10A460000F000AD801239648B340184028B90EB906
:10A470003046B6E0012E00F0B480924A924913684B
:10A48000216043F002034FF48071904D89481360BE
:10A490006560218327F028F8B7F82434002B00F0FA
:10A4A0009F8007EE903AF8EE674ADFED897ADFED9C
:10A4B000892A894B9FED896A9FED891ADFED891AF8
:10A4C0009FED898A9FED890ADFED890ADFED898A90
:10A4D0009FED893A64EEA74AB0EE622AFDEEE47A77
:10A4E00074EEA22A17EE901AFDEEE27A203117EEF2
:10A4F000902A03F16C002032402975D8F4EEC14A4D
:10A50000F1EE10FA40F3CF80B0EE647ADFED7B5AC3
:10A51000DFED7B6A01E0B0EE677AB4EEE67AF1EE49
:10A5200010FA77EE657AF6DCF4EEE17AF1EE10FAE5
:10A530000FD5B0EE677ADFED715ADFED726A01E098
:10A54000B0EE677AB4EEE67AF1EE10FA77EEA57A1D
:10A55000F6D4F4EEC27AF1EE10FA40F3998071EE7F
:10A56000677A27EEA77AF0EE405AE7EE085AB0EE87
:10A57000605AA7EE255A67EE876AE6EE857A402A8A
:10A5800035D9B0EE467AF6EE006AF7EE005AF7EEED
:10A59000003AB0EE639AA7EE839A2433B0EE634A92
:10A5A00083EE895AA7EEC34A65EE255A65EE267AF0
:10A5B00025EE077A24EE055A03ED036A03ED046ADB
:10A5C00003ED016A03ED026A43ED097A43ED077A70
:10A5D00043ED085A03ED067A03ED055A98428BD1F4
:10A5E0000120BDEC048BF8BDF0EE467AC7E7F4EE2F
:10A5F000C24AF1EE10FA59DDF0EE626A9FED3F5A61
:10A60000DFED3F5A01E0F0EE476AF4EEE56AF1EE65
:10A6100010FA36EEC57AF6DCB4EEE17AF1EE10FA15
:10A620000FD5F0EE476A9FED355ADFED365A01E05F
:10A63000F0EE476AF4EEE56AF1EE10FA37EE057ACD
:10A64000F6D4B4EEC27AF1EE10FA29DCB4EEE87A70
:10A65000F1EE10FA48BF31EEC77A67EE076AB0EE46
:10A66000405AA6EE885AF0EE603AE6EE853A27EEBA
:10A67000264AF7EE005AA4EE237AB8EE005A75EE99
:10A68000C75AF6EE006A27EE057A65EEA66A7EE7FF
:10A69000F4EEE87AF1EE10FA48BF71EEE77A60E77F
:10A6A00031EE477AD9E7F0EE647A3DE7B0EE627AB0
:10A6B000B2E700BF2C9800200029002064980020F9
:10A6C000011D0100285B0020E9140308E5140308BC
:10A6D0002EE3CD3BDB0FC93F282D002000000000FA
:10A6E000DB0F4940DB0F49C092E741B99730083C86
:10A6F00015A82ABEDB0FC9BFF304353FDB0FC940E5
:10A70000E4CB1641E4CB16C12DE9F04F674C684D00
:10A71000684E0023202223208FB086F89434C5E9A8
:10A720000033C5E90233A36184F85F2021F058F9B2
:10A73000614BA069636102232374002800F0B1809B
:10A74000A0612FF0A3FB96F89584E0610746B8F16D
:10A75000000F45D0594B94F85420997984F85C1037
:10A760000020216DC6F898140D2A84F856002ED1C9
:10A77000534ED9783268534F276042F0010232605D
:10A78000514E524A66604FF07E5626622265DE794F
:10A7900001B307291ED04E4A84F85E00012306B19A
:10A7A0004C4AC4F85720D4F85720404884F85D102C
:10A7B00007EE103A07EE902AB8EEC77A67EE277ACE
:10A7C000FCEEE77AC5ED007A28F04EFF01200FB0CD
:10A7D000BDE8F08F9B78404A581E84F85E00DEE7A3
:10A7E0002FF058FB18B1202380F807808371402197
:10A7F00021F01CFC642021F099F8A06918B11C22FA
:10A8000000238271C371092121F010FCA06921F09D
:10A81000AFFC1FB11C220023BA71FB71092138461D
:10A8200021F004FC384621F0A3FCDFF88080DFF83B
:10A83000B490DFF8B4B0012386F895344FF0000AE5
:10A840000A27002301AA7921404628F05FFE98B12B
:10A85000BDF80C30A9F81230B9F81230692B1CD8A9
:10A86000DBF80030013307D01C4B1D4A1A600A2068
:10A8700021F0B6F829F07CF9013FE2D10AF1010A92
:10A88000BAF10A0F3FF466AF27F0A4FA4FF49670BE
:10A8900000FB0AF021F0A4F8D2E70D2384F854302D
:10A8A00058E7212020F06EFA4AE700BF64980020A4
:10A8B000C07E00200029002000300140C897002001
:10A8C000285B002069360308251C0308D51D0308F2
:10A8D00000007A440000FA410000FA42ECFF012037
:10A8E00077FA31F40000002000000F082DE9F8434A
:10A8F0009E4C0546D4F8A83404F29C4104F2A440CE
:10A900009847B4F99C349A4A07EE103AB4F99E3449
:10A9100007EE903AB4F9A03406EE903A954BB8EEB3
:10A92000C77AF8EEE77AF8EEE66A1B7D82ED007AE8
:10A93000C2ED017AC2ED026A6BB194F8C034023BF9
:10A94000062B36D8DFE813F0D200D900E200E90088
:10A95000F200FB00040104F5996393ED046AD3ED62
:10A96000035A93ED052A93ED013AD3ED002AD3ED76
:10A97000023A93ED064AD3ED074A93ED085A27EEC3
:10A98000866A67EEA55A67EE827AA3EE076AE2EE60
:10A99000875AE3EE877AB0EE467AE4EE265AA4EEC2
:10A9A000A67AE5EE267AC2ED005A82ED017AC2ED72
:10A9B000027ADFF8D4E19EF80060730775D4D4F80A
:10A9C000EC3494F80E1519B3B4F9FA1492ED005A58
:10A9D00092ED016A92ED027A05EE901AB4F9FC1438
:10A9E00006EE901AB4F9FE1407EE901AF8EEE55A46
:10A9F000F8EEE66AF8EEE77A75EE655A76EE666A84
:10AA000077EE677AC2ED005AC2ED016AC2ED027AB2
:10AA1000002B48D0584AED1A954217D9574A0023BF
:10AA200002F10800911F951DC4F8EC3432F9023B85
:10AA300030F9024B234403EBD3735B10AA4221F895
