:020000040800F2
:10000000F0FF0010B1CF030899BB030815A7020841
:10001000E1D00308E1D00308E1D0030800000000AC
:1000200000000000000000000000000025C20308DE
:1000300021C20308000000001DC20308F99F020846
:10004000E1D00308E1D00308E1D00308E1D00308C0
:10005000E1D00308E1D00308EDA7020819A90208BE
:10006000DDA80208A1A8020865A80208A9230308C0
:1000700099230308892303087923030865230308C8
:10008000512303083D230308E1D00308E1D003080E
:10009000E1D00308E1D00308E1D0030829A8020851
:1000A000E1D0030835960208E1D00308F59602086E
:1000B000E1D00308E1D0030875950208452903083B
:1000C0004D2903083929030841290308E1D0030811
:1000D000E1D003089DA2020801A2020865A102085E
:1000E000B1A70208E1D0030829C203082993020836
:1000F000F5930208E1D00308B59402082923030808
:10010000E1D00308E1D00308E1D00308E1D00308FF
:10011000C9A002082DA002089D2601088126010819
:100120001523030801230308ED1B0308ED22030830
:10013000D9220308E1D00308E1D00308E1D0030885
:10014000E1D00308E1D00308E1D003089DBB030818
:10015000C5220308B12203089D220308E1D0030849
:100160002D29030835290308E1D00308E1D003084D
:10017000E1D00308E1D00308E1D00308E1D003088F
:10018000E1D00308E1D0030858CB030001000000D0
:1001900016000800F42B0020142C002000000000A2
:1001A00040060008070202001C38002064380020C6
:1001B000000000004806000802000C00C8370020BC
:1001C00068380020000000000000000006020C005B
:1001D000BC3700207438002000000000B9F100088E
:1001E0000802090046370020803800200000000087
:1001F000D5EF0008F7010600403700208C380020BA
:10020000000000004A0600080A020A0044350020E7
:100210009438002000000000500600081900050076
:1002200010370020A0380020000000005A06000807
:1002300027000400A4360020A83800200000000099
:100240006006000810100300D8350020AC380020EC
:10025000000000006406000801200800FC340020B3
:10026000B038002000000000680600081A000A00EC
:100270006C2C0020B8380020000000007006000838
:1002800022000C00EC640020BC650020000000008F
:100290007A0600081B00F40040500020C8650020CA
:1002A00000000000859801080E0202008857002017
:1002B000BC66002000000000860600082F00110028
:1002C00084650020C0660020000000008806000849
:1002D00005100600B0650020D46600200000000074
:1002E0009A060008F5216E00B84F0020DC66002059
:1002F000000000005990010826000E005C670020F5
:100300004C67002000000000319001080B20100015
:10031000285000206C67002000000000A0060008A4
:100320001F101C00984F00207C6700200000000078
:10033000B006000805020100E05300209867002085
:1003400000000000CC06000803010A00245200202F
:100350009C67002000000000CE060008F82106007F
:10036000626D00203473002000000000D8060008F1
:1003700003123300986E0020DA72002000000000A3
:10038000DE06000825005A00CB6E002070720020A7
:100390000000000000000000F6110C00E4710020D5
:1003A0000072002000000000140700082C0010005C
:1003B000F0710020CA7200200000000075190208C8
:1003C0002B002400896F00200D7300200000000026
:1003D0004519020829006400256F00200C720020D6
:1003E000000000000000000023001000B06B00209F
:1003F0008073002000000000B1F9010828001000FF
:10040000A0730020907300200000000099F90108FB
:100410001400020014710020B073002000000000DE
:100420002007000804004000E8790020A879002097
:1004300000000000000000000E20EA00D27C002036
:10044000B082002000000000EDE500081300040069
:10045000787E00209C830020000000002407000814
:1004600001010400527C0020A08300200000000055
:1004700000000000000104004A7C0020A48300204A
:10048000000000002807000802010300457C00204E
:10049000A88300200000000011EF000809020100FD
:1004A000E8810020AC830020000000002C07000839
:1004B0000C106000F67D0020B083002000000000DA
:1004C000E5EE0008010205005A7C0020108400209F
:1004D00000000000312B030800020500287A0020EC
:1004E0001884002000000000000000001E0004002E
:1004F000BC7F002020840020000000002E070008A0
:1005000013020100408D00207CC00020000000008C
:1005100000000000F9010400DCB4002080C00020CD
:1005200000000000ED800208FD011E00B8B40020AC
:1005300084C00020000000007D8002080610120028
:1005400054A90020A4C0002000000000B9E7000862
:10055000FB010100F0A80020B8C00020000000004E
:1005600059EF0008FC010900BCA70020BCC0002016
:100570000000000099EF00081102080090A7002079
:10058000C8C000200000000032070008121204005A
:1005900088A70020D0C00020000000003A07000813
:1005A00012200D0074A70020D4C00020000000001D
:1005B0003E07000818202C00D0A60020E4C0002030
:1005C00000000000492502080D003400FCA60020B0
:1005D00010C100200000000051800008FA01020054
:1005E000A4A0002044C1002000000000A98402084B
:1005F00002020300688D002048C1002000000000B6
:10060000000000000C020100588D00204CC10020A9
:10061000000000004C070008FE01090078A000203F
:1006200050C1002000000000FFEF00080A10300059
:10063000C49700205CC10020000000004E070008A5
:10064000651B0D0019012828023C3F010000000035
:1006500000004A01B400D601260000002801000075
:100660002003000000050000E8036400040A000104
:100670007E05EA05B40532000000C800141E010022
:1006800064002C01280000000000000000000000B1
:100690000000000000000000000020000101000038
:1006A0002B21231E64010100000001000A01290022
:1006B0000000000000000100000005000000000034
:1006C0000000000000000000000000000000040125
:1006D00001006C16000000000200F4011900000087
:1006E000000000000000000000000000000000000A
:1006F00000000000000000000000000000000000FA
:1007000000000000000000000000000000000000E9
:1007100001000000000000000000000000000000D8
:1007200003000000080445109001000000000000D4
:1007300001000000000001010101FFFFFFFF0000B8
:100740000001000005484553500000000100003042
:100750000107015A00010000000000000000000035
:1007600000000100000020000100AC0D0A00AC0DEB
:100770000A00C4090A0096009600960000000101D4
:1007800002FFFF00000041B30108C5B20108B5AB8C
:100790000108000000009D97010835B40108A597E5
:1007A0000108A19701080000000000000000F9877F
:1007B0000108E97E0308A97E0308B9BA030800000E
:1007C0000000217B0308FD7D03087D7E0308657D15
:1007D00003080000000000000000157B0308010072
:1007E00000000000803F000000000000000000004A
:1007F00000000000000000000000000000000000F9
:10080000000000000000000000000000803F000029
:10081000000000000000000000000000803F000019
:10082000000000000000000000000000803F000009
:10083000000000000000000000000000000054382C
:1008400000200800000000000000443800200800DC
:1008500000000000803F0000803F3CF703080508CF
:10086000040000000000801B0408D0F803086C1B83
:100870000408000000000000000068F703080508F5
:100880000A0000000000801B0408D0F80308841A46
:1008900004080000000000000000090264000301D9
:1008A00000C0320904000001030000000921110109
:1008B00000012226000705830308000A080B010235
:1008C00002020100090401000102020100052400E6
:1008D000100105240100020424020205240601027D
:1008E000070582030800FF09040200020A00000055
:1008F000070501024000000705810240000000FFDB
:10090000FF0000000000AA550501000001000000E2
:1009100001FFFF01000005010905A101A10005017A
:1009200009300931093209330935093409400938D8
:100930001581257F750895088102C0C00000090255
:100940002200010100E0320904000001030102005D
:100950000921110100012226000705830308000A6E
:100960000000000000000102030401020304060766
:1009700008092D202D2D202D2D2D2D202D2D2D2D17
:100980000000000000000000000000000000000067
:1009900000AA550B010000AA5507010000AA55093D
:1009A00002000000000001000000C012AA55030070
:1009B0009F00FF1FFF1FE029040800000000000047
:1009C000000025EF0008A0860100040000000000E0
:1009D0000000000000000000000000000000000017
:1009E00000000000000000000000BC5C0408E829D2
:1009F000040800000000F13B01087D000000060033
:100A000000000000000000000000000000000000E6
:100A10000000000000000000000000000000F029BD
:100A20000408000000000000000081B00208E80394
:100A300000000300000000000000000000000000B3
:100A400000000000000000000000000000000000A6
:100A50000000F429040800000000000000003DFE32
:100A600000088813000005000000000000000000DE
:100A70000000000000000000000000000000000076
:100A8000000000000000002A040800000000BD165D
:100A90000208FDC60208204E00000500000000000C
:100AA0000000000000000000000000000000000046
:100AB000000000000000000000003C4E04080000A0
:100AC00000000000000021B702081027000001000C
:100AD0000000000000000000000000000000000016
:100AE0000000000000000000000000000000042AD8
:100AF00004080000000000000000217F0208E80355
:100B000000000500000000000000000000000000E0
:100B100000000000000000000000000000000000D5
:100B20000000102A04080000000000000000752BDF
:100B30000108204E0000030000000000000000003B
:100B400000000000000000000000000000000000A5
:100B5000000000000000202A04080000000000003F
:100B6000000061290108204E000003000000000081
:100B70000000000000000000000000000000000075
:100B800000000000000000000000302A04080000FF
:100B9000000000000000B5840208400D03000300BF
:100BA0000000000000000000000000000000000045
:100BB00000000000000000000000000000003C1FDA
:100BC000040800000000000000006DB000081027BD
:100BD0000000010000000000000000000000000014
:100BE0000000000000000000000000000000000005
:100BF0000000402A04080000000000000000015E20
:100C0000030810270000030000000000000000009F
:100C100000000000000000000000000000000000D4
:100C2000000000000000442A04080000000000004A
:100C30000000C1710308A08601000100000000004F
:100C400000000000000000000000000000000000A4
:100C500000000000000000000000801F04080000E9
:100C600000000000000061820008A00F00000100E9
:100C70000000000000000000000000000000000074
:100C80000000000000000000000000000000502AEA
:100C90000408000000000000000011A60108102751
:100CA0000000010000000000000000000000000043
:100CB0000000000000000000000000000000000034
:100CC0000000A4290408000000000000000065F2F4
:100CD00001081A41000001000000000000000000AF
:100CE0000000000000000000000000000000000004
:100CF0000000000000005C2A040800000000000062
:100D00000000098D0108102700000100000000000C
:100D100000000000000000000000000000000000D3
:100D200000000000000000000000A02904080000EE
:100D3000000000000000794D03081A410000010086
:100D400000000000000000000000000000000000A3
:100D50000000000000000000000000000000682A01
:100D60000408000000000000000049C30108400D15
:100D70000300000000000000000000000000000070
:100D80000000000000000000000000000000000063
:100D90000000702A040800000000000000000D8020
:100DA0000008400D030000000000000000000000EB
:100DB0000000000000000000000000000000000033
:100DC000000000000000782A040800000000000075
:100DD0000000AD630308A0860100030000000000CE
:100DE0000000000000000000000000000000000003
:100DF00000000000000000000000842A0408000039
:100E00000000000000002D29010840420F000000F2
:100E100000000000000000000000000000000000D2
:100E20000000000000000000000000000000902A08
:100E3000040800000000000000006981000850C3A1
:100E400000000000000000000000000000000000A2
:100E50000000000000000000000000000000000092
:100E6000000001000000FFFFFFFFD6010000A10904
:100E70000208000000000000000001006A00FFFFFF
:100E8000FFFFFF000000010000005001000007000C
:100E9000000002000000000000000000000001024D
:100EA000030406070809E001010101000000212DEB
:100EB000030800000000A4080020346304080000B8
:100EC0000000000000000000000000000000786446
:100ED00004080000000000000000300900200400A9
:100EE0000000E06204080D000000C5470308F0237D
:100EF0000020000000002C5C04080D000000ED47FD
:100F00000308E4230020000000009C5D04080800A2
:100F1000000000000000D823002004000000985CBE
:100F200004080D000000D52D0308CC23002000008C
:100F300000004C5D040803000000FD490308C023C5
:100F40000020000000004463040803000000FD4985
:100F50000308B423002000000000885904080100A1
:100F60000000000000000000000000000000000081
:100F700000000E0000000000000000000000000063
:100F800000003463040800000000000000000000BE
:100F90000000000000007864040800000000000069
:100FA000000030090020040000008C6204080300E7
:100FB000000029390308A823002008000000985CDD
:100FC00004080D000000D52D0308CC2300200000EC
:100FD00000004C5D040803000000FD490308C02325
:100FE0000020000000004463040803000000FD49E5
:100FF0000308B42300200000000088590408010001
:1010000000000000000000000000000000000000E0
:1010100000000E00000000000000000000000000C2
:1010200000004C6304080000000000000000000005
:1010300000000000000078640408000000000000C8
:10104000000030090020040000009462040803003E
:101050000000FD490308FC2300200000000088591F
:101060000408010000000000000000000000000073
:101070000000000000000E00000000000000000062
:1010800000000000000020700020702D7200080099
:1010900000000000000000000000641F0020FFFFAF
:1010A000FFFFFA00000001000000010000002D20F9
:1010B0002D2D202D2D2D2D202D2D2D00000000005B
:1010C00000000000000000000000000000005C596B
:1010D0000408645904088059040800000000000056
:1010E00000000000000000000000F55804080400A3
:1010F00000008D4503080000000000000000885932
:1011000004080100000000000000000000000000D2
:101110000000000000000E000000000000000000C1
:101120000000000000002AC000200100C4090000E7
:10113000000028C000200100C4090000000026C0F3
:1011400000200100C4090000000024C000200100AC
:10115000C4090000000020C000200100C4090000F4
:10116000000022C000200100C409000000001EC0D1
:1011700000200100C409000000001CC00020010084
:10118000C409000000006C7C00200100C8000100C0
:1011900000006A7C00203200307532000000687C5C
:1011A0000020055A0500657C002000FF0100677CD7
:1011B00000200100000050090020637C0020020094
:1011C0000000CCF90308647C002000FF0100667C6D
:1011D00000200100000050090020627C0020020075
:1011E0000000CCF90308587C002080C1803E050037
:1011F0000000567C002080C1803E05000000507C2D
:10120000002080C1803E050000004E7C002080C18F
:10121000803E05000000487C002000FF0100447C67
:1012200000200A320100437C002004000000641A00
:101230000408427C002002000000781A0408000024
:1012400000000000000058090020985300209CFF77
:101250002C01000000002A0700200A000000841A68
:101260000408387C0020E0150C17000000002C0753
:10127000002008000000D0F803082B07002005001C
:101280000000801B04083A7C0020020000009C1A29
:1012900004086A7E00200100FF7F01000000697ED3
:1012A000002002000000A81A0408C77C00200300E8
:1012B0000000B81A0408C67C002003000000B81A19
:1012C0000408CE7D00200000FF0001000000CC7D5E
:1012D00000200000FF0001000000CA7D0020000087
:1012E000FF0001000000C87D00200000803E0100DA
:1012F0000000C67D00200000803E32000000C47D5A
:1013000000200000803E01000000C27D002000009F
:10131000803E32000000C07D00200000803E0100C1
:101320000000BE7D00200000803E32000000BC7D39
:1013300000200000FF0001000000D87D0020000018
:10134000F40101000000D67D00200000F40101003E
:101350000000D47D00200000F40101000000D27DD7
:1013600000200000F40101000000D07D002000FFFB
:101370000100F47D0020E803D0070A000000F27DA0
:101380000020006401000A000000E77D00200064E6
:101390000100E67D002000640100EE7D0020006475
:1013A00001000A000000ED7D0020006401000A0039
:1013B0000000EC7D0020006401000A000000F17DC7
:1013C0000020006401000A000000F07D002000649D
:1013D00001000A000000EF7D0020006401000A0007
:1013E0000000EB7D002000FF01000A000000EA7D04
:1013F000002000FF01000A000000E97D002000FF3E
:1014000001000A000000CE7C00200000F401010071
:101410000000CC7C00200000F40101000000CA7C28
:1014200000200000F40101000000C87C0020000042
:10143000F40101000000E27D00201400E803010037
:101440000000E07D0020E803307501000000DF7D32
:10145000002000C80100DE7D002000C80100DD7D05
:10146000002000C80100DC7D0020016401000A00AA
:101470000000DB7D002000FF01000A0000005F7E0D
:10148000002000C801005E7E002000C801005D7ED3
:10149000002000C801005C7E002000C801005B7EC7
:1014A000002000C801005A7E002000C80100597EBB
:1014B000002000C80100587E002000C80100577EAF
:1014C000002000C80100B05904080000000000001E
:1014D00000000000000000000000C05904080900DE
:1014E000000000000000FC09002004000000C859B2
:1014F00004080900000000000000F00900200400BA
:101500000000746004080900000000000000E40905
:1015100000200400000068570408090000000000D3
:101520000000D809002004000000D0590408090078
:10153000000000000000CC09002004000000D85981
:1015400004080900000000000000C0090020040099
:101550000000E05904080900000000000000B40980
:10156000002004000000E859040809000000000001
:101570000000A809002004000000885904080100A8
:10158000000000000000000000000000000000005B
:1015900000000E000000000000000000000000003D
:1015A0000000205B040800000000000000000000B4
:1015B000000000000000644C040807000000000068
:1015C0000000200A002000000000305B0408080032
:1015D000000000000000140A0020000000003C5B36
:1015E00004080800000000000000080A00200000B5
:1015F00000008859040801000000000000000000FD
:10160000000000000000000000000E0000000000CC
:1016100000000000000000000000445B040800001F
:101620000000000000000000000000000000545B0B
:1016300004080D000000000000005C0A002000000B
:1016400000005C5B04080D00000000000000500A70
:10165000002000000000645B040807000000000098
:101660000000480A0020000000006C5B04080D0028
:101670000000000000003C0A002000000000745B35
:1016800004080D00000000000000300A00200000E7
:1016900000007C5B04080700000000000000280A2E
:1016A000002000000000885904080100000000002C
:1016B00000000000000000000000000000000E001C
:1016C0000000000000000000000000000000845B3B
:1016D00004080000000000000000000000000000FE
:1016E0000000644C04080C000000000000006E7C48
:1016F000002000000000985B04080C0000000000BF
:101700000000707C002000000000A85B04080C00B2
:10171000000000000000A67C002000000000B85B74
:1017200004080C000000000000009A7C002000006B
:101730000000CC5B04080C00000000000000727C7C
:10174000002000000000D01E04080C000000000073
:101750000000747C002000000000D85B04080C002E
:10176000000000000000767C002000000000EC5B20
:1017700004080C00000000000000787C002000003D
:101780000000F45B04080C000000000000007A7CFC
:10179000002000000000FC5B04080C0000000000BA
:1017A0000000B87C002000000000145C04080C005D
:1017B0000000000000007C7C002000000000205C95
:1017C00004080C000000000000007E7C00200000E7
:1017D0000000702904080C00000000000000807C5C
:1017E000002000000000285C04080C00000000003D
:1017F0000000827C002000000000345C04080C0023
:10180000000000000000847C002000000000405C1C
:1018100004080C00000000000000867C002000008E
:1018200000004C5C04080C00000000000000887CF4
:10183000002000000000585C04080C0000000000BC
:1018400000008A7C002000000000645C04080C009A
:101850000000000000009E7C0020000000006C5C86
:1018600004080C000000000000009C7C0020000028
:101870000000745C04080C00000000000000AA7C5A
:10188000002000000000805C04080C000000000044
:101890000000AC7C0020000000008C5C04080C0000
:1018A000000000000000B27C002000000000785A18
:1018B00004080C000000000000008C7C00200000E8
:1018C0000000985C04080C00000000000000947CFC
:1018D000002000000000A05C04080C0000000000D4
:1018E00000008E7C002000000000AC5C04080C00AE
:1018F000000000000000907C002000000000B85CA8
:1019000004080C00000000000000927C0020000091
:101910000000C05C04080C00000000000000967C81
:10192000002000000000844C04080C0000000000AF
:101930000000A07C002000000000CC5C04080C002B
:10194000000000000000987C002000000000D85C2F
:1019500004080C00000000000000A87C002000002B
:101960000000E45C04080C00000000000000A27C01
:10197000002000000000EC5C04080C0000000000E7
:101980000000A47C002000000000F45C04080C00AF
:10199000000000000000AE7C002000000000FC5CA5
:1019A00004080C00000000000000B07C00200000D3
:1019B0000000885904080100000000000000000039
:1019C000000000000000000000000E000000000009
:1019D00000000000000000000000045D040800009A
:1019E0000000000000000000000000000000105D8A
:1019F00004080D00000000000000B40A00200000F0
:101A00000000185D04080D00000000000000A80A96
:101A1000002000000000205D040807000000000016
:101A20000000A00A0020000000002C5D0408070050
:101A3000000000000000980A002000000000385D4F
:101A4000040809000000000000008C0A00200000CB
:101A50000000445D04080900000000000000800A46
:101A6000002000000000505D040809000000000094
:101A70000000740A002000000000605D04080900F6
:101A8000000000000000680A0020000000008859E3
:101A90000408010000000000000000000000000039
:101AA0000000000000000E00000000000000000028
:101AB000000000000000745D040800000000000049
:101AC00000000000000000000000845D0408050024
:101AD000000000000000C57C0020000000008859C4
:101AE00004080100000000000000000000000000E9
:101AF0000000000000000E000000000000000000D8
:101B00000000000000008C5D0408000000000000E0
:101B100000000000000000000000786404080000DD
:101B2000000000000000F401002004000000985DA7
:101B300004080D000000F1450308080B0020000018
:101B40000000E06204080D000000D92C0308FC0A24
:101B50000020000000002C5C04080D000000BD2CDB
:101B60000308F00A0020000000009C5D0408080043
:101B7000000000000000E40A002004000000985C5F
:101B800004080D000000052C0308D80A00200000FE
:101B90000000A45D04080900000000000000CC0A59
:101BA0000020040000004C5D040803000000FD4913
:101BB0000308C00A00200000000088590408010042
:101BC0000000000000000000000000000000000015
:101BD00000000E00000000000000000000000000F7
:101BE0000000AC5D040800000000000000000000E0
:101BF000000000000000BC5D04080D0000000000B3
:101C00000000200B002000000000C45D04080A0052
:101C10000000000000006D7F002000000000D05D8B
:101C200004080A00000000000000757F002000008A
:101C30000000D85D04080A000000000000007D7F5D
:101C4000002000000000E05D040808000000000023
:101C50000000140B002000000000E85D04080400F0
:101C60000000954B030800000000000000008859A8
:101C70000408010000000000000000000000000057
:101C80000000000000000E00000000000000000046
:101C9000000000000000F45D0408000000000000E7
:101CA00000000000000000000000085E04080D00B5
:101CB000000000000000380B002000000000185E4B
:101CC0000408040000003948030800000000000078
:101CD0000000205E04080D000000000000002C0B36
:101CE000002000000000345E0408040000001548D5
:101CF00003080000000000000000885904080100EB
:101D000000000000000000000000000000000000D3
:101D100000000E00000000000000000000000000B5
:101D200000003C5E0408000000000000000000000D
:101D3000000000000000D41F04080800000000009C
:101D40000000B00B002000000000505E04080800F6
:101D5000000000000000A40B002000000000585EFE
:101D600004080800000000000000980B002000009C
:101D70000000605E040808000000000000008C0BFA
:101D8000002000000000685E040808000000000059
:101D90000000800B002000000000705E04080800B6
:101DA000000000000000740B002000000000785EBE
:101DB00004080800000000000000680B002000007C
:101DC0000000805E040808000000000000005C0BBA
:101DD0000020000000008C5E0408080000000000E5
:101DE0000000500B002000000000985E040808006E
:101DF000000000000000440B002000000000885993
:101E000004080100000000000000000000000000C5
:101E10000000000000000E000000000000000000B4
:101E2000000000000000A05E0408000000000000A8
:101E300000000000000000000000B45E040807007D
:101E4000000000000000EC0B002000000000C05E5D
:101E500004080800000000000000E00B0020000063
:101E60000000CC5E04080800000000000000D40B55
:101E7000002000000000D85E0408080000000000F8
:101E80000000C80B002000000000E45E0408080009
:101E9000000000000000BC0B00200000000088597A
:101EA0000408010000000000000000000000000025
:101EB0000000000000000E00000000000000000014
:101EC000000000000000F05E0408000000000000B8
:101ED00000000B09002000000000FC5E04080B005D
:101EE0000000000000007C0C002000000000085FE3
:101EF00004080B00000000000000700C002000002F
:101F00000000145F04080B00000000000000640CD7
:101F1000002000000000205F04080B00000000000B
:101F20000000580C0020000000002C5F04080B008B
:101F30000000000000004C0C002000000000385F92
:101F400004080B00000000000000400C002000000E
:101F50000000445F04080B00000000000000340C87
:101F6000002000000000505F04080B00000000008B
:101F70000000280C0020000000005C5F04080B003B
:101F80000000000000001C0C002000000000685F42
:101F900004080700000000000000140C00200000EE
:101FA0000000705F040807000000000000000C0C37
:101FB0000020000000007C5F04080B00000000000F
:101FC0000000000C002000000000885F04080800EA
:101FD000000000000000F40B002000000000885901
:101FE00004080100000000000000000000000000E4
:101FF0000000000000000E000000000000000000D3
:10200000000000000000945F0408000000000000D1
:1020100000000000000000000000A85F04080800A5
:10202000000000000000AC0C002000000000B45FC5
:1020300004080800000000000000A00C00200000C0
:102040000000C05F04080800000000000000940CBD
:10205000002000000000985E040808000000000056
:102060000000880C002000000000885904080100CE
:102070000000000000000000000000000000000060
:1020800000000E0000000000000000000000000042
:102090000000CC5F040800000000000000000809F8
:1020A000002000000000DC5F04080B0000000000BE
:1020B0000000F40C002000000000E85F04080B00A2
:1020C000000000000000E80C002000000000F45FA9
:1020D00004080700000000000000E00C00200000E1
:1020E0000000006004080700000000000000D80C99
:1020F0000020000000000C60040807000000000041
:102100000000D00C00200000000018600408080047
:10211000000000000000C40C00200000000020604F
:1021200004080800000000000000B80C00200000B7
:1021300000008859040801000000000000000000B1
:10214000000000000000000000000E000000000081
:1021500000000000000000000000286004080000EB
:1021600000000000000008090020000000003460AA
:1021700004080700000000000000400D00200000DF
:1021800000003C6004080700000000000000380D5B
:102190000020000000004460040807000000000068
:1021A0000000300D00200000000030570408070038
:1021B000000000000000280D00200000000038573B
:1021C00004080700000000000000200D00200000AF
:1021D0000000405704080700000000000000180D30
:1021E0000020000000004C60040807000000000010
:1021F0000000100D002000000000546004080700DB
:10220000000000000000080D0020000000005C60DD
:1022100004080700000000000000000D002000007E
:1022200000008859040801000000000000000000C0
:10223000000000000000000000000E000000000090
:102240000000000000000000000000000000493015
:102250000308480D0020C37C00201D000000C81AA0
:102260000408C27C002000C80100C07C0020E803F4
:10227000D0070100000048454C494F535052494E89
:102280004700617C002000030100607C0020000307
:102290000100912F0308692F0308240E0020252F29
:1022A0000308D92E03089C0E0020D12F0308B92F54
:1022B0000308500F0020452E0308F92D03085C1277
:1022C00000205F300308E533030838130020452C55
:1022D00003080000000088130020714B03086133DD
:1022E000030864140020853003080000000018155E
:1022F000002045310308F9300308A4150020C1313E
:10230000030891310308A81600204D3203089132CA
:10231000030848170020E47D002001060100C530B5
:1023200003089930030888180020F13103085D483C
:10233000030814190020BD320308B9480308DC194A
:102340000020DA7D00200103010064600408000021
:1023500000000000000000000000000000007060AD
:1023600004080800000000000000EC1A0020000033
:102370000000786004080700000000000000E41A74
:10238000002000000000886004080D00000000002C
:102390000000D81A00200000000094600408030028
:1023A0000000FD490308CC1A0020000000008859F5
:1023B0000408010000000000000000000000000010
:1023C0000000000000000E000000000000000000FF
:1023D0000000000000009C600408000000000000F5
:1023E00000000000000000000000AC6004080A00CB
:1023F000000000000000281E040800000000B46077
:1024000004080A00000000000000A52B04080000DA
:102410000000BC6004080A00000000000000607EAC
:10242000002000000000C46004080A000000000052
:102430000000F81A0020000000008859040801007C
:10244000000000000000000000000000000000008C
:1024500000000E000000000000000000000000006E
:102460000000CC6004080000000000000000000034
:10247000000000000000D860040803000000FD49CF
:1024800003082C1B002000000000E4600408030087
:102490000000FD490308201B002000000000EC6044
:1024A000040803000000FD490308141B002000007D
:1024B0000000F460040805000000000000005F7CDC
:1024C000002000000000FC6004080700000000007D
:1024D00000000C1B00200000000008610408070039
:1024E000000000000000041B0020000000008859CC
:1024F00004080100000000000000000000000000CF
:102500000000000000000E000000000000000000BD
:10251000000000000000146104080000000000003A
:1025200000000000000000000000B81F04080300C5
:102530000000FD4903085C1B00200000000028612A
:10254000040803000000FD490308300700200000D4
:1025500000003061040803000000FD490308501B1F
:102560000020000000003861040803000000FD495D
:102570000308441B002000000000985C04080300CE
:102580000000FD490308381B0020000000008859A6
:10259000040801000000000000000000000000002E
:1025A0000000000000000E0000000000000000001D
:1025B000000000000000446104080000000000006A
:1025C0000000000000000000000050610408070047
:1025D000000005490308C41B002000000000BC5C8B
:1025E000040803000000FD490308B81B0020000098
:1025F00000005C61040803000000FD490308AC1BF7
:102600000020000000006461040803000000FD4990
:102610000308A01B0020000000006C6104080700F4
:102620000000E9480308981B002000000000C45681
:10263000040803000000FD4903088C1B0020000073
:1026400000007861040803000000FD490308801BB6
:102650000020000000008461040803000000FD4920
:102660000308741B0020000000008C6104080300B4
:102670000000FD490308681B002000000000885985
:10268000040801000000000000000000000000003D
:102690000000000000000E0000000000000000002C
:1026A00000000000000019300308E92F0308CC1BCC
:1026B00000202D33030800000000581C0020B52E18
:1026C0000308912E0308E41C002000000000000015
:1026D0000000981D00200533030821490308381E17
:1026E00000209861040800000000000000000000C5
:1026F000000000000000A461040803000000FD4980
:102700000308581F002000000000AC61040803000B
:102710000000FD4903084C1F002000000000A42910
:10272000040803000000FD490308401F00200000CA
:102730000000B861040803000000FD490308341FCD
:10274000002000000000C461040803000000FD49EF
:102750000308281F002000000000CC6104080200CC
:102760000000E14B03080000000000000000D461FD
:10277000040802000000E14B030801000000000013
:102780000000E061040802000000E14B03080200C1
:10279000000000000000000000000E00000000002B
:1027A000000000000000000000003E7C00208813B4
:1027B0006F1701000000407C002088136F17000095
:1027C0000000EC61040800000000000000000000B0
:1027D000000000000000FC61040808000000000088
:1027E00000003820002004000000086204080800EF
:1027F0000000000000002C200020000000004C5DC4
:10280000040804000000194603080000000000004E
:1028100000008859040801000000000000000000CA
:10282000000000000000000000000E00000000009A
:10283000000000000000000000003C7C0020881325
:102840006F1701000000D453002088136F17000099
:102850000000892D03080000000044200020117FA3
:10286000002001000000401B0408D6530020010096
:1028700000004C1B0408CC53002002000000541B35
:10288000040872C00020000000000000000070C0BA
:10289000002000000000000000006EC000200000CA
:1028A0000000000000006CC00020000000000000DC
:1028B00000006AC00020000000000000000068C0A6
:1028C000002000000000000000002C02002000009A
:1028D0000000000000003B7C002002000000601BA4
:1028E000040844620408000000000000000000002A
:1028F000000000000000FC61040808000000000067
:102900000000C8200020040000000862040808003D
:10291000000000000000BC200020000000004C5D12
:10292000040804000000592D030800000000000006
:1029300000008859040801000000000000000000A9
:10294000000000000000000000000E000000000079
:1029500000000000000000000000546204080000B5
:1029600000000000000000000000000000006462A1
:1029700004080D00000069470308F8200020040047
:102980000000706204080D000000B12D0308EC2067
:102990000020040000007C6204080D0000002D47A8
:1029A0000308E02000200000000088620408030003
:1029B000000049390308D420002008000000946278
:1029C000040803000000FD490308FC230020000068
:1029D0000000885904080100000000000000000009
:1029E000000000000000000000000E0000000000D9
:1029F00000000000000000000000805904080000F2
:102A00000000000000000000000000000000F55879
:102A10000408040000003146030800000000000024
:102A200000008859040801000000000000000000B8
:102A3000000000000000000000000E000000000088
:102A400000000000000000000000E8620408000030
:102A50000000000000000000000000000000344FF3
:102A600004080D00000000000000582100200400B0
:102A70000000F862040808000000000000004C217B
:102A800000200400000004630408080000000000A7
:102A9000000040210020040000000C63040808002E
:102AA0000000000000003421002004000000146336
:102AB0000408080000000000000028210020040095
:102AC00000001C63040808000000000000001C2136
:102AD0000020040000002463040808000000000037
:102AE000000010210020040000002C6304080800EE
:102AF00000000000000004210020040000008859AC
:102B000004080100000000000000000000000000B8
:102B10000000000000000E000000000000000000A7
:102B2000000000000000712D030800000000642177
:102B300000200000000000000000DC210020000058
:102B40000000000000007C220020D253002004007E
:102B500000006C1B0408D0530020E0150C17000087
:102B60000000CF53002008000000D0F80308CE5327
:102B7000002005000000801B040800000000000089
:102B80000000CC2200200403090412010002EF021D
:102B900001408304563200020102030100001201C9
:102BA00000020202004083044057000201020301B8
:102BB000000009024300020100C0320904000001C4
:102BC0000202010005240010010524010001042473
:102BD00002020524060001070582030800FF09041C
:102BE0000100020A0000000705010240000007057D
:102BF000810240000000FF0000000800000000000B
:102C00000001000000000000000000000000797AD0
:102C10000308757A0308717A0308657A0308617AF4
:102C200003086D7A0308697A0308ED7A0308E17AEC
:102C30000308B97A0308CD7A0308A57A0308917AC4
:102C400003087D7A03080101000000600240106063
:102C500002400000000000000000000B0000000027
:102C6000000000000000000000000060024028603A
:102C700002400100000000000000060C00000000FF
:102C80000000000000000000000000600240406002
:102C900002400200000000000000100D00000000D3
:102CA00000000000000000000000006002405860CA
:102CB00002400300000000000000160E00000000AB
:102CC0000000000000000000000000600240706092
:102CD00002400400000000000000200F000000007F
:102CE000000000000000000000000060024088605A
:102CF0000240050000000000000026100000000057
:102D00000000000000000000000000600240A06021
:102D1000024006000000000000003011000000002A
:102D20000000000000000000000000600240B860E9
:102D300002400700000000000000362F00000000E5
:102D40000000000000000000000000640240106469
:102D500002400000000000000000003800000000F9
:102D60000000000000000000000000640240286431
:102D700002400100000000000000063900000000D1
:102D800000000000000000000000006402404064F9
:102D900002400200000000000000103A00000000A5
:102DA00000000000000000000000006402405864C1
:102DB00002400300000000000000163B000000007D
:102DC0000000000000000000000000640240706489
:102DD00002400400000000000000203C0000000051
:102DE0000000000000000000000000640240886451
:102DF0000240050000000000000026440000000022
:102E00000000000000000000000000640240A06418
:102E100002400600000000000000304500000000F5
:102E20000000000000000000000000640240B864E0
:102E300002400700000000000000364600000000CD
:102E4000000000000000000000000000803FADAC6A
:102E50000108ADB1010829AD01083D88010875B32D
:102E600001084D880108698801081588010805884E
:102E70000108000000000000000000270020000002
:102E80000000000000000000000000000000000042
:102E90000000000000000000000000000000000032
:102EA0000000000000000000000000000000000022
:102EB0000000000000000000000000000000000012
:102EC0000000000000000000000000000000000002
:102ED00000000000000000000000000000004300AF
:102EE00000000000000000000000000000000000E2
:102EF000000000000000000000000000000043008F
:102F000000000000000000000000000000000000C1
:102F1000000000000000000000000000000043006E
:102F200000000000000000000000000000000000A1
:102F3000000000000000000000000000000043004E
:102F40000000000000000000000000000000000081
:102F5000000000000000000000000000000043002E
:102F60000000000000000000000000000000000061
:102F7000000000000000000000000000000043000E
:102F80000000000000000000000000000000000041
:102F900000000000000000000000000000004300EE
:102FA0000000000000000000000000000000000021
:102FB0000000000000000000000000000000B3D48A
:102FC00003088FD4030800000000BA640408F15815
:102FD00004083E3004083E3004083E3004083E3009
:102FE00004083E3004083E3004083E3004083E30F9
:102FF00004083E300408FFFFFFFFFFFFFFFFFFFF55
:10300000FFFFFFFF0000010041534349490000005A
:1030100000000000000000000000000000000000B0
:103020000000000000000000415343494900000037
:103030000000000000000000000000000000000090
:103040000000000000000000000000000000000080
:103050000000000000000000000000000000000070
:103060000000000000000000000000000000000060
:1080000003680A7A591C01601A7070470C4B1B7880
:10801000DB0700D570470B4A1368002BFAD04FF4EA
:108020007A7101FB03F39842F4D3074B1B781BB919
:10803000064B99681B690B6000231360704700BFF3
:10804000BC51002050350020443500203035002040
:10805000F8B5322204460021023035F065FA1423C7
:10806000224AA37092F90270214BC4F80330012018
:10807000002102250326C4F80B30C4F81330C4F8DD
:108080001B30C4F82330C4F82B3087424FF0040370
:10809000A172A0742080A57684F8226084F82A302A
:1080A0001AD092F90A10814216D092F91210814228
:1080B00016D092F91A10814214D092F922108142FE
:1080C00012D092F92A30834205D05222642384F8D8
:1080D00032202386F8BD0521402322F83130F4E711
:1080E0002946F9E73146F7E71946F5E7FCA60020EF
:1080F0000504050030B484B0002340F2012540F2AD
:10810000034440F2056140F60812ADF804300A233A
:10811000ADF80650ADF80840ADF80A10ADF80C20E7
:108120008DF80E3088B10A28034615D804AA1344E6
:108130000B4A13F80C1C128801238B40134214BF06
:108140000120002004B030BC7047064B187800F0C6
:10815000010004B030BC704704B030BC09F014BA60
:1081600048520020BC510020F8B50D4C0D4E04F1D2
:10817000200716F8013BFF2B18460CD0FFF7BAFF7B
:10818000257963794540EDB2AB4204D02946206899
:1081900022F09EFA65710834BC42EAD1F8BD00BFF6
:1081A00098A700208CA700202DE9F84F4F014FF031
:1081B000000B184E8246914607F120085D4605E007
:1081C00001350BF1010BBBF12B0F1ED05946304688
:1081D0005FFA8BF420F0F2FB0028F2D0AF42EFD828
:1081E000A845EDD900220C48114604E001312B29A5
:1081F0000DD010F80C2FA242F8D1074B01EB410132
:1082000003EB81015046C847DAE7BDE8F88F00214B
:10821000F8E700BFD0280020E8EA030870B54E68F0
:108220000546304634F02AF83146044602462868AE
:1082300035F060F82A68131901333B212B60115582
:1082400070BD00BF024B1A7A597A2EF049BC00BFAC
:10825000D028002008B508F047FE29F035FD00BF02
:108260002DE9F04F2DED028B99B0054615F0F4F98C
:10827000034B1B7833B119B0BDEC028BBDE8F08F16
:10828000DC530020BF4B1B685F05F4D5BE4B1B7849
:10829000012B00F04482BD4B0293BD4B1B78002B99
:1082A00039D0BC4CBC4AD4F82831EB1A934200F2C6
:1082B000C782DFF8389399F80060002E00F0B2838F
:1082C000B64E37683FB3D4F8383140F6B732EB1AC0
:1082D000934220D994F83431002B00F07F8594F834
:1082E0003D21AF4994F83CC10868013BDBB2013243
:1082F00084F83431D2B2002B00F0658517F8011BE9
:1083000084F83D2101EB0C03376084F83C3122F006
:108310006DF8C4F83851A34A029B12781B68012AF1
:1083200003F10103109300F0AD819F4B1B78002BEC
:1083300000F0C1809D4F3B68002B00F0BC80029B89
:10834000944CD3F80080D4F85831A8EB0303632B86
:1083500040F2B180DFF898A2954EDFF89892412064
:1083600014F0A4FCBAF9023086FB0320DB17C3EB40
:10837000A00080B214F07EFCBAF9003086FB032026
:10838000DB17C3EBA00080B214F074FCBAF9043020
:1083900086FB0320DB17C3EBA00080B214F06AFC5D
:1083A00099F80010386822F021F894F85C6116F012
:1083B000010A00F017857F4B1B6898066DD57E4B30
:1083C0007E4E1B78990742F15880337D042B8CBF79
:1083D0004FF0030A4FF0020A472014F067FC3068A0
:1083E00014F014FC706814F011FCB6F80EB0744B65
:1083F0003868A3FB0B3BCBF3471B594621F0F6FF34
:1084000099F80020338964208BEA020B00FB03F00B
:1084100089F800B014F0FAFB367D38684AEA86061F
:10842000F6B2314621F0E2FF99F8003038685E403C
:10843000314689F8006021F0D9FF94F85C6166BB91
:10844000DFF8B4A14F2014F031FCDAF8000014F08A
:10845000DDFBDAF8040014F0D9FB304614F0D6FB4B
:108460000121386821F0C2FF534A99F8003016788C
:10847000386806F00106314683F0010389F80030C0
:1084800021F0B4FF99F8003038685E40314689F831
:10849000006021F0ABFF94F85C614A4AC4F858814F
:1084A000731CDBB2A2FB0312D20802EB8202A3EB25
:1084B000420384F85C31444E3778022F00F0478342
:1084C000424CA378032B00F09183414B1B78002B87
:1084D0003CD0404F3B68CBB32E4C21F085FCD4F808
:1084E0006431039044F61F62C31A93422ED994F864
:1084F0006A31002B01F0F482013B84F86A3194F870
:108500006B21002A01F0D081013A84F86B2194F8A4
:108510006E31002B00F0C686013B84F86E3194F872
:1085200072C1BCF1000F00F0D1850CF1FF3C84F862
:1085300072C194F87391B9F1000F01F0CF8309F182
:10854000FF3984F87391039BC4F86431224B1B7884
:10855000002B40F0D282214B1B7843B10D4CD4F854
:10856000B43203F50043E8339D4280F000811C4B98
:108570001B78002B3FF47FAE064F1A4C1A4D07F5BF
:1085800035763BE0D8B40020795600207095002065
:1085900086560020D02800203F0D0300F055002013
:1085A000E85500208756002094560020C45500202E
:1085B00067666666D8510020DC510020E0B40020D8
:1085C0001F85EB51CDCCCCCC336B002000000020BC
:1085D0009C560020A05600200C5700201D5700205C
:1085E000A6560020AC560020B0560020F4550020BE
:1085F0004C520020C855002034640020206821F02F
:10860000F1FE00283FF437AE206821F0E3FE2B781E
:10861000804673B1013B20682B7021F0E3FE0028F7
:108620003FF429AE206821F0D5FE2B788046002B40
:10863000F0D172490322304634F05DFF97F8D4122E
:1086400087F8D782023911F0FF0100F078823144B7
:1086500032464FF6FF7312F8010B1B1A91429BB280
:10866000F9D11A0A1FFA88F89045C7D197F8D6228F
:10867000DBB29A42C2D1624814F088F82B781844D1
:108680002870BBE75F4E306800283FF44EAE5E4C6A
:108690005E4F04F5A67AA9464FF00108002521F0A7
:1086A000A1FE40B3D4F844B1BBF1000F23D1306830
:1086B00021F090FE83B27E2B00F01C837A78002A92
:1086C00040F0418294F84011002900F0E4811B2B16
:1086D00084F84021306840F02A8221F083FE00288F
:1086E00000F02583306887F80180C4F8445121F0F8
:1086F00079FE0028D6D121F077FBD4F85431C01A86
:10870000B0F5FA7F4D46FFF610AE10AA4049D4F8F6
:10871000440114F0E5FA0023C4F8443105E63D4B6A
:108720001B68002B3FF4B7AD374C3B4AD4F81C31E3
:10873000EB1A93427FF7AFAD384F94F820313A6887
:10874000C4F81C510133DBB2960784F8203101F1E3
:108750003E8513F0070601F01585282B304B01F0FC
:10876000198602932F4B5E201B68984795E594F875
:10877000B832C4F8B452012B40F2E18294F8B91235
:1087800029482A4A4E1C194400EB8101A2FB0672BB
:108790002748D1F8A0920178520802EB4202B21A9F
:1087A00084F8B92229B12349234A0968914200F08B
:1087B0006F81B9F1000F16D0204E11960DF16008AF
:1087C000A6F1120748F8207D48F2A5021523294694
:1087D0004046A4F8BC2284F8BE32C847002840F0C6
:1087E0000E8494F8B832114A0133A2FB03125208E6
:1087F00002EB42029B1A84F8B832B8E6A52B00209F
:10880000A42B0020DC550020D028002000000020F0
:108810000E2A00203052002047E80100D8510020E5
:1088200070950020B44F0020E8EA0308ABAAAAAA7A
:10883000857F00208C7F002030380020A12B002075
:10884000CD4ACE4B92F80AC0029AD4F82C61106837
:108850001B88CB4A4FF47A71801B01FB0CF1DFB20D
:1088600000261B0A88429777D37717755375967041
:10887000167180F09982C349C3488F680B68C34959
:10888000C34E91F800C096F814B080FB03E1DB17EB
:10889000C3EBA10180FB070E1177F8170912C0EB9B
:1088A000AE00BC4B51774FF4FA71071282F82000EA
:1088B000518347F2305078211CF0020F82F821706A
:1088C00083F81AB0508482F8241000F02D82D6F874
:1088D0000080B149D6F804E0B04ADFF8F0C281FB6D
:1088E00008704FEAE87781FB0E91C7EBA0574FEA7B
:1088F000EE70C0EBA15002FB078102FB00E201EB2E
:10890000410102EB4202490052008CFB01A98CFBA1
:1089100002ACB6F80EA0368900EB80000AEBCA0A5A
:1089200000EB8000049006F5FA764FEA8A004FEAE1
:10893000A9490590B6B2C8174FEAD878039683F8CC
:108940000980974EA9EB00084FEAE27A4FEAAC4C57
:10895000404606FB1010ACEB0A018C4607EB87077C
:1089600006FB1121049E8F4ADFF864A2BBF1050FBC
:108970004FFA88F8DFF85CB207EB87074FFA8CFCF8
:1089800008EB87070CEB860CDFF84C82059EBBF8E2
:108990000090DDF80CB083F815B04FEADE7EA2FB44
:1089A0000662BFB21FFA8CFC83F80EE088FB006EF3
:1089B00088FB01684FEAE0704FEAE171C0EB6E108E
:1089C000C1EB68114FEA92124FEA1728BAF800E09B
:1089D00018734FEA1C2A5E464FEA16269F7283F8E8
:1089E0000B804FEA20274FEA212883F80FC083F835
:1089F00010A04FEA122C4FEA192A34BF322033203C
:108A00005F73597483F812809E75DA7183F808C019
:108A100083F8139083F814A0D87683F81CE0C4F888
:108A2000285146E4DFF8B481D8F8000021F0DAFCE0
:108A3000C0B201280ED9022840F03E825A4B1A7863
:108A4000002A41F0EC83D4F83021AA1AB2F57A6FEB
:108A500081F0D285554E3768002F3FF45CAC99F811
:108A60000030002B7FF42FAC514BD8F800001B686E
:108A70009B781E3B012B41F2CD830430022114F080
:108A8000DDFC0122002389F8002084F83C3140E419
:108A9000DFF84C9190E67D2B00F0078294F84A2194
:108AA00022B180F02003DBB284F84A11B4F84821E7
:108AB00094F83F111A44062992B20BD8601801317C
:108AC00080F84C31A4F84821C4F8445184F83F118F
:108AD0003068E4E5130A53FA82F2FF2A87F801802E
:108AE000A4F8482140F01C81C4F844A121F07CF98D
:108AF0000346C4F854313068CEE52E4C227832B1AA
:108B00002D4B2E49186821F039FC002323702C4F7F
:108B10003C78002C7AD0DFF8CCA0DAF86060002E28
:108B200040F01381274B3E70C3F8AC5213E50D2B78
:108B30007FF4D8ADA4F84821C4F84421AFE5FF2262
:108B40004FF6FF738EE5C4F844B13068A7E521F015
:108B50004BF91D4B1B68C01A40F6B833984200F21F
:108B6000D580DFF8849099F804303A2B01F05C83CB
:108B700000233370A9E400BF984F00203452002036
:108B8000B45600203C52002067666666DC51002027
:108B9000E0B40020E05600206BCA5F6B806967FF7D
:108BA00040420F00D34D621000000020F05500201D
:108BB000EC55002078560020105700203856002031
:108BC00015570020D0280020386B002083DE1B437F
:108BD000A0640020D85500201F85EB51E8550020E7
:108BE000C1A1010824570020F86A0020B54F386859
:108BF00021F0E8FB00283FF468AC3868012121F03F
:108C0000DDFB02220023A27033705EE4AE4E3378A7
:108C1000002B40F07F81AD4CAD4FD4F8AC223978B9
:108C2000AC4B93FBF1F313449D42FFF494ACAA4A7E
:108C300094F8B032C4F8AC5212F8038018F0010F67
:108C400041F08F8418F0020F41F04C8418F0040FAB
:108C500041F0D78318F0080F41D0A04BA04E1193DC
:108C60000DF16008A3F13D0248F8202D4FF4885122
:108C7000022223F8401C03F83E2C4046316823F0C2
:108C800025F84046716823F021F8F389954A03EBF3
:108C9000C30399000531A2FB0131C1F3CF01404666
:108CA00023F02CF8338A03EB8303590089B2404642
:108CB00023F024F88C4B1B78980743BF318901F5CA
:108CC0007A7189B24FF47A71404623F017F8109BFD
:108CD000327D591C109140461A7014F065FC94F8CE
:108CE000B0323978013393FBF1F201FB123384F88F
:108CF000B03230E484F83EB184F83FB184F840816A
:108D000087F801B0C4F844B13068C8E46F4AB2F8DB
:108D10005E3100210133A2F85E313170FFF7D5BB1F
:108D2000C4F844513068BAE42D22DA7677E6C4F804
:108D3000440184F83E8187F801803068AFE46B4AD3
:108D400002EB8302D2F8A09233E50024DFF8C09151
:108D500026464FF050080BE01C44EFF3118388F3D4
:108D60001288DAF86020944217DADBB283F31188B4
:108D70001AF804B0601C5946504413F04DFE0BF134
:108D800001030028E8D049463A2013F0A7FD0BF173
:108D9000010B0643F6B25C44DFE70022DBB2CAF8FF
:108DA000602083F31188BDE6514B02991B78096856
:108DB000C4F82C11013B012B3FF65DAD10210223BD
:108DC0009170137157E50CF10103614684F83D2160
:108DD00084F83C3121F00AFBFFF79BBA14F064FBE6
:108DE000FFF797BA434B1B88DA0515D4DE0601F16D
:108DF000FF83980601F10B85590601F176851A0764
:108E000001F1AB85DE0701F1AC8513F0020F0CBF59
:108E10004FF0040A4FF00C0A374A384B1678DB78CB
:108E200006F001060BB146F00206532013F03EFF98
:108E3000334B1B8803EB830303EB8303980080B25F
:108E400013F018FF002013F015FF2E4B2E4A1B883D
:108E50003868C3EBC3135B0082FB03121A44DB17B1
:108E6000C3EB62235FFA83FB594621F0BFFA99F8FE
:108E7000003038688BEA03034AEA0606002189F8C5
:108E8000003021F0B3FA3146386821F0AFFA99F892
:108E9000003038687340DBB2194689F8003021F0A1
:108EA000A5FA94F85C61FFF7CABA84F84A81C4F85D
:108EB00044113068FFF7F3BB14F0E6FA134B0122BC
:108EC0001A70C7E5B471002014570020D028002084
:108ED0001C570020A086010018570020385600209B
:108EE000E0B40020CDCCCCCCDC510020E8EA030873
:108EF0002650002048520020BC510020E4510020A0
:108F000034520020DE5100200308208000000020A1
:108F1000DDD501086449654B0093A1F13F07644B1F
:108F2000644A0F9101F8404C10A863490E9722F053
:108F3000DDFF0E9F7B1C0E933C700E9B2922591C5B
:108F40000E911A700E9BEA22591C0E911A700E9BFC
:108F5000C822591C0E9110A81A7033F08FF900F135
:108F6000010810A942460E9834F0C4F90E9A02EB9B
:108F7000080301330E9302F808400E9B5A1C0E9210
:108F80001C700E9B5A1C0E921C700E9B5A1C0E924B
:108F90001C700E9B5A1C0E921C700E9B5A1C0E923B
:108FA0001C700E9B5A1C0E921C700E9B5A1C0E922B
:108FB0001C700E9B5A1C0E921C700E9B5A1C0E921B
:108FC0001C700E9B5A1C0E921C700E9B5A1C0E920B
:108FD0001C700E9B5A1C0E921C700E9B012299183D
:108FE00018A80E911A7050F8283DDB1B3B7014F046
:108FF000DBFA324B3470C3F8AC52FFF7ACBA109DB9
:10900000BD4241F20A84A6F11302013D002141F262
:10901000210012F8013F81EA03231BB299B2002B11
:10902000ACBF4B0080EA41039BB2190454BF5B0004
:1090300080EA43039BB21F0454BF5B0080EA4303F2
:109040009BB21E0454BF5B0080EA43039BB2190429
:1090500054BF5B0080EA43039BB21F0454BF5B0014
:1090600080EA43039BB21E0454BF5B0080EA4303C3
:109070009BB2190454BF5B0080EA4303954299B246
:10908000C7D1404622F060FE0D49109D0D486D1A73
:10909000152DA8BF15252A4634F02CF90A4A94F854
:1090A000B8321570FFF79FBB385600207BA7002011
:1090B000041E04080C1E04081C1E0408D0280020EE
:1090C0008C2B00203C69002051690020704B94F8E3
:1090D0007AE1B3F90220B3F90010B3F904309FED3F
:1090E0006D6A84F811C007EE103A029B84F810E014
:1090F0001B6810938EF06A0383EA031306EE901A3E
:10910000D9B20B0983F0D50343EA012383EAC103F3
:109110001BB283EA031AC3F3072653425FFA8AFAA3
:1091200007EE903A86EA1A1646EA0A26F8EEE77A39
:10913000F8EEE66AB8EEC77A86EACA060FFA86FA49
:1091400067EE867A66EE866A27EE067A00208AF057
:10915000C806CDED127ACDED116A8DED137A14901B
:109160001590169086EA06180DF14009B9E80F002F
:109170005FFA88F8CAF3072686EA181646EA082630
:1091800086EAC806DFF8148136B2A8E80F0086F038
:109190001E0C99E807008CEA0C1A5FFA8AFAC6F3EB
:1091A000072C8CEA1A1C4CEA0A2C88E807000EF1FE
:1091B0000103C8228CEACA0CA8F110064FF0050979
:1091C0004FF01E0E41F6FE4184F8729184F813E0D0
:1091D000E181A27406F11C0284F87A31A4F80CC073
:1091E00016F8013B83EA0C0383EA0313DBB2190987
:1091F00081EA1C2141EA032181EAC3031BB21FFA61
:1092000083FC9642A4F80CC0EAD183F0270383EADA
:109210000313DBB24FEA1C2282EA131282EA032212
:1092200082EAC3031BB29AB24FEA122EDEB2DFF813
:109230006890A28184F831E084F8306004F10E0A6D
:1092400004F12E08DAF80000DAF80410DAF8082041
:10925000DAF80C30CC46ACE80F000AF1100AC2452F
:10926000E146EFD1DFF83880BAF80030ACF80030D2
:1092700008F1240984F8C66184F8C7E118F8011FD1
:10928000386821F0B3F8C145F8D1FFF752B900BFF3
:109290004C52002088C3E43A742A0020E4280020BD
:1092A000732A0020DC4B1B681922990684F86E2172
:1092B0007FF535A9D94BDA4E1B789A0741F1988290
:1092C000337D042B8CBF4FF003084FF0020820F0D1
:1092D0008BFD338A3289109003EB83035B00ADF87A
:1092E0005A304FF47A7033688DF85C801293B6F878
:1092F0000EE0317D7368ADF858E000FB02F24FF0EC
:10930000000C4FF0FF300DF14008CDF844C014922E
:1093100013938DF85D101590C146B9E80F00DFF882
:109320000CE3AEE80F0099E80F00AEE807007146C5
:10933000182221F81C39049194F87A11E27481F012
:10934000780383EA0313DAB2130983F0F60343EADE
:10935000022383EAC2031BB283EA0312D2B2C3F32D
:10936000072383EA121343EA022383EAC2031BB2F0
:1093700083F0C80282EA0212D2B2C3F3072383EA5F
:10938000121343EA022383EAC2031BB284F811C01A
:1093900083F0180C8CEA0C1C5FFA8CFCC3F30722D8
:1093A000481C82EA1C1242EA0C2284F87A010498D2
:1093B000217482EACC0CC82341F6FE620146A4F86F
:1093C0000CC01E30E281A37411F8013B83EA0C0348
:1093D00083EA0313DBB21A0982EA1C2242EA03225F
:1093E00082EAC3031BB21FFA83FC8142A4F80CC0BB
:1093F000EAD183F0180383EA0313DBB24FEA1C2B94
:109400008BEA131B8BEA032B8BEAC30B0FFA8BFB44
:109410001FFA8BF3834AA3815FFA8BFB1B0A059229
:10942000069384F8333084F832B0914604F10E0C80
:1094300004F12E0ADCF80000DCF80410DCF8082047
:10944000DCF80C30CE46AEE80F000CF1100CD44521
:10945000F146EFD1DCF80000CEF80000DFF8D4A12F
:109460009DF8183084F8C8B10AF1260984F8C9318A
:10947000D3461BF8011F386820F0B8FFD945F8D152
:1094800020F0B2FC94F87AB110908BF06A0181EA76
:109490000111C8B2010981F0D50141EA002181EA38
:1094A000C00109B281EA01105F4BDFF88CC1B3F94A
:1094B0000430328984F810B0C0B2C1F3072181EAC8
:1094C000101141EA002181EAC0018CFB030CDB177B
:1094D0004FF47A70C3EBAC0C00FB02F0D6E900232A
:1094E00009B281F0C806CDE9112386EA0613DBB282
:1094F000CDE91300C1F307264FF0000986EA1316E1
:10950000ADF85AC0CDF85490ADF8589046EA03260D
:10951000C64686EAC306BEE80F00DDF810C084F830
:10952000119036B2ACE80F0086F0210383EA0313F2
:10953000DBB29EE80700C6F3072686EA131646EA62
:10954000032686EAC306394B04938CE80700C82338
:10955000212141F6FE42E174E281A374334BA681DE
:109560000BF1010B194684F87AB103F11C0211F8D2
:10957000013B734083EA0313DBB2180980EA16202B
:1095800040EA032080EAC3031BB29EB29142A68147
:10959000EDD183F0680282EA0212D2B2360A86EA7C
:1095A000121B8BEA022B8BEAC20B0FFA8BFB1FFA02
:1095B0008BF34FEA13295FFA8BFBA381DFF864E09A
:1095C00084F8319004F12E0384F830B004F10E06D3
:1095D0000693F36830687168B268F446ACE80F002F
:1095E000069B10369E42E646F3D13388ACF8003035
:1095F000059B84F8C79103F1230684F8C6B1D146D0
:1096000019F8011F386820F0F1FE4E45F8D1084ADC
:1096100094F87AE112E000BFD8510020DC5100201C
:10962000E0B40020742A00204C520020E4280020DE
:1096300034640020732A002067666666DFF890C4F1
:1096400084F810E0D2E9002311938EF0EB0383EA53
:109650000313D9B20B0983F0C50343EA012383EA5C
:10966000C1031BB283EA0311C9B2C3F3072383EA20
:10967000111343EA012383EAC1031BB283F0C80636
:1096800086EA0616F6B24FF00009C3F30723CDF8B9
:10969000489083EA1613109298E8070043EA0623DD
:1096A00083EAC6030FFA83F8049B84F8119088F0CC
:1096B000310683E8070086EA0616F6B2C8F30723E8
:1096C00083EA161343EA062383EAC603267D607DF8
:1096D000A17DE27D1BB25E4086EA0616F6B2C3F3B8
:1096E000072383EA161343EA062383EAC6031BB261
:1096F000584080EA0010C0B2C3F3072383EA101376
:1097000043EA002383EAC00318B2414081EA01130F
:10971000DBB2C0F3072181EA131141EA032181EA98
:10972000C30109B24A4082EA0212D2B2C1F307234E
:1097300083EA121343EA022383EAC203267E607E91
:10974000A17EE27E1BB25E4086EA0616F6B2C3F345
:10975000072383EA161343EA062383EAC6031EB2ED
:10976000704080EA0010C0B2C6F3072383EA1013EA
:1097700043EA002383EAC0031BB2594081EA011186
:10978000C9B2C3F3072383EA111343EA012383EA2F
:10979000C1031BB25A4082EA0212D2B2C3F30723BA
:1097A00083EA121343EA022383EAC203267F607F1F
:1097B000A17FE27F1BB25E4086EA0616F6B2C3F3D3
:1097C000072383EA161343EA062383EAC6031EB27D
:1097D00080EA060383EA0310C0B2C6F3072383EAD4
:1097E000101343EA002383EAC0031BB2594081EA05
:1097F0000111C9B2C3F3072383EA111343EA01231A
:1098000083EAC1031BB25A4082EA0212D2B2C3F306
:10981000072383EA121343EA022383EAC2031BB23B
:1098200083F0270686EA0612D2B2C3F3072686EA39
:10983000121646EA022686EAC20636B2B2B20EF125
:109840000103F6B24FEA122E4FF0310840F6FE4007
:10985000C82184F87A31A28184F81380E08184F8E9
:109860002060A17484F821E0DCF80000DCF80C3002
:10987000DCF80410DCF80820BCF810900CF5CB7C68
:10988000ACE80F00059BACF8009003F1130884F8D6
:10989000B66184F8B7E11AF8011F386820F0A6FD18
:1098A000D045F8D1FEF73BBE8649029B08781B687D
:1098B0000A2184F86B11002800F09485DFF814C2A7
:1098C0000128BCF80010069141F20B81BCF802108F
:1098D0000491022800F0A487BCF804100591032825
:1098E00001F00B810428BCF806B001F020810528A6
:1098F000BCF8081001F016810628BCF80A9001F0A7
:109900000D810728BCF80C6001F00581BCF80E80C1
:1099100094F87AA110938AF0300383EA0313DBB240
:109920001809694A84F810A080F07A00128840EA89
:10993000032080EAC3036548C2EB022280FB02C019
:109940001044D217C2EB602206988DF855204FF0D4
:10995000000E60F30F0E05984FF0000C60F30F0C33
:1099600000201BB261F30F00002166F30F0183EAB0
:109970000316C3F307230593049B69F31F4063F3A6
:109980001F4E68F31F416BF31F4C059BCDE911EC93
:10999000F6B2CDE9130183EA16134FF000098DF8F2
:1099A000549043EA062C0DF14008B8E80F008CEA09
:1099B000C60636B286F0C80EDFF81CC184F81190D6
:1099C0008EEA0E1E5FFA8EFEC6F30726ACE80F0085
:1099D00086EA1E1646EA0E2398E8030083EACE0EB6
:1099E0000FFA8EF383F023024CF8040B82EA021084
:1099F000C0B2C3F3072282EA101242EA00222CF816
:109A0000141982EAC0000AF1010A232641F2FE621B
:109A1000C82384F87AA1A081E674E2810CF11601D2
:109A2000A3741CF8013B434083EA0313DBB21A0919
:109A300082EA102242EA032282EAC3031BB298B2EE
:109A40008C45A081EDD183F0F40383EA0313DBB2EC
:109A5000060A86EA131686EA032686EAC306A046A5
:109A600036B21FFA86F958F80E0FDFF870C0A4F866
:109A70000C904FEA192EF6B284F82A6084F82BE095
:109A8000D8F80410D8F80820D8F80C30ACE80F004B
:109A9000D8F81000D8F81410D8F8182004F2C1191A
:109AA000ACE8070004F2A31884F8C1E184F8C061AF
:109AB00018F8011F386820F099FCC145F8D1FEF76D
:109AC00026BD00BFCC810020DE510020030820808D
:109AD000DE2800201CC00020E4280020742A00207A
:109AE000794B1B6803F00802002A4AF60B4048F63F
:109AF000034149F607484BF60F4204BF8846024629
:109B000013F0040F18BF90469806704B1B7848BF9F
:109B100048F480484FF0190148BF48F02008022B54
:109B200084F86A1140F28A8564204FF0FF3B4FF0C1
:109B3000000A94F87AC1CDF840808CF0F10383EAF2
:109B40000313DBB21E0986F0E706C8F3090246EAF2
:109B50000326CDE9118286EAC3064FF0000936B22A
:109B6000ADF84EA0ADF850B08DF85E00ADF84C9059
:109B7000CDF85290CDF85690CDF85A9086EA061E50
:109B80000DF14008B8E80F005FFA8EFEC6F3072615
:109B900086EA1E1646EA0E2686EACE06DFF834E18D
:109BA00084F81190AEE80F0098E80F0036B286F006
:109BB000C80888EA08185FFA88F8C6F30726AEE8EE
:109BC000070086EA181646EA082181EAC80109B2A8
:109BD0002EF8023B81F0010686EA0616F6B2C1F3C2
:109BE0000722714682EA16121B0C01F81E3942EA5E
:109BF00006224FF0010E82EAC60641F6FE70C82228
:109C00000CEB0E03E08184F813E0A27401F11F0055
:109C100084F810C0A68184F87A3111F8013B7340B2
:109C200083EA0313DBB21A0982EA162242EA03220C
:109C300082EAC3031BB29EB28142A681EDD183F0BA
:109C40007C0383EA0313DBB2360A86EA131686EA3C
:109C5000032686EAC30636B2B3B24FEA132AF6B237
:109C6000DFF86C90A38184F834A084F8336004F1A9
:109C70000E0C04F12E08DCF80000DCF80410DCF80F
:109C80000820DCF80C30CE46AEE80F000CF1100CCA
:109C9000C445F146EFD1DCF80000CEF80000DFF853
:109CA00038809CF804308EF8043008F1270984F8D5
:109CB000C96184F8CAA118F8011F386820F096FB22
:109CC000C145F8D1FEF71BBCD8510020265000201A
:109CD000742A0020E4280020732A00208F4B1B6880
:109CE00005229B0684F8732140F186838C4BDFEDBF
:109CF0008D6ADA891B8907EE902A07EE103AF8EE92
:109D0000E77AB8EE477A67EEA67A94F87AA1864B9E
:109D1000864AB3F90410B2F90620854E8548CDED88
:109D2000117A8AF0220383EA03135FFA83FC4FEA75
:109D30001C13B2F5FA6F83F05903A8BF4FF4FA620F
:109D400043EA0C2383EACC03B2F57A7F1BB2B8BF97
:109D50004FF47A72A2F57A7E83EA031C64225FFADA
:109D60008CFCC3F3072302FB0EF283EA1C1EA6FB46
:109D7000023280FB0130CB174FF0000B4EEA0C266D
:109D8000C2F38F12C3EBA0030DF14008CDF840B031
:109D9000CDF84CB08DED127A86EACC06ADF85220A3
:109DA000ADF85030C346BBE80F0036B286F0C80CA1
:109DB0008CEA0C1C5FFA8CFCC6F30726DFF88CE1FA
:109DC000DBF800B084F810A086EA1C16AEE80F009D
:109DD00046EA0C2686EACC031BB283F04A0686EAE2
:109DE00006117046C9B2C3F3072282EA111242EA91
:109DF000012240F810B982EAC1060AF1010A4FF0C7
:109E00004A0E41F2FE4C0022C8230490014684F819
:109E10007AA1A681143084F813E0A4F80EC062740D
:109E2000A37411F8013B734083EA0313DBB21A09F0
:109E300082EA162242EA032282EAC3031BB29EB2DE
:109E40008142A681EDD183F0140383EA0313DBB2D0
:109E5000360A86EA131686EA032686EAC306A2466F
:109E600036B21FFA86FC5AF80E0F334B0593F6B242
:109E70004FEA1C2E84F8286084F829E0DAF80410F0
:109E8000DAF80820DAF80C30A4F80CC0DFF8A8C023
:109E9000BAF818B0ACE80F00DAF81000DAF81410CD
:109EA000ACE8030004F2A31AACF800B084F8BE6179
:109EB000D34684F8BFE104F2BF161BF8011F3868CF
:109EC00020F094FA5E45F8D11C4B1D4A1B7812789D
:109ED000013B12F00100DBB214BFC0224022172B5D
:109EE00003D818490B4493F88892174B19888E07AA
:109EF0001ABF002342F01002012311F4027F18BFA1
:109F0000022311F0100F18BF062311F0200F18BF05
:109F10001023002840F0A183032119E0D85100202C
:109F2000E0B400200AD7233C4C5200201CC0002083
:109F3000D34D621067666666742A00201471002093
:109F4000BC510020E8EA030848520020E428002021
:109F500094F87A61109386F0460383EA0313D8B22B
:109F6000030983F0920343EA002383EAC0031BB290
:109F700083EA0310C0B2C3F3072E8EEA101E4EEA26
:109F8000002E8EEAC00E0FFA8EFE8EF0C80383EA12
:109F900003134FF0000CDBB20320CEF3072E8DF835
:109FA00044908DF845C08DF846208DF847108DF807
:109FB00048008EEA131E98E807004EEA032E8EEA48
:109FC000C3031BB2DDF810E084F813C083EA031862
:109FD000AEE803005FFA88F8C3F3072383EA181397
:109FE00043EA082383EAC80394F81480607DA17DC6
:109FF0008EF800201BB288EA030888EA08185FFA86
:10A0000088F8C3F3072383EA181343EA082383EA93
:10A01000C8031BB2584080EA0010C0B2C3F3072344
:10A0200083EA101343EA002383EAC0031BB25940BA
:10A0300081EA0111C9B2C3F3072383EA111343EA8A
:10A04000012383EAC10394F8178094F818E0607E36
:10A05000A17EE27E84F811C01BB288EA030888EA78
:10A0600008185FFA88F8C3F3072383EA181343EA52
:10A07000082383EAC8031BB28EEA030E8EEA0E1E83
:10A080005FFA8EFEC3F3072383EA1E1343EA0E230F
:10A0900083EACE031BB2584080EA0010C0B2C3F37B
:10A0A000072383EA101343EA002383EAC0031BB2A9
:10A0B000594081EA0111C9B2C3F3072383EA11139E
:10A0C00043EA012383EAC1031BB25A4082EA021227
:10A0D000D2B2C3F3072383EA121343EA022394F8AC
:10A0E0001C80DFF8F0E3267483EAC2031BB288EA1F
:10A0F000030282EA0212D2B2C3F3072383EA1213E5
:10A1000043EA022383EAC2031BB283F0320282EAEB
:10A110000212D2B2C3F3072383EA121343EA0223E3
:10A1200083EAC2031BB29AB240F6FE10C8214FEA7E
:10A13000122CA174DBB20136E081DEF8000084F855
:10A140007A6184F81EC06377A281DEF80410DEF81D
:10A150000820BEF80C90059E0EF5CB7EAEE80700F9
:10A1600010368EF80280AEF8009084F8B4C184F8FE
:10A17000B3311AF8011F386820F038F9B245F8D128
:10A18000FEF7E1B9FF2012F08BFA0378FF2B14BF22
:10A1900090F901103146022013F0A2F9FF2012F0CD
:10A1A0007FFA0378B74EFF2B14BFB0F908100021D7
:10A1B000032013F095F97379002B40F0BF823B68C0
:10A1C000980600F1518294F82031FEF7C6BADFF804
:10A1D00008839FEDAD8AA8F12C092426B9F8183020
:10A1E000F8EC016A07EE103AB8EEC77A3046C6EED0
:10A1F000877A0136F6B267EE887AFDEEE77A17EED7
:10A20000903A19B213F06CF9272EE7D194F8203167
:10A21000FEF79FBA022120F0D1F8FEF732BCC4F855
:10A2200030511E70FEF716BC99F8021048461CF01B
:10A23000F5F800287EF49CAC944B186820F0D2F816
:10A2400000287EF43DA9914BDFF890821868904C6D
:10A25000394620F0B3F899F8033098F803200493B6
:10A2600094F8603103930423059288F80230002AA1
:10A2700000F07B8398F80470864BDFF864A2013706
:10A28000FFB207EB470903EB8909FBB2092B3946FB
:10A29000504688F8043007F1010700F21B841EF0D5
:10A2A0008DFB28B999F80830FF2B09F10C09ECD186
:10A2B00098F80420784B07924FF00C0909FB0239FB
:10A2C000764FD9F804120691084631F0D7FFD9F835
:10A2D000083205935FFA80F9184631F0CFFF5FFA34
:10A2E00080FA079A069909EB0A000830F87122F003
:10A2F0000F00B87202F00F020AEBC9007A73B8734C
:10A300004A4607F10F0032F0F5FF059B07F1060BF7
:10A3100009F1090052461946584432F0EBFFFA7928
:10A3200002F1010ABAB1013A07F107095C4B59FA87
:10A3300082F9DC4600221CF8011F51408A00C8083F
:10A3400082EA410200F018004A4043FA00F14A4014
:10A35000E145D2B2EFD104980AF80B2031F04CF865
:10A3600098F80330013BDBB288F8033013B94D4B4A
:10A370001B780393454BBA78186848491FF0FEFFD5
:10A3800003239DF80C2084F8602188F80230337094
:10A39000FEF79BB81A4602931768434B434EA3FB44
:10A3A00007239B0BA6FB03214909C1EB0111A3EB7A
:10A3B0008103190209B20023172084F8203113F019
:10A3C0008FF83B4BA3FB07239B09A6FB0312520903
:10A3D000C2EB0212A3EB820319B2182013F080F82B
:10A3E000FEF7C0B90646814601468346CDE9040022
:10A3F00006908046FFF78CBADFED2E7AB0EE677AD2
:10A4000083E42D4B1193A3F1400900212122A3F1F4
:10A410003D0A23F8401C89F80220CDF840A007F03F
:10A42000A5F8264B264E274A1B88002808BF16464B
:10A43000590500F1F081DA0700F15582224A13F044
:10A44000020F18BF1646304631F018FF31468346DA
:10A4500002461E4832F04EFF0AEB0B0318A81C49B7
:10A46000013340F8203D00225B1A0AF80B2089F8DE
:10A47000013013F099F8FEF7EDBB4FF0010AFDF73C
:10A48000ABBF00BF2850002000007A44B471002008
:10A49000D0280020ECEC0308E8EA0308F8B4002018
:10A4A0000007090EE455002073B2E74589888888C3
:10A4B000D34D6210000000003856002048520020A2
:10A4C000F01D0408E81D0408001E0408FB550020C8
:10A4D000F9550020DE2800205498002000000020BC
:10A4E000E0550020D24BD34ADFF8809311881193B6
:10A4F00018AEA3F13D0246F8202D4FF4206C08223F
:10A5000023F840CC304603F83E2C21F0F7FBD9F875
:10A510000030C949DA1781FB0313C2EBA30399B2D8
:10A52000304621F0EBFB08F017F9D9F80890109BA2
:10A530004FEA1942591C10911A70109B4FEA1922C8
:10A54000591C10911A70109B5A1C109283F800909D
:10A55000109B5A1C10921870304613F025F8FEF725
:10A5600075BBDFF80C939FEDB58AB9F9023007EEA1
:10A57000903AF8EEE77AAE4B119367EE887A18AE10
:10A58000FDEEE77AA3F13D0246F8202D17EE902A62
:10A5900091B24FF4006223F8402C1E2203F83E2CA7
:10A5A000304621F0ABFBB9F9003007EE903AF8EEF7
:10A5B000E77A304667EE887AFDEEE77A17EE903A52
:10A5C00099B221F09BFBB9F9043007EE903AF8EE0E
:10A5D000E77A304667EE887AFDEEE77A17EE903A32
:10A5E00099B221F08BFB304612F0DEFFFEF72ABB5A
:10A5F0004FF0340AFEF710BC0122D8F800001A70A0
:10A600001FF0E8FE0646D8F800001FF0E3FE7706CC
:10A610007EF420AA8A2800F086818E287EF41AAA69
:10A6200099F80030002B7DF44BAE854E854B33609E
:10A630002D2384F834313768FEF711BA824A5379F2
:10A640009279002B40F01A81002A40F05D829246F8
:10A6500064204FF0FF3BFFF76CBA7C49C9780029B2
:10A660000CBF0421052173E4794F7A4E3B7899079A
:10A6700000F11981002109B2012012F031FF0021FF
:10A68000092012F02DFF718A94F82021337DB1F555
:10A69000967F08D902F00F02072A04D842F20F73FE
:10A6A0008B4228BF0B46DFF8B88198F80820CAB162
:10A6B000203B07EE903A9FED687AF8EEE77AF6EEE7
:10A6C000006A67EE877ABEEE007AF5EEC07AF1EEA8
:10A6D00010FA58BFB0EE667A77EE877AFDEEE77A29
:10A6E00017EE903A19B2052012F0FAFE3A780023DC
:10A6F000CDE90E3393077FD494F82431012B7BD01E
:10A70000B8F90030DFED556A07EE103AB8F90230BB
:10A7100007EE903AB8EEC77AF8EEE77A27EE267A97
:10A7200067EEA67ABDEEC77AFDEEE77A10A88DED4A
:10A73000107ACDED117A12F0EBFE44E5DFF834919A
:10A7400099F80030002B40F0D480DFF8E8801946FB
:10A750001A460620A4F8222112F0C2FE404AB4F89C
:10A760002231507AB8F8001001330128A4F82231C0
:10A7700000F0EA80127B99F8003001EB81011FFAAA
:10A7800081F912B10BB199FBF3F9DFF8EC80A8FB6A
:10A7900009384FEA58180FFA88F13A2012F0A0FE53
:10A7A000642101FB189189B22E4B0531A3FB0131C5
:10A7B000C9083B2012F094FEB379002B3FF4FFACA4
:10A7C000DFF8A8800A22D8F8003093FBF2F32820A3
:10A7D00019B212F085FE3389002B40F0BA80D8F808
:10A7E000081081F3100109B2042012F079FEE6E4AA
:10A7F0004FF00108FEF76BBDD6E9002301210EA83A
:10A8000084F82411CDE90E2312F082FEDBE44FF030
:10A81000240AFEF701BB144E15E60021FEF731BCF9
:10A82000164691461146934605929046FFF770B83A
:10A8300038560020345200206766666658A08B4167
:10A84000F0550020B456002028500020E45100208C
:10A85000DC510020E0B40020E4380E3F0050C34734
:10A86000984F0020CDCCCCCCF41D04083C520020E5
:10A870004C5200203A5200201F85EB51AF4B1B88F1
:10A8800003EB830303EB83034FEA830A1FFA8AFA7D
:10A89000002A00F02F81AA4BB3F900B007F05CFF4B
:10A8A00040B2FFF746B9F189A64B4FF4F368112087
:10A8B00008FB01F191FBF3F109B212F011FEF389EB
:10A8C000642108FB03F393FBF1F393FBF1F201FB2B
:10A8D000123109B2192012F003FE3B7831899A0730
:10A8E0003FF5C9AEC6E6984EADE54FF0100AFEF74B
:10A8F00093BADFF84882B4F82201B8F8001090FB50
:10A90000F3F24FF0640C03FB12020CFB013192B224
:10A910005B00B1FBF3F10B0243EA0213C1F3032125
:10A920000B4319B215E7894B1B689E067EF592A86A
:10A9300099F80030002B7DF4C3AC854E854B336015
:10A940002D2384F8343176E609B2392012F0C8FD9F
:10A9500032E707F001FF01B246E74FF0200AFEF7A9
:10A960005BBA4FF0080AFEF757BA744B744A59881D
:10A97000794B506892680A92B3F904200992B3F9AE
:10A980000220B3F900300793039B744F089203F041
:10A99000F00303F11002DDF80CA0DFF8C8B10B9151
:10A9A000D2B20D9007F10D0901FB00F0BB726421DA
:10A9B000069290FBF1F150460C91069B834246D9DA
:10A9C0000C2303FB00B2431E92F80C2242EA001152
:10A9D00089F8001009F10101082B78D8DFE803F0AD
:10A9E0007175736F6D6B69057300099B5A4492F81A
:10A9F0007C22012A0DD9023AD2B202F1020CE144C2
:10AA00008C460CF8013BCC454FEA1323F9D10132B7
:10AA100011444FF00C0A0AFB00B223F0600392F8D5
:10AA20000D2213430B7001F1010912F0EDFC4C4BA8
:10AA3000A9EB0302039B834209D20AFB00B393F8FC
:10AA40000C325B4493F87C321344122BB5DD444B3B
:10AA5000DFF814B1DFF814E1A9EB03010631C9B244
:10AA600041F040038246FB7101F101090020059B82
