:020000040800F2
:10000000F0FF001089F8030875E403088D3A010831
:10001000B9F90308B9F90308B9F9030800000000A9
:10002000000000000000000000000000FDEA0308DE
:10003000F9EA030800000000F5EA03082D81010831
:10004000B9F90308B9F90308B9F90308B9F90308BC
:10005000B9F90308B9F90308D55C0208015E020882
:10006000C55D0208895D02084D5D0208E19B02083A
:10007000D19B0208C19B0208B19B02089D9B02080C
:10008000899B0208759B0208B9F90308B9F90308AE
:10009000B9F90308B9F90308B9F90308115D0208B1
:1000A000B9F90308B14B0108B9F90308714C01080B
:1000B000B9F90308B9F90308F14A01087DA102085A
:1000C00085A1020871A1020879A10208B9F9030803
:1000D000B9F903082584010889830108ED82010824
:1000E000995C0208B9F9030801EB0308A548010867
:1000F00071490108B9F90308314A0108619B0208F6
:10010000B9F90308B9F90308B9F90308B9F90308FB
:1001100051820108B5810108D9CC0008BDCC000886
:100120004D9B0208399B020841900208259B02085A
:10013000119B0208B9F90308B9F90308B9F90308D2
:10014000B9F90308B9F90308B9F9030879E4030810
:10015000FD9A0208E99A0208D59A0208B9F903083B
:1001600065A102086DA10208B9F90308B9F90308ED
:10017000B9F90308B9F90308B9F90308B9F903088B
:10018000B9F90308B9F9030830F4030001000000CD
:10019000070202002C35002070350020000000000E
:1001A0004006000802000C000035002074350020D5
:1001B000000000000000000006020C00F4340020E3
:1001C0008035002000000000399100080802090075
:1001D0007E3400208C3500200000000005900008CF
:1001E000F701060078340020983500200000000058
:1001F000420600080A020A00AC320020A0350020A6
:10020000000000004806000827000400BC3300205E
:10021000AC35002000000000520600080120080054
:1002200064320020B03500200000000056060008AF
:100230001A000A00102A0020B83500200000000033
:100240005E06000803123300845600200A5B00207B
:10025000000000006806000825005A00B75600207C
:10026000A05A00200000000000000000F6110C0061
:10027000105A0020305A0020000000009C060008A0
:100280002C0010001C5A0020FA5A00200000000028
:10029000E9D401082B002400615B00203D5B0020B5
:1002A00000000000B9D40108290064003059002082
:1002B0003C5A002000000000000000001400020072
:1002C000DC5800202C5A002000000000A80600087E
:1002D00010100300CC580020CC5B00200000000070
:1002E000AA06000828001000D4540020D05B00208B
:1002F000000000000DB5010823001000F853002095
:10030000E05B00200000000025B501081900050091
:10031000C4580020F05B002000000000AE0600087A
:10032000F821060042550020F85B00200000000084
:10033000B406000822000C00387F00200C8000204A
:1003400000000000BA0600081B00F4006C620020E8
:10035000188000200000000011B302080E02020005
:10036000D47100200C81002000000000C6060008A7
:100370002F001100D47F0020108100200000000019
:10038000C806000805100600008000202481002017
:1003900000000000DA060008F5216E00E46100208C
:1003A0002C81002000000000E5AA020826000E00B3
:1003B000AC8100209C81002000000000BDAA020842
:1003C0000B20100054620020BC81002000000000BF
:1003D000E00600081F101C00C4610020CC81002032
:1003E00000000000F0060008050201002C6E00204D
:1003F000E8810020000000000C07000803010A004B
:1004000050640020EC810020000000000E0700086E
:1004100016000800588200207C82002000000000A6
:10042000180700080A102C0022860020708B00207C
:1004300000000000200700080E20F0003285002098
:100440009C8B002000000000E182000813000400E3
:10045000088700208C8C0020000000004C0700085A
:1004600001010400B2840020908C002000000000F4
:100470000000000000010400AA840020948C0020E9
:10048000000000005007000802010300A5840020BE
:10049000988C002000000000418F00080902010034
:1004A000A88A00209C8C002000000000540700084F
:1004B0000C10600082860020A08C0020000000004C
:1004C000158F000801020500BA840020008D00206D
:1004D000000000009D5303080002050088820020F0
:1004E000088D002000000000000000001E00040035
:1004F0007C880020108D00200000000056070008B6
:10050000130201003096002030C3002000000000DC
:1005100000000000040080002CC2002034C3002032
:100520000000000000000000F901040010B70020E6
:10053000B4C300200000000085360108FD011E0044
:10054000ECB60020B8C300200000000015360108FA
:100550000610160004AA0020D8C3002000000000E6
:1005600009860008FB01010040A90020F0C300201B
:1005700000000000898F0008FC0109000CA8002081
:10058000F4C3002000000000C98F00081102080019
:10059000E0A7002000C40020000000005A07000867
:1005A00012120400D8A7002008C400200000000098
:1005B0006207000812200D00C4A700200CC4002010
:1005C000000000006607000818202C0020A700206B
:1005D0001CC400200000000069E201080D00340086
:1005E0004CA7002048C40020000000009D14030810
:1005F000FA010200F4A000207CC4002000000000EA
:10060000B94D0208020203005896002080C4002061
:1006100000000000000000000C02010048960020CD
:1006200084C400200000000074070008FE010900D7
:10063000C8A0002088C40020000000002F900008FF
:10064000023C3F010000000000004A01B400D60156
:10065000260020030000E8036400040A00017E0570
:10066000EA05B405320000000000000000000000B0
:10067000000000000000000000000000000000007A
:10068000000000000000000000000000000000006A
:100690000000000000000000000001000000000059
:1006A0000000000000000000030000050000000042
:1006B000280100000200F4011900C800141E010006
:1006C00064002C0128000000000000000000000071
:1006D00000000000000000000000200001010000F8
:1006E0002B21231E64010100000001000A012900E2
:1006F00000000000000001000000050000000000F4
:1007000000000000000000000000000000000401E4
:1007100001006C1600000000651B0D00190128285F
:1007200000300107015A0001000000000000000035
:10073000000000000100000030000100B80BB80B01
:10074000B80B20007800780078000000080444000E
:10075000FA0000000000000001000000000001019C
:100760000101FFFFFFFF00000001000005484553A5
:1007700050000000010000803F0000000000000069
:100780000000000000000000000000000000000069
:1007900000000000000000000000000000000080D9
:1007A0003F0000000000000000000000000000808A
:1007B0003F0000000000000000000000000000807A
:1007C0003F000000000000000000000000000000EA
:1007D00000603500200800000000000000503500D7
:1007E00020080000000000803F0000803FD0180477
:1007F00008050804000000000064440408EC360406
:1008000008504404080000000000000000FC180428
:100810000805080A000000000064440408EC3604DF
:1008200008604304080000000000000000FF010110
:1008300002FFFF0000D601000015C50108000000FE
:10084000000000000001006C0001000000FFFFFF3D
:10085000FF0100000050010000070000000200003E
:100860000000000000000000000102030406070869
:100870000909026400030100C032090400000103F9
:100880000000000921110100012226000705830351
:1008900008000A080B01020202010009040100011C
:1008A00002020100052400100105240100020424B5
:1008B00002020524060102070582030800FF09045D
:1008C0000200020A000000070501024000000705BF
:1008D000810240000000FFFF0000000000AA550553
:1008E0000100000100000001FFFF010000050109F7
:1008F00005A101A1000501093009310932093309B7
:10090000350934094009381581257F750895088116
:1009100002C0C0000009022200010100E032090407
:10092000000001030102000921110100012226003B
:100930000705830308000A0000000000000102030D
:100940000401020304060708092D202D2D202D2D5A
:100950002D2D202D2D2D2D00000000000000000069
:100960000000000000000000AA550B010000AA557D
:1009700007010000AA550902000000000001000064
:1009800000C012AA5503009F00FF1FFF1FC4780478
:10099000080000000000000000558F0008A086013C
:1009A0000004000000000000000000000000000043
:1009B0000000000000000000000000000000000037
:1009C00000F08D040830860408D14D02085DD9007E
:1009D000087D00000007000000000000000000008B
:1009E0000000000000000000000000000000000007
:1009F000000000000038860408000000000000002D
:100A000000493F0108E80300000300000000000067
:100A100000000000000000000000000000000000D6
:100A20000000000000000000003C860408000000F8
:100A3000000000000015920008E803000005000017
:100A400000000000000000000000000000000000A6
:100A500000000000000000000000000000488604C4
:100A6000080000000031D20108FD5301086A180097
:100A70000005000000000000000000000000000071
:100A80000000000000000000000000000000000066
:100A900000707A0408000000000000000075AF013B
:100AA0000810270000010000000000000000000006
:100AB0000000000000000000000000000000000036
:100AC00000000000004C8604080000000000000048
:100AD00000B9340108E80300000500000000000030
:100AE0000000000000000000000000000000000006
:100AF000000000000000000000588604080000000C
:100B00000000000000B1D10008204E0000030000EA
:100B100000000000000000000000000000000000D5
:100B200000000000000000000000000000688604D3
:100B30000800000000000000009DCF0008204E00CB
:100B400000030000000000000000000000000000A2
:100B50000000000000000000000000000000000095
:100B600000788604080000000000000000953601AF
:100B700008400D030003000000000000000000001A
:100B80000000000000000000000000000000000065
:100B90000000000000887904080000000000000048
:100BA00000411D03081027000001000000000000A4
:100BB0000000000000000000000000000000000035
:100BC000000000000000000000787A040800000027
:100BD0000000000000E58603081027000003000065
:100BE0000000000000000000000000000000000005
:100BF00000000000000000000000000000888604E3
:100C0000080000000000000000DDDD0108A08601F2
:100C100000010000000000000000000000000000D3
:100C200000000000000000000000000000000000C4
:100C300000908604080000000000000000A59A0350
:100C400008A0860100010000000000000000000074
:100C50000000000000000000000000000000000094
:100C600000000000007C7A04080000000000000082
:100C7000007D850108A00F000001000000000000B9
:100C80000000000000000000000000000000000064
:100C90000000000000000000009C86040800000026
:100CA000000000000095C0020810270000010000AD
:100CB0000000000000000000000000000000000034
:100CC0000000000000000000000000000090790417
:100CD000080000000000000000190D03081A410080
:100CE0000001000000000000000000000000000003
:100CF00000000000000000000000000000000000F4
:100D000000DC7A0408000000000000000095A70243
:100D10000810270000010000000000000000000093
:100D200000000000000000000000000000000000C3
:100D30000000000000F4850408000000000000002E
:100D4000005D7603081A4100000100000000000069
:100D50000000000000000000000000000000000093
:100D6000000000000000000000A886040800000049
:100D70000000000000CDDD0208400D03000000006F
:100D80000000000000000000000000000000000063
:100D900000000000000000000000000000B0860419
:100DA00008000000000000000059140308400D0373
:100DB0000000000000000000000000000000000033
:100DC0000000000000000000000000000000000023
:100DD00000B88604080000000000000000918C03A9
:100DE00008A08601000300000000000000000000D1
:100DF00000000000000000000000000000000000F3
:100E00000000000000C4860408000000000000008C
:100E10000069CF000840420F000000000000000001
:100E200000000000000000000000000000000000C2
:100E3000000000000000000000D086040800000050
:100E40000000000000B515030850C30000000000BA
:100E50000000000000000000000000000000000092
:100E60000000000000000000000000000001000081
:100E700000FFFFFFFFC5CD020849CD020839C602B9
:100E8000080000000029B20208B9CE020831B202FF
:100E9000082DB20208000000000000000085A20238
:100EA00008CDA703088DA7030895E30308000000F9
:100EB0000005A40308E1A6030861A7030849A603E7
:100EC000080000000000000000F9A30308E0010191
:100ED00001010000008D55030800000000D4080047
:100EE00020849404080000000000000000000000BE
:100EF0000000000000C89504080000000000000089
:100F0000006009002004000000309404080D000077
:100F1000009D7003081C24002000000000608D0468
:100F2000080D000000C57003081024002000000018
:100F300000D08E0408080000000000000004240017
:100F40002004000000CC8D04080D00000041560371
:100F500008F823002000000000808E040803000031
:100F600000E1720308EC23002000000000949404C8
:100F70000803000000E1720308E0230020000000E5
:100F800000BC8A040801000000000000000000000E
:100F90000000000000000000000E00000000000043
:100FA000000000000000000000849404080000001D
:100FB00000000000000000000000000000C89504D0
:100FC000080000000000000000600900200400008C
:100FD00000DC930408030000009D610308D4230093
:100FE0002008000000CC8D04080D000000415603CD
:100FF00008F823002000000000808E040803000091
:1010000000E1720308EC2300200000000094940427
:101010000803000000E1720308E023002000000044
:1010200000BC8A040801000000000000000000006D
:101030000000000000000000000E000000000000A2
:101040000000000000000000009C94040800000064
:1010500000000000000000000000000000C895042F
:1010600008000000000000000060090020040000EB
:1010700000E493040803000000E172030828240040
:101080002000000000BC8A040801000000000000ED
:10109000000000000000000000000000000E000042
:1010A00000000000000000000000000000207000B0
:1010B00020702D72000800000000000000000000F9
:1010C00000901F0020FFFFFFFFFA0000000100005A
:1010D00000010000002D202D2D202D2D2D2D202D47
:1010E0002D2D0000000000000000000000000000A6
:1010F0000000000000908A0408988A0408B48A045A
:1011000008000000000000000000000000000000D7
:1011100000268A040804000000656E030800000031
:101120000000000000BC8A0408010000000000006C
:10113000000000000000000000000000000E0000A1
:1011400000000000000000000000000000DEC200FF
:10115000200100C40900000000DCC200200100C41E
:101160000900000000DAC200200100C409000000EC
:1011700000D8C200200100C40900000000D4C20051
:10118000200100C40900000000D6C200200100C4F4
:101190000900000000D2C200200100C409000000C4
:1011A00000D0C200200100C40900000000CC84006F
:1011B000200100C80001000000CA84002032003075
:1011C0007532000000C8840020055A0500C584005F
:1011D0002000FF0100C784002001000000800900FA
:1011E00020C384002002000000E8370408C4840003
:1011F0002000FF0100C684002001000000800900DB
:1012000020C284002002000000E8370408B88400EF
:101210002080C1803E05000000B684002080C1808F
:101220003E05000000B084002080C1803E05000023
:1012300000AE84002080C1803E05000000A884002C
:101240002000FF0100A48400200A320100A38400D2
:10125000200400000040430408A284002002000093
:10126000005443040800000000000000008809004A
:1012700020E46D00209CFF2C01000000005A0700B4
:10128000200A0000006043040898840020E0150C48
:1012900017000000005C07002008000000EC360486
:1012A000085B07002005000000644404089A8400DD
:1012B000200200000078430408F88600200100FFA7
:1012C0007F01000000F68600200200000084430435
:1012D00008278500200300000094430408268500A9
:1012E0002003000000944304085A8600200000C236
:1012F0000101000000568600200000C2010100002C
:1013000000588600200000C2010100000052860043
:10131000200000803E320000005086002000008047
:101320003E320000004E8600200000803E32000069
:10133000005486002000002C01010000006486009B
:10134000200000F40101000000628600200000F48B
:101350000101000000608600200000F4010100008F
:10136000005E8600200000F401010000005C8600A1
:101370002000FF010080860020E803D0070A00005B
:10138000007E860020006401000A000000738600D1
:10139000200064010072860020006401007A86004B
:1013A00020006401000A000000798600200064012A
:1013B000000A00000078860020006401000A000096
:1013C000007D860020006401000A0000007C860089
:1013D00020006401000A0000007B860020006401F8
:1013E000000A0000007786002000FF01000A0000CC
:1013F000007686002000FF01000A000000758600CC
:101400002000FF01000A0000002E8500200000F4EB
:1014100001010000002C8500200000F40101000003
:10142000002A8500200000F401010000002885004A
:10143000200000F401010000006E8600201400E886
:1014400003010000006C860020E8033075010000F5
:10145000006B86002000C801006A86002000C801D9
:10146000006986002000C801006886002001640130
:10147000000A0000006786002000FF01000A00004B
:1014800000EC86002000C80100EB86002000C801A7
:1014900000EA86002000C80100E986002000C8019B
:1014A00000E886002000C80100E786002000C8018F
:1014B00000E686002000C80100E586002000C80183
:1014C00000E486002000C80100E38600200100003F
:1014D00000A4430408E48A0408000000000000009F
:1014E000000000000000000000F48A040809000069
:1014F00000000000002C0A002004000000FC8A0408
:10150000080900000000000000200A00200400007C
:1015100000DC9104080900000000000000140A002B
:1015200020040000005050040809000000000000E2
:1015300000080A002004000000048B0408090000D1
:101540000000000000FC090020040000000C8B04D7
:10155000080900000000000000F00900200400005D
:1015600000148B04080900000000000000E40900DA
:1015700020040000001C8B0408090000000000008B
:1015800000D809002004000000BC8A040801000003
:10159000000000000000000000000000000000004B
:1015A000000E00000000000000000000000000002D
:1015B00000548C040800000000000000000000003F
:1015C0000000000000787804080700000000000018
:1015D00000500A002000000000648C04080800008D
:1015E0000000000000440A002000000000708C048D
:1015F000080800000000000000380A002000000079
:1016000000BC8A0408010000000000000000000087
:101610000000000000000000000E000000000000BC
:10162000000000000000000000788C0408000000AA
:1016300000000000000000000000000000888C0492
:10164000080D000000000000008C0A0020000000CF
:1016500000908C04080D00000000000000800A00CB
:101660002000000000988C04080700000000000023
:1016700000780A002000000000A08C04080D000083
:1016800000000000006C0A002000000000A88C048C
:10169000080D00000000000000600A0020000000AB
:1016A00000B08C04080700000000000000580A0089
:1016B0002000000000BC8A040801000000000000B7
:1016C000000000000000000000000000000E00000C
:1016D00000000000000000000000000000B88C04C2
:1016E00008000000000000000000000000000000F2
:1016F00000787804080C00000000000000CE840090
:101700002000000000CC8C04080C00000000000049
:1017100000D084002000000000DC8C04080C0000D5
:1017200000000000000685002000000000EC8C0492
:10173000080C00000000000000FA840020000000F7
:1017400000008D04080C00000000000000D284009E
:101750002000000000148704080C000000000000B6
:1017600000D4840020000000000C8D04080C000050
:101770000000000000D684002000000000208D043E
:10178000080C00000000000000D8840020000000C9
:1017900000288D04080C00000000000000DA84001E
:1017A0002000000000308D04080C00000000000044
:1017B000001885002000000000488D04080C00007F
:1017C0000000000000DC84002000000000548D04B4
:1017D000080C00000000000000DE84002000000073
:1017E00000B48504080C00000000000000E0840044
:1017F00020000000005C8D04080C000000000000C8
:1018000000E284002000000000688D04080C000045
:101810000000000000E484002000000000748D043B
:10182000080C00000000000000E68400200000001A
:1018300000808D04080C00000000000000E8840017
:1018400020000000008C8D04080C00000000000047
:1018500000EA84002000000000988D04080C0000BD
:101860000000000000FE84002000000000A08D04A5
:10187000080C00000000000000FC840020000000B4
:1018800000A88D04080C000000000000000A85007C
:101890002000000000B48D04080C000000000000CF
:1018A000000C85002000000000C08D04080C000022
:1018B00000000000001285002000000000AC8B0436
:1018C000080C00000000000000EC84002000000074
:1018D00000CC8D04080C00000000000000F484001F
:1018E0002000000000D48D04080C0000000000005F
:1018F00000EE84002000000000E08D04080C0000D1
:101900000000000000F084002000000000EC8D04C6
:10191000080C00000000000000F28400200000001D
:1019200000F48D04080C00000000000000F68400A4
:101930002000000000987804080C0000000000005F
:10194000000085002000000000008E04080C00004C
:101950000000000000F8840020000000000C8E044D
:10196000080C0000000000000008850020000000B6
:1019700000188E04080C0000000000000002850022
:101980002000000000208E04080C00000000000071
:10199000000485002000000000288E04080C0000D0
:1019A00000000000000E85002000000000308E04C2
:1019B000080C00000000000000108500200000005E
:1019C00000BC8A04080100000000000000000000C4
:1019D0000000000000000000000E000000000000F9
:1019E000000000000000000000388E040800000025
:1019F00000000000000000000000000000448E0411
:101A0000080D00000000000000E40A0020000000B3
:101A1000004C8E04080D00000000000000D80A00F1
:101A20002000000000548E040807000000000000A1
:101A300000D00A002000000000608E0408070000AB
:101A40000000000000C80A0020000000006C8E04A6
:101A5000080900000000000000BC0A00200000008F
:101A600000788E04080900000000000000B00A00A1
:101A70002000000000848E0408090000000000001F
:101A800000A40A002000000000948E040809000051
:101A90000000000000980A002000000000BC8A043A
:101AA000080100000000000000000000000000002D
:101AB00000000000000E0000000000000000000018
:101AC0000000000000A88E040800000000000000D4
:101AD000000000000000000000B88E0408050000AF
:101AE00000000000002585002000000000BC8A04E2
:101AF00008010000000000000000000000000000DD
:101B000000000000000E00000000000000000000C7
:101B10000000000000C08E0408000000000000006B
:101B2000000000000000000000C89504080000004C
:101B30000000000000D401002004000000CC8E044E
:101B4000080D000000C96E0308380B0020000000DB
:101B500000309404080D000000455503082C0B00CC
:101B60002000000000608D04080D000000295503CE
:101B700008200B002000000000D08E0408080000A0
:101B80000000000000140B002004000000CC8D04B5
:101B9000080D00000071540308080B00200000002D
:101BA00000D88E04080900000000000000FC0A00B4
:101BB0002004000000808E040803000000E172038E
:101BC00008F00A002000000000BC8A0408010000A0
:101BD0000000000000000000000000000000000005
:101BE000000E0000000000000000000000000000E7
:101BF00000E08E040800000000000000000000006B
:101C00000000000000F08E04080D0000000000003D
:101C100000500B002000000000F88E04080A0000AD
:101C200000000000002D88002000000000048F0448
:101C3000080A0000000000000035880020000000B5
:101C4000000C8F04080A000000000000003D88001E
:101C50002000000000148F040808000000000000AD
:101C600000440B0020000000001C8F04080400004A
:101C700000797403080000000000000000BC8A0422
:101C8000080100000000000000000000000000004B
:101C900000000000000E0000000000000000000036
:101CA0000000000000288F04080000000000000071
:101CB0000000000000000000003C8F04080D000040
:101CC0000000000000680B0020000000004C8F04A2
:101CD000080400000011710308000000000000006B
:101CE00000548F04080D000000000000005C0B0091
:101CF0002000000000688F040804000000ED70035D
:101D0000080000000000000000BC8A040801000078
:101D100000000000000000000000000000000000C3
:101D2000000E0000000000000000000000000000A5
:101D300000708F0408000000000000000000000098
:101D40000000000000848F04080000000000000074
:101D5000000000000000000000A48F04080800003C
:101D60000000000000BC0B002000000000AC8F044D
:101D7000080800000000000000B00B002000000078
:101D800000B48F04080800000000000000A40B004D
:101D90002000000000BC8F040808000000000000C4
:101DA00000980B002000000000C48F040808000009
:101DB00000000000008C0B002000000000D08F0409
:101DC000080800000000000000800B002000000058
:101DD00000DC8F04080800000000000000740B0005
:101DE0002000000000BC8A04080100000000000080
:101DF000000000000000000000E48F040802000062
:101E000000C574030802000000000000000000008C
:101E1000000E0000000000000000000000000000B4
:101E200000F08F0408000000000000000000000027
:101E300000000000000490040807000000000000FB
:101E400000F80B00200000000010900408080000BB
:101E50000000000000EC0B0020000000001C9004BB
:101E6000080800000000000000E00B002000000057
:101E700000289004080800000000000000D40B00B7
:101E8000200000000034900408080000000000005A
:101E900000C80B002000000000BC8A0408010000FC
:101EA0000000000000000000000000000000000032
:101EB000000E000000000000000000000000000014
:101EC000004090040800000000000000003B0900F2
:101ED00020000000004C9004080B000000000000EF
:101EE00000880C002000000000589004080B00003F
:101EF00000000000007C0C00200000000064900442
:101F0000080B00000000000000700C002000000022
:101F100000709004080B00000000000000640C003A
:101F200020000000007C9004080B0000000000006E
:101F300000580C002000000000889004080B0000EE
:101F400000000000004C0C002000000000949004F1
:101F5000080B00000000000000400C002000000002
:101F600000A09004080B00000000000000340C00EA
:101F70002000000000AC9004080B000000000000EE
:101F800000280C002000000000B8900408070000A2
:101F90000000000000200C002000000000C09004A1
:101FA000080700000000000000180C0020000000DE
:101FB00000CC9004080B000000000000000C0C0096
:101FC0002000000000D89004080800000000000075
:101FD00000000C002000000000BC8A040801000082
:101FE00000000000000000000000000000000000F1
:101FF000000E0000000000000000000000000000D3
:1020000000E4900408000000000000000000000050
:102010000000000000F89004080800000000000024
:1020200000B80C0020000000000491040808000023
:102030000000000000AC0C00200000000010910423
:10204000080800000000000000A00C0020000000B4
:1020500000DC8F04080800000000000000940C0061
:102060002000000000BC8A040801000000000000FD
:10207000000000000000000000000000000E000052
:10208000000000000000000000000000001C91049F
:1020900008000000000000000038090020000000D7
:1020A000002C9104080B00000000000000000D004F
:1020B0002000000000389104080B00000000000020
:1020C00000F40C0020000000004491040807000008
:1020D0000000000000EC0C00200000000050910403
:1020E000080700000000000000E40C0020000000D1
:1020F000005C9104080700000000000000DC0C00F8
:1021000020000000006891040808000000000000A2
:1021100000D00C00200000000070910408080000AE
:102120000000000000C40C002000000000BC8A0475
:102130000801000000000000000000000000000096
:1021400000000000000E0000000000000000000081
:10215000000000000078910408000000000000006A
:10216000003809002000000000849104080D0000E0
:102170000000000000540D002000000000909104B9
:102180000807000000000000004C0D0020000000C7
:1021900000989104080700000000000000440D00B2
:1021A0002000000000A091040807000000000000CB
:1021B000003C0D002000000000185004080700003B
:1021C0000000000000340D0020000000002050043A
:1021D0000807000000000000002C0D002000000097
:1021E00000285004080700000000000000240D0033
:1021F0002000000000A89104080700000000000073
:10220000001C0D002000000000B091040807000031
:102210000000000000140D002000000000B8910430
:102220000807000000000000000C0D002000000066
:1022300000BC8A040801000000000000000000004B
:102240000000000000C091040802000000C57403F3
:10225000080100000000000000000000000E000067
:10226000000000000000000000000000000000006E
:1022700000B5580308600D0020238500201D0000D4
:1022800000AC4304082285002000C801002085001E
:1022900020E803D0070100000048454C494F535047
:1022A00052494E4700C184002000030100C0840051
:1022B0002000030100FD570308D55703083C0E001A
:1022C000209157030845570308B40E00203D5803DA
:1022D0000825580308680F0020B156030865560307
:1022E0000874120020CB580308595C0308501300EF
:1022F00020B154030800000000A01300205574030F
:1023000008D55B03087C140020F158030800000086
:102310000030150020A959030865590308BC1500B1
:1023200020215A0308ED590308AC160020B15A03C6
:1023300008F55A03084C170020708600200106019A
:102340000031590308055903088C180020555A0319
:10235000083571030818190020215B0308917103E7
:1023600008E01900206686002001030100CC9104DA
:102370000800000000000000000000000000000055
:1023800000D89104080800000000000000181B009D
:102390002000000000E09104080700000000000099
:1023A00000101B002000000000F09104080D000048
:1023B0000000000000041B002000000000FC91044D
:1023C0000803000000E1720308F81A002000000072
:1023D00000BC8A04080100000000000000000000AA
:1023E0000000000000000000000E000000000000DF
:1023F000000000000000000000049204080000003B
:102400000000000000000000000000000014920422
:10241000080A00000000000000E886040800000030
:10242000001C9204080A000000000000005E4D0439
:102430000800000000249204080A000000000000C8
:1024400000ED860020000000002C9204080A000025
:102450000000000000241B002000000000BC8A04D3
:102460000801000000000000000000000000000063
:1024700000000000000E000000000000000000004E
:10248000000000000034920408000000000000007A
:10249000000000000000000000409204080300005B
:1024A00000E1720308581B0020000000004C920459
:1024B0000803000000E17203084C1B00200000002C
:1024C000005492040803000000E1720308401B005E
:1024D00020000000005C92040805000000000000DD
:1024E00000BF840020000000006492040807000080
:1024F0000000000000381B00200000000070920463
:10250000080700000000000000301B002000000051
:1025100000BC8A0408010000000000000000000068
:102520000000000000000000000E0000000000009D
:102530000000000000000000007C92040800000081
:1025400000000000000000000000000000D487042C
:102550000803000000E1720308881B00200000004F
:10256000009092040803000000E172030860070075
:1025700020000000009892040803000000E17203AC
:10258000087C1B002000000000A09204080300004B
:1025900000E1720308701B002000000000CC8D04D5
:1025A0000803000000E1720308641B002000000023
:1025B00000BC8A04080100000000000000000000C8
:1025C0000000000000000000000E000000000000FD
:1025D000000000000000000000AC920408000000B1
:1025E00000000000000000000000000000B892049D
:1025F0000807000000E9710308F01B00200000003C
:1026000000F08D040803000000E1720308E41B00E1
:102610002000000000C492040803000000E17203DF
:1026200008D81B002000000000CC92040803000022
:1026300000E1720308CC1B002000000000D49204CB
:102640000807000000CD710308C41B002000000033
:1026500000AC4F040803000000E1720308B81B003F
:102660002000000000E092040803000000E1720373
:1026700008AC1B002000000000EC920408030000DE
:1026800000E1720308A01B002000000000F4920487
:102690000803000000E1720308941B002000000002
:1026A00000BC8A04080100000000000000000000D7
:1026B0000000000000000000000E0000000000000C
:1026C0000000000000000000008558030855580372
:1026D00008F81B0020A15B030800000000841C0018
:1026E0002021570308FD560308101D00200000009C
:1026F0000000000000C41D0020795B030805720380
:1027000008641E0020009304080000000000000080
:102710000000000000000000000C9304080300000B
:1027200000E1720308841F002000000000149304DD
:102730000803000000E1720308781F002000000079
:10274000009079040803000000E17203086C1F0088
:1027500020000000002093040803000000E1720341
:1027600008601F0020000000002C930408030000F4
:1027700000E1720308541F0020000000003493049D
:102780000802000000C574030800000000000000FB
:1027900000C091040802000000C574030801000095
:1027A0000000000000E48F040802000000C574036C
:1027B000080200000000000000000000000E000001
:1027C000000000000000000000000000009E8400E7
:1027D0002088136F1701000000A084002088136F69
:1027E00017000000003C93040800000000000000F7
:1027F0000000000000000000004C930408080000E6
:102800000000000000642000200400000058930431
:102810000808000000000000005820002000000010
:1028200000808E040804000000F16E030800000020
:102830000000000000BC8A04080100000000000045
:10284000000000000000000000000000000E00007A
:10285000000000000000000000000000009C840058
:102860002088136F1701000000206E002088136F6E
:102870001700000000F5550308000000007020005C
:1028800020D18700200100000024440408226E00AB
:10289000200100000030440408186E0020020000EF
:1028A000003844040826C300200000000000000097
:1028B0000024C30020000000000000000022C3002C
:1028C00020000000000000000020C30020000000E5
:1028D00000000000001EC3002000000000000000F7
:1028E000001CC3002000000000000000000C0200DB
:1028F0002000000000000000009B84002002000077
:102900000044440408949304080000000000000000
:102910000000000000000000004C930408080000C4
:102920000000000000F42000200400000058930480
:10293000080800000000000000E82000200000005F
:1029400000808E040804000000C555030800000044
:102950000000000000BC8A04080100000000000024
:10296000000000000000000000000000000E000059
:1029700000000000000000000000000000A493041C
:10298000080000000000000000000000000000003F
:1029900000B49304080D00000041700308242100D6
:1029A0002004000000C09304080D0000001D560321
:1029B000081821002004000000CC9304080D00003A
:1029C00000057003080C21002000000000D89304CB
:1029D0000803000000BD610308002100200800007A
:1029E00000E493040803000000E1720308282400B7
:1029F0002000000000BC8A04080100000000000064
:102A0000000000000000000000000000000E0000B8
:102A100000000000000000000000000000B48A0474
:102A2000080000000000000000000000000000009E
:102A300000268A040804000000096F030800000053
:102A40000000000000BC8A04080100000000000033
:102A5000000000000000000000000000000E000068
:102A60000000000000000000000000000038940496
:102A7000080000000000000000000000000000004E
:102A800000847B04080D0000000000000084210089
:102A90002004000000489404080800000000000022
:102AA000007821002004000000549404080800006D
:102AB00000000000006C210020040000005C940471
:102AC0000808000000000000006021002004000051
:102AD0000064940408080000000000000054210075
:102AE00020040000006C94040808000000000000AE
:102AF000004821002004000000749404080800002D
:102B000000000000003C210020040000007C940430
:102B10000808000000000000003021002004000030
:102B200000BC8A0408010000000000000000000052
:102B30000000000000000000000E00000000000087
:102B4000000000000000000000DD55030800000048
:102B5000009021002000000000000000000822007A
:102B6000200000000000000000A82200201E6E00CF
:102B70002004000000504404081C6E0020E0150CE6
:102B800017000000001B6E002008000000EC360457
:102B9000081A6E00200500000064440408000000CC
:102BA0000000000000F822002004030904120100C4
:102BB00002EF0201408304563200020102030100C9
:102BC000001201000202020040830440570002018B
:102BD000020301000009024300020100C03209049F
:102BE000000001020201000524001001052401007B
:102BF00001042402020524060001070582030800DF
:102C0000FF09040100020A0000000705010240005C
:102C1000000705810240000000FF000000080000DE
:102C200000000000010000000000000000000000A3
:102C3000005DA3030859A3030855A3030849A30390
:102C40000845A3030851A303084DA30308D1A30318
:102C500008C5A303089DA30308B1A3030889A30320
:102C60000875A3030861A3030801010000006002C6
:102C700040106002400000000000000000000B0057
:102C800000000000000000000000000000006002E2
:102C900040286002400100000000000000060C0017
:102CA00000000000000000000000000000006002C2
:102CB00040406002400200000000000000100D00D3
:102CC00000000000000000000000000000006002A2
:102CD00040586002400300000000000000160E0093
:102CE0000000000000000000000000000000600282
:102CF00040706002400400000000000000200F004F
:102D00000000000000000000000000000000600261
:102D1000408860024005000000000000002610000E
:102D20000000000000000000000000000000600241
:102D300040A06002400600000000000000301100CA
:102D40000000000000000000000000000000600221
:102D500040B86002400700000000000000362F006D
:102D600000000000000000000000000000006402FD
:102D70004010640240000000000000000000380025
:102D800000000000000000000000000000006402DD
:102D900040286402400100000000000000063900E5
:102DA00000000000000000000000000000006402BD
:102DB00040406402400200000000000000103A00A1
:102DC000000000000000000000000000000064029D
:102DD00040586402400300000000000000163B0061
:102DE000000000000000000000000000000064027D
:102DF00040706402400400000000000000203C001D
:102E0000000000000000000000000000000064025C
:102E100040886402400500000000000000264400D5
:102E2000000000000000000000000000000064023C
:102E300040A0640240060000000000000030450091
:102E4000000000000000000000000000000064021C
:102E500040B8640240070000000000000036460051
:102E600000000000000000000000000000000080E2
:102E70003F31C7020831CC0208ADC70208C9A2021F
:102E800008F9CD0208D9A20208F5A20208A1A202FF
:102E90000891A2020800000000000000002C27009A
:102EA0002000000000000000000000000000000002
:102EB0000000000000000000000000000000000012
:102EC0000000000000000000000000000000000002
:102ED00000000000000000000000000000000000F2
:102EE00000000000000000000000000000000000E2
:102EF00000000000000000000000000000000000D2
:102F0000004300000000000000000000000000007E
:102F100000000000000000000000000000000000B1
:102F2000004300000000000000000000000000005E
:102F30000000000000000000000000000000000091
:102F4000004300000000000000000000000000003E
:102F50000000000000000000000000000000000071
:102F6000004300000000000000000000000000001E
:102F70000000000000000000000000000000000051
:102F800000430000000000000000000000000000FE
:102F90000000000000000000000000000000000031
:102FA00000430000000000000000000000000000DE
:102FB0000000000000000000000000000000000011
:102FC00000430000000000000000000000000000BE
:102FD00000000000000000000000000000000000F1
:102FE000008BFD030867FD0308000000001696042F
:102FF00008228A0408965604089656040896560431
:1030000008965604089656040896560408965604E0
:10301000089656040896560408FFFFFFFFFFFFFFBF
:10302000FFFFFFFFFFFFFF0000010041534349493D
:103030000000000000000000000000000000000090
:103040000000000000000000000000415343494917
:103050000000000000000000000000000000000070
:103060000000000000000000000000000000000060
:103070000000000000000000000000000000000050
:103080000000000000000000000000000000000040
:10800000037903F00C03042B05D0082B0DD0A3B982
:10801000B0F80B0070470A4BB0F80B001B7803EB6D
:10802000830300EB031080B27047054BB0F80B00E0
:108030005B7800EB031080B270470020704700BFF0
:10804000C4A700202DE9F843604C614ED4ED005ADE
:10805000D4ED076A5F4F8D006319D3ED017A93ED7C
:10806000046A731993ED007A60EE200A20EE250A67
:10807000F0EE475AE6EE205A7B19804620EE270A9A
:10808000F1EE667AF4EEE75AF1EE10FA2DED028B7E
:10809000F0EE418AB0EE618A83ED000A08D4F4EE76
:1080A000E65AF1EE10FA8CBFF0EE667AF0EE657AE1
:1080B00094ED086AF7EE006AB4EEE66AF1EE10FAA3
:1080C00053DBB0EEC77AF0EEE76AF4EEC76AF1EE82
:1080D00010FA4AD4404B226B04EB05092B4493ED74
:1080E000010AD9F82400904798F82730B0EE407A7A
:1080F0003BB9236CD9F83400984798F82730B0EE94
:10810000407A364A1288002A49D09FED358AF0EE2F
:10811000487A6219012B38EE478A92ED160A36D05A
:10812000022B26D038EE400A20EE280A631994ED7F
:10813000007AD3ED1C7A83ED168A2F442E4467EE25
:10814000877AD6ED006A97ED007A2649BDEC028B5E
:1081500067EE807A37EE267A0D4437EE277AC5ED42
:10816000007A83ED1F7ABDE8F8837319C3ED007AB6
:10817000B0E7D2ED196A506B236C97EEA67A37EE12
:10818000400AB0EE478A20EE280A9847CEE738EE3C
:10819000400A506B236C20EE280A9847C6E7621904
:1081A000D2ED126AD4ED117A94ED156A67EEA67AD3
:1081B000F7EE006AF4EEE67AF1EE10FA88BFF0EE20
:1081C000667A67EE867A27EE888AA2E7F82800208A
:1081D000C0530020B45300207C8700205C6C00203A
:1081E00000000000CC5300202DE9F843374D384FF4
:1081F000D5ED005A95ED076ADFF8E0808C002B1969
:1082000093ED047AD3ED017A3B19D3ED006A60EE69
:10821000200A20EE250AF0EE665AE0EE875A08EBB7
:108220000403B1EE467A60EE277AF4EEC75AF1EE17
:1082300010FAC3ED007A08D4F4EEC65AF1EE10FA43
:108240008CBFB0EE467AB0EE657A95ED086AF7EE2F
:10825000007AB4EEE76AF1EE10FA08DBF0EEE66AB7
:10826000F0EEC77AF4EEE67AF1EE10FA02D53B1999
:1082700083ED007A174A2B6C2E1902EB0409D6ED18
:10828000167A99ED010A706B37EEC00AA04420EE11
:10829000010A984795ED007AD6ED1C7A0E49D9F877
:1082A0000430B365274467EE877AD7ED006A98ED0E
:1082B000007A67EE807A37EE267A0C4437EE277A1A
:1082C000C4ED007A86ED1F7ABDE8F883F828002017
:1082D000C05300207C870020CC530020B4530020E2
:1082E00070B50A4C5025064621462A4637F06EFCEA
:1082F0002A462146701937F069FC2A46214606F1C4
:10830000A000BDE8704037F061BC00BFC013040896
:10831000F8B5614D614E95F88830A3F11702002140
:10832000022A317020D95E4911F83320327001EBF6
:10833000C303082A596840F2A7800822327039B175
:10834000002A58484FEA0212D8BF102237F03EFCEC
:10835000554BD5F80C211A605A609A60DA601A61A0
:108360005A619A61DA61F8BD504CD4ED007AF5EEAD
:10837000407AF1EE10FAEBD094E80F00D4ED047AD5
:10838000F5EE407A05F18C074FF0010CF1EE10FA92
:1083900087E80F0086F800C0DAD004F110030FCB95
:1083A000D4ED087AF5EE407A05F19C074FF0020C07
:1083B000F1EE10FA87E80F0086F800C0C8D004F18B
:1083C00020030FCBD4ED0C7AF5EE407A05F1AC0723
:1083D0004FF0030CF1EE10FA87E80F0086F800C0AA
:1083E000B6D004F130030FCBD4ED107AF5EE407A1D
:1083F00005F1BC074FF0040CF1EE10FA87E80F000E
:1084000086F800C0A4D004F140030FCBD4ED147A59
:10841000F5EE407A05F1CC074FF0050CF1EE10FABD
:1084200087E80F0086F800C092D004F150030FCB0C
:10843000D4ED187AF5EE407A05F1DC074FF0060C22
:10844000F1EE10FA87E80F0086F800C080D004F142
:1084500060030FCBD4ED1C7AF5EE407A05F1EC0702
:108460004FF0070CF1EE10FA87E80F0086F800C015
:108470003FF46EAF703494E80F00082705F1FC0458
:1084800084E80F00377063E700293FF461AF002AEA
:108490007FF456AF5CE700BFF8280020356100206C
:1084A00090460408842900205C5500202CC200203E
:1084B00010B44849484A8B781268053B042B02F4F3
:1084C000805226D8CB89DFED457A07EE103A444B2F
:1084D000B8EEC77A0021C3F80C1167EE277A002A9C
:1084E00073D19FED406ADFED406AE7EE066AB0EEB9
:1084F000667ADFED3E6A3E4C3E493F483F4A84ED96
:10850000007A77EEA67A0860C3ED447AC3F81421A6
:1085100029E0002A4FD18B8A06EE103A0B8A05EE2D
:10852000903AB8EE466A2E4BF8EE655A4A8A3149BF
:1085300083ED436A06EE902AB3F81A2107EE102A5B
:10854000B3F8182107EE902AF8EE666A284AC1EDC2
:10855000006AB8EE477AF8EE677A83ED447AC3EDA5
:10856000457AC2ED005A2649B3F81E410A8B498B61
:10857000101B80B2224492B2A0F57A7406EE904AA3
:10858000C1F5FA61C2F5FA6407EE104A07EE901AD7
:10859000F8EEE66AB8EEC77AF8EEE77AA3F82801B3
:1085A000A3F82A21C3ED4B6A83ED4C7AC3ED497AD7
:1085B0005DF8044B70470A4BDFED125AB3F81C21EB
:1085C00006EE102AB8EE466AB0E79FED077A37EE5E
:1085D000877A8EE704AA00200CB700205E98CC3D75
:1085E000F828002095B24C3E000040420000834431
:1085F00054570020B858002000E0FF4400E08244B7
:1086000020A7002000007A4430B44FF4F0710A4AE9
:108610000A4B0180362537243821C0F80E20C0F8D7
:108620001230392201238571C47101724272837044
:10863000437130BC704700BFC2012E04D007E8036D
:1086400010B5084CDFED087A94F83D3100EE103A91
:10865000B8EEC00A20EE270A1EF0BCFA84ED500ADC
:1086600010BD00BFF828002035FA8E3C2C4B1B684B
:10867000184483799BB107EE903ADFED2A6AF8EE51
:10868000E77A20EEA07A67EEA67A27EE207AF7EE58
:10869000006AD7EE877A77EEA67A20EE270AC378AB
:1086A000DFED206A07EE903AF8EEE77AB0EE007A56
:1086B00067EEA67AF4EEC77AF1EE10FA05DD37EE32
:1086C000C77ADFED196AE7EE267A437A9FED177ACB
:1086D00020EE070A20EE270A03B3DFED127A9FEDA2
:1086E000147A06EE903A60EEA77AF8EEE60A60EEAB
:1086F000A70AF4EEC70AF1EE10FA04DDDFED0D7AF9
:1087000020EE270A7047F5EEC00AF1EE10FA05D404
:10871000F7EE007A77EEE00A80EE200A704700BF9D
:10872000207000200AD7233CD7A3684100004843AB
:10873000A4707D3F0000C842174B9FED185A1B687C
:108740001844BFEE007A437A06EE103AC378A0EEE2
:10875000007A07EE903A8379B8EE466A05EE903AD1
:1087600060EE850AF7EE006AF2EE044AB0EE664A61
:1087700020EE240AA6EE204A27EE057AF8EEE55A06
:10878000F8EEE77AE5EE876A67EE807A24EE270A4C
:1087900020EE260A704700BF207000200AD7233C35
:1087A000704710F8113C0133DBB20A2B00F8113C82
:1087B00007D9044A10F8131C002322F8113000F8DE
:1087C000113C704790520020F0B45E4E5E4896F81F
:1087D00044215E4B5E4DDC6B2D780132A0FB0270B4
:1087E000000900EB8000A2EB80001A6886F84401C3
:1087F000914201EB04005C6811D293F84520002AF5
:108800004ED000F58030B0FBF5F084420BD2041B53
:108810004FF4803292FBF5F2A21A9A600AE0B0FBA4
:10882000F5F0844244D34FF4803292FBF5F2121BF0
:1088300002449A6040F68C240025A242C3E900104D
:1088400083F8455017D993F8402093F942108A4293
:1088500056B241D0002093F9411083F843008A4278
:1088600047D00121002283F8426083F8441083F846
:108870004020F0BC704793F844100029F9D0A2F2D0
:10888000EF2040F2DA5188421AD893F840100B29B1
:1088900016D803EB81000131C26083F84010E8E78D
:1088A000B0FBF5F08442BED2041BA21A9A60C1E765
:1088B00093F84520002AAAD1041BA21A9A60B9E7AE
:1088C000244A002102F1300083F8441042F8041FCA
:1088D0008242FBD1F0BC7047111F0829BAD893F827
:1088E0004310182926D8013183F8431093F9411019
:1088F000B5E793F844100029B3D0FAB11649154CE6
:108900000FFA82FC084601EB4C0754F8045F20F88C
:10891000025BB842F9D10B2A07DC104801EB4C028C
:10892000002122F8021B9042FBD10D490A78013246
:108930000A7096E783F84160314690E7944606490D
:10894000EBE700BFF8280020CDCCCCCCF8A8002065
:10895000F424002000A9002090520020A8520020FA
:108960008852002030B40F4D0F4B95F844210F4C26
:108970000132A3FB02031B09E06B03EB8303A2EBB1
:1089800083034FF6FF72914200F1010085F84431F4
:10899000084408BF0123E06308BF84F8453030BCB9
:1089A000704700BFF8280020CDCCCCCCF8A8002020
:1089B000002800F01C81B34B1A7CF0B4002A40F070
:1089C00097801968002201280A6043D093F8281084
:1089D000002941D19969002202280A603AD093F80F
:1089E000401000295ED1196B002203280A6031D0A3
:1089F00093F85810002940F0A180996C00220428B7
:108A00000A6027D093F87010002940F0F180196EA9
:108A1000002205280A601DD093F88810002940F034
:108A20000D81996F002206280A6013D093F8A010D8
:108A3000002940F03181D3F89010002207280A6005
:108A400008D093F8B810002940F0A480D3F8A830DB
:108A500000221A60F0BC7047DC698B4DA10AA94264
:108A600000F0538140F23C81884DA94204D0884AED
:108A7000914240F053810222EFF31181502585F39A
:108A80001288844E676AA58A02EB820206EBC20254
:108A9000013745F00105C2F86C71C9B2A58281F3B6
:108AA000118897E75C6B784DA10AA94200F02F81ED
:108AB00040F21B81754DA94204D0754A914240F0A5
:108AC0002F810222EFF31181502585F31288714E18
:108AD000676AA58A02EB820206EBC202013745F003
:108AE0000105C2F86C71C9B2A58281F311887AE7D9
:108AF0005968654C8A0AA24200F0FC8071D9634C27
:108B0000A24200F0FB800134A24240F0F580022432
:108B1000EFF31182502585F312885E4E4F6A8D8ADD
:108B200004EB840406EBC404013745F00105C4F8E6
:108B30006C71D2B28D8282F3118842E7DC6C524DA7
:108B4000A10AA94200F0FA8040F2DA804F4DA94212
:108B500004D04F4A914240F0E5800222EFF31181A8
:108B6000502585F312884B4E676AA58A02EB820274
:108B700006EBC202013745F00105C2F86C71C9B2BB
:108B8000A58281F31188996C002204280A607FF481
:108B900039AF5FE7D3F8AC003B4C810AA14200F04B
:108BA000E28040F2B680394CA14204D0384A91426A
:108BB00040F0D7800222EFF31181502484F3128811
:108BC000344D466A848A02EB820205EBC205013607
:108BD00044F00104C5F86C61CAB2848282F3118842
:108BE00034E7043CA24240F08780012490E77047BC
:108BF0005C6E254DA10AA94200F0A78040F2948046
:108C0000224DA94204D0224A914240F0A080022283
:108C1000EFF31181502585F312881E4E676AA58AED
:108C200002EB820206EBC202013745F00105C2F8F1
:108C30006C71C9B2A58281F31188E8E6DC6F124D30
:108C4000A10AA94200F0858073D9104DA94203D032
:108C50000F4A91427FD10222EFF31181502585F313
:108C600012880C4E676AA58A02EB820206EBC202EA
:108C7000013745F00105C2F86C71C9B2A58281F3D4
:108C80001188CEE644A90020060010004000100024
:108C900041001000F8280020D3F89440334DA10A79
:108CA000A9425AD04CD9324DA94203D0314A9142FF
:108CB00055D10222EFF31181502585F312882E4EF3
:108CC000676AA58A02EB820206EBC202013745F011
:108CD0000105C2F86C71C9B2A58281F31188AAE6B8
:108CE000264A91421AD10122C6E6244A914217D15E
:108CF0000122E7E603240BE7FE2409E7002407E747
:108D00001E4A91420ED1012228E70322B4E6032233
:108D1000D8E61A4A914224D101224CE7FE22ABE662
:108D2000FE22CFE6FE2219E7144A91420FD101221A
:108D30006EE7124A91420ED101228DE703220DE720
:108D40000E4A91420BD10122B4E7032260E7FE22D2
:108D50005EE7032280E7FE227EE70322AAE7FE22E7
:108D6000A8E7FE2227E7032225E700BF0600100040
:108D70004000100041001000F82800200200100000
:108D80007047704770B4150BC2F30324064605EB19
:108D9000450504EB44044800C2F3031318351834A6
:108DA00002F00F02356003EB430346F8214002EB6B
:108DB000420201441833183246F82030062046F8A3
:108DC000212070BC70472DE9F04F12F4004F14BF02
:108DD0004FF00E0B4FF0070B12F4804F14BF4FF003
:108DE0000E0A4FF0070A12F4005F14BF4FF00E098D
:108DF0004FF0070912F4805F14BF4FF00E084FF0D8
:108E000007084FEA410C12F4006F83B001EB0C0726
:108E100014BF4FF00E0E4FF0070E12F4806F01EBEF
:108E2000070614BF0E2307238D190193034612F47E
:108E3000007F01EB0504C3F800B018BF0E2043F813
:108E400021A008BF072043F82C9012F4807F01EB8B
:108E5000040C43F8278043F826E001EB0C0714BF0D
:108E60004FF00E084FF00708019E43F8256012F0FE
:108E7000800F01EB070614BF4FF00E0E4FF0070EE8
:108E800012F0400F43F8240001EB060514BF0E203A
:108E9000072012F0200F43F82C8001EB050414BFCB
:108EA0004FF00E0C4FF0070C12F0100F43F827E0B4
:108EB00043F8260018BF0E2701EB040008BF072760
:108EC00012F0080F43F825C018BF0E2643F824708F
:108ED00008BF07260C1812F0040F43F8206018BFD3
:108EE0000E2501EB040008BF072512F0020F43F81E
:108EF0002450014414BF0E24072412F0010F43F83C
:108F0000204014BF0E220722122043F8212003B074
:108F1000BDE8F08F70B4044600F16006074D0FCD38
:108F2000103444F8100C44F80C1C44F8082C44F895
:108F3000043CB442F2D170BC704700BF1014040866
:108F4000034B33F8602F02809B788370704700BF1B
:108F5000C01304080A4BD3F8E81181B130B4D3F838
:108F6000EC51084C0020642202FB05F2C3F8E80132
:108F7000B2FBF1F2C3F8EC01228030BC70477047BD
:108F8000F82800205855002000230D491A4613F0F8
:108F9000010301F1240109D10132072A0ED011F891
:108FA000243C13F0010301F12401F5D0054B02EB41
:108FB000C20203EB8202137903707047037070479B
:108FC000DE440408B444040800220D4B027211462A
:108FD000920710B403F1D80402D51A794254013132
:108FE0009C4203F1240308D0082906D09A799207FD
:108FF000F3D49C4203F12403F6D15DF8044B70478F
:10900000B444040830B41621232417222D2332251A
:109010000470C17033243A218271437024222523C5
:109020000571C47181704271037230BC70470123B5
:109030001021112241704271037203700371704755
:1090400070B5324E324C334D727933483349042374
:109050002B7084F8F03100256423012A84F8F9315B
:10906000A4F8F251A4F8F45184F8F851C4F8FC5172
:1090700005700D6025D0022A11D0B179284A00234D
:109080000129136084F85032C2E901332BD0022940
:1090900004D1244AC4F88832C2E9013370BD29469C
:1090A000282204F5007036F0ABFE2A46DFED1E0ADA
:1090B0009FED1E0A4CF2503104F501701DF07CFE4C
:1090C000DBE72946282204F50A7036F099FE2A4685
:1090D000DFED150A9FED150A4CF2503104F50B70C7
:1090E0001DF06AFEC9E7124DC4F85432C5E90133D8
:1090F000EB6005F11000DFED0C0A9FED0E0A1A4639
:109100004CF25031BDE870401DF056BE5462002054
:10911000F82800205262002066640020606400206D
:10912000506C0020802B0020F304353FCDCCCC3D8B
:109130004C2B0020CDCCCC3E0023012243600360A9
:109140008360437003718372C27170471CF0EABE82
:10915000F8B5064637F078F81F4906EB460401EBF0
:109160004414257B05B9F8BD1C4A237D1C4F1D4DB9
:109170003F782D6802EA40021A4393B21A1282EA3B
:1091800013125A4002F00F0242EA0312002392B275
:109190002375A7B9602000FB061018300121A847ED
:1091A00021696368B1F82C216489DB682243A1F846
:1091B0002C2158601A6842F001021A60F8BD6368F9
:1091C00020695B7903F0FC030C3318440421A847A1
:1091D000236980001881F8BD28AA0020FEFF010045
:1091E000F524002020AA002038B500EB4000084DEF
:1091F000C4002B1993ED027AD3ED037AE7EE007ADF
:10920000B0EE670A37F020F82B59186038BD00BF60
:1092100044A900202DE9F04F6E4B2DED108B1F68F7
:109220006D4BBC0783B002D593F8342042B90022BD
:109230009A62DA621A6303B0BDEC108BBDE8F08F5E
:10924000664A674D128BD5F894A2C5F89402302A6D
:10925000064600F04083D5F89822002A00F05C858D
:1092600007EE902AF8EE677AF7EE006A86EEA77AA4
:109270000022C5F898220022DFED5A6A95EDA8BABF
:10928000D5EDA7AA95EDA9AAC5F89C222BEE26BA82
:109290006AEEA6AA2BEE07BA6AEE87AA6BEE0B7AE5
:1092A0002AEE26AAEAEEAA7AC5F8A022C5F8A422D8
:1092B0002AEE07AAEAEE0A7AF1EEE7EAD5F8A82242
:1092C000002A40F3008607EE902AF8EEE77AB7EE20
:1092D000007A87EE278A0022C5F8A8220022D5ED61
:1092E000AC9A95EDAB9AD5EDAD7AC5F8AC2268EEA7
:1092F000299A28EE099A69EEA98A28EE278AE9EECA
:10930000098AC5F8B022C5F8B422E8EE088AF1EE61
:10931000E8BA1B8B07EE903A334B93F800B0F8EEA7
:10932000E77ABBF11D0F8BEEA7CA00F0D885DFED01
:109330002F7AB4EEE7CAF1EE10FA5FDDDFED2C7A9A
:10934000B4EEE7CAF1EE10FA58D5F5EE408AF1EE28
:1093500010FA09D0B7EE007AC7EE2B7A29EE279AD9
:1093600069EEA79A28EE278A224C94ED044A94EDE0
:10937000077AD4ED067AD4ED025A94ED086A94ED9A
:10938000013A74EE073A77EE076A35EEE77AB0EE07
:10939000005AFFEE004A36EE036AE4EE056AE3EE99
:1093A000854A27EE297A36EE064AA6EE097A77EE46
:1093B000E57AB7EE006A76EE666A28EE444A64EE15
:1093C000894A77EEA77AA6EEA94AE7EE884A37EEF1
:1093D000077A1AE004640020606C002022860020D6
:1093E000F828002035FA8E3C499600207B146E3F09
:1093F000C3F5883F00000020000000001FED027A46
:10940000F64CF0EE474AB0EE474AB906DFF8208442
:1094100000F1CD82DFF81C94390700F1F183A6EB4F
:109420000A02EF4BDFEDEF7A1B7895ED4E5AD5ED42
:109430004D6A08EE102AB8EEC88ADA0728EE278AA5
:1094400000F12A85F3EE017A25EE275A66EEA77A17
:109450009FEDE56AF4EEC66AF1EE10FA40F323855B
:10946000D5EDB09A95EDB19AD5EDB28A68EE045A71
:1094700028EE246A68EE076AE5EEA79AA6EE279A18
:10948000E6EEA78AC5EDB09A85EDB19AC5EDB28A30
:1094900095EDB3FAD4ED0ABA94ED0BEAD4ED0CDAFB
:1094A00094ED0DDAB4EEEEFAF1EE10FAE5EE049A70
:1094B000A5EE249AE7EE058A00F1988469EE097A10
:1094C0009FEDCA7AE9EEA97AE8EEA87AF4EEC77AB7
:1094D000F1EE10FAF1EEE74A00F328846BEEAB7A76
:1094E0002EEE0EAA6DEEADAA2DEE0D9A6BEE8ECA83
:1094F0002BEEAD8A2BEE8DCA2EEE2DBA6EEE0D9AA6
:109500006DEE8D8ABBF11D0FC4ED007A84ED04AAC7
:10951000C4ED07AA84ED099AC4ED01CA84ED028A5C
:1095200084ED03CA84ED05BAC4ED069AC4ED088A39
:1095300015D1DFEDAFFACDED014A2EEEAF0A36F0D0
:1095400083FEDDED014AAB4E24EEAF0A308036F0EB
:109550007BFE2FEE2F0A708036F076FEF080A64B51
:109560001B885B0640F1AC8194ED0F7A94ED106A94
:10957000D4ED0E6AD4ED117A67EE2B9A2EEE478A5F
:1095800027EE2D9A66EE2B8AA6EEAB8AA6EE8D9A72
:10959000E6EE8E9AE6EEAD8AF1EE466AA7EEAB9A5B
:1095A000E7EE8E8AA6EEAD8AE6EE0D9AF1EE677AC8
:1095B000E7EE4D8AA6EE8E9AE7EEAD9AA7EE8D8A7B
:1095C00029EEA8BA28EE09CA68EE29CA84ED159AD0
:1095D00084ED128AC4ED139AC4ED148A28EE288A09
:1095E00029EEA97A68EEA8BA69EE899A68EE898AA6
:1095F00029EE099A37EE2B7A7CEEA88A37EE077AA5
:10960000B7EE006A78EEA88A76EE477AF0EEE86A5E
:10961000F0EEE77AF4EEE67AF1EE10FAB4BFF0EE8F
:10962000665AF0EE675AF5EE405AF1EE10FA00F085
:109630004F81F4EEE67AF1EE10FA8CBFF0EE664A56
:10964000F0EE674A84EEA55ADFED6C3ADFED6C5A16
:10965000DFED6C4A9FED6C4AE5EE635ADFED6B3A45
:10966000E5EE254ADFED6A5AE5EE235AA5EE244AD7
:10967000DFED724AA5EE256AE5EE044AF0EE465AA1
:1096800084EEA56AF4EEE67AF1EE10FA48BFDFED5B
:10969000617A9FED610A48BF37EEC66AF7EE007A3D
:1096A000B4EEE77AF1EE10FAC8BFDFED637AF5EEBB
:1096B000C08AC8BF37EEC66A38EE698AF1EE10FA82
:1096C00048BFB1EE466A38EE088A26EE000A36F048
:1096D000BBFDB0EEC87AF7EE005A75EEC75A9FEDA3
:1096E0004F5A9FED4F6ADFED4F6ADFED4F7AA9F8D1
:1096F0000000B1EEE50AA7EE056AB5EEC08AE7EE16
:10970000066AF1EE10FAE7EE267A48BF9FED4A7A34
:1097100067EE807A9FED400A48BF77EE677A9FED4B
:109720003D7A77EE677A3BEE899A27EE800A36F02B
:109730008BFD39EE099A7BEE0C7AB7EE006A77EE74
:10974000A77A36EE497AF0EEE76AB0EEC77AB4EE61
:10975000E67AF1EE10FAB4BFF0EE665AF0EE475A30
:10976000F5EE405AF1EE10FAA9F8020000F0AD80D3
:10977000B4EEE67AF1EE10FA8CBFF0EE664AF0EE47
:10978000474A84EEA55ADFED212ADFED215A9FEDED
:109790001B2A9FED1B3ADFED1B3A9FED1B4ADFEDC5
:1097A000274AE5EE225AA5EE423AA5EE256AE5EEF5
:1097B000033AF0EE465AB0EE446AA5EE236AE5EEAF
:1097C000064A84EEA56AB4EEE67AF1EE10FA48BFD6
:1097D0009FED107A9FED150A32E000BF00000020D7
:1097E000E8630020BD37863500000000B5FE16375F
:1097F00000007A444C9600205C6C002039094E3DF4
:10980000E3B59E3E88FA163E45FE7F3F99FB243F16
:1098100069A2163EDB0FC93F4C3D0F44306E99BC28
:109820002716983D843459BEA40DC93F4C3D0FC442
:1098300008640020986C0020DB0F4940A7DFA834A3
:1098400048BF37EE466AB7EE007AB4EEC79AF1EE3B
:1098500010FAC8BF1FED087AF5EEC07AC8BF37EE20
:10986000466AF1EE10FA48BFB1EE466A26EE000AEB
:109870003AEE2AAA36F0E8FCB0EE007AF7EE007A6B
:10988000EAEE477A03B2002B95ED507AACBFA9F807
:10989000043000F5616098F80030B8BFA9F8040002
:1098A000F4EEC77AF1EE10FACCBF43F0080303F0F0
:1098B000F70388F8003003B0BDEC108BBDE8F08FE3
:1098C000F0EE6ABAB0EE4A7A94E61FED246A7AE7BF
:1098D0001FED266AD6E6D5EDB4BA95EDB5EAD5ED1D
:1098E000B6DA95EDB7DAB44C2BEEAB7A2EEE0EAAC3
:1098F0006DEEADAA77EE0A7A2DEE0D9A77EEAA7A82
:10990000C4ED0ABA77EE897A84ED0BEAF5EE407A77
:10991000F1EE10FAF1EEE76AC4ED0CDA84ED0DDA3F
:109920001BD0B7EE007AC7EE267A6BEEA7BA2EEE02
:1099300027EA6DEEA7DA2DEE27DA2BEEAB7A2EEEC4
:109940000EAA6DEEADAA2DEE0D9AC4ED0ABA84ED05
:109950000BEAC4ED0CDA84ED0DDA984B84ED007A55
:109960001B7884ED04AA6BEE8ECA2BEEAD8A2BEE2B
:109970008DCA2EEE2DBA6EEE0D9A6DEE8D8A1D2BD0
:10998000C4ED07AA84ED099AC4ED01CA84ED028AE8
:1099900084ED03CA84ED05BAC4ED069AC4ED088AC5
:1099A00000F0ED80DFF85082DFF85092D7E598F8AC
:1099B00000309A077FF52EAD814A117D04297FF68C
:1099C00029ADD189B1F5167FFFF424AD128ADFED00
:1099D0007D7ADFF8289206EE902AF8EEE66AD8063D
:1099E00066EEA76A40F10C83DFED777AF4EEE76A62
:1099F000F1EE10FA40F39B83DFED745A9FED746A29
:109A000001E0F0EE676AF4EEC66AF1EE10FA76EE67
:109A1000E57AF6DCDFED6F6AF4EEE67AF1EE10FA45
:109A200040F188839FED696ADFED6B6A01E0F0EE3B
:109A3000657AF4EEE67AF1EE10FA77EE865AF6D40D
:109A4000FDEEE57A17EE903A2033402B00F25F826C
:109A5000DFED5D7AF4EEE75AF1EE10FA40F3708331
:109A6000F0EE656A9FED595A9FED596A01E0F0EEFC
:109A7000676AF4EEC66AF1EE10FA76EEC57AF6DCA5
:109A8000DFED546AF4EEE67AF1EE10FA40F1558318
:109A90009FED4E5A9FED506A01E0F0EE667AF4EECB
:109AA000C67AF1EE10FA77EE856AF6D4DFED4B7ADE
:109AB000F4EEE76AF1EE10FA40F31E83DFED427A2E
:109AC00077EEE66A26EEA66ADFED453A9FED455A47
:109AD000DFED457AA6EE235A66EE863AE5EE067A83
:109AE000E3EEA76AD4ED073A94ED096A9FED3B5A7D
:109AF00073EEA33AF0EE007AB0EE633AA6EE273AA0
:109B000035EE856AF7EE007AFDEEC62A77EEC37A67
:109B100012EE903A2033402B27EEA63A40F2FA811B
:109B2000DFED326A94ED032A94ED055AD4ED041A60
:109B300094ED086AD4ED065AD4ED022AD4ED017AE8
:109B400035EE025AB0EE002A35EE055AE1EE823AC1
:109B5000A6EE853A76EE277A75EEE25AB7EE005A0F
:109B600037EEA76A75EEA55A75EE633AF1EE437AC1
:109B7000A7EEA54AE7EE864AA7EEA37A4CE477EE75
:109B80000A7ADFED1BEA1B4EDFF86C80DFF86C9081
:109B900077EEAA7A77EE897AB1EEE70A20EE2E0AFE
:109BA00036F052FB95EDB30A308020EE2E0A36F0E7
:109BB0004BFB7080D3E400BF0000002049960020DA
:109BC00014B7002088C3E43ADB0F4940DB0FC940DB
:109BD000E4CB1641DB0F49C0E4CB16C1DB0FC93F14
:109BE00092E741B99730083C15A82ABE0000000052
:109BF00000007A444C96002008640020986C0020F5
:109C0000E84BD3ED015A93ED006AD3ED026A65EE9D
:109C1000A57AB7EE005AE6EE067AE6EEA67AF4EEFC
:109C2000C57AF1EE10FAB1EEE73A7FF7F8ABDFED67
:109C3000DE3AF4EEE37AF1EE10FA7FF5F0ABF5EEF2
:109C4000407AF1EE10FA07D0C5EE037A26EE276AC5
:109C500065EEA75A66EEA76A94ED045A94ED093AA8
:109C6000D4ED031AD4ED057A94ED071A94ED018A28
:109C700094ED020A35EE055A33EE033AB1EE455A39
:109C800075EE433AB7EE002A77EEA12AF0EE000A0D
:109C900073EE823A77EEE17AA1EE203A72EEA21AE2
:109CA00063EEA53AD4ED082A77EEA77AE1EE863A7C
:109CB00067EEA57A72EEC81A72EE435A94ED063A30
:109CC000E5EE867A71EEA11A73EE005AB0EE636A81
:109CD000A6EEA16A75EEA53AA1EE605AE6EEA37A69
:109CE00066EE063A72EE885AE7EEA73A73EE406ADD
:109CF000F0EE637AF1EEE73A75EEA55A23EEC66A06
:109D000075EE027A76EEA66AE5EE864AA6EE264A59
:109D1000A6EE277AFFF783BBDFEDA4EAB0EE6EAACA
:109D2000B0EE6EBAF0EE6EAAFFF7C8BAF6EE007AA1
:109D300028EE278A68EE288A68EE297A28EEAD7A1E
:109D400028EE099AA7EEAB7A67EE8D6A29EE0E6AC5
:109D5000E9EE2B6A69EE2D5AB1EE685AA8EEAB6AAD
:109D6000E7EE8E5AE5EE0DBA37EE0E7A76EEAD6A74
:109D7000A9EE4D7A7BEEE5BA36EE0DDAE5EE0E6A27
:109D8000A7EEEDDA27EE07AA6BEEAB7A66EEA6AA8F
:109D900037EE8A6A2DEE0D9A36EE2A6A84ED0B7A3A
:109DA00036EE096AC4ED0C6AB5EE406AF1EE10FABF
:109DB00084ED0DDAC4ED0ABAF1EEC65A00F09980CE
:109DC000B7EE006AC6EE257A6BEEA7BA27EE27EA51
:109DD00066EEA7DA2DEE27DAC4ED0ABA84ED0BEAB7
:109DE000C4ED0CDA84ED0DDAFFF778BBB6EE00CAED
:109DF00028EE0CCA2CEE2ECAB0EE4C0A36F03EF914
:109E0000F0EE40CAB0EE4C0A36F03EFCB7EE007AF7
:109E1000C7EE2E7A67EEAAAA27EE8AAA27EE8BBA99
:109E20006AEE80AA2AEE00AA2BEE000A6AEE2D6ADC
:109E300020EE0E6A2EEE6A7A6AEE8D7AAAEE2B6A10
:109E4000E0EE2B7AACEEAB7AEAEEAB6AB1EE400A0A
:109E5000A0EE2D7AECEE8E6AECEEAD7AACEE8D6A69
:109E6000B1EE4AAAE0EE0D6AAAEE0D7AEAEE0E7A9B
:109E7000AAEEED6AF0EE47BAB0EE46DAB0EE66EA68
:109E8000F0EE67DAC4ED0B6A84ED0A7A84ED0D6AB0
:109E9000C4ED0C7AFFF712BB454B1B787BBBF0EE91
:109EA000667AFFF7D5BAF0EE468AB0EE469AF0EE43
:109EB000469A85EDAF6A85EDB06A85EDB16A85EDAC
:109EC000B26AFFF7E5BADFED39BAF0EE6B8AB0EEB1
:109ED0006B8AF0EE6B9AB0EE6B9AFFF71ABA9FEDB1
:109EE000350A2CEE000A36F0AFF9334B9880FFF7B5
:109EF0001EBAF0EE66DAB0EE47EAFFF7F7BADFED2A
:109F00002F7A25EE275A66EEA77AFFF7A1BADFED82
:109F1000276AE7E5F4EEC55AF1EE10FA40F3168130
:109F2000DFED275ADFED276A01E0B0EE676AB4EE95
:109F3000E66AF1EE10FA76EE657AF6DCDFED226A7B
:109F4000F4EEE67AF1EE10FA40F1FD80DFED1C5AF6
:109F50009FED1E6A01E0F0EE667AF4EEC67AF1EE4D
:109F600010FA77EEA56AF6D4DFED237AF4EEE76A0D
:109F7000F1EE10FA40F3CC80DFED207A77EEE66A5E
:109F800026EEA66A9FED125ADFED125ADFED127A25
:109F9000E6EE055A26EE865AE5EE867AE5EE276A63
:109FA000C0E500BF8C87002020BCBE4C0000000034
:109FB0003864002000007A444C9600207B142E3E2A
:109FC000DB0FC940E4CB1641DB0F49C0E4CB16C11F
:109FD00092E741B99730083C15A82ABE39094E3D91
:109FE000E3B59E3E88FA163E45FE7F3F99FB243F2F
:109FF00069A2163EA7DFA834DB0FC93FDB0F49403B
:10A00000B9F9003006EE103AB9F9023005EE903A8F
:10A01000B8EEC66AF8EEE55AB0EEC65AF0EEE53A8A
:10A02000F4EEC53AF1EE10FAB4BFB0EE453AB0EE38
:10A03000633AB5EE403AF1EE10FA75D0F4EEC53A57
:10A04000F1EE10FA8CBFF0EE452AF0EE632AC2EE74
:10A05000837A1FED1E2A5FED1E2A1FED1E3A5FED6B
:10A060001E1A1FED1E1AE7EEC22A1FED1F2AA7EEC9
:10A07000A23AA7EE812AE7EE831A5FED222AB7EE15
:10A08000003AE7EEA12AA7EE823AC2EE837A95F86B
:10A09000B832F4EEC53AF1EE10FA48BF1FED2A5A75
:10A0A000F5EEC05A48BF75EE677AF1EE10FA48BF78
:10A0B0005FED2E5AB5EEC06A48BF75EEE77AF1EE55
:10A0C00010FA48BFF1EE677A76EEA76A002B7FF4AC
:10A0D0008BAC204B1B88322B7FF686ACDFED1E7AD3
:10A0E00066EEA77A0123FDEEE77A85F8B83217EE1F
:10A0F000903AA9F8043077E4DFED187AF4EEE76AD5
:10A10000F1EE10FA44BFDFED167A77EEE66AD9E495
:10A11000DFED127AF4EEE76AF1EE10FA44BFDFEDFC
:10A12000107A77EEE66A2BE7DFED0E7AAFE7F0EE16
:10A13000667A6FE4F0EE675A82E4F0EE676AB5E49F
:10A14000F0EE657A9CE4F0EE676A0DE7F0EE467A91
:10A15000F4E600BF247000204D3D0F44DB0FC9BF63
:10A16000DB0F49C0A7DFA8342DE9FF47012027F006
:10A17000E7FC194EDFF864A00024D02708B1022CB8
:10A1800002D904B0BDE8F08707FB04F856F8085080
:10A1900015B10134E4B2F1E7032390F902C002954E
:10A1A0000193C3785AF8233000932A462B460121A5
:10A1B000604627F049FB814650B104FB0760CC2282
:10A1C0002946043035F01CFE013446F80890E4B20C
:10A1D00032F040F9D2E700BFBCBF0020403704088E
:10A1E00020B10078B0FA80F0400970470120704734
:10A1F00008B5202135F01BFE0346184623B102782E
:10A20000202A03F10103F8D008BD70B50D461446AD
:10A21000FFF7EEFF0646A0B135F0D4FC40F634035C
:10A220009842A8BF1846B0F5617FB8BF4FF461707F
:10A230001923A0F5617090FBF3F0287023780133A7
:10A2400023703046FFF7D4FF0646A0B135F0BAFCC4
:10A2500040F634039842A8BF1846B0F5617FB8BFF6
:10A260004FF461701923A0F5617090FBF3F06870F2
:10A27000237801332370304670BD0FB413B5084CFA
:10A280000849206804AB53F8042B01931CF01CFA16
:10A2900020681BF039FE02B0BDE8104004B07047E2
:10A2A0003C5500204D910008024B014618681BF0F8
:10A2B00039BE00BF3C55002038B5064D441E14F889
:10A2C000011F286819B9BDE838401BF01DBE1BF0FE
:10A2D00029FEF4E73C5500202DE9F04103790546BD
:10A2E00003F0300020280E4614462BD10024284FBE
:10A2F000DFF8A88015E02B7903F00303022B15D0BB
:10A30000032B19D0012B14BF315D31573846FFF7AD
:10A31000B4FF6B79013BA34202DD4046FFF7CCFF5F
:10A3200001346B79A342E6DCBDE8F08136F8141005
:10A330003846FFF7A2FFECE736F914103846FFF76E
:10A340009CFFE6E703F00303012B0DD00FD2097841
:10A3500080B11028E8D16A790E4B53F83230BDE84D
:10A36000F04153F82100A7E791F90010F0E7B1F9A7
:10A370000010EDE70648FFF780FF002CD4D0B5F9B8
:10A380000720B5F905100448BDE8F04175E700BFA6
:10A39000D84C040858310408A44C0408A24C040802
:10A3A000004889E79456040810B5064C0B4602464F
:10A3B000054920681CF088F920681BF0A5FDBDE860
:10A3C0001040EDE73C5500204D9100080FB407B553
:10A3D00004A951F8040B0191FFF7E6FF03B05DF803
:10A3E00004EB04B0704713460A4601460048EDE707
:10A3F000AB4C0408F8B5037903F03003102B0AD0F6
:10A40000202B23D03BBBB0F90720B0F90510124830
:10A41000BDE8F840DAE74579104E1148FFF74CFFE8
:10A4200006EBC50300241F79BC4202D3BDE8F84007
:10A43000B6E714B10B48FFF73FFF56F835300A482E
:10A4400053F82410FFF719FF0134EDE7417907486D
:10A45000BDE8F840BAE7F8BDC44C04085831040818
:10A46000DB4C0408A24C040874590408EB4C0408A3
:10A470000CB407B510F0200009D069B92320FFF70C
:10A4800013FF05A904980191FFF78EFF012003B087
:10A490005DF804EB02B070470020F8E70CB4C30687
:10A4A00007B500D551B905A904980191FFF77CFFC4
:10A4B000012003B05DF804EB02B070470020F8E71C
:10A4C0002DE9F04FDFF8C4A087B0814690460C46D6
:10A4D000154600261927B8F1000F54D028782378A4
:10A4E00083424ED162786B789A424AD1A278AB7897
:10A4F0009A4246D1E278EB789A4242D121792B797F
:10A50000CB1A594259418B4627F0E2FDA8B12B796D
:10A510000493EA784FF4617117FB02120392AB784F
:10A5200017FB031302936B780193037A009352464F
:10A53000334659464846FFF79BFF207827F0C8FD71
:10A54000A8B123790493E2784FF4617117FB0212EA
:10A550000392A37817FB0313029363780193037AA2
:10A5600000935246334659464846FFF797FF013657
:10A57000142E04F1050405F10505ACD107B0BDE8C2
:10A58000F08F0021BFE7C346D7E700BFFC4C0408AB
:10A590002DE9F04186B08046FFF722FE044638B12F
:10A5A00000223B490120FFF78BFF06B0BDE8F08198
:10A5B000404635F007FB1328054663DC8600371854
:10A5C00008F101008DF81740FFF712FE304C80466D
:10A5D00060B135F0F7FAC0B227F05EFD30B1037814
:10A5E000E3559DF8173001338DF817304046FFF7DB
:10A5F000FFFD804658B135F0E5FA0D2807D87319EC
:10A60000234458709DF8173001338DF81730B91C6A
:10A610000DF1170221444046FFF7F7FDFFF7E8FD73
:10A6200058B135F0CFFA012807D8731923441871AF
:10A630009DF8173001338DF817309DF81730042B33
:10A6400019D17319234400221A712E44A019A25D56
:10A65000017943780291C4784FF46176192111FB96
:10A6600004640194807811FB006100910948294637
:10A67000FFF7ACFE99E7052BE7D0E2190023E35181
:10A680001371E2E7132221460348FFF7ACFE8CE783
:10A6900030590020FC4C0408124D040808B5FFF79F
:10A6A0000BFEBDE808407BE60048F7E7184D0408BC
:10A6B000F7B50646FFF794FD054658B1002401A9F9
:10A6C000204633F01BF90134FFF7F2FF122CF6D1CC
:10A6D00003B0F0BD304635F075FAC4B2112C5ED827
:10A6E000701CFFF785FD314D0746C0B9304B13F89C
:10A6F00014108A1E514251412D4B13F81420AA5CAC
:10A70000002947D003EB440319205B7840F2EE2187
:10A7100000FB031321462748FFF758FED8E70178CE
:10A72000284635F084FB60B1234B032C8CBF0322F9
:10A730000022401B134453FA80F090F86360032E0C
:10A7400002D1FFF7B1FFC3E73846FFF751FDF0B183
:10A75000022EF6D135F036FA40F6CA0280B29042A7
:10A76000134BA8BF104640F2EE22904203EB440385
:10A77000B8BF1046A0F2EE20192290FBF2F05870FC
:10A78000B31E594259410A4B03F81460B4E7022E34
:10A79000F6D1D6E721460948FFF718FE98E71122BF
:10A7A00029460748FFF71FFE92E700BF383204082A
:10A7B000615B0020244D0408C0130408344D0408D4
:10A7C000414D040810B504460348FFF775FD2046C7
:10A7D000BDE8104062E700BF494D04082DE9F84F7D
:10A7E000DD4E438C2DED088BD6EDB88AB6EE007A9F
:10A7F000C7EE287A0546FCEEE77A17EE904A9C42AF
:10A8000059D2828C944200F21E81D44B33632A8C3D
:10A810003364002A4BD0944249D3DFF880A39FEDE4
:10A82000D0AA9FEDD09A9FEDD08ADFEDD09A9FED10
:10A83000D0BADFEDD0AA5746002495F82630012B78
:10A8400000F01E81C0F00481022B2BD1CA4ACB4BF1
:10A85000B2F8009095F820B0C94A3264C4EB4418AD
:10A860000AEB08184FF4F872002143F824804046A0
:10A8700035F0C6FA07EE909A07EE10BAF8EE677A4E
:10A88000B8EEC77A9FEDBF0A67EE877A80EE270A97
:10A8900035F0DAFC7828A8BF78200128B8BF01205D
:10A8A000C8F804000134032C07F12407C5D1BDEC1E
:10A8B000088BBDE8F88F002BA7D0828C002AA4D08B
:10A8C00007EE903AB8EE678A07EE902AB8EE670A6C
:10A8D000AD4B336388EE000A35F018FC30EE00AA69
:10A8E000B0EE000AF0EE4A0A35F0FAFCF6EE009AF5
:10A8F000B0EE409A6AEE290AB0EE000A35F0F0FC9C
:10A900009D4ADFED975AD2ED007A9FED964A9F4B14
:10A91000DFEDA82A9FED953A9FED951ADFED951A88
:10A920009FEDA22ADFEDA20ADFED9E6A9FED8E6AFF
:10A9300089EE807AA3F5307203F16C07F8EE677A3E
:10A94000B7EE000A67EEA57A39EE400A27EE888A4C
:10A9500020EE070AFDEEC87A38EE049A17EE901A38
:10A96000FDEEC97A203117EE900A2030402942F8D6
:10A97000043B00F25181B4EEE28AF1EE10FA40F3AA
:10A980000582B0EE487ADFED865A01E0B0EE677AD4
:10A99000B4EEE57AF1EE10FA77EE667AF6DCF4EED4
:10A9A000C37AF1EE10FA40F1EE81DFED7F5A01E05B
:10A9B000F0EE477AF4EEE57AF1EE10FA37EEA67A89
:10A9C000F6D4B4EEC47AF1EE10FA40F36E8132EEB2
:10A9D000C77A67EE077AF0EE615AE7EE815A4028AF
:10A9E000B0EE425AA7EEA55A67EE277AF7EE004A74
:10A9F000A7EE857AF0EE645AF0EE647AE7EE005A3C
:10AA0000E7EE407A84EEA55AC7EEA54A40F20D81E2
:10AA1000B0EE467AC7EE257A243303ED095A43EDAA
:10AA2000087A43ED067A03ED075A43ED054A03ED34
:10AA3000036A03ED046A03ED016A03ED026A9F42B3
:10AA400094D1464BE3E6A3B2002A3FF4DEAE37E7EB
