:020000040800F2
:1000000000000110D1A703080547030815A3010844
:10001000FDA80308FDA80308FDA8030800000000D0
:10002000000000000000000000000000114703086D
:100030000D4703080000000009470308F99B010869
:10004000FDA80308FDA80308FDA80308FDA80308F0
:10005000FDA80308FDA80308EDA3010819A50108E0
:10006000DDA40108A1A4010865A4010849940308BE
:100070003994030829940308199403080594030884
:10008000F1930308DD930308FDA80308FDA8030806
:10009000FDA80308FDA80308FDA8030829A401087A
:1000A000FDA8030835920108FDA80308F592010890
:1000B000FDA80308FDA8030875910108FDA8030821
:1000C000FDA80308FDA80308FDA80308FDA8030870
:1000D000FDA803089D9E0108019E0108659D010879
:1000E000B1A30108FDA80308496D0308298F010881
:1000F000F58F0108FDA80308B5900108C99303080E
:10010000FDA80308FDA80308FDA80308FDA803082F
:10011000C99C01082D9C0108FDA80308FDA803083F
:10012000B5930308A1930308DD8C03088D9303089E
:1001300079930308FDA80308FDA80308FDA8030898
:10014000FDA80308FDA80308FDA80308C14903088A
:1001500065930308519303083D930308FDA8030822
:10016000FDA80308FDA80308FDA80308FDA80308CF
:10017000FDA80308FDA80308FDA80308FDA80308BF
:10018000FDA80308FDA8030878A3030001000000F0
:10019000F8110800CE2D002044330020000000009C
:1001A000DC05000803123300D32F0020A02F00200D
:1001B00000000000E405000825005A00CC2E0020B5
:1001C000262F00200000000000000000F6110C00A7
:1001D000F82D0020EC2D002000000000180600087B
:1001E0002C001000802F0020902F00200000000025
:1001F000F7A500082B0024002A300020063000203C
:1002000000000000C9A5000829006400042E002099
:10021000682E0020000000000000000023001000F5
:100220003C2C00209033002000000000BD86000818
:1002300028001000B0330020A03300200000000090
:10024000A58600081400020070320020C033002090
:1002500000000000240600080C106000C2260020E8
:10026000C433002000000000751301080E20EA00CE
:10027000B225002024340020000000008DF9010880
:1002800013000400382B0020E82D0020000000009F
:1002900028060008020103009D25002010350020DB
:1002A00000000000A1130108160008006C370020B0
:1002B000F8370020000000002C06000801010400AF
:1002C000A0360020203800200000000000000000C0
:1002D00002000C00603700202438002000000000DD
:1002E0000000000008020900AA3700203038002072
:1002F0000000000065140108F7010600A437002083
:100300003C38002000000000340600080A020A0001
:100310007436002044380020000000003A0600082F
:10032000000104006C5A00201C5B0020000000004B
:100330004406000827000400005A0020205B00202B
:10034000000000004806000819000500705A00204F
:10035000245B0020000000004C0600081010020082
:10036000785A00202C5B0020000000005206000894
:1003700001200800E0520020305B00200000000057
:10038000540600081A00080048590020385B002075
:10039000000000005C0600080902010074750020DE
:1003A000DC75002000000000640600080102050062
:1003B0005C630020E07500200000000055A50208E5
:1003C00000020500A45E0020E87500200000000087
:1003D000000000001E00040054610020F0750020A1
:1003E000000000006606000822000C008074002057
:1003F000F4750020000000006A0600081B00F400ED
:10040000505C00200076002000000000A1AD020832
:100410000E02020038670020F47600200000000081
:10042000760600082F001100A8750020F87600203D
:10043000000000007806000805100600CE750020B8
:100440000C770020000000008A060008F5216E00ED
:10045000C85B00201477002000000000E59B020824
:1004600026000E0094770020847700200000000012
:10047000BD9B02080B201000385C0020A4770020F0
:1004800000000000900600081F101C00A85B002060
:10049000B477002000000000A0060008050201005B
:1004A00098630020D077002000000000BC06000800
:1004B00003010A00B0B2002044B300200000000095
:1004C000BE060008F90104000C9C002050B3002077
:1004D00000000000117B0108FD011E00E89B0020C8
:1004E00054B3002000000000A17A010806001200A9
:1004F000B4A7002074B3002000000000BDF901087B
:10050000FB0101004C9B002088B30020000000008C
:10051000E9130108FC010900189A00208CB300209F
:10052000000000002914010812200D00049A002088
:1005300098B3002000000000C806000818202C0016
:1005400060990020A8B300200000000061C20008EC
:100550000D0034008C990020D4B30020000000006E
:10056000B5150108FA0102002899002008B40020FE
:1005700000000000FD7E010802020300B48E00208E
:100580000CB4002000000000000000000C0201007C
:10059000A48E002010B4002000000000D606000841
:1005A000FE0109009CA7002014B4002000000000F8
:1005B000911401080A102C005090002020B4002053
:1005C00000000000D806000804004000DCB800204D
:1005D0009CB80020000000000000000002013C4B1D
:1005E000F4011900000000000000000000000000FD
:1005F00000000000000000000000000000000000FB
:1006000000000000000000000000000000000000EA
:1006100000000000000001000000000000000000D9
:10062000000000000300000008044510C409000099
:10063000190128283F000100000000004A01B40011
:10064000D6012600803E00002003000000002801A3
:1006500000000005E8036400040A00017E05EA05C5
:10066000B4053200260000000100C800141E01007D
:1006700064002C01280000000000000000000000C1
:100680000000000000000000000020000101000048
:100690002B21231E64010100000001000A01290032
:1006A0000000000000000100000005000000000044
:1006B0000000000000000000000000000000040135
:1006C00001006C1600000000000000010000054859
:1006D000455350000000010000300400005A0000A3
:1006E00000000000000000000000020000002000E8
:1006F000AC0D5800AC0D5800C409580078007800C3
:1007000078001400010101002581000800000000AC
:1007100078010020E415040800000000000000003B
:100720000000000000000000DC19040800000000C8
:10073000000000002002002004000000DCF7030895
:100740000D00000015AB0008281A00200000000072
:10075000A8F103080D0000003DAB00081C1A0020A2
:1007600000000000B0F203080800000000000000D4
:10077000101A00200400000014F203080D0000000D
:10078000CD810008041A002000000000C0F2030818
:10079000030000007DAD0008F819002000000000F3
:1007A000F4150408030000007DAD0008EC190020DA
:1007B00000000000D0EE030801000000000000006F
:1007C0000000000000000000000000000E0000001B
:1007D000000000000000000000000000E415040814
:1007E0000000000000000000000000000000000009
:1007F000DC190408000000000000000020020020B6
:100800000400000088F703080300000029A900087D
:10081000E01900200800000014F203080D00000099
:10082000CD810008041A002000000000C0F2030877
:10083000030000007DAD0008F81900200000000052
:10084000F4150408030000007DAD0008EC19002039
:1008500000000000D0EE03080100000000000000CE
:100860000000000000000000000000000E0000007A
:10087000000000000000000000000000FC1504085B
:100880000000000000000000000000000000000068
:10089000DC19040800000000000000002002002015
:1008A0000400000090F70308030000007DAD00087D
:1008B000341A002000000000D0EE03080100000000
:1008C0000000000000000000000000000000000028
:1008D0000E0000000000000000000000000000000A
:1008E00020700020702D7200D601000015960008BF
:1008F00000000000000000000100000000000000F7
:10090000000000009C150020FFFFFFFFFA00000020
:1009100001000000010000000001010100000000D2
:10092000FFFFFFFF2D202D2D202D2D2D2D202D2DD6
:100930002D0000000000000000000000000000008A
:1009400000000000B8EE0308C0EE0308C8EE03087C
:100950000000000000000000000000000000000097
:100960004EE4030804000000A1A8000800000000F5
:1009700000000000D0EE03080100000000000000AD
:100980000000000000000000000000000E00000059
:100990000000000000000000000000003A6100209C
:1009A0000100C40900000000386100200100C409F2
:1009B00000000000366100200100C40900000000B2
:1009C000346100200100C4090000000030610020F3
:1009D0000100C40900000000326100200100C409C8
:1009E000000000002E6100200100C409000000008A
:1009F0002C6100200100C4090000000046250020F1
:100A00000100C800010000004425002032003075BC
:100A10003200000043250020055A05004025002033
:100A200000FF0100422500200100000040020020DC
:100A30003E25002002000000E4E003083F250020DE
:100A400000FF0100412500200100000040020020BD
:100A50003D25002002000000E4E003080000000043
:100A60000000000048020020F4B200209CFF2C018E
:100A700000000000000000200A000000C4CF0308AE
:100A800030250020E0150C170000000002000020B7
:100A90000800000084E303080100002005000000B6
:100AA000BCD003083225002002000000DCCF030880
:100AB000362700200100FF7F0100000035270020BD
:100AC00002000000E8CF0308A62500200300000074
:100AD000F8CF0308A525002003000000F8CF030885
:100AE000A42600200000F40101000000A22600203E
:100AF0000000F40101000000A02600200000F40125
:100B0000010000009E2600200000F401010000000A
:100B10009C26002000FF0100C0260020E803D0072B
:100B20000A000000BE260020006401000A00000048
:100B3000B326002000640100B226002000640100FA
:100B4000BA260020006401000A000000B926002037
:100B5000006401000A000000B826002000640100C3
:100B60000A000000BD260020006401000A00000009
:100B7000BC260020006401000A000000BB26002003
:100B8000006401000A000000B726002000FF0100F9
:100B90000A000000B626002000FF01000A00000045
:100BA000B526002000FF01000A000000AE2500204D
:100BB0000000F40101000000AC2500200000F40159
:100BC00001000000AA2500200000F401010000003F
:100BD000A82500200000F40101000000AE2600203E
:100BE0001400E80301000000AC260020E803307583
:100BF00001000000AB26002000C80100AA2600204A
:100C000000C80100A926002000C80100A826002075
:100C1000016401000A000000A726002000FF010077
:100C20000A0000002B27002000C801002A2700200E
:100C300000C801002927002000C801002827002043
:100C400000C801002727002000C801002627002037
:100C500000C801002527002000C80100242700202B
:100C600000C801002327002000C80100FCEE030893
:100C70000000000000000000000000000000000074
:100C80000CEF03080900000000000000EC02002047
:100C90000400000014EF0308090000000000000039
:100CA000E00200200400000048F5030809000000ED
:100CB00000000000D4020020040000009C22040870
:100CC0000900000000000000C8020020040000002D
:100CD0001CEF03080900000000000000BC02002017
:100CE0000400000024EF03080900000000000000D9
:100CF000B0020020040000002CEF030809000000EF
:100D000000000000A40200200400000034EF0308EB
:100D1000090000000000000098020020040000000C
:100D2000D0EE0308010000000000000000000000F9
:100D300000000000000000000E00000000000000A5
:100D4000000000000000000088F003080000000020
:100D5000000000000000000000000000DC0C04089F
:100D60000700000000000000100300200000000049
:100D700098F00308080000000000000004030020B1
:100D800000000000A4F003080800000000000000BC
:100D9000F802002000000000D0EE0308010000006F
:100DA0000000000000000000000000000000000043
:100DB0000E00000000000000000000000000000025
:100DC000ACF003080000000000000000000000007C
:100DD00000000000BCF003080D000000000000004F
:100DE0004C03002000000000C4F003080D000000C8
:100DF000000000004003002000000000CCF00308C9
:100E00000700000000000000380300200000000080
:100E1000D4F003080D000000000000002C030020A7
:100E200000000000DCF003080D00000000000000DE
:100E30002003002000000000E4F003080700000089
:100E4000000000001803002000000000D0EE03089E
:100E50000100000000000000000000000000000091
:100E6000000000000E000000000000000000000074
:100E700000000000ECF0030800000000000000008B
:100E80000000000000000000DC0C04080C00000062
:100E900000000000482500200000000000F10308C9
:100EA0000C000000000000004A25002000000000A7
:100EB00010F103080C000000000000008025002055
:100EC0000000000020F103080C00000000000000FA
:100ED000742500200000000034F103080C0000001D
:100EE000000000004C2500200000000040F1030835
:100EF0000C000000000000004E2500200000000053
:100F000048F103080C0000000000000050250020FC
:100F1000000000005CF103080C000000000000006D
:100F2000522500200000000064F103080C000000BE
:100F30000000000054250020000000006CF10308B0
:100F40000C000000000000009225002000000000BE
:100F500084F103080C00000000000000562500206A
:100F60000000000090F103080C00000000000000E9
:100F7000582500200000000098F103080C00000034
:100F8000000000005A25002000000000A4F1030822
:100F90000C000000000000005C25002000000000A4
:100FA000B0F103080C000000000000005E250020E6
:100FB00000000000BCF103080C000000000000006D
:100FC0006025002000000000C8F103080C000000AC
:100FD000000000006225002000000000D4F103089A
:100FE0000C0000000000000064250020000000004C
:100FF000E0F103080C00000000000000782500204C
:1010000000000000E8F103080C00000000000000F0
:101010007625002000000000F0F103080C0000001D
:10102000000000008425002000000000FCF10308FF
:101030000C000000000000008625002000000000D9
:1010400008F203080C000000000000008C250020BE
:1010500000000000D8EF03080C00000000000000B2
:10106000662500200000000014F203080C000000B8
:10107000000000006E250020000000001CF20308A4
:101080000C000000000000006825002000000000A7
:1010900028F203080C000000000000006A25002070
:1010A0000000000034F203080C0000000000000003
:1010B0006C250020000000003CF203080C0000003A
:1010C00000000000702500200000000048F2030826
:1010D0000C000000000000007A2500200000000045
:1010E00050F203080C0000000000000072250020F0
:1010F000000000005CF203080C000000000000008B
:10110000822500200000000068F203080C000000A7
:10111000000000007C2500200000000070F20308A1
:101120000C000000000000007E25002000000000F0
:1011300078F203080C000000000000008825002061
:101140000000000080F203080C0000000000000016
:101150008A25002000000000D0EE030801000000F6
:10116000000000000000000000000000000000007F
:101170000E00000000000000000000000000000061
:1011800088F20308000000000000000000000000DA
:101190000000000098F203080500000000000000B5
:1011A000A425002000000000D0EE0308010000008C
:1011B000000000000000000000000000000000002F
:1011C0000E00000000000000000000000000000011
:1011D000A0F2030800000000000000000000000072
:1011E00000000000DC1904080000000000000000FE
:1011F0000023002004000000ACF203080D000000F2
:1012000005A90008A003002000000000DCF7030887
:101210000D000000DD8000089403002000000000A5
:10122000A8F103080D000000C18000088803002019
:1012300000000000B0F203080800000000000000F9
:101240007C0300200400000014F203080D000000DD
:101250000D8000087003002000000000B8F20308B1
:1012600009000000000000006403002004000000EA
:10127000C0F20308030000007DAD00085803002001
:1012800000000000D0EE0308010000000000000094
:101290000000000000000000000000000E00000040
:1012A000000000000000000000000000C4F203087D
:1012B000000000000000000000000000000000002E
:1012C000D4F203080D00000000000000B803002065
:1012D00000000000DCF203080A000000000000002B
:1012E000942B002000000000E8F203080A00000030
:1012F000000000009C2B002000000000F0F203081A
:101300000A00000000000000A42B002000000000E4
:10131000F8F203080800000000000000AC03002001
:101320000000000000F3030804000000B1AE000854
:101330000000000000000000D0EE030801000000E3
:10134000000000000000000000000000000000009D
:101350000E0000000000000000000000000000007F
:101360000CF3030800000000000000000000000073
:101370000000000020F303080D0000000000000042
:10138000D00300200000000030F303080400000038
:10139000B9AB0008000000000000000038F30308AB
:1013A0000D00000000000000C40300200000000049
:1013B0004CF303080400000095AB00080000000097
:1013C00000000000D0EE0308010000000000000053
:1013D0000000000000000000000000000E000000FF
:1013E00000000000000000000000000054F30308AB
:1013F00000000000000000000000000000000000ED
:1014000068F3030807000000000000000C0400203F
:101410000000000074F30308080000000000000052
:10142000000400200000000080F303080800000012
:1014300000000000F4030020000000008CF303080B
:101440000800000000000000E80300200000000089
:1014500098F303080800000000000000DC030020EF
:1014600000000000D0EE03080100000000000000B2
:101470000000000000000000000000000E0000005E
:10148000000000000000000000000000A4F30308BA
:101490000000000000000000DF010020000000004C
:1014A000B0F303080B000000000000009C040020C3
:1014B00000000000BCF303080B0000000000000067
:1014C0009004002000000000C8F303080B00000097
:1014D000000000008404002000000000D4F3030892
:1014E0000B00000000000000780400200000000055
:1014F000E0F303080B000000000000006C04002073
:1015000000000000ECF303080B00000000000000E6
:101510006004002000000000F8F303080B00000046
:1015200000000000540400200000000004F4030840
:101530000B00000000000000480400200000000034
:1015400010F403080B000000000000003C04002021
:10155000000000001CF40308070000000000000069
:10156000340400200000000024F4030807000000F9
:10157000000000002C0400200000000030F40308EC
:101580000B0000000000000020040020000000000C
:101590003CF40308080000000000000014040020D0
:1015A00000000000D0EE0308010000000000000071
:1015B0000000000000000000000000000E0000001D
:1015C00000000000000000000000000048F40308D4
:1015D000000000000000000000000000000000000B
:1015E0005CF403080800000000000000CC040020A8
:1015F0000000000068F4030808000000000000007C
:10160000C00400200000000074F40308080000007B
:1016100000000000B40400200000000080F4030873
:101620000800000000000000A804002000000000E6
:10163000D0EE0308010000000000000000000000E0
:1016400000000000000000000E000000000000008C
:10165000000000000000000088F403080000000003
:1016600000000000DC0100200000000098F40308E6
:101670000B00000000000000140500200000000026
:10168000A4F403080B00000000000000080500207F
:1016900000000000B0F40308070000000000000094
:1016A0000005002000000000BCF403080700000053
:1016B00000000000F804002000000000C8F4030847
:1016C0000700000000000000F004002000000000FF
:1016D000D4F403080800000000000000E404002027
:1016E00000000000DCF40308080000000000000017
:1016F000D804002000000000D0EE03080100000024
:1017000000000000000000000000000000000000D9
:101710000E000000000000000000000000000000BB
:10172000E4F403080000000000000000DC010020D9
:1017300000000000F0F403080700000000000000B3
:101740006005002000000000F8F403080700000016
:1017500000000000580500200000000000F503080C
:1017600007000000000000005005002000000000FD
:1017700008F50308070000000000000048050020ED
:101780000000000010F50308070000000000000042
:10179000400500200000000018F5030807000000C5
:1017A00000000000380500200000000020F50308BC
:1017B00007000000000000003005002000000000CD
:1017C00028F503080700000000000000280500209D
:1017D0000000000030F503080700000000000000D2
:1017E0002005002000000000D0EE030801000000EA
:1017F00000000000000000000000000000000000E9
:101800000E000000000000000000000000000000CA
:1018100000000000A183000868050020A225002028
:101820001C00000008D00308A12500200A32010096
:10183000A025002001FA01009C25002000C801001D
:101840009A250020E803D0070100000048454C49D4
:101850004F535052494E47003C25002000030100E1
:101860003B25002000030100C5820008A18200087A
:10187000440600206982000829820008BC06002076
:1018800001830008E982000870070020B783000880
:1018900065AB00087C0A00204980000800000000B9
:1018A000CC0A00208DAE000821860008A80B00207D
:1018B000DD830008000000005C0C0020818400082B
:1018C00051840008E80C00200D85000851850008AF
:1018D000880D0020B0260020010601001D840008AC
:1018E000F1830008C80E0020B1840008DDAB0008B9
:1018F000540F00207D85000839AC00081C10002022
:10190000A62600200103010038F5030800000000AE
:1019100000000000000000000000000044F5030883
:1019200008000000000000003C1100200000000042
:101930004CF50308070000000000000034110020EF
:10194000000000005CF50308070000000000000034
:101950002C1100200000000068F5030807000000BB
:1019600000000000241100200000000074F50308AE
:101970000D00000000000000181100200000000011
:1019800080F50308030000007DAD00080C11002065
:1019900000000000D0EE030801000000000000007D
:1019A0000000000000000000000000000E00000029
:1019B00000000000000000000000000088F503089F
:1019C0000000000000000000000000000000000017
:1019D00098F503080A00000000000000A0F50308C5
:1019E00000000000A8F503080A0000000000000045
:1019F000FDE4030800000000B0F503080A00000041
:101A0000000000002C27002000000000B8F50308AB
:101A10000A00000000000000481100200000000043
:101A2000D0EE0308010000000000000000000000EC
:101A300000000000000000000E0000000000000098
:101A40000000000000000000C0F5030800000000D6
:101A5000000000000000000000000000CCF50308BA
:101A6000030000007DAD00087C1100200000000094
:101A7000D8F50308030000007DAD000870110020B8
:101A800000000000E0F50308030000007DAD000841
:101A90006411002000000000E8F5030805000000C4
:101AA000000000003A25002000000000F0F50308C7
:101AB00007000000000000005C1100200000000092
:101AC000FCF503080700000000000000541100208E
:101AD00000000000D0EE030801000000000000003C
:101AE0000000000000000000000000000E000000E8
:101AF00000000000000000000000000008F60308DD
:101B000000000000000000000000000000000000D5
:101B10001CF60308030000007DAD0008A0110020A2
:101B20000000000028F60308030000007DAD000857
:101B3000040000200000000030F60308030000004D
:101B40007DAD0008941100200000000038F6030865
:101B5000030000007DAD0008881100200000000097
:101B6000D0EE0308010000000000000000000000AB
:101B700000000000000000000E0000000000000057
:101B8000000000000000000044F603080000000010
:101B900000000000000000000000000050F60308F4
:101BA0000700000085AC0008FC11002000000000C8
:101BB00038F20308030000007DAD0008F01100209A
:101BC000000000005CF60308030000007DAD000883
:101BD000E41100200000000064F603080300000088
:101BE0007DAD0008D8110020000000006CF603084D
:101BF0000700000069AC0008D011002000000000C0
:101C000010220408030000007DAD0008C41100206C
:101C10000000000078F60308030000007DAD000816
:101C2000B81100200000000084F603080300000043
:101C30007DAD0008AC11002000000000D0EE0308CC
:101C40000100000000000000000000000000000093
:101C5000000000000E000000000000000000000076
:101C6000000000005D8300081983000804120020B2
:101C7000ED85000800000000B81200200D82000869
:101C8000F181000844130020000000000000000063
:101C9000F8130020C5850008A1AC000884140020BA
:101CA00090F60308000000000000000000000000A3
:101CB000000000009CF60308030000007DAD000852
:101CC0009015002000000000A4F6030803000000A7
:101CD0007DAD00088415002000000000B0F6030868
:101CE000030000007DAD0008781500200000000012
:101CF000B4F60308030000007DAD00086C15002059
:101D000000000000C0F60308030000007DAD0008DD
:101D10006015002000000000C8F603080200000063
:101D200061AF00080000000000000000D0F60308CA
:101D30000200000061AF0008010000000000000088
:101D4000DCF603080200000061AF0008020000009A
:101D500000000000000000000E0000000000000075
:101D600000000000000000003625002088136F17D7
:101D7000010000003825002088136F1700000000C4
:101D8000E8F603080000000000000000000000006A
:101D900000000000F8F60308080000000000000042
:101DA000701600200400000004F70308080000007B
:101DB000000000006416002000000000C0F20308CC
:101DC0000400000069A900080000000000000000F5
:101DD000D0EE030801000000000000000000000039
:101DE00000000000000000000E00000000000000E5
:101DF00000000000000000003425002088136F1749
:101E00000100000032B3002088136F1700000000AB
:101E100085810008000000007C160020372B002080
:101E2000010000007CD0030834B300200100000052
:101E300088D003082AB300200200000090D00308D5
:101E40001A9F00200000000000000000189F0020E2
:101E50000000000000000000169F002000000000AD
:101E600000000000149F002000000000000000009F
:101E7000129F00200000000000000000109F0020C2
:101E800000000000000000003823002000000000D7
:101E90000000000033250020020000009CD0030851
:101EA00040F70308000000000000000000000000F0
:101EB00000000000F8F60308080000000000000021
:101EC000001700200400000004F7030808000000C9
:101ED00000000000F416002000000000C0F203081B
:101EE000040000005981000800000000000000000C
:101EF000D0EE030801000000000000000000000018
:101F000000000000000000000E00000000000000C3
:101F1000000000000000000050F70308000000006F
:101F200000000000000000000000000060F703084F
:101F30000D000000B9AA00083017002004000000BE
:101F40006CF703080D000000A98100082417002089
:101F50000400000078F703080D0000007DAA0008C7
:101F6000181700200000000084F703080300000099
:101F700049A900080C1700200800000090F703088A
:101F8000030000007DAD0008341A002000000000AE
:101F9000D0EE030801000000000000000000000077
:101FA00000000000000000000E0000000000000023
:101FB0000000000000000000C8EE03080000000060
:101FC0000000000000000000000000004EE40308D4
:101FD0000400000081A900080000000000000000CB
:101FE000D0EE030801000000000000000000000027
:101FF00000000000000000000E00000000000000D3
:102000000000000000000000E4F7030800000000EA
:10201000000000000000000000000000A00F040805
:102020000D000000000000009017002004000000D8
:10203000F4F70308080000000000000084170020E7
:102040000400000000F80308080000000000000081
:10205000781700200400000008F8030808000000BA
:10206000000000006C1700200400000010F80308B6
:1020700008000000000000006017002004000000BD
:1020800018F80308080000000000000054170020A2
:102090000400000020F80308080000000000000011
:1020A000481700200400000028F80308080000007A
:1020B000000000003C17002004000000D0EE0308E0
:1020C000010000000000000000000000000000000F
:1020D000000000000E0000000000000000000000F2
:1020E0000000000071810008000000009C17002023
:1020F0000000000000000000141800200000000094
:1021000000000000B418002030B3002004000000DC
:10211000A8D003082EB30020E0150C170000000023
:102120002DB300200800000084E303082CB3002036
:1021300005000000BCD00308000000000000000003
:1021400004190020000000001038002008000000E2
:10215000000000000038002008000000B4D8030888
:102160000508040000000000BCD0030884E3030855
:10217000A8D003080000000000000000E0D8030819
:1021800005080A0000000000BCD0030884E303082F
:10219000C4CF03080000000000000000010100009F
:1021A00034190408E02504080000000000000000C5
:1021B000441904084C190408000000000120000024
:1021C00050190408581904080000000001400000DC
:1021D0005C1904082C010408000000000120000024
:1021E00068190408741904080000000004000000C5
:1021F00078190408502604080000000004000000BC
:10220000841904087415040800000000010000008F
:10221000020100000000803F0000000000000000FC
:10222000000000000000803F0000000000000000EF
:10223000000000000000000000000000000000009E
:102240000000000000000000000000000000803FCF
:102250000000000000000000000000000000803FBF
:10226000010000000000803F0000803F00000000EF
:102270000000000000000000FF000000010000005E
:1022800000000100E0010108200D0408000000002A
:1022900000000000B5130108A08601000400000042
:1022A000000000000000000000000000000000002E
:1022B00000000000000000000000000038F20308E9
:1022C00050EF030800000000512F02087D000000BD
:1022D00006000000000000000000000000000000F8
:1022E00000000000000000000000000000000000EE
:1022F0008C0C0408000000000000000021AD010863
:10230000E8030000030000000000000000000000DF
:1023100000000000000000000000000000000000BD
:10232000000000006C26040800000000000000000F
:102330004FFD01081027000003000000000000000E
:10234000000000000000000000000000000000008D
:1023500000000000000000007826040800000000D3
:1023600035A300088DEC0108204E00000500000098
:10237000000000000000000000000000000000005D
:10238000000000000000000000000000B40E04087F
:102390000000000000000000DDB30108102700006D
:1023A000010000000000000000000000000000002C
:1023B000000000000000000000000000000000001D
:1023C0007C26040800000000000000004579010898
:1023D000E80300000500000000000000000000000D
:1023E00000000000000000000000000000000000ED
:1023F0000000000088260408000000000000000023
:102400006D270108204E00000300000000000000BE
:1024100000000000000000000000000000000000BC
:1024200000000000000000009826040800000000E2
:10243000000000005D250108204E000003000000A0
:10244000000000000000000000000000000000008C
:10245000000000000000000000000000A8260408A2
:102460000000000000000000097F0108400D03008B
:102470000300000000000000000000000000000059
:10248000000000000000000000000000000000004C
:10249000E40D04080000000000000000D53D010824
:1024A00010270000010000000000000000000000F4
:1024B000000000000000000000000000000000001C
:1024C00000000000980C040800000000000000005C
:1024D0005DE6020810270000030000000000000075
:1024E00000000000000000000000000000000000EC
:1024F0000000000000000000BC0E04080000000006
:1025000000000000B9BB0108A00F0000010000009E
:1025100000000000000000000000000000000000BB
:10252000000000000000000000000000B8260408C1
:102530000000000000000000BDB1020810270000EC
:10254000010000000000000000000000000000008A
:10255000000000000000000000000000000000007B
:10256000B0F603080000000000000000C1060308E8
:102570001A410000010000000000000000000000FF
:10258000000000000000000000000000000000004B
:102590000000000098EF03080000000000000000A9
:1025A000DD98020810270000010000000000000074
:1025B000000000000000000000000000000000001B
:1025C00000000000000000002C26040800000000AD
:1025D00000000000FDB000081A41000001000000EA
:1025E00000000000000000000000000000000000EB
:1025F000000000000000000000000000C4260408E5
:1026000000000000000000001FF40208400D03005D
:1026100000000000000000000000000000000000BA
:1026200000000000000000000000000000000000AA
:10263000CC2604080000000000000000AD7801086E
:10264000400D03000000000000000000000000003A
:10265000000000000000000000000000000000007A
:1026600000000000D4260408000000000000000064
:10267000C9EC0208A0860100030000000000000071
:10268000000000000000000000000000000000004A
:102690000000000000000000E02604080000000028
:1026A000000000002925010840420F000000000042
:1026B000000000000000000000000000000000001A
:1026C000000000000000000000000000FFFF00000C
:1026D000FF1FFF1F01000000FFFFFFFF04030904AD
:1026E000120100020202004083044057000201026E
:1026F0000301000009024300020100C03209040086
:10270000000102020100052400100105240100015E
:10271000042402020524060001070582030800FFC5
:1027200009040100020A0000000705010240000040
:102730000705810240000000FF00000000FFFF00CD
:10274000000000000800AA5505010000000000017B
:102750000000000000000000000000000100000078
:102760000000803F00000000010203040102030496
:1027700006070809491C03086D1B0308B515030863
:10278000ED100308291E0308FD10030819110308A2
:10279000C5100308B5100308000000000000000089
:1027A00000600240106002400000000000000000D5
:1027B000000B00000000000000000000000000000E
:1027C000006002402860024001000000000000009C
:1027D000060C0000000000000000000000000000E7
:1027E0000060024040600240020000000000000063
:1027F000100D0000000000000000000000000000BC
:102800000060024058600240030000000000000029
:10281000160E000000000000000000000000000094
:1028200000600240706002400400000000000000F0
:10283000200F000000000000000000000000000069
:1028400000600240886002400500000000000000B7
:102850002610000000000000000000000000000042
:1028600000600240A060024006000000000000007E
:102870003011000000000000000000000000000017
:1028800000600240B8600240070000000000000045
:10289000362F0000000000000000000000000000D3
:1028A00000640240106402400000000000000000CC
:1028B00000380000000000000000000000000000E0
:1028C0000064024028640240010000000000000093
:1028D00006390000000000000000000000000000B9
:1028E000006402404064024002000000000000005A
:1028F000103A00000000000000000000000000008E
:102900000064024058640240030000000000000020
:10291000163B000000000000000000000000000066
:1029200000640240706402400400000000000000E7
:10293000203C00000000000000000000000000003B
:1029400000640240886402400500000000000000AE
:10295000264400000000000000000000000000000D
:1029600000640240A0640240060000000000000075
:1029700030450000000000000000000000000000E2
:1029800000640240B864024007000000000000003C
:1029900036460000000000000000000000000000BB
:1029A000991D0308011D0308B11A03080000000067
:1029B0008D100308F1140308851A03084D14030849
:1029C000000000000000000081100308011003084F
:1029D000FD0F0308F90F0308ED0F0308E90F0308C3
:1029E000F50F0308F10F03087510030869100308B9
:1029F00041100308551003082D100308191003088F
:102A0000051003082D202D2D202D2D2D2D202D2DB1
:102A10002D2D00000000000000000000000000005C
:102A2000000000AA550B010000AA5507010000AAEA
:102A3000550902000000000001000000C012AA5564
:102A400003009F000100000050010000070000008B
:102A5000020000000000000000000000010203046A
:102A600006070809642300200000000000000000A1
:102A70000000000000000000000000000000000056
:102A80000000000000000000000000000000000046
:102A90000000000000000000000000000000000036
:102AA0000000000000000000000000000000000026
:102AB0000000000000000000000000000000000016
:102AC00000000000000000004300000000000000C3
:102AD00000000000000000000000000000000000F6
:102AE00000000000000000004300000000000000A3
:102AF00000000000000000000000000000000000D6
:102B00000000000000000000430000000000000082
:102B100000000000000000000000000000000000B5
:102B20000000000000000000430000000000000062
:102B30000000000000000000000000000000000095
:102B40000000000000000000430000000000000042
:102B50000000000000000000000000000000000075
:102B60000000000000000000430000000000000022
:102B70000000000000000000000000000000000055
:102B80000000000000000000430000000000000002
:102B90000000000000000000000000000000000035
:102BA0000000000000000000CFAC0308ABAC03083D
:102BB000000000004E2704084AE40308DC1904085A
:102BC000DC190408DC190408DC190408DC19040801
:102BD000DC190408DC190408DC190408DC190408F1
:102BE000FFFFFFFFFFFFFFFFFFFFFFFFFFFF0000F3
:102BF000010041534349490000000000000000006B
:102C000000000000000000000000000000000000C4
:102C1000000041534349490000000000000000004B
:102C200000000000000000000000000000000000A4
:102C30000000000000000000000000000000000094
:102C40000000000000000000000000000000000084
:102C50000000000000000000000000000000000074
:10800000D0E90920131A584258417047034B1A7897
:108010000AB901221A700020704700BF000000203A
:10802000064B5A784AB19B783BB103EBC203093B3C
:10803000034A32F81320034B1A80704700000020D7
:108040002AE303083025002008B5174B1B780BB135
:10805000164A5370164B1B780BB1144A9370FFF7F6
:10806000DFFF144B144A1B7801339370134B1B88AA
:108070007BB1192B0FD9642B0FD9C82B0FD9B3F5AE
:10808000C87F0ED9B3F5167F03D80423074A0133FE
:108090001370002008BD0023F8E70123F6E7022350
:1080A000F4E70323F2E700BF998E002000000020D0
:1080B0009A8E0020948E002030250020968E00207D
:1080C00008B5054B9A781AB901229A70002008BDAC
:1080D000FFF7A6FFFAE700BF0000002008B5054B38
:1080E0005A781AB901225A70002008BDFFF798FF8C
:1080F000FAE700BF00000020064B1A78064B1B78F9
:1081000003EBC203093B054A32F81320044B1A80E3
:10811000704700BF2CB300202DB300202AE30308D2
:108120002EB30020094BDA78094B5AB1094A12786C
:1081300022B903F11002DA600020704703F1D8027F
:10814000DA60F9E703F5BC72DA60F5E73025002064
:108150000000002034B30020034B9A88034B4FF0FB
:10816000FF301A80704700BF3025002032B3002056
:10817000024B1A88024B00209A80704732B30020CD
:1081800030250020064B93F90030012B04D0054B1D
:108190001A89DA80002070474FF0FF30704700BF27
:1081A000382000203025002008B5064B1A782AB167
:1081B000054A1278012A1CBF00221A70FFF7B2FF8D
:1081C000002008BD34B300202AB30020064B93F9E9
:1081D0000020064B12B91A70002070471A78002A46
:1081E000FAD10122F7E700BF3820002030B3002089
:1081F000044A054B917A9970D17A127BD9701A7121
:1082000000207047302500205C630020044A054BA5
:1082100091789972D1781279D9721A7300207047C7
:108220005C630020302500200D4A0E48537BD17B33
:1082300003F00F0343EA0123517C0901C9B20B4348
:10824000A0F85830117C937B927C03F00F0312014D
:1082500043EA0123D2B21343A0F85A3000207047FA
:1082600030250020C85B00200B490C4BB1F858208A
:1082700002F00F005873C2F30310120ADA73B1F858
:108280005A20587402F00F019973C2F30311120AB5
:1082900099741A7400207047C85B002030250020B4
:1082A000064A074BD17C83F85610918AD28AA3F8EC
:1082B0005210A3F854200020704700BF3025002042
:1082C000C85B0020064A074B92F85610D974B2F8E2
:1082D0005210B2F854209982DA820020704700BF11
:1082E000C85B00203025002008B55222024903480F
:1082F00032F00EFC002008BD48250020C85B00209D
:1083000008B552220249034832F002FC002008BDA1
:10831000C85B0020482500200C4B0D49B3F86A20AB
:108320008A8193F86C2002EB820252004A8193F812
:10833000702083F86D20074A93F87110117093F83C
:108340007220054B00209A70704700BF3025002036
:10835000B4A70020385C0020049A00200C4A0D4B82
:108360009189A3F86A1052890A21B2FBF1F283F8CD
:108370006C2093F86D2083F87020074A127883F8F8
:108380007120064A927883F872200020704700BF5F
:10839000B4A7002030250020385C0020049A00207B
:1083A00030B1007910F1FF3018BF4FF0FF30704747
:1083B0004FF0FF307047074B93F8732042B9064ADD
:1083C000528802F0010283F87420012283F873209E
:1083D0000020704730250020089C0020034B00201F
:1083E00083F8750083F87600704700BF30250020C1
:1083F000084B094A1B68B2F878101984B2F87A1051
:108400005984B2F87C10B2F87E209984DA83002077
:10841000704700BF88650020302500200B4B93F883
:1084200080204E2101FB02320020B2F8A210A3F8F6
:108430007810B2F8A410A3F87A10B2F8A610B2F827
:10844000A020A3F87C10A3F87E20704730250020E0
:10845000094A0A4B92F86C115971B2F86E115981A0
:10846000B2F870119981B2F87211B2F87421D98101
:108470001A820020704700BF302500205090002055
:10848000094A0A4B517983F86C115189A3F86E118E
:108490009189A3F87011D189128AA3F87211A3F8F7
:1084A00074210020704700BF50900020302500202C
:1084B000144B154993F87621303281F8DD2193F879
:1084C00080204E2101FB0232002092F8B91083F87F
:1084D000771192F8B81083F8781192F8971083F812
:1084E000791192F8981083F87A1192F8991083F81C
:1084F0007B11B2F8B610B2F8B420A3F87C11A3F83F
:108500007E21704730250020000000200E4B0F49CF
:1085100093F87621303281F8E02193F880213032CF
:1085200081F8E22193F8F22103EB021202F5C971FE
:1085300003F5C17302F5D17251F8040B43F8040B33
:108540009142F9D100207047302500200000002022
:10855000094B93F8F22103EB021203F5C17102F506
:10856000C97203F5C97351F8040B42F8040B994220
:10857000F9D10020704700BF3025002030B50F4AE8
:108580000F4992F8763192F88000303381F8DD316E
:1085900002F182034E2100FB013102F2F3120023AB
:1085A000C85C9854CC18D01803336578A47845700B
:1085B000092B8470F4D1002030BD00BF302500208D
:1085C000000000200749084B0A7883F88020013218
:1085D00083F876214A7883F8F221013283F88021EA
:1085E00000207047049A0020302500200A4930B549
:1085F0000A4C002201F5FE70135DA3F16105052D03
:108600009CBF203BDBB283540132072AF4D1002007
:1086100081F8030230BD00BF302500200BE40308C1
:10862000094B93F80422012A084A07D893F8051247
:10863000012902D0032918BF03219170B3F8063233
:1086400013800020704700BF30250020CE75002029
:1086500010B5044623790E2B00D110BD032B03D196
:10866000E3689868FFF7F4FF1434F3E70B49D1F897
:1086700008329A68134618790E280CD19B1A9A1062
:10868000074B5343013B91F8112293FBF2F3013363
:1086900081F8103270471433EDE700BF3025002019
:1086A000CDCCCCCC00230122C27083700380037137
:1086B00043718371C37103724372704700230A22AE
:1086C00003604360C381C0F80630C0F80A300280FE
:1086D00070472DE9F041714B93F8121293F8132271
:1086E000914263D093F8121293F81222C1EBC101A8
:1086F00003EB8101C2EBC20203EB820291F8334229
:1087000092F81862A21E964216D0654AD3F8144217
:108710001278172A4ED0002093F8122261490132B4
:10872000A1FB0251490801EB4101521AD2B283F870
:1087300012224CBBBDE8F08193F8122203F50677B4
:10874000C2EBC20207EB820264B11444002112F8AA
:10875000015B2944944289B2F9D1CAB202EB1121DA
:10876000FF2933D04E4AD3F814421278172AD2D1B7
:10877000B3F86C224C49013292B204208880A3F8ED
:108780006C224A800020C7E7484A1268141BB4F5DF
:10879000FA7FCFD993F86E22032A02D1444A0021EE
:1087A00011800022C3F81422BDE8F081D3F81442EE
:1087B0000020BEE7B3F86C223B49013292B203209D
:1087C0008880A3F86C224A800020A5E793F8122243
:1087D00001211C2404FB0212B918BA5CE2B1012A7F
:1087E00013D1082ED3F8144239D02D4A1278172A03
:1087F00091D1B3F86C222C49013292B206208880C4
:10880000A3F86C224A80002086E7254A1278172AAE
:1088100017D0D3F814427EE7192E4DD02049D3F853
:108820001442097817297FF476AFB3F86C121E4D05
:10883000013189B206261046A3F86C126980AE8019
:108840006AE7B3F86C221849D3F81442013292B2A5
:1088500005208880A3F86C224A8000205CE793F80A
:10886000940200283FF458AF4A780020102AC3F839
:10887000980200F0F88040F2F380303A012A3FF687
:108880004AAF51F8010F0B4AC3F89C0288888979D6
:1088900090809171C3F8982204203DE73025002094
:1088A000A58E0020ABAAAAAAA88E0020BC8E00200C
:1088B000EE5D0020CC2700208F784C78026991F87B
:1088C00003E091F804808D79CE7991F808C007F023
:1088D000070744EA07240EF03F0E8F7A14808C7845
:1088E0004FEA4E1E4EEAD40E8C7BA2F802E091F8BD
:1088F00003E04FEA880040EA9E1091F805E00EF090
:10890000010E40EA8E20908005F00F05487991F81D
:1089100007E0ED0145EA50004D7AD0804FEA4C0C5B
:108920004CEADE1C05F0030591F806E0C87A06F073
:108930007F064CEA452C36014D7BA2F80AC046EA78
:108940001E16168105F007068D7A91F809C0C00041
:1089500040EA55100D7B07F01F0745EA062504F095
:108960003F044E7BD0816401BF0144EAD60047EA50
:108970009C07978115825082C87B91F80EC0CE7CEF
:1089800091F812E04F7C8D7C4C7D800040EA9C1079
:1089900091F810C076000CF0010C46EADE1607F0E4
:1089A0000F0791F810E040EA8C20FF0191F814C005
:1089B000908247EA5E07887DD78205F07F054F7C6D
:1089C0000CF0030C46EA4C262D0145EA1715568398
:1089D0000F7D4E7D158304F01F04A401C00040EA02
:1089E000561044EA9704D0839483CC7D93F86E525A
:1089F00040F2147014F0010F14BF0646AD2614F0B7
:108A0000020F08BFAD2014F0080F50840CBF0120E6
:108A10000320032D16841ED10A7E93F86F42134E55
:108A2000D3F87012642A03EB4405A8BF64229202B3
:108A3000A6FB0262B5F874620134520904F00F0417
:108A4000891B114483F86F42094CA5F874220A0966
:108A5000C3F870122280074A1468C3F814425BE618
:108A6000002A7FF458AE042056E600BF1F85EB5164
:108A7000EE5D0020BC8E0020724B5B68C3F30803E0
:108A800070B4B3B9EFF311839BB96F4A6F4D13689C
:108A9000AC6800BF11688B42F9D16D4A15684FF47C
:108AA0007A7101FB05F2121BB2FBF5F201FB032206
:108AB00020E0EFF31184102383F3128803F1E02305
:108AC00064499D681A68D20342BF01220A609D680A
:108AD0005D4BE4B21E680B6884F311885C4A14682D
:108AE0004FF47A7202FB04F13344491BB1FBF4F1F9
:108AF00002FB0312584B002183F8A31293F8A4122F
:108B0000012917D9D3F8A81240F6AC54511AA14242
:108B100010DD52490978172909D1B3F86C12504C6D
:108B2000013189B20125A3F86C126180A580002172
:108B300083F8A412C0B27E282AD093F8A4222AB3C4
:108B400093F8A4221B2A5ED893F8B822002A72D088
:108B5000002280F0200083F8B82293F8A422022A91
:108B600003D1012808BF83F8AC0293F8132293F8CD
:108B7000A44293F8A412C2EBC20203EB8202224485
:108B80000131C9B282F8170283F8A41270BC704791
:108B900093F8A41201292FD993F81312314893F8AE
:108BA00012420131A0FB0150400800EB4000091ABD
:108BB000C9B28C420CD093F8A44293F8130283F804
:108BC0001312C0EBC00003EB8000611E80F833126B
:108BD00093F8AC1239B10120002183F8A30283F885
:108BE000AC12C3F8B0221D49097817291DD0002105
:108BF000C3F8B42283F8B812012183F8A412C3F891
:108C0000A82270BC7047154A12780021172A83F8F1
:108C1000A412BBD1B3F86C221149013292B20220E6
:108C2000A3F86C224A808880B0E7D3F8B4120C48CD
:108C3000511A0180DBE77D288FD1012283F8B82209
:108C4000A4E700BF00ED00E0BC8E002010E000E0D3
:108C50004C9000204890002030250020A58E002058
:108C6000A88E0020ABAAAAAA03788B4283BF034B2D
:108C700003EB4101B1F8BC02002070473025002011
:108C8000044B93F8D40218B1002283F8D4220120B7
:108C9000704700BF30250020F0B4C24D95F8FB624C
:108CA00005F536720244B41E1444A24200F07881E5
:108CB000013A013C002341F2210112F8017F83EACD
:108CC00007231FB2BBB2002FACBF5B0081EA430396
:108CD0009BB21F0454BF5B0081EA43039BB21F0495
:108CE00054BF5B0081EA43039BB21F0454BF5B0087
:108CF00081EA43039BB21F0454BF5B0081EA430334
:108D00009BB21F0454BF5B0081EA43039BB21F0464
:108D100054BF5B0081EA43039BB21F0454BF5B0056
:108D200081EA4303A2429BB2C7D10644B21E013E70
:108D30002A442E4492F8D81296F8D82202EB012247
:108D400092B29A4201D0F0BC704795F8FC22002AFA
:108D500000F02181431CDBB25C1C2C442B444FF4FB
:108D6000AF6193F8D86294F8D83203EB06239BB234
:108D700001FB03F31B1303F54873012AA5F8BC326A
:108D800000F00981C31CDBB25C1C2C442B44022A7A
:108D900093F8D86294F8D83203EB06239BB201FB18
:108DA00003F34FEA233303F54873A5F8BE3200F00E
:108DB000F280431DDBB25C1C2C442B44032A93F845
:108DC000D86294F8D83203EB06239BB201FB03F37D
:108DD0004FEA233303F54873A5F8C03200F0DB8077
:108DE000C31DDBB25C1C2C442B44042A93F8D862CC
:108DF00094F8D83203EB06239BB201FB03F34FEA4E
:108E0000233303F54873A5F8C23200F0C48000F1A3
:108E10000903DBB25C1C2C442B44052A93F8D8626E
:108E200094F8D83203EB06239BB201FB03F34FEA1D
:108E3000233303F54873A5F8C43200F0AC8000F189
:108E40000B03DBB25C1C2C442B44062A93F8D8623B
:108E500094F8D83203EB06239BB201FB03F34FEAED
:108E6000233303F54873A5F8C63200F0948000F16F
:108E70000D03DBB25C1C2C442B44072A93F8D86208
:108E800094F8D83203EB06239BB201FB03F34FEABD
:108E9000233303F54873A5F8C8327CD000F10F03E3
:108EA000DBB25C1C2C442B44082A93F8D86294F85B
:108EB000D83203EB06239BB201FB03F34FEA2333C3
:108EC00003F54873A5F8CA3265D000F11103DBB28F
:108ED0005C1C2C442B44092A93F8D86294F8D832AD
:108EE00003EB06239BB201FB03F34FEA233303F5A5
:108EF0004873A5F8CC324ED000F11303DBB25C1CF2
:108F00002C442B440A2A93F8D86294F8D83203EB05
:108F100006239BB201FB03F34FEA233303F54873A7
:108F2000A5F8CE3237D000F11503DBB25C1C2C441F
:108F30002B440B2A93F8D86294F8D83203EB06231B
:108F40009BB201FB03F34FEA233303F54873A5F803
:108F5000D03220D000F11703DBB25C1C2C442B4430
:108F60000C2A93F8D86294F8D83203EB06239BB20C
:108F700001FB03F34FEA233303F54873A5F8D2321C
:108F800009D000F11903DBB25A1C2A442B4493F890
:108F9000D83292F8D832012385F8D432F0BC704729
:108FA0000023C2E630250020794B5B68C3F3080339
:108FB00070B5B3B9EFF311839BB9764A764D136858
:108FC000AC6800BF11688B42F9D1744A15684FF440
:108FD0007A7101FB05F2141BB4FBF5F401FB0343AA
:108FE00020E0EFF31181102383F312886A4C6C4A5E
:108FF000A5682368DE0344BF01231360654B48BFA7
:10900000A5681E681368C9B281F31188634A1468A1
:109010004FF47A71334401FB04F2521BB2FBF4F2B9
:1090200001FB03235F4CD4F80023C4F800339B1AE0
:10903000B3F5FA5F1AD9002384F8043384F80533B2
:10904000A1282FD0A22800F09C8094F8052394F842
:10905000FB320025A2B16A1C6119D5B2C0B29D4293
:1090600081F8D80284F804530CD070BD94F80453EE
:10907000002DE5D094F8052394F8FB32002AEAD1BC
:109080009D42F2D194F80633052B72D0062B03D102
:1090900094F8D9321E2B0DD0002384F8043384F8C1
:1090A000053370BD01221B2384F8052384F8FB32AD
:1090B0000025D0E76A1E002A4FF0000150DD084667
:1090C0000B462344013093F8D832DBB283EA010522
:1090D000ED074FEA530348BF83F08C0383EA510541
:1090E000EE074FEA530348BF83F08C0383EA9105F0
:1090F000ED074FEA530344BF83F08C03DBB283EAEE
:10910000D105EE074FEA530344BF83F08C03DBB273
:1091100083EA1115ED074FEA530344BF83F08C0334
:10912000DBB283EA5115EE074FEA530344BF83F0E5
:109130008C03DBB283EA9115ED074FEA530344BF7A
:1091400083F08C03DBB283EAD1155908EB0748BFE3
:1091500081F08C01C0B248BFC9B290420346B0DB77
:10916000224492F8D8328B4296D10320FFF794FD27
:1091700092E70020FFF790FD94F8D9321E2B8BD197
:1091800098E70122232384F8052384F8FB328FE734
:1091900000ED00E0BC8E002010E000E04C900020CC
:1091A000489000203025002007299DBF034B03EB8A
:1091B0008101B1F808030020704700BF302500206E
:1091C0001A4B93F8282332B193F82C230021A82AB4
:1091D00083F8281301D00020704793F83F23002A1A
:1091E000F9D110B4DFED126A03F54B7103F541704C
:1091F00003F54F72B4EE047ACC780B7903EB0423B9
:1092000007EE903AF8EEE77AB0EE666AA7EE876A64
:1092100002318A42FCEEC67A17EE903A40F8043FDB
:10922000EAD101205DF8044B704700BF30250020D3
:109230000080BBC310B5044610F0D6FB0F4BD3F82B
:109240004423C3F84403801A41F288329042E4B2C6
:1092500005D983F82C43012283F8482310BD93F8E5
:1092600048239918142A81F82C4303D1012283F84A
:10927000282310BD0132D2B2EEE700BF3025002016
:10928000034B03EB4101B1F84C03C008704700BF2A
:1092900030250020724B93F86C23002A00F0C28026
:1092A00070B493F86D43B3F86E5303EB44010020A0
:1092B00091F8736391F8742383F86C0342EA0622F1
:1092C000954202D0002070BC704793F87123012AA8
:1092D00000F0AA80812AF6D10320102C40F2A6804B
:1092E00093F8754393F8735393F8741393F87623B4
:1092F00041EA052142EA04221024A3F84C13A3F802
:109300004E2383F86D4393F8771393F87823032C57
:1093100042EA0122A3F85023D5D093F8791393F8A9
:109320007A23042C42EA0122A3F85223CBD093F8EB
:109330007B1393F87C23052C42EA0122A3F85423E3
:10934000C1D093F87D1393F87E23062C42EA0122C4
:10935000A3F85623B7D093F87F1393F88023072CF4
:1093600042EA0122A3F85823ADD093F8811393F871
:109370008223082C42EA0122A3F85A23A3D093F8AF
:10938000831393F88423092C42EA0122A3F85C2377
:1093900099D093F8851393F886230A2C42EA012288
:1093A000A3F85E238FD093F8871393F888230B2CB0
:1093B00042EA0122A3F8602385D093F8891393F839
:1093C0008A230C2C42EA0122A3F862233FF47BAFEC
:1093D00093F88B1393F88C230D2C42EA0122A3F807
:1093E00064233FF470AF93F88D1393F88E230E2C03
:1093F00042EA0122A3F866233FF465AF93F88F1386
:1094000093F89023102C42EA0122A3F868237FF4FA
:109410005AAF93F8911393F8922342EA0122A3F8EA
:109420006A2350E700207047104656E7002C3FF4AF
:109430004AAF93F8731393F87423012C42EA012284
:10944000A3F84C233FF43FAF93F8751393F87623BA
:10945000022C42EA0122A3F84E237FF454AF32E7F4
:1094600030250020654B5B68C3F3080370B4B3B9C3
:10947000EFF311839BB9624A624D1368AC6800BF79
:1094800011688B42F9D1604A15684FF47A7101FB7B
:1094900005F2141BB4FBF5F401FB034320E0EFF3EA
:1094A0001181102383F31288564C584AA56823680B
:1094B000DE0344BF01231360514B48BFA5681E68FB
:1094C0001368C9B281F311884F4A14684FF47A7156
:1094D000334401FB04F2521BB2FBF4F201FB032301
:1094E0004B49D1F898239A1AB2F57A6F17D891F8A8
:1094F0009C23C1F89833BAB1022A20D0242A91F8CB
:109500006D3378D901320233D2B25B009A4281F8CE
:109510009C231CDB01339A4265D070BC704700224B
:10952000C1F8983381F89C23A828F6D1002281F84D
:109530006C23A1F86E2391F86D33044603E0C4B2A6
:1095400081F86D4323468D1885F87043DAE7B1F84A
:109550006E33C0B283EA002000B20028B8BF41F2E7
:10956000210283B2B4BF82EA43035B009BB21804BA
:1095700046BF41F2210282EA43035B009BB21A0418
:1095800046BF41F2210282EA43035B009BB21E0404
:1095900046BF41F2210282EA43035B009BB21D04F5
:1095A00046BF41F2210282EA43035B009BB21C04E6
:1095B00046BF41F2210282EA43035B009BB21804DA
:1095C00046BF41F2210282EA43035B009BB21A04C8
:1095D00046BF41F2210282EA43035B009BB2A1F83D
:1095E0006E3370BC70470022012381F89C2381F800
:1095F0006C3370BC7047C4B2A5E700BF00ED00E05B
:10960000BC8E002010E000E04C900020489000202C
:1096100030250020F8B5124D95F8B52302B9F8BDF4
:10962000104B1C682368DE693EB1204605F5687161
:10963000B047002385F8B533F8BD05F56877BE1847
:1096400000E023689B68204698470028F9D02368EB
:1096500017F8011B1B6820469847B742F1D1E8E78D
:1096600030250020D066002003788B4210D9094BAA
:1096700003EB810193F8E833D1F8B8031BB900F587
:10968000777080B27047400800F5777080B27047FD
:1096900000207047302500202DE9F041D04C94F88F
:1096A000F00308B9BDE8F08194F8F113002384F8C1
:1096B000F033002900F03E8194F8F433C94D94F85A
:1096C00004245BB213F1630FB8BF95F9E431002AAB
:1096D00040D013F1310F80F2AE8113F1380F80F2D8
:1096E000CD8113F13D0F80F2CD8113F1420F80F255
:1096F000CD8113F1450F80F2CD8113F1470F80F238
:10970000CD8113F1490F80F2CD8113F14A0F00F0A2
:10971000CD8113F14B0F00F0CC8113F14C0F00F011
:10972000CC8113F14D0F00F0CB8113F15C0FB8BF6A
:10973000642680F2C881D4F80804AB4F00FB06F021
:1097400087FB0076C017C0EB661004EB820680B280
:10975000C6F8B80385F8E43194F8007494F801343D
:1097600094F8020494F803641B0443EA0763334348
:1097700043EA002303F0F020B0F1E02F00F0D180A5
:10978000102794F8120494F8F633D4F8146494F87B
:1097900018C43678034103F00F039E4210D90B2BF7
:1097A0000ED8002A40F0138194F8F68394F8F7E37A
:1097B00004EB83030CEA08080EEB082EC3F8B8E3A9
:1097C00094F8F833034103F00F039E4210D90B2B9A
:1097D0000ED8002A40F0FF8094F8F88394F8F9E35B
:1097E00004EB83030CEA08080EEB082EC3F8B8E379
:1097F00094F8FA33034103F00F039E4210D90B2B68
:109800000ED8002A40F00D8194F8FA8394F8FBE317
:1098100004EB830308EA0C080EEB082EC3F8B8E348
:1098200094F8FC33034103F00F039E4210D90B2B35
:109830000ED8002A40F0F98094F8FC8394F8FDE3F8
:1098400004EB83030CEA08080EEB082EC3F8B8E318
:1098500094F8FE33034103F00F039E4242D80D2FCC
:1098600024DD94F80034034103F00F039E4210D925
:109870000B2B0ED80AB19A420BD094F8008494F8BE
:1098800001E404EB83030CEA08080EEB082EC3F88E
:10989000B8E3102F0AD194F8023443FA00F000F034
:1098A0000F00B04202D20B2840F2AA80B1B394F864
:1098B000B5339BB394F8F6331B062FD410F094F80D
:1098C000D4F8EC3300F57A70C5F8EC011BB15A6896
:1098D000121A002A1CDB4549454AC5F8F03101201F
:1098E0000A60DFE60B2BBAD80AB19A42B7D094F8D7
:1098F000FE8394F8FFE304EB83030CEA08080EEB05
:10990000082EC3F8B8E3AAE75A68121A002AE3DA65
:1099100003F108019B68002BF6D1DDE70120BDE8CB
:10992000F08194F8F60300063FF52AAF31480C2782
:10993000036026E710F058F82A4D2F4B95F8E521E3
:10994000A3FB00135B0CA2B194F8F40394F8F52385
:10995000D2B2122A18BF012AC0B26AD002F0EF02B6
:10996000A2F1A202B2FA82F25209002A61D185F86C
:10997000E52194F8F42394F8F50300EB022080B27B
:10998000D4F80C6494F8042494F8F113D6B1B342DB
:109990003FF4E2AE9E1B012E14D19AB1B4F81074BC
:1099A000D4F80864DFF854C0C71B143F06FB07F661
:1099B0008CFB06C7F617A6EBE70604EB8207B6B2E8
:1099C000C7F8B863A4F81004C4F80C34C4E6934292
:1099D0007FF4EAAEF4E693427FF4FEAE08E700BF00
:1099E00030250020000000201F85EB511C2900209D
:1099F000E8010020CC1F002083DE1B4367666666FB
:109A000012B190423FF452AF94F8022494F8033418
:109A100004EB800002EA0C0C03EB0C23C0F8B83313
:109A200044E793427FF4F0AEFAE69A427FF404AF43
:109A30000EE780B2A4E76FF0300C0126244806F14F
:109A4000FF3800EB480E00EB46069EF801E0777801
:109A500010F91860A7EB0E07981B00FB07F0ACEBA2
:109A6000060690FBF6F0704440B2002801DA0026AA
:109A700061E66428A8BF642006465CE66FF0370CF8
:109A80000226DBE76FF03C0C0326D7E76FF0410CB2
:109A90000426D3E76FF0440C0526CFE76FF0460CA1
:109AA0000626CBE76FF0480C0726C7E79C4608263A
:109AB000C4E76FF04A0C0926C0E79C460A26BDE7BA
:109AC0009C460B26BAE76FF05B0C0C26B6E700BF8E
:109AD000DCB50308324B5B68C3F3080370B4B3B959
:109AE000EFF311839BB92F4A2F4D1368AC6800BF69
:109AF00011688B42F9D12D4A15684FF47A7101FB38
:109B000005F2141BB4FBF5F401FB034320E0EFF373
:109B10001181102383F31288234C254AA5682368FA
:109B2000DB0344BF012313601E4B48BFA5681E68BA
:109B30001368C9B281F311881C4A14684FF47A7112
:109B4000334401FB04F2521BB2FBF4F201FB03238A
:109B5000184AD2F81C14C2F81C345B1A41F288313E
:109B60008B420AD9C0B2012382F8F40382F8203470
:109B7000002382F8F03370BC704792F820340F2B2A
:109B8000F9D8D1180133DBB2C0B2102B81F8F4033D
:109B900082F82034ECD1012382F8F03370BC704796
:109BA00000ED00E0BC8E002010E000E04C900020B2
:109BB0004890002030250020036933F8110000EBA5
:109BC0008000C01000F55C7080B27047436993F864
:109BD0002320002A00F0C3802DE9F043714ADC7D88
:109BE00012780021162A04F0040604F0080583F810
:109BF000231000F0B680002E40F0BE801DB11A8CFC
:109C000042F001021A8493F80290997993F801C006
:109C10000269DE7893F80480DF7909F0070001F02B
:109C20000F014FEAC11E4CEA002106F03F06187AE8
:109C30001180997893F80AC0760146EAD106D9785E
:109C400056804FEA880848EA911193F805809E7B78
:109C500008F0010841EA8821918059794EEA5101C2
:109C6000D18007F07F07997993F807E03F0147EA31
:109C70001117597A1781400040EADE1001F0030104
:109C800040EA41205F7BD97A50810CF01F0C587A52
:109C90004FEA8C1C4CEA90009081187B93F80AC024
:109CA00007F0070740EA072006F03F065F7B1082B7
:109CB000C90041EA5C117601D18146EAD70151829F
:109CC000D97B93F80E8093F810E093F811C0DE7CF6
:109CD0009F7C587D890041EA98110EF0010E41EAFF
:109CE0008E21918293F812E0197C0CF00F0C760013
:109CF0004FEACC1C46EADE1E4CEA51011E7D93F869
:109D000011C0D18207F07F073F01997D47EA1C17F8
:109D100006F0030693F814C017834EEA46265F7DCB
:109D2000568314F0010F40F2147300F01F0014BFAB
:109D30001E46AD26800114F0020F4FEAC10140EA31
:109D40009C0008BFAD2341EA5711002D9083D183B9
:109D5000168453840CBF01200320BDE8F083104615
:109D6000704711491F8C0C8066B147F002021A84BB
:109D700012B29DB94A8046E71A8C4DB942F00202F0
:109D80001A8440E745B147F001021A8412B2F1E7A4
:109D900042F003021A8436E73AB2EBE747F00302D7
:109DA0001A84F3E7A58E0020A88E0020394B5B684B
:109DB000C3F30803F0B413BBEFF31183FBB9364AC6
:109DC000364E1368B56800BF1468A342F9D1344A0F
:109DD00016684FF47A7404FB06F2551BCA69B5FB8A
:109DE000F6F504FB03539A1A40F6AC54A2422DDC5C
:109DF00091F822406CB3182C37D9F0BC7047EFF3C0
:109E00001184102383F31288244D264AAE682B68F0
:109E1000DB0344BF012313601F4B48BFAE681F68BC
:109E20001368E4B284F311881D4A15684FF47A74FC
:109E300004FB05F23B44921BB2FBF5F204FB032347
:109E4000CA6940F6AC549A1AA242D1DD002281F8C8
:109E500022200F28D1D10122CB61087081F8222065
:109E6000002381F82330F0BC7047631CDBB2192B50
:109E700081F822300855F3D10B4B1B78162B08BF05
:109E80000A4B4FF0010081F8230008BF9A80F0BC14
:109E9000704700BF00ED00E0BC8E002010E000E045
:109EA0004C90002048900020A58E0020A88E002015
:109EB0000A4BDFED0B6ADFED0B7A03EB8101D1F882
:109EC000243407EE103AB8EE477AE7EE267AFCEE35
:109ED000E77A17EE903A98B2704700BF302500201D
:109EE00001F11F3F00405C44714A92F8643433B181
:109EF00092F86A340021162B82F8641401D00020F5
:109F0000704792F86934022BF0B440F2CE8002F52B
:109F10008D60184402F26A41D32311F8014F634067
:109F200013F0800F4FEA430318BF83F0D503DBB271
:109F300013F0800F4FEA430318BF83F0D503DBB261
:109F400013F0800F4FEA430318BF83F0D503DBB251
:109F500013F0800F4FEA430318BF83F0D503DBB241
:109F600013F0800F4FEA430318BF83F0D503DBB231
:109F700013F0800F4FEA430318BF83F0D503DBB221
:109F800013F0800F4FEA430318BF83F0D503DBB211
:109F900013F0800F4FEA430318BF83F0D5038842C4
:109FA000DBB2BAD192F88114994202D00020F0BC01
:109FB000704792F8700492F86F6492F8741492F8F3
:109FC000783492F87C4492F86C54B2F86CC4D2F8AD
:109FD0006C7400F00F00C00140EA560001F01F0150
:109FE00092F87364C2F83004890141EA960103F0E3
:109FF0003F0392F8776492F87B04C2F83C145B014B
:10A0000043EAD60392F86B14C2F8483404F07F0494
:10A01000B2F87034D2F87064240105F0070544EA00
:10A02000101041EA0521C3F30A13C2F85404B2F830
:10A030007454C2F82414B2F87644D2F87804B2F812
:10A040007A14C2F83434D2F87C34C0F38A10C1F3E5
:10A050004A01C3F3CA13CCF3CA0CC7F38A37C6F359
:10A06000CA366D09C4F30A04C2F84C04C2F850148D
:10A07000C2F828C4C2F82C74C2F83864C2F840543C
:10A08000C2F84444C2F8583492F8803492F87F04FD
:10A09000B2F87E14DB0043EA5013C1F38A01C2F820
:10A0A0006034C2F85C14012081E7D3237AE700BF53
:10A0B00030250020944B5B68C3F3080370B443BBA6
:10A0C000EFF311832BBB914A914D1368AC6800BF2D
:10A0D00011688B42F9D18F4A15684FF47A7101FBF0
:10A0E00005F2141B8C4AB4FBF5F401FB0343D2F8D0
:10A0F000A81401F24C41994233D201240021C2F844
:10A10000A83482F8680482F8AC4482F8641470BC05
:10A110007047EFF31181102383F312887C4C7F4A40
:10A12000A5682368DE0344BF01231360774B48BF53
:10A13000A5681E681368C9B281F31188754A14684E
:10A140004FF47A7101FB04F23344521BB2FBF4F278
:10A1500001FB0323704AD2F8A81401F24C41994242
:10A16000CBD392F8AC140029C7D002298ABF92F849
:10A170006944052402348C42C9DD4B1CDBB29C428D
:10A180001144D4BF0125002582F8AC3481F868045D
:10A1900082F86454BBDC92F86A540023162D82F8CE
:10A1A000AC34B4D06B00290648BF83F0D503DBB2D2
:10A1B00013F0800F4FEA430318BF83F0D503DBB2DF
:10A1C00013F0800F4FEA430318BF83F0D503DBB2CF
:10A1D00013F0800F4FEA430318BF83F0D503DBB2BF
:10A1E00013F0800F4FEA430318BF83F0D503DBB2AF
:10A1F00013F0800F4FEA430318BF83F0D503DBB29F
:10A2000013F0800F4FEA430318BF83F0D503DBB28E
:10A2100092F8690413F0800F4FEA430318BF83F0EC
:10A22000D5030228DBB247D93D490844023111F871
:10A23000016F734013F0800F4FEA430318BF83F0A0
:10A24000D503DBB213F0800F4FEA430318BF83F04E
:10A25000D503DBB213F0800F4FEA430318BF83F03E
:10A26000D503DBB213F0800F4FEA430318BF83F02E
:10A27000D503DBB213F0800F4FEA430318BF83F01E
:10A28000D503DBB213F0800F4FEA430318BF83F00E
:10A29000D503DBB213F0800F4FEA430318BF83F0FE
:10A2A000D503DBB213F0800F4FEA430318BF83F0EE
:10A2B000D5038142DBB2BAD1224492F867249A4294
:10A2C0007FF425AF7A2D08D07C2D06D0282D7FF481
:10A2D0001EAF144B01221A7019E7134A136E572B45
:10A2E0003FF715AF114912480D684C680821995481
:10A2F00013440121C3F80150C3F80540136E0170E7
:10A300000933136603E700BF00ED00E0BC8E0020B8
:10A3100010E000E04C900020302500204890002004
:10A3200098290020C4660020D46600209D290020C2
:10A33000C5660020F8B54B4E4B4C33782BB1D4F8A2
:10A34000B03483429CBF00233370484B1B68D9074D
:10A350000BD594F8B43494F8B5249A4237D194F8D4
:10A36000B6342BBB94F8F004F8BD9A0447D4D4F863
:10A37000DC3405463E489847C3071BD500F002026F
:10A38000D4F8B8343B49002A1D4413BF01270027E5
:10A3900001220022012300F0040081F8F4713270E0
:10A3A000C4F8B05484F8B63410B1012384F8F03402
:10A3B0000120F8BDD4F8EC34ED1A002D00F00400B3
:10A3C00015DD012384F8B6340028F1D0EDE7D4F888
:10A3D000B824284984F8B53410440123002233708E
:10A3E000C4F8B00481F8F42194F8B634B9E794F8CD
:10A3F000B6340028B5D0012284F8F024B1E7B4F8CF
:10A40000BC340BBBB4F8BE34F3B9B4F8C034DBB918
:10A41000B4F8C234C3B9B4F8C434ABB9B4F8C63470
:10A4200093B9B4F8C8347BB9B4F8CA3463B9B4F892
:10A43000CC344BB9B4F8CE3433B9B4F8D0341BB9FA
:10A44000B4F8D234002B8AD0D4F8B824094994F84F
:10A45000B634104400250122C4F8B00481F8F45148
:10A4600032707EE7CD5D002030250020089C002062
:10A47000042A0020000000200020704700207047C0
:10A4800001207047024B03EB4101B1F8F40470471F
:10A4900030250020044B93F8180518B1002283F8EA
:10A4A00018250120704700BF30250020024B03EB28
:10A4B0008101B1F81C0570473025002003788B42DC
:10A4C00083BF034B03EB4101B1F8540500207047F3
:10A4D0003025002038B5394C05460FF085FAD4F800
:10A4E000A835C4F8A805C01AB0F57A7F1CDD002392
:10A4F000282284F8AC3584F8AE3584F8AF3584F87A
:10A50000AD253D2D42D03E2D0DD12D4AC4F8B025AC
:10A51000012384F8AE350123157084F8AC3594F826
:10A52000AD259A4220D038BD94F8AC25002AE8D059
:10A53000531CDBB2D4F8B01584F8AC35062B8D541F
:10A54000EDD194F8AE35012B27D094F8AF35012B1F
:10A5500027D00023282284F8AC3584F8AE3584F85F
:10A56000AF3584F8AD2538BD94F8AE35012B04BF66
:10A57000022384F8AE3594F8AF35012B15D00022B4
:10A58000282384F8AC2584F8AD3538BD0D4AC4F8CD
:10A59000B025012384F8AF35BDE78B78282BD4D8BC
:10A5A000F1E78B78092BD4D8EDE7022384F8AF3597
:10A5B0000FF01AFAC4F8B405E1E700BF3025002017
:10A5C000B02A0020A42A002030B40246002305252A
:10A5D0001E2400E00232032BD4BF0021012100F829
:10A5E00013100133042B04D0122B5470F2D130BC61
:10A5F00070475570EEE7034B036043608360C360B0
:10A60000704700BFE803D007024B03EB4101B1F8EC
:10A61000BC04704730250020024B03EB4101B1F828
:10A62000BC0470473025002030B4264C94F8AE3579
:10A63000022B02D0002030BC704794F88255EDB157
:10A64000013D04F2815353FA85F504F5B060002210
:10A6500010F8013B534083EA0313DBB2120AD9001E
:10A6600042EA0322854281EA131382EA0302EFD110
:10A6700022B1002084F8AE0530BC7047B4F88035B4
:10A680005BBA9BB243F60162934209D043F6036280
:10A69000934205D0002384F8AE35012030BC7047CA
:10A6A000094AA2F12E0102F12005D07993790232F4
:10A6B00003EB0023C3F3CC03AA4221F8023FF4D1F9
:10A6C000E8E700BF30250020B02A00204E4B5B6831
:10A6D000C3F3080370B4B3B9EFF311839BB94B4ACA
:10A6E0004B4D1368AC6800BF11688B42F9D1494AE1
:10A6F00015684FF47A7101FB05F2141BB4FBF5F4F5
:10A7000001FB034320E0EFF31181102383F3128850
:10A710003F4C414AA5682368DB0344BF0123136013
:10A720003A4B48BFA5681E681368C9B281F3118807
:10A73000384A14684FF47A71334401FB04F2521B17
:10A74000B2FBF4F201FB0323344AD2F8B815591ACC
:10A75000B1F5FA7F14D90021C2F8B83582F8BC15DA
:10A7600082F8BD15C3B2042B26D0202B24D092F83A
:10A77000C01509B9552838D0814216D1002109E009
:10A7800092F8BD1599B992F8BC15C2F8B835C3B2A4
:10A790000029E8D092F8BE0554180138814284F8A7
:10A7A000C8351DD0013182F8BC1570BC7047013925
:10A7B00082F8BD1570BC7047002102244FF6FF706F
:10A7C00082F8C445A2F8C2055418581E814282F886
:10A7D000C03582F8BE3582F8BF1584F8C835E1D19E
:10A7E000012382F8E83570BC704701241F2582F8E8
:10A7F000C005A2F8C21582F8C83582F8BF4582F8B4
:10A80000C44582F8BE55CDE700ED00E0BC8E0020C7
:10A8100010E000E04C9000204890002030250020FF
:10A820000D49B1F8E93530B508224AF2010580EA50
:10A83000030414F0010F4FEA530318BF6B4002F1F9
:10A84000FF3218BF9BB212F0FF024FEA5000EED168
:10A85000A1F8E93530BD00BF3025002070B540F2C9
:10A86000014444EA80040FF0BFF80C4E054696F808
:10A87000FC3506EB8303D3F8EC05E3070AD50FF0AC
:10A8800021FD640805F1340507D00FF0ADF88542CD
:10A89000FBD8ECE70FF010FDF3E770BD302500208A
:10A8A00038B5124CA17860782BF0ECFD2378104A73
:10A8B000013B32F813300F4A13800F4A12889A4234
:10A8C00002D00E4B02221A700D4D2BF099FD6078CC
:10A8D000A17823786970AB70287021F050FEA880B1
:10A8E00010F010FA4FF0FF3038BD00BF000000201C
:10A8F00020E30308C2B20020C4B20020C6B2002088
:10A90000B0B2002008B5074B997819B901229A70A6
:10A91000002008BD4B1E5942594149202BF0D7FD5C
:10A92000F6E700BF3025002010B5044B044C1A8810
:10A930000449204611F02AF9204610BD32B3002008
:10A940002D2B002015E4030810B5054B05491A8985
:10A9500003F20264204611F019F9204610BD00BF31
:10A960003025002015E4030808B5044BD88840F4CE
:10A9700000402BF0CDFF002008BD00BF3025002097
:10A9800070B5364B86B01A788DF80C205A788DF851
:10A990000D2000269A78CDF80E608DF80E209A884A
:10A9A000ADF810201A7ACDF8126003AD8DF814209E
:10A9B00095E807006C4603C42280294A1278022ACF
:10A9C0001C4630D1274B1878274B8DF8000019789A
:10A9D0008DF8011021F0D3FD244BADF8040093F85D
:10A9E0000736E3B905202BF03FFF214B0A221E78E2
:10A9F0008DF802606946284630F07CF958B19DF820
:10AA0000003023709DF801306370BDF80430A670EB
:10AA1000A38010F077F94FF0FF3006B070BD06202C
:10AA20002BF022FFE1E7134B1B7863B90D4B18782D
:10AA30000D4B8DF8000019788DF8011021F09FFD65
:10AA4000ADF80400D1E730462BF00EFF0A4B8DF82D
:10AA500000601B88ADF80430C7E700BFB0B200202B
:10AA60002AB300202CB300202DB300203025002075
:10AA700030B3002034B3002032B3002008B50C4BB3
:10AA800093F90030012B0B4B04D1002283F80726E9
:10AA9000002008BD93F8070618B9012283F807269D
:10AAA000F6E7012818BF02202BF0DEFEF0E700BF1A
:10AAB000382000203025002070B5124C124B94F93C
:10AAC00000401A78012C05460E4605D1012A01D016
:10AAD00001221A70002070BD012A03D100202BF042
:10AAE000C3FEF7E7022AF3D1084B002483F8074698
:10AAF000FFF7C4FF064B314628461C70FDF754FB98
:10AB0000E8E700BF382000202AB3002030250020CD
:10AB100034B3002008B5074B93F90020064B12B957
:10AB20001A70002008BD1A780AB90122F8E7FDF76B
:10AB3000E3FAF6E7382000202CB3002008B5074BD5
:10AB400093F90020064B12B91A70002008BD1A783C
:10AB50000AB90122F8E7FDF7CFFAF6E7382000201E
:10AB60002DB3002008B50A4B93F8732042B193F837
:10AB700074203AB1D3F8082642F48032C3F808268C
:10AB8000002008BD4FF480300FF042FEF8E700BF10
:10AB90003025002008B5064B93F8760028B1054B08
:10ABA00001385978C0B207F07DFB002008BD00BF16
:10ABB00030250020049A002008B5064B93F8750054
:10ABC00028B1054B01381978C0B217F0B1FB00204D
:10ABD00008BD00BF30250020049A002038B5144D70
:10ABE00095F880404E2303FB045495F8773184F8A0
:10ABF000B93095F8783184F8B8300E4B186817F0F2
:10AC000013FD95F8793184F8973095F87A3184F806
:10AC1000983095F87B3184F89930B5F87C31A4F8F8
:10AC2000B630B5F87E31A4F8B430002038BD00BF8E
:10AC3000302500208865002038B5094B094C18687C
:10AC400000231A5DC254E118C2184D7855700333C1
:10AC500089789170092BF4D117F0E6FC002038BDFB
:10AC6000886500202327002008B5054B93F8800154
:10AC70000138C0B283F8F20107F02EFB002008BDB6
:10AC80003025002008B5054B93F876010138C0B295
:10AC900083F880000DF0C8FC002008BD302500209E
:10ACA00010B5054C94F880000DF0BEFC94F8F2014C
:10ACB00007F012FB002010BD3025002070B4154AAB
:10ACC00092F9104292F81152214491FBF4F304FBE3
:10ACD0001311D2F8084282F80C12CBB2A1686B4370
:10ACE000142404FB03130021C2F80C3682F810165A
:10ACF0001E790E2ECCB201F1010109D1AC422346DE
:10AD000028BF2B46013B82F8103670BC0FF072BC96
:10AD10001433EDE73025002038B5164BD3F8082260
:10AD2000526805461C46BAB994F8110698B1013824
:10AD3000C0B284F8110604EBC00000F2146003C82E
:10AD40000D4B83E80300FDF791FC284694F90C12A3
:10AD5000FFF7B4FF002038BD93F90D02D3F80C368D
:10AD600000EB800003EB800090470028DCDA4FF016
:10AD7000FF30F0E7302500203827002038B50546A1
:10AD80000C4631B31C4BD3F808228A4223D093F8E7
:10AD90001126511C83F8111603F5027103C903EB48
:10ADA000C20202F2146282E803000022C3F80842E1
:10ADB00083F80D22236833B19847013003D1284628
:10ADC000BDE83840A8E7FDF751FC00212846FFF711
:10ADD00075FF002038BD93F90D1293F8112291FBF5
:10ADE000F2F402FB141283F80D22FDF73FFC21461A
:10ADF0002846FFF763FFECE73025002070B5184BBD
:10AE00009B78012B23D12CF093FA0446C0B115494D
:10AE10001548164D10F0BAFE14F07EFD144B9C68D8
:10AE2000820AC2EB94242B461249134810F0AEFE5E
:10AE30002B4622460F491148BDE8704010F0A6BECF
:10AE40000F490948094D10F0A1FE2246EBE70D49D4
:10AE500005480D4D002410F099FE2246E3E700BF9F
:10AE6000CE7500201CE40308942B002019E403088D
:10AE70004820002028E403089C2B0020A42B00205D
