:020000040800F2
:10000000F0FF001035B1030849C502085D860008FD
:1000100065B2030865B2030865B20308000000007A
:1000200000000000000000000000000055C50208AC
:1000300051C50208000000004DC5020869F600081D
:1000400065B2030865B2030865B2030865B2030828
:1000500065B2030865B20308510003087D01030877
:100060004101030805010308C9000308FD3803081E
:10007000ED380308DD380308CD380308B938030824
:10008000A53803089138030865B2030865B2030870
:1000900065B2030865B2030865B203088D00030862
:1000A00065B203088997000865B2030849980008FB
:1000B00065B2030865B20308C996000865B2030873
:1000C00065B2030865B2030865B2030865B20308A8
:1000D00065B2030861F90008C5F8000829F80008AE
:1000E0001700030865B20308BDED02087D940008FF
:1000F0004995000865B20308099600087D38030891
:1001000065B2030865B2030865B2030865B2030867
:100110008DF70008F1F60008893C02086D3C0208E2
:100120006938030855380308712E0308413803085D
:100130002D38030865B2030865B2030865B20308E9
:1001400065B2030865B2030865B2030821D9020845
:100150001938030805380308F137030865B20308A6
:1001600065B2030865B2030865B2030865B2030807
:1001700065B2030865B2030865B2030865B20308F7
:1001800065B2030865B20308DCAC0300010000009F
:100190002C0010009438002084380020000000005B
:1001A000792801082B002400C8380020A43800203A
:1001B0000000000049280108290064009C37002045
:1001C000EC380020000000000000000023001000B8
:1001D0005832002050390020000000006508010856
:1001E0002800100070390020603900200000000055
:1001F0004D08010814000200483700208039002013
:1002000000000000040600080C106000F42D00201F
:1002100084390020000000001D2C02080E20F00090
:10022000DE2C0020E439002000000000C98701080E
:100230001300040024330020D43A00200000000002
:1002400008060008010104005E2C0020D83A0020B6
:10025000000000000000000000010400562C0020F7
:10026000DC3A0020000000000C0600080201030038
:10027000512C0020E03A002000000000492C020828
:100280000902010024350020E43A002000000000AB
:100290001006000801020500662C0020E83A002044
:1002A000000000003100010800020500342A00208F
:1002B000F03A0020000000000000000019000500D6
:1002C0007843002098440020000000001406000835
:1002D000270004000C430020A04400200000000080
:1002E0001A0600081010020080430020A4440020D9
:1002F000000000001E0600080120080058420020EF
:10030000A844002000000000200600081A000A008F
:100310003C420020B04400200000000028060008F5
:10032000F82106009C3B0020BC4400200000000097
:100330003206000803123300693B002062440020AB
:10034000000000003806000825005A00B03B0020DD
:10035000084400200000000000000000F6110C001E
:1003600070420020FC430020000000006C060008E2
:100370001600080018470020B447002000000000C5
:100380007806000802000C000C470020DC47002023
:10039000000000000000000008020900664700207D
:1003A000E8470020000000000D2D0208F7010600BC
:1003B00060470020F447002000000000800600088D
:1003C0000A020A0038460020FC4700200000000016
:1003D0008606000803010A009C850020089A002078
:1003E0000000000090060008F90104009C82002033
:1003F000149A00200000000079EE0208FD011E00A2
:1004000078820020189A00200000000009EE0208FF
:1004100006101200E8850020389A00200000000035
:10042000F9870108FB010100DC8100204C9A0020C3
:1004300000000000912C0208FC010900A8800020A7
:10044000509A002000000000D12C02081102080080
:100450007C8000205C9A0020000000009A060008C2
:100460001212040074800020649A00200000000032
:10047000A206000812200D00209B0020689A002090
:1004800000000000A606000818202C00CC7F0020E9
:10049000789A002000000000654C01080D0034002F
:1004A000F87F0020A49A0020000000007D2E0208A2
:1004B000FA010200947F0020D89A0020000000007A
:1004C000B1F2020802020300E0740020DC9A00206E
:1004D00000000000000000000C020100309B002022
:1004E000E09A002000000000B4060008FE010900A8
:1004F000D0850020E49A002000000000392D020879
:100500000A103000F4760020F09A0020000000006D
:10051000B6060008040040000CA00020CC9F00207C
:1005200000000000000000001E00040070A4002075
:10053000D4B8002000000000E606000822000C00ED
:10054000B8B70020D8B8002000000000EA06000874
:100550001B00F40068A10020E4B8002000000000A7
:100560000D5203080E02020070AA0020D8B9002024
:1005700000000000F60600082F0011009CB80020C3
:10058000DCB9002000000000F80600080510060095
:10059000C8B80020F0B90020000000000A070008D9
:1005A000F5216E00E0A00020F8B900200000000056
:1005B000C93E030826000E0078BA002068BA002061
:1005C00000000000A13E03080B20100050A10020F5
:1005D00088BA002000000000100700081F101C004F
:1005E000C0A0002098BA00200000000020070008EA
:1005F00005020100C8A60020B4BA002000000000D7
:100600003C070008030000000804451090010000AA
:100610002600000000002801000020030000000563
:10062000E8036400040A00017E05EA05B40532000F
:1006300000000200000000000000000000000000B8
:1006400000000000000000000000000000000000AA
:10065000000000000000000000000000000000009A
:100660000000000000000000000001000000000089
:100670000000000000000000C40900001901282843
:100680003F000100000000004A01B400D60126002E
:10069000040101006C1600000000000000000101D0
:1006A0000101FFFFFFFF0000000100000548455366
:1006B00050000000010000300400015A000000005A
:1006C0000000000000000000000002000000200008
:1006D000AC0D5800AC0D5800C409580096009600A7
:1006E00096001400000000000100C800141E010064
:1006F00064002C0128000000000000000000000041
:1007000000000000000000000000200001010000C7
:100710002B21231E64010100000001000A012900B1
:1007200000000000000001000000050000000000C3
:1007300000000000000000000000000000010102B5
:10074000FFFFFF0000E001010101000000210201A4
:100750000800000000840100203CFB0308000000AA
:1007600000000000000000000000000000943104C0
:100770000800000000000000002802002004000023
:1007800000C0FA03080D000000E53601084C1B000C
:10079000200000000050F403080D0000000D370198
:1007A00008401B002000000000C8F50308080000F6
:1007B0000000000000341B002004000000BCF40313
:1007C000080D000000D5020108281B0020000000D1
:1007D0000078F50308030000004D3901081C1B00D8
:1007E00020000000004CFB0308030000004D39010D
:1007F00008101B00200000000064F1030801000045
:1008000000000000000000000000000000000000E8
:10081000000E0000000000000000000000000000CA
:10082000003CFB0308000000000000000000000086
:1008300000000000009431040800000000000000E7
:100840000028020020040000006CFA0308030000E6
:1008500000F9340108041B002008000000BCF40368
:10086000080D000000D5020108281B002000000030
:100870000078F50308030000004D3901081C1B0037
:1008800020000000004CFB0308030000004D39016C
:1008900008101B00200000000064F10308010000A4
:1008A0000000000000000000000000000000000048
:1008B000000E00000000000000000000000000002A
:1008C0000054FB03080000000000000000000000CE
:1008D0000000000000943104080000000000000047
:1008E00000280200200400000074FA03080300003E
:1008F000004D390108581B00200000000064F1037E
:1009000008010000000000000000000000000000DE
:1009100000000000000E00000000000000000000C9
:10092000000000000020700020702D7200D6010031
:10093000008D180108000000000000000001080000
:1009400000000101010000000000000000000000A4
:1009500000C0160020FFFFFFFFFA000000010000AA
:1009600000010000002D202D2D202D2D2D2D202DBE
:100970002D2D00000000000000000000000000001D
:10098000000000000034F103083CF103085CF103AF
:10099000080000000000000000000000000000004F
:1009A00000B9F00308040000006D340108000000E5
:1009B000000000000064F1030801000000000000D6
:1009C000000000000000000000000000000E000019
:1009D0000000000000000000000000000056A4001D
:1009E000200100C4090000000054A400200100C43C
:1009F000090000000052A400200100C4090000000A
:100A00000050A400200100C409000000004CA40014
:100A1000200100C409000000004EA400200100C411
:100A200009000000004AA400200100C409000000E1
:100A30000048A400200100C40900000000782C0038
:100A4000200100C80001000000762C002032003098
:100A50007532000000742C0020055A0500712C002E
:100A60002000FF0100732C0020010000004802005C
:100A7000206F2C0020020000002CEE0308702C00D8
:100A80002000FF0100722C0020010000004802003D
:100A9000206E2C0020020000002CEE0308642C00C5
:100AA0002080C1803E05000000622C002080C180B3
:100AB0003E050000005C2C002080C1803E05000047
:100AC000005A2C002080C1803E05000000542C00FC
:100AD0002000FF0100502C00200A3201004F2C00A2
:100AE000200400000074C203084E2C002002000005
:100AF0000088C2030800000000000000005002004F
:100B000020B89900209CFF2C01000000000A000082
:100B1000200A00000094C20308442C0020E0150CB9
:100B200017000000000C0000200800000038EA0355
:100B3000080B000020050000008CC30308462C00B1
:100B40002002000000ACC20308682E00200100FF54
:100B50007F01000000672E002002000000B8C203E1
:100B600008D32C002003000000C8C20308D22C00C8
:100B70002003000000C8C20308D62D00200000F4A6
:100B80000101000000D42D00200000F4010100004C
:100B900000D22D00200000F40101000000D02D0043
:100BA000200000F40101000000CE2D002000FF0114
:100BB00000F22D0020E803D0070A000000F02D000D
:100BC00020006401000A000000E52D0020006401FF
:100BD00000E42D002000640100EC2D0020006401E1
:100BE000000A000000EB2D0020006401000A000054
:100BF00000EA2D0020006401000A000000EF2D0033
:100C000020006401000A000000EE2D0020006401B5
:100C1000000A000000ED2D0020006401000A000021
:100C200000E92D002000FF01000A000000E82D006F
:100C30002000FF01000A000000E72D002000FF0156
:100C4000000A000000DA2C00200000F4010100007E
:100C500000D82C00200000F40101000000D62C0078
:100C6000200000F40101000000D42C00200000F45A
:100C70000101000000E02D00201400E80301000045
:100C800000DE2D0020E803307501000000DD2D009E
:100C90002000C80100DC2D002000C80100DB2D0071
:100CA0002000C80100DA2D0020016401000A0000C4
:100CB00000D92D002000FF01000A0000005D2E0079
:100CC0002000C801005C2E002000C801005B2E003F
:100CD0002000C801005A2E002000C80100592E0033
:100CE0002000C80100582E002000C80100572E0027
:100CF0002000C80100562E002000C80100552E001B
:100D00002000C8010094F10308000000000000006A
:100D1000000000000000000000A4F103080900002A
:100D20000000000000F402002004000000ACF10309
:100D3000080900000000000000E802002004000094
:100D40000044F803080900000000000000DC020075
:100D50002004000000C4EF030809000000000000A8
:100D600000D002002004000000B4F10308090000D4
:100D70000000000000C402002004000000BCF103D9
:100D8000080900000000000000B802002004000074
:100D900000C4F103080900000000000000AC0200DC
:100DA0002004000000CCF10308090000000000004E
:100DB00000A00200200400000064F103080100000C
:100DC0000000000000000000000000000000000023
:100DD000000E000000000000000000000000000005
:100DE0000030F303080000000000000000000000D5
:100DF0000000000000B0220408070000000000000E
:100E000000180300200000000040F3030808000061
:100E100000000000000C030020000000004CF30361
:100E2000080800000000000000000300200000008F
:100E30000064F10308010000000000000000000051
:100E40000000000000000000000E00000000000094
:100E500000000000000000000054F3030800000040
:100E60000000000000000000000000000064F30328
:100E7000080D0000000000000054030020000000E6
:100E8000006CF303080D00000000000000480300A0
:100E9000200000000074F3030807000000000000B9
:100EA0000040030020000000007CF303080D000058
:100EB0000000000000340300200000000084F30361
:100EC000080D0000000000000028030020000000C2
:100ED000008CF3030807000000000000002003005E
:100EE000200000000064F103080100000000000081
:100EF000000000000000000000000000000E0000E4
:100F00000000000000000000000000000094F30357
:100F100008000000000000000000000000000000C9
:100F200000B02204080C000000000000007A2C0031
:100F30002000000000A8F303080C000000000000DF
:100F4000007C2C002000000000B8F303080C000017
:100F50000000000000B22C002000000000C8F303D5
:100F6000080C00000000000000A62C00200000007B
:100F700000DCF303080C000000000000007E2C00E1
:100F80002000000000E8F303080C0000000000004F
:100F900000802C002000000000F0F303080C00008B
:100FA0000000000000822C00200000000004F40378
:100FB000080C00000000000000842C00200000004D
:100FC000000CF403080C00000000000000862C0058
:100FD000200000000014F403080C000000000000D2
:100FE00000C42C0020000000002CF403080C0000BA
:100FF0000000000000882C00200000000038F403EE
:10100000080C000000000000008A2C0020000000F6
:101010000040F403080C000000000000008C2C00CD
:1010200020000000004CF403080C00000000000049
:10103000008E2C00200000000058F403080C000073
:101040000000000000902C00200000000064F40369
:10105000080C00000000000000922C00200000009E
:101060000070F403080C00000000000000942C0045
:1010700020000000007CF403080C000000000000C9
:1010800000962C00200000000088F403080C0000EB
:101090000000000000AA2C00200000000090F403D3
:1010A000080C00000000000000A82C002000000038
:1010B0000098F403080C00000000000000B62C00AB
:1010C0002000000000A4F403080C00000000000051
:1010D00000B82C002000000000B0F403080C000051
:1010E0000000000000BE2C00200000000070F20391
:1010F000080C00000000000000982C0020000000F8
:1011000000BCF403080C00000000000000A02C004C
:101110002000000000C4F403080C000000000000E0
:10112000009A2C002000000000D0F403080C0000FE
:1011300000000000009C2C002000000000DCF403F4
:10114000080C000000000000009E2C0020000000A1
:1011500000E4F403080C00000000000000A22C00D2
:101160002000000000F0F403080C00000000000064
:1011700000AC2C002000000000F8F403080C000074
:101180000000000000A42C00200000000004F50373
:10119000080C00000000000000B42C00200000003B
:1011A0000010F503080C00000000000000AE2C0049
:1011B000200000000018F503080C000000000000EB
:1011C00000B02C00200000000020F503080C0000F7
:1011D0000000000000BA2C00200000000028F503E9
:1011E000080C00000000000000BC2C0020000000E3
:1011F0000064F1030801000000000000000000008E
:101200000000000000000000000E000000000000D0
:1012100000000000000000000030F503080000009E
:10122000000000000000000000000000003CF5038A
:10123000080D00000000000000AC030020000000CA
:101240000044F503080D00000000000000A00300AA
:1012500020000000004CF50308070000000000001B
:1012600000980300200000000058F5030807000064
:101270000000000000900300200000000064F5035F
:1012800008090000000000000084030020000000A6
:101290000070F5030809000000000000007803005A
:1012A00020000000007CF503080900000000000099
:1012B000006C030020000000008CF503080900000A
:1012C0000000000000600300200000000064F10343
:1012D0000801000000000000000000000000000005
:1012E00000000000000E00000000000000000000F0
:1012F0000000000000A0F50308000000000000004E
:10130000000000000000000000B0F5030805000028
:101310000000000000D12C00200000000064F10358
:1013200008010000000000000000000000000000B4
:1013300000000000000E000000000000000000009F
:101340000000000000B8F5030800000000000000E5
:1013500000000000000000000094310408000000BC
:101360000000000000501F002004000000C4F5032E
:10137000080D000000D13401080004002000000026
:1013800000C0FA03080D000000D9010108F40300B1
:10139000200000000050F403080D000000BD010112
:1013A00008E803002000000000C8F503080800005A
:1013B0000000000000DC03002004000000BCF40377
:1013C000080D00000007010108D003002000000004
:1013D00000D0F503080900000000000000C403006D
:1013E000200400000078F50308030000004D3901D7
:1013F00008B80300200000000064F10308010000A9
:1014000000000000000000000000000000000000DC
:10141000000E0000000000000000000000000000BE
:1014200000D8F503080000000000000000000000E4
:101430000000000000E8F503080D000000000000B7
:10144000001804002000000000F0F503080A000066
:1014500000000000008133002000000000FCF503C4
:10146000080A00000000000000893300200000008E
:101470000004F603080A0000000000000091330099
:1014800020000000000CF603080800000000000027
:10149000000C0400200000000014F6030804000003
:1014A00000E53A0108000000000000000064F103BC
:1014B0000801000000000000000000000000000023
:1014C00000000000000E000000000000000000000E
:1014D000000000000020F6030800000000000000EB
:1014E00000000000000000000034F603080D0000BA
:1014F0000000000000300400200000000044F6035B
:101500000804000000893701080000000000000006
:10151000004CF603080D0000000000000024040049
:10152000200000000060F603080400000065370199
:1015300008000000000000000064F1030801000042
:10154000000000000000000000000000000000009B
:10155000000E00000000000000000000000000007D
:101560000068F60308000000000000000000000012
:1015700000000000007CF6030807000000000000E7
:10158000006C0400200000000088F603080800003A
:101590000000000000600400200000000094F6033A
:1015A00008080000000000000054040020000000B3
:1015B00000A0F60308080000000000000048040036
:1015C0002000000000ACF603080800000000000046
:1015D000003C0400200000000064F103080100004A
:1015E00000000000000000000000000000000000FB
:1015F000000E0000000000000000000000000000DD
:1016000000B8F603080000000000000000EB010035
:101610002000000000C4F603080B000000000000DA
:1016200000FC04002000000000D0F603080B0000BE
:101630000000000000F004002000000000DCF603C1
:10164000080B00000000000000E40400200000007F
:1016500000E8F603080B00000000000000D80400BA
:101660002000000000F4F603080B0000000000005A
:1016700000CC0400200000000000F703080B00006D
:101680000000000000C0040020000000000CF70370
:10169000080B00000000000000B40400200000005F
:1016A0000018F703080B00000000000000A8040069
:1016B000200000000024F703080B000000000000D9
:1016C000009C0400200000000030F7030807000021
:1016D0000000000000940400200000000038F70320
:1016E0000807000000000000008C0400200000003B
:1016F0000044F703080B0000000000000080040015
:10170000200000000050F70308080000000000005F
:1017100000740400200000000064F10308010000D0
:1017200000000000000000000000000000000000B9
:10173000000E00000000000000000000000000009B
:10174000005CF7030800000000000000000000003B
:10175000000000000070F70308080000000000000F
:10176000002C050020000000007CF70308080000A2
:101770000000000000200500200000000088F703A2
:101780000808000000000000001405002000000010
:101790000094F7030808000000000000000805009E
:1017A000200000000064F1030801000000000000B8
:1017B000000000000000000000000000000E00001B
:1017C000000000000000000000000000009CF70383
:1017D000080000000000000000E8010020000000F8
:1017E00000ACF703080B00000000000000740500C7
:1017F0002000000000B8F703080B00000000000004
:10180000006805002000000000C4F703080700007E
:1018100000000000006005002000000000D0F70379
:10182000080700000000000000580500200000002C
:1018300000DCF7030807000000000000005005006E
:101840002000000000E8F703080800000000000086
:10185000004405002000000000F0F7030808000025
:101860000000000000380500200000000064F103C3
:10187000080100000000000000000000000000005F
:1018800000000000000E000000000000000000004A
:101890000000000000F8F70308000000000000004E
:1018A00000E80100200000000004F8030807000021
:1018B0000000000000C0050020000000000CF8033C
:1018C000080700000000000000B80500200000002C
:1018D0000014F803080700000000000000B0050035
:1018E00020000000008CEF0308070000000000004B
:1018F00000A80500200000000094EF030807000086
:101900000000000000A0050020000000009CEF0384
:1019100008070000000000000098050020000000FB
:10192000001CF803080700000000000000900500FC
:10193000200000000024F803080700000000000059
:101940000088050020000000002CF80308070000B4
:101950000000000000800500200000000064F1038A
:10196000080100000000000000000000000000006E
:1019700000000000000E0000000000000000000059
:1019800000000000000000000049050108C8050033
:1019900020CF2C00201C000000D8C20308CE2C0051
:1019A0002000C80100CC2C0020E803D00701000073
:1019B0000048454C494F535052494E47006D2C004A
:1019C00020000301006C2C002000030100910401A1
:1019D0000869040108A406002025040108D90301B0
:1019E000081C070020D1040108B9040108D0070031
:1019F0002045030108F9020108DC0A00205F050107
:101A00000835370108B80B00204501010800000027
:101A100000080C0020C13A0108C9070108E40C00C5
:101A2000208505010800000000980D00202906010E
:101A300008F9050108240E0020B5060108F9060181
:101A400008C40E0020E22D002001060100C505019A
:101A500008990501080410002059060108AD370156
:101A600008901000202507010809380108581100C6
:101A700020D82D00200103010034F80308000000E5
:101A80000000000000000000000000000040F8031B
:101A9000080800000000000000681200200000009C
:101AA0000048F80308070000000000000060120072
:101AB000200000000058F803080D0000000000009E
:101AC00000541200200000000064F8030803000026
:101AD000004D390108481200200000000064F103A5
:101AE00008010000000000000000000000000000ED
:101AF00000000000000E00000000000000000000D8
:101B000000000000006CF803080000000000000066
:101B10000000000000000000007CF803080A00003C
:101B2000000000000084F80308000000008CF803A7
:101B3000080A0000000000000058EE030800000042
:101B40000094F803080A000000000000005E2E0068
:101B500020000000009CF803080A000000000000BC
:101B600000741200200000000064F103080100006E
:101B70000000000000000000000000000000000065
:101B8000000E000000000000000000000000000047
:101B900000A4F8030800000000000000000000009E
:101BA0000000000000B0F80308030000004D3901F8
:101BB00008A812002000000000BCF8030803000081
:101BC000004D3901089C12002000000000C4F803F9
:101BD00008030000004D39010890120020000000A9
:101BE00000CCF8030805000000000000006B2C008A
:101BF0002000000000D4F8030807000000000000E7
:101C0000008812002000000000E0F8030807000030
:101C10000000000000801200200000000064F103BA
:101C200008010000000000000000000000000000AB
:101C300000000000000E0000000000000000000096
:101C40000000000000ECF8030800000000000000A5
:101C500000000000000000000000F903080300007D
:101C6000004D390108D8120020000000000CF903D3
:101C700008030000004D390108100000200000009A
:101C80000014F90308030000004D390108CC1200CC
:101C900020000000001CF90308030000004D39017A
:101CA00008C012002000000000BCF403080300007C
:101CB000004D390108B41200200000000064F10357
:101CC000080100000000000000000000000000000B
:101CD00000000000000E00000000000000000000F6
:101CE000000000000028F9030800000000000000C8
:101CF00000000000000000000034F90308070000A5
:101D000000553801083413002000000000E0F403FF
:101D100008030000004D39010828130020000000CE
:101D20000040F90308030000004D3901081C1300AE
:101D3000200000000048F90308030000004D3901AD
:101D400008101300200000000050F90308070000ED
:101D50000039380108081300200000000020EF03BC
:101D600008030000004D390108FC120020000000AB
:101D7000005CF90308030000004D390108F012006F
:101D8000200000000068F90308030000004D39013D
:101D900008E41200200000000064F10308010000C4
:101DA0000000000000000000000000000000000033
:101DB000000E000000000000000000000000000015
:101DC0000019050108E90401083C130020950701EA
:101DD0000800000000C8130020B5030108910301AA
:101DE0000854140020000000000000000008150046
:101DF000206D07010871380108A815002074F90347
:101E000008000000000000000000000000000000CA
:101E10000080F90308030000004D390108B41600E2
:101E2000200000000088F90308030000004D39017C
:101E300008A81600200000000094F9030803000021
:101E4000004D3901089C1600200000000098F9039D
:101E500008030000004D3901089016002000000022
:101E600000A4F90308030000004D3901088416009E
:101E70002000000000ACF9030802000000313B0123
:101E8000080000000000000000B4F9030802000090
:101E900000313B01080100000000000000C0F90310
:101EA0000802000000313B010802000000000000B1
:101EB00000000000000E0000000000000000000014
:101EC00000000000004A2C002088136F170100005A
:101ED000004C2C002088136F1700000000CCF90381
:101EE00008000000000000000000000000000000EA
:101EF00000DCF9030808000000000000009417004F
:101F00002004000000E8F9030808000000000000B9
:101F100000881700200000000078F5030804000086
:101F20000039350108000000000000000064F103E2
:101F30000801000000000000000000000000000098
:101F400000000000000E0000000000000000000083
:101F50000000000000482C002088136F17010000CB
:101F600000F699002088136F170000000089020115
:101F70000800000000A0170020233300200100000B
:101F8000004CC30308F89900200100000058C30367
:101F900008EE9900200200000060C30308B6850027
:101FA000200000000000000000B4850020000000B8
:101FB0000000000000B285002000000000000000CA
:101FC00000B08500200000000000000000AE850089
:101FD000200000000000000000AC85002000000090
:101FE0000000000000881F0020000000000000002A
:101FF00000472C0020020000006CC3030824FA03F1
:1020000008000000000000000000000000000000C8
:1020100000DCF9030808000000000000002418009C
:102020002004000000E8F903080800000000000098
:1020300000181800200000000078F50308040000D4
:102040000059020108000000000000000064F103D4
:102050000801000000000000000000000000000077
:1020600000000000000E0000000000000000000062
:10207000000000000034FA03080000000000000027
:1020800000000000000000000044FA03080D0000FA
:102090000089360108541800200400000050FA039B
:1020A000080D000000B102010848180020040000DB
:1020B000005CFA03080D0000004D3601083C1800D2
:1020C000200000000068FA03080300000019350131
:1020D00008301800200800000074FA03080300000C
:1020E000004D390108581B00200000000064F10376
:1020F00008010000000000000000000000000000D7
:1021000000000000000E00000000000000000000C1
:1021100000000000005CF103080000000000000067
:10212000000000000000000000B9F00308040000F7
:102130000051350108000000000000000064F103B8
:102140000801000000000000000000000000000086
:1021500000000000000E0000000000000000000071
:102160000000000000C8FA030800000000000000A2
:10217000000000000000000000802504080D0000A1
:102180000000000000B418002004000000D8FA038A
:10219000080800000000000000A81800200400004B
:1021A00000E4FA030808000000000000009C18008A
:1021B0002004000000ECFA03080800000000000002
:1021C000009018002004000000F4FA030808000042
:1021D00000000000008418002004000000FCFA0346
:1021E000080800000000000000781800200400002B
:1021F0000004FB030808000000000000006C180049
:1022000020040000000CFB03080800000000000090
:1022100000601800200400000064F10308010000C1
:1022200000000000000000000000000000000000AE
:10223000000E000000000000000000000000000090
:10224000007102010800000000C01800200000001A
:10225000000000000038190020000000000000000D
:1022600000D8190020F49900200400000078C3036E
:1022700008F2990020E0150C1700000000F1990009
:10228000200800000038EA0308F09900200500004B
:10229000008CC303080000000000000000281A00A2
:1022A000200000803F00000000000000000000004F
:1022B000000000803F00000000000000000000005F
:1022C000000000000000000000000000000000000E
:1022D0000000000000000000000000803F0000003F
:1022E000000000000000000000FFFFFFFF00008072
:1022F0003F010000000000803F0000803F00000020
:1023000000000000000000000000000000CC4700BA
:10231000200800000000000000BC4700200800006A
:102320000034E7030805080400000000008CC30324
:102330000838EA030878C303080000000000000022
:102340000060E7030805080A00000000008CC303D2
:102350000838EA030894C2030800000000000000E7
:102360000004030904120100020202004083044039
:1023700057000201020301000009024300020100AC
:10238000C03209040000010202010005240010010E
:1023900005240100010424020205240600010705AA
:1023A00082030800FF09040100020A00000007057B
:1023B00001024000000705810240000000FF00000C
:1023C0000000FFFF0000000000AA5505010000000A
:1023D00000000000010000000000000000000000FC
:1023E00000010000000000803F01000000006002CA
:1023F00040106002400000000000000000000B00E0
:10240000000000000000000000000000000060026A
:1024100040286002400100000000000000060C009F
:10242000000000000000000000000000000060024A
:1024300040406002400200000000000000100D005B
:10244000000000000000000000000000000060022A
:1024500040586002400300000000000000160E001B
:10246000000000000000000000000000000060020A
:1024700040706002400400000000000000200F00D7
:1024800000000000000000000000000000006002EA
:102490004088600240050000000000000026100097
:1024A00000000000000000000000000000006002CA
:1024B00040A0600240060000000000000030110053
:1024C00000000000000000000000000000006002AA
:1024D00040B86002400700000000000000362F00F6
:1024E0000000000000000000000000000000640286
:1024F00040106402400000000000000000003800AE
:102500000000000000000000000000000000640265
:10251000402864024001000000000000000639006D
:102520000000000000000000000000000000640245
:1025300040406402400200000000000000103A0029
:102540000000000000000000000000000000640225
:1025500040586402400300000000000000163B00E9
:102560000000000000000000000000000000640205
:1025700040706402400400000000000000203C00A5
:1025800000000000000000000000000000006402E5
:10259000408864024005000000000000002644005E
:1025A00000000000000000000000000000006402C5
:1025B00040A064024006000000000000003045001A
:1025C00000000000000000000000000000006402A5
:1025D00040B86402400700000000000000364600DA
:1025E00000000000000000000000000000000000EB
:1025F00000010203040102030406070809D199023D
:1026000008F5980208AD920208C18C0208299002D0
:1026100008D18C0208ED8C0208998C0208898C0282
:1026200008000000000000000065980208918F0279
:1026300008A997020800000000618C0208E99102D5
:10264000087D970208459102080000000000000084
:1026500000558C0208D58B0208D18B0208CD8B0265
:1026600008C18B0208BD8B0208C98B0208C58B020A
:1026700008498C02083D8C0208158C0208298C023E
:1026800008018C0208ED8B0208D98B02082D202D41
:102690002D202D2D2D2D202D2D2D2D000000000065
:1026A000000000000000000000000000AA550B011F
:1026B0000000AA5507010000AA5509020000000009
:1026C0000001000000C012AA5503009F0001000095
:1026D00000500100000700000002000000000000A0
:1026E00000000000000102030406070809010000C1
:1026F00000000001FFFF010000FF1FFF1FF4220484
:102700000800000000000000005D2C0208A0860107
:1027100000040000000000000000000000000000B5
:1027200000000000000000000000000000000000A9
:1027300000E0F40308E8F1030800000000CDC70141
:10274000087D0000000600000000000000000000FE
:102750000000000000000000000000000000000079
:1027600000000000006022040800000000000000DB
:1027700000FD8A0008E803000003000000000000DC
:102780000000000000000000000000000000000049
:1027900000000000000000000020320408000000DB
:1027A0000000000000E98B01081027000003000072
:1027B0000000000000000000000000000000000019
:1027C000000000000000000000000000002C3204A7
:1027D0000800000000B92501084DC90008204E007E
:1027E00000050000000000000000000000000000E4
:1027F00000000000000000000000000000000000D9
:1028000000902404080000000000000000FDF90012
:102810000810270000010000000000000000000078
:1028200000000000000000000000000000000000A8
:10283000000000000030320408000000000000002A
:102840000045800008E803000005000000000000CB
:102850000000000000000000000000000000000078
:102860000000000000000000003C320408000000EE
:10287000000000000055410208204E000003000047
:102880000000000000000000000000000000000048
:10289000000000000000000000000000004C3204B6
:1028A000080000000000000000413F0208204E0028
:1028B0000003000000000000000000000000000015
:1028C0000000000000000000000000000000000008
:1028D000005C3204080000000000000000A181003C
:1028E00008400D030003000000000000000000008D
:1028F00000000000000000000000000000000000D8
:102900000000000000B823040800000000000000E0
:1029100000B54E0208102700000100000000000072
:1029200000000000000000000000000000000000A7
:102930000000000000000000006C220408000000FD
:102940000000000000858903081027000003000034
:102950000000000000000000000000000000000077
:1029600000000000000000000000000000982404A7
:10297000080000000000000000D59F0008A00F0024
:102980000001000000000000000000000000000046
:102990000000000000000000000000000000000037
:1029A000006C32040800000000000000001556030F
:1029B00008102700000100000000000000000000D7
:1029C0000000000000000000000000000000000007
:1029D000000000000094F90308000000000000005F
:1029E00000CD9C03081A4100000100000000000017
:1029F00000000000000000000000000000000000D7
:102A000000000000000000000030F2030800000099
:102A10000000000000D13B03081027000001000067
:102A200000000000000000000000000000000000A6
:102A300000000000000000000000000000E8310479
:102A4000080000000000000000CD3C01081A410011
:102A50000001000000000000000000000000000075
:102A60000000000000000000000000000000000066
:102A7000007832040800000000000000002D64030C
:102A800008400D03000000000000000000000000EE
:102A90000000000000000000000000000000000036
:102AA0000000000000803204080000000000000068
:102AB0000001800008400D0300000000000000003D
:102AC0000000000000000000000000000000000006
:102AD0000000000000000000008832040800000030
:102AE0000000000000F18F0308A086010003000031
:102AF00000000000000000000000000000000000D6
:102B000000000000000000000000000000943204FB
:102B10000800000000000000000D3F020840420FC6
:102B200000000000000000000000000000000000A5
:102B30000000000000000000000000000000000095
:102B400000A0320408000000000000000075300200
:102B50000850C3000000000000000000000000005A
:102B60000000000000000000000000000000000065
:102B7000000000000001000000FFFFFFFF442400F0
:102B80002000000000000000000000000000000025
:102B90000000000000000000000000000000000035
:102BA0000000000000000000000000000000000025
:102BB0000000000000000000000000000000000015
:102BC0000000000000000000000000000000000005
:102BD00000000000000000000000000000000000F5
:102BE00000430000000000000000000000000000A2
:102BF00000000000000000000000000000000000D5
:102C00000043000000000000000000000000000081
:102C100000000000000000000000000000000000B4
:102C20000043000000000000000000000000000061
:102C30000000000000000000000000000000000094
:102C40000043000000000000000000000000000041
:102C50000000000000000000000000000000000074
:102C60000043000000000000000000000000000021
:102C70000000000000000000000000000000000054
:102C80000043000000000000000000000000000001
:102C90000000000000000000000000000000000034
:102CA00000430000000000000000000000000000E1
:102CB0000000000000000000000000000000000014
:102CC0000017B60308F3B5030800000000B2320491
:102CD00008B5F00308B5FB0308B5FB0308B5FB0313
:102CE00008B5FB0308B5FB0308B5FB0308B5FB03F8
:102CF00008B5FB0308B5FB0308FFFFFFFFFFFFFF5D
:102D0000FFFFFFFFFFFFFF00000100415343494960
:102D100000000000000000000000000000000000B3
:102D2000000000000000000000000041534349493A
:102D30000000000000000000000000000000000093
:102D40000000000000000000000000000000000083
:102D50000000000000000000000000000000000073
:102D60000000000000000000000000000000000063
:108000000C4B1B78DB0700D570470B4A1368002B1D
:10801000FAD04FF47A7101FB03F39842F4D3074B83
:108020001B781BB9064B99681B690B600023136012
:10803000704700BF78990020444600203846002051
:108040002446002038B50B4C23688BB15A68821A3D
:10805000002A054604DA0BE05A68AA1A002A07DB50
:108060009A68226018461A6890472368002BF3D15B
:1080700038BD00BF54300020436A8269D154436A3E
:108080000169826B01338B4228BF00234362DAB15E
:10809000EFF31183502282F31288826B1168C907B3
:1080A0000ED470B45468FCB9D0E909518D4211D195
:1080B000012280F85C20DBB283F3118870BC70472A
:1080C000DBB283F311887047826DD36843F080037D
:1080D000D360704786690E44D6600ED9691A516024
:1080E0008562002180F85C10116841F00101DBB26B
:1080F000116083F3118870BC70470569691A51607B
:108100008462EEE7034610B4446BD968406954B109
:10811000DA6C8C1A013A005D5DF8044B08BF0A4620
:10812000C0B2DA6470471A6A805C01328A4228BFA2
:108130002246C0B21A625DF8044B7047836B13B1DC
:1081400090F85C007047D0E90903181AB0FA80F083
:1081500040097047D0E909120369914238BFC91834
:108160008A1A816B013B19B149680A449A4201D2CB
:10817000981A704700207047436B43B1C26C5B682C
:108180009A4291BF981AC0689B1AC0187047D0E9EC
:1081900007239A422FBFD01AC0688018C01A7047B0
:1081A0002DE9F0478C4A8D4B12781C78D207064691
:1081B00048D58B4D012C00F091801ED3022C40F04D
:1081C0009B808849884A09881288884F914201D942
:1081D00001241C70EB7AFBB12B89EBB1844B1B782B
:1081E000D3B11BF0AFFD002800F0E2802B7B83426F
:1081F0002CBF012300233B700FE0DFF8E8C17B4F69
:108200007C4CBCF800002288697B521A8242DFDA7B
:10821000EB7A0024002BDFD13B782A79632A07D838
:108220007549022C087800F0B880002840F0A08042
:108230007249AA7A9C4238BF1C460C70002A44D16D
:10824000BDE8F087DFF89CC1654DBCF80000BCF8C4
:10825000021095F803E06A4F411A0029A4F10302C5
:10826000B8BF4942704597F80080D2B211D32F7839
:1082700087420ED3012A45D9B8F1020F9AD15C4842
:10828000604A007890800229CCBF00210121D18072
:1082900090E7B0EB4E0FEDDC012A40F28C80022912
:1082A000EADC0324514F524852494F4A1C70B8F13E
:1082B000020F4FF000033C7003700B80138089D1D4
:1082C000504A01219380D18084E7012C6BD0022C8D
:1082D000B6D10720BDE8F0471CF0ACBD424A414989
:1082E0001288687B0988121A914207DD414A128878
:1082F0008A423CBF00241C703C4F6BE702241C7078
:108300003A4F67E70229B7DC95F800E090FBFEFEE4
:108310000EF1010EBEF1080FDFF8D4A0AA7869783B
:10832000DFF8C490334C314FA8BF4FF0080E8AF8E5
:1083300000E01FFA8EFA11FB0AF112FB0AF2DFF8D5
:10834000B8A0A9F8001092B200214FF06409B8F16A
:10835000020F228039701970CAF804108AF801904F
:108360007FF452AF274A0121A2F804E0D18048E708
:108370004868301A244EB042C8BF4A703FF758AF21
:10838000C2F16402214E00FB02F086FB0062C017BE
:10839000A0EBA250643048704AE70028E8D10127DA
:1083A0004E600F70ECE70820BDE8F0471CF042BDBE
:1083B00002233B7031E7032C7FF471AFB8F1020F59
:1083C0009AD10B4A0F4B12789A800229CCBF002118
:1083D0000121D980054FFDE67899002074450020E1
:1083E00050A1002040A3002078450020D445002063
:1083F00046A30020764500207C4500204EA10020A9
:108400006CA0002070A000207F9698006BCA5F6B64
:1084100010B5094C238823EA00009842208009D037
:10842000064B41F20241FF2219809A700E201CF087
:1084300001FD2388184610BD54A30020B843002036
:1084400010B5094C238818439842208009D0074B67
:1084500041F20241FF2219809A700E201CF0EAFCC2
:108460002388184610BD00BF54A30020B843002045
:10847000024A136818431060704700BF30A3002001
:10848000F8B55D4B5D4D5E485E4C01265C220021D7
:108490001E7033F0FBF85C4A5C49002328460B60F1
:1084A00013601CF035F8314605201CF07FF8667922
:1084B000574A584B128E93FBF2F3311C18BF01211F
:1084C0000720C5F814311CF071F8A779391C4FF05A
:1084D000080018BF01211CF069F8A37A002B63D0B3
:1084E0004D4C002E6AD1391C18BF01214B4E09207A
:1084F0001CF05CF83368D90771D49A0760D4012165
:1085000004201CF053F8464B062019781CF04EF856
:1085100001210A201CF04AF821680B20C1F3C01188
:108520001CF044F823685B050CD501210C201CF0DD
:108530003DF83C4B1B7A083B012B9CBF4FF4FA6380
:10854000C5F8803261880D2001F001011CF02EF881
:1085500021680E20C1F380411CF028F821680F200B
:10856000C1F3C0611CF022F8012114201CF01EF898
:10857000012115201CF01AF8012110201CF016F81A
:10858000012111201CF012F8012112201CF00EF81C
:108590004FF480401CF052FB011C18BF0121132036
:1085A000BDE8F8401CF002B8E37A1B4C002B98D1D0
:1085B000216811F4802199D0002E94D0012195E7F3
:1085C000012102201BF0F2FF174B9B6A0A2BB8BF58
:1085D0000A2301210320AB671BF0E8FF8FE7134B51
:1085E0001B6801210A2BB8BF0A2308466B641BF0E5
:1085F000DDFF336881E700BFB8460020C01F0020C0
:108600005C46002050A10020BC46002058460020B7
:10861000F87F002040420F009882002000A3002035
:1086200000380020CC7F002058770020FC33002049
:1086300002280749074B084A28BF0220087000EBB0
:108640008001013003EB0113C0B213601CF00EBDBA
:10865000209B0020DE2C0020B8A8002008B50121B6
:10866000022027F0B5FC094B1B7803F00503052B0E
:1086700008D00021012027F0ABFC0021084627F09C
:10868000A7FCFEE713F054FEF3E700BF44470020C9
:1086900008B50EF005FE2AF013FDBDE808400EF007
:1086A000A5BD00BF3F4B9A89D989914210B524BF1F
:1086B00000229A81598A1A8A914224BF00221A8282
:1086C000D978394A92F8542081B107290ED0374C15
:1086D000012000210A2A20709870D97159D00C2AE3
:1086E00001D00A2A5BD0DFED327A0AE00A2AD97972
:1086F00052D0DFED307A9FED307A0C2A18BFF0EEC1
:10870000477A9FED2E7A002918BFF0EE477A2C4C5D
:10871000A278062A97BF2B49DFED286A01EB820178
:10872000D1ED006A217971B1013A032A0AD8B7EE76
:10873000000A80EE260A33F083F92388984228BF86
:108740001846208010BD9B78184907EE103A0A7829
:10875000B8EEC77A67EE277A07EE102AB8EEC77A26
:1087600027EE277AF4EEC76AF1EE10FAEADD86EE1C
:10877000A77AFDEEC77A17EE903A102BA8BF102308
:10878000012BB8BF0123DBB29A4238BF1A460A70E8
:1087900010BDDFED0D7ABAE7DFED0C7AB1E7DFED62
:1087A0000A7AAEE7F4760020947700209C3B002004
:1087B0006F12833A0AD7A3396F1203396F12033845
:1087C000E885002024BF03080F506E3A5304E938AF
:1087D0002DE9F84F0EF064FDDFF8FC82A24B434513
:1087E00025D2DFF8F892A14F03F114069A464C46C1
:1087F0002588621985B1BA420ED2052D0CD936F8FA
:10880000143C6188C3F30B03994200F0CF801446F7
:1088100025886219002DEED156F8101C50460AF139
:10882000140A1BF0F5FEC24506F11406DFD3904A88
:108830005378052B40F2E78011788E48002353705F
:1088400002298D4B036000F2D8808C4B01EB810133
:1088500003EB0113998C5A8C894C9142236001D30C
:1088600000225A84874B9A78042A00F0D58032B9C6
:108870001A88B2F5F07F84BF4FF4F0721A80824DEF
:10888000FFF710FF2B68814A1A40002A00F0E780AA
:10889000D80700F1D180590400F1D5801A0700F102
:1088A000D9809B0400F1C18021F078FD10B978488F
:1088B0001AF0E4FA402027F077FD4FF4007027F01B
:1088C00073FD4FF4003027F06FFD724827F06CFD08
:1088D0004FF4001027F068FD4FF0007027F064FDA2
:1088E0004FF0806027F060FD17F092FE00213022EB
:1088F000694832F0CBFE206813F06CF8674B2568AE
:1089000003F1640102E0053399427AD01A78002A13
:10891000F9D19C78D8788442F5D2614B5E4C1A70BC
:10892000284625630CF08EFD5E4A5F4B10795F4A46
:1089300062636421C82211FB00210022C3E90112F5
:10894000C3E90322C3E90522DA6183F8202083F812
:1089500021200EF0E3FA564B9FED565A1B88564ADB
:108960009FED566A5079564906EE903AF8EEE66A5F
:108970001388C5EE265A07EE103A53881279C1EDD6
:10898000005A07EE903AB8EEC77AF8EEE77A4D4B08
:1089900027EE067A67EE867A18725A7283ED017AAC
:1089A000C3ED007ABDE8F84F0EF020BC63799B0759
:1089B0007FF42DAF56F8101C94F804B050461BF00D
:1089C00027FE36F8143CBBEB133F07D00AF1140A1C
:1089D000C24506F11406FFF40AAF28E736F8123C48
:1089E00056F8100CAA1FC3F30B039A4204F10601B8
:1089F000A8BF1A4632F030FDE8E7002313701F4B82
:108A000028E7012289E71C491A4801EB0313117872
:108A100003600229F1D818E71A8AB2F57A7FBFF409
:108A20002EAF4FF47A721A8229E7274827F0BCFC50
:108A3000402027F0B9FC37E7244827F0B5FC2B6825
:108A400059047FF52BAF224827F0AEFC2B681A079C
:108A50007FF527AF1F4827F0A7FC2B6821E743F0DD
:108A600008032B6014E700BF900100080080000895
:108A7000209B0020BCA80020F42D0020DE2C00202C
:108A8000B8A80020E88500202433002009600002F7
:108A9000F87F002020001000102600209C370020C6
:108AA000B41B0020584200200CA300205E3200209E
:108AB0000C430020C0C9FB481847002017B7D13825
:108AC00010430020483B00200940000208600002DB
:108AD00009200002016000020406000802400008AC
:108AE00008B50EF0DDFB2AF0EBFA0EF07FFBFFF786
:108AF0006FFE0120BDE808401CF0B8BAD44B2DE948
:108B0000F0471B88D34C012284F83820002B72D008
:108B1000D14DD4ED0B6AD5ED004A95ED050A95EDE2
:108B2000015A95ED067AD5ED047AD5ED035A95ED07
:108B3000026AA4EEA60AA5EE267A67EEC07AA5EE32
:108B4000C07AE6EE267A85ED057AC5ED067A32F032
:108B500077FFD4ED0C6AD5ED094A95ED0E0A95ED37
:108B60000A5A95ED0F7AD5ED0D7AD5ED0C5A95EDA3
:108B70000B6AA4EEA60AA5EE267A67EEC07AA5EEE9
:108B8000C07AE6EE267A06EE900AF8EEE66A85ED01
:108B90000E7AC5ED0F7AC4ED0B6A32F051FFD4EDB9
:108BA0000D6AD5ED124A95ED170A95ED135A95ED1C
:108BB000187AD5ED167AD5ED155A95ED146AA6EE0C
:108BC000A40AA6EE857A67EEC07AA0EE657AE6EE94
:108BD000867A06EE900AF8EEE66AC5ED187A85ED1B
:108BE000177AC4ED0C6A32F02BFF07EE900AF8EE0C
:108BF000E77AC4ED0D7A994E994D32886B6B002A55
:108C000077D1984A126850073CD4B3F9002094ED0C
:108C10000C6A94ED0D7A94ED0B5A934905EE902A67
:108C2000B3F90220B3F9043006EE902A07EE903A29
:108C3000F8EEE55A8D4B0A68D3ED003A93ED014A00
:108C4000D3ED024AF8EEE66AF8EEE77A75EE655A79
:108C500076EE666A77EE677AC4ED0B5A34EE266AD2
:108C600073EEA55A34EEA77A0132C3ED005AC4ED73
:108C70000C6A83ED016AC4ED0D7A83ED027A0A6015
:108C8000BDE8F087B5F84420322A00F0F780002ACA
:108C900040F0A78095F86220002AB6D005F1540074
:108CA00007C8734E278B86FB02ECD217C2EB2C123F
:108CB000D21B86FB00C786FB01C6C017C917C1EBD4
:108CC0002611C0EB27106B4E9A8018805980002324
:108CD000B381F38185F862300EF0E2FA2AF0F0F900
:108CE0000EF084FAFFF774FD01201CF0BFF96B6BE6
:108CF0008BE7B2F5C87F18BFD5ED0E7A94ED0B7AED
:108D00000CBFDFED5D7AF8EEE77A4FF0000C002043
:108D100077EE877AC4F82CC018803788FDEEE77AA2
:108D2000B7F5C87F17EE902AC5ED0E7A00F0C9801E
:108D3000D5ED0F7A94ED0C6AD4ED0D6AC4F830C00D
:108D4000B8EEE77AD5ED107A5880F8EEE77A37EE8C
:108D5000067A77EEA67ABDEEC77AFDEEE77A012FA6
:108D6000C4F834C017EE108A17EE901A85ED0F7A0A
:108D7000C5ED107A988002D0013F378041E7DFF8D7
:108D8000F0C0B4F818E0C8318CFB01A9C83208F172
:108D9000C808C917C1EBE9118CFB02A98CFB08AC10
:108DA0004FEAE878C8EBEC18D217DFF8C8C0A3F890
:108DB0000280A1EB0E01C2EBE91299801A80ACF897
:108DC0000C00ACF80E000EF06BFA2AF079F90EF0F8
:108DD0000DFAFFF7FDFC38461CF048F937886B6B3D
:108DE000CAE7D5ED157A94ED0B5AD4ED0C5A94EDF3
:108DF0000D6AF8EEE76AD5ED167AB8EEE77AD5EDAA
:108E0000177AF8EEE77A76EE856A37EE257A77EE0E
:108E1000867AFDEEE66ABDEEC77AFDEEE77A0020BF
:108E20000021012AC5ED156AE062198085ED167AE8
:108E3000206359806063C5ED177A998056D0013A56
:108E4000A5F8442095F86220002A3FF4DEAE25E71D
:108E500068320020587700206C3200202C47002018
:108E60001026002098820020383B00203C3B002048
:108E70001F85EB515832002000000000D4ED0B6A32
:108E800094ED0C7AD4ED0D7A3A491E68C968AE6447
:108E9000FDEEE66ABDEEC77AFDEEE77A9E882965AB
:108EA00000200021C5ED156AE062A5F84C6019802C
:108EB00085ED167A206359806063C5ED177A998035
:108EC000BDE794ED0C7AD4ED0D7AC4F830C0BDEE58
:108ED000C77AFDEEE77A013F588085ED0F7AC4F836
:108EE00034C0C5ED107A988037808AE6224885F82C
:108EF0006010016885F86120890330D41F4E00207E
:108F000031460F780B2F01F10C010BD001301828DE
:108F1000F7D1A86C17491860B5F84C60286D9E8091
:108F2000C8608CE7164FD7F800E04100BEF1000F93
:108F300009D001EB000C06EB8C0C9EF801E09CF8CC
:108F400001C0F445E5D20144DFF840C00D4806EB0E
:108F5000810600213E60ACF800100160D9E70A49A3
:108F600009780329CAD11BF049FF6B6BB5F844207F
:108F7000CFE700BF583200207042002014D8030809
:108F80007C4200208C4300204EA10020884300201A
:108F900038B50D4C0D4DAC4206D2616820461434F4
:108FA0001BF036FBAC42F8D328F066F8084A094BB0
:108FB000094C1460002209491A705A700848086068
:108FC000BDE838402EF0E8BE900100080406000815
:108FD000B8A80020209B0020DE2C0020BCA8002088
:108FE000F42D002008B5FFF7D3FF0EF059F92AF051
:108FF00067F8BDE808400EF0F9B800BFF0B50C29DD
:1090000034D8DFE801F08A3333335F33333334331A
:1090100033330700048C9689B2F802C01788744D68
:1090200024F480542404240C0484038C8488818BCD
:1090300023F4005321F4E6411B0409041B0C46EA07
:109040000C06090C43EA063341EA0721A8429BB209
:10905000A4B289B200F09E8005F58065A84200F0B8
:10906000998092688480818302640384F0BD048CBB
:109070009589B2F802E017885D4E24F480742404C8
:10908000240C0484038CB0F804C0818B23F4007397
:109090001B0421F0730145EA0E041B0C090443EA8A
:1090A0000423090CB0429BB21FFA8CF541EA070178
:1090B0005BD0504CA04258D0926885808183C263B7
:1090C0000384F0BD048C9589B2F802E0B2F800C0C8
:1090D000474E24F010042404240C0484038C878855
:1090E000018B23F0200321F4E6411B0409041B0C2F
:1090F00045EA0E04090C43EA041341EA0C21B0428C
:109100009BB2BFB289B25BD03A4CA04258D09268B1
:109110008780018382630384F0BD048C9589B2F853
:1091200002C01788324E24F001042404240C048465
:10913000018C8488038B21F0020123F0730309045E
:109140001B04090C45EA0C051B0CB04241EA050161
:10915000A4B243EA070324D0264DA84221D0926846
:109160008480038342630184F0BDD489168A578AC0
:1091700023F4006343EA04234FF6FF341C40938832
:1091800025F440553E4344EA032345EA06149BB2C6
:10919000A5B291E7158A24F4804444EA8514A4B268
:1091A0005FE7D689158A578A21F0080131439688EE
:1091B00024F4407421F004013D4331432C43CEE7B5
:1091C000D489168AB2F812C023F0800343EA04134C
:1091D0004FF6BF741C40938827F4406546EA0C069E
:1091E00044EA031345EA86049BB2A7B28FE700BFA7
:1091F00000000140000401402DE9F84FA022904CEE
:109200009048914DDFF860A2904FDFF86082DFF860
:109210006092002132F03AFA8D48DFF858C2DFF848
:1092200058E204F1FC06A346DBF80030AB4200F044
:10923000E280B3F1804F00F0E080BB4200F0DF80BD
:10924000634500F0EA80734500F0E980434500F093
:10925000E8804B4500F0E7807E4A934200F0E580CD
:1092600002F57052934200F0E28002F58062934270
:1092700000F0DF8002F58062934200F0DC80A2F50E
:109280009832934200F0D98002F58062934200F058
:10929000958002F58062934208BF0D2300F08F8015
:1092A0000BF1240B5E45BFD16B4E6C4D4FF00309A3
:1092B0004FF00208A379002B7AD023791F09013FD0
:1092C000032F03F00F0373D836F8170040FA03F2A8
:1092D000D2076DD54FF0010A0AFA03F3013B18409B
:1092E00031F0ACFD5E4BDB5D184415EBC0075FD081
:1092F00055F830305B48217A03F13F4202F57E0297
:10930000920A825C02F01F005209032A0AFA00FA4C
:109310007DD0042A75D0022A04D14D48426C4AEA15
:1093200002024264B7F804C0BCFA8CF2C2F11F0218
:1093300092B2D00803EB800002F00702076A9200A5
:109340004FF00F0E0EFA02FE27EA0E070762076AB9
:1093500001FA02F23A4302624FF0010E00220EFAC5
:1093600002F737EA0C0120D15000D3F800A009FA27
:1093700000F1C9430AEA010AC3F800A0D3F800A02B
:1093800008FA00F040EA0A001860986808409860FF
:1093900098689860586820EA07075F6058685860C6
:1093A000D8680140D960D968D9600132102AD6D175
:1093B0002434A3457FF47EAFBDE8F88F0C230AEB7D
:1093C000C30301211B7903F01F025B09032B01FA80
:1093D00002F208D0042B0AD0022B7FF461AF416C5B
:1093E0000A4342645CE7016C0A43026458E7016B7C
:1093F0000A43026354E70023E1E70123DFE7022386
:10940000DDE71348026B4AEA020202638AE710486A
:10941000026C4AEA0202026484E70323CFE70423D2
:10942000CDE70523CBE70623C9E70723C7E70823D2
:10943000C5E70923C3E70A23C1E70B23BFE700BF42
:10944000ACE70308CC4400200000014000040040C9
:10945000003802400004014024E90308EC740020B5
:109460002CE90308D4E8030860E903080010004071
:109470000014004000080040000C00402DE9F843B3
:109480002F4D2B8AB5F80C8018EA030827D02D4EF3
:109490004FF00047B8FA88F327FA03F2D24391B2AB
:1094A0001B3B08EA02082982042B15D8DFE803F0E9
:1094B000352B22190300D6F89C30002B37D1EB6AEC
:1094C0001FFA83F9D6F8984034B1236820464946FC
:1094D00098476468002CF8D1B8F1000FDAD1BDE8E4
:1094E000F883B06F696B036889B29847B8F1000FD1
:1094F000D0D1F4E7F06FA96B036889B29847B8F14F
:10950000000FC7D1EBE7D6F88000E96B036889B29A
:109510009847B8F1000FBDD1E1E7D6F88400296C77
:10952000036889B29847B8F1000FB3D1D7E703F1C8
:10953000FF3900231FFA89F9C6F89C30C2E700BF43
:1095400000180040CC4400202DE9F8432C4D2B8A14
:10955000B5F80C8018EA030825D02A4E4FF00047D2
:10956000B8FA88F327FA03F2D24391B21B3B08EA18
:1095700002082982042B13D8DFE803F032292017D0
:109580000300736F002B34D1EB6A1FFA83F9346F39
:1095900034B123682046494698476468002CF8D1C6
:1095A000B8F1000FDCD1BDE8F883306D696B03685A
:1095B00089B29847B8F1000FD2D1F4E7706DA96B6A
:1095C000036889B29847B8F1000FC9D1EBE7B06DD5
:1095D000E96B036889B29847B8F1000FC0D1E2E7A0
:1095E000F06D296C036889B29847B8F1000FB7D1C4
:1095F000D9E703F1FF3900231FFA89F97367C6E73A
:1096000000040140CC4400202DE9F8432C4D2B8A66
:10961000B5F80C8018EA030825D02A4E4FF0004711
:10962000B8FA88F327FA03F2D24391B21B3B08EA57
:1096300002082982042B13D8DFE803F0322920170F
:109640000300736F002B34D1EB6A1FFA83F9346F78
:1096500034B123682046494698476468002CF8D105
:10966000B8F1000FDCD1BDE8F883306D696B036899
:1096700089B29847B8F1000FD2D1F4E7706DA96BA9
:10968000036889B29847B8F1000FC9D1EBE7B06D14
:10969000E96B036889B29847B8F1000FC0D1E2E7DF
:1096A000F06D296C036889B29847B8F1000FB7D103
:1096B000D9E703F1FF3900231FFA89F97367C6E779
:1096C00000040140CC4400202DE9F8432C4D2B8AA6
:1096D000B5F80C8018EA030825D02A4E4FF0004751
:1096E000B8FA88F327FA03F2D24391B21B3B08EA97
:1096F00002082982042B13D8DFE803F0322920174F
:109700000300F36C002B34D1EB6A1FFA83F9B46CBD
:1097100034B123682046494698476468002CF8D144
:10972000B8F1000FDCD1BDE8F883B06A696B03685B
:1097300089B29847B8F1000FD2D1F4E7F06AA96B6B
:10974000036889B29847B8F1000FC9D1EBE7306BD5
:10975000E96B036889B29847B8F1000FC0D1E2E71E
:10976000706B296C036889B29847B8F1000FB7D1C4
:10977000D9E703F1FF3900231FFA89F9F364C6E73B
:1097800000080040CC4400202DE9F8432C4D2B8AE2
:10979000B5F80C8018EA030825D02A4E4FF0004790
:1097A000B8FA88F327FA03F2D24391B21B3B08EAD6
:1097B00002082982042B13D8DFE803F0322920178E
:1097C0000300736A002B34D1EB6A1FFA83F9346A01
:1097D00034B123682046494698476468002CF8D184
:1097E000B8F1000FDCD1BDE8F8833068696B03681D
:1097F00089B29847B8F1000FD2D1F4E77068A96B2D
:10980000036889B29847B8F1000FC9D1EBE7B06897
:10981000E96B036889B29847B8F1000FC0D1E2E75D
:10982000F068296C036889B29847B8F1000FB7D186
:10983000D9E703F1FF3900231FFA89F97362C6E7FC
:1098400000000140CC4400202DE9F8432C4D2B8A28
:10985000B5F80C8018EA030825D02A4E4FF00047CF
:10986000B8FA88F327FA03F2D24391B21B3B08EA15
:1098700002082982042B13D8DFE803F032292017CD
:109880000300736A002B34D1EB6A1FFA83F9346A40
:1098900034B123682046494698476468002CF8D1C3
:1098A000B8F1000FDCD1BDE8F8833068696B03685C
:1098B00089B29847B8F1000FD2D1F4E77068A96B6C
:1098C000036889B29847B8F1000FC9D1EBE7B068D7
:1098D000E96B036889B29847B8F1000FC0D1E2E79D
:1098E000F068296C036889B29847B8F1000FB7D1C6
:1098F000D9E703F1FF3900231FFA89F97362C6E73C
:1099000000000140CC440020F0B506683F4CB30A8B
:10991000A3426CD065D93E4CA3425AD00134A34235
:1099200056D1702702254379B6F80CE0022023FABD
:1099300000F4A0401FFA80FCA8002346441903EB62
:109940004403344C002955D04CEA0E0C03F1040EAC
:1099500044F8231044F82E20A6F80CC0E319EFF3C6
:109960001181502282F31288421904EBC202D2F80C
:1099700010C0BCF1000F03D044F807C013690433D2
:10998000421904EBC202576917B11F6053690433CF
:10999000421904EBC202976917B11F60936904333F
:1099A000421904EBC202D76917B11F60D3690433AF
:1099B0000027CAB21F6082F31188284404EBC00458
:1099C000236A4BB9B38923F001031B041B0CB38139
:1099D000F0BD20270025A6E7B38943F00103B3813A
:1099E000F0BD043CA342F3D1482701259BE798270B
:1099F000032598E72EEA0C0C03F1040EA6F80CC020
:109A000044F8231044F82E20A8E700BF06001000F9
:109A100040001000CC44002010B503687C487D4C09
:109A20000139834282B0246889B200F0AF80A0F58A
:109A30008060834200F0AA8000F58040834200F0FD
:109A4000818000F5806083427CD000F58060834295
:109A500078D018886408B4FBF2F4013CA4B282B256
:109A6000B3F1804F0AD06C48834207D000F5806084
:109A7000834203D000F58060834202D122F070025D
:109A800092B26648834200F08F8000F58060834286
:109A900000F0938022F4407200F56C4092B2834251
:109AA0001A80D9621C8540F09180012100221A861B
:109AB000998219885A4841F001018342198049D09E
:109AC000B3F1804F00F08D80534A934200F08B80B9
:109AD00002F58062934200F0888002F58062934232
:109AE00000F0858002F58062934200F0828002F5EA
:109AF000806293427FD002F5704293427DD002F59E
:109B0000705293427BD002F58062934279D002F585
:109B10008062934277D0A2F59832934275D002F5D5
:109B20008062934215D002F58062934208BF0D22F5
:109B300010D002A84FF0012340F8043D24F01CFA95
:109B400002B010BD1888B4FBF2F4013CA4B282B29A
:109B500086E70C22334B03EBC20201A854798DF83F
:109B60000440012300228DF805308DF807308DF870
:109B7000062024F001FA1B2C0FD02E2CE0D12A4B0A
:109B8000019301A824F0F8F902B010BD1888B4FBC5
:109B9000F2F4013CA4B282B270E7244B019301A815
:109BA00024F0EAF902B010BD01201A80D9621C85A8
:109BB00098821A8802431A8086E701201A80D962A7
:109BC0001C8598821A8802431A8079E7104A9342CA
:109BD0003FF46BAF01229A821A8842F001021A8088
:109BE0006EE70122B6E70222B4E70322B2E70422BD
:109BF000B0E70522AEE70622ACE70722AAE7082273
:109C0000A8E70922A6E70A22A4E70B22A2E700BFE1
:109C1000000401400C9100200004004000100040AE
:109C20000000014060E903082C0100011901000156
:109C30002B4B98423CD0B0F1804F3BD0A3F57C43F6
:109C4000984239D003F58063984237D003F580639A
:109C5000984235D003F58063984233D003F5806392
:109C6000984233D003F57043984231D003F57053D6
:109C7000984229D003F5806398422BD003F5806386
:109C8000984229D0A3F59833984227D003F58063F2
:109C9000984207D003F58063984208BF0D2202D096
:109CA000002070470C220F4B03EBC203187970475A
:109CB0000022F8E70122F6E70222F4E70322F2E7A6
:109CC0000422F0E70522EEE70822ECE70622EAE7A5
:109CD0000722E8E70922E6E70A22E4E70B22E2E7A7
:109CE0000000014060E903082DE9F04F83B08E4D7C
:109CF000DFF8408201908B460BF1FF339B46013326
:109D000000F00E8121F040F8884C894FDFF828C21E
:109D10004FF4FA7A4FF0100E4FF47A76DCF80430F4
:109D2000C3F30803002B40F0DF80EFF31183002B17
:109D300040F0DA802168AA6800BF23689942F9D10F
:109D4000386806FB00F39A1AB2FBF0F206FB012119
:109D5000DCF80430C3F30803002B40F0A680EFF3D7
:109D60001183002B40F0A1802368A86800BF2268FF
:109D70009342F9D1D7F8009006FB09F2101AB0FB14
:109D8000F9F006FB03035B1AB3F57A7FE0D3BAF16F
:109D9000010AC3D1019B581CC0B220F059FEDFF864
:109DA00098C1DCF804304FF47A7AC3F308035646BE
:109DB0004FF0100E002B38D1EFF31183002B34D16C
:109DC0002168AA6800BF23689942F9D1386806FB68
:109DD00000F39A1AB2FBF0F206FB0121DCF8043022
:109DE000C3F30803002B41D1EFF31183002B3DD1C6
:109DF0002368A86800BF22689342F9D1D7F8009081
:109E000006FB09F2101AB0FBF9F006FB03035B1A1C
:109E1000B3F57A7FE2D3BAF1010A3FF46DAFDCF813
:109E20000430C3F30803002BC6D0EFF311828EF386
:109E30001288A8682B68D90303D50123C8F800301D
:109E4000A8682368D8F80010D2B282F311883A6863
:109E5000194406FB02F31B1AB3FBF2F306FB0131B4
:109E6000DCF80430C3F30803002BBDD0EFF31180FE
:109E70008EF31288D5F808902B68DB0304D50123F4
:109E8000C8F80030D5F808902368D8F80020C0B290
:109E900080F311883868134406FB00F2A2EB090234
:109EA000B2FBF0F206FB0323B1E7EFF311808EF370
:109EB0001288D5F808902B68DB0304D50123C8F875
:109EC0000030D5F808902368D8F80020C0B280F39D
:109ED00011883868134406FB00F2A2EB0902B2FBBA
:109EE000F0F206FB03234EE7EFF311828EF31288A4
:109EF000A8682B68D90303D50123C8F80030A868E7
:109F00002368D8F80010D2B282F311883A68194455
:109F100006FB02F31B1AB3FBF2F306FB013117E752
:109F200003B0BDE8F08F00BF10E000E0E87400204F
:109F3000787600207476002000ED00E0204B5B680E
:109F4000C3F3080330B4BBB9EFF31183A3B91D4ABF
:109F50001D481368846800BF11688B42F9D11B4A01
:109F600011684FF47A7202FB01F0001B30BCB0FBA9
:109F7000F1F002FB03007047EFF31182102383F32B
:109F800012881149124D8C680B68DB0344BF012312
:109F90002B600C4B48BF8C681B682868D2B282F3D8
:109FA00011880A4A11684FF47A72184402FB01F3CF
:109FB0001B1B30BCB3FBF1F302FB0030704700BF4A
:109FC00000ED00E0E874002010E000E0787600206A
:109FD000747600202DE9F04F2DED028B99B00546E7
:109FE0002DF080FB034B1B7833B119B0BDEC028B15
:109FF000BDE8F08FC4A60020BF4B1B685F05F4D5F9
:10A00000BE4B1B78012B00F04482BD4B0293BD4B2D
:10A010001B78002B39D0BC4CBC4AD4F88031EB1AE9
:10A02000934200F2C782DFF8389399F80060002E5F
:10A0300000F0B283B64E37683FB3D4F8903140F6A3
:10A04000B732EB1A934220D994F88C31002B00F0F0
:10A050007F8594F89521AF4994F894C10868013B35
:10A06000DBB2013284F88C31D2B2002B00F065856E
:10A0700017F8011B84F8952101EB0C03376084F875
:10A08000943125F057FDC4F89051A34A029B1278F1
:10A090001B68012A03F10103109300F0AD819F4B6F
:10A0A0001B78002B00F0C1809D4F3B68002B00F017
:10A0B000BC80029B944CD3F80080D4F8B031A8EB5C
:10A0C0000303632B40F2B180DFF898A2954EDFF8CE
:10A0D000989241202CF03CFEBAF9023086FB032016
:10A0E000DB17C3EBA00080B22CF016FEBAF90030EB
:10A0F00086FB0320DB17C3EBA00080B22CF00CFE24
:10A10000BAF9043086FB0320DB17C3EBA00080B252
:10A110002CF002FE99F80010386825F00BFD94F839
:10A12000B46116F0010A00F017857F4B1B68980692
:10A130006DD57E4B7E4E1B78990742F18C80337D26
:10A14000042B8CBF4FF0030A4FF0020A47202CF07B
:10A15000FFFD30682CF0ACFD70682CF0A9FDB6F85E
:10A160000EB0744B3868A3FB0B3BCBF3471B59462F
:10A1700025F0E0FC99F80020338964208BEA020B7B
:10A1800000FB03F089F800B02CF092FD367D3868B2
:10A190004AEA8606F6B2314625F0CCFC99F8003042
:10A1A00038685E40314689F8006025F0C3FC94F8B9
:10A1B000B46166BBDFF8B4A14F202CF0C9FDDAF81A
:10A1C00000002CF075FDDAF804002CF071FD30462B
:10A1D0002CF06EFD0121386825F0ACFC534A99F84B
:10A1E00000301678386806F00106314683F0010326
:10A1F00089F8003025F09EFC99F8003038685E4000
:10A20000314689F8006025F095FC94F8B4614A4A1B
:10A21000C4F8B081731CDBB2A2FB0312D20802EBBC
:10A220008202A3EB420384F8B431444E3778022F04
:10A2300000F04783424CA378032B00F09183414BFD
:10A240001B78002B3CD0404F3B68CBB32E4CFFF724
:10A2500075FED4F8BC31039044F61F62C31A9342D2
:10A260002ED994F8C231002B01F01483013B84F8FD
:10A27000C23194F8C321002A01F0EE81013A84F83A
:10A28000C32194F8C631002B00F0C886013B84F846
:10A29000C63194F8CAC1BCF1000F00F0D1850CF1B1
:10A2A000FF3C84F8CAC194F8CB91B9F1000F01F0DA
:10A2B000F58309F1FF3984F8CB91039BC4F8BC31D5
:10A2C000224B1B78002B40F0D282214B1B7843B1EC
:10A2D0000D4CD4F80C3303F50043E8339D4280F075
:10A2E00000811C4B1B78002B3FF47FAE064F1A4CAD
:10A2F0001A4D07F54B763BE09882002061A90020BB
:10A30000E87400206EA90020102600203F0D0300F5
:10A31000D8A80020D0A800206FA900207CA9002088
:10A32000ACA800206766666600A3002004A3002096
:10A33000A08200201F85EB51CDCCCCCC1732002061
:10A340000000002084A9002088A90020F4A9002092
:10A3500005AA00208EA9002094A9002098A9002019
:10A36000DCA8002058A30020B0A800201CB70020C3
:10A37000206825F0DCFB00283FF437AE206825F08C
:10A38000D0FB2B78804673B1013B20682B7025F001
:10A39000CEFB00283FF429AE206825F0C2FB2B78C5
:10A3A0008046002BF0D172490322304631F055F936
:10A3B00097F82C1387F82F83023911F0FF0100F072
:10A3C0007882314432464FF6FF7312F8010B1B1AA4
:10A3D00091429BB2F9D11A0A1FFA88F89045C7D169
:10A3E00097F82E23DBB29A42C2D162482CF030FAA1
:10A3F0002B7818442870BBE75F4E306800283FF484
:10A400004EAE5E4C5E4F04F5D27AA9464FF001087D
:10A41000002525F08CFB40B3D4F89CB1BBF1000FB4
:10A4200023D1306825F07DFB83B27E2B00F01C83A6
:10A430007A78002A40F0418294F89811002900F0BF
:10A44000E4811B2B84F89821306840F02A8225F0A3
:10A450006EFB002800F02583306887F80180C4F87F
:10A460009C5125F064FB0028D6D1FFF767FDD4F896
:10A47000AC31C01AB0F5FA7F4D46FFF610AE10AA07
:10A480004049D4F89C012CF07DFC0023C4F89C3199
:10A4900005E63D4B1B68002B3FF4B7AD374C3B4AFC
:10A4A000D4F87431EB1A93427FF7AFAD384F94F87C
:10A4B00078313A68C4F874510133DBB2960784F8F6
:10A4C000783101F1728513F0070601F04985282BD8
:10A4D000304B01F04D8602932F4B5E201B6898474E
:10A4E00095E594F81033C4F80C53012B40F2E18247
:10A4F00094F8111329482A4A4E1C194400EB810193
:10A50000A2FB06722748D1F8B8900178520802EBF6
:10A510004202B21A84F8112329B12349234A096857
:10A52000914200F06F81B9F1000F16D0204E1196C4
:10A530000DF16008A6F1120748F8207D48F2A50247
:10A54000152329464046A4F8142384F81633C84737
:10A55000002840F00E8494F81033114A0133A2FB16
:10A560000312520802EB42029B1A84F81033B8E639
:10A570003D2900203C290020C4A8002010260020EE
:10A5800000000020A62700203CA3002047E801008F
:10A5900000A30020E8740020DCA0002024BF0308F2
:10A5A000ABAAAAAA90B80020A0330020A44700209C
:10A5B00039290020CD4ACE4B92F80AC0029AD4F82D
:10A5C000846110681B88CB4A4FF47A71801B01FBB1
:10A5D0000CF1DFB200261B0A88429777D3771775F4
:10A5E00053759670167180F09982C349C3488F687D
:10A5F0000B68C349C34E91F800C096F814B080FBB5
:10A6000003E1DB17C3EBA10180FB070E1177F817FD
:10A610000912C0EBAE00BC4B51774FF4FA71071230
:10A6200082F82000518347F2305078211CF0020F4D
:10A6300082F8217083F81AB0508482F8241000F058
:10A640002D82D6F80080B149D6F804E0B04ADFF890
:10A65000F0C281FB08704FEAE87781FB0E91C7EBEF
:10A66000A0574FEAEE70C0EBA15002FB078102FB3E
:10A6700000E201EB410102EB4202490052008CFB77
:10A6800001A98CFB02ACB6F80EA0368900EB800065
:10A690000AEBCA0A00EB8000049006F5FA764FEA4E
:10A6A0008A004FEAA9490590B6B2C8174FEAD87890
:10A6B000039683F80980974EA9EB00084FEAE27AE7
:10A6C0004FEAAC4C404606FB1010ACEB0A018C463E
:10A6D00007EB870706FB1121049E8F4ADFF864A26F
:10A6E000BBF1050F4FFA88F8DFF85CB207EB87077C
:10A6F0004FFA8CFC08EB87070CEB860CDFF84C82DA
:10A70000059EBBF80090DDF80CB083F815B04FEA59
:10A71000DE7EA2FB0662BFB21FFA8CFC83F80EE05D
:10A7200088FB006E88FB01684FEAE0704FEAE17138
:10A73000C0EB6E10C1EB68114FEA92124FEA172876
:10A74000BAF800E018734FEA1C2A5E464FEA162654
:10A750009F7283F80B804FEA20274FEA212883F865
:10A760000FC083F810A04FEA122C4FEA192A34BF09
:10A77000322033205F73597483F812809E75DA712A
:10A7800083F808C083F8139083F814A0D87683F870
:10A790001CE0C4F8805146E4DFF8B481D8F800002A
:10A7A00025F0C5F9C0B201280ED9022840F03E823A
:10A7B0005A4B1A78002A41F02084D4F88821AA1A2A
:10A7C000B2F57A6F81F00686554E3768002F3FF458
:10A7D0005CAC99F80030002B7FF42FAC514BD8F8CB
:10A7E00000001B689B781E3B012B41F20184043062
:10A7F00002212CF069FE0122002389F8002084F850
:10A80000943140E4DFF84C9190E67D2B00F0078214
:10A8100094F8A22122B180F02003DBB284F8A211C7
:10A82000B4F8A02194F897111A44062992B20BD8D3
:10A830006018013180F8A431A4F8A021C4F89C511B
:10A8400084F897113068E4E5130A53FA82F2FF2A7C
:10A8500087F80180A4F8A02140F01C81C4F89CA1D5
:10A86000FFF76CFB0346C4F8AC313068CEE52E4CE4
:10A87000227832B12D4B2E49186825F029F9002392
:10A8800023702C4F3C78002C7AD0DFF8CCA0DAF87B
:10A890006060002E40F01381274B3E70C3F80453D4
:10A8A00013E50D2B7FF4D8ADA4F8A021C4F89C21AA
:10A8B000AFE5FF224FF6FF738EE5C4F89CB1306818
:10A8C000A7E5FFF73BFB1D4B1B68C01A40F6B833EA
:10A8D000984200F2D580DFF8849099F804303A2B42
:10A8E00001F0908300233370A9E400BFC0A00020D2
:10A8F00040A300209CA9002048A30020676666664C
:10A9000004A30020A0820020C8A900206BCA5F6BAE
:10A91000806967FF40420F00D34D621000000020A5
:10A92000D8A80020D4A8002060A90020F8A9002001
:10A9300020A90020FDA90020102600201C320020A4
:10A9400083DE1B436CB70020C0A800201F85EB519D
:10A95000D0A80020C94E03080CAA0020DC3100203A
:10A96000B54F386825F0D7F800283FF468AC386850
:10A97000012125F0CDF802220023A27033705EE49D
:10A98000AE4E3378002B40F07F81AD4CAD4FD4F804
:10A9900004233978AC4B93FBF1F313449D42FFF44D
:10A9A00094ACAA4A94F80833C4F8045312F803800C
:10A9B00018F0010F41F0C38418F0020F41F08084B9
:10A9C00018F0040F41F00B8418F0080F41D0A04B91
:10A9D000A04E11930DF16008A3F13D0248F8202D1F
:10A9E0004FF48851022223F8401C03F83E2C4046C5
:10A9F000316825F020FE4046716825F01CFEF38981
:10AA0000954A03EBC30399000531A2FB0131C1F361
:10AA1000CF01404625F026FE338A03EB830359001D
:10AA200089B2404625F01EFE8C4B1B78980743BF29
:10AA3000318901F57A7189B24FF47A71404625F077
:10AA400011FE109B327D591C109140461A702CF05B
:10AA5000F1FD94F808333978013393FBF1F201FBEF
:10AA6000123384F8083330E484F896B184F897B14F
:10AA700084F8988187F801B0C4F89CB13068C8E4C4
:10AA80006F4AB2F8B63100210133A2F8B631317005
:10AA9000FFF7D5BBC4F89C513068BAE42D22DA76B2
:10AAA00077E6C4F89C0184F8968187F801803068C5
:10AAB000AFE46B4A02EB8302D2F8B89033E500248E
:10AAC000DFF8C09126464FF050080BE01C44EFF32E
:10AAD000118388F31288DAF86020944217DADBB227
:10AAE00083F311881AF804B0601C594650442BF0C7
:10AAF000F5FF0BF101030028E8D049463A202BF07E
:10AB00004FFF0BF1010B0643F6B25C44DFE7002276
:10AB1000DBB2CAF8602083F31188BDE6514B02997D
:10AB20001B780968C4F88411013B012B3FF65DAD29
:10AB3000102102239170137157E50CF10103614656
:10AB400084F8952184F8943124F0F4FFFFF79BBA40
:10AB50002CF0F0FCFFF797BA434B1B88DA0515D4AD
:10AB6000DE0601F13384980601F13F85590601F1B3
:10AB7000AA851A0701F1DF85DE0701F1E08513F0F0
:10AB8000020F0CBF4FF0040A4FF00C0A374A384B43
:10AB90001678DB7806F001060BB146F0020653206A
:10ABA0002CF0D6F8334B1B8803EB830303EB8303B2
:10ABB000980080B22CF0B0F800202CF0ADF82E4BAD
:10ABC0002E4A1B883868C3EBC3135B0082FB031259
:10ABD0001A44DB17C3EB62235FFA83FB594624F068
:10ABE000A9FF99F8003038688BEA03034AEA0606A1
:10ABF000002189F8003024F09DFF3146386824F0A8
:10AC000099FF99F8003038687340DBB2194689F82B
:10AC1000003024F08FFF94F8B461FFF7CABA84F8CB
:10AC2000A281C4F89C113068FFF7F3BB2CF072FCD2
:10AC3000134B01221A70C7E54C380020FCA90020F4
:10AC40001026002004AA0020A086010000AA0020EF
:10AC500020A90020A0820020CDCCCCCC04A30020D1
:10AC600024BF03084EA1002054A30020789900209F
:10AC70000CA3002040A3002006A30020030820808E
:10AC800000000020697603086449654B0093A1F138
:10AC90003F07644B644A0F9101F8404C10A8634988
:10ACA0000E9725F0D5FD0E9F7B1C0E933C700E9BDE
:10ACB0002922591C0E911A700E9BEA22591C0E91E2
:10ACC0001A700E9BC822591C0E9110A81A702FF0F2
:10ACD00097FB00F1010810A942460E9830F0BCFB2A
:10ACE0000E9A02EB080301330E9302F808400E9B04
:10ACF0005A1C0E921C700E9B5A1C0E921C700E9BBE
:10AD00005A1C0E921C700E9B5A1C0E921C700E9BAD
:10AD10005A1C0E921C700E9B5A1C0E921C700E9B9D
:10AD20005A1C0E921C700E9B5A1C0E921C700E9B8D
:10AD30005A1C0E921C700E9B5A1C0E921C700E9B7D
:10AD40005A1C0E921C700E9B5A1C0E921C700E9B6D
:10AD50000122991818A80E911A7050F8283DDB1B93
:10AD60003B702CF067FC324B3470C3F80453FFF790
