:020000040800F2
:10000000F0FF0010BDB2030869BC0208192C0108FA
:10001000E9B30308E9B30308E9B3030800000000EB
:1000200000000000000000000000000075BC020895
:1000300071BC0208000000006DBC02085D9F010851
:10004000E9B30308E9B30308E9B30308E9B3030814
:10005000E9B30308E9B3030895440208C14502085F
:1000600085450208494502080D4502080D7F020832
:10007000FD7E0208ED7E0208DD7E0208C97E0208D0
:10008000B57E0208A17E0208E9B30308E9B30308BC
:10009000E9B30308E9B30308E9B30308D14402084C
:1000A000E9B30308493D0108E9B30308093E010823
:1000B000E9B30308E9B30308893C0108E9B303087D
:1000C000E9B30308E9B30308E9B30308E9B3030894
:1000D000E9B3030855A20108B9A101081DA101084F
:1000E00059440208E9B30308E9E402083D3A01086B
:1000F000093B0108E9B30308C93B01088D7E0208EA
:10010000E9B30308E9B30308E9B30308E9B3030853
:1001100081A00108E59F0108D5EF0208B9EF0208A8
:10012000797E0208657E0208D1740208517E0208B9
:100130003D7E0208E9B30308E9B30308E9B3030805
:10014000E9B30308E9B30308E9B303084DD0020893
:10015000297E0208157E0208017E0208E9B3030821
:10016000E9B30308E9B30308E9B30308E9B30308F3
:10017000E9B30308E9B30308E9B30308E9B30308E3
:10018000E9B30308E9B3030864AE0300010000000B
:1001900019000500602F00206030002000000000E2
:1001A0000406000827000400F82E00206830002014
:1001B000000000000A060008101002003C2E00207B
:1001C0006C300020000000000E060008012008002E
:1001D000142E0020703000200000000010060008DF
:1001E0001A000A00F82D00207830002000000000DE
:1001F00018060008F8110800582700208430002055
:10020000000000002206000803123300252700200A
:100210002A300020000000002A06000825005A00AD
:100220006C270020D02F00200000000000000000FC
:10023000F6110C00442E0020C42F00200000000006
:10024000600600082C00100008430020F84200203F
:100250000000000089D101082B0024003C4300204D
:10026000184300200000000059D101082900640053
:100270001042002060430020000000000000000049
:1002800023001000CC3C0020C443002000000000EC
:100290006DB1010828001000E4430020D443002081
:1002A0000000000055B1010814000200BC4100200C
:1002B000F4430020000000006C0600080C106000F1
:1002C0006A380020F84300200000000039E50208E9
:1002D0000E20EA005A370020584400200000000099
:1002E0005980000813000400983D00204445002078
:1002F000000000007006000801010400DA3600204A
:10030000484500200000000000000000000104003B
:10031000D23600204C450020000000007406000882
:1003200002010300CD3600205045002000000000EF
:1003300065E5020809020100983F002054450020AD
:10034000000000007806000801020500E2360020E7
:10035000584500200000000039A9010800020500EE
:10036000B0340020604500200000000000000000C4
:1003700004004000804A0020404A002000000000A5
:100380000000000003010A002C7200209886002063
:10039000000000007A060008F90104002C6F00201C
:1003A000A486002000000000E5310208FD011E00C7
:1003B000086F0020A88600200000000075310208A8
:1003C0000610120078720020C8860020000000008D
:1003D00089800008FB0101006C6E0020DC86002093
:1003E00000000000A5E50208FC010900386D0020AE
:1003F000E086002000000000E5E502081102080088
:100400000C6D0020EC86002000000000840600082F
:1004100012120400046D0020F48600200000000089
:100420008C06000812200D00F06C0020F8860020D9
:10043000000000009006000818202C004C6C0020E2
:1004400008870020000000003DF501080D00340081
:10045000786C002034870020000000009DE6020830
:10046000FA010200146C00206887002000000000E0
:100470002D360208020203009C6100206C870020D8
:1004800000000000000000000C0201008C61002050
:1004900070870020000000009E060008FE01090091
:1004A0006072002074870020000000004DE6020802
:1004B0000A10300038630020808700200000000010
:1004C000A0060008160008005C890020FC890020B6
:1004D00000000000D006000802000C005089002037
:1004E000248A00200000000000000000080209002B
:1004F000AE890020308A00200000000021E60208BA
:10050000F7010600A88900203C8A002000000000B6
:10051000D80600080A020A007C880020448A0020CD
:1005200000000000DE0600081E00040074A4002085
:10053000B8B8002000000000E806000822000C0007
:100540009CB70020BCB8002000000000EC060008AA
:100550001B00F4006CA10020C8B8002000000000BF
:10056000695303080E02020054AA0020BCB90020FF
:1005700000000000F80600082F00110080B80020DD
:10058000C0B9002000000000FA06000805100600AF
:10059000ACB80020D4B90020000000000C0700080F
:1005A000F5216E00E4A00020DCB90020000000006E
:1005B0007940030826000E005CBA00204CBA0020E7
:1005C00000000000514003080B20100054A100203F
:1005D0006CBA002000000000120700081F101C0069
:1005E000C4A000207CBA0020000000002207000800
:1005F00005020100ACA6002098BA0020000000000F
:100600003E0700080000280100002003000000054C
:10061000E8036400040A00017E05EA05B40532001F
:10062000000002013C4BF401190000000000000032
:1006300000000000000000000000000000000000BA
:1006400000000000000000000000000000000000AA
:100650000000000000000000000000000100000099
:100660000000000000000000000000000300000087
:1006700008044510803E00002600040101006C16AD
:10068000000000000000000001010101FFFFFFFF6A
:100690000000000100000548455350000000010023
:1006A00000300400005A00000000000000000000BC
:1006B00000000000020000002000AC0D5800AC0D4E
:1006C0005800C40958007800780078001400000031
:1006D000C4090000190128283F00010000000000A3
:1006E0004A01B400D601260000000100C800141E13
:1006F000010064002C012800000000000000000040
:1007000000000000000000000000000020000101C7
:1007100000002B21231E64010100000001000A01DA
:10072000290000000000000001000000050000009A
:1007300000000000000000000000000000000000B9
:1007400000803F00000000000000000000000000EA
:1007500000803F00000000000000000000000000DA
:100760000000000000000000000000000000000089
:10077000000000000000000000803F0000000000BA
:1007800000000000000000FFFFFFFF01000000006C
:1007900000803F0000803F0000803F00000000001C
:1007A00000000000000000010102FFFFFF0000E068
:1007B0000101010100000029AB010800000000EC6C
:1007C000010020802D04080000000000000000004F
:1007D000000000000000006C33040800000000006E
:1007E0000000009002002004000000042D04080D09
:1007F000000000F5DF0108B41B002000000000A08D
:100800002604080D0000001DE00108A81B002000C0
:100810000000001028040808000000000000009CF0
:100820001B0020040000000C2704080D000000DD60
:10083000AB0108901B002000000000C02704080343
:100840000000005DE20108841B0020000000009011
:100850002D0408030000005DE20108781B00200061
:10086000000000EC2304080100000000000000006C
:1008700000000000000000000000000E000000006A
:100880000000000000000000000000802D040800AF
:100890000000000000000000000000000000006CEC
:1008A0003304080000000000000000900200200453
:1008B000000000B02C04080300000009DE01086CF1
:1008C0001B0020080000000C2704080D000000DDBC
:1008D000AB0108901B002000000000C027040803A3
:1008E0000000005DE20108841B0020000000009071
:1008F0002D0408030000005DE20108781B002000C1
:10090000000000EC230408010000000000000000CB
:1009100000000000000000000000000E00000000C9
:100920000000000000000000000000982D040800F6
:100930000000000000000000000000000000006C4B
:1009400033040800000000000000009002002004B2
:10095000000000B82C0408030000005DE20108C09C
:100960001B002000000000EC230408010000000030
:100970000000000000000000000000000000000E69
:100980000000000000000000000000000000002047
:10099000700020702D7200D601000095C101080082
:1009A000000000000000000108000000010101003B
:1009B000000000000000000000000028170020FFD9
:1009C000FFFFFFFA00000001000000010000002D01
:1009D000202D2D202D2D2D2D202D2D2D0000000022
:1009E000000000000000000000000000000000BC4B
:1009F000230408C4230408E42304080000000000C2
:100A000000000000000000000000004D2304080466
:100A10000000007DDD01080000000000000000EC87
:100A20002304080100000000000000000000000096
:100A3000000000000000000E0000000000000000A8
:100A4000000000000000005AA400200100C40900BA
:100A500000000058A400200100C409000000005656
:100A6000A400200100C4090000000054A4002001DB
:100A700000C4090000000050A400200100C40900C7
:100A800000000052A400200100C409000000004E34
:100A9000A400200100C409000000004CA4002001B3
:100AA00000C40900000000F43600200100C8000165
:100AB000000000F23600203200307532000000F0F5
:100AC000360020055A0500ED36002000FF0100EF3A
:100AD00036002001000000B0020020EB36002002AA
:100AE00000000010F00308EC36002000FF0100EECB
:100AF00036002001000000B0020020EA360020028B
:100B000000000010F00308E036002080C1803E05A0
:100B1000000000DE36002080C1803E05000000D8C5
:100B200036002080C1803E05000000D636002080BF
:100B3000C1803E05000000D036002000FF0100CC3F
:100B40003600200A320100CB3600200400000000ED
:100B5000E00308CA3600200200000014E003080089
:100B600000000000000000B8020020488600209C21
:100B7000FF2C0100000000720000200A000000208D
:100B8000E00308C0360020E0150C170000000074D8
:100B900000002008000000C8E403087300002005DE
:100BA00000000018E10308C23600200200000038EF
:100BB000E00308DE3800200100FF7F01000000DDB7
:100BC0003800200200000044E003084F37002003F3
:100BD00000000054E003084E3700200300000054DA
:100BE000E003084C3800200000F401010000004A36
:100BF0003800200000F40101000000483800200007
:100C000000F40101000000463800200000F401015A
:100C10000000004438002000FF010068380020E890
:100C200003D0070A00000066380020006401000AB3
:100C30000000005B380020006401005A38002000EA
:100C400064010062380020006401000A00000061B5
:100C5000380020006401000A000000603800200015
:100C60006401000A00000065380020006401000AE9
:100C700000000064380020006401000A00000063E6
:100C8000380020006401000A0000005F38002000E6
:100C9000FF01000A0000005E38002000FF01000A8A
:100CA0000000005D38002000FF01000A000000562F
:100CB0003700200000F4010100000054370020003C
:100CC00000F40101000000523700200000F401018F
:100CD000000000503700200000F401010000005621
:100CE0003800201400E8030100000054380020E818
:100CF000033075010000005338002000C801005285
:100D000038002000C801005138002000C801005000
:100D1000380020016401000A0000004F3800200064
:100D2000FF01000A000000D338002000C80100D2F3
:100D300038002000C80100D138002000C80100D0D0
:100D400038002000C80100CF38002000C80100CEC4
:100D500038002000C80100CD38002000C80100CCB8
:100D600038002000C80100CB38002000C801001462
:100D70002404080000000000000000000000000043
:100D80000000002424040809000000000000005CAA
:100D9000030020040000002C2404080900000000C7
:100DA00000000050030020040000008C2A04080901
:100DB0000000000000000044030020040000006068
:100DC000220408090000000000000038030020048D
:100DD0000000003424040809000000000000002C7A
:100DE000030020040000003C240408090000000067
:100DF000000000200300200400000044240408092F
:100E00000000000000000014030020040000004C5B
:100E1000240408090000000000000008030020046A
:100E2000000000EC230408010000000000000000A6
:100E300000000000000000000000000E00000000A4
:100E400000000000000000000000008025040800F1
:100E5000000000000000000000000000000000CCC6
:100E600017040807000000000000008003002000B5
:100E70000000009025040808000000000000007435
:100E8000030020000000009C25040808000000006A
:100E90000000006803002000000000EC23040801AB
:100EA0000000000000000000000000000000000042
:100EB0000000000E00000000000000000000000024
:100EC000000000A42504080000000000000000004D
:100ED00000000000000000B42504080D0000000020
:100EE000000000BC03002000000000BC2504080D29
:100EF00000000000000000B003002000000000C45B
:100F00002504080700000000000000A803002000DE
:100F1000000000CC2504080D000000000000009C2B
:100F200003002000000000D42504080D000000008C
:100F30000000009003002000000000DC25040807EA
:100F4000000000000000008803002000000000EC0A
:100F50002304080100000000000000000000000061
:100F6000000000000000000E000000000000000073
:100F700000000000000000E425040800000000005C
:100F80000000000000000000000000CC1704080C66
:100F900000000000000000F636002000000000F80D
:100FA0002504080C00000000000000F836002000B6
:100FB000000000082604080C000000000000002EBD
:100FC00037002000000000182604080C0000000074
:100FD00000000022370020000000002C2604080C2E
:100FE00000000000000000FA360020000000003879
:100FF0002604080C00000000000000FC3600200061
:10100000000000402604080C00000000000000FE64
:1010100036002000000000542604080C00000000E8
:1010200000000000370020000000005C2604080CCF
:1010300000000000000000023700200000000064F3
:101040002604080C000000000000004037002000CB
:101050000000007C2604080C0000000000000004D2
:1010600037002000000000882604080C0000000063
:101070000000000637002000000000902604080C45
:101080000000000000000008370020000000009C65
:101090002604080C000000000000000A37002000B1
:1010A000000000A82604080C000000000000000C4E
:1010B00037002000000000B42604080C00000000E7
:1010C0000000000E37002000000000C02604080CBD
:1010D000000000000000001037002000000000CCDD
:1010E0002604080C00000000000000123700200059
:1010F000000000D82604080C0000000000000026B4
:1011000037002000000000E02604080C000000006A
:101110000000002437002000000000E82604080C2E
:10112000000000000000003237002000000000F442
:101130002604080C000000000000003437002000E6
:10114000000000002704080C000000000000003A26
:1011500037002000000000DC2404080C0000000020
:1011600000000014370020000000000C2704080CC9
:10117000000000000000001C3700200000000014E8
:101180002704080C000000000000001637002000B3
:10119000000000202704080C0000000000000018D8
:1011A000370020000000002C2704080C000000007D
:1011B0000000001A37002000000000342704080C4B
:1011C000000000000000001E37002000000000ECBE
:1011D0001704080C00000000000000283700200061
:1011E000000000402704080C000000000000002060
:1011F000370020000000004C2704080C000000000D
:101200000000003037002000000000582704080CC0
:10121000000000000000002A3700200000000060ED
:101220002704080C000000000000002C37002000FC
:10123000000000682704080C0000000000000036D1
:1012400037002000000000702704080C0000000098
:101250000000003837002000000000EC23040801E3
:10126000000000000000000000000000000000007E
:101270000000000E00000000000000000000000060
:1012800000000078270408000000000000000000B3
:1012900000000000000000842704080D000000008A
:1012A00000000014040020000000008C2704080D3A
:1012B000000000000000000804002000000000946E
:1012C00027040807000000000000000004002000C0
:1012D000000000A02704080700000000000000F83C
:1012E00003002000000000AC2704080900000000F3
:1012F000000000EC03002000000000B827040809EB
:1013000000000000000000E003002000000000C416
:101310002704080900000000000000D4030020009A
:10132000000000D42704080900000000000000C8E5
:1013300003002000000000EC23040801000000006E
:101340000000000000000000000000000000000E8F
:10135000000000000000000000000000000000E8A5
:10136000270408000000000000000000000000004A
:10137000000000F827040805000000000000004DF0
:1013800037002000000000EC2304080100000000EA
:101390000000000000000000000000000000000E3F
:1013A000000000000000000000000000000000003D
:1013B00028040800000000000000000000000000F9
:1013C0000000006C3304080000000000000000185A
:1013D0001F0020040000000C2804080D000000E19C
:1013E000DD01086804002000000000042D04080D41
:1013F000000000E1AA01085C04002000000000A039
:101400002604080D000000C5AA01085004002000B1
:10141000000000102804080800000000000000443C
:10142000040020040000000C2704080D0000000F39
:10143000AA01083804002000000000182804080948
:10144000000000000000002C04002004000000C088
:10145000270408030000005DE201082004002000CA
:10146000000000EC23040801000000000000000060
:1014700000000000000000000000000E000000005E
:101480000000000000000000000000202804080008
:10149000000000000000000000000000000000301C
:1014A0002804080D00000000000000800400200057
:1014B000000000382804080A00000000000000F5C1
:1014C0003D002000000000442804080A000000003D
:1014D000000000FD3D0020000000004C2804080A28
:1014E00000000000000000053E0020000000005445
:1014F0002804080800000000000000740400200018
:101500000000005C28040804000000F5E301080066
:1015100000000000000000EC2304080100000000AF
:101520000000000000000000000000000000000EAD
:101530000000000000000000000000000000006843
:101540002804080000000000000000000000000067
:101550000000007C2804080D000000000000009836
:10156000040020000000008C2804080400000099FA
:10157000E001080000000000000000942804080DAD
:10158000000000000000008C04002000000000A803
:101590002804080400000075E001080000000000B5
:1015A000000000EC2304080100000000000000001F
:1015B00000000000000000000000000E000000001D
:1015C0000000000000000000000000B02804080037
:1015D000000000000000000000000000000000C447
:1015E0002804080700000000000000D404002000C8
:1015F000000000D02804080800000000000000C817
:1016000004002000000000DC28040808000000009E
:10161000000000BC04002000000000E828040808C6
:1016200000000000000000B004002000000000F4F2
:101630002804080800000000000000A404002000A6
:10164000000000EC2304080100000000000000007E
:1016500000000000000000000000000E000000007C
:101660000000000000000000000000002904080045
:101670000000000000000053020020000000000CE9
:101680002904080B00000000000000640500200091
:10169000000000182904080B00000000000000589A
:1016A00005002000000000242904080B00000000B1
:1016B0000000004C05002000000000302904080B49
:1016C0000000000000000040050020000000003C79
:1016D0002904080B00000000000000340500200071
:1016E000000000482904080B00000000000000284A
:1016F00005002000000000542904080B0000000031
:101700000000001C05002000000000602904080BF8
:101710000000000000000010050020000000006C28
:101720002904080B00000000000000040500200050
:10173000000000782904080700000000000000FCF9
:1017400004002000000000802904080700000000B9
:10175000000000F4040020000000008C2904080BA5
:1017600000000000000000E80400200000000098D5
:101770002904080800000000000000DC040020002C
:10178000000000EC2304080100000000000000003D
:1017900000000000000000000000000E000000003B
:1017A0000000000000000000000000A42904080060
:1017B000000000000000000000000000000000B871
:1017C0002904080800000000000000940500200023
:1017D000000000C429040808000000000000008880
:1017E00005002000000000D02904080800000000C7
:1017F0000000007C05002000000000DC290408082F
:10180000000000000000007005002000000000EC57
:101810002304080100000000000000000000000098
:10182000000000000000000E0000000000000000AA
:1018300000000000000000E429040800000000008F
:101840000000005002002000000000F42904080BF2
:1018500000000000000000DC050020000000000087
:101860002A04080B00000000000000D00500200042
:101870000000000C2A04080700000000000000C857
:1018800005002000000000182A04080700000000DE
:10189000000000C005002000000000242A04080702
:1018A00000000000000000B805002000000000302B
:1018B0002A04080800000000000000AC0500200019
:1018C000000000382A04080800000000000000A002
:1018D00005002000000000EC2304080100000000C7
:1018E0000000000000000000000000000000000EEA
:1018F00000000000000000000000000000000040A8
:101900002A0408000000000000000050020020002F
:101910000000004C2A040807000000000000002816
:1019200006002000000000542A0408070000000000
:1019300000000020060020000000005C2A040807C8
:101940000000000000000018060020000000002831
:10195000220408070000000000000010060020001C
:10196000000000302204080700000000000000080A
:1019700006002000000000382204080700000000D4
:101980000000000006002000000000642A04080790
:1019900000000000000000F8050020000000006CBE
:1019A0002A04080700000000000000F005002000E5
:1019B000000000742A04080700000000000000E88E
:1019C00005002000000000EC2304080100000000D6
:1019D0000000000000000000000000000000000EF9
:1019E00000000000000000000000000000000000F7
:1019F00000000051AE0108300600204B3700201CCB
:101A000000000064E003084A37002000C8010048D5
:101A1000370020E803D0070100000048454C494F3B
:101A2000535052494E4700E936002000030100E8B8
:101A30003600200003010099AD010871AD01080CCA
:101A40000700202DAD0108E1AC010884070020D972
:101A5000AD0108C1AD0108380800204DAC010801F6
:101A6000AC0108440B002067AE010845E0010820E6
:101A70000C00204DAA010800000000700C0020D1CD
:101A8000E30108D1B001084C0D00208DAE01080023
:101A9000000000000E002031AF010801AF01088CEA
:101AA0000E0020BDAF010801B001082C0F00205826
:101AB00038002001060100CDAE0108A1AE01086C7E
:101AC00010002061AF0108BDE00108F81000202DD2
:101AD000B0010819E10108C01100204E38002001B2
:101AE0000301007C2A040800000000000000000040
:101AF00000000000000000882A0408080000000020
:101B0000000000D012002000000000902A04080706
:101B100000000000000000C812002000000000A02B
:101B20002A04080D00000000000000BC1200200084
:101B3000000000AC2A0408030000005DE20108B0C8
:101B400012002000000000EC230408010000000047
:101B50000000000000000000000000000000000E77
:101B6000000000000000000000000000000000B4C1
:101B70002A0408000000000000000000000000002F
:101B8000000000C42A04080A00000000000000CC85
:101B90002A040800000000D42A04080A00000000FB
:101BA000000000F420040800000000DC2A04080AF9
:101BB00000000000000000D438002000000000E415
:101BC0002A04080A00000000000000DC12002000C7
:101BD000000000EC230408010000000000000000E9
:101BE00000000000000000000000000E00000000E7
:101BF0000000000000000000000000EC2A040800C3
:101C0000000000000000000000000000000000F8DC
:101C10002A0408030000005DE20108101300200000
:101C2000000000042B0408030000005DE20108042A
:101C3000130020000000000C2B0408030000005DCE
:101C4000E20108F812002000000000142B0408052F
:101C500000000000000000E7360020000000001C2B
:101C60002B04080700000000000000F01200200014
:101C7000000000282B04080700000000000000E816
:101C800012002000000000EC230408010000000006
:101C90000000000000000000000000000000000E36
:101CA0000000000000000000000000000000003400
:101CB0002B040800000000000000000000000000ED
:101CC000000000482B0408030000005DE20108400A
:101CD00013002000000000542B0408030000005DE6
:101CE000E2010878000020000000005C2B040803DB
:101CF0000000005DE20108341300200000000064D1
:101D00002B0408030000005DE201082813002000F6
:101D10000000000C270408030000005DE201081C1D
:101D200013002000000000EC230408010000000064
:101D30000000000000000000000000000000000E95
:101D40000000000000000000000000000000007023
:101D50002B0408000000000000000000000000004C
:101D60000000007C2B04080700000065E101089CCE
:101D70001300200000000030270408030000005D6D
:101D8000E201089013002000000000882B040803E3
:101D90000000005DE20108841300200000000090B4
:101DA0002B0408030000005DE20108781300200006
:101DB000000000982B04080700000049E1010870AA
:101DC00013002000000000BC210408030000005D97
:101DD000E201086413002000000000A42B040803A3
:101DE0000000005DE201085813002000000000B070
:101DF0002B0408030000005DE201084C13002000E2
:101E0000000000EC230408010000000000000000B6
:101E100000000000000000000000000E00000000B4
:101E2000000000000000000000000021AE0108F1E9
:101E3000AD0108A41300209DB0010800000000308F
:101E4000140020BDAC010899AC0108BC14002000AE
:101E5000000000000000007015002075B00108812E
:101E6000E1010810160020BC2B040800000000004F
:101E70000000000000000000000000C82B04080360
:101E80000000005DE201081C17002000000000D0E7
:101E90002B0408030000005DE20108101700200079
:101EA000000000E4180408030000005DE2010804DB
:101EB00017002000000000DC2B0408030000005D78
:101EC000E20108F816002000000000E82B040803D7
:101ED0000000005DE20108EC16002000000000F0A8
:101EE0002B04080200000041E4010800000000008B
:101EF000000000F82B04080200000041E401080182
:101F000000000000000000042C0408020000004152
:101F1000E401080200000000000000000000000EC4
:101F2000000000000000000000000000000000C6EB
:101F300036002088136F1701000000C83600208883
:101F4000136F1700000000102C04080000000000B0
:101F50000000000000000000000000202C04080821
:101F600000000000000000FC170020040000002C0E
:101F70002C04080800000000000000F017002000FA
:101F8000000000C02704080400000049DE0108002A
:101F900000000000000000EC230408010000000025
:101FA0000000000000000000000000000000000E23
:101FB000000000000000000000000000000000C45D
:101FC00036002088136F17010000008686002088E5
:101FD000136F170000000091AB010800000000081B
:101FE000180020973D002001000000D8E003088879
:101FF00086002001000000E4E003087E8600200245
:10200000000000ECE0030846720020000000000021
:1020100000000044720020000000000000000042A8
:10202000720020000000000000000040720020004C
:10203000000000000000003E7200200000000000D0
:102040000000003C72002000000000000000005072
:102050001F00200000000000000000C33600200226
:10206000000000F8E00308682C04080000000000ED
:102070000000000000000000000000202C04080800
:10208000000000000000008C180020040000002C5C
:102090002C04080800000000000000801800200048
:1020A000000000C02704080400000061AB01080024
:1020B00000000000000000EC230408010000000004
:1020C0000000000000000000000000000000000E02
:1020D0000000000000000000000000000000007888
:1020E0002C040800000000000000000000000000B8
:1020F000000000882C04080D00000099DF0108BCD6
:1021000018002004000000942C04080D000000B901
:10211000AB0108B018002004000000A02C04080D3A
:102120000000005DDF0108A418002000000000ACE2
:102130002C04080300000029DE010898180020087C
:10214000000000B82C0408030000005DE20108C094
:102150001B002000000000EC230408010000000028
:102160000000000000000000000000000000000E61
:10217000000000000000000000000000000000E47B
:102180002304080000000000000000000000000020
:102190000000004D2304080400000061DE01080077
:1021A00000000000000000EC230408010000000013
:1021B0000000000000000000000000000000000E11
:1021C0000000000000000000000000000000000C03
:1021D0002D040800000000000000000000000000C6
:1021E000000000B41A04080D000000000000001CEC
:1021F000190020040000001C2D0408080000000045
:102200000000001019002004000000282D04080818
:10221000000000000000000419002004000000304D
:102220002D04080800000000000000F81800200439
:10223000000000382D04080800000000000000EC39
:1022400018002004000000402D04080800000000D1
:10225000000000E018002004000000482D040808D9
:1022600000000000000000D418002004000000500E
:102270002D04080800000000000000C81800200419
:10228000000000EC23040801000000000000000032
:1022900000000000000000000000000E0000000030
:1022A000000000000000000000000079AB01080001
:1022B000000000281900200000000000000000A01D
:1022C0001900200000000000000000401A002084D7
:1022D0008600200400000004E1030882860020E05C
:1022E000150C17000000008186002008000000C8BF
:1022F000E40308808600200500000018E1030800C0
:1023000000000000000000901A00200100000050B2
:1023100001000007000000020000000000000000B3
:10232000000000010203040607080904030904125F
:102330000100020202004083044057000201020330
:1023400001000009024300020100C032090400003C
:10235000010202010005240010010524010001040E
:102360002402020524060001070582030800FF0974
:10237000040100020A0000000705010240000007F6
:1023800005810240000000FF00000000FFFF000088
:102390000000000800AA550501000000000001002F
:1023A000000000000000000000000001000000002C
:1023B00000803F0100000000600240106002400009
:1023C00000000000000000000B0000000000000002
:1023D0000000000000000000600240286002400190
:1023E00000000000000000060C00000000000000DB
:1023F0000000000000000000600240406002400257
:1024000000000000000000100D00000000000000AF
:10241000000000000000000060024058600240031D
:1024200000000000000000160E0000000000000088
:1024300000000000000000006002407060024004E4
:1024400000000000000000200F000000000000005D
:1024500000000000000000006002408860024005AB
:102460000000000000000026100000000000000036
:102470000000000000000000600240A06002400672
:10248000000000000000003011000000000000000B
:102490000000000000000000600240B86002400739
:1024A00000000000000000362F00000000000000C7
:1024B00000000000000000006402401064024000C0
:1024C00000000000000000003800000000000000D4
:1024D0000000000000000000640240286402400187
:1024E00000000000000000063900000000000000AD
:1024F000000000000000000064024040640240024E
:1025000000000000000000103A0000000000000081
:102510000000000000000000640240586402400314
:1025200000000000000000163B000000000000005A
:1025300000000000000000006402407064024004DB
:1025400000000000000000203C000000000000002F
:1025500000000000000000006402408864024005A2
:102560000000000000000026440000000000000001
:102570000000000000000000640240A06402400669
:1025800000000000000000304500000000000000D6
:102590000000000000000000640240B86402400730
:1025A00000000000000000364600000000000000AF
:1025B0000000000000000000000000010203040110
:1025C00002030406070809CD910208F1900208A948
:1025D0008A0208BD84020825880208CD840208E921
:1025E0008402089584020885840208000000000027
:1025F000000000619002088D870208A58F02080084
:102600000000005D840208E5890208798F02084114
:10261000890208000000000000000051840208D177
:10262000830208CD830208C9830208BD830208B96A
:10263000830208C5830208C1830208458402083961
:102640008402081184020825840208FD830208E937
:10265000830208D58302082D202D2D202D2D2D2D10
:10266000202D2D2D2D000000000000000000000096
:10267000000000000000AA550B010000AA55070148
:102680000000AA550902000000000001000000C07F
:1026900012AA5503009F0000000000148A002008C1
:1026A00000000000000000048A002008000000F084
:1026B000EC0308050804000000000018E10308C846
:1026C000E4030804E1030800000000000000001C0F
:1026D000ED030805080A000000000018E10308C81F
:1026E000E4030820E00308000000000000000001EF
:1026F000000000000001FFFF010000FF1FFF1F1886
:10270000180408000000000000000079E50208A09D
:10271000860100040000000000000000000000002E
:1027200000000000000000000000000000000000A9
:10273000000000302704086817040800000000812A
:10274000CB00087D00000006000000000000000033
:102750000000000000000000000000000000000079
:1027600000000000000000701704080000000000D6
:10277000000000BD300108E8030000030000000075
:102780000000000000000000000000000000000049
:102790000000000000000000000000F83304080002
:1027A00000000000000000918A00081027000003CC
:1027B0000000000000000000000000000000000019
:1027C0000000000000000000000000000000000405
:1027D00034040800000000C1CE01080D6F0108207C
:1027E0004E00000500000000000000000000000096
:1027F00000000000000000000000000000000000D9
:10280000000000B81904080000000000000000F1FA
:10281000A2010810270000010000000000000000D5
:1028200000000000000000000000000000000000A8
:102830000000000000000008340408000000000050
:1028400000000011270108E8030000050000000057
:102850000000000000000000000000000000000078
:102860000000000000000000000000143404080014
:102870000000000000000099F40208204E00000350
:102880000000000000000000000000000000000048
:102890000000000000000000000000000000002414
:1028A00034040800000000000000008DF20208203F
:1028B0004E000003000000000000000000000000C7
:1028C0000000000000000000000000000000000008
:1028D000000000343404080000000000000000453F
:1028E000270108400D030003000000000000000065
:1028F00000000000000000000000000000000000D8
:1029000000000000000000DC1804080000000000C7
:10291000000000F101030810270000010000000082
:1029200000000000000000000000000000000000A7
:1029300000000000000000000000008817040800EC
:1029400000000000000000E18A03081027000003D7
:102950000000000000000000000000000000000077
:10296000000000000000000000000000000000C0A7
:10297000190408000000000000000095450108A0AF
:102980000F00000100000000000000000000000037
:102990000000000000000000000000000000000037
:1029A0000000004434040800000000000000007132
:1029B000570308102700000100000000000000007D
:1029C0000000000000000000000000000000000007
:1029D00000000000000000E41804080000000000EF
:1029E000000000559E03081A41000001000000008D
:1029F00000000000000000000000000000000000D7
:102A00000000000000000000000000201A04080080
:102A100000000000000000713D03081027000001C5
:102A200000000000000000000000000000000000A6
:102A3000000000000000000000000000000000C0D6
:102A40003304080000000000000000DDE501081A62
:102A50004100000100000000000000000000000034
:102A60000000000000000000000000000000000066
:102A70000000005034040800000000000000008541
:102A8000650308400D030000000000000000000086
:102A90000000000000000000000000000000000036
:102AA000000000000000005834040800000000008E
:102AB000000000CD260108400D03000000000000CA
:102AC0000000000000000000000000000000000006
:102AD0000000000000000000000000603404080056
:102AE000000000000000004D910308A086010003D3
:102AF00000000000000000000000000000000000D6
:102B00000000000000000000000000000000006C59
:102B1000340408000000000000000059F2020840E0
:102B2000420F000000000000000000000000000054
:102B30000000000000000000000000000000000095
:102B40000000007834040800000000000000008548
:102B5000E8020850C3000000000000000000000070
:102B60000000000000000000000000000000000065
:102B70000000000000000001000000FFFFFFFF4414
:102B80002400200000000000000000000000000001
:102B90000000000000000000000000000000000035
:102BA0000000000000000000000000000000000025
:102BB0000000000000000000000000000000000015
:102BC0000000000000000000000000000000000005
:102BD00000000000000000000000000000000000F5
:102BE00000000043000000000000000000000000A2
:102BF00000000000000000000000000000000000D5
:102C00000000004300000000000000000000000081
:102C100000000000000000000000000000000000B4
:102C20000000004300000000000000000000000061
:102C30000000000000000000000000000000000094
:102C40000000004300000000000000000000000041
:102C50000000000000000000000000000000000074
:102C60000000004300000000000000000000000021
:102C70000000000000000000000000000000000054
:102C80000000004300000000000000000000000001
:102C90000000000000000000000000000000000034
:102CA00000000043000000000000000000000000E1
:102CB0000000000000000000000000000000000014
:102CC000000000BFB703089BB70308000000008A9C
:102CD000340408492304086EF003086EF003086EFC
:102CE000F003086EF003086EF003086EF003086E40
:102CF000F003086EF003086EF00308FFFFFFFFFF0C
:102D0000FFFFFFFFFFFFFFFFFF00000100415343F4
:102D10004949000000000000000000000000000021
:102D200000000000000000000000000000415343CC
:102D30004949000000000000000000000000000001
:102D40000000000000000000000000000000000083
:102D50000000000000000000000000000000000073
:102D60000000000000000000000000000000000063
:102D70000000000000000000000000000000000053
:10800000704720B10078B0FA80F040097047012035
:108010007047037903F00C03042B05D0082B0FD015
:10802000B3B9B0F80B0070470A4BB0F80B001B78DF
:1080300003EB8302C3EBC20300EB430080B2704743
:10804000044BB0F80B005B7800EB031080B2704774
:1080500000207047F06C002070B50A4C4E25064693
:1080600021462A4633F0CCFA2A462146701933F0CD
:10807000C7FA2A46214606F19C00BDE8704033F05D
:10808000BFBA00BFCCC0030830B401214FF4F07474
:10809000094A0A4B0480002536248170C0F80A2062
:1080A00037213822C0F80E30392345718471C171EF
:1080B0000272437230BC7047C2012E04D007E8033D
:1080C0003D4B3E4AD3ED015A93ED036AD3ED027A5C
:1080D000D3ED006A2DED048B25EEA59A26EE060A57
:1080E00039EE097A30EE005A27EEA78A26EE861A74
:1080F00065EEA71A66EEA72A26EEA52A67EE867A0F
:1081000065EE865AB1EE477AF0EE004AF0EE470A85
:10811000F0EE458AE8EE640AE8EE248A37EE457A06
:1081200071EEC13A31EE214A72EEA54A35EEE25ABD
:1081300037EEC26A66EEA66A33EEA33A74EE043AEC
:1081400034EEA44A75EE054A36EE065A32EE276A38
:10815000C3ED046AF7EE006A37EE267A70EEA60ADF
:1081600036EE066A76EEE86A83ED089A83ED0B8AAE
:1081700083ED0D0A82ED047AC2ED080AC2ED006AB1
:1081800083ED071AC3ED091A82ED013AC2ED033AF5
:1081900083ED052AC3ED062AC3ED0A5AC3ED0C7A16
:1081A00082ED024AC2ED064A82ED055A82ED076A67
:1081B000BDEC048B704700BF00000020102600209B
:1081C0002C4B1B68184483799BB107EE903ADFED86
:1081D0002A6AF8EEE77A20EEA07A67EEA67A27EE12
:1081E000207AF7EE006AD7EE877A77EEA67A20EE4D
:1081F000270AC378DFED206A07EE903AF8EEE77AB7
:10820000B0EE007A67EEA67AF4EEC77AF1EE10FAD5
:1082100005DD37EEC77ADFED196AE7EE267A437A95
:108220009FED177A20EE070A20EE270A03B3DFED51
:10823000127A9FED147A06EE903A60EEA77AF8EE85
:10824000E60A60EEA70AF4EEC70AF1EE10FA04DDC2
:10825000DFED0D7A20EE270A7047F5EEC00AF1EE49
:1082600010FA05D4F7EE007A77EEE00A80EE200AE5
:10827000704700BFA0A800200AD7233CD7A36841BD
:1082800000004843A4707D3F0000C842174B9FED9B
:10829000185A1B681844BFEE007A437A06EE103A6B
:1082A000C378A0EE007A07EE903A8379B8EE466A7A
:1082B00005EE903A60EE850AF7EE006AF2EE044AA7
:1082C000B0EE664A20EE240AA6EE204A27EE057A92
:1082D000F8EEE55AF8EEE77AE5EE876A67EE807A1F
:1082E00024EE270A20EE260A704700BFA0A800202F
:1082F0000AD7233C10F8113C0133DBB20A2B00F8FB
:10830000113C07D9044A10F8131C002322F811303D
:1083100000F8113C704700BF983B0020F0B45E4E5F
:108320005E4896F824205E4B5E4DDC6B2D78013262
:10833000A0FB0270000900EB8000A2EB80001A682D
:1083400086F82400914201EB04005C6811D293F896
:108350004520002A4ED000F58030B0FBF5F0844275
:108360000BD2041B4FF4803292FBF5F2A21A9A60F2
:108370000AE0B0FBF5F0844244D34FF4803292FB24
:10838000F5F2121B02449A6040F68C240025A242AA
:10839000C3E9001083F8455017D993F8402093F9AA
:1083A00042108A4256B241D0002093F9411083F81E
:1083B00043008A4247D00121002283F8426083F8BB
:1083C000441083F84020F0BC704793F84410002913
:1083D000F9D0A2F2EF2040F2DA5188421AD893F88D
:1083E00040100B2916D803EB81000131C26083F8DD
:1083F0004010E8E7B0FBF5F08442BED2041BA21A9D
:108400009A60C1E793F84520002AAAD1041BA21A5A
:108410009A60B9E7244A002102F1300083F8441041
:1084200042F8041F8242FBD1F0BC7047111F08299B
:10843000BAD893F84310182926D8013183F843108D
:1084400093F94110B5E793F844100029B3D0FAB17D
:108450001649154C0FFA82FC084601EB4C0754F8FC
:10846000045F20F8025BB842F9D10B2A07DC104800
:1084700001EB4C02002122F8021B9042FBD10D4976
:108480000A7801320A7096E783F84160314690E736
:1084900094460649EBE700BF10260020CDCCCCCC9B
:1084A000246E00206C1C00202C6E0020983B0020C5
:1084B000B03B0020903B002030B40F4D0F4B95F89F
:1084C00024200F4C0132A3FB02031B09E06B03EBDA
:1084D0008303A2EB83034FF6FF72914200F1010088
:1084E00085F82430084408BF0123E06308BF84F8FE
:1084F000453030BC704700BF10260020CDCCCCCC1E
:10850000246E002000286AD06D4B1A7CF0B4002A3B
:1085100043D11968002201280A6017D093F8281067
:10852000B1B99969002202280A600FD093F840106F
:10853000002955D1196B002203280A6006D093F850
:108540005810002978D19B6C00221A60F0BC70474B
:10855000DC695C4DA10AA94200F0A08040F28E8047
:10856000594DA94204D0594A914240F099800222C3
:10857000EFF31181502585F31288554E676AA58A5D
:1085800002EB820206EBC202013745F00105D76417
:10859000C9B2A58281F31188C3E75968494C8A0A98
:1085A000A24270D043D9484CA24270D00134A242BA
:1085B0006BD10224EFF31182502585F31288444ECB
:1085C0004F6A8D8A04EB840406EBC404013745F03E
:1085D0000105E764D2B28D8282F3118899E7704772
:1085E0005C6B384DA10AA94263D052D9364DA942DD
:1085F00003D0364A914255D10222EFF31181502522
:1086000085F31288324E676AA58A02EB820206EB76
:10861000C202013745F00105D764C9B2A58281F3D2
:108620001188196B002203280A6088D18EE7043C68
:10863000A2422AD10124BDE7D86C224C810AA14272
:1086400039D031D9204CA14203D0204A914234D1B3
:108650000222EFF31181502484F312881C4D466AE4
:10866000848A02EB820205EBC202013644F0010467
:10867000D664C9B2848281F3118864E7154A9142B5
:108680000ED1012274E7032494E7FE2492E700242C
:1086900090E7104A914205D10122AEE7032267E735
:1086A000FE2265E7FE22A8E70A4A914205D101228F
:1086B000CFE70322A1E70322CBE7FE22C9E700BFF1
:1086C000706E0020060010004000100041001000F5
:1086D0001026002002001000704770B4150BC2F382
:1086E0000324064605EB450504EB44044800C2F3A9
:1086F00003131835183402F00F02356003EB4303FF
:1087000046F8214002EB420201441833183246F881
:108710002030062046F8212070BC70472DE9F04F2C
:1087200012F4004F14BF4FF00E0B4FF0070B12F472
:10873000804F14BF4FF00E0A4FF0070A12F4005F8B
:1087400014BF4FF00E094FF0070912F4805F14BFF9
:108750004FF00E084FF007084FEA410C12F4006F7B
:1087600083B001EB0C0714BF4FF00E0E4FF0070E55
:1087700012F4806F01EB070614BF0E2307238D1937
:108780000193034612F4007F01EB0504C3F800B027
:1087900018BF0E2043F821A008BF072043F82C90F3
:1087A00012F4807F01EB040C43F8278043F826E0A5
:1087B00001EB0C0714BF4FF00E084FF00708019EA5
:1087C00043F8256012F0800F01EB070614BF4FF04D
:1087D0000E0E4FF0070E12F0400F43F8240001EB8D
:1087E000060514BF0E20072012F0200F43F82C803E
:1087F00001EB050414BF4FF00E0C4FF0070C12F004
:10880000100F43F827E043F8260018BF0E2701EBAE
:10881000040008BF072712F0080F43F825C018BF4F
:108820000E2643F8247008BF07260C1812F0040F18
:1088300043F8206018BF0E2501EB040008BF072590
:1088400012F0020F43F82450014414BF0E240724F1
:1088500012F0010F43F8204014BF0E22072212200D
:1088600043F8212003B0BDE8F08F1BF06FBF10B5B7
:108870000446B0F8090027F08DF801462046FFF7BE
:10888000C8FB4B68184410BD38B505460C46FFF7C9
:10889000EEFF2B7903F00303012B00D001D204700B
:1088A00038BD0480FCE708B5202132F0DAFF03462A
:1088B000184623B10278202A03F10103F8D008BD3D
:1088C00070B50D461446FFF7EEFF0646A0B132F034
:1088D00093FE40F634039842A8BF1846B0F5617F76
:1088E000B8BF4FF461701923A0F5617090FBF3F0ED
:1088F00028702378013323703046FFF7D4FF0646F3
:10890000A0B132F079FE40F634039842A8BF184671
:10891000B0F5617FB8BF4FF461701923A0F56170A5
:1089200090FBF3F06870237801332370304670BDFC
:1089300038B50D4632F060FE0C4B1978884204467B
:1089400005D201460A481CF0A5FA204638BD2DB1D3
:10895000FF2803D107481CF09DFAF6E701390648C5
:108960001CF098FA4FF0FF34EFE700BF5DA0002045
:1089700020F0030833F0030848F00308024BD3F853
:10898000C80030F059BA00BF102600200FB413B54C
:10899000094C0A49D4F8CC0004AB53F8042B0193DA
:1089A0001CF0FCF8D4F8CC001BF0C2FE02B0BDE80D
:1089B000104004B0704700BF102600206B880008EC
:1089C00038B50A4B03EBC0040D4694F8242108483F
:1089D00003EB8203196DFFF7D9FF94F82A3123B115
:1089E000691C0448BDE83840D0E738BDCCC0030856
:1089F00081F00308D9F20308F8B5064633F0F4F81D
:108A00001F4906EB460401EB4414257B05B9F8BD6C
:108A10001C4A237D1C4F1D4D3F782D6802EA400201
:108A20001A4393B21A1282EA13125A4002F00F024A
:108A300042EA0312002392B22375A7B9602000FB1B
:108A4000061018300121A84721696368B1F82C216C
:108A50006489DB682243A1F82C2158601A6842F02F
:108A600001021A60F8BD636820695B7903F0FC03BA
:108A70000C3318440421A847236980001881F8BDED
:108A800098720020FEFF0100741C002090720020EC
:108A9000844B1A68844B910702D593F8381021B99A
:108AA0000022DA621A635A637047D3ED0C7A93EDB1
:108AB0000B7AD3ED0D6A1B8BDFED7C5A9FED7C6A40
:108AC00067EEA77A03FB03F3E7EE077A70B5E6EEED
:108AD000A67A784C07EE103A67EEA57AB8EEC77A18
:108AE000D4F8D050C4F8D000C7EE876A401B2DEDF3
:108AF000088BF4EEC66AF1EE10FA07DDDFED6E7A50
:108B0000F4EEE76AF1EE10FA00F12C836B4D2B784E
:108B100013F0100640F0908400219FED693A694EF1
:108B20000A46D4F8D430002B00F0FD8207EE903ACC
:108B3000F8EE677AB7EE007A87EE275A0023C4F87A
:108B4000D43000239FED607AD4ED375AD4ED364A05
:108B5000D4ED387AC4F8D83065EE875A64EE874A87
:108B600065EE255A65EE244A25EEA52A67EE877A3A
:108B7000A4EEA42AC4F8DC30C4F8E03025EE275A6D
:108B8000A5EE052AD4F8E430002B40F3D58207EE99
:108B9000903AF8EEE77AB7EE007A87EE274A00239C
:108BA000C4F8E43094ED3B1AD4ED3A7AD4ED3C1A93
:108BB0009FED437A9FED456A84ED3A7A24EE011ADF
:108BC00064EE272A61EE013A07EE900AE2EEA23A3D
:108BD00064EE211AF8EEE76AE1EEA13A84ED3B7A01
:108BE00084ED3C7A66EE866A002A00F0B882DFEDFA
:108BF0003D7AB4EEE73AF1EE10FA40F356849FED79
:108C0000346A9FED347A01E0B0EE673AB4EEC73AC9
:108C1000F1EE10FA73EE467AF6DC9FED2F7AF4EE61
:108C2000C77AF1EE10FA40F13C849FED294A9FED9E
:108C30002B6A01E0F0EE477AF4EEC67AF1EE10FA14
:108C400037EE847AF6D4F6EE007A27EE277AFDEE38
:108C5000C77A17EE903A2033402B00F28982DFED7D
:108C6000217AB4EEE77AF1EE10FA40F325849FED15
:108C7000184A9FED186A01E0B0EE677AB4EEC67A42
:108C8000F1EE10FA77EE447AF6DC9FED137AF4EE0B
:108C9000C77AF1EE10FA40F10C849FED0D4A9FED7A
:108CA0000F6A2DE004A30020D86300200000C84212
:108CB0000000A242102600200000F24208A300207B
:108CC000000000005CA3002035FA8E3CBD378635DD
:108CD000DB0FC940E4CB1641DB0F49C0E4CB16C122
:108CE000DB0FC93FDB0F494092E741B99730083CA1
:108CF00015A82ABE0AD7233CE68AF93DF0EE477A4A
:108D0000F4EEC67AF1EE10FA37EE847AF6D45FED1F
:108D10000C7AB4EEE77AF1EE10FA40F3B6835FED29
:108D20000F7A37EEC77A27EE074A1FED113A1FED8B
:108D3000116A5FED117AA4EE036A27EE043AE4EEBD
:108D4000067AA3EE277AB0EE476A002900F01A826D
:108D50005FED187AF4EEE73AF1EE10FA40F3128282
:108D6000F1EEE37AB7EE007A87EE273AD4ED073AD0
:108D700094ED080AD4ED060A63EE227AB0EE467A44
:108D8000A7EEA37A23EE214A23EE011A63EEC43A3A
:108D900060EE677AA1EE607AE1EE003AE4EE207AC6
:108DA000B0EE476A94ED3D7AB5EEC07AF1EE10FA76
:108DB0004FF0000340F30C835FED311AD4ED402AED
:108DC00094ED413A94ED424AB4EEE12AF1EE10FA04
:108DD00000F1118335EE045A75EE835A74EEA24AFF
:108DE000EB4B94ED3E4A1B78DA0740F1F882E3EE54
:108DF000844AE849B6EE007A66EE876AE7EE845A5E
:108E0000A6EE045AD1ED033AD1ED007A91ED023A83
:108E100091ED014A64EEA64A65EEA65A25EE265A61
:108E200064EEA36A25EE036AE5EEA76AA4EEA76ADC
:108E300025EE847A76EE836AF1EE452AE2EE846AC4
:108E4000A5EE277A36EE046A26EEA65AA5EEE36A68
:108E500037EE237AA6EE065AA4EEC37A65EE835A5D
:108E6000E2EEA37AE4EE845AA7EE075A77EEE57AAB
:108E7000F0EE455AE7EEA75AB7EE00BAB1EEE55A62
:108E8000CBEE055A67EEA57A26EE256A66EEA56A50
:108E900027EE257AC1ED007A81ED016AC1ED026A03
:108EA00081ED037AFFF70CF9BB4B1B885B0640F1A1
:108EB0009B8191ED107AD1ED0F5A91ED116A91EDF0
:108EC0000E9A67EE079A27EE065AF0EE694AE5EE2B
:108ED000A54AA9EE255A74EEA44A35EE055A7BEE52
:108EE000646AB0EEC54AF0EEE66AF4EEC46AF1EEEA
:108EF00010FAB4BFF0EE447AF0EE667AF5EE407AFE
:108F0000F1EE10FA29EE078A25EE87AA29EE069AD5
:108F100065EE868A66EE06AA00F08B82F4EEC46ADD
:108F2000F1EE10FA8CBFB0EE446AB0EE666A86EEDF
:108F3000277ADFEDA43ADFEDA27A9FEDA76ADFED95
:108F4000A55A9FEDA33AE7EE673ADFEDA07AA7EEC8
:108F5000236AE7EE037AE7EE065A9FED9B6AA7EED7
:108F600027BAA7EE256AF0EE4B7A86EE0B7AF4EE7E
:108F7000C46AF1EE10FA48BFDFED987A9FED8F0AD0
:108F800048BF37EEC77AF7EE007AF4EEE74AF1EE23
:108F900010FAC8BFDFED937AB5EEC05AC8BF37EEFE
:108FA000C77AF1EE10FA48BFB1EE477A27EE000A11
:108FB00032F01AFE78EE687AB7EE005A77EEA77AAA
:108FC000DFED7A4ADFED7A5A9FED7B6A9FED797A81
:108FD0003080F0EEE76A35EE665AE6EEA45AB1EE5E
:108FE000C50AA6EEA56AF5EEC07AA6EE867AF1EE7F
:108FF00010FA48BFDFED7B7A27EE007A9FED6F0A0B
:1090000048BF37EEC77ADFED757A37EEC77A27EEBD
:10901000000A32F0E9FD79EEAA7A39EE0A7A77EEA3
:10902000A77AF7EE005A37EE077A75EEE76AB0EEE8
:10903000C76AF0EEE66AF4EEC66AF1EE10FAB4BF63
:10904000B0EE465AB0EE665AB5EE405AF1EE10FA5E
:10905000708000F0EB81F4EEC66AF1EE10FA8CBF7E
:10906000B0EE464AB0EE664AC4EE054A9FED582A75
:109070009FED565ADFED521ADFED522A9FED563A18
:10908000DFED543A9FED504AA4EE825AE4EEE12A15
:10909000E4EE855AA4EEA23AB0EE655AF0EE635AB9
:1090A000E4EE835AA4EEA54AC4EE055AF4EEC66A6D
:1090B000F1EE10FA48BFDFED496A9FED490A48BF5B
:1090C00076EEE55AF7EE006AF4EEE67AF1EE10FA83
:1090D000C8BFDFED447AB5EEC07AC8BF77EEE55A77
:1090E000F1EE10FA48BFF1EE655A25EE800A32F033
:1090F0007BFD94ED088A00B2B080D4ED437A2B78E2
:109100000028B8BF00F56160F4EEC87AB8BFB0803F
:10911000F1EE10FA4CBF43F0080303F0F7032B7095
:10912000BDEC088B70BD9FED1D2AB0EE425AF0EEEB
:10913000425AF0EE424A25E507EE900ADFED186A42
:10914000F8EEE77A67EEA66AAAB1DFED143A0021DD
:10915000F0EE632AB0EE631AF0EE631A47E5B0EE64
:10916000476AF2E500229FED0D3A0E4E0E4DD8E40F
:109170009FED0A6AE9E59FED096AF0EE467AF0EEA6
:10918000463A0FE6DFED057AF0EE673A0AE600BFF1
:10919000088600200000002058A3002000000000E6
:1091A000BD3786355CA3002008A30020306E99BC33
:1091B0002716983DA40DC93F843459BE4C3D0F4439
:1091C00039094E3DE3B59E3EA7DFA83469A2163E9D
:1091D00099FB243F45FE7F3F88FA163EDB0FC93FCF
:1091E0004C3D0FC4DB0F4940D4ED075A94ED088A7B
:1091F000B0EEE57AF0EEC86AF4EEC76AF1EE10FA66
:10920000B4BFF0EE477AF0EE667AF5EE407AF1EE12
:1092100010FA00F00881F4EEC76AF1EE10FA8CBF84
:10922000B0EE475AB0EE665A85EE276A5FED1C2A0B
:109230005FED1C3A1FED184A5FED1A4A1FED1C3A0C
:109240005FED1E7A1FED205AE6EE623AE6EE037AF3
:10925000A6EE234AA6EE27BAE6EE044AF0EE4B7AD3
:10926000A6EE245A85EE0B6AF4EEC76AF1EE10FA08
:1092700048BF5FED267A1FED2F0AB5EEC08A48BFC2
:1092800037EEC66AF1EE10FA48BF5FED2A7AF5EEC6
:10929000C05A48BF37EEC66AF1EE10FA48BFB1EEC9
:1092A000466A26EE000A32F09FFC94ED065A5FED06
:1092B000414A1FED416A5FED406A5FED427A3080BE
:1092C000B0EEC57AF7EE005A75EEC75AA7EE246ADB
:1092D000B1EEE50AE7EE066AB5EEC05AE7EE267A89
:1092E000F1EE10FAC8BF1FED417A67EE807A1FEDEC
:1092F0004D0AC8BF77EE677A1FED487A77EE677A36
:1093000027EE800A32F070FC94ED036AD4ED005A27
:109310007080F0EEC67AB0EEE57AB4EEE77AF1EE60
:1093200010FAB4BFB0EE675AB0EE475AB5EE405AE5
:10933000F1EE10FA74D0B4EEE77AF1EE10FA8CBFC9
:10934000F0EE674AF0EE474AC4EE856A1FED642AE4
:109350001FED645A1FED603A1FED624A5FED642A0B
:109360005FED663A5FED684AA6EEC25AE6EEA23AB3
:10937000A6EE853AB7EE005AA6EE834AA6EEA35AA9
:10938000E6EE844AC4EE856AB4EEE77AF1EE10FAAE
:1093900048BF5FED6E7A1FED6E0AF5EEC05A48BF0A
:1093A00077EEE66AF1EE10FA48BF5FED727AB5EE3D
:1093B000C06A48BF77EEE66AF1EE10FA48BFF1EEF8
:1093C000666A26EE800A32F00FFC00B2B08094E6A6
:1093D000C4F80031C4F80431C4F8083100E53C4B4E
:1093E0001A6844F61F639A423FF601ADB2EE047A62
:1093F00024EE074AFBE427EE267AE3EE872AA7EE5F
:10940000873AA6EE074AC4ED402A74EEA24A84EDDC
:10941000413A75EE835A84ED424A35EE045ADFE450
:10942000DFED2C6AB0E79FED2B6A1DE7DFED295ACF
:109430003CE69FED287A9AE512F020023FF46CABEF
:1094400013F002033FF468AB234B1A7D042A7FF626
:1094500063ABDA89B2F5967F32D31B8A1F4EDFEDFC
:10946000206A9FED207A07EE903AB6F9043003EEB9
:10947000103AF8EEE77AB8EEC33A0A46A7EEE63AB3
:10948000002123EE073AFFF74CBBDFED177AB4EE6D
:10949000E77AF1EE10FA44BFDFED147A37EEC77ABF
:1094A00041E4B0EE677AFFF7CEBBF0EE437AFFF708
:1094B000B4BBB0EE677A2AE4F0EE477AFFF7E5BB7B
:1094C00000219FED0B3A054E0A46FFF72ABB00BF6D
:1094D000A4610020A7DFA834306F00205CA3002027
:1094E000CDCCCC3D35FA8E3CDB0FC9BFDB0F49C07C
:1094F000000000000C4B014610B5044618681AF035
:1095000033FD0A4B1888082280EA042041F2210129
:1095100010F4004F4FEA400018BF4840013A80B2B3
:10952000F6D1188010BD00BFEC420020F4420020AC
:1095300010B5054C20681AF013FD0028FAD02068F9
:10954000BDE810401AF004BDEC42002010B5FFF752
:10955000EFFF094A138883EA00239BB2082141F2F6
:10956000210413F4004F4FEA430318BF634001394D
:109570009BB2F6D1138010BDF0420020024B014691
:10958000D3F8CC001BF0E2B81026002038B5074D08
:10959000441E14F8011FD5F8CC0019B9BDE83840B5
:1095A0001BF0C6B81BF0D2F8F3E700BF102600206E
:1095B0002DE9F0410379054603F0300020280E46DE
:1095C00014462BD10024294FDFF8AC8015E02B790D
:1095D00003F00303022B15D0032B19D0012B14BF6A
:1095E000315D31573846FFF7D1F96B79013BA34222
:1095F00002DD4046FFF7CAFF01346B79A342E6DC87
:10960000BDE8F08136F814103846FFF7BFF9ECE7F3
:1096100036F914103846FFF7B9F9E6E703F003030B
:10962000012B0FD011D2097890B11028E8D16A79B6
:109630000F4B03EBC203BDE8F041D3F8C43153F83C
:109640002100A3E791F90010EEE7B1F90010EBE774
:109650000648FFF79BF9002CD2D0B5F90720B5F9E1
:1096600005100448BDE8F041FFF790B9DAF20308AD
:10967000CCC0030871F003086FF0030838B50D463D
:109680000446FFF7F4F82A4601462046BDE8384074
:109690008EE701487AE700BF6CF00308F8B50C4C80
:1096A0000C4E0D4F04F520752068FFF76FFF6168C1
:1096B00011B13046FFF76AF9A16811B13846FFF7DA
:1096C00065F91034FFF7E5FFAC42EDD1F8BD00BFFE
:1096D00060C3030878F003087EF003082DE9F74F14
:1096E000DFF8D88082468946002508F2145B304BAB
:1096F000D3F8CC001BF01CF80D236B430BEB0306D7
:10970000327902F00C0151453FD143440092B3F845
:109710001D0526F03FF907463046FEF77AFC009A11
:1097200002F00302012A0446D7E9013134D039D2CC
:109730001A5C095C881A4242424119F0100F00D0AD
:109740001ABB0D2303FB058319F0200FD3F8143542
:109750000FD072B91946174800930192FFF716F916
:109760007968019A21443046FFF722FFFFF791FF05
:10977000009B11481946FFF709F9B96800222144F6
:109780003046FFF715FFFFF784FF0135B5F5967FEB
:10979000ADD103B0BDE8F08F1A560956891A4A4276
:1097A0004A41CAE71A5E095E8B1A5A425A41C4E717
:1097B0001026002084F0030885F00308CCC00308BD
:1097C00010B5074C0B4602460649D4F8CC001BF0F6
:1097D000E5F9D4F8CC001AF0ABFFBDE8104058E72B
:1097E000102600206B8800080FB407B504A951F8B3
:1097F000040B0191FFF7E4FF03B05DF804EB04B044
:1098000070477FB5094B0493094B0393094B0293AF
:10981000094B0193094B0093094A0A4B0A490B482B
:10982000FFF7E2FF07B05DF804FB00BFD3F00308C9
:10983000D8F00308E0F00308E9F00308F5F00308A6
:109840008FF00308F76C00209BF00308A8F00308D2
:109850002DE9F047694B6A48196890B04FF47A7364
:10986000B1FBF3F1FFF7C0FF05A81BF067F858B193
:10987000644A05A90023B2F9002008A81BF06CFA7D
:1098800008A96148FFF7B0FF604B614D1B78614A42
:109890006149127809886148DFF8E0A105EB83038C
:1098A00005F55B79D3F85833FFF79EFF5C4B5D48B5
:1098B00019685D4BB1FBF3F1FFF768F825F0D4FCB4
:1098C0004FF47A72594BB0FBF2F102FB11021B8884
:1098D0000A2092B289B2B2FBF0F25548FFF756F86F
:1098E000544BD3F80080002405F5637559F82470B3
:1098F000A300D7B10126A64016EA080F13D0F2063E
:1099000011D01AF804205B594B4853F822203946ED
:10991000FFF73CF8022E06D1484B93F8251011B101
:109920004748FFF733F80134E0E7FFF7B2FE454A56
:1099300045494648464CFFF757FF464A464B47487D
:10994000D31A3946B4F81021FFF74EFF44490A6D87
:10995000002A42D007EE902ADFED426AB8EEE77A9D
:10996000C6EE877AFDEEE77ACDED037AD1F8EC30DA
:109970005BB107EE903ADFED3B6AF8EEE77A86EEF0
:10998000A77AFDEEC77A17EE903AC96959B107EE8A
:10999000901ADFED346AF8EEE77A86EEA77AFDEEEC
:1099A000C77A17EE901AB4F812012F4E2F4F642881
:1099B000CDE900310146039B2D48A8BF6421FFF784
:1099C00013FF2C48FFF7E2FD2B4B1C68012534B92F
:1099D000FFF75FFE10B0BDE8F0870392C6E794FA88
:1099E000A4F3B3FA83F305FA03F256F823103846CA
:1099F00024EA0204FEF7CAFFE9E700BFA4610020E1
:109A0000FBF0030854AA002015F1030852A100201E
:109A1000C4D103084AA3002044A3002026F1030870
:109A20009C7D00204CF1030840420F009CB80020B0
:109A30005CF1030804A300207DF10308D863002033
:109A400085F10308F0FF00100008000089F1030809
:109A5000102600200080000800400008ADF1030837
:109A6000C01F002000247449C8EF030890F80308C1
:109A7000E7F103082DF2030834A300206C02002054
:109A800010B50B4C03461846FEF7BBFA28B1094B3C
:109A900009485978BDE81040A6E6184631F0ACFDFB
:109AA000052804D8C0B225F0BDFA2346EBE710BD67
:109AB0006EF00308F06C002043F2030838B50B4D3C
:109AC0000B4C03461846FEF79CFA28B1074B094891
:109AD0001978BDE8384087E6184631F08DFD022838
:109AE00002D828702346EDE738BD00BFF06C002097
:109AF0006EF0030847F203087FB5084C1BF064FDC5
:109B0000D4E9015662880092CDE90160A3892188D9
:109B100003482A46FFF768FE04B070BD5C1C0020B5
:109B200052F2030813460A46014601485CE600BFAC
:109B3000ADF20308F8B5037903F03003102B0AD017
:109B4000202B25D04BBBB0F90720B0F905101348E6
:109B5000BDE8F84048E64579114E1248ED00FFF7A0
:109B600015FD7319002493F8C871BC4202D3BDE8F7
:109B7000F8408EE514B10C48FFF708FD73190B4847
:109B8000D3F8C43153F82410FEF700FF0134ECE79A
:109B900041790748BDE8F84026E6F8BDC6F203085B
:109BA000CCC00308DDF203086FF0030890F8030847
:109BB000EDF203080CB407B510F0200009D069B924
:109BC0002320FFF7DBFC05A904980191FFF7F8FDBE
:109BD000012003B05DF804EB02B070470020F8E705
:109BE0000CB4C30607B500D551B905A90498019175
:109BF000FFF7E6FD012003B05DF804EB02B070470B
:109C00000020F8E72DE9F04F324C87B00746324A82
:109C10002378608802EB8303D3F8508025F0BAFEE6
:109C2000D0E901A304932D4B93F8143113B9CDF867
:109C300010A09A4607F04003DFF8ACB0059300256A
:109C4000A379002B08BF01239D4206DB244B083477
:109C50009C42DCD107B0BDE8F08FA388049A2B4466
:109C60000135D65C1AF80330F21AD2F1000949EB3B
:109C7000020993B9009543465A4649463846FFF7CC
:109C800099FFC6B9059B002BDAD1009543465A4689
:109C900049463846FFF7A4FFD2E703F00F021B093D
:109CA00040330292CDE900530E4A434649463846B6
:109CB000FFF780FFE5E706F00F0336094036029311
:109CC000CDE900564346074A49463846FFF788FF24
:109CD000B6E700BFF0C10308CCC00308102600207F
:109CE00090C2030812F30308FEF2030870B506469B
:109CF00030F04AFC114C054690B11122002120465B
:109D000031F098FD2A460E49304631F0BFFD38B19A
:109D1000102D2A46314628BF1022204631F0C8FDBA
:109D20002378064A002B08BF0121054B1CBF0021E8
:109D300013460120034ABDE8704051E780B8002077
:109D40006432040828F303082DE9F04188B0804606
:109D5000FEF757F9074608B33E4CDFF804810025AB
:109D600019274FF46176237917FB03630493E37893
:109D700017FB03630393A37802936378019314F8AA
:109D8000053B009342462B46002101200135FFF799
:109D900027FF0A2DE7D108B0BDE8F081404631F039
:109DA0002BFC092805464FDC8400261808F1010029
:109DB0008DF81F70FEF777FD074660B131F01CFC8F
:109DC0000D2808D8244B334483F815019DF81F3023
:109DD00001338DF81F303846FEF765FD074670B138
:109DE00031F00AFC431E042B09D81B4B62191344A3
:109DF00083F816019DF81F3001338DF81F30384667
:109E0000FEF751FD074670B131F0F6FB431E072BFC
:109E100009D8114B2C441C449DF81F3084F81701BD
:109E200001338DF81F300B4CF11C0DF11F02214442
:109E30003846FEF745FD9DF81F30052BABD0A21923
:109E40000023A3511371A6E7092239460348FFF7FF
:109E500069FEA0E7252700201026002046F303080E
:109E600030F303082DE9F04F064685B088461446C6
:109E7000894692460027002509EB050393F8C03078
:109E80000393002C64D00AEB0503039A93F8C030C7
:109E9000D01AD0F1000B4BEB000BCDE900532E4A4A
:109EA0003B4659463046FFF785FE039B2A4ACDE9DB
:109EB000005359463B4630460135FFF791FE062DCB
:109EC000DAD10137062F09F106090AF1060AD2D1C3
:109ED000DFF884B008F1E40A00251AF8019B002C91
:109EE00038D063195A4693F8E430A9EB03014F4286
:109EF0004F41CDE90053394606233046FFF75AFE5D
:109F0000CDE900590623144A394630460135FFF79A
:109F100067FE0B2DE1D198F8F0506CB194F8F03059
:109F20000193EA1A54425441002300930A4A07233A
:109F300021463046FFF73EFE00230093019507239C
:109F4000054A21463046FFF74BFE05B0BDE8F08FCD
:109F5000A346AAE72746D3E74CF303082DE9FF47BA
:109F6000DFF86CA0814690460E4615460027B8F1F2
:109F7000000F2AD02B8832889A4224D174886A88AC
:109F8000A21A54425441EA780292AA782146CDE9B5
:109F9000003248463B465246FFF70CFEF3780293E8
:109FA000B378019336F8043B009352463B46214672
:109FB00048460137FFF714FE102F05F10405D6D1EE
:109FC00004B0BDE8F0870024DDE74446E6E700BFC3
:109FD00060F303082DE9F04FDFF868808FB0074683
:109FE0008A46164600240DF124095AF824300293BB
:109FF000494602A821F0AAFC16B356F82430029D67
:10A000000393EB1A5D420DF1100B5D41594603A815
:10A0100021F09CFCCDF800B0234642462946384644
:10A02000FFF7C8FD2346CDF8009042462946384642
:10A030000134FFF7D5FD202CD7D10FB0BDE8F08F4C
:10A040003546EFE772F303082DE9F347DFF868A020
:10A0500081460F46904602260024B8F1000F28D012
:10A0600038F8243037F8241038F8062099421ED1E9
:10A07000BD5BA91A4D424D41CDE900322946234628
:10A0800052464846FFF796FDBB5B019337F82430F4
:10A09000009352462346294648460134FFF7A0FD67
:10A0A000042C06F10406D8D102B0BDE8F0870025E3
:10A0B000E2E74546E8E700BF7CF303082DE9F04FEF
:10A0C000834687B092460C46164600274FF0190982
:10A0D0004FF46178BAF1000F4DD03078257873785D
:10A0E000B27896F803C096F804E07179854240D1C1
:10A0F00065789D423DD1A57895423AD1E578654590
:10A1000037D12579754534D165798D4214BF002545
:10A11000012519FB028219FB0383CDE90103039298
:10A120000091CDE904CE3B46144A29465846FFF734
:10A1300041FD23790593E3780493A3780F4A19FB33
:10A1400003830393637819FB0383029323780193BA
:10A150006379009329463B4658460137FFF740FD97
:10A160000F2F04F1060406F10606B3D107B0BDE8CF
:10A17000F08F0025CDE75546DBE700BF8DF30308E0
:10A180002DE9F04F374FDFF8E4A089B081469046C3
:10A190000C46164602F1300B94F902500023324A65
:10A1A0009A1892F90620AA4256D00833302BF6D1DD
:10A1B00008365E4504F10804EED109B0BDE8F08F21
:10A1C00096F9023007939D423288F178307996F8FB
:10A1D00006C096F805E03DD1258895423AD1E5784C
:10A1E0008D4237D12579854234D1A579654531D164
:10A1F0006579A5EB0E035D425D4157F82E3057F8A7
:10A20000211057F82000049357F82C300393CDE920
:10A2100000210290079B524629464846FFF7CAFC98
:10A22000627994F9023057F822200492A27957F803
:10A2300022200392227957F822200292E27857F8DE
:10A240002220019222880092294652464846FFF772
:10A25000C7FCADE70025D0E7B8F1000FB0D1454607
:10A26000DEE700BF40EE0308D06E0020ABF303082A
:10A270002DE9F04FDFF8C4A087B0814690460C4628
:10A28000154600261927B8F1000F54D028782378F6
:10A2900083424ED162786B789A424AD1A278AB78E9
:10A2A0009A4246D1E278EB789A4242D121792B79D1
:10A2B000CB1A594259418B4626F0AAF8A8B12B79FE
:10A2C0000493EA784FF4617117FB02120392AB78A2
:10A2D00017FB031302936B780193037A00935246A2
:10A2E000334659464846FFF765FC207826F090F83B
:10A2F000A8B123790493E2784FF4617117FB02123D
:10A300000392A37817FB0313029363780193037AF4
:10A3100000935246334659464846FFF761FC0136E2
:10A32000142E04F1050405F10505ACD107B0BDE814
:10A33000F08F0021BFE7C346D7E700BFC8F303088B
:10A340002DE9F04186B08046FDF75BFE044638B14A
:10A3500000223B490120FFF78BFF06B0BDE8F081EA
:10A36000404631F049F91328054663DC860037186A
:10A3700008F101008DF81740FEF795FA304C804641
:10A3800060B131F039F9C0B226F026F830B1037867
:10A39000E3559DF8173001338DF817304046FEF72E
:10A3A00082FA804658B131F027F90D2807D8731981
:10A3B000234458709DF8173001338DF81730B91CBD
:10A3C0000DF1170221444046FEF77AFAFEF76BFAC8
:10A3D00058B131F011F9012807D8731923441871C5
:10A3E0009DF8173001338DF817309DF81730042B86
:10A3F00019D17319234400221A712E44A019A25DA9
:10A40000017943780291C4784FF46176192111FBE8
:10A4100004640194807811FB006100910948294689
:10A42000FFF7E2F999E7052BE7D0E2190023E351A2
:10A430001371E2E7132221460348FFF773FB8CE711
:10A4400010420020C8F3030846F3030808B5FFF7DD
:10A450009DF8BDE80840FFF71CB92DE9F843FFF768
:10A4600018F91848184DFFF7F1FF14242D21D5F8DD
:10A47000CC001AF06BF9013CF8D1FFF70AF9134D43
:10A48000134E144FDFF854802B7EE11006EB83034C
:10A4900004F0070201313846D3F85090FEF776FAFF
:10A4A0006A7E49464AB10C48FFF79EF90134102CE8
:10A4B00005F12005E8D1BDE8F8834046FFF794F99F
:10A4C000F4E700BFDEF3030810260020781C00200C
:10A4D000CCC00308F4F3030805F4030890F803085C
:10A4E0002DE9F04F674BDA7891B09846002A00F0DA
:10A4F0009F806548FFF7AAFF0025DFF8A0A1DFF8DD
:10A50000B0B10795A94608A9E8B225F067F99DF80A
:10A510002830002B65D0012D0C9C40F09680002C3B
:10A5200000F08A8007EE904ADFED586AF8EEE77A8D
:10A5300086EEA77AFDEEC77A17EE906A9AF8484140
:10A54000089B012C7AD996FBF4F41A460121504855
:10A55000FEF71CFA0D9A002A00F08B8041F2883039
:10A5600002FB04004FF47A73B0FBF3F00F9B002B57
:10A5700000F0818041F2883103FB04114FF47A7CB2
:10A58000B1FBFCF1052D03D0079F0F4481440797D1
:10A5900098F803C0BCF1000F6FD04FF47A7C0E9F87
:10A5A000B7FBFCFCCDF810C04FF00A0C91FBFCFE91
:10A5B0000CFB1E11CDE902E190FBFCF10CFB11003C
:10A5C000CDE9001021463348FFF70EF9012D08D1DF
:10A5D0009AF84831012B04D9324609992E48FFF7E1
:10A5E00003F90135162D8ED198F80330EBB12B49C4
:10A5F000D1F85421D1F85001D1F8581152094FF433
:10A600007A73B0FBF3F32648FFF7EEF80798079B41
:10A610000A2293FBF2F302FB130799FBF2F1009776
:10A6200002FB11921F48FFF7DFF811B0BDE8F08F71
:10A630001D48FFF70BFF5FE726467FE7099A1B4897
:10A640000121FEF7A3F9344684E75CB107EE904A96
:10A65000DFED0E6AF8EEE77A86EEA77AFDEEC77AAE
:10A6600017EE904A089A0A482946FEF78FF9002605
:10A6700070E710467AE7194684E721465846FFF707
:10A68000B3F8A3E7F06C00200CF40308002474492D
:10A6900061F4030883F40308A7F4030810260020DC
:10A6A000B7F40308D7F4030857F4030870F4030859
:10A6B000B3F403082DE9F84F184EDFF86890002531
:10A6C0000746AA4606F214580D246C43331939463E
:10A6D000D3F814B5584631F000F988B144445946CE
:10A6E0004846FEF753F900212046FEF7C7FFFEF764
:10A6F000D0FF2046FFF71EFAFEF7CBFF0AF1010A52
:10A700000135B5F5967FDFD1BAF1000F03D10448CA
:10A71000BDE8F84F9AE6BDE8F88F00BFCCC003084B
:10A7200005F5030889F0030838B50346FDF769FC11
:10A7300098B3244B9B6C0133172B25D822490C224C
:10A7400002FB03121C46D2F8A85355B91E4A0C212D
:10A750000134172C1ADD002401FB0420D0F8A85383
:10A76000ADB1184B9C6425F0E7FC2A4621461748FA
:10A77000FFF73AF8144B0C2202FB043494F8A003C0
:10A78000BDE8384025F0F4BC1C46DFE7E4D99C4224
:10A79000DED10F48BDE8384058E6184630F02CFFAF
:10A7A0001728044607D8084A0C2303FB0023D3F8D4
:10A7B000A853002DD5D121460648BDE83840FFF703
:10A7C00013B800BF00000020C4D103083CF5030803
:10A7D00012F5030826F50308F8B5154D1548164F70
:10A7E000FFF734FED5F8CC0019F0A2FF1AF0D6FF1F
:10A7F00000241AF099FF064640B1132025F0B8FC5A
:10A80000FEF747FF0D48BDE8F8401FE63846FEF763
:10A81000BDF8782C08D80134D5F8CC0019F088FFA1
:10A8200064200FF039FBE4E7FEF733FF3446F3E72B
:10A830001026002051F50308492304086BF503088E
:10A84000004803E671F503087FB50346FDF7D9FB21
:10A85000044630B1002218490120FFF703FB04B081
:10A8600070BD6A461549154E184630F0FEFE01AD22
:10A8700078B1032C02D1FFF7E3FFF0E730F0BCFE24
:10A880006A4645F824003146002030F0EEFE0134DF
:10A89000EEE7032CEFD1DDE90145039E2946324660
:10A8A000E0B22DF0C3FA0028E5D033462A4621460F
:10A8B0000348FEF799FFD2E76CA10020B0310408ED
:10A8C0004CF3030870B50646FDF79BFB044630B118
:10A8D00000220F490120BDE87040FFF73FBB304622
:10A8E00030F08AFE0F2805460ADC3046FDF7DBFF14
:10A8F000014628462DF0C2FA48B9BDE870409FE7EE
:10A9000021460F220348BDE87040FFF70BB970BD28
:10A91000ECA1002046F3030870B50646FDF771FB75
:10A92000044630B100220F490120BDE87040FFF716
:10A9300051BB304630F060FE1F2805460ADC304629
:10A94000FDF7B1FF014628462DF0E0FB48B9BDE810
:10A95000704075E721461F220348BDE87040FFF7AD
:10A96000E1B870BD6CA1002046F303082DE9F34166
:10A970000746FDF746FB064638B10022394901205B
:10A98000FFF79CFB02B0BDE8F081384630F034FEA2
:10A990000E2804465FDC06254543781C8DF80760C9
:10A9A000FDF781FF304F064658B130F025FE0328F1
:10A9B00007D87B1983F861019DF8073001338DF8C2
:10A9C00007303046FDF76FFF804668B130F014FE67
:10A9D0000D2809D8062303FB047383F85C019DF856
:10A9E000073001338DF807301E4E691C0DF1070248
:10A9F00031444046FDF764FFFDF755FF804668B1DE
:10AA000030F0FAFD1C2809D8062303FB047383F8F1
:10AA10005F019DF8073001338DF807304046FDF7A0
:10AA200042FF68B130F0E8FD0D2809D8062303FB8A
:10AA300004749DF8073084F8600101338DF8073005
:10AA40009DF80730062B9DD0721900237351938017
:10AA5000FFF7F6FE96E70E2231460448FFF762F84C
:10AA600090E700BF6C2700201026002046F3030863
:10AA70002DE9F04F87B00346FDF7C3FA064620B133
:10AA8000FFF7DEFE07B0BDE8F08F05AA4749DFF803
:10AA90004891DFF848A1DFF848B1184630F0E5FDED
:10AAA00035460446B0464FF0FF37ACB9404839460A
:10AAB000FDF76CFF3F4B78B203EBC40292F906201E
:10AAC000824259D00134062CF6D1B8F1000F33D1AF
:10AAD0003948FFF7BBFCD5E7012E0ED0022E11D06E
:10AAE0001EB9204630F088FD074605AA2F490020F0
:10AAF00030F0BBFD01360446D7E7204630F07CFD40
:10AB00008046F2E74946204630F0E7FE20B92B495F
:10AB1000204630F0E2FE08B145F0010551462046DE
:10AB200030F0DBFE28B95946204630F0D6FE00282A
:10AB3000DBD045F00205D8E7002D08BF0325002330
:10AB4000EDB20293CDE900851A46194625F0A2F828
:10AB5000044618B91A48FFF779FC93E741461948AB
:10AB6000FDF714FF1848FFF771FC184B002221462F
:10AB7000D3F8C80020F05AFE53F83440002CA4D07B
:10AB80001348FFF763FC55B16179A94207D011481A
:10AB90002A46FDF7FBFEE9B2204619F0CDF9E36A3B
:10ABA000002BDFD00023E362DCE700BFB0310408F4
:10ABB00086F50308D06E00208FF5030880F50308A2
:10ABC000A5F50308BAF50308FBF5030810260020D5
:10ABD000CFF50308DDF503087DF503089EFA0308A9
:10ABE00083F503082DE9F7430346FDF70AFA044607
:10ABF00038B135490022012003B0BDE8F043FFF72A
:10AC0000BFBACDE9000018465D1C30F0F5FC2E4BB4
:10AC100040B203EBC40696F9022082424FD00134C1
:10AC2000062CF6D1002634462846FDF73CFE0746A2
:10AC300028B130F0E1FC0134ADF80000E4B2DFF8F7
:10AC40008C8000253846FDF72EFE0746C8B130F04F
:10AC5000D3FC814625F002FA58F82030994510D1EE
:10AC6000022D19D0032D1CD0431E012DDBB20ED0B6
:10AC70000B2B03D88DF803000134E4B20135042D09
:10AC8000E0D1052C14D803B0BDE8F043D8E5042B7F
:10AC9000F4D88DF80400EFE70528EFD88DF806000A
:10ACA000EAE7831EDBB20D2BE8D88DF80500E3E759
:10ACB0006B4603CB3060716003B0BDE8F0838DF864
:10ACC00002000124B0E700BF786C002040EE0308CA
:10ACD000F7B50646FDF795F9054658B1002401A9D8
:10ACE000204620F019FB0134FFF7F2FF122CF6D1B9
:10ACF00003B0F0BD304630F07FFCC4B2112C61D8F7
:10AD0000701CFDF7D0FD324D0746D0B9314B13F81A
:10AD100014108A1E514251412E4B13F81420154431
:10AD200095F8C024002948D003EB440319205B7830
:10AD300040F2EE2100FB031321462748FEF754FDA5
:10AD4000D6E705F598660178304630F08AFD58B1AF
:10AD5000032C8CBF03230023801B2B4453FA80F069
