:020000040800F2
:10000000F0FF00109985040815BB020809020208D8
:100010006186040861860408618604080000000007
:1000200000000000000000000000000021BB0208EA
:100030001DBB02080000000019BB0208A9D001087E
:1000400061860408618604086186040861860408E4
:1000500061860408618604081D0802085D0902081B
:100060001D090208DD0802089D0802084D5B03080F
:100070003D5B03082D5B03081D5B0308095B030858
:10008000F55A0308E15A03086186040861860408EA
:100090006186040861860408618604085D08020818
:1000A0006186040891C801086186040851C90108E5
:1000B0006186040861860408D1C70108F960030855
:1000C00001610308ED600308F56003086186040818
:1000D000618604084DD30108B1D2010815D2010888
:1000E000DD07020861860408C109030885C5010807
:1000F00051C601086186040811C70108CD5A0308DA
:100100006186040861860408618604086186040823
:1001100079D10108DDD00108596801084568010856
:10012000B95A0308A55A030815530308915A03083E
:100130007D5A030861860408618604086186040804
:100140006186040861860408618604085DD302089C
:10015000695A0308555A0308415A0308618604087E
:10016000E1600308E9600308618604086186040809
:1001700061860408618604086186040861860408B3
:1001800061860408618604084081040001000000C3
:10019000F82106001A2D0020003600200000000083
:1001A000F406000803123300FC2E00204035002026
:1001B00000000000FA06000825009600F433002035
:1001C0008A3400200000000000000000F6210C002E
:1001D0003432002084330020000000003007000883
:1001E0001500700040320020143300200000000091
:1001F000000000002A006000342D0020B4320020EE
:1002000000000000650004082C00100020350020CC
:1002100030350020000000000D9E00082B00240057
:10022000973500207335002000000000DD9D000898
:100230002910640054310020903300200000000099
:100240000000000028101000A02C0020083600201C
:10025000000000000180000814000300E0300020CE
:10026000B0320020000000003C0700080702020036
:1002700030390020743900200000000040070008D9
:1002800002000C0004390020783900200000000032
:100290000000000006020C00F8380020843900201D
:1002A00000000000ED150308081209007C3800204A
:1002B0009039002000000000850E0308F7010600B9
:1002C000763800209C39002000000000420700081A
:1002D0000A020A00E4370020A439002000000000D0
:1002E0004807000803000100BC370020B039002097
:1002F000000000000000000010100200C0370020C5
:10030000B439002000000000520700081A023C0027
:10031000643A0020203E002000000000C1140308C1
:1003200027000400603A00205C3E0020000000002E
:10033000540700080A4030007650002088570020FB
:1003400000000000580700080E402001564F002012
:10035000B8570020000000008D00040813000400BE
:1003600084540020D85800200000000088070008AE
:1003700001010400D64E0020DC58002000000000DF
:100380000000000000010400CE4E0020E0580020D4
:10039000000000008C07000802010300C94E002085
:1003A000E4580020000000009D1701080902010028
:1003B000BC560020E858002000000000900700080C
:1003C0000C106C00E0500020EC58002000000000F1
:1003D0007517010801020500DE4E00205859002063
:1003E00000000000E5290208000205000854002072
:1003F0006059002000000000000000001B020800FF
:10040000905600206859002000000000250E0308C7
:1004100001200800805500207059002000000000D5
:100420009207000819000500245600207859002082
:10043000000000009A07000837001E00FC5500204D
:100440008059002000000000A00700081E000500E1
:10045000C8510020A059002000000000BE0700087D
:100460001B00F400683E0020A85900200000000096
:10047000C93A02080E020200185500209C5A0020BA
:1004800000000000C40700082F0011006957002079
:10049000A05A002000000000C60700080510060052
:1004A000A87000209075002000000000D807000808
:1004B000F5317000087000209875002000000000E1
:1004C0009D34020826000E001876002008760020D1
:1004D0000000000061AE02080B201000286D002013
:1004E0004C76002000000000DE0700081F201C00E2
:1004F000786400205C76002000000000EE07000811
:1005000005020400D06F0020787600200000000073
:100510000A08000803010A00E06C00207C76002035
:10052000000000000E08000813020300E062002033
:100530008876002000000000180800081002010062
:10054000709000206C900020000000001C08000843
:100550001600080068AF002070AF00200000000007
:100560001E080008040080006CD6002024D700205C
:100570000000000000000000230010002CD6002026
:10058000A4D7002000000000198000080D003400EE
:100590008CD50020B4D7002000000000456203087D
:1005A000FD011E00C8CC0020E8D70020000000009C
:1005B000B9A9010818202C0098CC002008D80020E8
:1005C000000000008915030806101800F4BF002081
:1005D00034D8002000000000E9000408FB010100FD
:1005E000F0BF00204CD80020000000005D1503087B
:1005F000FC010900BCBE002050D800200000000013
:100600006D15030834001000E4BD00205CD8002004
:1006100000000000BD00040811020800BCBD00205D
:100620006CD8002000000000260800081212040008
:10063000B4BD002074D80020000000002E0800087F
:1006400012200D00A4BD002078D80020000000007A
:1006500032080008F90104004CB8002088D80020B6
:100660000000000031AA01081802020050B2002068
:100670008CD80020000000000000000017020B00D2
:1006800044B2002090D8002000000000410E030872
:10069000FA01020020B200209CD8002000000000D7
:1006A000A90F030802020300D4AF0020A0D8002045
:1006B00000000000000000000C02030090AF0020CA
:1006C000A4D8002000000000310E0308FE0109003C
:1006D000F4B10020A8D8002000000000BD0E0308DF
:1006E0001A000E00ACDA0020BCDB00200000000085
:1006F000400800080201F401190000000000000099
:1007000000000000000000000000000000000000E9
:1007100000000000000000000000000000000000D9
:1007200000000000000000000000000001000000C8
:1007300000000000010000000202000003000000B1
:10074000023C3F010000000000004A01B400D60155
:100750002600000520030000003001000000010019
:100760000000000000000000000000000000020087
:1007700000019E077D0020000100B80BB80BB80BEC
:10078000200078007800780008044430FA00000067
:100790000000E8036400040A0001000028010000D2
:1007A00020003200C800D007960014003200280054
:1007B000B00440060005500014000F0008000000BF
:1007C0000100000000000000000000000000000028
:1007D00000000000000000002000010100002B21AB
:1007E000231E64010100000001000A01290000002D
:1007F00000000001000000050000010203000000ED
:1008000000000000000000000000000000000401E3
:1008100001006C1600000000000000000000C40988
:100820000000190128280000000001010101FFFF5C
:10083000FFFF000000010000054845535000000084
:100840007E05EA05B4053200E803D0070000D601B2
:1008500000000590000800000000000000000100FA
:1008600000000001010100006C000101FFFFFFFF1B
:10087000FFFF01000000051001080000000000005B
:1008800000000000803F00000000000000000000A9
:100890000000FF0000000000000064390020080094
:1008A0000000000000005439002008000000BCC512
:1008B00004080508040000000000B4CE040894CF2A
:1008C0000408A0CE04080000000000000000E8C5F5
:1008D000040805080A0000000000B4CE040894CF04
:1008E000040894CD0408000000000000000001018D
:1008F00002FFFF00000000000100E0010101010013
:100900000000B92D02080000000028020020F03B82
:1009100005080000000000000000000000000000CA
:100920000000703105080000000000000000BE0259
:100930000020040000009C3B05080D0000008D58BD
:100940000208AC1C0020000000001C3505080D004A
:10095000000065580208A01C0020000000007C3642
:1009600005080800000000000000941C002004009E
:100970000000883505080D0000006D2E0208881C57
:1009800000200000000030360508030000007D5AFA
:1009900002087C1C002000000000003C0508030049
:1009A00000007D5A0208701C002000000000B831D1
:1009B0000508010000000000000000000000000029
:1009C0000000000000000E00000000000000000019
:1009D000000000000000F03B0508000000000000DF
:1009E0000000000000000000000070310508000059
:1009F000000000000000BE02002004000000483B90
:100A0000050803000000AD350208641C0020080042
:100A10000000883505080D0000006D2E0208881CB6
:100A200000200000000030360508030000007D5A59
:100A300002087C1C002000000000003C05080300A8
:100A400000007D5A0208701C002000000000B83130
:100A50000508010000000000000000000000000088
:100A60000000000000000E00000000000000000078
:100A7000000000000000083C050800000000000025
:100A800000000000000000000000703105080000B8
:100A9000000000000000BE02002004000000503BE7
:100AA0000508030000007D5A0208B81C0020000061
:100AB0000000B8310508010000000000000000003F
:100AC000000000000000000000000E000000000018
:100AD0000000000000000000000020700020702DC9
:100AE0007200FFFFFFFF010000000000803F0800D0
:100AF0000000000000000000000020180020FA00A4
:100B000000000100000001000000FFFF2D202D2D3E
:100B1000202D2D2D2D202D2D2D000000000000005A
:100B20000000000000000000000000000000FFFFC7
:100B3000FFFF8C31050894310508B031050800002D
:100B400000000000000000000000000000008D2FE9
:100B50000508040000002D560208000000000000F7
:100B60000000B8310508010000000000000000008E
:100B7000000000000000000000000E000000000067
:100B8000000000000000000000000CD70020010061
:100B9000C409000000000AD700200100C4090000B9
:100BA000000008D700200100C4090000000006D79B
:100BB00000200100C4090000000002D7002001004D
:100BC000C4090000000004D700200100C40900008F
:100BD000000000D700200100C40900000000FED67C
:100BE00000200100C40900000000F04E00200100B8
:100BF000C80001000000EE4E0020320030753200C7
:100C00000000EC4E0020055A0500E94E002000FFD0
:100C10000100EB4E002001000000E4020020E74E3E
:100C2000002002000000C0CF0408E84E002000FFB2
:100C30000100EA4E002001000000E4020020E64E20
:100C4000002002000000C0CF0408DC4E002080C15C
:100C5000803E05000000DA4E002080C1803E050085
:100C60000000D44E002080C1803E05000000D24E1E
:100C7000002080C1803E05000000CC4E002000FF17
:100C80000100C84E00200A320100C74E00200400B7
:100C9000000074CD0408C64E00200200000088CD7C
:100CA00004080000000000000000EC020020806F3B
:100CB00000209CFF2C0100000000AE0000200A0074
:100CC000000094CD0408BC4E0020E0150C17000075
:100CD0000000B00000200800000094CF0408AF001E
:100CE000002005000000B4CE0408BE4E0020020023
:100CF0000000ACCD0408605100200100FF7F01001E
:100D000000005F51002002000000B8CD0408B2507E
:100D100000200000C20101000000AE5000200000D1
:100D2000C20101000000B05000200000C20101001B
:100D30000000AA5000200000803E32000000A850B1
:100D400000200000803E32000000A650002000007D
:100D5000803E32000000AC50002000002C01010059
:100D60000000BE5000200000F40101000000BC5053
:100D700000200000F40101000000BA500020000033
:100D8000F40101000000B85000200000F40101004F
:100D90000000B65000200000803E01000000B4506A
:100DA00000200000803E01000000DC500020E8032D
:100DB000D0070A000000DA500020006401000A0099
:100DC0000000CF50002000640100CE5000200064DD
:100DD0000100D6500020006401000A000000D55038
:100DE0000020006401000A000000D45000200064CC
:100DF00001000A000000D9500020006401000A0030
:100E00000000D8500020006401000A000000D75004
:100E10000020006401000A000000D350002000FF01
:100E200001000A000000D250002000FF01000A006B
:100E30000000D150002000FF01000A000000524FC6
:100E400000200000F40101000000504F00200000CD
:100E5000F401010000004E4F00200000F4010100E9
:100E600000004C4F00200000F40101000000CA50B7
:100E700000201400E80301000000C8500020E8032F
:100E800030750A000000C750002000C80100C6509D
:100E9000002000C80100C550002000C80100C45057
:100EA0000020006401000A000000C2500020000081
:100EB000D007010000005551002000C80100545126
:100EC000002000C801005351002000C80100525109
:100ED000002000C801005151002000C801005051FD
:100EE000002000C801004F51002000C801004E51F1
:100EF000002000C801004D51002000C80100E03171
:100F000005080000000000000000000000000000D4
:100F100000002CFB04080900000000000000900302
:100F200000200400000034FB040809000000000059
:100F30000000840300200400000034390508090083
:100F4000000000000000780300200400000065306D
:100F5000050809000000000000006C0300200400E8
:100F60000000F031050809000000000000006003E7
:100F7000002004000000F83105080900000000000E
:100F8000000054030020040000000032050809009E
:100F900000000000000048030020040000000832A8
:100FA000050809000000000000003C0300200400C8
:100FB0000000B8310508010000000000000000003A
:100FC000000000000000000000000E000000000013
:100FD00000000000000000000000083405080000C8
:100FE0000000000000000000000000000000941B52
:100FF00005080700000000000000B4030020000006
:101000000000183405080800000000000000A803D4
:101010000020000000002434050808000000000043
:1010200000009C03002000000000B831050801000A
:1010300000000000000000000000000000000000B0
:1010400000000E0000000000000000000000000092
:1010500000002C3405080000000000000000000023
:101060000000000000003C3405080D0000000000F6
:101070000000F003002000000000443405080D00CB
:10108000000000000000E4030020000000004C34D9
:1010900005080700000000000000DC03002000003D
:1010A0000000543405080D00000000000000D003CB
:1010B0000020000000005C3405080D000000000066
:1010C0000000C4030020000000006434050807008D
:1010D000000000000000BC03002000000000B83148
:1010E00005080100000000000000000000000000F2
:1010F0000000000000000E000000000000000000E2
:101100000000000000006C34050800000000000032
:1011100000000000000000000000941B05080C0007
:10112000000000000000F24E0020000000008034AB
:1011300005080C00000000000000F44E0020000034
:101140000000903405080C000000000000002A4F49
:10115000002000000000A03405080C000000000082
:1011600000001E4F002000000000B43405080C00F1
:10117000000000000000F64E002000000000C03417
:1011800005080C00000000000000F84E00200000E0
:101190000000C83405080C00000000000000FA4EF2
:1011A000002000000000DC3405080C0000000000F6
:1011B0000000FC4E002000000000E43405080C0094
:1011C000000000000000FE4E002000000000EC3493
:1011D00005080C000000000000003C4F002000004B
:1011E0000000043505080C00000000000000004F5E
:1011F000002000000000103505080C000000000071
:101200000000024F0020000000003CFB04080C001E
:10121000000000000000044F00200000000018350E
:1012200005080C00000000000000064F0020000030
:101230000000243505080C00000000000000084FE5
:10124000002000000000303505080C000000000000
:1012500000000A4F0020000000003C3505080C008B
:101260000000000000000C4F002000000000483586
:1012700005080C000000000000000E4F00200000D8
:101280000000543505080C00000000000000224F4B
:101290000020000000005C3505080C000000000084
:1012A0000000204F002000000000643505080C00FD
:1012B0000000000000002E4F0020000000007035EC
:1012C00005080C00000000000000304F0020000066
:1012D00000007C3505080C00000000000000364FBF
:1012E000002000000000AC3205080C0000000000E7
:1012F0000000104F002000000000883505080C0099
:10130000000000000000184F002000000000903591
:1013100005080C00000000000000124F0020000033
:1013200000009C3505080C00000000000000144F70
:10133000002000000000A83505080C000000000097
:101340000000164F002000000000B03505080C001A
:101350000000000000001A4F002000000000B41B35
:1013600005080C00000000000000244F00200000D1
:101370000000BC3505080C000000000000001C4FF8
:10138000002000000000FB3005080C0000000000F9
:1013900000002C4F002000000000C83505080C009C
:1013A000000000000000264F002000000000D035A3
:1013B00005080C00000000000000284F002000007D
:1013C0000000D83505080C00000000000000324F76
:1013D000002000000000E03505080C0000000000BF
:1013E0000000344F002000000000B8310508010063
:1013F00000000000000000000000000000000000ED
:1014000000000E00000000000000000000000000CE
:101410000000E835050800000000000000000000A2
:10142000000000000000F43505080D000000000079
:1014300000004804002000000000FC3505080D00F5
:101440000000000000003C04002000000000043602
:101450000508070000000000000034040020000020
:1014600000001036050807000000000000002C04F2
:101470000020000000001C360508090000000000E4
:1014800000002004002000000000283605080900A4
:1014900000000000000014040020000000003436AA
:1014A00005080900000000000000080400200000FA
:1014B0000000443605080900000000000000FC039D
:1014C000002000000000B831050801000000000005
:1014D00000000000000000000000000000000E00FE
:1014E000000000000000000000000000000058366E
:1014F00005080000000000000000000000000000DF
:1015000000006836050805000000000000004B4F91
:10151000002000000000B8310508010000000000B4
:1015200000000000000000000000000000000E00AD
:101530000000000000000000000000000000703605
:10154000050800000000000000000000000000008E
:101550000000703105080000000000000000541E6B
:10156000002004000000613005080D0000009156C5
:1015700002089C040020000000009C3B05080D00B0
:101580000000712D020890040020000000001C35AE
:1015900005080D000000552D0208840400200000FD
:1015A00000007C36050808000000000000007804F8
:1015B000002004000000883505080D0000009D2C67
:1015C00002086C04002000000000843605080900B1
:1015D000000000000000600400200400000030361D
:1015E0000508030000007D5A020854040020000092
:1015F0000000B831050801000000000000000000F4
:10160000000000000000000000000E0000000000CC
:10161000000000000000000000008C3605080000FB
:1016200000000000000000000000000000009C36E8
:1016300005080D00000000000000B40400200000B8
:101640000000A43605080A00000000000000E05475
:10165000002000000000B03605080A00000000006D
:101660000000E854002000000000B83605080A0019
:10167000000000000000F054002000000000C03610
:1016800005080800000000000000A8040020000079
:101690000000C836050804000000B15B0208000025
:1016A000000000000000B831050801000000000043
:1016B00000000000000000000000000000000E001C
:1016C0000000000000000000000000000000D43610
:1016D00005080000000000000000000000000000FD
:1016E0000000E836050800000000000000000000CF
:1016F0000000000000000837050808000000000096
:101700000000080500200000000010370508080050
:10171000000000000000FC0400200000000018375A
:1017200005080800000000000000F0040020000090
:101730000000203705080800000000000000E40455
:101740000020000000002837050808000000000005
:101750000000D8040020000000003437050808000D
:10176000000000000000CC04002000000000403712
:1017700005080800000000000000C0040020000070
:101780000000B83105080100000000000000000062
:101790000000000000004837050802000000055C5A
:1017A00002080200000000000000000000000E001F
:1017B000000000000000000000000000000054379E
:1017C000050800000000000000000000000000000C
:1017D0000000683705080800000000000000500500
:1017E0000020000000007437050808000000000019
:1017F00000004405002000000000803705080800B4
:1018000000000000000038050020000000008C37B8
:10181000050808000000000000002C050020000062
:1018200000009837050808000000000000002005AF
:10183000002000000000A437050808000000000098
:1018400000001405002000000000B8310508010068
:101850000000000000000000000000000000000088
:1018600000000E000000000000000000000000006A
:101870000000B037050800000000000000008F02E3
:10188000002000000000BC3705080B00000000002D
:101890000000E405002000000000C83705080B0028
:1018A000000000000000D805002000000000D43730
:1018B00005080B00000000000000CC05002000001F
:1018C0000000E03705080B00000000000000C00524
:1018D000002000000000EC3705080B0000000000AD
:1018E0000000B405002000000000F83705080B00D8
:1018F000000000000000A8050020000000000438DF
:1019000005080B000000000000009C0500200000FE
:101910000000103805080B000000000000009005D2
:101920000020000000001C3805080B00000000002B
:10193000000084050020000000002838050807008A
:101940000000000000007C0500200000000030388E
:1019500005080700000000000000740500200000DA
:1019600000003C3805080B0000000000000068057E
:1019700000200000000048380508080000000000B2
:1019800000005C05002000000000B83105080100DF
:101990000000000000000000000000000000000047
:1019A00000000E0000000000000000000000000029
:1019B000000054380508000000000000000000008E
:1019C0000000000000006838050808000000000062
:1019D000000014060020000000007438050808000C
:1019E0000000000000000806002000000000803811
:1019F00005080800000000000000FC0500200000B1
:101A00000000403705080800000000000000F00555
:101A1000002000000000B8310508010000000000AF
:101A200000000000000000000000000000000E00A8
:101A300000000000000000000000000000008C38E2
:101A4000050800000000000000008C0200200000DB
:101A500000009C38050808000000000000005C063B
:101A6000002000000000A83805080B00000000005E
:101A700000005006002000000000B43805080700F0
:101A80000000000000004806002000000000C038F0
:101A900005080700000000000000400600200000CC
:101AA0000000CC38050807000000000000003806E0
:101AB000002000000000D8380508080000000000E1
:101AC00000002C06002000000000E0380508080097
:101AD0000000000000002006002000000000B831D7
:101AE00005080100000000000000000000000000E8
:101AF0000000000000000E000000000000000000D8
:101B0000000000000000E8380508000000000000A8
:101B100000008C02002000000000F43805080700D7
:101B2000000000000000A806002000000000FC38B3
:101B300005080700000000000000A00600200000CB
:101B400000000439050807000000000000009806A6
:101B5000002000000000882C05080700000000009D
:101B600000009006002000000000902C05080700EF
:101B70000000000000008806002000000000982CF3
:101B8000050807000000000000008006002000009B
:101B900000000C390508070000000000000078066E
:101BA00000200000000014390508070000000000B4
:101BB000000070060020000000001C390508070026
:101BC0000000000000006806002000000000B8319E
:101BD00005080100000000000000000000000000F7
:101BE0000000000000000E000000000000000000E7
:101BF00000000000000000000000E1300208B00614
:101C00000020494F00202A000000C8CD0408484F9A
:101C1000002000C80100464F0020E803D007010063
:101C2000000048454C494F535052494E4700E54E3D
:101C3000002000030100E44E0020000301002930D1
:101C40000208013002088C070020BD2F0208712F06
:101C50000208040800206930020851300208B80860
:101C60000020DD2E0208912E0208C40B0020F73060
:101C70000208B5580208A00C0020DD2C0208000064
:101C80000000F00C00208D5B0208E9330208CC0D47
:101C90000020BD31020879310208800E00203D325B
:101CA000020801320208700F0020C9320208153301
:101CB000020824100020CC50002001060100493108
:101CC00002081D3102086411002079320208E5582B
:101CD0000208F01100204533020835590208B812F5
:101CE0000020C05000200103010024390508000035
:101CF000000000000000000000000000000030397B
:101D000005080800000000000000C81300200000C3
:101D10000000383905080700000000000000C0136B
:101D2000002000000000483905080D0000000000F8
:101D30000000B4130020000000005439050803001F
:101D400000007D5A0208A813002000000000B831EE
:101D50000508010000000000000000000000000075
:101D60000000000000000E00000000000000000065
:101D70000000000000005C390508000000000000C1
:101D8000000000000000000000006C3905080A0097
:101D900000000000000074390508000000007C39D4
:101DA00005080A0000000000000038EE04080000EA
:101DB0000000843905080A000000000000005651A8
:101DC0000020000000008C3905080A000000000017
:101DD0000000D413002000000000B8310508010005
:101DE00000000000000000000000000000000000F3
:101DF00000000E00000000000000000000000000D5
:101E000000009439050800000000000000000000F8
:101E1000000000000000A0390508030000007D5A02
:101E200002080814002000000000AC390508030077
:101E300000007D5A0208FC13002000000000B439A5
:101E40000508030000007D5A0208F013002000007E
:101E50000000BC3905080500000000000000E34E4A
:101E6000002000000000C439050807000000000041
:101E70000000E813002000000000D039050807002A
:101E8000000000000000E013002000000000B83156
:101E90000508010000000000000000000000000034
:101EA0000000000000000E00000000000000000024
:101EB000000000000000DC39050800000000000000
:101EC00000000000000000000000F03905080300D9
:101ED00000007D5A02083814002000000000FC3980
:101EE0000508030000007D5A0208B400002000002D
:101EF0000000043A0508030000007D5A02082C1473
:101F00000020000000000C3A0508030000007D5A84
:101F10000208201400200000000088350508030096
:101F200000007D5A02081414002000000000B8319F
:101F30000508010000000000000000000000000093
:101F40000000000000000E00000000000000000083
:101F5000000000000000183A050800000000000022
:101F600000000000000000000000243A05080700FF
:101F70000000855902089414002000000000AC35D0
:101F80000508030000007D5A0208881400200000A4
:101F90000000303A0508030000007D5A02087C1456
:101FA000002000000000383A0508030000007D5AB8
:101FB00002087014002000000000403A05080700E5
:101FC00000006959020868140020000000001C2C61
:101FD0000508030000007D5A02085C140020000080
:101FE00000004C3A0508030000007D5A0208501416
:101FF000002000000000583A0508030000007D5A48
:1020000002084414002000000000B8310508010057
:1020100000000000000000000000000000000000C0
:1020200000000E00000000000000000000000000A2
:102030000000B1300208813002089C140020B53342
:10204000020800000000281500204D2F0208292F4B
:102050000208B4150020000000000000000068160F
:1020600000208D330208A159020808170020603AA9
:102070000508000000000000000000000000000053
:1020800000006C3A0508030000007D5A020814188D
:10209000002000000000743A0508030000007D5A8B
:1020A00002080818002000000000AC1C050803000E
:1020B00000007D5A0208FC17002000000000803A52
:1020C0000508030000007D5A0208F01700200000F8
:1020D00000008C3A0508030000007D5A0208E4174E
:1020E000002000000000943A050802000000055C92
:1020F000020800000000000000009C3A05080200F1
:102100000000055C020801000000000000004837E4
:10211000050802000000055C020802000000000043
:102120000000000000000E000000000000000000A1
:10213000000000000000C24E002088136F1701004D
:102140000000C44E002088136F1700000000A83A5A
:102150000508000000000000000000000000000072
:102160000000B83A05080800000000000000F4185C
:10217000002004000000C43A050808000000000028
:102180000000E818002000000000303605080400B8
:102190000000B95602080000000000000000B8313D
:1021A0000508010000000000000000000000000021
:1021B0000000000000000E00000000000000000011
:1021C000000000000000C04E002088136F170100BF
:1021D0000000BC6F002088136F1700000000212E44
:1021E00002080000000000190020815400200100B6
:1021F000000074CE0408BE6F00200100000080CEF5
:102200000408B46F00200200000088CE0408CA64ED
:1022100000200000000000000000C8640020000052
:10222000000000000000C664002000000000000064
:102230000000C46400200000000000000000C26430
:1022400000200000000000000000C064002000002A
:102250000000000000008C1E0020000000000000B4
:102260000000BF4E00200200000094CE0408003B96
:102270000508000000000000000000000000000051
:102280000000B83A050808000000000000008419AA
:10229000002004000000C43A050808000000000007
:1022A0000000781900200000000030360508040006
:1022B0000000F12D02080000000000000000B8310D
:1022C0000508010000000000000000000000000000
:1022D0000000000000000E000000000000000000F0
:1022E000000000000000103B050800000000000096
:1022F00000000000000000000000203B05080D0069
:10230000000009580208B4190020040000002C3B0A
:1023100005080D000000492E0208A819002004003D
:102320000000383B05080D000000CD5702089C193D
:10233000002000000000443B050803000000CD35EC
:1023400002089019002008000000503B0508030017
:1023500000007D5A0208B81C002000000000B831BF
:10236000050801000000000000000000000000005F
:102370000000000000000E0000000000000000004F
:10238000000000000000B03105080000000000005F
:10239000000000000000000000008D2F0508040070
:1023A0000000D15602080000000000000000B83113
:1023B000050801000000000000000000000000000F
:1023C0000000000000000E000000000000000000FF
:1023D000000000000000A43B050800000000000011
:1023E000000000000000000000003CFF04080D0099
:1023F000000000000000141A002004000000B43B9C
:1024000005080800000000000000081A0020040071
:102410000000C03B05080800000000000000FC1997
:10242000002004000000C83B050808000000000070
:102430000000F019002004000000D03B050808004F
:10244000000000000000E419002004000000D83B58
:1024500005080800000000000000D8190020040052
:102460000000E03B05080800000000000000CC1957
:10247000002004000000E83B050808000000000000
:102480000000C019002004000000B8310508010058
:10249000000000000000000000000000000000003C
:1024A00000000E000000000000000000000000001E
:1024B0000000092E020800000000201A0020000081
:1024C000000000000000981A00200000000000003A
:1024D0000000381B0020BA6F002004000000A0CECE
:1024E0000408B86F0020E0150C1700000000B76F5B
:1024F00000200800000094CF0408B66F00200500FB
:102500000000B4CE04080000000000000000881B9A
:1025100000200403090412010002EF0201408304B9
:102520005632000201020301000012010002020201
:102530000040830440570002010203010000090229
:102540002000010104C03209040000020806500501
:102550000705810240000007050102400000090252
:102560006400030100C03209040000010300000000
:102570000921110100012226000705830308000A32
:10258000080B01020202010009040100010202011C
:1025900000052400100105240100020424020205A4
:1025A00024060102070582030800FF090402000255
:1025B0000A000000070501024000000705810240F3
:1025C000000009024300020100C0320904000001BA
:1025D0000202010005240010010524010001042469
:1025E00002020524060001070582030800FF090412
:1025F0000100020A00000007050102400000070573
:10260000810240000000FF00000000FFFF0000000A
:102610000000AA5505010000010005010905A101FE
:10262000A10005010930093109320933093509349E
:10263000094009381581257F750895088102C0C0B9
:10264000000009022200010100E03209040000013B
:102650000301020009211101000122260007058360
:102660000308000A00000000000001020304010248
:1026700003040607080921C50208E9CB020865C75B
:102680000208E5A2020809A50208F5A2020811A3A2
:102690000208BDA20208ADA202080000000000006E
:1026A00000002D202D2D202D2D2D2D202D2D2D2DDB
:1026B000000000000000000000000000000000001A
:1026C00000AA550B010000AA5507010000AA5509F0
:1026D00002000000000001000000C012AA55030023
:1026E0009F00FF1FFF1F0100000028760020000050
:1026F0000000F423002004000000E01B0508903DCA
:10270000050800000000B1170108A08601000400C0
:1027100000000000000000000000000000000000B9
:102720000000000000000000000000000000E01BAE
:102730000508B03E05080000000059A80108E8039C
:102740000000040000000000000000000000000085
:102750000000000000000000000000000000000079
:102760000000AC35050848FB040800000000151DFA
:1027700001087D00000006000000000000000000CD
:102780000000000000000000000000000000000049
:10279000000000000000381B0508000000000000D9
:1027A000000009150208E803000003000000000013
:1027B0000000000000000000000000000000000019
:1027C00000000000000000000000B83E0508000006
:1027D000000000000000AD03040810270000030003
:1027E00000000000000000000000000000000000E9
:1027F00000000000000000000000000000001C3C81
:10280000050800000000D99A0008B1AC01085F7605
:1028100000000500000000000000000000000000B3
:1028200000000000000000000000000000000000A8
:102830000000A01D05080000000000000000F51ABF
:102840000208102700000100000000000000000046
:102850000000000000000000000000000000000078
:10286000000000000000C43E050800000000000059
:1028700000005DA80108E80300000500000000005A
:102880000000000000000000000000000000000048
:1028900000000000000000000000D03E050800001D
:1028A0000000000000002D960108204E00000300EB
:1028B0000000000000000000000000000000000018
:1028C0000000000000000000000000000000E03EEA
:1028D0000508000000000000000019940108204EC7
:1028E00000000300000000000000000000000000E5
:1028F00000000000000000000000000000000000D8
:102900000000F03E0508000000000000000041AAA1
:102910000108400D0300030000000000000000005B
:1029200000000000000000000000000000000000A7
:10293000000000000000A41C0508000000000000CA
:102940000000D96A03081027000001000000000001
:102950000000000000000000000000000000000077
:1029600000000000000000000000501B05080000EF
:102970000000000000005971020810270000030049
:102980000000000000000000000000000000000047
:102990000000000000000000000000000000003FF8
:1029A00005080000000000000000F5A90008A0864E
:1029B0000100010000000000000000000000000015
:1029C0000000000000000000000000000000000007
:1029D0000000AC320508000000000000000061A704
:1029E0000108A861000001000000000000000000D4
:1029F00000000000000000000000000000000000D7
:102A0000000000000000083F050800000000000072
:102A10000000358D0208A0860100010000000000C2
:102A200000000000000000000000000000000000A6
:102A300000000000000000000000A81D05080000C4
:102A400000000000000071D40108A00F0000010088
:102A50000000000000000000000000000000000076
:102A60000000000000000000000000000000143F13
:102A700005080000000000000000B1360208102721
:102A80000000010000000000000000000000000045
:102A90000000000000000000000000000000000036
:102AA0000000AC1C0508000000000000000051E917
:102AB00002081A41000001000000000000000000B0
:102AC0000000000000000000000000000000000006
:102AD000000000000000081E0508000000000000C3
:102AE000000015AB020810270000010000000000E4
:102AF00000000000000000000000000000000000D6
:102B000000000000000000000000A43D05080000D7
:102B1000000000000000855D02081A41000001006D
:102B200000000000000000000000000000000000A5
:102B30000000000000000000000000000000203F36
:102B400005080000000000000000C9E40208400D74
:102B50000300000000000000000000000000000072
:102B60000000000000000000000000000000000065
:102B70000000283F0508000000000000000003627C
:102B80000308400D030000000000000000000000EA
:102B90000000000000000000000000000000000035
:102BA000000000000000303F0508000000000000A9
:102BB0000000AD7E020850C30000030000000000CA
:102BC0000000000000000000000000000000000005
:102BD000000000000000000000003C3F050800006D
:102BE0000000000000008D93010840420F0000002B
:102BF00000000000000000000000000000000000D5
:102C00000000000000000000000000000000483F3D
:102C1000050800000000000000002563030850C301
:102C200000000000000000000000000000000000A4
:102C30000000000000000000000000000000000094
:102C40000000000200051002700B1A0300000000D3
:102C50000000000000000000000000000000000074
:102C6000000000000000040309041201000200003B
:102C70000040830420570002010203010000C13814
:102C80000308050F0308010F0308FD0E03088D1844
:102C90000308F90E0308F50E03085CD2040895CE6C
:102CA0000208F9A302087DCD020800000000000020
:102CB0000000B1C30208CDC20208000000000000FD
:102CC00000000000000059A202089D0F0308910FA8
:102CD0000308DD1D0308F91D0308490F0308C11D82
:102CE0000308A51D030801000000500100000700B3
:102CF00000000200000000000000000000000102CF
:102D000003040607080971A802083DA4020841C788
:102D1000020800000000A9A20208F5CE020825A8BA
:102D2000020879C40208000000000000000065A24B
:102D30000208F9A10208EDA10208C5BB0208E1BB27
:102D40000208A9BB02088DBB020871BB020829A8B2
:102D5000020819A4020881C60208000000007DA232
:102D600002087DC40208F9A70208D9C302080000BE
:102D700000000000000071A2020808000000E9A1A4
:102D80000208E5A10208E1A10208D5A10208D1A12B
:102D90000208DDA10208D9A10208010000000060BC
:102DA0000240106002400000000000000000000B24
:102DB00000000000000000000000000000000060B3
:102DC0000240286002400100000000000000060CE4
:102DD0000000000000000000000000000000006093
:102DE0000240406002400200000000000000100DA0
:102DF0000000000000000000000000000000006073
:102E00000240586002400300000000000000160E5F
:102E10000000000000000000000000000000006052
:102E20000240706002400400000000000000200F1B
:102E30000000000000000000000000000000006032
:102E400002408860024005000000000000002610DB
:102E50000000000000000000000000000000006012
:102E60000240A06002400600000000000000301197
:102E700000000000000000000000000000000060F2
:102E80000240B86002400700000000000000362F3A
:102E900000000000000000000000000000000064CE
:102EA00002401064024000000000000000000038F2
:102EB00000000000000000000000000000000064AE
:102EC00002402864024001000000000000000639B2
:102ED000000000000000000000000000000000648E
:102EE0000240406402400200000000000000103A6E
:102EF000000000000000000000000000000000646E
:102F00000240586402400300000000000000163B2D
:102F1000000000000000000000000000000000644D
:102F20000240706402400400000000000000203CE9
:102F3000000000000000000000000000000000642D
:102F400002408864024005000000000000002644A2
:102F5000000000000000000000000000000000640D
:102F60000240A0640240060000000000000030455E
:102F700000000000000000000000000000000064ED
:102F80000240B8640240070000000000000036461E
:102F90000000000000000000000000000000000031
:102FA000803F000000000000000000000000000062
:102FB000803F000000000000000000000000000052
:102FC0000000000000000000000000000000000001
:102FD000000000000000010000000000803F000031
:102FE000000000000000000000000000803FA42757
:102FF00000200000000000000000000000000000B1
:1030000000000000000000000000000000000000C0
:1030100000000000000000000000000000000000B0
:1030200000000000000000000000000000000000A0
:103030000000000000000000000000000000000090
:103040000000000000000000000000000000000080
:10305000000001000000000000000000000000006F
:103060000000000000000000000000000000000060
:103070000000000000000000000000000000000050
:103080000000000000000000000000000000000040
:103090000000000000000000000000000000000030
:1080000000230122C2708370038003714371837166
:10801000C37103724372704700230A2203604360F6
:10802000C381C0F80630C0F80A300280704700BF34
:108030002DE9F043924BD9791A7A914200F0B4803D
:10804000D979DA79C1EBC10103EB8101C2EBC2023C
:1080500003EB820291F82B40167CA21E964241D07F
:10806000884ADC6812781B2A00F0A1800020DA79A7
:1080700085490132A1FB0251490801EB4101521A25
:10808000D2B2DA71002C75D0804A5268C2F308026D
:10809000002A4DD1EFF31182002A49D17C497D4E4F
:1080A0000A68B56800BF0C68A242F9D17A490E6827
:1080B0004FF47A7404FB06F14D1BB5FBF6F504FB97
:1080C0000252D3F89810521AB2F5FA7F04DB00225C
:1080D00040F0040083F89520D3F89020002A51D175
:1080E000BDE8F083DA7903F11007C2EBC20207EBB7
:1080F000820264B11444002112F8015B29449442C5
:1081000089B2F9D1CAB202EB1121FF295BD05D4AD5
:10811000DC6812781B2AA9D1B3F864205F490132C8
:1081200092B204208880A3F864204A8000209EE751
:10813000EFF31184102282F31288564D5849AE682D
:108140002A68D20344BF01220A60514A48BFAE6880
:1081500017680A68E4B284F311884F490D684FF438
:108160007A743A4404FB05F1891BB1FBF5F104FB79
:108170000212A6E793F89520002A85D1D3F8902023
:10818000002AADD0424909688A1AB2F5FA7FA7D908
:1081900093F86620032A04BF0022A3F88C20002253
:1081A000C3F89020BDE8F083DC6800206AE7B3F8EC
:1081B00064203A49013292B203208880A3F86420F7
:1081C0004A80002053E7DA7901211C2404FB0212C3
:1081D000B918BA5CE2B1012A13D1082E39D0294A64
:1081E000DC6812781B2A7FF441AFB3F864202B4976
:1081F000013292B206208880A3F864204A800020D1
:1082000035E7204A12781B2A16D0DC6800202EE7BA
:10821000192EDC6846D01B4909781B297FF426AF4C
:10822000B3F864101D4D013189B206261046A3F83B
:1082300064106980AE801AE7B3F864201749DC68DF
:10824000013292B205208880A3F864204A80002081
:108250000DE793F89420002AD7D04A78102A00F02E
:10826000018140F2FC80303A012ACED851F8010F4A
:1082700018608A798888DB6098809A71004CF5E6EE
:1082800008280020C5AF0020ABAAAAAA00ED00E094
:1082900064B1002010E000E0FCBA0020C8AF00206C
:1082A000F8BA002091F802C04D78026991F8038075
:1082B00091F804908E79CF7991F808E00CF0070CD2
:1082C00045EA0C2508F03F0891F80AC015808D7822
:1082D0004FEA481848EAD5088D7BA2F8028091F849
:1082E00003804FEA890040EA981091F8058008F071
:1082F000010840EA8820908006F00F06487991F83E
:108300000780F60146EA50004E7AD0804FEA4E0EC2
:108310004EEAD81E06F0030691F80680C87A07F0E8
:108320007F074EEA462E3F014E7BA2F80AE047EA5D
:108330001817178106F007078E7A91F809E0C00038
:1083400040EA56100E7B0CF01F0C46EA072605F09B
:108350003F054F7BD0816D014FEA8C1C45EAD70069
:108360004CEA9E0CA2F80CC016825082C87B91F891
:108370000EE0CF7C91F8128091F811C08E7C4D7D7B
:10838000800040EA9E1091F810E07F000EF0010E90
:1083900047EAD8170CF00F0C91F8108040EA8E20B5
:1083A0004FEACC1C91F814E090824CEA580C887D7E
:1083B000A2F816C006F07F0691F811C00EF0030E69
:1083C00047EA4E27360146EA1C16578391F814C037
:1083D0004F7D168305F01F05AD01C00045EA9C05E1
:1083E00040EA5710D0839583CD7D40F2147015F08C
:1083F000010F14BF0646AD2615F0020F08BFAD20D1
:1084000016842E07508428D415F0040F0CBF0120C9
:10841000092093F86620032A1AD193F867500A7E40
:10842000124F996E03EB4506C2EB8222A7FB027244
:10843000B6F86C705209C91B0135114405F00F05DF
:1084400083F867500D09A6F86C209966A3F88C5044
:1084500007490A68C3F8902009E60320D9E7002AF3
:108460007FF4D3AE012283F89520CEE61F85EB5131
:1084700064B100206F4B5B68C3F3080370B4B3B9F9
:10848000EFF311839BB96C4A6C4D1368AC6800BF65
:1084900011688B42F9D16A4A15684FF47A7101FB71
:1084A00005F2121BB2FBF5F201FB032220E0EFF311
:1084B0001184102383F3128803F1E02361499D683E
:1084C0001A68D20342BF01220A609D685A4BE4B287
:1084D0001E680B6884F31188594A14684FF47A7245
:1084E00002FB04F13344491BB1FBF4F102FB03121C
:1084F000554B002183F89C1093F89D10012917D942
:10850000D3F8A01040F6AC54511AA14210DD4F49E7
:1085100009781B2909D1B3F864104D4C013189B297
:108520000125A3F864106180A580002183F89D10C7
:10853000C0B27E2828D093F89D201AB393F89D20CE
:108540001B2A58D893F8AC20002A6CD0002280F067
:10855000200083F8AC2093F89D20022A03D1012843
:1085600008BF83F8A4001A7A93F89D4093F89D10F1
:10857000C2EBC20203EB820222440131C9B2D073C2
:1085800083F89D1070BC704793F89D1001292BD97A
:10859000197A3048DC790131A0FB0150400800EB2A
:1085A0004000091AC9B28C420AD093F89D40187A4B
:1085B0001972C0EBC00003EB8000611E80F82B1025
:1085C00093F8A41039B10120002183F89C0083F8AE
:1085D000A410C3F898201D4909781B291DD000213B
:1085E000C3F8A82083F8AC10012183F89D10C3F8CC
:1085F000A02070BC7047154A127800211B2A83F80E
:108600009D10BFD1B3F864201149013292B202200B
:10861000A3F864204A808880B4E7D3F8A8100C48F7
:10862000511A0180DBE77D2895D1012283F8AC2027
:10863000A8E700BF00ED00E064B1002010E000E01A
:10864000FCBA0020F8BA002008280020C5AF00209E
:10865000C8AF0020ABAAAAAA03788B4283BF034B02
:1086600003EB4101B1F8B00000207047082800205A
:10867000044B93F8C80018B1002283F8C8200120E9
:10868000704700BF08280020F0B4C24D95F8EF6095
:1086900005F1CC020244B41E1444A24200F07881D9
:1086A000013A013C002341F2210112F8017F83EAE3
:1086B00007231FB2BBB2002FACBF5B0081EA4303AC
:1086C0009BB21F0454BF5B0081EA43039BB21F04AB
:1086D00054BF5B0081EA43039BB21F0454BF5B009D
:1086E00081EA43039BB21F0454BF5B0081EA43034A
:1086F0009BB21F0454BF5B0081EA43039BB21F047B
:1087000054BF5B0081EA43039BB21F0454BF5B006C
:1087100081EA4303A2429BB2C7D10644B21E013E86
:108720002A442E4492F8CC1096F8CC2002EB012279
:1087300092B29A4201D0F0BC704795F8F020002A1E
:1087400000F02181431CDBB25C1C2C442B444FF411
:10875000AF6193F8CC6094F8CC3003EB06239BB266
:1087600001FB03F31B1303F54873012AA5F8B0308E
:1087700000F00981C31CDBB25C1C2C442B44022A90
:1087800093F8CC6094F8CC3003EB06239BB201FB4A
:1087900003F34FEA233303F54873A5F8B23000F032
:1087A000F280431DDBB25C1C2C442B44032A93F85B
:1087B000CC6094F8CC3003EB06239BB201FB03F3AF
:1087C0004FEA233303F54873A5F8B43000F0DB809B
:1087D000C31DDBB25C1C2C442B44042A93F8CC60F0
:1087E00094F8CC3003EB06239BB201FB03F34FEA72
:1087F000233303F54873A5F8B63000F0C48000F1C8
:108800000903DBB25C1C2C442B44052A93F8CC6092
:1088100094F8CC3003EB06239BB201FB03F34FEA41
:10882000233303F54873A5F8B83000F0AC8000F1AD
:108830000B03DBB25C1C2C442B44062A93F8CC605F
:1088400094F8CC3003EB06239BB201FB03F34FEA11
:10885000233303F54873A5F8BA3000F0948000F193
:108860000D03DBB25C1C2C442B44072A93F8CC602C
:1088700094F8CC3003EB06239BB201FB03F34FEAE1
:10888000233303F54873A5F8BC307CD000F10F0307
:10889000DBB25C1C2C442B44082A93F8CC6094F87F
:1088A000CC3003EB06239BB201FB03F34FEA2333E7
:1088B00003F54873A5F8BE3065D000F11103DBB2B3
:1088C0005C1C2C442B44092A93F8CC6094F8CC30DF
:1088D00003EB06239BB201FB03F34FEA233303F5BB
:1088E0004873A5F8C0304ED000F11303DBB25C1C16
:1088F0002C442B440A2A93F8CC6094F8CC3003EB38
:1089000006239BB201FB03F34FEA233303F54873BD
:10891000A5F8C23037D000F11503DBB25C1C2C4443
:108920002B440B2A93F8CC6094F8CC3003EB06234D
:108930009BB201FB03F34FEA233303F54873A5F819
:10894000C43020D000F11703DBB25C1C2C442B4454
:108950000C2A93F8CC6094F8CC3003EB06239BB23E
:1089600001FB03F34FEA233303F54873A5F8C63040
:1089700009D000F11903DBB25A1C2A442B4493F8A6
:10898000CC3092F8CC30012385F8C830F0BC704769
:108990000023C2E608280020794B5B68C3F3080374
:1089A00070B5B3B9EFF311839BB9764A764D13686E
:1089B000AC6800BF11688B42F9D1744A15684FF456
:1089C0007A7101FB05F2141BB4FBF5F401FB0343C0
:1089D00020E0EFF31181102383F312886A4C6C4A74
:1089E000A5682368DE0344BF01231360654B48BFBD
:1089F000A5681E681368C9B281F31188634A1468B8
:108A00004FF47A71334401FB04F2521BB2FBF4F2CF
:108A100001FB03235F4CD4F8F420C4F8F4309B1A14
:108A2000B3F5FA5F1AD9002384F8F83084F8F930E6
:108A3000A1282FD0A22800F09C8094F8F92094F867
:108A4000EF300025A2B16A1C6119D5B2C0B29D42B7
:108A500081F8CC0084F8F8500CD070BD94F8F85030
:108A6000002DE5D094F8F92094F8EF30002AEAD1EF
:108A70009D42F2D194F8FA30052B72D0062B03D127
:108A800094F8CD301E2B0DD0002384F8F83084F8F4
:108A9000F93070BD01221B2384F8F92084F8EF30EF
:108AA0000025D0E76A1E002A4FF0000150DD08467D
:108AB0000B462344013093F8CC30DBB283EA010546
:108AC000ED074FEA530348BF83F08C0383EA510557
:108AD000EE074FEA530348BF83F08C0383EA910506
:108AE000ED074FEA530344BF83F08C03DBB283EA04
:108AF000D105EE074FEA530344BF83F08C03DBB28A
:108B000083EA1115ED074FEA530344BF83F08C034A
:108B1000DBB283EA5115EE074FEA530344BF83F0FB
:108B20008C03DBB283EA9115ED074FEA530344BF90
:108B300083F08C03DBB283EAD1155908EB0748BFF9
:108B400081F08C01C0B248BFC9B290420346B0DB8D
:108B5000224492F8CC308B4296D10320FFF794FD4B
:108B600092E70020FFF790FD94F8CD301E2B8BD1BB
:108B700098E70122232384F8F92084F8EF308FE767
:108B800000ED00E064B1002010E000E0FCBA00203D
:108B9000F8BA00200828002007299DBF034B03EBEB
:108BA0008101B1F8FC000020704700BF08280020B8
:108BB0001A4B93F81C2132B193F820210021A82AE6
:108BC00083F81C1101D00020704793F83321002A4C
:108BD000F9D110B4DFED126A03F5907103F1F800DA
:108BE00003F59872B4EE047ACC780B7903EB042386
:108BF00007EE903AF8EEE77AB0EE666AA7EE876A7B
:108C000002318A42FCEEC67A17EE903A40F8043FF1
:108C1000EAD101205DF8044B704700BF082800200E
:108C20000080BBC310B5044614F026F90F4BD3F8EF
:108C30003821C3F83801801A41F288329042E4B2F8
:108C400005D983F82041012283F83C2110BD93F817
:108C50003C219918142A81F8204103D1012283F87C
:108C60001C2110BD0132D2B2EEE700BF082800205F
:108C7000034B03EB4101B1F84001C008704700BF4E
:108C800008280020724B93F86021002A00F0C2806F
:108C900070B493F86141B3F8625103EB44010020D2
:108CA00091F8676191F8682183F8600142EA062231
:108CB000954202D0002070BC704793F86521012ACC
:108CC00000F0AA80812AF6D10320102C40F2A68061
:108CD00093F8694193F8675193F8681193F86A2102
:108CE00041EA052142EA04221024A3F84011A3F826
:108CF000422183F8614193F86B1193F86C21032CA6
:108D000042EA0122A3F84421D5D093F86D1193F8DB
:108D10006E21042C42EA0122A3F84621CBD093F81D
:108D20006F1193F87021052C42EA0122A3F8482123
:108D3000C1D093F8711193F87221062C42EA0122F6
:108D4000A3F84A21B7D093F8731193F87421072C34
:108D500042EA0122A3F84C21ADD093F8751193F8A3
:108D60007621082C42EA0122A3F84E21A3D093F8E1
:108D7000771193F87821092C42EA0122A3F85021B7
:108D800099D093F8791193F87A210A2C42EA0122BA
:108D9000A3F852218FD093F87B1193F87C210B2CF0
:108DA00042EA0122A3F8542185D093F87D1193F86B
:108DB0007E210C2C42EA0122A3F856213FF47BAF1E
:108DC00093F87F1193F880210D2C42EA0122A3F839
:108DD00058213FF470AF93F8811193F882210E2C43
:108DE00042EA0122A3F85A213FF465AF93F88311B8
:108DF00093F88421102C42EA0122A3F85C217FF42D
:108E00005AAF93F8851193F8862142EA0122A3F81C
:108E10005E2150E700207047104656E7002C3FF4D3
:108E20004AAF93F8671193F86821012C42EA0122B6
:108E3000A3F840213FF43FAF93F8691193F86A21FA
:108E4000022C42EA0122A3F842217FF454AF32E718
:108E500008280020654B5B68C3F3080370B4B3B9FE
:108E6000EFF311839BB9624A624D1368AC6800BF8F
:108E700011688B42F9D1604A15684FF47A7101FB91
:108E800005F2141BB4FBF5F401FB034320E0EFF300
:108E90001181102383F31288564C584AA568236821
:108EA000DE0344BF01231360514B48BFA5681E6811
:108EB0001368C9B281F311884F4A14684FF47A716C
:108EC000334401FB04F2521BB2FBF4F201FB032317
:108ED0004B49D1F88C219A1AB2F57A6F17D891F8CC
:108EE0009021C1F88C31BAB1022A20D0242A91F8FD
:108EF000613178D901320233D2B25B009A4281F8F3
:108F000090211CDB01339A4265D070BC704700226F
:108F1000C1F88C3181F89021A828F6D1002281F87F
:108F20006021A1F8622191F86131044603E0C4B2E6
:108F300081F8614123468D1885F86441DAE7B1F87C
:108F40006231C0B283EA002000B20028B8BF41F20B
:108F5000210283B2B4BF82EA43035B009BB21804D0
:108F600046BF41F2210282EA43035B009BB21A042E
:108F700046BF41F2210282EA43035B009BB21E041A
:108F800046BF41F2210282EA43035B009BB21D040B
:108F900046BF41F2210282EA43035B009BB21C04FC
:108FA00046BF41F2210282EA43035B009BB21804F0
:108FB00046BF41F2210282EA43035B009BB21A04DE
:108FC00046BF41F2210282EA43035B009BB2A1F853
:108FD000623170BC70470022012381F8902181F832
:108FE000603170BC7047C4B2A5E700BF00ED00E07F
:108FF00064B1002010E000E0FCBA0020F8BA0020C4
:1090000008280020F8B5124D95F8A92102B9F8BD3D
:10901000104B1C6823685E6A3EB1204605F5CA7194
:10902000B047002385F8A931F8BD05F5CA77BE1809
:1090300000E023689B68204698470028F9D0236801
:1090400017F8011B1B6820469847B742F1D1E8E7A3
:10905000082800202875002003788B4210D9094B7E
:1090600003EB810193F8DC31D1F8AC011BB900F5B9
:10907000777080B27047400800F5777080B2704713
:1090800000207047082800202DE9F041CD4C94F8CD
:10909000E40108B9BDE8F08194F8E511002384F8F3
:1090A000E431002900F0368194F8E831C64D94F897
:1090B000F8215BB213F1630FB8BF95F90030002AB5
:1090C00040D013F1310F80F2B48113F1380F80F2E8
:1090D000D38113F13D0F80F2D38113F1420F80F25F
:1090E000D38113F1450F80F2D38113F1470F80F242
:1090F000D38113F1490F80F2D38113F14A0F00F0AD
:10910000D38113F14B0F00F0D28113F14C0F00F01B
:10911000D28113F14D0F00F0D18113F15C0FB8BF74
:10912000642680F2CE81D4F8FC01A84F00FB06F043
:1091300087FB0076C017C0EB661004EB820680B296
:10914000C6F8AC012B7094F8F47194F8F53194F8EA
:10915000F60194F8F7611B0443EA0763334343EADB
:10916000002303F0F020B0F1E02F00F0CA801027B8
:1091700094F8070294F8EA31D4F8086294F80CC223
:109180003678034103F00F039E4210D90B2B0ED803
:10919000002A40F0258194F8EA8194F8EBE104EB91
:1091A00083030CEA08080EEB082EC3F8ACE194F830
:1091B000EC31034103F00F039E4210D90B2B0ED864
:1091C000002A40F0118194F8EC8194F8EDE104EB71
:1091D00083030CEA08080EEB082EC3F8ACE194F800
:1091E000EE31034103F00F039E4210D90B2B0ED832
:1091F000002A40F0FD8094F8EE8194F8EFE104EB52
:1092000083030CEA08080EEB082EC3F8ACE194F8CF
:10921000F031034103F00F039E4210D90B2B0ED8FF
:10922000002A40F0E98094F8F08194F8F1E104EB31
:1092300083030CEA08080EEB082EC3F8ACE194F89F
:10924000F231034103F00F039E423DD80D2F32DD72
:1092500094F8F431034103F00F039E4210D90B2B15
:109260000ED80AB19A420BD094F8F48194F8F5E143
:1092700004EB83030CEA08080EEB082EC3F8ACE1FC
:10928000102F18D194F8F63143FA00F000F00F00D7
:10929000B04210D20B280ED80AB190420BD094F8ED
:1092A000F62194F8F73104EB800002EA0C0C03EB92
:1092B0000C23C0F8AC3109B394F8A931002B56D176
:1092C000012084F80602E5E60B2BBFD80AB19A42CA
:1092D000BCD094F8F28194F8F3E104EB83030CEA38
:1092E00008080EEB082EC3F8ACE1AFE73849394A5D
:1092F000EB600A6094F8A931002BE1D00120BDE8B1
:10930000F08194F8EA0100063FF531AF32480C27AE
:1093100003602DE713F0B0FD2B4D304B6A78A3FBB3
:1093200000135B0C002A3ED094F8E80194F8E92180
:10933000D2B2122A18BF012A08D002F0EF02A2F11D
:10934000A202B2FA82F2520902B96A70D4F800128B
:1093500094F8F82179B38B4252D0591A012952D08E
:1093600094F8E511A4F80402C4F80032EBE694F88E
:10937000EA311B06C2D413F07FFDD4F8E03100F5CA
:109380007A70A860002BB1D05A68121A002A04DB48
:10939000ACE75A68121A002AA9DA03F108019B689F
:1093A000002BF6D1A3E794F8E82194F8E90100EB4B
:1093B000022080B2CAE7A4F80402C4F8003294F88C
:1093C000E511C0E608280020000000201F85EB51B1
:1093D000E829002004000020941E002083DE1B43A7
:1093E00093427FF4D8AEE2E693427FF4ECAEF6E629
:1093F00093427FF400AF0AE79A427FF414AF1EE76E
:1094000094F8E5119FE6002AAAD0B4F80462D4F8D3
:10941000FC112E4F861B143E01FB06F187FB0176E3
:10942000C917A1EBE60104EB820689B2C6F8AC11BC
:1094300096E76FF0300C0126254806F1FF3800EB67
:10944000480E00EB46069EF801E0777810F91860A8
:10945000A7EB0E07981B00FB07F0ACEB060690FB92
:10946000F6F0704440B2002801DA00265BE664287A
:10947000A8BF6420064656E66FF0370C0226DBE7ED
:109480006FF03C0C0326D7E76FF0410C0426D3E7BE
:109490006FF0440C0526CFE76FF0460C0626CBE7AD
:1094A0006FF0480C0726C7E79C460826C4E76FF014
:1094B0004A0C0926C0E79C460A26BDE79C460B26B7
:1094C000BAE76FF05B0C0C26B6E700BF676666660E
:1094D000B89F0408324B5B68C3F3080370B4B3B998
:1094E000EFF311839BB92F4A2F4D1368AC6800BF6F
:1094F00011688B42F9D12D4A15684FF47A7101FB3E
:1095000005F2141BB4FBF5F401FB034320E0EFF379
:109510001181102383F31288234C254AA568236800
:10952000DB0344BF012313601E4B48BFA5681E68C0
:109530001368C9B281F311881C4A14684FF47A7118
:10954000334401FB04F2521BB2FBF4F201FB032390
:10955000184AD2F81012C2F810325B1A41F2883160
:109560008B420AD9C0B2012382F8E80182F8143292
:10957000002382F8E43170BC704792F814320F2B4C
:10958000F9D8D1180133DBB2C0B2102B81F8E80151
:1095900082F81432ECD1012382F8E43170BC7047B8
:1095A00000ED00E064B1002010E000E0FCBA002013
:1095B000F8BA002008280020036933F8110000EBF6
:1095C0008000C01000F55C7080B27047436993F86A
:1095D0002320002A00F0CF802DE9F0477B4ADE7D72
:1095E000127800211A2A06F0040506F0080483F810
:1095F000231000F0C280002D40F0CC80002C40F001
:10960000D980254693F802A093F8068093F801E0EC
:109610000269DF7893F8049093F807C00AF0070016
:1096200008F00F014FEAC1184EEA002107F03F078A
:10963000187A1180997893F805A093F80AE07F01D1
:1096400047EAD107D97857804FEA890949EA911941
:10965000997B0AF0010A01F03F014F0149EA8A2192
:109660009180597948EA5101D1800CF07F0C9979A9
:1096700093F807804FEA0C1C4CEA111C597AA2F8A7
:1096800008C0400040EAD81001F0030140EA412040
:1096900093F80DC0D97A50810EF01F0E587A4FEA18
:1096A0008E1E4EEA90009081187B93F80AE00CF031
:1096B000070C40EA0C20C90093F80DC0108241EA63
:1096C0005E11D18147EADC01518293F80FE093F8F3
:1096D0000E80597CDF7C93F812C0587D4FEA8E0EC5
:1096E0004EEA981E93F8108008F001084EEA882E82
:1096F00001F00F0193F81280A2F814E093F810E043
:109700007F00C90141EA5E0147EAD81793F814E0E7
:1097100093F81180D1820CF07F0C4FEA0C1C997DDC
:109720000EF0030E4CEA181C47EA4E2716F0010F04
:1097300093F814E0A2F818C000F01F0093F815C0C9
:10974000578340F2147314BF1F46AD278001C90030
:1097500016F0020F40EA9E0041EA5C1108BFAD23FB
:109760009083D183178453840CBB002D0CBF012040
:109770000920BDE8F0871046704715491F8C0E8000
:1097800075B147F002021A8412B274B147F00302B5
:109790001A8409E01A8C94B942F002021A8431E763
:1097A0008CB147F001021A8412B24A802AE70320E2
:1097B000BDE8F0871A8C42F001021A8422E742F0D9
:1097C00003021A841EE73AB22546EEE7C5AF002031
:1097D000C8AF0020394B5B68C3F30803F0B413BB78
:1097E000EFF31183FBB9364A364E1368B56800BFF4
:1097F0001468A342F9D1344A16684FF47A7404FB12
:1098000006F2551BCA69B5FBF6F504FB03539A1A19
:1098100040F6AC54A2422DDC91F822406CB3182CD7
:1098200037D9F0BC7047EFF31184102383F312880B
:10983000244D264AAE682B68DB0344BF0123136026
:109840001F4B48BFAE681F681368E4B284F31188E9
:109850001D4A15684FF47A7404FB05F23B44921BD1
:10986000B2FBF5F204FB0323CA6940F6AC549A1A22
:10987000A242D1DD002281F822200F28D1D101227D
:10988000CB61087081F82220002381F82330F0BCDE
:109890007047631CDBB2192B81F822300855F3D1D5
:1098A0000B4B1B781A2B08BF0A4B4FF0010081F8B5
:1098B000230008BF9A80F0BC704700BF00ED00E0B5
:1098C00064B1002010E000E0FCBA0020F8BA0020EB
:1098D000C5AF0020C8AF0020094BDFED0A6ADFEDFD
:1098E0000A7A03EB810191ED867AB8EE477AE7EECA
:1098F000267AFCEEE77A17EE903A98B2704700BFEE
:109900000828002001F11F3F00405C44714A92F892
:10991000583233B192F85E320021162B82F8581279
:1099200001D00020704792F85D32022BF0B440F273
:10993000CE8002F51770184402F25E21D32311F88D
:10994000014F634013F0800F4FEA430318BF83F0C9
:10995000D503DBB213F0800F4FEA430318BF83F047
:10996000D503DBB213F0800F4FEA430318BF83F037
:10997000D503DBB213F0800F4FEA430318BF83F027
:10998000D503DBB213F0800F4FEA430318BF83F017
:10999000D503DBB213F0800F4FEA430318BF83F007
:1099A000D503DBB213F0800F4FEA430318BF83F0F7
:1099B000D503DBB213F0800F4FEA430318BF83F0E7
:1099C000D5038842DBB2BAD192F87512994202D01F
:1099D0000020F0BC704792F8640292F8636292F83B
:1099E000681292F86C3292F8704292F86052B2F8B3
:1099F00060C2D2F8607200F00F00C00140EA560069
:109A000001F01F0192F86762C2F82402890141EA5D
:109A1000960103F03F0392F86B6292F86F02C2F86E
:109A200030125B0143EAD60392F85F12C2F83C326F
:109A300004F07F04B2F86432D2F86462240105F0C5
:109A4000070544EA101041EA0521C3F30A13C2F8DE
:109A50004802B2F86852C2F81812B2F86A42D2F854
:109A60006C02B2F86E12C2F82832D2F87032C0F32B
:109A70008A10C1F34A01C3F3CA13CCF3CA0CC7F36B
:109A80008A37C6F3CA366D09C4F30A04C2F8400225
:109A9000C2F84412C2F81CC2C2F82072C2F82C628A
:109AA000C2F83452C2F83842C2F84C3292F87432DA
:109AB00092F87302B2F87212DB0043EA5013C1F35A
:109AC0008A01C2F85432C2F85012012081E7D32330
:109AD0007AE700BF08280020F8B5674B1C68E70745
:109AE000054616D5654B93F89C2293F89D1291423A
:109AF0003BD1D3F8A022AA4202D8614A00211170BA
:109B0000D3F8C002281A002821DD012083F8C402FE
:109B1000F8BD14F4005449D15A4883689847C607E1
:109B20001CD5594A554BC0F3400110F00A0F11746F
:109B300093F866202AD0052A6BD04207D9D5012296
:109B400083F8C522D3F8A022AA42D9D8D5E793F842
:109B5000C4020028DCD193F8C502F8BD4107474B89
:109B6000C7D5012283F8C522ECE7D3F8A402464CFE
:109B7000434983F89D22284401220025C3F8A0020E
:109B8000012025740A7083F8C402C1E7D3F8A41237
:109B9000052A0D44C3F8A05251D0400767D4384A73
:109BA00001210120117083F8C402B1E7334BB3F8EF
:109BB000A82212BBB3F8AA22FAB9B3F8AC22E2B9D0
:109BC000B3F8AE22CAB9B3F8B022B2B9B3F8B22230
:109BD0009AB9B3F8B42282B9B3F8B6226AB9B3F825
:109BE000B82252B9B3F8BA223AB9B3F8BC2222B9B2
:109BF000B3F8BE22002A3FF47CAFD3F8A422224857
:109C00001F492A440024C3F8A022012204740A70C8
:109C100076E793F86720996E03EB42060132B6F8B7
:109C20006C70A6F86C40C91B0C0902F00F02A3F877
:109C30008C40440783F86720996680D459E793F8ED
:109C400067109A6E03EB410402F2FF32B4F86C50D5
:109C50000131521B01F00F0140F2FF3583F867100C
:109C60001109A4F86C509A66A3F88C1095E70122AC
:109C700083F8C52293E700BFE8CC00200828002025
:109C8000E53F00209856002000000020002070478B
:109C90000020704701207047024B03EB4101B1F8EF
:109CA000C802704708280020044B93F8EC0218B152
:109CB000002283F8EC220120704700BF0828002012
:109CC000024B03EB8101B1F8F00270470828002035
:109CD00003788B4283BF034B03EB4101B1F82803A8
:109CE000002070470828002038B5394C054613F08D
:109CF000C3F8D4F87C33C4F87C03C01AB0F57A7F7B
:109D00001CDD0023282284F8803384F8823384F811
:109D1000833384F881233D2D42D03E2D0DD12D4A31
:109D2000C4F88423012384F882330123157084F856
:109D3000803394F881239A4220D038BD94F8802350
:109D4000002AE8D0531CDBB2D4F8841384F88033A3
:109D5000062B8D54EDD194F88233012B27D094F843
:109D60008333012B27D00023282284F8803384F802
:109D7000823384F8833384F8812338BD94F88233A6
:109D8000012B04BF022384F8823394F88333012B20
:109D900015D00022282384F8802384F8813338BD2D
:109DA0000D4AC4F88423012384F88333BDE78B78FC
:109DB000282BD4D8F1E78B78092BD4D8EDE70223F0
:109DC00084F8833313F058F8C4F88803E1E700BF40
:109DD000082800205C2B0020502B002030B40246C5
:109DE000002305251E2400E00232032BD4BF0021EE
:109DF000012100F813100133042B04D0122B5470EE
:109E0000F2D130BC70475570EEE700BF024B0360E3
:109E100043608360C3607047E803D007024B03EBE5
:109E20004101B1F8A802704708280020024B03EB5B
:109E30004101B1F8A80270470828002030B4264C30
:109E400094F88233022B02D0002030BC704794F883
:109E50005653EDB1013D04F2553353FA85F504F53F
:109E60005570002210F8013B534083EA0313DBB224
:109E7000120AD90042EA0322854281EA131382EAD8
:109E80000302EFD122B1002084F8820330BC704776
:109E9000B4F854335BBA9BB243F60162934209D0E3
:109EA00043F60362934205D0002384F882330120F5
:109EB00030BC7047094AA2F12E0102F12005D07989
:109EC0009379023203EB0023C3F3CC03AA4221F8B7
:109ED000023FF4D1E8E700BF082800205C2B0020F7
:109EE0004E4B5B68C3F3080370B4B3B9EFF311834F
:109EF0009BB94B4A4B4D1368AC6800BF11688B424D
:109F0000F9D1494A15684FF47A7101FB05F2141B27
:109F1000B4FBF5F401FB034320E0EFF311811023C0
:109F200083F312883F4C414AA5682368DB0344BF92
:109F3000012313603A4B48BFA5681E681368C9B275
:109F400081F31188384A14684FF47A71334401FB65
:109F500004F2521BB2FBF4F201FB0323344AD2F8A1
:109F60008C13591AB1F5FA7F14D90021C2F88C3339
:109F700082F8901382F89113C3B2042B26D0202BC1
:109F800024D092F8941309B9552838D0814216D1BB
:109F9000002109E092F8911399B992F89013C2F850
:109FA0008C33C3B20029E8D092F8920354180138D8
:109FB000814284F89C331DD0013182F8901370BC2B
:109FC0007047013982F8911370BC70470021022458
:109FD0004FF6FF7082F89843A2F896035418581E63
:109FE000814282F8943382F8923382F8931384F892
:109FF0009C33E1D1012382F8BC3370BC704701244B
:10A000001F2582F89403A2F8961382F89C3382F8F5
:10A01000934382F8984382F89253CDE700ED00E035
:10A0200064B1002010E000E0FCBA0020F8BA002083
:10A03000082800200D49B1F8BD3330B508224AF296
:10A04000010580EA030414F0010F4FEA530318BF1F
:10A050006B4002F1FF3218BF9BB212F0FF024FEAD1
:10A060005000EED1A1F8BD3330BD00BF082800205C
:10A0700008461FF011B900BF0FB400B583B004ABA0
:10A08000054953F8042B0193002028F055FC03B038
:10A090005DF804EB04B0704771A00008F8B50F4BF1
:10A0A000D3F8C053D3F8C443D3F8C863A9B1831E0F
:10A0B00000EB410727441E4404441D4434F9022B9D
:10A0C00036F9023F35F9020F134403EBD373A0EBCB
:10A0D00063001FF0C8F9A742F0D1F8BD082800209E
:10A0E000F8B5264C3C22002120463EF069FB244B6B
:10A0F000244AB3F86010D6781779218410330FCB37
:10A1000004F10805102E84F8247085E80F0009D8A2
:10A1100001231D48B340184020B90EB93046F8BDA0
:10A12000012EFCD0194A1A4913681A481A4E2060A9
:10A1300043F0020313601025184A104862604FF480
:10A14000807323834D7526F03DFFB6F8CC334FF472
:10A150007A72A26283B106F5747506F23C47B6F8CE
:10A16000CC33A16A00EE103A2846B8EE400A2435F6
:10A1700028F0B0FEAF42F2D10120F8BDA00E0010D1
:10A18000E00E00102CD60020011D010050D600204A
:10A1900000000020C50F030808280020C10F030895
:10A1A0002DE9F04F2DED028BB14DB24FAB7D012B60
:10A1B00091B000F01E83022B0CBF072300233B70DD
:10A1C000AD4B1B78132B00F2B9820122AB499A40A8
:10A1D0000A4208BF00236A79A94C3B71131C18BFBF
:10A1E0000123A84E84F86530DFF820930023202255
:10A1F000C6E90033C6E90233232084F8692084F8D5
:10A20000623089F83C3412F0EDFE9F4AA369626126
:10A2100002222274002B00F0D0831420A36112F0DC
:10A2200089F999F83D84E061B8F1000F00F0888267
:10A23000DFF8DC8294F86030E26DC9F840240D2B21
:10A2400040F06A829149EA780B689148206043F0B7
:10A2500001030B604FF07E538E492362012A4FF0B9
:10A260000F03E16588F8143084F86B3040F2AA835C
:10A2700000239FED897A84F86330012307EE903A3A
:10A28000F8EEE77A013B67EE877A29797C4884F813
:10A290006620FCEEE77A84F86830C6ED007A84F830
:10A2A00067102AF027FE002318462A89E97D84F8E2
:10A2B0006A3032F0FFFC6A89297EDFF8589201206B
:10A2C00032F0F8FCAA893168744BB3FBF1F3934286
:10A2D000C4F89891E889C0F08F82002A40F09082FB
:10A2E0002A8A31686D4BB3FBF1F39342C4F80892AC
:10A2F000688A80F05E8383422BD99AB248B307EE16
:10A30000900A07EE102AF8EE677AB8EE478A27EE31
:10A31000E77A68EE277AA8EE087A614B6148C4F8BC
:10A320000832C7EE878AB0EE480AF0EE680A31F0CC
:10A33000EDFCF0EE680AB0EE480A31685A4831F098
:10A34000E5FCF0EE680AB0EE480A3168574831F093
:10A35000DDFC574BC4F878921B689B001AD5554B0F
:10A36000DFED550A31689FED550A5548C4F878323B
:10A3700031F0CCFCDFED500A31689FED500A5148B6
:10A3800031F0C4FCDFED4C0A31689FED4C0A4E48B9
:10A3900031F0BCFC4D4A35684D4BB3FBF5F34FF43F
:10A3A0007A719BB2B3FBF1F302F128017A613B8130
:10A3B000A83214231020396120213B833A62B881EE
:10A3C0008022B983434800213EF0FAF9802200211F
:10A3D00041483EF0F5F90021802240483EF0F0F976
:10A3E0003F499FED405ADFED4D5ADFED3F3A9FED7B
:10A3F0003F2ADFED3F2A9FED3F3A9FED3F1ADFED09
:10A400003F1ADFED3F6A002307E00133F6EE007AE2
:10A41000202BE1EC017A00F0B08007EE903AB8EE24
:10A42000E77A27EE057A77EE257ABDEEE76A16EE33
:10A43000102A2032402AE8D8B4EEE57AF1EE10FA7C
:10A4400040F317829FED2F6A01E0F0EE477AF4EEB9
:10A45000C67AF1EE10FA37EEE67AF6DCB4EEE37A7D
:10A46000F1EE10FA40F102829FED276A5AE000BF38
:10A470007650002004000010C5AF0020488008007E
:10A48000E00E0010D81100100030014050D600201E
:10A49000F54E0308851D030800007A4420A107003B
:10A4A0006D0D0308EC100010101100103411001095
:10A4B000E8CC0020B50D030885F99D410000C84394
:10A4C0005C11001080110010A4110010D49F04082A
:10A4D00040420F0028000010A800001028010010C2
:10A4E000A80100103C8C4F3EDB0F49C092E741B9F8
:10A4F0009730083C15A82ABEDB0FC9BFDB0F4940C7
:10A50000DB0FC940E4CB1641E4CB16C1082800207C
:10A5100000000020210E0308E5A6C539DB0FC93F66
:10A52000B0EE677AB4EEC67AF1EE10FA77EE267ADC
:10A53000F6D4F4EEE57AF1EE10FA40F38F8171EE85
:10A54000E77A27EEA76AB0EE624AA6EE024A013326
:10A55000202BF0EE430AE4EE060AB7EE007A66EE30
:10A56000674A77EE677AB6EE007AE4EEA07A67EE95
:10A57000877AE1EC017A7FF450AF0C2303FB05F3FB
:10A58000B3F57A7F38BF4FF47A7307EE903AB8EE9E
:10A59000675A5FED1F7A5FED1F2ACA4B9FEDCA6AAB
:10A5A0009FEDCA1ADFEDCA1A9FEDCA3ADFF850B321
:10A5B000DFF850A3DFF85093DFF850E3BCEEC55A44
:10A5C000B0EE622AB8EE455A03F16C0225EE275A26
:10A5D00003F1D80CFDEEC57A75EE222A17EE906ACB
:10A5E000FDEEE27A203617EE905A002120350CEB72
:10A5F0000100C827402E878000F23E81B4EEC15A88
:10A60000F1EE10FA40F3E781B0EE457ADFEDB25A91
:10A61000DFEDB26A01E0B0EE677AB4EEE67AF1EE11
:10A6200010FA77EE657AF6DCF4EEE17AF1EE10FAE4
:10A630000FD5B0EE677ADFEDA85ADFEDA96A01E029
:10A64000B0EE677AB4EEE67AF1EE10FA77EEA57A1C
:10A65000F6D4F4EEC27AF1EE10FA40F3968171EE80
:10A66000677A67EEA76ADFEDAC4ADFEDAC5A9FED83
:10A67000AC7AE6EEA45A67EEA64AA5EEA67AE4EE18
:10A68000877A402D40F2FB80B0EE467AF6EE004A23
:10A69000B7EE004AF7EE003AF0EE630AE7EE830AFF
:10A6A00008311829F0EE635AC3EEA06AC2F800B070
:10A6B000C2F808A0C2F80C90C2F810E003F124031D
:10A6C00002F12402E7EEC35A64EEA64A24EE264ABB
:10A6D00067EE267A65EEA66A03ED036A03ED046A67
:10A6E00003ED016A03ED026A02ED086A02ED036AF6
:10A6F00002ED046A02ED016A02ED026A43ED094AC5
:10A7000043ED074A03ED084A43ED067A43ED056A37
:10A710007FF46DAF012002E0002084F86B0098F810
:10A720001C3023B194F86A30003318BF012388F835
:10A730001C3011B0BDEC028BBDE8F08F00234AE560
:10A740002FF0B2FF18B1202380F8078083714021D9
:10A7500015F066FC642012F0DBFBA06918B11C2226
:10A7600000238271C371092115F05AFCA069DFF83A
:10A77000A081DFF8A0B115F0F5FC012389F83D3484
:10A78000002301971F464FF00A0A002303AA7921EC
:10A7900058462AF0FFFA98B1BDF81430A8F81A30DC
:10A7A000B8F81A306B2B1FD84E4B1B68013307D0FB
:10A7B0004D4B4E4A1A600A2012F014FC2AF0C0FFDA
:10A7C000BAF1010AE1D1013742F20F730A2FA8F85A
:10A7D0001A3000F00C8127F0D5FA4FF4967000FB88
:10A7E00007F012F0FFFBCEE70D23019F84F86030E5
:10A7F00020E504233B70E3E483427FF671AD9AB217
:10A8000000283FF46DAD07EE900A07EE102AF8EE2F
:10A81000677AB8EE478A27EEE77A68EE277AA8EEDD
:10A82000087A334B3348C4F89831C7EE878AB0EEC4
:10A83000480AF0EE680A31F069FAF0EE680AB0EE04
:10A84000480A31682C4831F061FAF0EE680AB0EE3F
:10A85000480A3168294831F059FA41E5F4EEC17AE5
:10A86000F1EE10FA48BF73EEE77A6AE6F0EE477A47
:10A870005FE6B0EE677AF1E5F0EE467A01E7B4EE16
:10A88000C25AF1EE10FA40F3A980F0EE626ADFEDF1
:10A89000124ADFED125A01E0F0EE476AF4EEE56A83
:10A8A000F1EE10FA36EEE47AF6DCB4EEE17AF1EE8F
:10A8B00010FA46D5F0EE476ADFED074ADFED085A99
:10A8C00038E000BF2802001000000000DB0F494004
:10A8D000DB0F49C0F304353FDB0FC940E4CB164121
:10A8E000E4CB16C100000F08ECFF012077FA31F429
:10A8F0006D0D03087C100010A0100010C410001093
:10A9000000DFCD3E00DFCDBEBA32BDBE0184483E81
:10A9100000000020E00E001092E741B99730083C9B
:10A9200015A82ABEDB0FC9BF0000FA420000FC4197
:10A93000F0EE476AF4EEE56AF1EE10FA37EE247AAB
:10A94000F6D4B4EEC27AF1EE10FA28DD31EE477A91
:10A9500067EE074A1FED104A5FED105A5FED106A6F
:10A96000E4EE845A64EE873AE4EEA56AB7EE004A54
:10A97000A3EEA67AF6EE004A34EE474AF8EE006AF5
:10A9800027EE267A64EE244A84E61FED1A7AF4EE66
:10A99000C77AF1EE10FA48BF71EEE77A61E65FED33
:10A9A0001F6AB4EEE67AF1EE10FA48BF31EEC77ACC
:10A9B000CEE7002A3FF4CDACA0E4212011F0BAFD8F
:10A9C00003462AE4A979AB7859B9032184F86310C6
:10A9D0001FED2B7A52E4F0EE457A25E6B0EE627A6E
:10A9E00063E7052184F863101FED307A46E4019F88
:10A9F00020E400BF2DE9F8439F4C0546D4F85034BD
:10AA000004F2444104F24C409847B4F9443494F8B9
:10AA1000682407EE903AB4F9463407EE103AB4F9D8
:10AA2000483406EE903AF8EEE77A944BB8EEC77ADF
:10AA3000F8EEE66A023AC3ED007A83ED017AC3EDDF
