:020000040800F2
:10000000F0FF00100D0704081181020811A8000874
:100010003D0804083D0804083D08040800000000ED
:100020000000000000000000000000001D81020828
:10003000198102080000000015810208F5A00008DF
:100040003D0804083D0804083D0804083D0804086C
:100050003D0804083D080408E9A8000815AA00089E
:10006000D9A900089DA9000861A90008E5B4030802
:10007000D5B40308C5B40308B5B40308A1B4030894
:100080008DB4030879B403083D0804083D0804084A
:100090003D0804083D0804083D08040825A9000897
:1000A0003D080408319700083D080408F19700084E
:1000B0003D0804083D0804087196000881BA030849
:1000C00089BA030875BA03087DBA03083D08040815
:1000D0003D08040899A30008FDA2000861A20008D9
:1000E000ADA800083D080408B5A902082594000839
:1000F000F19400083D080408B195000865B40308B0
:100100003D0804083D0804083D0804083D080408AB
:10011000C5A1000829A1000815AE0108F9AD010824
:1001200051B403083DB4030819AC030829B403080B
:1001300015B403083D0804083D0804083D080408F8
:100140003D0804083D0804083D080408CD83020862
:1001500001B40308EDB30308D9B303083D0804084C
:1001600069BA030871BA03083D0804083D08040889
:100170003D0804083D0804083D0804083D0804083B
:100180003D0804083D080408B40204000100000012
:100190002C001000D83A0020C83A002000000000CF
:1001A000192E01082B0024000C3B0020E83A002007
:1001B00000000000E92D010829006400EC3900204E
:1001C000303B00200000000000000000140002008E
:1001D00098390020943B00200000000090060008A1
:1001E0001010020090390020983B00200000000011
:1001F0009206000828001000DC3600209C3B0020FE
:1002000000000000E50D01082300100074340020F8
:10021000AC3B002000000000FD0D010819000500A6
:1002200088390020BC3B0020000000009406000834
:10023000F821060080390020C43B002000000000A7
:100240009A0600080A102C00982F0020CC3B0020B2
:1002500000000000A00600080E20EA00AE2E0020DC
:10026000F83B0020000000007D1303081300040089
:10027000D8350020E43C002000000000CC06000837
:10028000010104002E2E0020E83C002000000000A8
:100290000000000000010400262E0020EC3C00209D
:1002A00000000000D006000802010300212E0020FB
:1002B000F03C002000000000ED9D01080902010053
:1002C00000370020F43C002000000000D4060008A5
:1002D0000C106000F82F0020F83C00200000000007
:1002E000C19D010801020500362E0020583D002066
:1002F000000000003905010800020500042C002060
:10030000603D002000000000000000000702020025
:10031000D04100201442002000000000D606000852
:1003200002000C00A4410020184200200000000040
:100330000000000006020C0098410020244200202A
:1003400000000000F19E010808020900224100207F
:100350003042002000000000B19E0108F7010600B5
:100360001C4100203C42002000000000D80600088C
:100370000A020A00D83E002044420020000000008B
:10038000DE060008030001008040002050420020EB
:10039000000000000000000027000400844000204E
:1003A0005442002000000000E806000803010A0093
:1003B000AC8E0020408F002000000000EC060008FA
:1003C00004008000647800204C8F002000000000B2
:1003D00000000000F9010400AC750020CC8F002063
:1003E0000000000015820008FD011E008875002035
:1003F000D08F002000000000A58100080610160024
:10040000F8810020F08F002000000000D5130308C1
:10041000FB0101008C740020089000200000000007
:10042000359E0108FC010900587300200C90002043
:1004300000000000759E0108340010008472002046
:10044000189000200000000031130308110208007A
:100450005C7200202890002000000000F6060008D2
:10046000121204005472002030900020000000009E
:10047000FE06000812200D0040720020349000207B
:10048000000000000207000818202C009C710020CA
:100490004490002000000000695801080D0034005D
:1004A000C87100207090002000000000D9BB030834
:1004B000FA01020064710020A490002000000000F6
:1004C00001860008020203003C6F0020A890002073
:1004D00000000000000000000C0201002C6F002052
:1004E000AC9000200000000010070008FE01090089
:1004F000E0810020B090002000000000DD9E010897
:100500001E000400F89C002058B1002000000000EC
:100510001207000822000C0028B000205CB1002067
:1005200000000000160700081B00F400F4910020F2
:1005300068B1002000000000F5BF02080E020200B2
:10054000E0A200205CB200200000000022070008AA
:100550002F00110020B1002060B200200000000038
:1005600024070008051006004CB1002074B20020DA
:100570000000000036070008F5216E006C91002095
:100580007CB200200000000031AD020826000E0001
:10059000FCB20020ECB200200000000009AD02080F
:1005A0000B201000DC9100200CB3002000000000A4
:1005B0003C0700081F101C004C9100201CB30020B9
:1005C000000000004C07000805020100389F0020D1
:1005D00038B3002000000000680700080120080070
:1005E000A0BD002068BF0020000000006C070008CC
:1005F0001A000A0084BD002070BF00200000000027
:10060000740700080312330093B4002032BF0020A7
:10061000000000007E07000825005A0034B50020C5
:10062000D8BE00200000000000000000F6110C0001
:10063000F0BD0020CCBE002000000000B407000880
:100640001500700044B300205CBE002000000000D4
:10065000000000002A006000D4B40020FCBD00208F
:1006600000000000091303081002010054C4002018
:1006700050C4002000000000C00700081600080059
:10068000B0C40020C8C4002000000000C207000859
:10069000030000050000280100000201F401190018
:1006A00000300107015A00010000000000000000B6
:1006B000000000000100000020000100B80BB80B92
:1006C000B80B20007800780078000000080444008F
:1006D000FA0000000000023C3F01000000000000A2
:1006E0004A01B400D60126002003000004010100E5
:1006F0006C16000000000000000001010101FFFF76
:10070000FFFF0000000100000548455350000000B5
:10071000010000000100C800141E010064002C014B
:1007200028000000000000000000000000000000A1
:100730000000000000002000010100002B21231E0A
:1007400064010100000001000A012900000000000E
:10075000000001000000050000010203000000008D
:10076000000000000000000000000000E80364003A
:10077000040A00017E05EA05B4053200000000000D
:100780000000000000000000000000000000000069
:100790000000000000000000000000000000000059
:1007A0000000000000000000000000000000000049
:1007B0000100000000000000000000000000000038
:1007C0000000C409000019012828010102FFFF00F0
:1007D0000000E001010101000000290701080000FC
:1007E00000008401002020640408000000000000D4
:1007F000000000000000000000000C6A0408000077
:100800000000000000002B02002004000000A46390
:1008100004080D000000D9440108B41C00200000A9
:100820000000A85C04080D00000001450108A81C98
:10083000002000000000205E040808000000000006
:1008400000009C1C002004000000145D04080D0042
:100850000000DD070108901C002000000000D05DB2
:1008600004080300000041470108841C0020000028
:100870000000306404080300000041470108781CB0
:10088000002000000000BC59040801000000000026
:1008900000000000000000000000000000000E004A
:1008A00000000000000000000000000000002064C4
:1008B000040800000000000000000000000000002C
:1008C00000000C6A040800000000000000002B0279
:1008D00000200400000050630408030000002D34D1
:1008E00001086C1C002008000000145D04080D00C5
:1008F0000000DD070108901C002000000000D05D12
:1009000004080300000041470108841C0020000087
:100910000000306404080300000041470108781C0F
:10092000002000000000BC59040801000000000085
:1009300000000000000000000000000000000E00A9
:10094000000000000000000000000000000038640B
:10095000040800000000000000000000000000008B
:1009600000000C6A040800000000000000002B02D8
:100970000020040000005863040803000000414701
:100980000108C01C002000000000BC590408010040
:100990000000000000000000000000000000000057
:1009A00000000E0000000000000000000000000039
:1009B000000020700020702D7200D6010000251E5E
:1009C0000108000000000000000001080000000114
:1009D00001010000000000000000000000002818D5
:1009E0000020FFFFFFFFFA000000010000000100EF
:1009F00000006B00012D202D2D202D2D2D2D202DC3
:100A00002D2D00000000000000000000000000008C
:100A10000000000000008C59040894590408B459DF
:100A200004080000000000000000000000000000BA
:100A30000000DE53040804000000A1420108000089
:100A4000000000000000BC59040801000000000084
:100A500000000000000000000000000000000E0088
:100A600000000000000000000000000000001679F7
:100A700000200100C40900000000147900200100DA
:100A8000C40900000000127900200100C409000020
:100A90000000107900200100C409000000000C795A
:100AA00000200100C409000000000E7900200100B0
:100AB000C409000000000A7900200100C4090000F8
:100AC0000000087900200100C40900000000482E41
:100AD00000200100C80001000000462E0020320066
:100AE000307532000000442E0020055A0500412ECA
:100AF000002000FF0100432E0020010000004C02F6
:100B000000203F2E0020020000002C2D0408402E63
:100B1000002000FF0100422E0020010000004C02D6
:100B200000203E2E0020020000002C2D0408342E50
:100B3000002080C1803E05000000322E002080C1D0
:100B4000803E050000002C2E002080C1803E050064
:100B500000002A2E002080C1803E05000000242EC7
:100B6000002000FF0100202E00200A3201001F2E6D
:100B7000002004000000941A04081E2E0020020029
:100B80000000A81A04080000000000000000540241
:100B90000020F08E00209CFF2C01000000000A00C5
:100BA00000200A000000B41A0408142E0020E015EA
:100BB0000C17000000000C00002008000000342585
:100BC00004080B00002005000000AC1B0408162ED2
:100BD000002002000000CC1A04086C300020010044
:100BE000FF7F010000006B30002002000000D81AD7
:100BF0000408A32E002003000000E81A0408A22E17
:100C0000002003000000E81A0408D02F0020000094
:100C1000C20101000000CC2F00200000C201010031
:100C20000000CE2F00200000C20101000000C82FEC
:100C300000200000803E32000000C62F002000008F
:100C4000803E32000000C42F00200000803E3200B1
:100C50000000CA2F002000002C0101000000DA2F44
:100C600000200000F40101000000D82F0020000047
:100C7000F40101000000D62F00200000F401010063
:100C80000000D42F00200000F40101000000D22F4A
:100C9000002000FF0100F62F0020E803D0070A0023
:100CA0000000F42F0020006401000A000000E92F7A
:100CB000002000640100E82F002000640100F02FF4
:100CC0000020006401000A000000EF2F00200064F3
:100CD00001000A000000EE2F0020006401000A005D
:100CE0000000F32F0020006401000A000000F22F32
:100CF0000020006401000A000000F12F00200064C1
:100D000001000A000000ED2F002000FF01000A0092
:100D10000000EC2F002000FF01000A000000EB2F74
:100D2000002000FF01000A000000AA2E00200000A1
:100D3000F40101000000A82E00200000F4010100D1
:100D40000000A62E00200000F40101000000A42EE7
:100D500000200000F40101000000E42F0020140036
:100D6000E80301000000E22F0020E80330750100D5
:100D70000000E12F002000C80100E02F002000C883
:100D80000100DF2F002000C80100DE2F00200064DA
:100D900001000A000000DD2F002000FF01000A0012
:100DA00000006130002000C801006030002000C851
:100DB00001005F30002000C801005E30002000C844
:100DC00001005D30002000C801005C30002000C838
:100DD00001005B30002000C801005A30002000C82C
:100DE00001005930002000C80100EC59040800003F
:100DF0000000000000000000000000000000FC599E
:100E000004080900000000000000F80200200400AF
:100E10000000045A04080900000000000000EC0271
:100E20000020040000002C610408090000000000FC
:100E30000000E0020020040000008C6604080900A5
:100E4000000000000000D4020020040000000C5A42
:100E500004080900000000000000C802002004008F
:100E60000000145A04080900000000000000BC0241
:100E70000020040000001C5A0408090000000000C3
:100E80000000B002002004000000245A04080900F9
:100E9000000000000000A402002004000000BC5973
:100EA0000408010000000000000000000000000035
:100EB0000000000000000E00000000000000000024
:100EC000000000000000885B040800000000000033
:100ED00000000000000000000000148F040807005C
:100EE0000000000000001C03002000000000985BD0
:100EF00004080800000000000000100300200000AB
:100F00000000A45B040808000000000000000403C7
:100F1000002000000000BC5904080100000000008F
:100F200000000000000000000000000000000E00B3
:100F30000000000000000000000000000000AC5BAA
:100F40000408000000000000000000000000000095
:100F50000000BC5B04080D00000000000000580306
:100F6000002000000000C45B04080D000000000029
:100F700000004C03002000000000CC5B04080700C8
:100F80000000000000004403002000000000D45BCB
:100F900004080D00000000000000380300200000DD
:100FA0000000DC5B04080D000000000000002C03C2
:100FB000002000000000E45B0408070000000000BF
:100FC00000002403002000000000BC5904080100B8
:100FD0000000000000000000000000000000000011
:100FE00000000E00000000000000000000000000F3
:100FF0000000EC5B0408000000000000000000009E
:10100000000000000000148F04080C000000000025
:1010100000004A2E002000000000005C04080C00C4
:101020000000000000004C2E002000000000105CBA
:1010300004080C00000000000000822E00200000C8
:101040000000205C04080C00000000000000762E68
:10105000002000000000345C04080C0000000000C8
:1010600000004E2E002000000000405C04080C0030
:10107000000000000000502E002000000000485C2E
:1010800004080C00000000000000522E00200000A8
:1010900000005C5C04080C00000000000000542EFE
:1010A000002000000000645C04080C000000000048
:1010B0000000562E0020000000006C5C04080C00AC
:1010C000000000000000942E002000000000845C5E
:1010D00004080C00000000000000582E0020000052
:1010E0000000905C04080C000000000000005A2E74
:1010F000002000000000985C04080C0000000000C4
:1011000000005C2E002000000000A45C04080C001D
:101110000000000000005E2E002000000000B05C17
:1011200004080C00000000000000602E00200000F9
:101130000000BC5C04080C00000000000000622EEF
:10114000002000000000C85C04080C000000000043
:101150000000642E002000000000D45C04080C0095
:10116000000000000000662E002000000000E05C8F
:1011700004080C000000000000007A2E002000008F
:101180000000E85C04080C00000000000000782E5D
:10119000002000000000F05C04080C0000000000CB
:1011A0000000862E002000000000FC5C04080C00FB
:1011B000000000000000882E002000000000085DF4
:1011C00004080C000000000000008E2E002000002B
:1011D0000000C85A04080C00000000000000682E3F
:1011E000002000000000145D04080C000000000056
:1011F0000000702E0020000000001C5D04080C00A0
:101200000000000000006A2E002000000000285DA1
:1012100004080C000000000000006C2E00200000FC
:101220000000345D04080C000000000000006E2E79
:101230000020000000003C5D04080C0000000000DD
:101240000000722E002000000000485D04080C0021
:101250000000000000007C2E002000000000505D17
:1012600004080C00000000000000742E00200000A4
:1012700000005C5D04080C00000000000000842EEB
:10128000002000000000685D04080C000000000061
:1012900000007E2E002000000000705D04080C009D
:1012A000000000000000802E002000000000785D9B
:1012B00004080C000000000000008A2E002000003E
:1012C0000000805D04080C000000000000008C2E6F
:1012D000002000000000BC590408010000000000CC
:1012E00000000000000000000000000000000E00F0
:1012F0000000000000000000000000000000885D09
:1013000004080000000000000000000000000000D1
:101310000000945D04080D00000000000000B00310
:101320000020000000009C5D04080D00000000008B
:101330000000A403002000000000A45D04080700D2
:101340000000000000009C03002000000000B05DD1
:1013500004080700000000000000940300200000C3
:101360000000BC5D040809000000000000008803C4
:10137000002000000000C85D040809000000000013
:1013800000007C03002000000000D45D0408090078
:101390000000000000007003002000000000E45D79
:1013A00004080900000000000000640300200000A1
:1013B0000000BC590408010000000000000000000B
:1013C000000000000000000000000E00000000000F
:1013D00000000000000000000000F85D04080000AC
:1013E0000000000000000000000000000000085E97
:1013F00004080500000000000000A12E00200000ED
:101400000000BC59040801000000000000000000BA
:10141000000000000000000000000E0000000000BE
:1014200000000000000000000000105E0408000042
:1014300000000000000000000000000000000C6A36
:10144000040800000000000000006C2000200400E0
:1014500000001C5E04080D000000054301080404A0
:10146000002000000000A46304080D000000E10655
:101470000108F803002000000000A85C04080D002B
:101480000000C5060108EC03002000000000205EFB
:1014900004080800000000000000E0030020040031
:1014A0000000145D04080D0000000D060108D403BF
:1014B000002000000000285E040809000000000071
:1014C0000000C803002004000000D05D04080300F1
:1014D000000041470108BC03002000000000BC5987
:1014E00004080100000000000000000000000000EF
:1014F0000000000000000E000000000000000000DE
:10150000000000000000305E040800000000000041
:1015100000000000000000000000405E04080D0014
:101520000000000000001C04002000000000485ED5
:1015300004080A000000000000003536002000000A
:101540000000545E04080A000000000000003D3660
:101550000020000000005C5E04080A00000000009B
:1015600000004536002000000000645E040808000A
:1015700000000000000010040020000000006C5E6D
:10158000040804000000D948010800000000000021
:101590000000BC5904080100000000000000000029
:1015A000000000000000000000000E00000000002D
:1015B00000000000000000000000785E0408000049
:1015C00000000000000000000000000000008C5E31
:1015D00004080D000000000000003404002000009A
:1015E00000009C5E0408040000007D450108000026
:1015F000000000000000A45E04080D0000000000D0
:1016000000002804002000000000B85E0408040068
:101610000000594501080000000000000000BC590E
:1016200004080100000000000000000000000000AD
:101630000000000000000E0000000000000000009C
:10164000000000000000C05E040800000000000070
:1016500000000000000000000000D45E040800004C
:101660000000000000000000000000000000F45E28
:1016700004080800000000000000880400200000AA
:101680000000FC5E040808000000000000007C046C
:10169000002000000000045F0408080000000000B3
:1016A000000070040020000000000C5F0408080027
:1016B0000000000000006404002000000000145F2F
:1016C000040808000000000000005804002000008A
:1016D0000000205F040808000000000000004C0427
:1016E0000020000000002C5F04080800000000003B
:1016F00000004004002000000000BC590408010064
:101700000000000000000000000000000000345F46
:101710000408020000002549010802000000000042
:101720000000000000000E000000000000000000AB
:10173000000000000000405F0408000000000000FE
:1017400000000000000000000000545F04080700D3
:10175000000000000000C404002000000000605FE2
:1017600004080800000000000000B8040020000089
:1017700000006C5F04080800000000000000AC04DA
:10178000002000000000785F04080800000000004E
:101790000000A004002000000000845F040808008E
:1017A0000000000000009404002000000000BC596C
:1017B000040801000000000000000000000000001C
:1017C0000000000000000E0000000000000000000B
:1017D000000000000000905F04080000000000000E
:1017E0000000EB010020000000009C5F04080B00DB
:1017F0000000000000005405002000000000A85F69
:1018000004080B0000000000000048050020000054
:101810000000B45F04080B000000000000003C055D
:10182000002000000000C05F04080B000000000062
:1018300000003005002000000000CC5F04080B0011
:101840000000000000002405002000000000D85F18
:1018500004080B0000000000000018050020000034
:101860000000E45F04080B000000000000000C050D
:10187000002000000000F05F04080B0000000000E2
:1018800000000005002000000000FC5F04080B00C1
:10189000000000000000F4040020000000000860C8
:1018A00004080700000000000000EC040020000015
:1018B0000000106004080700000000000000E404BD
:1018C0000020000000001C6004080B000000000065
:1018D0000000D80400200000000028600408080070
:1018E000000000000000CC04002000000000BC59F3
:1018F00004080100000000000000000000000000DB
:101900000000000000000E000000000000000000C9
:101910000000000000003460040800000000000027
:1019200000000000000000000000486004080800FB
:10193000000000000000840500200000000054604A
:1019400004080800000000000000780500200000E6
:1019500000006060040808000000000000006C0542
:101960000020000000002C5F0408080000000000B8
:1019700000006005002000000000BC5904080100C0
:101980000000000000000000000000000000000057
:1019900000000E0000000000000000000000000039
:1019A00000006C6004080000000000000000E80176
:1019B0000020000000007C6004080B000000000014
:1019C0000000CC05002000000000886004080B0027
:1019D000000000000000C00500200000000094602E
:1019E00004080700000000000000B8050020000007
:1019F0000000A06004080700000000000000B0051F
:101A0000002000000000AC60040807000000000097
:101A10000000A805002000000000B86004080800CD
:101A20000000000000009C05002000000000C060D5
:101A300004080800000000000000900500200000DD
:101A40000000BC5904080100000000000000000074
:101A5000000000000000000000000E000000000078
:101A600000000000000000000000C8600408000042
:101A7000000000000000E801002000000000D46029
:101A80000408070000000000000018060020000005
:101A90000000DC60040807000000000000001006E1
:101AA000002000000000E4600408070000000000BF
:101AB00000000806002000000000EC600408070099
:101AC0000000000000000006002000000000F4609C
:101AD00004080700000000000000F80500200000D6
:101AE0000000FC6004080700000000000000F00592
:101AF000002000000000046104080700000000004E
:101B00000000E8050020000000000C610408070048
:101B1000000000000000E00500200000000014614B
:101B200004080700000000000000D80500200000A5
:101B30000000BC5904080100000000000000000083
:101B4000000000000000000000000E000000000087
:101B50000000000000000000000000000000510A2A
:101B60000108200600209F2E00201C000000F81A0B
:101B700004089E2E002000C801009C2E0020E803CF
:101B8000D0070100000048454C494F535052494E80
:101B900047003D2E0020000301003C2E00200003E2
:101BA00001009909010871090108FC0600202D09AE
:101BB0000108E108010874070020D9090108C109DA
:101BC0000108280800204D08010801080108340B0D
:101BD0000020670A010829450108100C00204D0665
:101BE000010800000000600C0020B5480108610DEC
:101BF00001083C0D00208D0A010800000000F00DD6
:101C00000020450B0108010B01087C0E0020BD0BD4
:101C10000108890B01086C0F00204D0C0108910C84
:101C200001080C100020E62F002001060100CD0A5B
:101C30000108A10A01084C110020F10B0108A1457F
:101C40000108D8110020BD0C0108FD450108A012B3
:101C50000020DC2F0020010301001C6104080000AB
:101C600000000000000000000000000000002861EB
:101C700004080800000000000000B013002000006D
:101C80000000306104080700000000000000A813F5
:101C9000002000000000406104080D00000000006A
:101CA00000009C130020000000004C6104080300A9
:101CB0000000414701089013002000000000BC59BB
:101CC0000408010000000000000000000000000007
:101CD0000000000000000E000000000000000000F6
:101CE0000000000000005461040800000000000033
:101CF00000000000000000000000646104080A0009
:101D00000000000000006C61040800000000746125
:101D100004080A000000000000008E5304080000C0
:101D200000007C6104080A0000000000000062302E
:101D3000002000000000846104080A000000000088
:101D40000000BC13002000000000BC590408010082
:101D50000000000000000000000000000000000083
:101D600000000E0000000000000000000000000065
:101D700000008C610408000000000000000000006A
:101D800000000000000098610408030000004147C3
:101D90000108F013002000000000A4610408030003
:101DA000000041470108E413002000000000AC617E
:101DB00004080300000041470108D8130020000078
:101DC0000000B461040805000000000000003B2E84
:101DD000002000000000BC610408070000000000B3
:101DE0000000D013002000000000C86104080700B4
:101DF000000000000000C813002000000000BC59D3
:101E000004080100000000000000000000000000C5
:101E10000000000000000E000000000000000000B4
:101E2000000000000000D461040800000000000071
:101E300000000000000000000000E861040803004A
:101E40000000414701082014002000000000F46158
:101E500004080300000041470108100000200000B2
:101E60000000FC610408030000004147010814144D
:101E70000020000000000462040803000000414745
:101E800001080814002000000000145D040803008D
:101E9000000041470108FC13002000000000BC596D
:101EA0000408010000000000000000000000000025
:101EB0000000000000000E00000000000000000014
:101EC0000000000000001062040800000000000094
:101ED000000000000000000000001C620408070071
:101EE0000000494601088814002000000000385D09
:101EF000040803000000414701087C140020000092
:101F00000000286204080300000041470108701423
:101F10000020000000003062040803000000414778
:101F20000108641400200000000038620408070063
:101F300000002D4601085C1400200000000000662F
:101F4000040803000000414701085014002000006D
:101F500000004462040803000000414701084414E3
:101F60000020000000005062040803000000414708
:101F70000108381400200000000058620408030023
:101F80000000414701082C14002000000000BC594B
:101F90000408010000000000000000000000000034
:101FA0000000000000000E00000000000000000023
:101FB000000000000000210A0108F1090108901446
:101FC00000202D0D0108000000001C150020BD0898
:101FD000010899080108A815002000000000000071
:101FE00000005C160020050D010865460108FC167E
:101FF00000206462040800000000000000000000EF
:102000000000000000007062040803000000414767
:1020100001081C180020000000007862040803007A
:1020200000004147010810180020000000008462F1
:1020300004080300000041470108041800200000C4
:102040000000886204080300000041470108F817F7
:1020500000200000000094620408030000004147D3
:102060000108EC170020000000009C620408020038
:102070000000254901080000000000000000A462E3
:1020800004080200000025490108010000000000CA
:102090000000345F04080200000025490108020026
:1020A000000000000000000000000E000000000022
:1020B000000000000000000000001A2E002088131D
:1020C0006F17010000001C2E002088136F170000FE
:1020D0000000B062040800000000000000000000E2
:1020E000000000000000C0620408080000000000BA
:1020F0000000FC18002004000000CC620408080066
:10210000000000000000F018002000000000D05D7A
:102110000408040000002D43010800000000000036
:102120000000BC590408010000000000000000008D
:10213000000000000000000000000E000000000091
:1021400000000000000000000000182E002088138E
:102150006F17010000002E8F002088136F170000FA
:102160000000910701080000000008190020D53583
:102170000020010000006C1B0408308F00200100CB
:102180000000781B0408268F002002000000801B3E
:1021900004085E79002000000000000000005C7967
:1021A000002000000000000000005A79002000001C
:1021B000000000000000587900200000000000002E
:1021C0000000567900200000000000000000547953
:1021D00000200000000000000000A42000200000FB
:1021E000000000000000172E0020020000008C1BE1
:1021F000040808630408000000000000000000005C
:10220000000000000000C062040808000000000098
:1022100000008C19002004000000CC6204080800B3
:102220000000000000008019002000000000D05DC8
:10223000040804000000610701080000000000001D
:102240000000BC590408010000000000000000006C
:10225000000000000000000000000E000000000070
:1022600000000000000000000000186304080000E7
:1022700000000000000000000000000000002863D3
:1022800004080D0000007D440108BC190020040072
:102290000000346304080D000000B9070108B019FC
:1022A000002004000000406304080D0000004144C9
:1022B0000108A4190020000000004C63040803007A
:1022C00000004D34010898190020080000005863F0
:1022D00004080300000041470108C01C0020000062
:1022E0000000BC59040801000000000000000000CC
:1022F000000000000000000000000E0000000000D0
:1023000000000000000000000000B45904080000B4
:102310000000000000000000000000000000DE538C
:10232000040804000000454301080000000000000C
:102330000000BC590408010000000000000000007B
:10234000000000000000000000000E00000000007F
:1023500000000000000000000000AC630408000062
:102360000000000000000000000000000000C89114
:1023700004080D000000000000001C1A00200400EA
:102380000000BC6304080800000000000000101AF0
:10239000002004000000C8630408080000000000DA
:1023A0000000041A002004000000D06304080800A4
:1023B000000000000000F819002004000000D863AD
:1023C00004080800000000000000EC1900200400D0
:1023D0000000E06304080800000000000000E019AD
:1023E000002004000000E86304080800000000006A
:1023F0000000D419002004000000F0630408080065
:10240000000000000000C819002004000000BC59B2
:1024100004080100000000000000000000000000AF
:102420000000000000000E0000000000000000009E
:102430000000000000007907010800000000281AD1
:1024400000200000000000000000A01A0020000092
:10245000000000000000401B00202C8F0020040022
:102460000000981B04082A8F0020E0150C170000BC
:102470000000298F00200800000034250408288F60
:10248000002005000000AC1B040800000000000054
:102490000000901B00200000000004420020080003
:1024A000000000000000F4410020080000000100CE
:1024B00000000000803F000000000000000000005D
:1024C0000000FF0000000000803F0000803F40212E
:1024D00004080508040000000000AC1B04083425B3
:1024E0000408981B040800000000000000006C2194
:1024F000040805080A0000000000AC1B040834258D
:102500000408B41A040800000000000000000403DE
:102510000904120100020202004083044057000235
:1025200001020301000009024300020100C0320958
:10253000040000010202010005240010010524012D
:102540000001042402020524060001070582030895
:1025500000FF09040100020A000000070501024013
:1025600000000705810240000000FF00000000FF9E
:10257000FF00000000000800AA550501000000004F
:102580000001000000000000000000000000010049
:1025900000000000803F000000000102030401026F
:1025A00003040607080971500208954F0208DD4927
:1025B0000208154502085152020825450208414506
:1025C0000208ED440208DD4402080000000000009B
:1025D00000000060024010600240000000000000A7
:1025E0000000000B000000000000000000000000E0
:1025F000000000600240286002400100000000006E
:102600000000060C000000000000000000000000B8
:102610000000006002404060024002000000000034
:102620000000100D0000000000000000000000008D
:1026300000000060024058600240030000000000FB
:102640000000160E00000000000000000000000066
:1026500000000060024070600240040000000000C2
:102660000000200F0000000000000000000000003B
:102670000000006002408860024005000000000089
:102680000000261000000000000000000000000014
:10269000000000600240A060024006000000000050
:1026A00000003011000000000000000000000000E9
:1026B000000000600240B860024007000000000017
:1026C0000000362F000000000000000000000000A5
:1026D000000000640240106402400000000000009E
:1026E00000000038000000000000000000000000B2
:1026F0000000006402402864024001000000000065
:10270000000006390000000000000000000000008A
:10271000000000640240406402400200000000002B
:102720000000103A0000000000000000000000005F
:1027300000000064024058640240030000000000F2
:102740000000163B00000000000000000000000038
:1027500000000064024070640240040000000000B9
:102760000000203C0000000000000000000000000D
:102770000000006402408864024005000000000080
:1027800000002644000000000000000000000000DF
:10279000000000640240A064024006000000000047
:1027A00000003045000000000000000000000000B4
:1027B000000000640240B86402400700000000000E
:1027C000000036460000000000000000000000008D
:1027D0000000C151020829510208D94E0208000028
:1027E0000000B544020819490208AD4E02087548B8
:1027F00002080000000000000000A944020829446B
:102800000208254402082144020815440208114424
:1028100002081D440208194402089D44020891441C
:102820000208694402087D440208554402084144F4
:1028300002082D4402082D202D2D202D2D2D2D2078
:102840002D2D2D2D000000000000000000000000D4
:102850000000000000AA550B010000AA5507010066
:1028600000AA550902000000000001000000C0128B
:10287000AA5503009F0001000000000001FFFF01B6
:102880000000FF1FFF1FB46A0408000000000000E2
:102890000000019E0108A086010004000000000065
:1028A0000000000000000000000000000000000028
:1028B00000000000000000000000385D0408405ADD
:1028C000040800000000D9E901087D0000000600AE
:1028D00000000000000000000000000000000000F8
:1028E0000000000000000000000000000000BC6AC2
:1028F00004080000000000000000F5B10008E80333
:1029000000000300000000000000000000000000C4
:1029100000000000000000000000000000000000B7
:102920000000C06A040800000000000000000D1B49
:102930000308102700000300000000000000000052
:102940000000000000000000000000000000000087
:102950000000000000005C64040800000000512B2F
:102960000108A9F60008204E000005000000000044
:102970000000000000000000000000000000000057
:1029800000000000000000000000E49004080000C7
:1029900000000000000031BD000810270000010009
:1029A0000000000000000000000000000000000027
:1029B0000000000000000000000000000000CC6AE1
:1029C0000408000000000000000049800008E8033F
:1029D00000000500000000000000000000000000F2
:1029E00000000000000000000000000000000000E7
:1029F0000000D86A04080000000000000000E1B2F6
:102A00000108204E0000030000000000000000004C
:102A100000000000000000000000000000000000B6
:102A2000000000000000E86A040800000000000048
:102A30000000CDB00108204E00000300000000009F
:102A40000000000000000000000000000000000086
:102A500000000000000000000000F86A0408000008
:102A60000000000000000D860008400D0300030078
:102A70000000000000000000000000000000000056
:102A80000000000000000000000000000000086BD3
:102A900004080000000000000000B9C2030810276D
:102AA0000000010000000000000000000000000025
:102AB0000000000000000000000000000000000016
:102AC000000058640408000000000000000069F7DE
:102AD00002081027000003000000000000000000B2
:102AE00000000000000000000000000000000000E6
:102AF000000000000000106B04080000000000004F
:102B00000000B9540108A086010001000000000087
:102B100000000000000000000000000000000000B5
:102B200000000000000000000000186B0408000016
:102B3000000000000000B5660108A0860100010049
:102B40000000000000000000000000000000000085
:102B50000000000000000000000000000000246BE6
:102B600004080000000000000000D9CC0008A00FFD
:102B70000000010000000000000000000000000054
:102B80000000000000000000000000000000000045
:102B90000000306B04080000000000000000FDC3CE
:102BA00002081027000001000000000000000000E3
:102BB0000000000000000000000000000000000015
:102BC0000000000000008462040800000000000013
:102BD0000000DD0A03081A410000010000000000A7
:102BE00000000000000000000000000000000000E5
:102BF00000000000000000000000885A04080000E7
:102C00000000000000001DAA0208102700000100BB
:102C100000000000000000000000000000000000B4
:102C200000000000000000000000000000007C6ABE
:102C300004080000000000000000C14A01081A4119
:102C40000000010000000000000000000000000083
:102C50000000000000000000000000000000000074
:102C600000003C6B0408000000000000000015D2CA
:102C70000208400D030000000000000000000000FA
:102C80000000000000000000000000000000000044
:102C9000000000000000446B040800000000000079
:102CA000000095BB0308400D030000000000000079
:102CB0000000000000000000000000000000000014
:102CC000000000000000000000004C6B0408000041
:102CD000000000000000F5FD0208A08601000300CE
:102CE00000000000000000000000000000000000E4
:102CF0000000000000000000000000000000586B11
:102D00000408000000000000000099B001084042E3
:102D10000F000000000000000000000000000000A4
:102D200000000000000000000000000000000000A3
:102D30000000646B04080000000000000000F1BC0B
:102D4000030850C300000000000000000000000065
:102D50000000000000000000000000000000000073
:102D600000000000000001000000FFFFFFFF000066
:102D7000803F000000000000000000000000000094
:102D8000803F000000000000000000000000000084
:102D90000000000000000000000000000000000033
:102DA0000000000000000000803F00000000000064
:102DB000000000000000FFFFFFFF010000005001C5
:102DC00000000700000002000000000000000000FA
:102DD0000000010203040607080914260020000071
:102DE00000000000000000000000000000000000E3
:102DF00000000000000000000000000000000000D3
:102E000000000000000000000000000000000000C2
:102E100000000000000000000000000000000000B2
:102E200000000000000000000000000000000000A2
:102E3000000000000000000000000000000043004F
:102E40000000000000000000000000000000000082
:102E5000000000000000000000000000000043002F
:102E60000000000000000000000000000000000062
:102E7000000000000000000000000000000043000F
:102E80000000000000000000000000000000000042
:102E900000000000000000000000000000004300EF
:102EA0000000000000000000000000000000000022
:102EB00000000000000000000000000000004300CF
:102EC0000000000000000000000000000000000002
:102ED00000000000000000000000000000004300AF
:102EE00000000000000000000000000000000000E2
:102EF000000000000000000000000000000043008F
:102F000000000000000000000000000000000000C1
:102F100000000000000000000000000000000F0C96
:102F20000408EB0B040800000000729B0408DA534D
:102F30000408BB6B0408BB6B0408BB6B0408BB6BC9
:102F40000408BB6B0408BB6B0408BB6B0408BB6BB9
:102F50000408BB6B0408FFFFFFFFFFFFFFFFFFFF3D
:102F6000FFFFFFFF000001004153434949000000FB
:102F70000000000000000000000000000000000051
:102F800000000000000000004153434949000000D8
:102F90000000000000000000000000000000000031
:102FA0000000000000000000000000000000000021
:102FB0000000000000000000000000000000000011
:102FC0000000000000000000000000000000000001
:1080000090ED057A90ED004AD0ED066AD0ED014A78
:10801000D0ED047A90ED035AD0ED025AA4EE007A26
:10802000B0EE406AB0EE470AB0EE667AA4EE867A09
:1080300067EEC07AA5EE407AE5EE867A80ED057AA5
:10804000C0ED067A704700BF38B50B4C23688BB182
:108050005A68821A002A054604DA0BE05A68AA1AFE
:10806000002A07DB9A68226018461A68904723683E
:10807000002BF3D138BD00BF58320020436A82691B
:10808000D154436A0169826B01338B4228BF0023BC
:108090004362DAB1EFF31183502282F31288826BCC
:1080A0001168C9070ED470B45468FCB9D0E90951FD
:1080B0008D4211D1012280F85C20DBB283F311885C
:1080C00070BC7047DBB283F311887047826DD36850
:1080D00043F08003D360704786690E44D6600ED9A2
:1080E000691A51608562002180F85C10116841F0C6
:1080F0000101DBB2116083F3118870BC7047056920
:10810000691A51608462EEE7034610B4446BD96883
:10811000406954B1DA6C8C1A013A005D5DF8044B89
:1081200008BF0A46C0B2DA6470471A6A805C01323E
:108130008A4228BF2246C0B21A625DF8044B7047DB
:10814000836B13B190F85C007047D0E90903181AEB
:10815000B0FA80F040097047D0E9091203699142F2
:1081600038BFC9188A1A816B013B19B149680A44A2
:108170009A4201D2981A704700207047436B43B16E
:10818000C26C5B689A4291BF981AC0689B1AC0186B
:108190007047D0E907239A422FBFD01AC0688018D1
:1081A000C01A70470A4B30B503F1140493F900204C
:1081B0005D78072AC8BF143A811804338D7213F80A
:1081C000025C855413F8012C0A759C42EED130BD37
:1081D0001C15040803682DE9F041DD691DB12B462B
:1081E000BDE8F0411847002A174611DD04460E4647
:1081F0000F4400E023689B68204698470028F9D088
:10820000236816F8011B1B6820469847BE42F1D12F
:10821000BDE8F08100232722027043708370C37091
:10822000704700BF0028F0B403DA2D230B704042E2
:108230000131092804464FF0010307DD03EB8303F6
:108240005B00B0FBF3F2092AF8D883B10F48A0FB1A
:108250000326B4FBF3F2092A02F1570C02F13007AE
:1082600009DD03FB1244F30801F801CBEFD1002331
:108270000B70F0BC704703FB1244F30801F8017B5C
:10828000E5D100230B70F0BC704700BFCDCCCCCC47
:10829000884270B44FF0010442D301FB04F4B0FBF8
:1082A000F4F58D42F9D2ECB142BB092D04FB150067
:1082B00005F1570605F130020EDDB4FBF1F403F8C9
:1082C000016B7CB1B0FBF4F5092D04FB150005F141
:1082D000570605F13002F0DCB4FBF1F403F8012B92
:1082E000002CEFD100221A7070BC704703F8016BAC
:1082F000B4FBF1F4002CF5D0B0FBF4F5092D04FB30
:10830000150005F1370605F13002EFDCB4FBF1F49E
:1083100003F8012B002CEFD100221A7070BC7047BB
:108320000546002AEAD1C0E72DE9F04714461D466C
:10833000064600234FF47A722046294638F01AF890
:10834000DFF848814B4A4C4F88FB00310144C3178A
:1083500082FB002CC3EB611188FB012887FB0027FF
:108360008444464AC3EBEC2CC1EB011E82FB0C2972
:10837000A0EB8E0E0744424A86F806E0C3EB27477F
:108380004FEAEC7E08EB010ACEEBA90E82FB0782D6
:108390004FEAE1780EEB4E0EC8EB6A18ACEBCE0C50
:1083A000C8EB0818DFF8E8E086F804C0A1EB880104
:1083B00071718EFB0010F917C1EBE21240F2B5515A
:1083C00001FB1272C3EBE050B2F5896F4FEA8007F0
:1083D0003FDA40F2DA239A4243DCB2F5B77FB4BF0A
:1083E0004FF0000E4FF0010E4FEA4E08254B08EB00
:1083F0000E0103EBC1031FFA8EFC588D224908EBD6
:108400000E0301EBC30116310B2301E031F8020D1D
:1084100090421BDD013BF9D11A4BC64403EBCE0E53
:108420000123BEF81400B37007F2B2770132121ABA
:10843000BC44F270A6F800C0204629464FF47A7278
:10844000002337F097FF3281BDE8F0870133DBB2BC
:10845000E9E74FF0030CE64640F296504FF006086D
:10846000CCE74FF0020CE64640F229404FF00408FA
:10847000C4E700BFC5B3A29107452EC2ABAAAA2A82
:1084800073B06D161C150408301504088988888897
:10849000792D0311036810B40A0E5C1C04601A7075
:1084A00003680A0C5C1C04601A7003680A0A5C1CEE
:1084B00004601A7003685A1C026019705DF8044B5E
:1084C000704700BF03685A1C02601970704700BFF4
:1084D0002DE9F047089C2578002B804689460CBF83
:1084E0004FF0200A4FF0300A661C25B3002A26DD23
:1084F000334601E0024698B113F8011B501E0029D3
:10850000F8D1971E60B13D46013D51464046C847EF
:108510006B1C002BF8DC257827EAE770013045B1A9
:10852000041B29464046C847301916F8015B002D48
:10853000F7D1BDE8F087002A03DC2846F9E70020E0
:10854000EEE7571EDFE700BFD0E9012300EB830110
:1085500001339342D0ED037A81ED040A836004BFB6
:108560000023836000EB830393ED047A036870EECD
:10857000277A9A42C0ED037A77EEC77AC0ED037A84
:108580000CDA013307EE103AF8EEC76AB7EE007A5C
:1085900087EEA60A036030EE070A704707EE102A3E
:1085A000B8EEC77A87EE870A704700BFD0ED007A31
:1085B00090ED017A30EE670AE7EE007AB0EE670AD6
:1085C000C0ED007A704700BF704700BF0A44914277
:1085D00015D030B40139551E41F2210211F8014F76
:1085E000082380EA042004044CBF82EA40004000D3
:1085F000013B80B2F7D18D42F0D130BC704770475B
:108600003E22032302704370704700BF2DE9F047FC
:108610008C4A8D4B12781C78D207064648D58B4D74
:10862000012C00F091801ED3022C40F09B808849E1
:10863000884A09881288884F914201D901241C7008
:10864000EB7AFBB12B89EBB1844B1B78D3B112F0E1
:108650003FFC002800F0E2802B7B83422CBF0123EB
:1086600000233B700FE0DFF8E8C17B4F7C4CBCF887
:1086700000002288697B521A8242DFDAEB7A0024FA
:10868000002BDFD13B782A79632A07D87549022C61
:10869000087800F0B880002840F0A0807249AA7ADB
:1086A0009C4238BF1C460C70002A44D1BDE8F087BC
:1086B000DFF89CC1654DBCF80000BCF8021095F8CD
:1086C00003E06A4F411A0029A4F10302B8BF4942EE
:1086D000704597F80080D2B211D32F7887420ED31D
:1086E000012A45D9B8F1020F9AD15C48604A007856
:1086F00090800229CCBF00210121D18090E7B0EB0E
:108700004E0FEDDC012A40F28C800229EADC0324C2
:10871000514F524852494F4A1C70B8F1020F4FF066
:1087200000033C7003700B80138089D1504A0121F3
:108730009380D18084E7012C6BD0022CB6D1072026
:10874000BDE8F04733F078BD424A41491288687B62
:108750000988121A914207DD414A12888A423CBFB9
:1087600000241C703C4F6BE702241C703A4F67E7F3
:108770000229B7DC95F800E090FBFEFE0EF1010E39
:10878000BEF1080FDFF8D4A0AA786978DFF8C490AA
:10879000334C314FA8BF4FF0080E8AF800E01FFAA3
:1087A0008EFA11FB0AF112FB0AF2DFF8B8A0A9F861
:1087B000001092B200214FF06409B8F1020F22803C
:1087C00039701970CAF804108AF801907FF452AF1A
:1087D000274A0121A2F804E0D18048E74868301A0E
:1087E000244EB042C8BF4A703FF758AFC2F164028E
:1087F000214E00FB02F086FB0062C017A0EBA250E6
:10880000643048704AE70028E8D101274E600F70B5
:10881000ECE70820BDE8F04733F00EBD02233B70C3
:1088200031E7032C7FF471AFB8F1020F9AD10B4AF4
:108830000F4B12789A800229CCBF00210121D980E8
:10884000054FFDE6A58E0020143E0020DC9100209F
:10885000CC930020183E0020743E0020D2930020CC
:10886000163E00201C3E0020DA9100202D6F0020D3
:10887000306F00207F9698006BCA5F6B30B504465E
:10888000806D61718389A26823F400531B041B0C63
:10889000838185B0A379009213F0040F4FEA03326D
:1088A0004FEA03230CBF00254FF4805503F4806387
:1088B00002F40052ADF80450ADF80830002511F074
:1088C0000103ADF80620ADF80C501CD1ADF80A300C
:1088D00008238A07694648BFADF80A3020F090F8AF
:1088E000A37913F0080FA36D9A8A05BF22F008023E
:1088F000120442F00802120C9A829A8942F4005241
:108900009A8105B030BD0423ADF80A300C23E0E7AE
:1089100030B50446806DA160838923F400531B04A5
:108920001B0C8381A37985B013F0040F009108BF5D
:108930000025617918BF4FF48055ADF804501A0333
:1089400000251B0203F48063ADF80A50ADF80C500B
:10895000CD07ADF8083002F4005244BF0423ADF84F
:108960000A30ADF806204CBF0C2308238A0769465D
:1089700048BFADF80A3020F043F8A37913F0080F90
:10898000A36D9A8A05BF22F00802120442F0080281
:10899000120C9A829A8942F400529A8105B030BD35
:1089A000F8B50468C4F30D0405460E4604B32F68F9
:1089B00020F086F8092840F08980464C236923F48A
:1089C00040732361236943F400732361236943F0F7
:1089D000010323613E6020F073F82369092823F026
:1089E0000103236172D12B6804332B60002036E031
:1089F000394B3A4A93422CD902F58042934227D907
:108A000002F5804293422BD902F58042934229D944
:108A100002F58032934227D902F50032934225D9DC
:108A200002F50032934223D902F50032934221D954
:108A300002F5003293421FD902F5802293421DD9DC
:108A4000B3F1016F1CD305201DF0DAFF32F0C8F935
:108A5000082420F035F8092814D04FF0FF30F8BD75
:108A60001024F6E71824F4E72024F2E72824F0E79E
:108A70003024EEE73824ECE74024EAE74824E8E72E
:108A80005824E6E7134F3B6923F440733B613B698D
:108A900043F400733B613B6923F0F8033B613B699E
:108AA00043F002031C433C613B6943F480333B6168
:108AB00020F006F83B6923F002033B613B6909287B
:108AC00023F0F8033B613FF472AFC6E76FF001009B
:108AD000C5E700BF003C024000400008FF3F00081F
:108AE000F8B504460D468E180027B542206900D11E
:108AF000F8BDE368591CE160234415F8012B1A7294
:108B00000429F2D118B9A1682046FFF749FFC4E94A
:108B10000370EAE7022828BF022010B4084C094B72
:108B2000207000EB8002C0EBC20207495DF8044BE5
:108B3000013003EB4203C0B20B6033F099BC00BFBD
:108B400040720020AE2E002028A1002010B5434B1B
:108B50009A78013A1F2A54D841490A4492F874205D
:108B60005A839A89D989914224BF00229A81598ACD
:108B70001A8A914224BF00221A823A49DA782020C8
:108B8000188391F854008AB1072A0FD0DFED367AA6
:108B90009FED367A364C01220A284FF0000118BFAB
:108BA000F0EE477A22709A70D9710AE00A28D979D2
:108BB0002AD0DFED307A9FED307A0C2818BFF0EE26
:108BC000477A2E4C9FED2E0AA278002918BFF0EEAE
:108BD000407A062A04D8224901EB820191ED250A48
:108BE0002179A1B1013A032A0AD8F7EE007A87EE7B
:108BF000800A38F021FA2388984228BF184620803E
:108C000010BD01225A83ACE7DFED1E7AD9E79B78CD
:108C1000174907EE103A0A78B8EEC77A67EE277A56
:108C200007EE102AB8EEC77A27EE277AB4EEC70A05
:108C3000F1EE10FAE4DD80EE277AFDEEC77A17EE4A
:108C4000903A102BA8BF1023012BB8BF0123DBB231
:108C50009A4238BF1A460A7010BD00BF982F0020F4
:108C60001C150408D49300200F506E3A6F12833AFB
:108C7000803900200AD7A3396F120339F881002008
:108C80006F1203385304E938F0B50C2934D8DFE803
:108C900001F08A3333335F333333343333330700F4
:108CA000048C9689B2F802C01788744D24F480545D
:108CB0002404240C0484038C8488818B23F40053C3
:108CC00021F4E6411B0409041B0C46EA0C06090CBE
:108CD00043EA063341EA0721A8429BB2A4B289B213
:108CE00000F09E8005F58065A84200F099809268AA
:108CF0008480818302640384F0BD048C9589B2F87A
:108D000002E017885D4E24F480742404240C04844B
:108D1000038CB0F804C0818B23F400731B0421F092
:108D2000730145EA0E041B0C090443EA0423090CF1
:108D3000B0429BB21FFA8CF541EA07015BD0504C60
:108D4000A04258D0926885808183C2630384F0BDBD
:108D5000048C9589B2F802E0B2F800C0474E24F0C6
:108D600010042404240C0484038C8788018B23F0D2
:108D7000200321F4E6411B0409041B0C45EA0E0400
:108D8000090C43EA041341EA0C21B0429BB2BFB282
:108D900089B25BD03A4CA04258D092688780018358
:108DA00082630384F0BD048C9589B2F802C01788F1
:108DB000324E24F001042404240C0484018C8488A1
:108DC000038B21F0020123F0730309041B04090C37
:108DD00045EA0C051B0CB04241EA0501A4B243EA86
:108DE000070324D0264DA84221D0926884800383B3
:108DF00042630184F0BDD489168A578A23F4006344
:108E000043EA04234FF6FF341C40938825F4405571
:108E10003E4344EA032345EA06149BB2A5B291E718
:108E2000158A24F4804444EA8514A4B25FE7D68905
:108E3000158A578A21F008013143968824F440743A
:108E400021F004013D4331432C43CEE7D489168AF7
:108E5000B2F812C023F0800343EA04134FF6BF7444
:108E60001C40938827F4406546EA0C0644EA031345
:108E700045EA86049BB2A7B28FE700BF000001401D
:108E8000000401402DE9F84FA022904C9048914DEC
:108E9000DFF860A2904FDFF86082DFF86092002177
:108EA00037F0F0FE8D48DFF858C2DFF858E204F1E1
:108EB000FC06A346DBF80030AB4200F0E280B3F1E1
:108EC000804F00F0E080BB4200F0DF80634500F09F
:108ED000EA80734500F0E980434500F0E8804B45A7
:108EE00000F0E7807E4A934200F0E58002F5705280
:108EF000934200F0E28002F58062934200F0DF804E
:108F000002F58062934200F0DC80A2F59832934231
:108F100000F0D98002F58062934200F0958002F55E
:108F20008062934208BF0D2300F08F800BF1240B69
:108F30005E45BFD16B4E6C4D4FF003094FF00208F8
:108F4000A379002B7AD023791F09013F032F03F067
:108F50000F0373D836F8170040FA03F2D2076DD525
:108F60004FF0010A0AFA03F3013B184037F052FAB6
:108F70005E4BDB5D184415EBC0075FD055F8303011
:108F80005B48217A03F13F4202F57E02920A825C3D
:108F900002F01F005209032A0AFA00FA7DD0042ABF
:108FA00075D0022A04D14D48426C4AEA020242645A
:108FB000B7F804C0BCFA8CF2C2F11F0292B2D0081A
:108FC00003EB800002F00702076A92004FF00F0ED9
:108FD0000EFA02FE27EA0E070762076A01FA02F29A
:108FE0003A4302624FF0010E00220EFA02F737EA0E
:108FF0000C0120D15000D3F800A009FA00F1C943B8
:109000000AEA010AC3F800A0D3F800A008FA00F0A9
:1090100040EA0A001860986808409860986898606C
:10902000586820EA07075F6058685860D8680140B0
:10903000D960D968D9600132102AD6D12434A34529
:109040007FF47EAFBDE8F88F0C230AEBC303012148
:109050001B7903F01F025B09032B01FA02F208D00F
:10906000042B0AD0022B7FF461AF416C0A434264A7
:109070005CE7016C0A43026458E7016B0A43026330
:1090800054E70023E1E70123DFE70223DDE713488C
:10909000026B4AEA020202638AE71048026C4AEA5B
:1090A0000202026484E70323CFE70423CDE705230C
:1090B000CBE70623C9E70723C7E70823C5E709234A
:1090C000C3E70A23C1E70B23BFE700BFB8210408A9
:1090D0006C3D0020000001400004004000380240C8
:1090E00000040140E0220408486F0020E822040840
:1090F000EC22040860240408001000400014004022
:1091000000080040000C004000B9704703682DE9DA
:10911000F04F03F13F4404F57E04534EA40A0125A9
:10912000345D04F01F066409032C05FA06F500F00F
:109130009580042C00F08D80022C45D08588B5FAEE
:1091400085F0C0F11F0080B2C40803EB840400F076
:109150000700266A80000F27874026EA0706266256
:10916000276A01F003068240701E3A4301282262FA
:10917000C1F3810EC1F300184FF000024FEA511104
:109180004FF0010C25D94FF0030E0CFA02F0A84362
:1091900015D150001F680EFA00F4E44327401F6009
:1091A000D3F8008006FA00F747EA08071F60DF6877
:1091B0003C40DC60DC6801FA00F02043D8600132FA
:1091C000102AE2D1BDE8F08F284C666C3543656407
:1091D000B4E74FF003090CFA02F737EA050033D180
:1091E0005000D3F800A009FA00F4E4430AEA040AA4
:1091F000C3F800A0D3F800B006FA00FA4AEA0B0A56
:10920000C3F800A0D3F808A004EA0A0AC3F808A02B
:10921000D3F808B00EFA00FA4AEA0B0AC3F808A01D
:10922000D3F804A02AEA07075F60D3F804A008FA7D
:1092300002F747EA0A075F60DF683C40DC60DC68F1
:1092400001FA00F02043D8600132102AC3D1BDE8F2
:10925000F08F064C266B354325636FE7034C266C75
:10926000354325646AE700BFEC2204080038024059
:1092700003682DE9F04F03F13F4404F57E04534E9B
:10928000A40A0125345D04F01F066409032C05FAC5
:1092900006F500F09580042C00F08D80022C46D05D
:1092A0008588B5FA85F0C0F11F0080B2C40803EBD1
:1092B000840400F00700266A80000F27874026EA12
:1092C00007062662276A01F0030602FA00F0721E02
:1092D0003843012AC1F3810EC1F3001820624FEA1E
:1092E00051114FF000024FF0010C25D94FF0030E41
:1092F0000CFA02F0A84315D150001F680EFA00F4D2
:10930000E44327401F60D3F8008006FA00F747EADD
:1093100008071F60DF683C40DC60DC6801FA00F091
:109320002043D8600132102AE2D1BDE8F08F284CEA
:10933000666C35436564B3E74FF003090CFA02F736
:1093400037EA050033D15000D3F800A009FA00F441
:10935000E4430AEA040AC3F800A0D3F800B006FA0E
:1093600000FA4AEA0B0AC3F800A0D3F808A004EAFE
:109370000A0AC3F808A0D3F808B00EFA00FA4AEABD
:109380000B0AC3F808A0D3F804A02AEA07075F6015
:10939000D3F804A008FA02F747EA0A075F60DF681B
:1093A0003C40DC60DC6801FA00F02043D860013208
:1093B000102AC3D1B9E7064C266B354325636FE706
:1093C000034C266C354325646AE700BFEC22040891
:1093D0000038024010B50409013C032C17D80E4B8D
:1093E00033F8142000F00F0042FA00F313F00103E9
:1093F0000FD0012303FA00F00138104037F00AF8CB
:10940000064A074B125D104403EBC00010BD00205C
:1094100010BD184610BD00BFE0220408E822040871
:10942000486F00202DE9F8432F4D2B8AB5F80C80AA
:1094300018EA030827D02D4E4FF00047B8FA88F3FA
:1094400027FA03F2D24391B21B3B08EA02082982B1
:10945000042B15D8DFE803F0352B22190300D6F8CA
:109460009C30002B37D1EB6A1FFA83F9D6F898406D
:1094700034B123682046494698476468002CF8D1E7
:10948000B8F1000FDAD1BDE8F883B06F696B0368FB
:1094900089B29847B8F1000FD0D1F4E7F06FA96B0B
:1094A000036889B29847B8F1000FC7D1EBE7D6F847
:1094B0008000E96B036889B29847B8F1000FBDD10D
:1094C000E1E7D6F88400296C036889B29847B8F1BF
:1094D000000FB3D1D7E703F1FF3900231FFA89F951
:1094E000C6F89C30C2E700BF001800406C3D002069
:1094F0002DE9F8432C4D2B8AB5F80C8018EA0308A7
:1095000025D02A4E4FF00047B8FA88F327FA03F225
:10951000D24391B21B3B08EA02082982042B13D8DC
:10952000DFE803F0322920170300736F002B34D1DA
:10953000EB6A1FFA83F9346F34B123682046494639
:1095400098476468002CF8D1B8F1000FDCD1BDE871
:10955000F883306D696B036889B29847B8F1000FE2
:10956000D2D1F4E7706DA96B036889B29847B8F15E
:10957000000FC9D1EBE7B06DE96B036889B298477A
:10958000B8F1000FC0D1E2E7F06D296C036889B231
:109590009847B8F1000FB7D1D9E703F1FF3900239D
:1095A0001FFA89F97367C6E7000401406C3D00208B
:1095B0002DE9F8432C4D2B8AB5F80C8018EA0308E6
:1095C00025D02A4E4FF00047B8FA88F327FA03F265
:1095D000D24391B21B3B08EA02082982042B13D81C
:1095E000DFE803F0322920170300736F002B34D11A
:1095F000EB6A1FFA83F9346F34B123682046494679
:1096000098476468002CF8D1B8F1000FDCD1BDE8B0
:10961000F883306D696B036889B29847B8F1000F21
:10962000D2D1F4E7706DA96B036889B29847B8F19D
:10963000000FC9D1EBE7B06DE96B036889B29847B9
:10964000B8F1000FC0D1E2E7F06D296C036889B270
:109650009847B8F1000FB7D1D9E703F1FF390023DC
:109660001FFA89F97367C6E7000401406C3D0020CA
:109670002DE9F8432C4D2B8AB5F80C8018EA030825
:1096800025D02A4E4FF00047B8FA88F327FA03F2A4
:10969000D24391B21B3B08EA02082982042B13D85B
:1096A000DFE803F0322920170300F36C002B34D1DC
:1096B000EB6A1FFA83F9B46C34B12368204649463B
:1096C00098476468002CF8D1B8F1000FDCD1BDE8F0
:1096D000F883B06A696B036889B29847B8F1000FE4
:1096E000D2D1F4E7F06AA96B036889B29847B8F160
:1096F000000FC9D1EBE7306BE96B036889B298477B
:10970000B8F1000FC0D1E2E7706B296C036889B231
:109710009847B8F1000FB7D1D9E703F1FF3900231B
:109720001FFA89F9F364C6E7000800406C3D002089
:109730002DE9F8432C4D2B8AB5F80C8018EA030864
:1097400025D02A4E4FF00047B8FA88F327FA03F2E3
:10975000D24391B21B3B08EA02082982042B13D89A
:10976000DFE803F0322920170300736A002B34D19D
:10977000EB6A1FFA83F9346A34B1236820464946FC
:1097800098476468002CF8D1B8F1000FDCD1BDE82F
:10979000F8833068696B036889B29847B8F1000FA5
:1097A000D2D1F4E77068A96B036889B29847B8F121
:1097B000000FC9D1EBE7B068E96B036889B298473D
:1097C000B8F1000FC0D1E2E7F068296C036889B2F4
:1097D0009847B8F1000FB7D1D9E703F1FF3900235B
:1097E0001FFA89F97362C6E7000001406C3D002052
:1097F0002DE9F8432C4D2B8AB5F80C8018EA0308A4
:1098000025D02A4E4FF00047B8FA88F327FA03F222
:10981000D24391B21B3B08EA02082982042B13D8D9
:10982000DFE803F0322920170300736A002B34D1DC
:10983000EB6A1FFA83F9346A34B12368204649463B
:1098400098476468002CF8D1B8F1000FDCD1BDE86E
:10985000F8833068696B036889B29847B8F1000FE4
:10986000D2D1F4E77068A96B036889B29847B8F160
:10987000000FC9D1EBE7B068E96B036889B298477C
:10988000B8F1000FC0D1E2E7F068296C036889B233
:109890009847B8F1000FB7D1D9E703F1FF3900239A
:1098A0001FFA89F97362C6E7000001406C3D002091
:1098B000F0B506683F4CB30AA3426CD065D93E4C64
:1098C000A3425AD00134A34256D1702702254379CE
:1098D000B6F80CE0022023FA00F4A0401FFA80FC46
:1098E000A8002346441903EB4403344C002955D007
:1098F0004CEA0E0C03F1040E44F8231044F82E2019
:10990000A6F80CC0E319EFF31181502282F31288FC
:10991000421904EBC202D2F810C0BCF1000F03D010
:1099200044F807C013690433421904EBC2025769B3
:1099300017B11F6053690433421904EBC2029769DF
:1099400017B11F6093690433421904EBC202D7694F
:1099500017B11F60D36904330027CAB21F6082F3B6
:109960001188284404EBC004236A4BB9B38923F05F
:1099700001031B041B0CB381F0BD20270025A6E7C3
:10998000B38943F00103B381F0BD043CA342F3D19A
:10999000482701259BE79827032598E72EEA0C0C1A
:1099A00003F1040EA6F80CC044F8231044F82E204E
:1099B000A8E700BF06001000400010006C3D00202A
:1099C00010B503687C487D4C0139834282B024681D
:1099D00089B200F0AF80A0F58060834200F0AA80D9
:1099E00000F58040834200F0818000F58060834272
:1099F0007CD000F58060834278D018886408B4FB7E
:109A0000F2F4013CA4B282B2B3F1804F0AD06C48A8
:109A1000834207D000F58060834203D000F5806068
:109A2000834202D122F0700292B26648834200F073
:109A30008F8000F58060834200F0938022F44072B2
:109A400000F56C4092B283421A80D9621C8540F0C6
:109A50009180012100221A86998219885A4841F082
:109A600001018342198049D0B3F1804F00F08D800D
:109A7000534A934200F08B8002F58062934200F0DB
:109A8000888002F58062934200F0858002F5806252
:109A9000934200F0828002F5806293427FD002F50B
:109AA000704293427DD002F5705293427BD002F512
:109AB0008062934279D002F58062934277D0A2F51A
:109AC0009832934275D002F58062934215D002F528
:109AD0008062934208BF0D2210D002A84FF00123EC
:109AE00040F8043D20F0AEF802B010BD1888B4FB79
:109AF000F2F4013CA4B282B286E70C22334B03EBB2
:109B0000C20201A854798DF80440012300228DF887
:109B100005308DF807308DF8062020F093F81B2CC7
:109B20000FD02E2CE0D12A4B019301A820F08AF807
:109B300002B010BD1888B4FBF2F4013CA4B282B2AA
:109B400070E7244B019301A820F07CF802B010BD0F
:109B500001201A80D9621C8598821A8802431A80D3
:109B600086E701201A80D9621C8598821A880243F0
:109B70001A8079E7104A93423FF46BAF01229A8230
:109B80001A8842F001021A806EE70122B6E702222B
:109B9000B4E70322B2E70422B0E70522AEE70622CB
:109BA000ACE70722AAE70822A8E70922A6E70A22CB
:109BB000A4E70B22A2E700BF000401406479002063
:109BC0000004004000100040000001406024040830
:109BD0002C010001190100012B4B98423CD0B0F13F
:109BE000804F3BD0A3F57C43984239D003F5806386
:109BF000984237D003F58063984235D003F58063EF
:109C0000984233D003F58063984233D003F5704314
:109C1000984231D003F57053984229D003F5806300
:109C200098422BD003F58063984229D0A3F598334E
:109C3000984227D003F58063984207D003F58063EC
:109C4000984208BF0D2202D0002070470C220F4B13
:109C500003EBC203187970470022F8E70122F6E708
:109C60000222F4E70322F2E70422F0E70522EEE7FE
:109C70000822ECE70622EAE70722E8E70922E6E7FE
:109C80000A22E4E70B22E2E7000001406024040816
:109C90002DE9F04F83B08E4DDFF8408201908B4666
:109CA0000BF1FF339B46013300F00E811CF012FDD7
:109CB000884C894FDFF828C24FF4FA7A4FF0100E23
:109CC0004FF47A76DCF80430C3F30803002B40F03D
:109CD000DF80EFF31183002B40F0DA802168AA685F
:109CE00000BF23689942F9D1386806FB00F39A1A3D
:109CF000B2FBF0F206FB0121DCF80430C3F30803E9
:109D0000002B40F0A680EFF31183002B40F0A180E0
:109D10002368A86800BF22689342F9D1D7F8009061
:109D200006FB09F2101AB0FBF9F006FB03035B1AFD
:109D3000B3F57A7FE0D3BAF1010AC3D1019B581C75
:109D4000C0B21CF023FBDFF898C1DCF804304FF4FC
:109D50007A7AC3F3080356464FF0100E002B38D121
:109D6000EFF31183002B34D12168AA6800BF236868
:109D70009942F9D1386806FB00F39A1AB2FBF0F267
:109D800006FB0121DCF80430C3F30803002B41D1AA
:109D9000EFF31183002B3DD12368A86800BF226830
:109DA0009342F9D1D7F8009006FB09F2101AB0FBE4
:109DB000F9F006FB03035B1AB3F57A7FE2D3BAF13D
:109DC000010A3FF46DAFDCF80430C3F30803002B45
:109DD000C6D0EFF311828EF31288A8682B68D903DE
:109DE00003D50123C8F80030A8682368D8F800100C
:109DF000D2B282F311883A68194406FB02F31B1AA7
:109E0000B3FBF2F306FB0131DCF80430C3F30803C3
:109E1000002BBDD0EFF311808EF31288D5F8089097
:109E20002B68DB0304D50123C8F80030D5F808906F
:109E30002368D8F80020C0B280F311883868134432
:109E400006FB00F2A2EB0902B2FBF0F206FB0323D1
:109E5000B1E7EFF311808EF31288D5F808902B68E4
:109E6000DB0304D50123C8F80030D5F80890236837
:109E7000D8F80020C0B280F311883868134406FB7C
:109E800000F2A2EB0902B2FBF0F206FB03234EE75D
:109E9000EFF311828EF31288A8682B68D90303D5DB
:109EA0000123C8F80030A8682368D8F80010D2B29F
:109EB00082F311883A68194406FB02F31B1AB3FBBC
:109EC000F2F306FB013117E703B0BDE8F08F00BFE6
:109ED00010E000E0446F0020D4700020D07000201B
:109EE00000ED00E0204B5B68C3F3080330B4BBB95E
:109EF000EFF31183A3B91D4A1D481368846800BF9E
:109F000011688B42F9D11B4A11684FF47A7202FB37
:109F100001F0001B30BCB0FBF1F002FB0300704706
:109F2000EFF31182102383F312881149124D8C68CC
:109F30000B68DB0344BF01232B600C4B48BF8C68CC
:109F40001B682868D2B282F311880A4A11684FF45C
:109F50007A72184402FB01F31B1B30BCB3FBF1F314
:109F600002FB0030704700BF00ED00E0446F0020AE
:109F700010E000E0D4700020D07000202DE9F84FF0
:109F80000746264E264DFFF7ADFF264A2649DFF845
:109F90009CC04FF0100E4FF47A744FF001086B68BC
:109FA000C3F30803CBB9EFF31183B3B91368D1F846
:109FB00008A000BFD2F800904B45F7D1D6F800902A
:109FC00004FB09FBABEB0A0ABAFBF9FA04FB03A397
:109FD0001B1ABB42E3D3BDE8F88FEFF3118A8EF36F
:109FE0001288D1F808B00B68DB0344BFCCF80080BE
:109FF000D1F808B01368DCF800905FFA8AFA8AF3A7
:10A000001188D6F800A04B4404FB0AF9A9EB0B0910
:10A01000B9FBFAF904FB0393DAE700BFD470002020
:10A0200000ED00E0446F002010E000E0D070002060
:10A030002DE9F84F2A4C2B4E2B4D2C4F804618F112
:10A04000FF384AD3FFF74EFF29494B68C3F3080393
:10A050004FF0100C4FF47A724FF0010EEBB9EFF3A2
:10A060001183D3B92368D5F808A000BFD4F80090B5
:10A070004B45F7D1D6F8009002FB09FBABEB0A0A7F
:10A08000BAFBF9FA02FB03A31B1AB3F57A7FD6D207
:10A090004B68C3F30803002BE1D0EFF3118A8CF374
:10A0A0001288D5F808B02B68DB0344BFC7F800E07E
:10A0B000D5F808B02368D7F800905FFA8AFA8AF3D7
:10A0C0001188D6F800A04B4402FB0AF9A9EB0B0952
:10A0D000B9FBFAF902FB0393D6E7BDE8F88F00BF9E
:10A0E000446F0020D470002010E000E0D070002009
:10A0F00000ED00E030B4EFF31183102282F31288F8
:10A100000649074C0A680748013200250A602560A5
:10A11000DBB2026883F3118830BC7047446F0020C3
:10A12000D070002010E000E038B5254B1C69626B50
:10A13000A36D62B1A26BC2B1998A1A88C90592B2A5
:10A1400004D5D20744BF4FF6F7721A8038BD9989FB
:10A150001A88890692B2EDD59206EBD5E26AFAB179
:10A160009888216B9047A36DE4E799891A880D06BA
:10A1700092B2E1D51006DFD5D4E909128A420AD09D
:10A18000A1692569885C98800132B2FBF5F105FB75
:10A190001122A262D0E7DA6822F08002DA60CBE70F
:10A1A0009B88E2696169DBB28B54E269E068A36D68
:10A1B0000132B2FBF0F100FB1122E261BAE700BF0D
:10A1C0000441002038B5254BDC68626BA36D62B199
:10A1D000A26BC2B1998A1A88C90592B204D5D20776
:10A1E00044BF4FF6F7721A8038BD99891A888906DC
:10A1F00092B2EDD59206EBD5E26AFAB19888216B5E
:10A200009047A36DE4E799891A880D0692B2E1D5CB
:10A210001006DFD5D4E909128A420AD0A16925695E
:10A22000885C98800132B2FBF5F105FB1122A26235
:10A23000D0E7DA6822F08002DA60CBE79B88E26937
:10A240006169DBB28B54E269E068A36D0132B2FB55
:10A25000F0F100FB1122E261BAE700BF04410020E7
:10A2600038B5254B9C68626BA36D62B1A26BC2B11D
:10A27000998A1A88C90592B204D5D20744BF4FF60D
:10A28000F7721A8038BD99891A88890692B2EDD57D
:10A290009206EBD5E26AFAB19888216B9047A36DDC
:10A2A000E4E799891A880D0692B2E1D51006DFD548
:10A2B000D4E909128A420AD0A1692569885C98808C
:10A2C0000132B2FBF5F105FB1122A262D0E7DA6898
:10A2D00022F08002DA60CBE79B88E2696169DBB239
:10A2E0008B54E269E068A36D0132B2FBF0F100FB30
:10A2F0001122E261BAE700BF0441002038B5254BC6
:10A300005C68626BA36D62B1A26BC2B1998A1A8854
:10A31000C90592B204D5D20744BF4FF6F7721A802E
:10A3200038BD99891A88890692B2EDD59206EBD587
:10A33000E26AFAB19888216B9047A36DE4E79989A6
:10A340001A880D0692B2E1D51006DFD5D4E90912BC
:10A350008A420AD0A1692569885C98800132B2FBE3
:10A36000F5F105FB1122A262D0E7DA6822F0800243
:10A37000DA60CBE79B88E2696169DBB28B54E26902
:10A38000E068A36D0132B2FBF0F100FB1122E26143
:10A39000BAE700BF0441002038B5254B1C68626B4A
:10A3A000A36D62B1A26BC2B1998A1A88C90592B233
:10A3B00004D5D20744BF4FF6F7721A8038BD998989
:10A3C0001A88890692B2EDD59206EBD5E26AFAB107
:10A3D0009888216B9047A36DE4E799891A880D0648
:10A3E00092B2E1D51006DFD5D4E909128A420AD02B
:10A3F000A1692569885C98800132B2FBF5F105FB03
:10A400001122A262D0E7DA6822F08002DA60CBE79C
:10A410009B88E2696169DBB28B54E269E068A36DF5
:10A420000132B2FBF0F100FB1122E261BAE700BF9A
:10A4300004410020002A12DD70B504460D468E1836
:10A44000236820469B6898470028F9D0236815F8B0
:10A45000011B1B6820469847B542F1D170BD70477B
:10A4600003685B6A03B11847704700BF03681B6A43
:10A4700003B11847704700BF03682DE9F041DD695B
:10A480001DB12B46BDE8F0411847002A174611DDE3
:10A4900004460E460F4400E023689B682046984718
:10A4A0000028F9D0236816F8011B1B68204698473E
:10A4B000BE42F1D1BDE8F08103689B69184700BF37
:10A4C00003685B69184700BF03681B69184700BF32
:10A4D0000368DB68184700BF03689B68184700BF24
:10A4E00003685B68184700BF03681B68184700BF14
:10A4F000014B1868F8E700BFE027002038B50C468C
:10A50000097849B1054601342B6828461B689847ED
:10A5100014F8011B0029F7D138BD00BF064B53F8D2
:10A5200020302BB11A689B8851690B4201D11383EB
:10A5300070475383704700BF007200202DE9F04F31
:10A540004A484B494B4B4C4C4FF0010A4FF0020923
:10A550004FF004084FF0080E4FF0100C2027402653
:10A56000802530F8022B12F0010F03D01960A3F8F8
:10A5700004A0083312F0020F03D01960A3F804906E
:10A58000083312F0040F03D01960A3F804800833D5
:10A5900012F0080F03D01960A3F804E0083312F09A
:10A5A000100F03D01960A3F804C0083312F0200F75
:10A5B00002D019609F80083312F0400F02D019605A
:10A5C0009E80083312F0800F02D019609D800833FE
:10A5D00012F4807F05D04FF4807B1960A3F804B09B
:10A5E000083312F4007F05D04FF4007B1960A3F804
:10A5F00004B0083312F4806F05D04FF4806B1960FB
:10A60000A3F804B0083312F4006F05D04FF4006BC8
:10A610001960A3F804B0083312F4805F05D04FF43A
:10A62000805B1960A3F804B0083312F4005F05D012
:10A630004FF4005B1960A3F804B0083312F4804FA4
:10A6400005D04FF4804B1960A3F804B00833D20B47
:10A6500004D04FF4004219609A80083301F58061FC
:10A66000A1427FF47EAFBDE8F08F00BFE022040876
:10A6700000000240486F00200010024000B97047FF
:10A68000036803F13F4202F57E022DE9F04F920A82
:10A69000464DAA5C02F01F0552090124032A04FA60
:10A6A00005F47ED0042A77D0022A30D001F00306C8
:10A6B000721E012AC1F3810EC1F300188588C1F30F
:10A6C00041114FF000024FF0010C25D94FF0030E5D
:10A6D0000CFA02F0A84315D150001F680EFA00F4DE
:10A6E000E44327401F60D3F8008006FA00F747EAEA
:10A6F00008071F60DF683C40DC60DC6801FA00F09E
:10A700002043D8600132102AE2D1BDE8F08F284AF8
:10A71000556C2C435464C9E74FF003090CFA02F757
:10A7200037EA050033D15000D3F800A009FA00F44D
:10A73000E4430AEA040AC3F800A0D3F800B006FA1A
:10A7400000FA4AEA0B0AC3F800A0D3F808A004EA0A
:10A750000A0AC3F808A0D3F808B00EFA00FA4AEAC9
:10A760000B0AC3F808A0D3F804A02AEA07075F6021
:10A77000D3F804A008FA02F747EA0A075F60DF6827
:10A780003C40DC60DC6801FA00F02043D860013214
:10A79000102AC3D1BDE8F08F054A156B2C43146312
:10A7A00084E7034A156C2C4314647FE7EC22040809
:10A7B0000038024010B1036882885A83704700BF96
:10A7C00010B1036882881A83704700BF18B103680C
:10A7D000828809B95A8370471A83704710B40A4BAC
:10A7E0000A4A1C7801238340234052F8200029B9EB
:10A7F000B3FA83F149095DF8044BE7E7191C18BF68
:10A8000001215DF8044BE1E7FC710020007200209B
:10A8100008B501210220FFF7E1FF094B1B7803F087
:10A820000503052B08D000210120FFF7D7FF0021E9
:10A830000846FFF7D3FFFEE72BF002FDF3E700BF6A
:10A84000004100200E4B1B8801463BB90D4B0E4AC0
:10A850001B7810680BB981F00101B7E70B4B5A69FF
:10A860001AB11A6810B9106058747047084809493D
:10A87000008891FBF0F1012011605874704700BF0F
:10A880000C7200200E720020107200201472002042
:10A890002C72002020A1070030B1036882881B6958
:10A8A0001A4214BF01200020704700BF2DE9F0417B
:10A8B0000B4E356873691D4010D0DFF828800127E2
:10A8C000B5FA85F4C4F11F0408EB840307FA04F415
:10A8D000586803689847A5437461F1D1BDE8F081D9
:10A8E000003C0140E02700202DE9F0410B4E356887
:10A8F00073691D4010D0DFF828800127B5FA85F470
:10A90000C4F11F0408EB840307FA04F458680368D1
:10A910009847A5437461F1D1BDE8F081003C014046
:10A92000E02700202DE9F0410B4E356873691D408A
:10A9300010D0DFF828800127B5FA85F4C4F11F0490
:10A9400008EB840307FA04F4586803689847A543A2
:10A950007461F1D1BDE8F081003C0140E0270020A6
:10A960002DE9F0410B4E356873691D4010D0DFF8BA
:10A9700028800127B5FA85F4C4F11F0408EB84038D
:10A9800007FA04F4586803689847A5437461F1D145
:10A99000BDE8F081003C0140E02700202DE9F041B6
:10A9A0000B4E356873691D4010D0DFF828800127F1
:10A9B000B5FA85F4C4F11F0408EB840307FA04F424
:10A9C000586803689847A5437461F1D1BDE8F081E8
:10A9D000003C0140E02700202DE9F0410B4E356896
:10A9E00073691D4010D0DFF828800127B5FA85F47F
:10A9F000C4F11F0408EB840307FA04F458680368E1
:10AA00009847A5437461F1D1BDE8F081003C014055
:10AA1000E02700202DE9F0410B4E356873691D4099
:10AA200010D0DFF828800127B5FA85F4C4F11F049F
:10AA300008EB840307FA04F4586803689847A543B1
:10AA40007461F1D1BDE8F081003C0140E0270020B5
:10AA5000084A10B5536C084C43F480435364201DDE
:10AA60004022002136F00EF94FF0FF336364C4F842
:10AA7000473010BD00380240E027002010B58B6839
:10AA80000160044698470022FF230121A2736373EB
:10AA9000217310BD03685B6A184700BF03681B6A17
:10AAA000184700BF70B44E1C0568C2728672AC694C
:10AAB000A44670BC604700BF2DE9F041044618462B
:10AAC0000D4616461F4634F087FF2844A0722068C2
:10AAD000E672294645693B4632462046AC46BDE80B
:10AAE000F0416047036810B504461B689847236827
:10AAF00020469B689847A37B0133A37310BD00BF1A
:10AB000003681B69184700BF10B5036804469B68BB
